{
	"contracts/Pokemon.sol": {
		"Pokemon": {
			"abi": [
				{
					"inputs": [],
					"stateMutability": "nonpayable",
					"type": "constructor"
				},
				{
					"inputs": [
						{
							"internalType": "address",
							"name": "",
							"type": "address"
						},
						{
							"internalType": "address",
							"name": "",
							"type": "address"
						}
					],
					"name": "allowance",
					"outputs": [
						{
							"internalType": "uint256",
							"name": "",
							"type": "uint256"
						}
					],
					"stateMutability": "view",
					"type": "function"
				},
				{
					"inputs": [
						{
							"internalType": "address",
							"name": "spender",
							"type": "address"
						},
						{
							"internalType": "uint256",
							"name": "amount",
							"type": "uint256"
						}
					],
					"name": "approve",
					"outputs": [
						{
							"internalType": "bool",
							"name": "",
							"type": "bool"
						}
					],
					"stateMutability": "nonpayable",
					"type": "function"
				},
				{
					"inputs": [
						{
							"internalType": "address",
							"name": "account",
							"type": "address"
						}
					],
					"name": "balanceOf",
					"outputs": [
						{
							"internalType": "uint256",
							"name": "",
							"type": "uint256"
						}
					],
					"stateMutability": "view",
					"type": "function"
				},
				{
					"inputs": [
						{
							"internalType": "address",
							"name": "",
							"type": "address"
						}
					],
					"name": "balances",
					"outputs": [
						{
							"internalType": "uint256",
							"name": "",
							"type": "uint256"
						}
					],
					"stateMutability": "view",
					"type": "function"
				},
				{
					"inputs": [
						{
							"internalType": "uint256",
							"name": "amount",
							"type": "uint256"
						}
					],
					"name": "burn",
					"outputs": [],
					"stateMutability": "nonpayable",
					"type": "function"
				},
				{
					"inputs": [],
					"name": "buyPokemon",
					"outputs": [],
					"stateMutability": "nonpayable",
					"type": "function"
				},
				{
					"inputs": [],
					"name": "decimals",
					"outputs": [
						{
							"internalType": "uint8",
							"name": "",
							"type": "uint8"
						}
					],
					"stateMutability": "view",
					"type": "function"
				},
				{
					"inputs": [],
					"name": "getPokemon",
					"outputs": [
						{
							"components": [
								{
									"internalType": "string",
									"name": "url",
									"type": "string"
								},
								{
									"internalType": "string",
									"name": "name",
									"type": "string"
								}
							],
							"internalType": "struct Pokemon.Pokes[]",
							"name": "",
							"type": "tuple[]"
						}
					],
					"stateMutability": "view",
					"type": "function"
				},
				{
					"inputs": [],
					"name": "getPokemonUsers",
					"outputs": [
						{
							"components": [
								{
									"internalType": "address",
									"name": "account",
									"type": "address"
								}
							],
							"internalType": "struct Pokemon.Users[]",
							"name": "",
							"type": "tuple[]"
						}
					],
					"stateMutability": "view",
					"type": "function"
				},
				{
					"inputs": [],
					"name": "name",
					"outputs": [
						{
							"internalType": "string",
							"name": "",
							"type": "string"
						}
					],
					"stateMutability": "view",
					"type": "function"
				},
				{
					"inputs": [
						{
							"internalType": "address",
							"name": "",
							"type": "address"
						},
						{
							"internalType": "uint256",
							"name": "",
							"type": "uint256"
						}
					],
					"name": "pokemons",
					"outputs": [
						{
							"internalType": "string",
							"name": "url",
							"type": "string"
						},
						{
							"internalType": "string",
							"name": "name",
							"type": "string"
						}
					],
					"stateMutability": "view",
					"type": "function"
				},
				{
					"inputs": [],
					"name": "symbol",
					"outputs": [
						{
							"internalType": "string",
							"name": "",
							"type": "string"
						}
					],
					"stateMutability": "view",
					"type": "function"
				},
				{
					"inputs": [],
					"name": "totalSupply",
					"outputs": [
						{
							"internalType": "uint256",
							"name": "",
							"type": "uint256"
						}
					],
					"stateMutability": "view",
					"type": "function"
				},
				{
					"inputs": [
						{
							"internalType": "address",
							"name": "to",
							"type": "address"
						},
						{
							"internalType": "uint256",
							"name": "amount",
							"type": "uint256"
						}
					],
					"name": "transfer",
					"outputs": [
						{
							"internalType": "bool",
							"name": "",
							"type": "bool"
						}
					],
					"stateMutability": "nonpayable",
					"type": "function"
				},
				{
					"inputs": [
						{
							"internalType": "address",
							"name": "spender",
							"type": "address"
						},
						{
							"internalType": "address",
							"name": "to",
							"type": "address"
						},
						{
							"internalType": "uint256",
							"name": "amount",
							"type": "uint256"
						}
					],
					"name": "transferFrom",
					"outputs": [
						{
							"internalType": "bool",
							"name": "",
							"type": "bool"
						}
					],
					"stateMutability": "nonpayable",
					"type": "function"
				},
				{
					"inputs": [
						{
							"internalType": "uint256",
							"name": "",
							"type": "uint256"
						}
					],
					"name": "users",
					"outputs": [
						{
							"internalType": "address",
							"name": "account",
							"type": "address"
						}
					],
					"stateMutability": "view",
					"type": "function"
				},
				{
					"stateMutability": "payable",
					"type": "receive"
				}
			],
			"devdoc": {
				"kind": "dev",
				"methods": {},
				"version": 1
			},
			"evm": {
				"assembly": "    /* \"contracts/Pokemon.sol\":86:3236  contract Pokemon is ERC20 {... */\n  mstore(0x40, 0x80)\n    /* \"contracts/ERC20.sol\":324:326  18 */\n  0x12\n    /* \"contracts/ERC20.sol\":300:326  uint8 public decimals = 18 */\n  0x02\n  exp(0x0100, 0x00)\n  dup2\n  sload\n  dup2\n  0xff\n  mul\n  not\n  and\n  swap1\n  dup4\n  0xff\n  and\n  mul\n  or\n  swap1\n  sstore\n  pop\n    /* \"contracts/Pokemon.sol\":686:696  1000 ether */\n  0x3635c9adc5dea00000\n    /* \"contracts/Pokemon.sol\":657:696  uint256 private tokenPrice = 1000 ether */\n  0x07\n  sstore\n    /* \"contracts/Pokemon.sol\":953:1010  string[] pokemonName = [\"Pikachu\", \"Kobuk\", \"Charmander\"] */\n  mload(0x40)\n  dup1\n  0x60\n  add\n  0x40\n  mstore\n  dup1\n  mload(0x40)\n  dup1\n  0x40\n  add\n  0x40\n  mstore\n  dup1\n  0x07\n  dup2\n  mstore\n  0x20\n  add\n  0x50696b6163687500000000000000000000000000000000000000000000000000\n  dup2\n  mstore\n  pop\n  dup2\n  mstore\n  0x20\n  add\n  mload(0x40)\n  dup1\n  0x40\n  add\n  0x40\n  mstore\n  dup1\n  0x05\n  dup2\n  mstore\n  0x20\n  add\n  0x4b6f62756b000000000000000000000000000000000000000000000000000000\n  dup2\n  mstore\n  pop\n  dup2\n  mstore\n  0x20\n  add\n  mload(0x40)\n  dup1\n  0x40\n  add\n  0x40\n  mstore\n  dup1\n  0x0a\n  dup2\n  mstore\n  0x20\n  add\n  0x436861726d616e64657200000000000000000000000000000000000000000000\n  dup2\n  mstore\n  pop\n  dup2\n  mstore\n  pop\n  0x08\n  swap1\n  0x03\n  tag_1\n  swap3\n  swap2\n  swap1\n  tag_2\n  jump\t// in\ntag_1:\n  pop\n    /* \"contracts/Pokemon.sol\":1077:1666  string[] pokemonUrl = [... */\n  mload(0x40)\n  dup1\n  0x60\n  add\n  0x40\n  mstore\n  dup1\n  mload(0x40)\n  dup1\n  0xa0\n  add\n  0x40\n  mstore\n  dup1\n  0x74\n  dup2\n  mstore\n  0x20\n  add\n  data_c6c235598fece1636598164a8955be190cbeb46d8935827afa176dd09ecc005e\n  0x74\n  swap2\n  codecopy\n  dup2\n  mstore\n  0x20\n  add\n  mload(0x40)\n  dup1\n  0xe0\n  add\n  0x40\n  mstore\n  dup1\n  0xbe\n  dup2\n  mstore\n  0x20\n  add\n  data_b14319aa424b20b9bfc4ffbd019d4aaa8cb0d68e2b6dcd517f8728ab08f4e0bf\n  0xbe\n  swap2\n  codecopy\n  dup2\n  mstore\n  0x20\n  add\n  mload(0x40)\n  dup1\n  0x0100\n  add\n  0x40\n  mstore\n  dup1\n  0xd7\n  dup2\n  mstore\n  0x20\n  add\n  data_1ceba42798f0fd5f09c3771ea210060f2dd7bb1515d9c95a2ba34d55360ccd72\n  0xd7\n  swap2\n  codecopy\n  dup2\n  mstore\n  pop\n  0x09\n  swap1\n  0x03\n  tag_3\n  swap3\n  swap2\n  swap1\n  tag_2\n  jump\t// in\ntag_3:\n  pop\n    /* \"contracts/Pokemon.sol\":119:166  constructor() ERC20(\"Pokemon\", \"PTK\", 10000) {} */\n  callvalue\n  dup1\n  iszero\n  tag_4\n  jumpi\n  0x00\n  dup1\n  revert\ntag_4:\n  pop\n    /* \"contracts/ERC20.sol\":1901:2113  constructor(string memory _name, string memory _symbol, uint256 _amount) {... */\n  mload(0x40)\n  dup1\n  0x40\n  add\n  0x40\n  mstore\n  dup1\n  0x07\n  dup2\n  mstore\n  0x20\n  add\n  0x506f6b656d6f6e00000000000000000000000000000000000000000000000000\n  dup2\n  mstore\n  pop\n  mload(0x40)\n  dup1\n  0x40\n  add\n  0x40\n  mstore\n  dup1\n  0x03\n  dup2\n  mstore\n  0x20\n  add\n  0x50544b0000000000000000000000000000000000000000000000000000000000\n  dup2\n  mstore\n  pop\n    /* \"contracts/Pokemon.sol\":157:162  10000 */\n  0x2710\n    /* \"contracts/ERC20.sol\":1993:2003  msg.sender */\n  caller\n    /* \"contracts/ERC20.sol\":1985:1990  owner */\n  0x04\n  0x00\n    /* \"contracts/ERC20.sol\":1985:2003  owner = msg.sender */\n  0x0100\n  exp\n  dup2\n  sload\n  dup2\n  0xffffffffffffffffffffffffffffffffffffffff\n  mul\n  not\n  and\n  swap1\n  dup4\n  0xffffffffffffffffffffffffffffffffffffffff\n  and\n  mul\n  or\n  swap1\n  sstore\n  pop\n    /* \"contracts/ERC20.sol\":2021:2026  _name */\n  dup3\n    /* \"contracts/ERC20.sol\":2014:2018  name */\n  0x00\n    /* \"contracts/ERC20.sol\":2014:2026  name = _name */\n  swap1\n  dup2\n  tag_8\n  swap2\n  swap1\n  tag_9\n  jump\t// in\ntag_8:\n  pop\n    /* \"contracts/ERC20.sol\":2046:2053  _symbol */\n  dup2\n    /* \"contracts/ERC20.sol\":2037:2043  symbol */\n  0x01\n    /* \"contracts/ERC20.sol\":2037:2053  symbol = _symbol */\n  swap1\n  dup2\n  tag_10\n  swap2\n  swap1\n  tag_9\n  jump\t// in\ntag_10:\n  pop\n    /* \"contracts/ERC20.sol\":2064:2105  mint(_amount * (10 ** uint256(decimals))) */\n  tag_11\n    /* \"contracts/ERC20.sol\":2094:2102  decimals */\n  0x02\n  0x00\n  swap1\n  sload\n  swap1\n  0x0100\n  exp\n  swap1\n  div\n  0xff\n  and\n    /* \"contracts/ERC20.sol\":2086:2103  uint256(decimals) */\n  0xff\n  and\n    /* \"contracts/ERC20.sol\":2080:2082  10 */\n  0x0a\n    /* \"contracts/ERC20.sol\":2080:2103  10 ** uint256(decimals) */\n  tag_12\n  swap2\n  swap1\n  tag_13\n  jump\t// in\ntag_12:\n    /* \"contracts/ERC20.sol\":2069:2076  _amount */\n  dup3\n    /* \"contracts/ERC20.sol\":2069:2104  _amount * (10 ** uint256(decimals)) */\n  tag_14\n  swap2\n  swap1\n  tag_15\n  jump\t// in\ntag_14:\n    /* \"contracts/ERC20.sol\":2064:2068  mint */\n  shl(0x20, tag_16)\n    /* \"contracts/ERC20.sol\":2064:2105  mint(_amount * (10 ** uint256(decimals))) */\n  0x20\n  shr\n  jump\t// in\ntag_11:\n    /* \"contracts/ERC20.sol\":1901:2113  constructor(string memory _name, string memory _symbol, uint256 _amount) {... */\n  pop\n  pop\n  pop\n    /* \"contracts/Pokemon.sol\":86:3236  contract Pokemon is ERC20 {... */\n  jump(tag_18)\n    /* \"contracts/ERC20.sol\":2121:2238  function mint(uint amount) internal {... */\ntag_16:\n    /* \"contracts/ERC20.sol\":2192:2198  amount */\n  dup1\n    /* \"contracts/ERC20.sol\":2168:2176  balances */\n  0x05\n    /* \"contracts/ERC20.sol\":2168:2188  balances[msg.sender] */\n  0x00\n    /* \"contracts/ERC20.sol\":2177:2187  msg.sender */\n  caller\n    /* \"contracts/ERC20.sol\":2168:2188  balances[msg.sender] */\n  0xffffffffffffffffffffffffffffffffffffffff\n  and\n  0xffffffffffffffffffffffffffffffffffffffff\n  and\n  dup2\n  mstore\n  0x20\n  add\n  swap1\n  dup2\n  mstore\n  0x20\n  add\n  0x00\n  keccak256\n  0x00\n    /* \"contracts/ERC20.sol\":2168:2198  balances[msg.sender] += amount */\n  dup3\n  dup3\n  sload\n  tag_20\n  swap2\n  swap1\n  tag_21\n  jump\t// in\ntag_20:\n  swap3\n  pop\n  pop\n  dup2\n  swap1\n  sstore\n  pop\n    /* \"contracts/ERC20.sol\":2224:2230  amount */\n  dup1\n    /* \"contracts/ERC20.sol\":2209:2220  totalSupply */\n  0x03\n  0x00\n    /* \"contracts/ERC20.sol\":2209:2230  totalSupply += amount */\n  dup3\n  dup3\n  sload\n  tag_22\n  swap2\n  swap1\n  tag_21\n  jump\t// in\ntag_22:\n  swap3\n  pop\n  pop\n  dup2\n  swap1\n  sstore\n  pop\n    /* \"contracts/ERC20.sol\":2121:2238  function mint(uint amount) internal {... */\n  pop\n  jump\t// out\n    /* \"contracts/Pokemon.sol\":86:3236  contract Pokemon is ERC20 {... */\ntag_2:\n  dup3\n  dup1\n  sload\n  dup3\n  dup3\n  sstore\n  swap1\n  0x00\n  mstore\n  keccak256(0x00, 0x20)\n  swap1\n  dup2\n  add\n  swap3\n  dup3\n  iszero\n  tag_23\n  jumpi\n  swap2\n  0x20\n  mul\n  dup3\n  add\ntag_24:\n  dup3\n  dup2\n  gt\n  iszero\n  tag_25\n  jumpi\n  dup3\n  mload\n  dup3\n  swap1\n  dup2\n  tag_26\n  swap2\n  swap1\n  tag_9\n  jump\t// in\ntag_26:\n  pop\n  swap2\n  0x20\n  add\n  swap2\n  swap1\n  0x01\n  add\n  swap1\n  jump(tag_24)\ntag_25:\ntag_23:\n  pop\n  swap1\n  pop\n  tag_27\n  swap2\n  swap1\n  tag_28\n  jump\t// in\ntag_27:\n  pop\n  swap1\n  jump\t// out\ntag_28:\ntag_29:\n  dup1\n  dup3\n  gt\n  iszero\n  tag_30\n  jumpi\n  0x00\n  dup2\n  dup2\n  tag_31\n  swap2\n  swap1\n  tag_32\n  jump\t// in\ntag_31:\n  pop\n  0x01\n  add\n  jump(tag_29)\ntag_30:\n  pop\n  swap1\n  jump\t// out\ntag_32:\n  pop\n  dup1\n  sload\n  tag_33\n  swap1\n  tag_34\n  jump\t// in\ntag_33:\n  0x00\n  dup3\n  sstore\n  dup1\n  0x1f\n  lt\n  tag_36\n  jumpi\n  pop\n  jump(tag_35)\ntag_36:\n  0x1f\n  add\n  0x20\n  swap1\n  div\n  swap1\n  0x00\n  mstore\n  keccak256(0x00, 0x20)\n  swap1\n  dup2\n  add\n  swap1\n  tag_37\n  swap2\n  swap1\n  tag_38\n  jump\t// in\ntag_37:\ntag_35:\n  pop\n  jump\t// out\ntag_38:\ntag_39:\n  dup1\n  dup3\n  gt\n  iszero\n  tag_40\n  jumpi\n  0x00\n  dup2\n  0x00\n  swap1\n  sstore\n  pop\n  0x01\n  add\n  jump(tag_39)\ntag_40:\n  pop\n  swap1\n  jump\t// out\n    /* \"#utility.yul\":7:106   */\ntag_41:\n    /* \"#utility.yul\":59:65   */\n  0x00\n    /* \"#utility.yul\":93:98   */\n  dup2\n    /* \"#utility.yul\":87:99   */\n  mload\n    /* \"#utility.yul\":77:99   */\n  swap1\n  pop\n    /* \"#utility.yul\":7:106   */\n  swap2\n  swap1\n  pop\n  jump\t// out\n    /* \"#utility.yul\":112:292   */\ntag_42:\n    /* \"#utility.yul\":160:237   */\n  0x4e487b7100000000000000000000000000000000000000000000000000000000\n    /* \"#utility.yul\":157:158   */\n  0x00\n    /* \"#utility.yul\":150:238   */\n  mstore\n    /* \"#utility.yul\":257:261   */\n  0x41\n    /* \"#utility.yul\":254:255   */\n  0x04\n    /* \"#utility.yul\":247:262   */\n  mstore\n    /* \"#utility.yul\":281:285   */\n  0x24\n    /* \"#utility.yul\":278:279   */\n  0x00\n    /* \"#utility.yul\":271:286   */\n  revert\n    /* \"#utility.yul\":298:478   */\ntag_43:\n    /* \"#utility.yul\":346:423   */\n  0x4e487b7100000000000000000000000000000000000000000000000000000000\n    /* \"#utility.yul\":343:344   */\n  0x00\n    /* \"#utility.yul\":336:424   */\n  mstore\n    /* \"#utility.yul\":443:447   */\n  0x22\n    /* \"#utility.yul\":440:441   */\n  0x04\n    /* \"#utility.yul\":433:448   */\n  mstore\n    /* \"#utility.yul\":467:471   */\n  0x24\n    /* \"#utility.yul\":464:465   */\n  0x00\n    /* \"#utility.yul\":457:472   */\n  revert\n    /* \"#utility.yul\":484:804   */\ntag_34:\n    /* \"#utility.yul\":528:534   */\n  0x00\n    /* \"#utility.yul\":565:566   */\n  0x02\n    /* \"#utility.yul\":559:563   */\n  dup3\n    /* \"#utility.yul\":555:567   */\n  div\n    /* \"#utility.yul\":545:567   */\n  swap1\n  pop\n    /* \"#utility.yul\":612:613   */\n  0x01\n    /* \"#utility.yul\":606:610   */\n  dup3\n    /* \"#utility.yul\":602:614   */\n  and\n    /* \"#utility.yul\":633:651   */\n  dup1\n    /* \"#utility.yul\":623:704   */\n  tag_69\n  jumpi\n    /* \"#utility.yul\":689:693   */\n  0x7f\n    /* \"#utility.yul\":681:687   */\n  dup3\n    /* \"#utility.yul\":677:694   */\n  and\n    /* \"#utility.yul\":667:694   */\n  swap2\n  pop\n    /* \"#utility.yul\":623:704   */\ntag_69:\n    /* \"#utility.yul\":751:753   */\n  0x20\n    /* \"#utility.yul\":743:749   */\n  dup3\n    /* \"#utility.yul\":740:754   */\n  lt\n    /* \"#utility.yul\":720:738   */\n  dup2\n    /* \"#utility.yul\":717:755   */\n  sub\n    /* \"#utility.yul\":714:798   */\n  tag_70\n  jumpi\n    /* \"#utility.yul\":770:788   */\n  tag_71\n  tag_43\n  jump\t// in\ntag_71:\n    /* \"#utility.yul\":714:798   */\ntag_70:\n    /* \"#utility.yul\":535:804   */\n  pop\n    /* \"#utility.yul\":484:804   */\n  swap2\n  swap1\n  pop\n  jump\t// out\n    /* \"#utility.yul\":810:951   */\ntag_44:\n    /* \"#utility.yul\":859:863   */\n  0x00\n    /* \"#utility.yul\":882:885   */\n  dup2\n    /* \"#utility.yul\":874:885   */\n  swap1\n  pop\n    /* \"#utility.yul\":905:908   */\n  dup2\n    /* \"#utility.yul\":902:903   */\n  0x00\n    /* \"#utility.yul\":895:909   */\n  mstore\n    /* \"#utility.yul\":939:943   */\n  0x20\n    /* \"#utility.yul\":936:937   */\n  0x00\n    /* \"#utility.yul\":926:944   */\n  keccak256\n    /* \"#utility.yul\":918:944   */\n  swap1\n  pop\n    /* \"#utility.yul\":810:951   */\n  swap2\n  swap1\n  pop\n  jump\t// out\n    /* \"#utility.yul\":957:1050   */\ntag_45:\n    /* \"#utility.yul\":994:1000   */\n  0x00\n    /* \"#utility.yul\":1041:1043   */\n  0x20\n    /* \"#utility.yul\":1036:1038   */\n  0x1f\n    /* \"#utility.yul\":1029:1034   */\n  dup4\n    /* \"#utility.yul\":1025:1039   */\n  add\n    /* \"#utility.yul\":1021:1044   */\n  div\n    /* \"#utility.yul\":1011:1044   */\n  swap1\n  pop\n    /* \"#utility.yul\":957:1050   */\n  swap2\n  swap1\n  pop\n  jump\t// out\n    /* \"#utility.yul\":1056:1163   */\ntag_46:\n    /* \"#utility.yul\":1100:1108   */\n  0x00\n    /* \"#utility.yul\":1150:1155   */\n  dup3\n    /* \"#utility.yul\":1144:1148   */\n  dup3\n    /* \"#utility.yul\":1140:1156   */\n  shl\n    /* \"#utility.yul\":1119:1156   */\n  swap1\n  pop\n    /* \"#utility.yul\":1056:1163   */\n  swap3\n  swap2\n  pop\n  pop\n  jump\t// out\n    /* \"#utility.yul\":1169:1562   */\ntag_47:\n    /* \"#utility.yul\":1238:1244   */\n  0x00\n    /* \"#utility.yul\":1288:1289   */\n  0x08\n    /* \"#utility.yul\":1276:1286   */\n  dup4\n    /* \"#utility.yul\":1272:1290   */\n  mul\n    /* \"#utility.yul\":1311:1408   */\n  tag_76\n    /* \"#utility.yul\":1341:1407   */\n  0xffffffffffffffffffffffffffffffffffffffffffffffffffffffffffffffff\n    /* \"#utility.yul\":1330:1339   */\n  dup3\n    /* \"#utility.yul\":1311:1408   */\n  tag_46\n  jump\t// in\ntag_76:\n    /* \"#utility.yul\":1429:1468   */\n  tag_77\n    /* \"#utility.yul\":1459:1467   */\n  dup7\n    /* \"#utility.yul\":1448:1457   */\n  dup4\n    /* \"#utility.yul\":1429:1468   */\n  tag_46\n  jump\t// in\ntag_77:\n    /* \"#utility.yul\":1417:1468   */\n  swap6\n  pop\n    /* \"#utility.yul\":1501:1505   */\n  dup1\n    /* \"#utility.yul\":1497:1506   */\n  not\n    /* \"#utility.yul\":1490:1495   */\n  dup5\n    /* \"#utility.yul\":1486:1507   */\n  and\n    /* \"#utility.yul\":1477:1507   */\n  swap4\n  pop\n    /* \"#utility.yul\":1550:1554   */\n  dup1\n    /* \"#utility.yul\":1540:1548   */\n  dup7\n    /* \"#utility.yul\":1536:1555   */\n  and\n    /* \"#utility.yul\":1529:1534   */\n  dup5\n    /* \"#utility.yul\":1526:1556   */\n  or\n    /* \"#utility.yul\":1516:1556   */\n  swap3\n  pop\n    /* \"#utility.yul\":1245:1562   */\n  pop\n  pop\n    /* \"#utility.yul\":1169:1562   */\n  swap4\n  swap3\n  pop\n  pop\n  pop\n  jump\t// out\n    /* \"#utility.yul\":1568:1645   */\ntag_48:\n    /* \"#utility.yul\":1605:1612   */\n  0x00\n    /* \"#utility.yul\":1634:1639   */\n  dup2\n    /* \"#utility.yul\":1623:1639   */\n  swap1\n  pop\n    /* \"#utility.yul\":1568:1645   */\n  swap2\n  swap1\n  pop\n  jump\t// out\n    /* \"#utility.yul\":1651:1711   */\ntag_49:\n    /* \"#utility.yul\":1679:1682   */\n  0x00\n    /* \"#utility.yul\":1700:1705   */\n  dup2\n    /* \"#utility.yul\":1693:1705   */\n  swap1\n  pop\n    /* \"#utility.yul\":1651:1711   */\n  swap2\n  swap1\n  pop\n  jump\t// out\n    /* \"#utility.yul\":1717:1859   */\ntag_50:\n    /* \"#utility.yul\":1767:1776   */\n  0x00\n    /* \"#utility.yul\":1800:1853   */\n  tag_81\n    /* \"#utility.yul\":1818:1852   */\n  tag_82\n    /* \"#utility.yul\":1827:1851   */\n  tag_83\n    /* \"#utility.yul\":1845:1850   */\n  dup5\n    /* \"#utility.yul\":1827:1851   */\n  tag_48\n  jump\t// in\ntag_83:\n    /* \"#utility.yul\":1818:1852   */\n  tag_49\n  jump\t// in\ntag_82:\n    /* \"#utility.yul\":1800:1853   */\n  tag_48\n  jump\t// in\ntag_81:\n    /* \"#utility.yul\":1787:1853   */\n  swap1\n  pop\n    /* \"#utility.yul\":1717:1859   */\n  swap2\n  swap1\n  pop\n  jump\t// out\n    /* \"#utility.yul\":1865:1940   */\ntag_51:\n    /* \"#utility.yul\":1908:1911   */\n  0x00\n    /* \"#utility.yul\":1929:1934   */\n  dup2\n    /* \"#utility.yul\":1922:1934   */\n  swap1\n  pop\n    /* \"#utility.yul\":1865:1940   */\n  swap2\n  swap1\n  pop\n  jump\t// out\n    /* \"#utility.yul\":1946:2215   */\ntag_52:\n    /* \"#utility.yul\":2056:2095   */\n  tag_86\n    /* \"#utility.yul\":2087:2094   */\n  dup4\n    /* \"#utility.yul\":2056:2095   */\n  tag_50\n  jump\t// in\ntag_86:\n    /* \"#utility.yul\":2117:2208   */\n  tag_87\n    /* \"#utility.yul\":2166:2207   */\n  tag_88\n    /* \"#utility.yul\":2190:2206   */\n  dup3\n    /* \"#utility.yul\":2166:2207   */\n  tag_51\n  jump\t// in\ntag_88:\n    /* \"#utility.yul\":2158:2164   */\n  dup5\n    /* \"#utility.yul\":2151:2155   */\n  dup5\n    /* \"#utility.yul\":2145:2156   */\n  sload\n    /* \"#utility.yul\":2117:2208   */\n  tag_47\n  jump\t// in\ntag_87:\n    /* \"#utility.yul\":2111:2115   */\n  dup3\n    /* \"#utility.yul\":2104:2209   */\n  sstore\n    /* \"#utility.yul\":2022:2215   */\n  pop\n    /* \"#utility.yul\":1946:2215   */\n  pop\n  pop\n  pop\n  jump\t// out\n    /* \"#utility.yul\":2221:2294   */\ntag_53:\n    /* \"#utility.yul\":2266:2269   */\n  0x00\n    /* \"#utility.yul\":2221:2294   */\n  swap1\n  jump\t// out\n    /* \"#utility.yul\":2300:2489   */\ntag_54:\n    /* \"#utility.yul\":2377:2409   */\n  tag_91\n  tag_53\n  jump\t// in\ntag_91:\n    /* \"#utility.yul\":2418:2483   */\n  tag_92\n    /* \"#utility.yul\":2476:2482   */\n  dup2\n    /* \"#utility.yul\":2468:2474   */\n  dup5\n    /* \"#utility.yul\":2462:2466   */\n  dup5\n    /* \"#utility.yul\":2418:2483   */\n  tag_52\n  jump\t// in\ntag_92:\n    /* \"#utility.yul\":2353:2489   */\n  pop\n    /* \"#utility.yul\":2300:2489   */\n  pop\n  pop\n  jump\t// out\n    /* \"#utility.yul\":2495:2681   */\ntag_55:\n    /* \"#utility.yul\":2555:2675   */\ntag_94:\n    /* \"#utility.yul\":2572:2575   */\n  dup2\n    /* \"#utility.yul\":2565:2570   */\n  dup2\n    /* \"#utility.yul\":2562:2576   */\n  lt\n    /* \"#utility.yul\":2555:2675   */\n  iszero\n  tag_96\n  jumpi\n    /* \"#utility.yul\":2626:2665   */\n  tag_97\n    /* \"#utility.yul\":2663:2664   */\n  0x00\n    /* \"#utility.yul\":2656:2661   */\n  dup3\n    /* \"#utility.yul\":2626:2665   */\n  tag_54\n  jump\t// in\ntag_97:\n    /* \"#utility.yul\":2599:2600   */\n  0x01\n    /* \"#utility.yul\":2592:2597   */\n  dup2\n    /* \"#utility.yul\":2588:2601   */\n  add\n    /* \"#utility.yul\":2579:2601   */\n  swap1\n  pop\n    /* \"#utility.yul\":2555:2675   */\n  jump(tag_94)\ntag_96:\n    /* \"#utility.yul\":2495:2681   */\n  pop\n  pop\n  jump\t// out\n    /* \"#utility.yul\":2687:3230   */\ntag_56:\n    /* \"#utility.yul\":2788:2790   */\n  0x1f\n    /* \"#utility.yul\":2783:2786   */\n  dup3\n    /* \"#utility.yul\":2780:2791   */\n  gt\n    /* \"#utility.yul\":2777:3223   */\n  iszero\n  tag_99\n  jumpi\n    /* \"#utility.yul\":2822:2860   */\n  tag_100\n    /* \"#utility.yul\":2854:2859   */\n  dup2\n    /* \"#utility.yul\":2822:2860   */\n  tag_44\n  jump\t// in\ntag_100:\n    /* \"#utility.yul\":2906:2935   */\n  tag_101\n    /* \"#utility.yul\":2924:2934   */\n  dup5\n    /* \"#utility.yul\":2906:2935   */\n  tag_45\n  jump\t// in\ntag_101:\n    /* \"#utility.yul\":2896:2904   */\n  dup2\n    /* \"#utility.yul\":2892:2936   */\n  add\n    /* \"#utility.yul\":3089:3091   */\n  0x20\n    /* \"#utility.yul\":3077:3087   */\n  dup6\n    /* \"#utility.yul\":3074:3092   */\n  lt\n    /* \"#utility.yul\":3071:3120   */\n  iszero\n  tag_102\n  jumpi\n    /* \"#utility.yul\":3110:3118   */\n  dup2\n    /* \"#utility.yul\":3095:3118   */\n  swap1\n  pop\n    /* \"#utility.yul\":3071:3120   */\ntag_102:\n    /* \"#utility.yul\":3133:3213   */\n  tag_103\n    /* \"#utility.yul\":3189:3211   */\n  tag_104\n    /* \"#utility.yul\":3207:3210   */\n  dup6\n    /* \"#utility.yul\":3189:3211   */\n  tag_45\n  jump\t// in\ntag_104:\n    /* \"#utility.yul\":3179:3187   */\n  dup4\n    /* \"#utility.yul\":3175:3212   */\n  add\n    /* \"#utility.yul\":3162:3173   */\n  dup3\n    /* \"#utility.yul\":3133:3213   */\n  tag_55\n  jump\t// in\ntag_103:\n    /* \"#utility.yul\":2792:3223   */\n  pop\n  pop\n    /* \"#utility.yul\":2777:3223   */\ntag_99:\n    /* \"#utility.yul\":2687:3230   */\n  pop\n  pop\n  pop\n  jump\t// out\n    /* \"#utility.yul\":3236:3353   */\ntag_57:\n    /* \"#utility.yul\":3290:3298   */\n  0x00\n    /* \"#utility.yul\":3340:3345   */\n  dup3\n    /* \"#utility.yul\":3334:3338   */\n  dup3\n    /* \"#utility.yul\":3330:3346   */\n  shr\n    /* \"#utility.yul\":3309:3346   */\n  swap1\n  pop\n    /* \"#utility.yul\":3236:3353   */\n  swap3\n  swap2\n  pop\n  pop\n  jump\t// out\n    /* \"#utility.yul\":3359:3528   */\ntag_58:\n    /* \"#utility.yul\":3403:3409   */\n  0x00\n    /* \"#utility.yul\":3436:3487   */\n  tag_107\n    /* \"#utility.yul\":3484:3485   */\n  0x00\n    /* \"#utility.yul\":3480:3486   */\n  not\n    /* \"#utility.yul\":3472:3477   */\n  dup5\n    /* \"#utility.yul\":3469:3470   */\n  0x08\n    /* \"#utility.yul\":3465:3478   */\n  mul\n    /* \"#utility.yul\":3436:3487   */\n  tag_57\n  jump\t// in\ntag_107:\n    /* \"#utility.yul\":3432:3488   */\n  not\n    /* \"#utility.yul\":3517:3521   */\n  dup1\n    /* \"#utility.yul\":3511:3515   */\n  dup4\n    /* \"#utility.yul\":3507:3522   */\n  and\n    /* \"#utility.yul\":3497:3522   */\n  swap2\n  pop\n    /* \"#utility.yul\":3410:3528   */\n  pop\n    /* \"#utility.yul\":3359:3528   */\n  swap3\n  swap2\n  pop\n  pop\n  jump\t// out\n    /* \"#utility.yul\":3533:3828   */\ntag_59:\n    /* \"#utility.yul\":3609:3613   */\n  0x00\n    /* \"#utility.yul\":3755:3784   */\n  tag_109\n    /* \"#utility.yul\":3780:3783   */\n  dup4\n    /* \"#utility.yul\":3774:3778   */\n  dup4\n    /* \"#utility.yul\":3755:3784   */\n  tag_58\n  jump\t// in\ntag_109:\n    /* \"#utility.yul\":3747:3784   */\n  swap2\n  pop\n    /* \"#utility.yul\":3817:3820   */\n  dup3\n    /* \"#utility.yul\":3814:3815   */\n  0x02\n    /* \"#utility.yul\":3810:3821   */\n  mul\n    /* \"#utility.yul\":3804:3808   */\n  dup3\n    /* \"#utility.yul\":3801:3822   */\n  or\n    /* \"#utility.yul\":3793:3822   */\n  swap1\n  pop\n    /* \"#utility.yul\":3533:3828   */\n  swap3\n  swap2\n  pop\n  pop\n  jump\t// out\n    /* \"#utility.yul\":3833:5228   */\ntag_9:\n    /* \"#utility.yul\":3950:3987   */\n  tag_111\n    /* \"#utility.yul\":3983:3986   */\n  dup3\n    /* \"#utility.yul\":3950:3987   */\n  tag_41\n  jump\t// in\ntag_111:\n    /* \"#utility.yul\":4052:4070   */\n  0xffffffffffffffff\n    /* \"#utility.yul\":4044:4050   */\n  dup2\n    /* \"#utility.yul\":4041:4071   */\n  gt\n    /* \"#utility.yul\":4038:4094   */\n  iszero\n  tag_112\n  jumpi\n    /* \"#utility.yul\":4074:4092   */\n  tag_113\n  tag_42\n  jump\t// in\ntag_113:\n    /* \"#utility.yul\":4038:4094   */\ntag_112:\n    /* \"#utility.yul\":4118:4156   */\n  tag_114\n    /* \"#utility.yul\":4150:4154   */\n  dup3\n    /* \"#utility.yul\":4144:4155   */\n  sload\n    /* \"#utility.yul\":4118:4156   */\n  tag_34\n  jump\t// in\ntag_114:\n    /* \"#utility.yul\":4203:4270   */\n  tag_115\n    /* \"#utility.yul\":4263:4269   */\n  dup3\n    /* \"#utility.yul\":4255:4261   */\n  dup3\n    /* \"#utility.yul\":4249:4253   */\n  dup6\n    /* \"#utility.yul\":4203:4270   */\n  tag_56\n  jump\t// in\ntag_115:\n    /* \"#utility.yul\":4297:4298   */\n  0x00\n    /* \"#utility.yul\":4321:4325   */\n  0x20\n    /* \"#utility.yul\":4308:4325   */\n  swap1\n  pop\n    /* \"#utility.yul\":4353:4355   */\n  0x1f\n    /* \"#utility.yul\":4345:4351   */\n  dup4\n    /* \"#utility.yul\":4342:4356   */\n  gt\n    /* \"#utility.yul\":4370:4371   */\n  0x01\n    /* \"#utility.yul\":4365:4983   */\n  dup2\n  eq\n  tag_117\n  jumpi\n    /* \"#utility.yul\":5027:5028   */\n  0x00\n    /* \"#utility.yul\":5044:5050   */\n  dup5\n    /* \"#utility.yul\":5041:5118   */\n  iszero\n  tag_118\n  jumpi\n    /* \"#utility.yul\":5093:5102   */\n  dup3\n    /* \"#utility.yul\":5088:5091   */\n  dup8\n    /* \"#utility.yul\":5084:5103   */\n  add\n    /* \"#utility.yul\":5078:5104   */\n  mload\n    /* \"#utility.yul\":5069:5104   */\n  swap1\n  pop\n    /* \"#utility.yul\":5041:5118   */\ntag_118:\n    /* \"#utility.yul\":5144:5211   */\n  tag_119\n    /* \"#utility.yul\":5204:5210   */\n  dup6\n    /* \"#utility.yul\":5197:5202   */\n  dup3\n    /* \"#utility.yul\":5144:5211   */\n  tag_59\n  jump\t// in\ntag_119:\n    /* \"#utility.yul\":5138:5142   */\n  dup7\n    /* \"#utility.yul\":5131:5212   */\n  sstore\n    /* \"#utility.yul\":5000:5222   */\n  pop\n    /* \"#utility.yul\":4335:5222   */\n  jump(tag_116)\n    /* \"#utility.yul\":4365:4983   */\ntag_117:\n    /* \"#utility.yul\":4417:4421   */\n  0x1f\n    /* \"#utility.yul\":4413:4422   */\n  not\n    /* \"#utility.yul\":4405:4411   */\n  dup5\n    /* \"#utility.yul\":4401:4423   */\n  and\n    /* \"#utility.yul\":4451:4488   */\n  tag_120\n    /* \"#utility.yul\":4483:4487   */\n  dup7\n    /* \"#utility.yul\":4451:4488   */\n  tag_44\n  jump\t// in\ntag_120:\n    /* \"#utility.yul\":4510:4511   */\n  0x00\n    /* \"#utility.yul\":4524:4732   */\ntag_121:\n    /* \"#utility.yul\":4538:4545   */\n  dup3\n    /* \"#utility.yul\":4535:4536   */\n  dup2\n    /* \"#utility.yul\":4532:4546   */\n  lt\n    /* \"#utility.yul\":4524:4732   */\n  iszero\n  tag_123\n  jumpi\n    /* \"#utility.yul\":4617:4626   */\n  dup5\n    /* \"#utility.yul\":4612:4615   */\n  dup10\n    /* \"#utility.yul\":4608:4627   */\n  add\n    /* \"#utility.yul\":4602:4628   */\n  mload\n    /* \"#utility.yul\":4594:4600   */\n  dup3\n    /* \"#utility.yul\":4587:4629   */\n  sstore\n    /* \"#utility.yul\":4668:4669   */\n  0x01\n    /* \"#utility.yul\":4660:4666   */\n  dup3\n    /* \"#utility.yul\":4656:4670   */\n  add\n    /* \"#utility.yul\":4646:4670   */\n  swap2\n  pop\n    /* \"#utility.yul\":4715:4717   */\n  0x20\n    /* \"#utility.yul\":4704:4713   */\n  dup6\n    /* \"#utility.yul\":4700:4718   */\n  add\n    /* \"#utility.yul\":4687:4718   */\n  swap5\n  pop\n    /* \"#utility.yul\":4561:4565   */\n  0x20\n    /* \"#utility.yul\":4558:4559   */\n  dup2\n    /* \"#utility.yul\":4554:4566   */\n  add\n    /* \"#utility.yul\":4549:4566   */\n  swap1\n  pop\n    /* \"#utility.yul\":4524:4732   */\n  jump(tag_121)\ntag_123:\n    /* \"#utility.yul\":4760:4766   */\n  dup7\n    /* \"#utility.yul\":4751:4758   */\n  dup4\n    /* \"#utility.yul\":4748:4767   */\n  lt\n    /* \"#utility.yul\":4745:4924   */\n  iszero\n  tag_124\n  jumpi\n    /* \"#utility.yul\":4818:4827   */\n  dup5\n    /* \"#utility.yul\":4813:4816   */\n  dup10\n    /* \"#utility.yul\":4809:4828   */\n  add\n    /* \"#utility.yul\":4803:4829   */\n  mload\n    /* \"#utility.yul\":4861:4909   */\n  tag_125\n    /* \"#utility.yul\":4903:4907   */\n  0x1f\n    /* \"#utility.yul\":4895:4901   */\n  dup10\n    /* \"#utility.yul\":4891:4908   */\n  and\n    /* \"#utility.yul\":4880:4889   */\n  dup3\n    /* \"#utility.yul\":4861:4909   */\n  tag_58\n  jump\t// in\ntag_125:\n    /* \"#utility.yul\":4853:4859   */\n  dup4\n    /* \"#utility.yul\":4846:4910   */\n  sstore\n    /* \"#utility.yul\":4768:4924   */\n  pop\n    /* \"#utility.yul\":4745:4924   */\ntag_124:\n    /* \"#utility.yul\":4970:4971   */\n  0x01\n    /* \"#utility.yul\":4966:4967   */\n  0x02\n    /* \"#utility.yul\":4958:4964   */\n  dup9\n    /* \"#utility.yul\":4954:4968   */\n  mul\n    /* \"#utility.yul\":4950:4972   */\n  add\n    /* \"#utility.yul\":4944:4948   */\n  dup9\n    /* \"#utility.yul\":4937:4973   */\n  sstore\n    /* \"#utility.yul\":4372:4983   */\n  pop\n  pop\n  pop\n    /* \"#utility.yul\":4335:5222   */\ntag_116:\n  pop\n    /* \"#utility.yul\":3925:5228   */\n  pop\n  pop\n  pop\n    /* \"#utility.yul\":3833:5228   */\n  pop\n  pop\n  jump\t// out\n    /* \"#utility.yul\":5234:5414   */\ntag_60:\n    /* \"#utility.yul\":5282:5359   */\n  0x4e487b7100000000000000000000000000000000000000000000000000000000\n    /* \"#utility.yul\":5279:5280   */\n  0x00\n    /* \"#utility.yul\":5272:5360   */\n  mstore\n    /* \"#utility.yul\":5379:5383   */\n  0x11\n    /* \"#utility.yul\":5376:5377   */\n  0x04\n    /* \"#utility.yul\":5369:5384   */\n  mstore\n    /* \"#utility.yul\":5403:5407   */\n  0x24\n    /* \"#utility.yul\":5400:5401   */\n  0x00\n    /* \"#utility.yul\":5393:5408   */\n  revert\n    /* \"#utility.yul\":5420:5522   */\ntag_61:\n    /* \"#utility.yul\":5462:5470   */\n  0x00\n    /* \"#utility.yul\":5509:5514   */\n  dup2\n    /* \"#utility.yul\":5506:5507   */\n  0x01\n    /* \"#utility.yul\":5502:5515   */\n  shr\n    /* \"#utility.yul\":5481:5515   */\n  swap1\n  pop\n    /* \"#utility.yul\":5420:5522   */\n  swap2\n  swap1\n  pop\n  jump\t// out\n    /* \"#utility.yul\":5528:6376   */\ntag_62:\n    /* \"#utility.yul\":5589:5594   */\n  0x00\n    /* \"#utility.yul\":5596:5600   */\n  dup1\n    /* \"#utility.yul\":5620:5626   */\n  dup3\n    /* \"#utility.yul\":5611:5626   */\n  swap2\n  pop\n    /* \"#utility.yul\":5644:5649   */\n  dup4\n    /* \"#utility.yul\":5635:5649   */\n  swap1\n  pop\n    /* \"#utility.yul\":5658:6370   */\ntag_129:\n    /* \"#utility.yul\":5679:5680   */\n  0x01\n    /* \"#utility.yul\":5669:5677   */\n  dup6\n    /* \"#utility.yul\":5666:5681   */\n  gt\n    /* \"#utility.yul\":5658:6370   */\n  iszero\n  tag_131\n  jumpi\n    /* \"#utility.yul\":5774:5778   */\n  dup1\n    /* \"#utility.yul\":5769:5772   */\n  dup7\n    /* \"#utility.yul\":5765:5779   */\n  div\n    /* \"#utility.yul\":5759:5763   */\n  dup2\n    /* \"#utility.yul\":5756:5780   */\n  gt\n    /* \"#utility.yul\":5753:5803   */\n  iszero\n  tag_132\n  jumpi\n    /* \"#utility.yul\":5783:5801   */\n  tag_133\n  tag_60\n  jump\t// in\ntag_133:\n    /* \"#utility.yul\":5753:5803   */\ntag_132:\n    /* \"#utility.yul\":5833:5834   */\n  0x01\n    /* \"#utility.yul\":5823:5831   */\n  dup6\n    /* \"#utility.yul\":5819:5835   */\n  and\n    /* \"#utility.yul\":5816:6267   */\n  iszero\n  tag_134\n  jumpi\n    /* \"#utility.yul\":6248:6252   */\n  dup1\n    /* \"#utility.yul\":6241:6246   */\n  dup3\n    /* \"#utility.yul\":6237:6253   */\n  mul\n    /* \"#utility.yul\":6228:6253   */\n  swap2\n  pop\n    /* \"#utility.yul\":5816:6267   */\ntag_134:\n    /* \"#utility.yul\":6298:6302   */\n  dup1\n    /* \"#utility.yul\":6292:6296   */\n  dup2\n    /* \"#utility.yul\":6288:6303   */\n  mul\n    /* \"#utility.yul\":6280:6303   */\n  swap1\n  pop\n    /* \"#utility.yul\":6328:6360   */\n  tag_135\n    /* \"#utility.yul\":6351:6359   */\n  dup6\n    /* \"#utility.yul\":6328:6360   */\n  tag_61\n  jump\t// in\ntag_135:\n    /* \"#utility.yul\":6316:6360   */\n  swap5\n  pop\n    /* \"#utility.yul\":5658:6370   */\n  jump(tag_129)\ntag_131:\n    /* \"#utility.yul\":5528:6376   */\n  swap5\n  pop\n  swap5\n  swap3\n  pop\n  pop\n  pop\n  jump\t// out\n    /* \"#utility.yul\":6382:7455   */\ntag_63:\n    /* \"#utility.yul\":6436:6441   */\n  0x00\n    /* \"#utility.yul\":6627:6635   */\n  dup3\n    /* \"#utility.yul\":6617:6657   */\n  tag_137\n  jumpi\n    /* \"#utility.yul\":6648:6649   */\n  0x01\n    /* \"#utility.yul\":6639:6649   */\n  swap1\n  pop\n    /* \"#utility.yul\":6650:6655   */\n  jump(tag_136)\n    /* \"#utility.yul\":6617:6657   */\ntag_137:\n    /* \"#utility.yul\":6676:6680   */\n  dup2\n    /* \"#utility.yul\":6666:6702   */\n  tag_138\n  jumpi\n    /* \"#utility.yul\":6693:6694   */\n  0x00\n    /* \"#utility.yul\":6684:6694   */\n  swap1\n  pop\n    /* \"#utility.yul\":6695:6700   */\n  jump(tag_136)\n    /* \"#utility.yul\":6666:6702   */\ntag_138:\n    /* \"#utility.yul\":6762:6766   */\n  dup2\n    /* \"#utility.yul\":6810:6811   */\n  0x01\n    /* \"#utility.yul\":6805:6832   */\n  dup2\n  eq\n  tag_140\n  jumpi\n    /* \"#utility.yul\":6846:6847   */\n  0x02\n    /* \"#utility.yul\":6841:7032   */\n  dup2\n  eq\n  tag_141\n  jumpi\n    /* \"#utility.yul\":6755:7032   */\n  jump(tag_139)\n    /* \"#utility.yul\":6805:6832   */\ntag_140:\n    /* \"#utility.yul\":6823:6824   */\n  0x01\n    /* \"#utility.yul\":6814:6824   */\n  swap2\n  pop\n    /* \"#utility.yul\":6825:6830   */\n  pop\n  jump(tag_136)\n    /* \"#utility.yul\":6841:7032   */\ntag_141:\n    /* \"#utility.yul\":6886:6889   */\n  0xff\n    /* \"#utility.yul\":6876:6884   */\n  dup5\n    /* \"#utility.yul\":6873:6890   */\n  gt\n    /* \"#utility.yul\":6870:6913   */\n  iszero\n  tag_142\n  jumpi\n    /* \"#utility.yul\":6893:6911   */\n  tag_143\n  tag_60\n  jump\t// in\ntag_143:\n    /* \"#utility.yul\":6870:6913   */\ntag_142:\n    /* \"#utility.yul\":6942:6950   */\n  dup4\n    /* \"#utility.yul\":6939:6940   */\n  0x02\n    /* \"#utility.yul\":6935:6951   */\n  exp\n    /* \"#utility.yul\":6926:6951   */\n  swap2\n  pop\n    /* \"#utility.yul\":6977:6980   */\n  dup5\n    /* \"#utility.yul\":6970:6975   */\n  dup3\n    /* \"#utility.yul\":6967:6981   */\n  gt\n    /* \"#utility.yul\":6964:7004   */\n  iszero\n  tag_144\n  jumpi\n    /* \"#utility.yul\":6984:7002   */\n  tag_145\n  tag_60\n  jump\t// in\ntag_145:\n    /* \"#utility.yul\":6964:7004   */\ntag_144:\n    /* \"#utility.yul\":7017:7022   */\n  pop\n  jump(tag_136)\n    /* \"#utility.yul\":6755:7032   */\ntag_139:\n  pop\n    /* \"#utility.yul\":7141:7143   */\n  0x20\n    /* \"#utility.yul\":7131:7139   */\n  dup4\n    /* \"#utility.yul\":7128:7144   */\n  lt\n    /* \"#utility.yul\":7122:7125   */\n  0x0133\n    /* \"#utility.yul\":7116:7120   */\n  dup4\n    /* \"#utility.yul\":7113:7126   */\n  lt\n    /* \"#utility.yul\":7109:7145   */\n  and\n    /* \"#utility.yul\":7091:7093   */\n  0x4e\n    /* \"#utility.yul\":7081:7089   */\n  dup5\n    /* \"#utility.yul\":7078:7094   */\n  lt\n    /* \"#utility.yul\":7073:7075   */\n  0x0b\n    /* \"#utility.yul\":7067:7071   */\n  dup5\n    /* \"#utility.yul\":7064:7076   */\n  lt\n    /* \"#utility.yul\":7060:7095   */\n  and\n    /* \"#utility.yul\":7044:7155   */\n  or\n    /* \"#utility.yul\":7041:7287   */\n  iszero\n  tag_146\n  jumpi\n    /* \"#utility.yul\":7197:7205   */\n  dup3\n    /* \"#utility.yul\":7191:7195   */\n  dup3\n    /* \"#utility.yul\":7187:7206   */\n  exp\n    /* \"#utility.yul\":7178:7206   */\n  swap1\n  pop\n    /* \"#utility.yul\":7232:7235   */\n  dup4\n    /* \"#utility.yul\":7225:7230   */\n  dup2\n    /* \"#utility.yul\":7222:7236   */\n  gt\n    /* \"#utility.yul\":7219:7259   */\n  iszero\n  tag_147\n  jumpi\n    /* \"#utility.yul\":7239:7257   */\n  tag_148\n  tag_60\n  jump\t// in\ntag_148:\n    /* \"#utility.yul\":7219:7259   */\ntag_147:\n    /* \"#utility.yul\":7272:7277   */\n  jump(tag_136)\n    /* \"#utility.yul\":7041:7287   */\ntag_146:\n    /* \"#utility.yul\":7312:7354   */\n  tag_149\n    /* \"#utility.yul\":7350:7353   */\n  dup5\n    /* \"#utility.yul\":7340:7348   */\n  dup5\n    /* \"#utility.yul\":7334:7338   */\n  dup5\n    /* \"#utility.yul\":7331:7332   */\n  0x01\n    /* \"#utility.yul\":7312:7354   */\n  tag_62\n  jump\t// in\ntag_149:\n    /* \"#utility.yul\":7297:7354   */\n  swap3\n  pop\n  swap1\n  pop\n    /* \"#utility.yul\":7386:7390   */\n  dup2\n    /* \"#utility.yul\":7381:7384   */\n  dup5\n    /* \"#utility.yul\":7377:7391   */\n  div\n    /* \"#utility.yul\":7370:7375   */\n  dup2\n    /* \"#utility.yul\":7367:7392   */\n  gt\n    /* \"#utility.yul\":7364:7415   */\n  iszero\n  tag_150\n  jumpi\n    /* \"#utility.yul\":7395:7413   */\n  tag_151\n  tag_60\n  jump\t// in\ntag_151:\n    /* \"#utility.yul\":7364:7415   */\ntag_150:\n    /* \"#utility.yul\":7444:7448   */\n  dup2\n    /* \"#utility.yul\":7437:7442   */\n  dup2\n    /* \"#utility.yul\":7433:7449   */\n  mul\n    /* \"#utility.yul\":7424:7449   */\n  swap1\n  pop\n    /* \"#utility.yul\":6382:7455   */\ntag_136:\n  swap4\n  swap3\n  pop\n  pop\n  pop\n  jump\t// out\n    /* \"#utility.yul\":7461:7746   */\ntag_13:\n    /* \"#utility.yul\":7521:7526   */\n  0x00\n    /* \"#utility.yul\":7545:7568   */\n  tag_153\n    /* \"#utility.yul\":7563:7567   */\n  dup3\n    /* \"#utility.yul\":7545:7568   */\n  tag_48\n  jump\t// in\ntag_153:\n    /* \"#utility.yul\":7537:7568   */\n  swap2\n  pop\n    /* \"#utility.yul\":7589:7616   */\n  tag_154\n    /* \"#utility.yul\":7607:7615   */\n  dup4\n    /* \"#utility.yul\":7589:7616   */\n  tag_48\n  jump\t// in\ntag_154:\n    /* \"#utility.yul\":7577:7616   */\n  swap3\n  pop\n    /* \"#utility.yul\":7635:7739   */\n  tag_155\n    /* \"#utility.yul\":7672:7738   */\n  0xffffffffffffffffffffffffffffffffffffffffffffffffffffffffffffffff\n    /* \"#utility.yul\":7662:7670   */\n  dup5\n    /* \"#utility.yul\":7656:7660   */\n  dup5\n    /* \"#utility.yul\":7635:7739   */\n  tag_63\n  jump\t// in\ntag_155:\n    /* \"#utility.yul\":7626:7739   */\n  swap1\n  pop\n    /* \"#utility.yul\":7461:7746   */\n  swap3\n  swap2\n  pop\n  pop\n  jump\t// out\n    /* \"#utility.yul\":7752:8162   */\ntag_15:\n    /* \"#utility.yul\":7792:7799   */\n  0x00\n    /* \"#utility.yul\":7815:7835   */\n  tag_157\n    /* \"#utility.yul\":7833:7834   */\n  dup3\n    /* \"#utility.yul\":7815:7835   */\n  tag_48\n  jump\t// in\ntag_157:\n    /* \"#utility.yul\":7810:7835   */\n  swap2\n  pop\n    /* \"#utility.yul\":7849:7869   */\n  tag_158\n    /* \"#utility.yul\":7867:7868   */\n  dup4\n    /* \"#utility.yul\":7849:7869   */\n  tag_48\n  jump\t// in\ntag_158:\n    /* \"#utility.yul\":7844:7869   */\n  swap3\n  pop\n    /* \"#utility.yul\":7904:7905   */\n  dup3\n    /* \"#utility.yul\":7901:7902   */\n  dup3\n    /* \"#utility.yul\":7897:7906   */\n  mul\n    /* \"#utility.yul\":7926:7956   */\n  tag_159\n    /* \"#utility.yul\":7944:7955   */\n  dup2\n    /* \"#utility.yul\":7926:7956   */\n  tag_48\n  jump\t// in\ntag_159:\n    /* \"#utility.yul\":7915:7956   */\n  swap2\n  pop\n    /* \"#utility.yul\":8105:8106   */\n  dup3\n    /* \"#utility.yul\":8096:8103   */\n  dup3\n    /* \"#utility.yul\":8092:8107   */\n  div\n    /* \"#utility.yul\":8089:8090   */\n  dup5\n    /* \"#utility.yul\":8086:8108   */\n  eq\n    /* \"#utility.yul\":8066:8067   */\n  dup4\n    /* \"#utility.yul\":8059:8068   */\n  iszero\n    /* \"#utility.yul\":8039:8122   */\n  or\n    /* \"#utility.yul\":8016:8155   */\n  tag_160\n  jumpi\n    /* \"#utility.yul\":8135:8153   */\n  tag_161\n  tag_60\n  jump\t// in\ntag_161:\n    /* \"#utility.yul\":8016:8155   */\ntag_160:\n    /* \"#utility.yul\":7800:8162   */\n  pop\n    /* \"#utility.yul\":7752:8162   */\n  swap3\n  swap2\n  pop\n  pop\n  jump\t// out\n    /* \"#utility.yul\":8168:8359   */\ntag_21:\n    /* \"#utility.yul\":8208:8211   */\n  0x00\n    /* \"#utility.yul\":8227:8247   */\n  tag_163\n    /* \"#utility.yul\":8245:8246   */\n  dup3\n    /* \"#utility.yul\":8227:8247   */\n  tag_48\n  jump\t// in\ntag_163:\n    /* \"#utility.yul\":8222:8247   */\n  swap2\n  pop\n    /* \"#utility.yul\":8261:8281   */\n  tag_164\n    /* \"#utility.yul\":8279:8280   */\n  dup4\n    /* \"#utility.yul\":8261:8281   */\n  tag_48\n  jump\t// in\ntag_164:\n    /* \"#utility.yul\":8256:8281   */\n  swap3\n  pop\n    /* \"#utility.yul\":8304:8305   */\n  dup3\n    /* \"#utility.yul\":8301:8302   */\n  dup3\n    /* \"#utility.yul\":8297:8306   */\n  add\n    /* \"#utility.yul\":8290:8306   */\n  swap1\n  pop\n    /* \"#utility.yul\":8325:8328   */\n  dup1\n    /* \"#utility.yul\":8322:8323   */\n  dup3\n    /* \"#utility.yul\":8319:8329   */\n  gt\n    /* \"#utility.yul\":8316:8352   */\n  iszero\n  tag_165\n  jumpi\n    /* \"#utility.yul\":8332:8350   */\n  tag_166\n  tag_60\n  jump\t// in\ntag_166:\n    /* \"#utility.yul\":8316:8352   */\ntag_165:\n    /* \"#utility.yul\":8168:8359   */\n  swap3\n  swap2\n  pop\n  pop\n  jump\t// out\n    /* \"contracts/Pokemon.sol\":86:3236  contract Pokemon is ERC20 {... */\ntag_18:\n  dataSize(sub_0)\n  dup1\n  dataOffset(sub_0)\n  0x00\n  codecopy\n  0x00\n  return\nstop\ndata_1ceba42798f0fd5f09c3771ea210060f2dd7bb1515d9c95a2ba34d55360ccd72 68747470733a2f2f7374617469632e77696b69612e6e6f636f6f6b69652e6e65742f706f6b656d6f6e2f696d616765732f352f35652f2545442538432538432545432539442542342545422541362541435f2545412542332542352545432538422539445f2545432539442542432545422539462541432545432538412541342545442538412542382e706e672f7265766973696f6e2f6c61746573742f7363616c652d746f2d77696474682d646f776e2f313230303f63623d323031373034303432333330303526706174682d7072656669783d6b6f\ndata_b14319aa424b20b9bfc4ffbd019d4aaa8cb0d68e2b6dcd517f8728ab08f4e0bf 68747470733a2f2f7374617469632e77696b69612e6e6f636f6f6b69652e6e65742f706f6b656d6f6e2f696d616765732f612f61612f2545412542432541432545422542362538302545412542382542305f2545412542332542352545432538422539445f2545432539442542432545422539462541432545432538412541342545442538412542382e706e672f7265766973696f6e2f6c61746573743f63623d323031373034303432333334353226706174682d7072656669783d6b6f\ndata_c6c235598fece1636598164a8955be190cbeb46d8935827afa176dd09ecc005e 68747470733a2f2f75706c6f61642e77696b696d656469612e6f72672f77696b6970656469612f6b6f2f7468756d622f612f61362f506f6b2543332541396d6f6e5f50696b616368755f6172742e706e672f32303070782d506f6b2543332541396d6f6e5f50696b616368755f6172742e706e67\n\nsub_0: assembly {\n        /* \"contracts/Pokemon.sol\":86:3236  contract Pokemon is ERC20 {... */\n      mstore(0x40, 0x80)\n      jumpi(tag_1, lt(calldatasize, 0x04))\n      shr(0xe0, calldataload(0x00))\n      dup1\n      0x42966c68\n      gt\n      tag_19\n      jumpi\n      dup1\n      0x95d89b41\n      gt\n      tag_20\n      jumpi\n      dup1\n      0x95d89b41\n      eq\n      tag_15\n      jumpi\n      dup1\n      0xa9059cbb\n      eq\n      tag_16\n      jumpi\n      dup1\n      0xc78bc15f\n      eq\n      tag_17\n      jumpi\n      dup1\n      0xdd62ed3e\n      eq\n      tag_18\n      jumpi\n      jump(tag_2)\n    tag_20:\n      dup1\n      0x42966c68\n      eq\n      tag_11\n      jumpi\n      dup1\n      0x70a08231\n      eq\n      tag_12\n      jumpi\n      dup1\n      0x868babb0\n      eq\n      tag_13\n      jumpi\n      dup1\n      0x87e24c72\n      eq\n      tag_14\n      jumpi\n      jump(tag_2)\n    tag_19:\n      dup1\n      0x27e235e3\n      gt\n      tag_21\n      jumpi\n      dup1\n      0x27e235e3\n      eq\n      tag_7\n      jumpi\n      dup1\n      0x313ce567\n      eq\n      tag_8\n      jumpi\n      dup1\n      0x365b98b2\n      eq\n      tag_9\n      jumpi\n      dup1\n      0x36e60477\n      eq\n      tag_10\n      jumpi\n      jump(tag_2)\n    tag_21:\n      dup1\n      0x06fdde03\n      eq\n      tag_3\n      jumpi\n      dup1\n      0x095ea7b3\n      eq\n      tag_4\n      jumpi\n      dup1\n      0x18160ddd\n      eq\n      tag_5\n      jumpi\n      dup1\n      0x23b872dd\n      eq\n      tag_6\n      jumpi\n      jump(tag_2)\n    tag_1:\n      jumpi(tag_2, calldatasize)\n        /* \"contracts/ERC20.sol\":1433:1444  uint amount */\n      0x00\n        /* \"contracts/ERC20.sol\":1459:1462  200 */\n      0xc8\n        /* \"contracts/ERC20.sol\":1447:1456  msg.value */\n      callvalue\n        /* \"contracts/ERC20.sol\":1447:1462  msg.value * 200 */\n      tag_24\n      swap2\n      swap1\n      tag_25\n      jump\t// in\n    tag_24:\n        /* \"contracts/ERC20.sol\":1433:1462  uint amount = msg.value * 200 */\n      swap1\n      pop\n        /* \"contracts/ERC20.sol\":1502:1508  amount */\n      dup1\n        /* \"contracts/ERC20.sol\":1483:1491  balances */\n      0x05\n        /* \"contracts/ERC20.sol\":1483:1498  balances[owner] */\n      0x00\n        /* \"contracts/ERC20.sol\":1492:1497  owner */\n      0x04\n      0x00\n      swap1\n      sload\n      swap1\n      0x0100\n      exp\n      swap1\n      div\n      0xffffffffffffffffffffffffffffffffffffffff\n      and\n        /* \"contracts/ERC20.sol\":1483:1498  balances[owner] */\n      0xffffffffffffffffffffffffffffffffffffffff\n      and\n      0xffffffffffffffffffffffffffffffffffffffff\n      and\n      dup2\n      mstore\n      0x20\n      add\n      swap1\n      dup2\n      mstore\n      0x20\n      add\n      0x00\n      keccak256\n      sload\n        /* \"contracts/ERC20.sol\":1483:1508  balances[owner] >= amount */\n      lt\n      iszero\n        /* \"contracts/ERC20.sol\":1475:1509  require(balances[owner] >= amount) */\n      tag_26\n      jumpi\n      0x00\n      dup1\n      revert\n    tag_26:\n        /* \"contracts/ERC20.sol\":1539:1545  amount */\n      dup1\n        /* \"contracts/ERC20.sol\":1520:1528  balances */\n      0x05\n        /* \"contracts/ERC20.sol\":1520:1535  balances[owner] */\n      0x00\n        /* \"contracts/ERC20.sol\":1529:1534  owner */\n      0x04\n      0x00\n      swap1\n      sload\n      swap1\n      0x0100\n      exp\n      swap1\n      div\n      0xffffffffffffffffffffffffffffffffffffffff\n      and\n        /* \"contracts/ERC20.sol\":1520:1535  balances[owner] */\n      0xffffffffffffffffffffffffffffffffffffffff\n      and\n      0xffffffffffffffffffffffffffffffffffffffff\n      and\n      dup2\n      mstore\n      0x20\n      add\n      swap1\n      dup2\n      mstore\n      0x20\n      add\n      0x00\n      keccak256\n      0x00\n        /* \"contracts/ERC20.sol\":1520:1545  balances[owner] -= amount */\n      dup3\n      dup3\n      sload\n      tag_27\n      swap2\n      swap1\n      tag_28\n      jump\t// in\n    tag_27:\n      swap3\n      pop\n      pop\n      dup2\n      swap1\n      sstore\n      pop\n        /* \"contracts/ERC20.sol\":1580:1586  amount */\n      dup1\n        /* \"contracts/ERC20.sol\":1556:1564  balances */\n      0x05\n        /* \"contracts/ERC20.sol\":1556:1576  balances[msg.sender] */\n      0x00\n        /* \"contracts/ERC20.sol\":1565:1575  msg.sender */\n      caller\n        /* \"contracts/ERC20.sol\":1556:1576  balances[msg.sender] */\n      0xffffffffffffffffffffffffffffffffffffffff\n      and\n      0xffffffffffffffffffffffffffffffffffffffff\n      and\n      dup2\n      mstore\n      0x20\n      add\n      swap1\n      dup2\n      mstore\n      0x20\n      add\n      0x00\n      keccak256\n      0x00\n        /* \"contracts/ERC20.sol\":1556:1586  balances[msg.sender] += amount */\n      dup3\n      dup3\n      sload\n      tag_29\n      swap2\n      swap1\n      tag_30\n      jump\t// in\n    tag_29:\n      swap3\n      pop\n      pop\n      dup2\n      swap1\n      sstore\n      pop\n        /* \"contracts/ERC20.sol\":1807:1812  owner */\n      0x04\n      0x00\n      swap1\n      sload\n      swap1\n      0x0100\n      exp\n      swap1\n      div\n      0xffffffffffffffffffffffffffffffffffffffff\n      and\n        /* \"contracts/ERC20.sol\":1793:1812  msg.sender == owner */\n      0xffffffffffffffffffffffffffffffffffffffff\n      and\n        /* \"contracts/ERC20.sol\":1793:1803  msg.sender */\n      caller\n        /* \"contracts/ERC20.sol\":1793:1812  msg.sender == owner */\n      0xffffffffffffffffffffffffffffffffffffffff\n      and\n      sub\n        /* \"contracts/ERC20.sol\":1789:1853  if (msg.sender == owner) {... */\n      tag_31\n      jumpi\n        /* \"contracts/ERC20.sol\":1829:1841  mint(amount) */\n      tag_32\n        /* \"contracts/ERC20.sol\":1834:1840  amount */\n      dup2\n        /* \"contracts/ERC20.sol\":1829:1833  mint */\n      tag_33\n        /* \"contracts/ERC20.sol\":1829:1841  mint(amount) */\n      jump\t// in\n    tag_32:\n        /* \"contracts/ERC20.sol\":1789:1853  if (msg.sender == owner) {... */\n    tag_31:\n        /* \"contracts/ERC20.sol\":1064:1862  {... */\n      stop\n        /* \"contracts/Pokemon.sol\":86:3236  contract Pokemon is ERC20 {... */\n    tag_2:\n      0x00\n      dup1\n      revert\n        /* \"contracts/ERC20.sol\":144:162  string public name */\n    tag_3:\n      callvalue\n      dup1\n      iszero\n      tag_34\n      jumpi\n      0x00\n      dup1\n      revert\n    tag_34:\n      pop\n      tag_35\n      tag_36\n      jump\t// in\n    tag_35:\n      mload(0x40)\n      tag_37\n      swap2\n      swap1\n      tag_38\n      jump\t// in\n    tag_37:\n      mload(0x40)\n      dup1\n      swap2\n      sub\n      swap1\n      return\n        /* \"contracts/ERC20.sol\":2559:2719  function approve(address spender, uint amount) external override returns (bool) {... */\n    tag_4:\n      callvalue\n      dup1\n      iszero\n      tag_39\n      jumpi\n      0x00\n      dup1\n      revert\n    tag_39:\n      pop\n      tag_40\n      0x04\n      dup1\n      calldatasize\n      sub\n      dup2\n      add\n      swap1\n      tag_41\n      swap2\n      swap1\n      tag_42\n      jump\t// in\n    tag_41:\n      tag_43\n      jump\t// in\n    tag_40:\n      mload(0x40)\n      tag_44\n      swap2\n      swap1\n      tag_45\n      jump\t// in\n    tag_44:\n      mload(0x40)\n      dup1\n      swap2\n      sub\n      swap1\n      return\n        /* \"contracts/ERC20.sol\":374:406  uint public override totalSupply */\n    tag_5:\n      callvalue\n      dup1\n      iszero\n      tag_46\n      jumpi\n      0x00\n      dup1\n      revert\n    tag_46:\n      pop\n      tag_47\n      tag_48\n      jump\t// in\n    tag_47:\n      mload(0x40)\n      tag_49\n      swap2\n      swap1\n      tag_50\n      jump\t// in\n    tag_49:\n      mload(0x40)\n      dup1\n      swap2\n      sub\n      swap1\n      return\n        /* \"contracts/ERC20.sol\":2727:3442  function transferFrom(address spender, address to, uint amount) external override returns (bool) {... */\n    tag_6:\n      callvalue\n      dup1\n      iszero\n      tag_51\n      jumpi\n      0x00\n      dup1\n      revert\n    tag_51:\n      pop\n      tag_52\n      0x04\n      dup1\n      calldatasize\n      sub\n      dup2\n      add\n      swap1\n      tag_53\n      swap2\n      swap1\n      tag_54\n      jump\t// in\n    tag_53:\n      tag_55\n      jump\t// in\n    tag_52:\n      mload(0x40)\n      tag_56\n      swap2\n      swap1\n      tag_45\n      jump\t// in\n    tag_56:\n      mload(0x40)\n      dup1\n      swap2\n      sub\n      swap1\n      return\n        /* \"contracts/ERC20.sol\":445:485  mapping(address => uint) public balances */\n    tag_7:\n      callvalue\n      dup1\n      iszero\n      tag_57\n      jumpi\n      0x00\n      dup1\n      revert\n    tag_57:\n      pop\n      tag_58\n      0x04\n      dup1\n      calldatasize\n      sub\n      dup2\n      add\n      swap1\n      tag_59\n      swap2\n      swap1\n      tag_60\n      jump\t// in\n    tag_59:\n      tag_61\n      jump\t// in\n    tag_58:\n      mload(0x40)\n      tag_62\n      swap2\n      swap1\n      tag_50\n      jump\t// in\n    tag_62:\n      mload(0x40)\n      dup1\n      swap2\n      sub\n      swap1\n      return\n        /* \"contracts/ERC20.sol\":300:326  uint8 public decimals = 18 */\n    tag_8:\n      callvalue\n      dup1\n      iszero\n      tag_63\n      jumpi\n      0x00\n      dup1\n      revert\n    tag_63:\n      pop\n      tag_64\n      tag_65\n      jump\t// in\n    tag_64:\n      mload(0x40)\n      tag_66\n      swap2\n      swap1\n      tag_67\n      jump\t// in\n    tag_66:\n      mload(0x40)\n      dup1\n      swap2\n      sub\n      swap1\n      return\n        /* \"contracts/Pokemon.sol\":1970:1990  Users[] public users */\n    tag_9:\n      callvalue\n      dup1\n      iszero\n      tag_68\n      jumpi\n      0x00\n      dup1\n      revert\n    tag_68:\n      pop\n      tag_69\n      0x04\n      dup1\n      calldatasize\n      sub\n      dup2\n      add\n      swap1\n      tag_70\n      swap2\n      swap1\n      tag_71\n      jump\t// in\n    tag_70:\n      tag_72\n      jump\t// in\n    tag_69:\n      mload(0x40)\n      tag_73\n      swap2\n      swap1\n      tag_74\n      jump\t// in\n    tag_73:\n      mload(0x40)\n      dup1\n      swap2\n      sub\n      swap1\n      return\n        /* \"contracts/Pokemon.sol\":1744:1787  mapping(address => Pokes[]) public pokemons */\n    tag_10:\n      callvalue\n      dup1\n      iszero\n      tag_75\n      jumpi\n      0x00\n      dup1\n      revert\n    tag_75:\n      pop\n      tag_76\n      0x04\n      dup1\n      calldatasize\n      sub\n      dup2\n      add\n      swap1\n      tag_77\n      swap2\n      swap1\n      tag_42\n      jump\t// in\n    tag_77:\n      tag_78\n      jump\t// in\n    tag_76:\n      mload(0x40)\n      tag_79\n      swap3\n      swap2\n      swap1\n      tag_80\n      jump\t// in\n    tag_79:\n      mload(0x40)\n      dup1\n      swap2\n      sub\n      swap1\n      return\n        /* \"contracts/ERC20.sol\":3450:3569  function burn(uint amount) external {... */\n    tag_11:\n      callvalue\n      dup1\n      iszero\n      tag_81\n      jumpi\n      0x00\n      dup1\n      revert\n    tag_81:\n      pop\n      tag_82\n      0x04\n      dup1\n      calldatasize\n      sub\n      dup2\n      add\n      swap1\n      tag_83\n      swap2\n      swap1\n      tag_71\n      jump\t// in\n    tag_83:\n      tag_84\n      jump\t// in\n    tag_82:\n      stop\n        /* \"contracts/ERC20.sol\":2246:2363  function balanceOf(address account) external view override returns (uint) {... */\n    tag_12:\n      callvalue\n      dup1\n      iszero\n      tag_85\n      jumpi\n      0x00\n      dup1\n      revert\n    tag_85:\n      pop\n      tag_86\n      0x04\n      dup1\n      calldatasize\n      sub\n      dup2\n      add\n      swap1\n      tag_87\n      swap2\n      swap1\n      tag_60\n      jump\t// in\n    tag_87:\n      tag_88\n      jump\t// in\n    tag_86:\n      mload(0x40)\n      tag_89\n      swap2\n      swap1\n      tag_50\n      jump\t// in\n    tag_89:\n      mload(0x40)\n      dup1\n      swap2\n      sub\n      swap1\n      return\n        /* \"contracts/Pokemon.sol\":2171:2266  function getPokemonUsers() public view returns (Users[] memory) {... */\n    tag_13:\n      callvalue\n      dup1\n      iszero\n      tag_90\n      jumpi\n      0x00\n      dup1\n      revert\n    tag_90:\n      pop\n      tag_91\n      tag_92\n      jump\t// in\n    tag_91:\n      mload(0x40)\n      tag_93\n      swap2\n      swap1\n      tag_94\n      jump\t// in\n    tag_93:\n      mload(0x40)\n      dup1\n      swap2\n      sub\n      swap1\n      return\n        /* \"contracts/Pokemon.sol\":2058:2163  function getPokemon() public view returns (Pokes[] memory) {... */\n    tag_14:\n      callvalue\n      dup1\n      iszero\n      tag_95\n      jumpi\n      0x00\n      dup1\n      revert\n    tag_95:\n      pop\n      tag_96\n      tag_97\n      jump\t// in\n    tag_96:\n      mload(0x40)\n      tag_98\n      swap2\n      swap1\n      tag_99\n      jump\t// in\n    tag_98:\n      mload(0x40)\n      dup1\n      swap2\n      sub\n      swap1\n      return\n        /* \"contracts/ERC20.sol\":208:228  string public symbol */\n    tag_15:\n      callvalue\n      dup1\n      iszero\n      tag_100\n      jumpi\n      0x00\n      dup1\n      revert\n    tag_100:\n      pop\n      tag_101\n      tag_102\n      jump\t// in\n    tag_101:\n      mload(0x40)\n      tag_103\n      swap2\n      swap1\n      tag_38\n      jump\t// in\n    tag_103:\n      mload(0x40)\n      dup1\n      swap2\n      sub\n      swap1\n      return\n        /* \"contracts/ERC20.sol\":2371:2551  function transfer(address to, uint amount) external override returns (bool) {... */\n    tag_16:\n      callvalue\n      dup1\n      iszero\n      tag_104\n      jumpi\n      0x00\n      dup1\n      revert\n    tag_104:\n      pop\n      tag_105\n      0x04\n      dup1\n      calldatasize\n      sub\n      dup2\n      add\n      swap1\n      tag_106\n      swap2\n      swap1\n      tag_42\n      jump\t// in\n    tag_106:\n      tag_107\n      jump\t// in\n    tag_105:\n      mload(0x40)\n      tag_108\n      swap2\n      swap1\n      tag_45\n      jump\t// in\n    tag_108:\n      mload(0x40)\n      dup1\n      swap2\n      sub\n      swap1\n      return\n        /* \"contracts/Pokemon.sol\":2274:3233  function buyPokemon() public {... */\n    tag_17:\n      callvalue\n      dup1\n      iszero\n      tag_109\n      jumpi\n      0x00\n      dup1\n      revert\n    tag_109:\n      pop\n      tag_110\n      tag_111\n      jump\t// in\n    tag_110:\n      stop\n        /* \"contracts/ERC20.sol\":547:617  mapping(address => mapping(address => uint)) public override allowance */\n    tag_18:\n      callvalue\n      dup1\n      iszero\n      tag_112\n      jumpi\n      0x00\n      dup1\n      revert\n    tag_112:\n      pop\n      tag_113\n      0x04\n      dup1\n      calldatasize\n      sub\n      dup2\n      add\n      swap1\n      tag_114\n      swap2\n      swap1\n      tag_115\n      jump\t// in\n    tag_114:\n      tag_116\n      jump\t// in\n    tag_113:\n      mload(0x40)\n      tag_117\n      swap2\n      swap1\n      tag_50\n      jump\t// in\n    tag_117:\n      mload(0x40)\n      dup1\n      swap2\n      sub\n      swap1\n      return\n        /* \"contracts/ERC20.sol\":2121:2238  function mint(uint amount) internal {... */\n    tag_33:\n        /* \"contracts/ERC20.sol\":2192:2198  amount */\n      dup1\n        /* \"contracts/ERC20.sol\":2168:2176  balances */\n      0x05\n        /* \"contracts/ERC20.sol\":2168:2188  balances[msg.sender] */\n      0x00\n        /* \"contracts/ERC20.sol\":2177:2187  msg.sender */\n      caller\n        /* \"contracts/ERC20.sol\":2168:2188  balances[msg.sender] */\n      0xffffffffffffffffffffffffffffffffffffffff\n      and\n      0xffffffffffffffffffffffffffffffffffffffff\n      and\n      dup2\n      mstore\n      0x20\n      add\n      swap1\n      dup2\n      mstore\n      0x20\n      add\n      0x00\n      keccak256\n      0x00\n        /* \"contracts/ERC20.sol\":2168:2198  balances[msg.sender] += amount */\n      dup3\n      dup3\n      sload\n      tag_119\n      swap2\n      swap1\n      tag_30\n      jump\t// in\n    tag_119:\n      swap3\n      pop\n      pop\n      dup2\n      swap1\n      sstore\n      pop\n        /* \"contracts/ERC20.sol\":2224:2230  amount */\n      dup1\n        /* \"contracts/ERC20.sol\":2209:2220  totalSupply */\n      0x03\n      0x00\n        /* \"contracts/ERC20.sol\":2209:2230  totalSupply += amount */\n      dup3\n      dup3\n      sload\n      tag_120\n      swap2\n      swap1\n      tag_30\n      jump\t// in\n    tag_120:\n      swap3\n      pop\n      pop\n      dup2\n      swap1\n      sstore\n      pop\n        /* \"contracts/ERC20.sol\":2121:2238  function mint(uint amount) internal {... */\n      pop\n      jump\t// out\n        /* \"contracts/ERC20.sol\":144:162  string public name */\n    tag_36:\n      0x00\n      dup1\n      sload\n      tag_121\n      swap1\n      tag_122\n      jump\t// in\n    tag_121:\n      dup1\n      0x1f\n      add\n      0x20\n      dup1\n      swap2\n      div\n      mul\n      0x20\n      add\n      mload(0x40)\n      swap1\n      dup2\n      add\n      0x40\n      mstore\n      dup1\n      swap3\n      swap2\n      swap1\n      dup2\n      dup2\n      mstore\n      0x20\n      add\n      dup3\n      dup1\n      sload\n      tag_123\n      swap1\n      tag_122\n      jump\t// in\n    tag_123:\n      dup1\n      iszero\n      tag_124\n      jumpi\n      dup1\n      0x1f\n      lt\n      tag_125\n      jumpi\n      0x0100\n      dup1\n      dup4\n      sload\n      div\n      mul\n      dup4\n      mstore\n      swap2\n      0x20\n      add\n      swap2\n      jump(tag_124)\n    tag_125:\n      dup3\n      add\n      swap2\n      swap1\n      0x00\n      mstore\n      keccak256(0x00, 0x20)\n      swap1\n    tag_126:\n      dup2\n      sload\n      dup2\n      mstore\n      swap1\n      0x01\n      add\n      swap1\n      0x20\n      add\n      dup1\n      dup4\n      gt\n      tag_126\n      jumpi\n      dup3\n      swap1\n      sub\n      0x1f\n      and\n      dup3\n      add\n      swap2\n    tag_124:\n      pop\n      pop\n      pop\n      pop\n      pop\n      dup2\n      jump\t// out\n        /* \"contracts/ERC20.sol\":2559:2719  function approve(address spender, uint amount) external override returns (bool) {... */\n    tag_43:\n        /* \"contracts/ERC20.sol\":2633:2637  bool */\n      0x00\n        /* \"contracts/ERC20.sol\":2683:2689  amount */\n      dup2\n        /* \"contracts/ERC20.sol\":2650:2659  allowance */\n      0x06\n        /* \"contracts/ERC20.sol\":2650:2671  allowance[msg.sender] */\n      0x00\n        /* \"contracts/ERC20.sol\":2660:2670  msg.sender */\n      caller\n        /* \"contracts/ERC20.sol\":2650:2671  allowance[msg.sender] */\n      0xffffffffffffffffffffffffffffffffffffffff\n      and\n      0xffffffffffffffffffffffffffffffffffffffff\n      and\n      dup2\n      mstore\n      0x20\n      add\n      swap1\n      dup2\n      mstore\n      0x20\n      add\n      0x00\n      keccak256\n        /* \"contracts/ERC20.sol\":2650:2680  allowance[msg.sender][spender] */\n      0x00\n        /* \"contracts/ERC20.sol\":2672:2679  spender */\n      dup6\n        /* \"contracts/ERC20.sol\":2650:2680  allowance[msg.sender][spender] */\n      0xffffffffffffffffffffffffffffffffffffffff\n      and\n      0xffffffffffffffffffffffffffffffffffffffff\n      and\n      dup2\n      mstore\n      0x20\n      add\n      swap1\n      dup2\n      mstore\n      0x20\n      add\n      0x00\n      keccak256\n        /* \"contracts/ERC20.sol\":2650:2689  allowance[msg.sender][spender] = amount */\n      dup2\n      swap1\n      sstore\n      pop\n        /* \"contracts/ERC20.sol\":2707:2711  true */\n      0x01\n        /* \"contracts/ERC20.sol\":2700:2711  return true */\n      swap1\n      pop\n        /* \"contracts/ERC20.sol\":2559:2719  function approve(address spender, uint amount) external override returns (bool) {... */\n      swap3\n      swap2\n      pop\n      pop\n      jump\t// out\n        /* \"contracts/ERC20.sol\":374:406  uint public override totalSupply */\n    tag_48:\n      sload(0x03)\n      dup2\n      jump\t// out\n        /* \"contracts/ERC20.sol\":2727:3442  function transferFrom(address spender, address to, uint amount) external override returns (bool) {... */\n    tag_55:\n        /* \"contracts/ERC20.sol\":2818:2822  bool */\n      0x00\n        /* \"contracts/ERC20.sol\":2877:2883  amount */\n      dup2\n        /* \"contracts/ERC20.sol\":2843:2852  allowance */\n      0x06\n        /* \"contracts/ERC20.sol\":2843:2861  allowance[spender] */\n      0x00\n        /* \"contracts/ERC20.sol\":2853:2860  spender */\n      dup7\n        /* \"contracts/ERC20.sol\":2843:2861  allowance[spender] */\n      0xffffffffffffffffffffffffffffffffffffffff\n      and\n      0xffffffffffffffffffffffffffffffffffffffff\n      and\n      dup2\n      mstore\n      0x20\n      add\n      swap1\n      dup2\n      mstore\n      0x20\n      add\n      0x00\n      keccak256\n        /* \"contracts/ERC20.sol\":2843:2873  allowance[spender][msg.sender] */\n      0x00\n        /* \"contracts/ERC20.sol\":2862:2872  msg.sender */\n      caller\n        /* \"contracts/ERC20.sol\":2843:2873  allowance[spender][msg.sender] */\n      0xffffffffffffffffffffffffffffffffffffffff\n      and\n      0xffffffffffffffffffffffffffffffffffffffff\n      and\n      dup2\n      mstore\n      0x20\n      add\n      swap1\n      dup2\n      mstore\n      0x20\n      add\n      0x00\n      keccak256\n      sload\n        /* \"contracts/ERC20.sol\":2843:2883  allowance[spender][msg.sender] >= amount */\n      lt\n      iszero\n        /* \"contracts/ERC20.sol\":2835:2884  require(allowance[spender][msg.sender] >= amount) */\n      tag_129\n      jumpi\n      0x00\n      dup1\n      revert\n    tag_129:\n        /* \"contracts/ERC20.sol\":3158:3164  amount */\n      dup2\n        /* \"contracts/ERC20.sol\":3124:3133  allowance */\n      0x06\n        /* \"contracts/ERC20.sol\":3124:3142  allowance[spender] */\n      0x00\n        /* \"contracts/ERC20.sol\":3134:3141  spender */\n      dup7\n        /* \"contracts/ERC20.sol\":3124:3142  allowance[spender] */\n      0xffffffffffffffffffffffffffffffffffffffff\n      and\n      0xffffffffffffffffffffffffffffffffffffffff\n      and\n      dup2\n      mstore\n      0x20\n      add\n      swap1\n      dup2\n      mstore\n      0x20\n      add\n      0x00\n      keccak256\n        /* \"contracts/ERC20.sol\":3124:3154  allowance[spender][msg.sender] */\n      0x00\n        /* \"contracts/ERC20.sol\":3143:3153  msg.sender */\n      caller\n        /* \"contracts/ERC20.sol\":3124:3154  allowance[spender][msg.sender] */\n      0xffffffffffffffffffffffffffffffffffffffff\n      and\n      0xffffffffffffffffffffffffffffffffffffffff\n      and\n      dup2\n      mstore\n      0x20\n      add\n      swap1\n      dup2\n      mstore\n      0x20\n      add\n      0x00\n      keccak256\n      0x00\n        /* \"contracts/ERC20.sol\":3124:3164  allowance[spender][msg.sender] -= amount */\n      dup3\n      dup3\n      sload\n      tag_130\n      swap2\n      swap1\n      tag_28\n      jump\t// in\n    tag_130:\n      swap3\n      pop\n      pop\n      dup2\n      swap1\n      sstore\n      pop\n        /* \"contracts/ERC20.sol\":3196:3202  amount */\n      dup2\n        /* \"contracts/ERC20.sol\":3175:3183  balances */\n      0x05\n        /* \"contracts/ERC20.sol\":3175:3192  balances[spender] */\n      0x00\n        /* \"contracts/ERC20.sol\":3184:3191  spender */\n      dup7\n        /* \"contracts/ERC20.sol\":3175:3192  balances[spender] */\n      0xffffffffffffffffffffffffffffffffffffffff\n      and\n      0xffffffffffffffffffffffffffffffffffffffff\n      and\n      dup2\n      mstore\n      0x20\n      add\n      swap1\n      dup2\n      mstore\n      0x20\n      add\n      0x00\n      keccak256\n      0x00\n        /* \"contracts/ERC20.sol\":3175:3202  balances[spender] -= amount */\n      dup3\n      dup3\n      sload\n      tag_131\n      swap2\n      swap1\n      tag_28\n      jump\t// in\n    tag_131:\n      swap3\n      pop\n      pop\n      dup2\n      swap1\n      sstore\n      pop\n        /* \"contracts/ERC20.sol\":3229:3235  amount */\n      dup2\n        /* \"contracts/ERC20.sol\":3213:3221  balances */\n      0x05\n        /* \"contracts/ERC20.sol\":3213:3225  balances[to] */\n      0x00\n        /* \"contracts/ERC20.sol\":3222:3224  to */\n      dup6\n        /* \"contracts/ERC20.sol\":3213:3225  balances[to] */\n      0xffffffffffffffffffffffffffffffffffffffff\n      and\n      0xffffffffffffffffffffffffffffffffffffffff\n      and\n      dup2\n      mstore\n      0x20\n      add\n      swap1\n      dup2\n      mstore\n      0x20\n      add\n      0x00\n      keccak256\n      0x00\n        /* \"contracts/ERC20.sol\":3213:3235  balances[to] += amount */\n      dup3\n      dup3\n      sload\n      tag_132\n      swap2\n      swap1\n      tag_30\n      jump\t// in\n    tag_132:\n      swap3\n      pop\n      pop\n      dup2\n      swap1\n      sstore\n      pop\n        /* \"contracts/ERC20.sol\":3430:3434  true */\n      0x01\n        /* \"contracts/ERC20.sol\":3423:3434  return true */\n      swap1\n      pop\n        /* \"contracts/ERC20.sol\":2727:3442  function transferFrom(address spender, address to, uint amount) external override returns (bool) {... */\n      swap4\n      swap3\n      pop\n      pop\n      pop\n      jump\t// out\n        /* \"contracts/ERC20.sol\":445:485  mapping(address => uint) public balances */\n    tag_61:\n      mstore(0x20, 0x05)\n      dup1\n      0x00\n      mstore\n      keccak256(0x00, 0x40)\n      0x00\n      swap2\n      pop\n      swap1\n      pop\n      sload\n      dup2\n      jump\t// out\n        /* \"contracts/ERC20.sol\":300:326  uint8 public decimals = 18 */\n    tag_65:\n      0x02\n      0x00\n      swap1\n      sload\n      swap1\n      0x0100\n      exp\n      swap1\n      div\n      0xff\n      and\n      dup2\n      jump\t// out\n        /* \"contracts/Pokemon.sol\":1970:1990  Users[] public users */\n    tag_72:\n      0x0b\n      dup2\n      dup2\n      sload\n      dup2\n      lt\n      tag_133\n      jumpi\n      0x00\n      dup1\n      revert\n    tag_133:\n      swap1\n      0x00\n      mstore\n      keccak256(0x00, 0x20)\n      add\n      0x00\n      swap2\n      pop\n      swap1\n      pop\n      dup1\n      0x00\n      add\n      0x00\n      swap1\n      sload\n      swap1\n      0x0100\n      exp\n      swap1\n      div\n      0xffffffffffffffffffffffffffffffffffffffff\n      and\n      swap1\n      pop\n      dup2\n      jump\t// out\n        /* \"contracts/Pokemon.sol\":1744:1787  mapping(address => Pokes[]) public pokemons */\n    tag_78:\n      mstore(0x20, 0x0a)\n      dup2\n      0x00\n      mstore\n      keccak256(0x00, 0x40)\n      dup2\n      dup2\n      sload\n      dup2\n      lt\n      tag_135\n      jumpi\n      0x00\n      dup1\n      revert\n    tag_135:\n      swap1\n      0x00\n      mstore\n      keccak256(0x00, 0x20)\n      swap1\n      0x02\n      mul\n      add\n      0x00\n      swap2\n      pop\n      swap2\n      pop\n      pop\n      dup1\n      0x00\n      add\n      dup1\n      sload\n      tag_137\n      swap1\n      tag_122\n      jump\t// in\n    tag_137:\n      dup1\n      0x1f\n      add\n      0x20\n      dup1\n      swap2\n      div\n      mul\n      0x20\n      add\n      mload(0x40)\n      swap1\n      dup2\n      add\n      0x40\n      mstore\n      dup1\n      swap3\n      swap2\n      swap1\n      dup2\n      dup2\n      mstore\n      0x20\n      add\n      dup3\n      dup1\n      sload\n      tag_138\n      swap1\n      tag_122\n      jump\t// in\n    tag_138:\n      dup1\n      iszero\n      tag_139\n      jumpi\n      dup1\n      0x1f\n      lt\n      tag_140\n      jumpi\n      0x0100\n      dup1\n      dup4\n      sload\n      div\n      mul\n      dup4\n      mstore\n      swap2\n      0x20\n      add\n      swap2\n      jump(tag_139)\n    tag_140:\n      dup3\n      add\n      swap2\n      swap1\n      0x00\n      mstore\n      keccak256(0x00, 0x20)\n      swap1\n    tag_141:\n      dup2\n      sload\n      dup2\n      mstore\n      swap1\n      0x01\n      add\n      swap1\n      0x20\n      add\n      dup1\n      dup4\n      gt\n      tag_141\n      jumpi\n      dup3\n      swap1\n      sub\n      0x1f\n      and\n      dup3\n      add\n      swap2\n    tag_139:\n      pop\n      pop\n      pop\n      pop\n      pop\n      swap1\n      dup1\n      0x01\n      add\n      dup1\n      sload\n      tag_142\n      swap1\n      tag_122\n      jump\t// in\n    tag_142:\n      dup1\n      0x1f\n      add\n      0x20\n      dup1\n      swap2\n      div\n      mul\n      0x20\n      add\n      mload(0x40)\n      swap1\n      dup2\n      add\n      0x40\n      mstore\n      dup1\n      swap3\n      swap2\n      swap1\n      dup2\n      dup2\n      mstore\n      0x20\n      add\n      dup3\n      dup1\n      sload\n      tag_143\n      swap1\n      tag_122\n      jump\t// in\n    tag_143:\n      dup1\n      iszero\n      tag_144\n      jumpi\n      dup1\n      0x1f\n      lt\n      tag_145\n      jumpi\n      0x0100\n      dup1\n      dup4\n      sload\n      div\n      mul\n      dup4\n      mstore\n      swap2\n      0x20\n      add\n      swap2\n      jump(tag_144)\n    tag_145:\n      dup3\n      add\n      swap2\n      swap1\n      0x00\n      mstore\n      keccak256(0x00, 0x20)\n      swap1\n    tag_146:\n      dup2\n      sload\n      dup2\n      mstore\n      swap1\n      0x01\n      add\n      swap1\n      0x20\n      add\n      dup1\n      dup4\n      gt\n      tag_146\n      jumpi\n      dup3\n      swap1\n      sub\n      0x1f\n      and\n      dup3\n      add\n      swap2\n    tag_144:\n      pop\n      pop\n      pop\n      pop\n      pop\n      swap1\n      pop\n      dup3\n      jump\t// out\n        /* \"contracts/ERC20.sol\":3450:3569  function burn(uint amount) external {... */\n    tag_84:\n        /* \"contracts/ERC20.sol\":3521:3527  amount */\n      dup1\n        /* \"contracts/ERC20.sol\":3497:3505  balances */\n      0x05\n        /* \"contracts/ERC20.sol\":3497:3517  balances[msg.sender] */\n      0x00\n        /* \"contracts/ERC20.sol\":3506:3516  msg.sender */\n      caller\n        /* \"contracts/ERC20.sol\":3497:3517  balances[msg.sender] */\n      0xffffffffffffffffffffffffffffffffffffffff\n      and\n      0xffffffffffffffffffffffffffffffffffffffff\n      and\n      dup2\n      mstore\n      0x20\n      add\n      swap1\n      dup2\n      mstore\n      0x20\n      add\n      0x00\n      keccak256\n      0x00\n        /* \"contracts/ERC20.sol\":3497:3527  balances[msg.sender] -= amount */\n      dup3\n      dup3\n      sload\n      tag_148\n      swap2\n      swap1\n      tag_28\n      jump\t// in\n    tag_148:\n      swap3\n      pop\n      pop\n      dup2\n      swap1\n      sstore\n      pop\n        /* \"contracts/ERC20.sol\":3553:3559  amount */\n      dup1\n        /* \"contracts/ERC20.sol\":3538:3549  totalSupply */\n      0x03\n      0x00\n        /* \"contracts/ERC20.sol\":3538:3559  totalSupply -= amount */\n      dup3\n      dup3\n      sload\n      tag_149\n      swap2\n      swap1\n      tag_28\n      jump\t// in\n    tag_149:\n      swap3\n      pop\n      pop\n      dup2\n      swap1\n      sstore\n      pop\n        /* \"contracts/ERC20.sol\":3450:3569  function burn(uint amount) external {... */\n      pop\n      jump\t// out\n        /* \"contracts/ERC20.sol\":2246:2363  function balanceOf(address account) external view override returns (uint) {... */\n    tag_88:\n        /* \"contracts/ERC20.sol\":2314:2318  uint */\n      0x00\n        /* \"contracts/ERC20.sol\":2338:2346  balances */\n      0x05\n        /* \"contracts/ERC20.sol\":2338:2355  balances[account] */\n      0x00\n        /* \"contracts/ERC20.sol\":2347:2354  account */\n      dup4\n        /* \"contracts/ERC20.sol\":2338:2355  balances[account] */\n      0xffffffffffffffffffffffffffffffffffffffff\n      and\n      0xffffffffffffffffffffffffffffffffffffffff\n      and\n      dup2\n      mstore\n      0x20\n      add\n      swap1\n      dup2\n      mstore\n      0x20\n      add\n      0x00\n      keccak256\n      sload\n        /* \"contracts/ERC20.sol\":2331:2355  return balances[account] */\n      swap1\n      pop\n        /* \"contracts/ERC20.sol\":2246:2363  function balanceOf(address account) external view override returns (uint) {... */\n      swap2\n      swap1\n      pop\n      jump\t// out\n        /* \"contracts/Pokemon.sol\":2171:2266  function getPokemonUsers() public view returns (Users[] memory) {... */\n    tag_92:\n        /* \"contracts/Pokemon.sol\":2219:2233  Users[] memory */\n      0x60\n        /* \"contracts/Pokemon.sol\":2253:2258  users */\n      0x0b\n        /* \"contracts/Pokemon.sol\":2246:2258  return users */\n      dup1\n      sload\n      dup1\n      0x20\n      mul\n      0x20\n      add\n      mload(0x40)\n      swap1\n      dup2\n      add\n      0x40\n      mstore\n      dup1\n      swap3\n      swap2\n      swap1\n      dup2\n      dup2\n      mstore\n      0x20\n      add\n      0x00\n      swap1\n    tag_152:\n      dup3\n      dup3\n      lt\n      iszero\n      tag_153\n      jumpi\n      dup4\n      dup3\n      swap1\n      0x00\n      mstore\n      keccak256(0x00, 0x20)\n      add\n      mload(0x40)\n      dup1\n      0x20\n      add\n      0x40\n      mstore\n      swap1\n      dup2\n      0x00\n      dup3\n      add\n      0x00\n      swap1\n      sload\n      swap1\n      0x0100\n      exp\n      swap1\n      div\n      0xffffffffffffffffffffffffffffffffffffffff\n      and\n      0xffffffffffffffffffffffffffffffffffffffff\n      and\n      0xffffffffffffffffffffffffffffffffffffffff\n      and\n      dup2\n      mstore\n      pop\n      pop\n      dup2\n      mstore\n      0x20\n      add\n      swap1\n      0x01\n      add\n      swap1\n      jump(tag_152)\n    tag_153:\n      pop\n      pop\n      pop\n      pop\n      swap1\n      pop\n        /* \"contracts/Pokemon.sol\":2171:2266  function getPokemonUsers() public view returns (Users[] memory) {... */\n      swap1\n      jump\t// out\n        /* \"contracts/Pokemon.sol\":2058:2163  function getPokemon() public view returns (Pokes[] memory) {... */\n    tag_97:\n        /* \"contracts/Pokemon.sol\":2101:2115  Pokes[] memory */\n      0x60\n        /* \"contracts/Pokemon.sol\":2135:2143  pokemons */\n      0x0a\n        /* \"contracts/Pokemon.sol\":2135:2155  pokemons[msg.sender] */\n      0x00\n        /* \"contracts/Pokemon.sol\":2144:2154  msg.sender */\n      caller\n        /* \"contracts/Pokemon.sol\":2135:2155  pokemons[msg.sender] */\n      0xffffffffffffffffffffffffffffffffffffffff\n      and\n      0xffffffffffffffffffffffffffffffffffffffff\n      and\n      dup2\n      mstore\n      0x20\n      add\n      swap1\n      dup2\n      mstore\n      0x20\n      add\n      0x00\n      keccak256\n        /* \"contracts/Pokemon.sol\":2128:2155  return pokemons[msg.sender] */\n      dup1\n      sload\n      dup1\n      0x20\n      mul\n      0x20\n      add\n      mload(0x40)\n      swap1\n      dup2\n      add\n      0x40\n      mstore\n      dup1\n      swap3\n      swap2\n      swap1\n      dup2\n      dup2\n      mstore\n      0x20\n      add\n      0x00\n      swap1\n    tag_156:\n      dup3\n      dup3\n      lt\n      iszero\n      tag_157\n      jumpi\n      dup4\n      dup3\n      swap1\n      0x00\n      mstore\n      keccak256(0x00, 0x20)\n      swap1\n      0x02\n      mul\n      add\n      mload(0x40)\n      dup1\n      0x40\n      add\n      0x40\n      mstore\n      swap1\n      dup2\n      0x00\n      dup3\n      add\n      dup1\n      sload\n      tag_159\n      swap1\n      tag_122\n      jump\t// in\n    tag_159:\n      dup1\n      0x1f\n      add\n      0x20\n      dup1\n      swap2\n      div\n      mul\n      0x20\n      add\n      mload(0x40)\n      swap1\n      dup2\n      add\n      0x40\n      mstore\n      dup1\n      swap3\n      swap2\n      swap1\n      dup2\n      dup2\n      mstore\n      0x20\n      add\n      dup3\n      dup1\n      sload\n      tag_160\n      swap1\n      tag_122\n      jump\t// in\n    tag_160:\n      dup1\n      iszero\n      tag_161\n      jumpi\n      dup1\n      0x1f\n      lt\n      tag_162\n      jumpi\n      0x0100\n      dup1\n      dup4\n      sload\n      div\n      mul\n      dup4\n      mstore\n      swap2\n      0x20\n      add\n      swap2\n      jump(tag_161)\n    tag_162:\n      dup3\n      add\n      swap2\n      swap1\n      0x00\n      mstore\n      keccak256(0x00, 0x20)\n      swap1\n    tag_163:\n      dup2\n      sload\n      dup2\n      mstore\n      swap1\n      0x01\n      add\n      swap1\n      0x20\n      add\n      dup1\n      dup4\n      gt\n      tag_163\n      jumpi\n      dup3\n      swap1\n      sub\n      0x1f\n      and\n      dup3\n      add\n      swap2\n    tag_161:\n      pop\n      pop\n      pop\n      pop\n      pop\n      dup2\n      mstore\n      0x20\n      add\n      0x01\n      dup3\n      add\n      dup1\n      sload\n      tag_164\n      swap1\n      tag_122\n      jump\t// in\n    tag_164:\n      dup1\n      0x1f\n      add\n      0x20\n      dup1\n      swap2\n      div\n      mul\n      0x20\n      add\n      mload(0x40)\n      swap1\n      dup2\n      add\n      0x40\n      mstore\n      dup1\n      swap3\n      swap2\n      swap1\n      dup2\n      dup2\n      mstore\n      0x20\n      add\n      dup3\n      dup1\n      sload\n      tag_165\n      swap1\n      tag_122\n      jump\t// in\n    tag_165:\n      dup1\n      iszero\n      tag_166\n      jumpi\n      dup1\n      0x1f\n      lt\n      tag_167\n      jumpi\n      0x0100\n      dup1\n      dup4\n      sload\n      div\n      mul\n      dup4\n      mstore\n      swap2\n      0x20\n      add\n      swap2\n      jump(tag_166)\n    tag_167:\n      dup3\n      add\n      swap2\n      swap1\n      0x00\n      mstore\n      keccak256(0x00, 0x20)\n      swap1\n    tag_168:\n      dup2\n      sload\n      dup2\n      mstore\n      swap1\n      0x01\n      add\n      swap1\n      0x20\n      add\n      dup1\n      dup4\n      gt\n      tag_168\n      jumpi\n      dup3\n      swap1\n      sub\n      0x1f\n      and\n      dup3\n      add\n      swap2\n    tag_166:\n      pop\n      pop\n      pop\n      pop\n      pop\n      dup2\n      mstore\n      pop\n      pop\n      dup2\n      mstore\n      0x20\n      add\n      swap1\n      0x01\n      add\n      swap1\n      jump(tag_156)\n    tag_157:\n      pop\n      pop\n      pop\n      pop\n      swap1\n      pop\n        /* \"contracts/Pokemon.sol\":2058:2163  function getPokemon() public view returns (Pokes[] memory) {... */\n      swap1\n      jump\t// out\n        /* \"contracts/ERC20.sol\":208:228  string public symbol */\n    tag_102:\n      0x01\n      dup1\n      sload\n      tag_169\n      swap1\n      tag_122\n      jump\t// in\n    tag_169:\n      dup1\n      0x1f\n      add\n      0x20\n      dup1\n      swap2\n      div\n      mul\n      0x20\n      add\n      mload(0x40)\n      swap1\n      dup2\n      add\n      0x40\n      mstore\n      dup1\n      swap3\n      swap2\n      swap1\n      dup2\n      dup2\n      mstore\n      0x20\n      add\n      dup3\n      dup1\n      sload\n      tag_170\n      swap1\n      tag_122\n      jump\t// in\n    tag_170:\n      dup1\n      iszero\n      tag_171\n      jumpi\n      dup1\n      0x1f\n      lt\n      tag_172\n      jumpi\n      0x0100\n      dup1\n      dup4\n      sload\n      div\n      mul\n      dup4\n      mstore\n      swap2\n      0x20\n      add\n      swap2\n      jump(tag_171)\n    tag_172:\n      dup3\n      add\n      swap2\n      swap1\n      0x00\n      mstore\n      keccak256(0x00, 0x20)\n      swap1\n    tag_173:\n      dup2\n      sload\n      dup2\n      mstore\n      swap1\n      0x01\n      add\n      swap1\n      0x20\n      add\n      dup1\n      dup4\n      gt\n      tag_173\n      jumpi\n      dup3\n      swap1\n      sub\n      0x1f\n      and\n      dup3\n      add\n      swap2\n    tag_171:\n      pop\n      pop\n      pop\n      pop\n      pop\n      dup2\n      jump\t// out\n        /* \"contracts/ERC20.sol\":2371:2551  function transfer(address to, uint amount) external override returns (bool) {... */\n    tag_107:\n        /* \"contracts/ERC20.sol\":2441:2445  bool */\n      0x00\n        /* \"contracts/ERC20.sol\":2482:2488  amount */\n      dup2\n        /* \"contracts/ERC20.sol\":2458:2466  balances */\n      0x05\n        /* \"contracts/ERC20.sol\":2458:2478  balances[msg.sender] */\n      0x00\n        /* \"contracts/ERC20.sol\":2467:2477  msg.sender */\n      caller\n        /* \"contracts/ERC20.sol\":2458:2478  balances[msg.sender] */\n      0xffffffffffffffffffffffffffffffffffffffff\n      and\n      0xffffffffffffffffffffffffffffffffffffffff\n      and\n      dup2\n      mstore\n      0x20\n      add\n      swap1\n      dup2\n      mstore\n      0x20\n      add\n      0x00\n      keccak256\n      0x00\n        /* \"contracts/ERC20.sol\":2458:2488  balances[msg.sender] -= amount */\n      dup3\n      dup3\n      sload\n      tag_175\n      swap2\n      swap1\n      tag_28\n      jump\t// in\n    tag_175:\n      swap3\n      pop\n      pop\n      dup2\n      swap1\n      sstore\n      pop\n        /* \"contracts/ERC20.sol\":2515:2521  amount */\n      dup2\n        /* \"contracts/ERC20.sol\":2499:2507  balances */\n      0x05\n        /* \"contracts/ERC20.sol\":2499:2511  balances[to] */\n      0x00\n        /* \"contracts/ERC20.sol\":2508:2510  to */\n      dup6\n        /* \"contracts/ERC20.sol\":2499:2511  balances[to] */\n      0xffffffffffffffffffffffffffffffffffffffff\n      and\n      0xffffffffffffffffffffffffffffffffffffffff\n      and\n      dup2\n      mstore\n      0x20\n      add\n      swap1\n      dup2\n      mstore\n      0x20\n      add\n      0x00\n      keccak256\n      0x00\n        /* \"contracts/ERC20.sol\":2499:2521  balances[to] += amount */\n      dup3\n      dup3\n      sload\n      tag_176\n      swap2\n      swap1\n      tag_30\n      jump\t// in\n    tag_176:\n      swap3\n      pop\n      pop\n      dup2\n      swap1\n      sstore\n      pop\n        /* \"contracts/ERC20.sol\":2539:2543  true */\n      0x01\n        /* \"contracts/ERC20.sol\":2532:2543  return true */\n      swap1\n      pop\n        /* \"contracts/ERC20.sol\":2371:2551  function transfer(address to, uint amount) external override returns (bool) {... */\n      swap3\n      swap2\n      pop\n      pop\n      jump\t// out\n        /* \"contracts/Pokemon.sol\":2274:3233  function buyPokemon() public {... */\n    tag_111:\n        /* \"contracts/Pokemon.sol\":2346:2356  tokenPrice */\n      sload(0x07)\n        /* \"contracts/Pokemon.sol\":2322:2330  balances */\n      0x05\n        /* \"contracts/Pokemon.sol\":2322:2342  balances[msg.sender] */\n      0x00\n        /* \"contracts/Pokemon.sol\":2331:2341  msg.sender */\n      caller\n        /* \"contracts/Pokemon.sol\":2322:2342  balances[msg.sender] */\n      0xffffffffffffffffffffffffffffffffffffffff\n      and\n      0xffffffffffffffffffffffffffffffffffffffff\n      and\n      dup2\n      mstore\n      0x20\n      add\n      swap1\n      dup2\n      mstore\n      0x20\n      add\n      0x00\n      keccak256\n      sload\n        /* \"contracts/Pokemon.sol\":2322:2356  balances[msg.sender] >= tokenPrice */\n      lt\n      iszero\n        /* \"contracts/Pokemon.sol\":2314:2357  require(balances[msg.sender] >= tokenPrice) */\n      tag_178\n      jumpi\n      0x00\n      dup1\n      revert\n    tag_178:\n        /* \"contracts/Pokemon.sol\":2392:2402  tokenPrice */\n      sload(0x07)\n        /* \"contracts/Pokemon.sol\":2368:2376  balances */\n      0x05\n        /* \"contracts/Pokemon.sol\":2368:2388  balances[msg.sender] */\n      0x00\n        /* \"contracts/Pokemon.sol\":2377:2387  msg.sender */\n      caller\n        /* \"contracts/Pokemon.sol\":2368:2388  balances[msg.sender] */\n      0xffffffffffffffffffffffffffffffffffffffff\n      and\n      0xffffffffffffffffffffffffffffffffffffffff\n      and\n      dup2\n      mstore\n      0x20\n      add\n      swap1\n      dup2\n      mstore\n      0x20\n      add\n      0x00\n      keccak256\n      0x00\n        /* \"contracts/Pokemon.sol\":2368:2402  balances[msg.sender] -= tokenPrice */\n      dup3\n      dup3\n      sload\n      tag_179\n      swap2\n      swap1\n      tag_28\n      jump\t// in\n    tag_179:\n      swap3\n      pop\n      pop\n      dup2\n      swap1\n      sstore\n      pop\n        /* \"contracts/Pokemon.sol\":2428:2438  tokenPrice */\n      sload(0x07)\n        /* \"contracts/Pokemon.sol\":2413:2424  totalSupply */\n      0x03\n      0x00\n        /* \"contracts/Pokemon.sol\":2413:2438  totalSupply -= tokenPrice */\n      dup3\n      dup3\n      sload\n      tag_180\n      swap2\n      swap1\n      tag_28\n      jump\t// in\n    tag_180:\n      swap3\n      pop\n      pop\n      dup2\n      swap1\n      sstore\n      pop\n        /* \"contracts/Pokemon.sol\":2451:2462  uint random */\n      0x00\n        /* \"contracts/Pokemon.sol\":2529:2544  block.timestamp */\n      timestamp\n        /* \"contracts/Pokemon.sol\":2546:2560  block.coinbase */\n      coinbase\n        /* \"contracts/Pokemon.sol\":2562:2574  block.number */\n      number\n        /* \"contracts/Pokemon.sol\":2512:2575  abi.encodePacked(block.timestamp, block.coinbase, block.number) */\n      add(0x20, mload(0x40))\n      tag_181\n      swap4\n      swap3\n      swap2\n      swap1\n      tag_182\n      jump\t// in\n    tag_181:\n      mload(0x40)\n      0x20\n      dup2\n      dup4\n      sub\n      sub\n      dup2\n      mstore\n      swap1\n      0x40\n      mstore\n        /* \"contracts/Pokemon.sol\":2484:2590  keccak256(... */\n      dup1\n      mload\n      swap1\n      0x20\n      add\n      keccak256\n        /* \"contracts/Pokemon.sol\":2465:2601  uint(... */\n      0x00\n      shr\n        /* \"contracts/Pokemon.sol\":2451:2601  uint random = uint(... */\n      swap1\n      pop\n        /* \"contracts/Pokemon.sol\":2637:2638  3 */\n      0x03\n        /* \"contracts/Pokemon.sol\":2628:2634  random */\n      dup2\n        /* \"contracts/Pokemon.sol\":2628:2638  random % 3 */\n      tag_183\n      swap2\n      swap1\n      tag_184\n      jump\t// in\n    tag_183:\n        /* \"contracts/Pokemon.sol\":2614:2639  random = uint(random % 3) */\n      swap1\n      pop\n        /* \"contracts/Pokemon.sol\":2762:2770  pokemons */\n      0x0a\n        /* \"contracts/Pokemon.sol\":2762:2782  pokemons[msg.sender] */\n      0x00\n        /* \"contracts/Pokemon.sol\":2771:2781  msg.sender */\n      caller\n        /* \"contracts/Pokemon.sol\":2762:2782  pokemons[msg.sender] */\n      0xffffffffffffffffffffffffffffffffffffffff\n      and\n      0xffffffffffffffffffffffffffffffffffffffff\n      and\n      dup2\n      mstore\n      0x20\n      add\n      swap1\n      dup2\n      mstore\n      0x20\n      add\n      0x00\n      keccak256\n        /* \"contracts/Pokemon.sol\":2802:2848  Pokes(pokemonUrl[random], pokemonName[random]) */\n      mload(0x40)\n      dup1\n      0x40\n      add\n      0x40\n      mstore\n      dup1\n        /* \"contracts/Pokemon.sol\":2808:2818  pokemonUrl */\n      0x09\n        /* \"contracts/Pokemon.sol\":2819:2825  random */\n      dup5\n        /* \"contracts/Pokemon.sol\":2808:2826  pokemonUrl[random] */\n      dup2\n      sload\n      dup2\n      lt\n      tag_185\n      jumpi\n      tag_186\n      tag_187\n      jump\t// in\n    tag_186:\n    tag_185:\n      swap1\n      0x00\n      mstore\n      keccak256(0x00, 0x20)\n      add\n        /* \"contracts/Pokemon.sol\":2802:2848  Pokes(pokemonUrl[random], pokemonName[random]) */\n      dup1\n      sload\n      tag_189\n      swap1\n      tag_122\n      jump\t// in\n    tag_189:\n      dup1\n      0x1f\n      add\n      0x20\n      dup1\n      swap2\n      div\n      mul\n      0x20\n      add\n      mload(0x40)\n      swap1\n      dup2\n      add\n      0x40\n      mstore\n      dup1\n      swap3\n      swap2\n      swap1\n      dup2\n      dup2\n      mstore\n      0x20\n      add\n      dup3\n      dup1\n      sload\n      tag_190\n      swap1\n      tag_122\n      jump\t// in\n    tag_190:\n      dup1\n      iszero\n      tag_191\n      jumpi\n      dup1\n      0x1f\n      lt\n      tag_192\n      jumpi\n      0x0100\n      dup1\n      dup4\n      sload\n      div\n      mul\n      dup4\n      mstore\n      swap2\n      0x20\n      add\n      swap2\n      jump(tag_191)\n    tag_192:\n      dup3\n      add\n      swap2\n      swap1\n      0x00\n      mstore\n      keccak256(0x00, 0x20)\n      swap1\n    tag_193:\n      dup2\n      sload\n      dup2\n      mstore\n      swap1\n      0x01\n      add\n      swap1\n      0x20\n      add\n      dup1\n      dup4\n      gt\n      tag_193\n      jumpi\n      dup3\n      swap1\n      sub\n      0x1f\n      and\n      dup3\n      add\n      swap2\n    tag_191:\n      pop\n      pop\n      pop\n      pop\n      pop\n      dup2\n      mstore\n      0x20\n      add\n        /* \"contracts/Pokemon.sol\":2828:2839  pokemonName */\n      0x08\n        /* \"contracts/Pokemon.sol\":2840:2846  random */\n      dup5\n        /* \"contracts/Pokemon.sol\":2828:2847  pokemonName[random] */\n      dup2\n      sload\n      dup2\n      lt\n      tag_194\n      jumpi\n      tag_195\n      tag_187\n      jump\t// in\n    tag_195:\n    tag_194:\n      swap1\n      0x00\n      mstore\n      keccak256(0x00, 0x20)\n      add\n        /* \"contracts/Pokemon.sol\":2802:2848  Pokes(pokemonUrl[random], pokemonName[random]) */\n      dup1\n      sload\n      tag_197\n      swap1\n      tag_122\n      jump\t// in\n    tag_197:\n      dup1\n      0x1f\n      add\n      0x20\n      dup1\n      swap2\n      div\n      mul\n      0x20\n      add\n      mload(0x40)\n      swap1\n      dup2\n      add\n      0x40\n      mstore\n      dup1\n      swap3\n      swap2\n      swap1\n      dup2\n      dup2\n      mstore\n      0x20\n      add\n      dup3\n      dup1\n      sload\n      tag_198\n      swap1\n      tag_122\n      jump\t// in\n    tag_198:\n      dup1\n      iszero\n      tag_199\n      jumpi\n      dup1\n      0x1f\n      lt\n      tag_200\n      jumpi\n      0x0100\n      dup1\n      dup4\n      sload\n      div\n      mul\n      dup4\n      mstore\n      swap2\n      0x20\n      add\n      swap2\n      jump(tag_199)\n    tag_200:\n      dup3\n      add\n      swap2\n      swap1\n      0x00\n      mstore\n      keccak256(0x00, 0x20)\n      swap1\n    tag_201:\n      dup2\n      sload\n      dup2\n      mstore\n      swap1\n      0x01\n      add\n      swap1\n      0x20\n      add\n      dup1\n      dup4\n      gt\n      tag_201\n      jumpi\n      dup3\n      swap1\n      sub\n      0x1f\n      and\n      dup3\n      add\n      swap2\n    tag_199:\n      pop\n      pop\n      pop\n      pop\n      pop\n      dup2\n      mstore\n      pop\n        /* \"contracts/Pokemon.sol\":2762:2859  pokemons[msg.sender].push(... */\n      swap1\n      dup1\n      0x01\n      dup2\n      sload\n      add\n      dup1\n      dup3\n      sstore\n      dup1\n      swap2\n      pop\n      pop\n      0x01\n      swap1\n      sub\n      swap1\n      0x00\n      mstore\n      keccak256(0x00, 0x20)\n      swap1\n      0x02\n      mul\n      add\n      0x00\n      swap1\n      swap2\n      swap1\n      swap2\n      swap1\n      swap2\n      pop\n      0x00\n      dup3\n      add\n      mload\n      dup2\n      0x00\n      add\n      swap1\n      dup2\n      tag_203\n      swap2\n      swap1\n      tag_204\n      jump\t// in\n    tag_203:\n      pop\n      0x20\n      dup3\n      add\n      mload\n      dup2\n      0x01\n      add\n      swap1\n      dup2\n      tag_205\n      swap2\n      swap1\n      tag_204\n      jump\t// in\n    tag_205:\n      pop\n      pop\n      pop\n        /* \"contracts/Pokemon.sol\":2939:2950  bool isUser */\n      0x00\n        /* \"contracts/Pokemon.sol\":2973:2982  uint256 i */\n      dup1\n        /* \"contracts/Pokemon.sol\":2969:3145  for(uint256 i = 0; i < users.length; i++) {... */\n    tag_206:\n        /* \"contracts/Pokemon.sol\":2992:2997  users */\n      0x0b\n        /* \"contracts/Pokemon.sol\":2992:3004  users.length */\n      dup1\n      sload\n      swap1\n      pop\n        /* \"contracts/Pokemon.sol\":2988:2989  i */\n      dup2\n        /* \"contracts/Pokemon.sol\":2988:3004  i < users.length */\n      lt\n        /* \"contracts/Pokemon.sol\":2969:3145  for(uint256 i = 0; i < users.length; i++) {... */\n      iszero\n      tag_207\n      jumpi\n        /* \"contracts/Pokemon.sol\":3050:3060  msg.sender */\n      caller\n        /* \"contracts/Pokemon.sol\":3030:3060  users[i].account == msg.sender */\n      0xffffffffffffffffffffffffffffffffffffffff\n      and\n        /* \"contracts/Pokemon.sol\":3030:3035  users */\n      0x0b\n        /* \"contracts/Pokemon.sol\":3036:3037  i */\n      dup3\n        /* \"contracts/Pokemon.sol\":3030:3038  users[i] */\n      dup2\n      sload\n      dup2\n      lt\n      tag_209\n      jumpi\n      tag_210\n      tag_187\n      jump\t// in\n    tag_210:\n    tag_209:\n      swap1\n      0x00\n      mstore\n      keccak256(0x00, 0x20)\n      add\n        /* \"contracts/Pokemon.sol\":3030:3046  users[i].account */\n      0x00\n      add\n      0x00\n      swap1\n      sload\n      swap1\n      0x0100\n      exp\n      swap1\n      div\n      0xffffffffffffffffffffffffffffffffffffffff\n      and\n        /* \"contracts/Pokemon.sol\":3030:3060  users[i].account == msg.sender */\n      0xffffffffffffffffffffffffffffffffffffffff\n      and\n      sub\n        /* \"contracts/Pokemon.sol\":3026:3134  if (users[i].account == msg.sender) {... */\n      tag_212\n      jumpi\n        /* \"contracts/Pokemon.sol\":3090:3094  true */\n      0x01\n        /* \"contracts/Pokemon.sol\":3081:3094  isUser = true */\n      swap2\n      pop\n        /* \"contracts/Pokemon.sol\":3113:3118  break */\n      jump(tag_207)\n        /* \"contracts/Pokemon.sol\":3026:3134  if (users[i].account == msg.sender) {... */\n    tag_212:\n        /* \"contracts/Pokemon.sol\":3006:3009  i++ */\n      dup1\n      dup1\n      tag_213\n      swap1\n      tag_214\n      jump\t// in\n    tag_213:\n      swap2\n      pop\n      pop\n        /* \"contracts/Pokemon.sol\":2969:3145  for(uint256 i = 0; i < users.length; i++) {... */\n      jump(tag_206)\n    tag_207:\n      pop\n        /* \"contracts/Pokemon.sol\":3162:3168  isUser */\n      dup1\n        /* \"contracts/Pokemon.sol\":3157:3226  if (!isUser) {... */\n      tag_215\n      jumpi\n        /* \"contracts/Pokemon.sol\":3185:3190  users */\n      0x0b\n        /* \"contracts/Pokemon.sol\":3196:3213  Users(msg.sender) */\n      mload(0x40)\n      dup1\n      0x20\n      add\n      0x40\n      mstore\n      dup1\n        /* \"contracts/Pokemon.sol\":3202:3212  msg.sender */\n      caller\n        /* \"contracts/Pokemon.sol\":3196:3213  Users(msg.sender) */\n      0xffffffffffffffffffffffffffffffffffffffff\n      and\n      dup2\n      mstore\n      pop\n        /* \"contracts/Pokemon.sol\":3185:3214  users.push(Users(msg.sender)) */\n      swap1\n      dup1\n      0x01\n      dup2\n      sload\n      add\n      dup1\n      dup3\n      sstore\n      dup1\n      swap2\n      pop\n      pop\n      0x01\n      swap1\n      sub\n      swap1\n      0x00\n      mstore\n      keccak256(0x00, 0x20)\n      add\n      0x00\n      swap1\n      swap2\n      swap1\n      swap2\n      swap1\n      swap2\n      pop\n      0x00\n      dup3\n      add\n      mload\n      dup2\n      0x00\n      add\n      exp(0x0100, 0x00)\n      dup2\n      sload\n      dup2\n      0xffffffffffffffffffffffffffffffffffffffff\n      mul\n      not\n      and\n      swap1\n      dup4\n      0xffffffffffffffffffffffffffffffffffffffff\n      and\n      mul\n      or\n      swap1\n      sstore\n      pop\n      pop\n      pop\n        /* \"contracts/Pokemon.sol\":3157:3226  if (!isUser) {... */\n    tag_215:\n        /* \"contracts/Pokemon.sol\":2303:3233  {... */\n      pop\n      pop\n        /* \"contracts/Pokemon.sol\":2274:3233  function buyPokemon() public {... */\n      jump\t// out\n        /* \"contracts/ERC20.sol\":547:617  mapping(address => mapping(address => uint)) public override allowance */\n    tag_116:\n      mstore(0x20, 0x06)\n      dup2\n      0x00\n      mstore\n      mstore(0x20, keccak256(0x00, 0x40))\n      dup1\n      0x00\n      mstore\n      keccak256(0x00, 0x40)\n      0x00\n      swap2\n      pop\n      swap2\n      pop\n      pop\n      sload\n      dup2\n      jump\t// out\n        /* \"#utility.yul\":7:84   */\n    tag_217:\n        /* \"#utility.yul\":44:51   */\n      0x00\n        /* \"#utility.yul\":73:78   */\n      dup2\n        /* \"#utility.yul\":62:78   */\n      swap1\n      pop\n        /* \"#utility.yul\":7:84   */\n      swap2\n      swap1\n      pop\n      jump\t// out\n        /* \"#utility.yul\":90:270   */\n    tag_218:\n        /* \"#utility.yul\":138:215   */\n      0x4e487b7100000000000000000000000000000000000000000000000000000000\n        /* \"#utility.yul\":135:136   */\n      0x00\n        /* \"#utility.yul\":128:216   */\n      mstore\n        /* \"#utility.yul\":235:239   */\n      0x11\n        /* \"#utility.yul\":232:233   */\n      0x04\n        /* \"#utility.yul\":225:240   */\n      mstore\n        /* \"#utility.yul\":259:263   */\n      0x24\n        /* \"#utility.yul\":256:257   */\n      0x00\n        /* \"#utility.yul\":249:264   */\n      revert\n        /* \"#utility.yul\":276:686   */\n    tag_25:\n        /* \"#utility.yul\":316:323   */\n      0x00\n        /* \"#utility.yul\":339:359   */\n      tag_285\n        /* \"#utility.yul\":357:358   */\n      dup3\n        /* \"#utility.yul\":339:359   */\n      tag_217\n      jump\t// in\n    tag_285:\n        /* \"#utility.yul\":334:359   */\n      swap2\n      pop\n        /* \"#utility.yul\":373:393   */\n      tag_286\n        /* \"#utility.yul\":391:392   */\n      dup4\n        /* \"#utility.yul\":373:393   */\n      tag_217\n      jump\t// in\n    tag_286:\n        /* \"#utility.yul\":368:393   */\n      swap3\n      pop\n        /* \"#utility.yul\":428:429   */\n      dup3\n        /* \"#utility.yul\":425:426   */\n      dup3\n        /* \"#utility.yul\":421:430   */\n      mul\n        /* \"#utility.yul\":450:480   */\n      tag_287\n        /* \"#utility.yul\":468:479   */\n      dup2\n        /* \"#utility.yul\":450:480   */\n      tag_217\n      jump\t// in\n    tag_287:\n        /* \"#utility.yul\":439:480   */\n      swap2\n      pop\n        /* \"#utility.yul\":629:630   */\n      dup3\n        /* \"#utility.yul\":620:627   */\n      dup3\n        /* \"#utility.yul\":616:631   */\n      div\n        /* \"#utility.yul\":613:614   */\n      dup5\n        /* \"#utility.yul\":610:632   */\n      eq\n        /* \"#utility.yul\":590:591   */\n      dup4\n        /* \"#utility.yul\":583:592   */\n      iszero\n        /* \"#utility.yul\":563:646   */\n      or\n        /* \"#utility.yul\":540:679   */\n      tag_288\n      jumpi\n        /* \"#utility.yul\":659:677   */\n      tag_289\n      tag_218\n      jump\t// in\n    tag_289:\n        /* \"#utility.yul\":540:679   */\n    tag_288:\n        /* \"#utility.yul\":324:686   */\n      pop\n        /* \"#utility.yul\":276:686   */\n      swap3\n      swap2\n      pop\n      pop\n      jump\t// out\n        /* \"#utility.yul\":692:886   */\n    tag_28:\n        /* \"#utility.yul\":732:736   */\n      0x00\n        /* \"#utility.yul\":752:772   */\n      tag_291\n        /* \"#utility.yul\":770:771   */\n      dup3\n        /* \"#utility.yul\":752:772   */\n      tag_217\n      jump\t// in\n    tag_291:\n        /* \"#utility.yul\":747:772   */\n      swap2\n      pop\n        /* \"#utility.yul\":786:806   */\n      tag_292\n        /* \"#utility.yul\":804:805   */\n      dup4\n        /* \"#utility.yul\":786:806   */\n      tag_217\n      jump\t// in\n    tag_292:\n        /* \"#utility.yul\":781:806   */\n      swap3\n      pop\n        /* \"#utility.yul\":830:831   */\n      dup3\n        /* \"#utility.yul\":827:828   */\n      dup3\n        /* \"#utility.yul\":823:832   */\n      sub\n        /* \"#utility.yul\":815:832   */\n      swap1\n      pop\n        /* \"#utility.yul\":854:855   */\n      dup2\n        /* \"#utility.yul\":848:852   */\n      dup2\n        /* \"#utility.yul\":845:856   */\n      gt\n        /* \"#utility.yul\":842:879   */\n      iszero\n      tag_293\n      jumpi\n        /* \"#utility.yul\":859:877   */\n      tag_294\n      tag_218\n      jump\t// in\n    tag_294:\n        /* \"#utility.yul\":842:879   */\n    tag_293:\n        /* \"#utility.yul\":692:886   */\n      swap3\n      swap2\n      pop\n      pop\n      jump\t// out\n        /* \"#utility.yul\":892:1083   */\n    tag_30:\n        /* \"#utility.yul\":932:935   */\n      0x00\n        /* \"#utility.yul\":951:971   */\n      tag_296\n        /* \"#utility.yul\":969:970   */\n      dup3\n        /* \"#utility.yul\":951:971   */\n      tag_217\n      jump\t// in\n    tag_296:\n        /* \"#utility.yul\":946:971   */\n      swap2\n      pop\n        /* \"#utility.yul\":985:1005   */\n      tag_297\n        /* \"#utility.yul\":1003:1004   */\n      dup4\n        /* \"#utility.yul\":985:1005   */\n      tag_217\n      jump\t// in\n    tag_297:\n        /* \"#utility.yul\":980:1005   */\n      swap3\n      pop\n        /* \"#utility.yul\":1028:1029   */\n      dup3\n        /* \"#utility.yul\":1025:1026   */\n      dup3\n        /* \"#utility.yul\":1021:1030   */\n      add\n        /* \"#utility.yul\":1014:1030   */\n      swap1\n      pop\n        /* \"#utility.yul\":1049:1052   */\n      dup1\n        /* \"#utility.yul\":1046:1047   */\n      dup3\n        /* \"#utility.yul\":1043:1053   */\n      gt\n        /* \"#utility.yul\":1040:1076   */\n      iszero\n      tag_298\n      jumpi\n        /* \"#utility.yul\":1056:1074   */\n      tag_299\n      tag_218\n      jump\t// in\n    tag_299:\n        /* \"#utility.yul\":1040:1076   */\n    tag_298:\n        /* \"#utility.yul\":892:1083   */\n      swap3\n      swap2\n      pop\n      pop\n      jump\t// out\n        /* \"#utility.yul\":1089:1188   */\n    tag_219:\n        /* \"#utility.yul\":1141:1147   */\n      0x00\n        /* \"#utility.yul\":1175:1180   */\n      dup2\n        /* \"#utility.yul\":1169:1181   */\n      mload\n        /* \"#utility.yul\":1159:1181   */\n      swap1\n      pop\n        /* \"#utility.yul\":1089:1188   */\n      swap2\n      swap1\n      pop\n      jump\t// out\n        /* \"#utility.yul\":1194:1363   */\n    tag_220:\n        /* \"#utility.yul\":1278:1289   */\n      0x00\n        /* \"#utility.yul\":1312:1318   */\n      dup3\n        /* \"#utility.yul\":1307:1310   */\n      dup3\n        /* \"#utility.yul\":1300:1319   */\n      mstore\n        /* \"#utility.yul\":1352:1356   */\n      0x20\n        /* \"#utility.yul\":1347:1350   */\n      dup3\n        /* \"#utility.yul\":1343:1357   */\n      add\n        /* \"#utility.yul\":1328:1357   */\n      swap1\n      pop\n        /* \"#utility.yul\":1194:1363   */\n      swap3\n      swap2\n      pop\n      pop\n      jump\t// out\n        /* \"#utility.yul\":1369:1615   */\n    tag_221:\n        /* \"#utility.yul\":1450:1451   */\n      0x00\n        /* \"#utility.yul\":1460:1573   */\n    tag_303:\n        /* \"#utility.yul\":1474:1480   */\n      dup4\n        /* \"#utility.yul\":1471:1472   */\n      dup2\n        /* \"#utility.yul\":1468:1481   */\n      lt\n        /* \"#utility.yul\":1460:1573   */\n      iszero\n      tag_305\n      jumpi\n        /* \"#utility.yul\":1559:1560   */\n      dup1\n        /* \"#utility.yul\":1554:1557   */\n      dup3\n        /* \"#utility.yul\":1550:1561   */\n      add\n        /* \"#utility.yul\":1544:1562   */\n      mload\n        /* \"#utility.yul\":1540:1541   */\n      dup2\n        /* \"#utility.yul\":1535:1538   */\n      dup5\n        /* \"#utility.yul\":1531:1542   */\n      add\n        /* \"#utility.yul\":1524:1563   */\n      mstore\n        /* \"#utility.yul\":1496:1498   */\n      0x20\n        /* \"#utility.yul\":1493:1494   */\n      dup2\n        /* \"#utility.yul\":1489:1499   */\n      add\n        /* \"#utility.yul\":1484:1499   */\n      swap1\n      pop\n        /* \"#utility.yul\":1460:1573   */\n      jump(tag_303)\n    tag_305:\n        /* \"#utility.yul\":1607:1608   */\n      0x00\n        /* \"#utility.yul\":1598:1604   */\n      dup5\n        /* \"#utility.yul\":1593:1596   */\n      dup5\n        /* \"#utility.yul\":1589:1605   */\n      add\n        /* \"#utility.yul\":1582:1609   */\n      mstore\n        /* \"#utility.yul\":1431:1615   */\n      pop\n        /* \"#utility.yul\":1369:1615   */\n      pop\n      pop\n      pop\n      jump\t// out\n        /* \"#utility.yul\":1621:1723   */\n    tag_222:\n        /* \"#utility.yul\":1662:1668   */\n      0x00\n        /* \"#utility.yul\":1713:1715   */\n      0x1f\n        /* \"#utility.yul\":1709:1716   */\n      not\n        /* \"#utility.yul\":1704:1706   */\n      0x1f\n        /* \"#utility.yul\":1697:1702   */\n      dup4\n        /* \"#utility.yul\":1693:1707   */\n      add\n        /* \"#utility.yul\":1689:1717   */\n      and\n        /* \"#utility.yul\":1679:1717   */\n      swap1\n      pop\n        /* \"#utility.yul\":1621:1723   */\n      swap2\n      swap1\n      pop\n      jump\t// out\n        /* \"#utility.yul\":1729:2106   */\n    tag_223:\n        /* \"#utility.yul\":1817:1820   */\n      0x00\n        /* \"#utility.yul\":1845:1884   */\n      tag_308\n        /* \"#utility.yul\":1878:1883   */\n      dup3\n        /* \"#utility.yul\":1845:1884   */\n      tag_219\n      jump\t// in\n    tag_308:\n        /* \"#utility.yul\":1900:1971   */\n      tag_309\n        /* \"#utility.yul\":1964:1970   */\n      dup2\n        /* \"#utility.yul\":1959:1962   */\n      dup6\n        /* \"#utility.yul\":1900:1971   */\n      tag_220\n      jump\t// in\n    tag_309:\n        /* \"#utility.yul\":1893:1971   */\n      swap4\n      pop\n        /* \"#utility.yul\":1980:2045   */\n      tag_310\n        /* \"#utility.yul\":2038:2044   */\n      dup2\n        /* \"#utility.yul\":2033:2036   */\n      dup6\n        /* \"#utility.yul\":2026:2030   */\n      0x20\n        /* \"#utility.yul\":2019:2024   */\n      dup7\n        /* \"#utility.yul\":2015:2031   */\n      add\n        /* \"#utility.yul\":1980:2045   */\n      tag_221\n      jump\t// in\n    tag_310:\n        /* \"#utility.yul\":2070:2099   */\n      tag_311\n        /* \"#utility.yul\":2092:2098   */\n      dup2\n        /* \"#utility.yul\":2070:2099   */\n      tag_222\n      jump\t// in\n    tag_311:\n        /* \"#utility.yul\":2065:2068   */\n      dup5\n        /* \"#utility.yul\":2061:2100   */\n      add\n        /* \"#utility.yul\":2054:2100   */\n      swap2\n      pop\n        /* \"#utility.yul\":1821:2106   */\n      pop\n        /* \"#utility.yul\":1729:2106   */\n      swap3\n      swap2\n      pop\n      pop\n      jump\t// out\n        /* \"#utility.yul\":2112:2425   */\n    tag_38:\n        /* \"#utility.yul\":2225:2229   */\n      0x00\n        /* \"#utility.yul\":2263:2265   */\n      0x20\n        /* \"#utility.yul\":2252:2261   */\n      dup3\n        /* \"#utility.yul\":2248:2266   */\n      add\n        /* \"#utility.yul\":2240:2266   */\n      swap1\n      pop\n        /* \"#utility.yul\":2312:2321   */\n      dup2\n        /* \"#utility.yul\":2306:2310   */\n      dup2\n        /* \"#utility.yul\":2302:2322   */\n      sub\n        /* \"#utility.yul\":2298:2299   */\n      0x00\n        /* \"#utility.yul\":2287:2296   */\n      dup4\n        /* \"#utility.yul\":2283:2300   */\n      add\n        /* \"#utility.yul\":2276:2323   */\n      mstore\n        /* \"#utility.yul\":2340:2418   */\n      tag_313\n        /* \"#utility.yul\":2413:2417   */\n      dup2\n        /* \"#utility.yul\":2404:2410   */\n      dup5\n        /* \"#utility.yul\":2340:2418   */\n      tag_223\n      jump\t// in\n    tag_313:\n        /* \"#utility.yul\":2332:2418   */\n      swap1\n      pop\n        /* \"#utility.yul\":2112:2425   */\n      swap3\n      swap2\n      pop\n      pop\n      jump\t// out\n        /* \"#utility.yul\":2512:2629   */\n    tag_225:\n        /* \"#utility.yul\":2621:2622   */\n      0x00\n        /* \"#utility.yul\":2618:2619   */\n      dup1\n        /* \"#utility.yul\":2611:2623   */\n      revert\n        /* \"#utility.yul\":2758:2884   */\n    tag_227:\n        /* \"#utility.yul\":2795:2802   */\n      0x00\n        /* \"#utility.yul\":2835:2877   */\n      0xffffffffffffffffffffffffffffffffffffffff\n        /* \"#utility.yul\":2828:2833   */\n      dup3\n        /* \"#utility.yul\":2824:2878   */\n      and\n        /* \"#utility.yul\":2813:2878   */\n      swap1\n      pop\n        /* \"#utility.yul\":2758:2884   */\n      swap2\n      swap1\n      pop\n      jump\t// out\n        /* \"#utility.yul\":2890:2986   */\n    tag_228:\n        /* \"#utility.yul\":2927:2934   */\n      0x00\n        /* \"#utility.yul\":2956:2980   */\n      tag_319\n        /* \"#utility.yul\":2974:2979   */\n      dup3\n        /* \"#utility.yul\":2956:2980   */\n      tag_227\n      jump\t// in\n    tag_319:\n        /* \"#utility.yul\":2945:2980   */\n      swap1\n      pop\n        /* \"#utility.yul\":2890:2986   */\n      swap2\n      swap1\n      pop\n      jump\t// out\n        /* \"#utility.yul\":2992:3114   */\n    tag_229:\n        /* \"#utility.yul\":3065:3089   */\n      tag_321\n        /* \"#utility.yul\":3083:3088   */\n      dup2\n        /* \"#utility.yul\":3065:3089   */\n      tag_228\n      jump\t// in\n    tag_321:\n        /* \"#utility.yul\":3058:3063   */\n      dup2\n        /* \"#utility.yul\":3055:3090   */\n      eq\n        /* \"#utility.yul\":3045:3108   */\n      tag_322\n      jumpi\n        /* \"#utility.yul\":3104:3105   */\n      0x00\n        /* \"#utility.yul\":3101:3102   */\n      dup1\n        /* \"#utility.yul\":3094:3106   */\n      revert\n        /* \"#utility.yul\":3045:3108   */\n    tag_322:\n        /* \"#utility.yul\":2992:3114   */\n      pop\n      jump\t// out\n        /* \"#utility.yul\":3120:3259   */\n    tag_230:\n        /* \"#utility.yul\":3166:3171   */\n      0x00\n        /* \"#utility.yul\":3204:3210   */\n      dup2\n        /* \"#utility.yul\":3191:3211   */\n      calldataload\n        /* \"#utility.yul\":3182:3211   */\n      swap1\n      pop\n        /* \"#utility.yul\":3220:3253   */\n      tag_324\n        /* \"#utility.yul\":3247:3252   */\n      dup2\n        /* \"#utility.yul\":3220:3253   */\n      tag_229\n      jump\t// in\n    tag_324:\n        /* \"#utility.yul\":3120:3259   */\n      swap3\n      swap2\n      pop\n      pop\n      jump\t// out\n        /* \"#utility.yul\":3265:3387   */\n    tag_231:\n        /* \"#utility.yul\":3338:3362   */\n      tag_326\n        /* \"#utility.yul\":3356:3361   */\n      dup2\n        /* \"#utility.yul\":3338:3362   */\n      tag_217\n      jump\t// in\n    tag_326:\n        /* \"#utility.yul\":3331:3336   */\n      dup2\n        /* \"#utility.yul\":3328:3363   */\n      eq\n        /* \"#utility.yul\":3318:3381   */\n      tag_327\n      jumpi\n        /* \"#utility.yul\":3377:3378   */\n      0x00\n        /* \"#utility.yul\":3374:3375   */\n      dup1\n        /* \"#utility.yul\":3367:3379   */\n      revert\n        /* \"#utility.yul\":3318:3381   */\n    tag_327:\n        /* \"#utility.yul\":3265:3387   */\n      pop\n      jump\t// out\n        /* \"#utility.yul\":3393:3532   */\n    tag_232:\n        /* \"#utility.yul\":3439:3444   */\n      0x00\n        /* \"#utility.yul\":3477:3483   */\n      dup2\n        /* \"#utility.yul\":3464:3484   */\n      calldataload\n        /* \"#utility.yul\":3455:3484   */\n      swap1\n      pop\n        /* \"#utility.yul\":3493:3526   */\n      tag_329\n        /* \"#utility.yul\":3520:3525   */\n      dup2\n        /* \"#utility.yul\":3493:3526   */\n      tag_231\n      jump\t// in\n    tag_329:\n        /* \"#utility.yul\":3393:3532   */\n      swap3\n      swap2\n      pop\n      pop\n      jump\t// out\n        /* \"#utility.yul\":3538:4012   */\n    tag_42:\n        /* \"#utility.yul\":3606:3612   */\n      0x00\n        /* \"#utility.yul\":3614:3620   */\n      dup1\n        /* \"#utility.yul\":3663:3665   */\n      0x40\n        /* \"#utility.yul\":3651:3660   */\n      dup4\n        /* \"#utility.yul\":3642:3649   */\n      dup6\n        /* \"#utility.yul\":3638:3661   */\n      sub\n        /* \"#utility.yul\":3634:3666   */\n      slt\n        /* \"#utility.yul\":3631:3750   */\n      iszero\n      tag_331\n      jumpi\n        /* \"#utility.yul\":3669:3748   */\n      tag_332\n      tag_225\n      jump\t// in\n    tag_332:\n        /* \"#utility.yul\":3631:3750   */\n    tag_331:\n        /* \"#utility.yul\":3789:3790   */\n      0x00\n        /* \"#utility.yul\":3814:3867   */\n      tag_333\n        /* \"#utility.yul\":3859:3866   */\n      dup6\n        /* \"#utility.yul\":3850:3856   */\n      dup3\n        /* \"#utility.yul\":3839:3848   */\n      dup7\n        /* \"#utility.yul\":3835:3857   */\n      add\n        /* \"#utility.yul\":3814:3867   */\n      tag_230\n      jump\t// in\n    tag_333:\n        /* \"#utility.yul\":3804:3867   */\n      swap3\n      pop\n        /* \"#utility.yul\":3760:3877   */\n      pop\n        /* \"#utility.yul\":3916:3918   */\n      0x20\n        /* \"#utility.yul\":3942:3995   */\n      tag_334\n        /* \"#utility.yul\":3987:3994   */\n      dup6\n        /* \"#utility.yul\":3978:3984   */\n      dup3\n        /* \"#utility.yul\":3967:3976   */\n      dup7\n        /* \"#utility.yul\":3963:3985   */\n      add\n        /* \"#utility.yul\":3942:3995   */\n      tag_232\n      jump\t// in\n    tag_334:\n        /* \"#utility.yul\":3932:3995   */\n      swap2\n      pop\n        /* \"#utility.yul\":3887:4005   */\n      pop\n        /* \"#utility.yul\":3538:4012   */\n      swap3\n      pop\n      swap3\n      swap1\n      pop\n      jump\t// out\n        /* \"#utility.yul\":4018:4108   */\n    tag_233:\n        /* \"#utility.yul\":4052:4059   */\n      0x00\n        /* \"#utility.yul\":4095:4100   */\n      dup2\n        /* \"#utility.yul\":4088:4101   */\n      iszero\n        /* \"#utility.yul\":4081:4102   */\n      iszero\n        /* \"#utility.yul\":4070:4102   */\n      swap1\n      pop\n        /* \"#utility.yul\":4018:4108   */\n      swap2\n      swap1\n      pop\n      jump\t// out\n        /* \"#utility.yul\":4114:4223   */\n    tag_234:\n        /* \"#utility.yul\":4195:4216   */\n      tag_337\n        /* \"#utility.yul\":4210:4215   */\n      dup2\n        /* \"#utility.yul\":4195:4216   */\n      tag_233\n      jump\t// in\n    tag_337:\n        /* \"#utility.yul\":4190:4193   */\n      dup3\n        /* \"#utility.yul\":4183:4217   */\n      mstore\n        /* \"#utility.yul\":4114:4223   */\n      pop\n      pop\n      jump\t// out\n        /* \"#utility.yul\":4229:4439   */\n    tag_45:\n        /* \"#utility.yul\":4316:4320   */\n      0x00\n        /* \"#utility.yul\":4354:4356   */\n      0x20\n        /* \"#utility.yul\":4343:4352   */\n      dup3\n        /* \"#utility.yul\":4339:4357   */\n      add\n        /* \"#utility.yul\":4331:4357   */\n      swap1\n      pop\n        /* \"#utility.yul\":4367:4432   */\n      tag_339\n        /* \"#utility.yul\":4429:4430   */\n      0x00\n        /* \"#utility.yul\":4418:4427   */\n      dup4\n        /* \"#utility.yul\":4414:4431   */\n      add\n        /* \"#utility.yul\":4405:4411   */\n      dup5\n        /* \"#utility.yul\":4367:4432   */\n      tag_234\n      jump\t// in\n    tag_339:\n        /* \"#utility.yul\":4229:4439   */\n      swap3\n      swap2\n      pop\n      pop\n      jump\t// out\n        /* \"#utility.yul\":4445:4563   */\n    tag_235:\n        /* \"#utility.yul\":4532:4556   */\n      tag_341\n        /* \"#utility.yul\":4550:4555   */\n      dup2\n        /* \"#utility.yul\":4532:4556   */\n      tag_217\n      jump\t// in\n    tag_341:\n        /* \"#utility.yul\":4527:4530   */\n      dup3\n        /* \"#utility.yul\":4520:4557   */\n      mstore\n        /* \"#utility.yul\":4445:4563   */\n      pop\n      pop\n      jump\t// out\n        /* \"#utility.yul\":4569:4791   */\n    tag_50:\n        /* \"#utility.yul\":4662:4666   */\n      0x00\n        /* \"#utility.yul\":4700:4702   */\n      0x20\n        /* \"#utility.yul\":4689:4698   */\n      dup3\n        /* \"#utility.yul\":4685:4703   */\n      add\n        /* \"#utility.yul\":4677:4703   */\n      swap1\n      pop\n        /* \"#utility.yul\":4713:4784   */\n      tag_343\n        /* \"#utility.yul\":4781:4782   */\n      0x00\n        /* \"#utility.yul\":4770:4779   */\n      dup4\n        /* \"#utility.yul\":4766:4783   */\n      add\n        /* \"#utility.yul\":4757:4763   */\n      dup5\n        /* \"#utility.yul\":4713:4784   */\n      tag_235\n      jump\t// in\n    tag_343:\n        /* \"#utility.yul\":4569:4791   */\n      swap3\n      swap2\n      pop\n      pop\n      jump\t// out\n        /* \"#utility.yul\":4797:5416   */\n    tag_54:\n        /* \"#utility.yul\":4874:4880   */\n      0x00\n        /* \"#utility.yul\":4882:4888   */\n      dup1\n        /* \"#utility.yul\":4890:4896   */\n      0x00\n        /* \"#utility.yul\":4939:4941   */\n      0x60\n        /* \"#utility.yul\":4927:4936   */\n      dup5\n        /* \"#utility.yul\":4918:4925   */\n      dup7\n        /* \"#utility.yul\":4914:4937   */\n      sub\n        /* \"#utility.yul\":4910:4942   */\n      slt\n        /* \"#utility.yul\":4907:5026   */\n      iszero\n      tag_345\n      jumpi\n        /* \"#utility.yul\":4945:5024   */\n      tag_346\n      tag_225\n      jump\t// in\n    tag_346:\n        /* \"#utility.yul\":4907:5026   */\n    tag_345:\n        /* \"#utility.yul\":5065:5066   */\n      0x00\n        /* \"#utility.yul\":5090:5143   */\n      tag_347\n        /* \"#utility.yul\":5135:5142   */\n      dup7\n        /* \"#utility.yul\":5126:5132   */\n      dup3\n        /* \"#utility.yul\":5115:5124   */\n      dup8\n        /* \"#utility.yul\":5111:5133   */\n      add\n        /* \"#utility.yul\":5090:5143   */\n      tag_230\n      jump\t// in\n    tag_347:\n        /* \"#utility.yul\":5080:5143   */\n      swap4\n      pop\n        /* \"#utility.yul\":5036:5153   */\n      pop\n        /* \"#utility.yul\":5192:5194   */\n      0x20\n        /* \"#utility.yul\":5218:5271   */\n      tag_348\n        /* \"#utility.yul\":5263:5270   */\n      dup7\n        /* \"#utility.yul\":5254:5260   */\n      dup3\n        /* \"#utility.yul\":5243:5252   */\n      dup8\n        /* \"#utility.yul\":5239:5261   */\n      add\n        /* \"#utility.yul\":5218:5271   */\n      tag_230\n      jump\t// in\n    tag_348:\n        /* \"#utility.yul\":5208:5271   */\n      swap3\n      pop\n        /* \"#utility.yul\":5163:5281   */\n      pop\n        /* \"#utility.yul\":5320:5322   */\n      0x40\n        /* \"#utility.yul\":5346:5399   */\n      tag_349\n        /* \"#utility.yul\":5391:5398   */\n      dup7\n        /* \"#utility.yul\":5382:5388   */\n      dup3\n        /* \"#utility.yul\":5371:5380   */\n      dup8\n        /* \"#utility.yul\":5367:5389   */\n      add\n        /* \"#utility.yul\":5346:5399   */\n      tag_232\n      jump\t// in\n    tag_349:\n        /* \"#utility.yul\":5336:5399   */\n      swap2\n      pop\n        /* \"#utility.yul\":5291:5409   */\n      pop\n        /* \"#utility.yul\":4797:5416   */\n      swap3\n      pop\n      swap3\n      pop\n      swap3\n      jump\t// out\n        /* \"#utility.yul\":5422:5751   */\n    tag_60:\n        /* \"#utility.yul\":5481:5487   */\n      0x00\n        /* \"#utility.yul\":5530:5532   */\n      0x20\n        /* \"#utility.yul\":5518:5527   */\n      dup3\n        /* \"#utility.yul\":5509:5516   */\n      dup5\n        /* \"#utility.yul\":5505:5528   */\n      sub\n        /* \"#utility.yul\":5501:5533   */\n      slt\n        /* \"#utility.yul\":5498:5617   */\n      iszero\n      tag_351\n      jumpi\n        /* \"#utility.yul\":5536:5615   */\n      tag_352\n      tag_225\n      jump\t// in\n    tag_352:\n        /* \"#utility.yul\":5498:5617   */\n    tag_351:\n        /* \"#utility.yul\":5656:5657   */\n      0x00\n        /* \"#utility.yul\":5681:5734   */\n      tag_353\n        /* \"#utility.yul\":5726:5733   */\n      dup5\n        /* \"#utility.yul\":5717:5723   */\n      dup3\n        /* \"#utility.yul\":5706:5715   */\n      dup6\n        /* \"#utility.yul\":5702:5724   */\n      add\n        /* \"#utility.yul\":5681:5734   */\n      tag_230\n      jump\t// in\n    tag_353:\n        /* \"#utility.yul\":5671:5734   */\n      swap2\n      pop\n        /* \"#utility.yul\":5627:5744   */\n      pop\n        /* \"#utility.yul\":5422:5751   */\n      swap3\n      swap2\n      pop\n      pop\n      jump\t// out\n        /* \"#utility.yul\":5757:5843   */\n    tag_236:\n        /* \"#utility.yul\":5792:5799   */\n      0x00\n        /* \"#utility.yul\":5832:5836   */\n      0xff\n        /* \"#utility.yul\":5825:5830   */\n      dup3\n        /* \"#utility.yul\":5821:5837   */\n      and\n        /* \"#utility.yul\":5810:5837   */\n      swap1\n      pop\n        /* \"#utility.yul\":5757:5843   */\n      swap2\n      swap1\n      pop\n      jump\t// out\n        /* \"#utility.yul\":5849:5961   */\n    tag_237:\n        /* \"#utility.yul\":5932:5954   */\n      tag_356\n        /* \"#utility.yul\":5948:5953   */\n      dup2\n        /* \"#utility.yul\":5932:5954   */\n      tag_236\n      jump\t// in\n    tag_356:\n        /* \"#utility.yul\":5927:5930   */\n      dup3\n        /* \"#utility.yul\":5920:5955   */\n      mstore\n        /* \"#utility.yul\":5849:5961   */\n      pop\n      pop\n      jump\t// out\n        /* \"#utility.yul\":5967:6181   */\n    tag_67:\n        /* \"#utility.yul\":6056:6060   */\n      0x00\n        /* \"#utility.yul\":6094:6096   */\n      0x20\n        /* \"#utility.yul\":6083:6092   */\n      dup3\n        /* \"#utility.yul\":6079:6097   */\n      add\n        /* \"#utility.yul\":6071:6097   */\n      swap1\n      pop\n        /* \"#utility.yul\":6107:6174   */\n      tag_358\n        /* \"#utility.yul\":6171:6172   */\n      0x00\n        /* \"#utility.yul\":6160:6169   */\n      dup4\n        /* \"#utility.yul\":6156:6173   */\n      add\n        /* \"#utility.yul\":6147:6153   */\n      dup5\n        /* \"#utility.yul\":6107:6174   */\n      tag_237\n      jump\t// in\n    tag_358:\n        /* \"#utility.yul\":5967:6181   */\n      swap3\n      swap2\n      pop\n      pop\n      jump\t// out\n        /* \"#utility.yul\":6187:6516   */\n    tag_71:\n        /* \"#utility.yul\":6246:6252   */\n      0x00\n        /* \"#utility.yul\":6295:6297   */\n      0x20\n        /* \"#utility.yul\":6283:6292   */\n      dup3\n        /* \"#utility.yul\":6274:6281   */\n      dup5\n        /* \"#utility.yul\":6270:6293   */\n      sub\n        /* \"#utility.yul\":6266:6298   */\n      slt\n        /* \"#utility.yul\":6263:6382   */\n      iszero\n      tag_360\n      jumpi\n        /* \"#utility.yul\":6301:6380   */\n      tag_361\n      tag_225\n      jump\t// in\n    tag_361:\n        /* \"#utility.yul\":6263:6382   */\n    tag_360:\n        /* \"#utility.yul\":6421:6422   */\n      0x00\n        /* \"#utility.yul\":6446:6499   */\n      tag_362\n        /* \"#utility.yul\":6491:6498   */\n      dup5\n        /* \"#utility.yul\":6482:6488   */\n      dup3\n        /* \"#utility.yul\":6471:6480   */\n      dup6\n        /* \"#utility.yul\":6467:6489   */\n      add\n        /* \"#utility.yul\":6446:6499   */\n      tag_232\n      jump\t// in\n    tag_362:\n        /* \"#utility.yul\":6436:6499   */\n      swap2\n      pop\n        /* \"#utility.yul\":6392:6509   */\n      pop\n        /* \"#utility.yul\":6187:6516   */\n      swap3\n      swap2\n      pop\n      pop\n      jump\t// out\n        /* \"#utility.yul\":6522:6640   */\n    tag_238:\n        /* \"#utility.yul\":6609:6633   */\n      tag_364\n        /* \"#utility.yul\":6627:6632   */\n      dup2\n        /* \"#utility.yul\":6609:6633   */\n      tag_228\n      jump\t// in\n    tag_364:\n        /* \"#utility.yul\":6604:6607   */\n      dup3\n        /* \"#utility.yul\":6597:6634   */\n      mstore\n        /* \"#utility.yul\":6522:6640   */\n      pop\n      pop\n      jump\t// out\n        /* \"#utility.yul\":6646:6868   */\n    tag_74:\n        /* \"#utility.yul\":6739:6743   */\n      0x00\n        /* \"#utility.yul\":6777:6779   */\n      0x20\n        /* \"#utility.yul\":6766:6775   */\n      dup3\n        /* \"#utility.yul\":6762:6780   */\n      add\n        /* \"#utility.yul\":6754:6780   */\n      swap1\n      pop\n        /* \"#utility.yul\":6790:6861   */\n      tag_366\n        /* \"#utility.yul\":6858:6859   */\n      0x00\n        /* \"#utility.yul\":6847:6856   */\n      dup4\n        /* \"#utility.yul\":6843:6860   */\n      add\n        /* \"#utility.yul\":6834:6840   */\n      dup5\n        /* \"#utility.yul\":6790:6861   */\n      tag_238\n      jump\t// in\n    tag_366:\n        /* \"#utility.yul\":6646:6868   */\n      swap3\n      swap2\n      pop\n      pop\n      jump\t// out\n        /* \"#utility.yul\":6874:7388   */\n    tag_80:\n        /* \"#utility.yul\":7035:7039   */\n      0x00\n        /* \"#utility.yul\":7073:7075   */\n      0x40\n        /* \"#utility.yul\":7062:7071   */\n      dup3\n        /* \"#utility.yul\":7058:7076   */\n      add\n        /* \"#utility.yul\":7050:7076   */\n      swap1\n      pop\n        /* \"#utility.yul\":7122:7131   */\n      dup2\n        /* \"#utility.yul\":7116:7120   */\n      dup2\n        /* \"#utility.yul\":7112:7132   */\n      sub\n        /* \"#utility.yul\":7108:7109   */\n      0x00\n        /* \"#utility.yul\":7097:7106   */\n      dup4\n        /* \"#utility.yul\":7093:7110   */\n      add\n        /* \"#utility.yul\":7086:7133   */\n      mstore\n        /* \"#utility.yul\":7150:7228   */\n      tag_368\n        /* \"#utility.yul\":7223:7227   */\n      dup2\n        /* \"#utility.yul\":7214:7220   */\n      dup6\n        /* \"#utility.yul\":7150:7228   */\n      tag_223\n      jump\t// in\n    tag_368:\n        /* \"#utility.yul\":7142:7228   */\n      swap1\n      pop\n        /* \"#utility.yul\":7275:7284   */\n      dup2\n        /* \"#utility.yul\":7269:7273   */\n      dup2\n        /* \"#utility.yul\":7265:7285   */\n      sub\n        /* \"#utility.yul\":7260:7262   */\n      0x20\n        /* \"#utility.yul\":7249:7258   */\n      dup4\n        /* \"#utility.yul\":7245:7263   */\n      add\n        /* \"#utility.yul\":7238:7286   */\n      mstore\n        /* \"#utility.yul\":7303:7381   */\n      tag_369\n        /* \"#utility.yul\":7376:7380   */\n      dup2\n        /* \"#utility.yul\":7367:7373   */\n      dup5\n        /* \"#utility.yul\":7303:7381   */\n      tag_223\n      jump\t// in\n    tag_369:\n        /* \"#utility.yul\":7295:7381   */\n      swap1\n      pop\n        /* \"#utility.yul\":6874:7388   */\n      swap4\n      swap3\n      pop\n      pop\n      pop\n      jump\t// out\n        /* \"#utility.yul\":7394:7530   */\n    tag_239:\n        /* \"#utility.yul\":7483:7489   */\n      0x00\n        /* \"#utility.yul\":7517:7522   */\n      dup2\n        /* \"#utility.yul\":7511:7523   */\n      mload\n        /* \"#utility.yul\":7501:7523   */\n      swap1\n      pop\n        /* \"#utility.yul\":7394:7530   */\n      swap2\n      swap1\n      pop\n      jump\t// out\n        /* \"#utility.yul\":7536:7742   */\n    tag_240:\n        /* \"#utility.yul\":7657:7668   */\n      0x00\n        /* \"#utility.yul\":7691:7697   */\n      dup3\n        /* \"#utility.yul\":7686:7689   */\n      dup3\n        /* \"#utility.yul\":7679:7698   */\n      mstore\n        /* \"#utility.yul\":7731:7735   */\n      0x20\n        /* \"#utility.yul\":7726:7729   */\n      dup3\n        /* \"#utility.yul\":7722:7736   */\n      add\n        /* \"#utility.yul\":7707:7736   */\n      swap1\n      pop\n        /* \"#utility.yul\":7536:7742   */\n      swap3\n      swap2\n      pop\n      pop\n      jump\t// out\n        /* \"#utility.yul\":7748:7902   */\n    tag_241:\n        /* \"#utility.yul\":7837:7841   */\n      0x00\n        /* \"#utility.yul\":7860:7863   */\n      dup2\n        /* \"#utility.yul\":7852:7863   */\n      swap1\n      pop\n        /* \"#utility.yul\":7890:7894   */\n      0x20\n        /* \"#utility.yul\":7885:7888   */\n      dup3\n        /* \"#utility.yul\":7881:7895   */\n      add\n        /* \"#utility.yul\":7873:7895   */\n      swap1\n      pop\n        /* \"#utility.yul\":7748:7902   */\n      swap2\n      swap1\n      pop\n      jump\t// out\n        /* \"#utility.yul\":7908:8016   */\n    tag_242:\n        /* \"#utility.yul\":7985:8009   */\n      tag_374\n        /* \"#utility.yul\":8003:8008   */\n      dup2\n        /* \"#utility.yul\":7985:8009   */\n      tag_228\n      jump\t// in\n    tag_374:\n        /* \"#utility.yul\":7980:7983   */\n      dup3\n        /* \"#utility.yul\":7973:8010   */\n      mstore\n        /* \"#utility.yul\":7908:8016   */\n      pop\n      pop\n      jump\t// out\n        /* \"#utility.yul\":8074:8394   */\n    tag_243:\n        /* \"#utility.yul\":8205:8209   */\n      0x20\n        /* \"#utility.yul\":8200:8203   */\n      dup3\n        /* \"#utility.yul\":8196:8210   */\n      add\n        /* \"#utility.yul\":8295:8299   */\n      0x00\n        /* \"#utility.yul\":8288:8293   */\n      dup3\n        /* \"#utility.yul\":8284:8300   */\n      add\n        /* \"#utility.yul\":8278:8301   */\n      mload\n        /* \"#utility.yul\":8314:8377   */\n      tag_376\n        /* \"#utility.yul\":8371:8375   */\n      0x00\n        /* \"#utility.yul\":8366:8369   */\n      dup6\n        /* \"#utility.yul\":8362:8376   */\n      add\n        /* \"#utility.yul\":8348:8360   */\n      dup3\n        /* \"#utility.yul\":8314:8377   */\n      tag_242\n      jump\t// in\n    tag_376:\n        /* \"#utility.yul\":8220:8387   */\n      pop\n        /* \"#utility.yul\":8174:8394   */\n      pop\n        /* \"#utility.yul\":8074:8394   */\n      pop\n      pop\n      jump\t// out\n        /* \"#utility.yul\":8400:8667   */\n    tag_244:\n        /* \"#utility.yul\":8513:8523   */\n      0x00\n        /* \"#utility.yul\":8534:8624   */\n      tag_378\n        /* \"#utility.yul\":8620:8623   */\n      dup4\n        /* \"#utility.yul\":8612:8618   */\n      dup4\n        /* \"#utility.yul\":8534:8624   */\n      tag_243\n      jump\t// in\n    tag_378:\n        /* \"#utility.yul\":8656:8660   */\n      0x20\n        /* \"#utility.yul\":8651:8654   */\n      dup4\n        /* \"#utility.yul\":8647:8661   */\n      add\n        /* \"#utility.yul\":8633:8661   */\n      swap1\n      pop\n        /* \"#utility.yul\":8400:8667   */\n      swap3\n      swap2\n      pop\n      pop\n      jump\t// out\n        /* \"#utility.yul\":8673:8808   */\n    tag_245:\n        /* \"#utility.yul\":8765:8769   */\n      0x00\n        /* \"#utility.yul\":8797:8801   */\n      0x20\n        /* \"#utility.yul\":8792:8795   */\n      dup3\n        /* \"#utility.yul\":8788:8802   */\n      add\n        /* \"#utility.yul\":8780:8802   */\n      swap1\n      pop\n        /* \"#utility.yul\":8673:8808   */\n      swap2\n      swap1\n      pop\n      jump\t// out\n        /* \"#utility.yul\":8870:9778   */\n    tag_246:\n        /* \"#utility.yul\":9033:9036   */\n      0x00\n        /* \"#utility.yul\":9062:9138   */\n      tag_381\n        /* \"#utility.yul\":9132:9137   */\n      dup3\n        /* \"#utility.yul\":9062:9138   */\n      tag_239\n      jump\t// in\n    tag_381:\n        /* \"#utility.yul\":9154:9262   */\n      tag_382\n        /* \"#utility.yul\":9255:9261   */\n      dup2\n        /* \"#utility.yul\":9250:9253   */\n      dup6\n        /* \"#utility.yul\":9154:9262   */\n      tag_240\n      jump\t// in\n    tag_382:\n        /* \"#utility.yul\":9147:9262   */\n      swap4\n      pop\n        /* \"#utility.yul\":9286:9364   */\n      tag_383\n        /* \"#utility.yul\":9358:9363   */\n      dup4\n        /* \"#utility.yul\":9286:9364   */\n      tag_241\n      jump\t// in\n    tag_383:\n        /* \"#utility.yul\":9387:9394   */\n      dup1\n        /* \"#utility.yul\":9418:9419   */\n      0x00\n        /* \"#utility.yul\":9403:9753   */\n    tag_384:\n        /* \"#utility.yul\":9428:9434   */\n      dup4\n        /* \"#utility.yul\":9425:9426   */\n      dup2\n        /* \"#utility.yul\":9422:9435   */\n      lt\n        /* \"#utility.yul\":9403:9753   */\n      iszero\n      tag_386\n      jumpi\n        /* \"#utility.yul\":9504:9510   */\n      dup2\n        /* \"#utility.yul\":9498:9511   */\n      mload\n        /* \"#utility.yul\":9531:9638   */\n      tag_387\n        /* \"#utility.yul\":9634:9637   */\n      dup9\n        /* \"#utility.yul\":9619:9632   */\n      dup3\n        /* \"#utility.yul\":9531:9638   */\n      tag_244\n      jump\t// in\n    tag_387:\n        /* \"#utility.yul\":9524:9638   */\n      swap8\n      pop\n        /* \"#utility.yul\":9661:9743   */\n      tag_388\n        /* \"#utility.yul\":9736:9742   */\n      dup4\n        /* \"#utility.yul\":9661:9743   */\n      tag_245\n      jump\t// in\n    tag_388:\n        /* \"#utility.yul\":9651:9743   */\n      swap3\n      pop\n        /* \"#utility.yul\":9463:9753   */\n      pop\n        /* \"#utility.yul\":9450:9451   */\n      0x01\n        /* \"#utility.yul\":9447:9448   */\n      dup2\n        /* \"#utility.yul\":9443:9452   */\n      add\n        /* \"#utility.yul\":9438:9452   */\n      swap1\n      pop\n        /* \"#utility.yul\":9403:9753   */\n      jump(tag_384)\n    tag_386:\n        /* \"#utility.yul\":9407:9421   */\n      pop\n        /* \"#utility.yul\":9769:9772   */\n      dup6\n        /* \"#utility.yul\":9762:9772   */\n      swap4\n      pop\n        /* \"#utility.yul\":9038:9778   */\n      pop\n      pop\n      pop\n        /* \"#utility.yul\":8870:9778   */\n      swap3\n      swap2\n      pop\n      pop\n      jump\t// out\n        /* \"#utility.yul\":9784:10245   */\n    tag_94:\n        /* \"#utility.yul\":9971:9975   */\n      0x00\n        /* \"#utility.yul\":10009:10011   */\n      0x20\n        /* \"#utility.yul\":9998:10007   */\n      dup3\n        /* \"#utility.yul\":9994:10012   */\n      add\n        /* \"#utility.yul\":9986:10012   */\n      swap1\n      pop\n        /* \"#utility.yul\":10058:10067   */\n      dup2\n        /* \"#utility.yul\":10052:10056   */\n      dup2\n        /* \"#utility.yul\":10048:10068   */\n      sub\n        /* \"#utility.yul\":10044:10045   */\n      0x00\n        /* \"#utility.yul\":10033:10042   */\n      dup4\n        /* \"#utility.yul\":10029:10046   */\n      add\n        /* \"#utility.yul\":10022:10069   */\n      mstore\n        /* \"#utility.yul\":10086:10238   */\n      tag_390\n        /* \"#utility.yul\":10233:10237   */\n      dup2\n        /* \"#utility.yul\":10224:10230   */\n      dup5\n        /* \"#utility.yul\":10086:10238   */\n      tag_246\n      jump\t// in\n    tag_390:\n        /* \"#utility.yul\":10078:10238   */\n      swap1\n      pop\n        /* \"#utility.yul\":9784:10245   */\n      swap3\n      swap2\n      pop\n      pop\n      jump\t// out\n        /* \"#utility.yul\":10251:10387   */\n    tag_247:\n        /* \"#utility.yul\":10340:10346   */\n      0x00\n        /* \"#utility.yul\":10374:10379   */\n      dup2\n        /* \"#utility.yul\":10368:10380   */\n      mload\n        /* \"#utility.yul\":10358:10380   */\n      swap1\n      pop\n        /* \"#utility.yul\":10251:10387   */\n      swap2\n      swap1\n      pop\n      jump\t// out\n        /* \"#utility.yul\":10393:10599   */\n    tag_248:\n        /* \"#utility.yul\":10514:10525   */\n      0x00\n        /* \"#utility.yul\":10548:10554   */\n      dup3\n        /* \"#utility.yul\":10543:10546   */\n      dup3\n        /* \"#utility.yul\":10536:10555   */\n      mstore\n        /* \"#utility.yul\":10588:10592   */\n      0x20\n        /* \"#utility.yul\":10583:10586   */\n      dup3\n        /* \"#utility.yul\":10579:10593   */\n      add\n        /* \"#utility.yul\":10564:10593   */\n      swap1\n      pop\n        /* \"#utility.yul\":10393:10599   */\n      swap3\n      swap2\n      pop\n      pop\n      jump\t// out\n        /* \"#utility.yul\":10605:10759   */\n    tag_249:\n        /* \"#utility.yul\":10694:10698   */\n      0x00\n        /* \"#utility.yul\":10717:10720   */\n      dup2\n        /* \"#utility.yul\":10709:10720   */\n      swap1\n      pop\n        /* \"#utility.yul\":10747:10751   */\n      0x20\n        /* \"#utility.yul\":10742:10745   */\n      dup3\n        /* \"#utility.yul\":10738:10752   */\n      add\n        /* \"#utility.yul\":10730:10752   */\n      swap1\n      pop\n        /* \"#utility.yul\":10605:10759   */\n      swap2\n      swap1\n      pop\n      jump\t// out\n        /* \"#utility.yul\":10765:10924   */\n    tag_250:\n        /* \"#utility.yul\":10839:10850   */\n      0x00\n        /* \"#utility.yul\":10873:10879   */\n      dup3\n        /* \"#utility.yul\":10868:10871   */\n      dup3\n        /* \"#utility.yul\":10861:10880   */\n      mstore\n        /* \"#utility.yul\":10913:10917   */\n      0x20\n        /* \"#utility.yul\":10908:10911   */\n      dup3\n        /* \"#utility.yul\":10904:10918   */\n      add\n        /* \"#utility.yul\":10889:10918   */\n      swap1\n      pop\n        /* \"#utility.yul\":10765:10924   */\n      swap3\n      swap2\n      pop\n      pop\n      jump\t// out\n        /* \"#utility.yul\":10930:11287   */\n    tag_251:\n        /* \"#utility.yul\":11008:11011   */\n      0x00\n        /* \"#utility.yul\":11036:11075   */\n      tag_396\n        /* \"#utility.yul\":11069:11074   */\n      dup3\n        /* \"#utility.yul\":11036:11075   */\n      tag_219\n      jump\t// in\n    tag_396:\n        /* \"#utility.yul\":11091:11152   */\n      tag_397\n        /* \"#utility.yul\":11145:11151   */\n      dup2\n        /* \"#utility.yul\":11140:11143   */\n      dup6\n        /* \"#utility.yul\":11091:11152   */\n      tag_250\n      jump\t// in\n    tag_397:\n        /* \"#utility.yul\":11084:11152   */\n      swap4\n      pop\n        /* \"#utility.yul\":11161:11226   */\n      tag_398\n        /* \"#utility.yul\":11219:11225   */\n      dup2\n        /* \"#utility.yul\":11214:11217   */\n      dup6\n        /* \"#utility.yul\":11207:11211   */\n      0x20\n        /* \"#utility.yul\":11200:11205   */\n      dup7\n        /* \"#utility.yul\":11196:11212   */\n      add\n        /* \"#utility.yul\":11161:11226   */\n      tag_221\n      jump\t// in\n    tag_398:\n        /* \"#utility.yul\":11251:11280   */\n      tag_399\n        /* \"#utility.yul\":11273:11279   */\n      dup2\n        /* \"#utility.yul\":11251:11280   */\n      tag_222\n      jump\t// in\n    tag_399:\n        /* \"#utility.yul\":11246:11249   */\n      dup5\n        /* \"#utility.yul\":11242:11281   */\n      add\n        /* \"#utility.yul\":11235:11281   */\n      swap2\n      pop\n        /* \"#utility.yul\":11012:11287   */\n      pop\n        /* \"#utility.yul\":10930:11287   */\n      swap3\n      swap2\n      pop\n      pop\n      jump\t// out\n        /* \"#utility.yul\":11345:12005   */\n    tag_252:\n        /* \"#utility.yul\":11448:11451   */\n      0x00\n        /* \"#utility.yul\":11484:11488   */\n      0x40\n        /* \"#utility.yul\":11479:11482   */\n      dup4\n        /* \"#utility.yul\":11475:11489   */\n      add\n        /* \"#utility.yul\":11570:11574   */\n      0x00\n        /* \"#utility.yul\":11563:11568   */\n      dup4\n        /* \"#utility.yul\":11559:11575   */\n      add\n        /* \"#utility.yul\":11553:11576   */\n      mload\n        /* \"#utility.yul\":11623:11626   */\n      dup5\n        /* \"#utility.yul\":11617:11621   */\n      dup3\n        /* \"#utility.yul\":11613:11627   */\n      sub\n        /* \"#utility.yul\":11606:11610   */\n      0x00\n        /* \"#utility.yul\":11601:11604   */\n      dup7\n        /* \"#utility.yul\":11597:11611   */\n      add\n        /* \"#utility.yul\":11590:11628   */\n      mstore\n        /* \"#utility.yul\":11649:11722   */\n      tag_401\n        /* \"#utility.yul\":11717:11721   */\n      dup3\n        /* \"#utility.yul\":11703:11715   */\n      dup3\n        /* \"#utility.yul\":11649:11722   */\n      tag_251\n      jump\t// in\n    tag_401:\n        /* \"#utility.yul\":11641:11722   */\n      swap2\n      pop\n        /* \"#utility.yul\":11499:11733   */\n      pop\n        /* \"#utility.yul\":11815:11819   */\n      0x20\n        /* \"#utility.yul\":11808:11813   */\n      dup4\n        /* \"#utility.yul\":11804:11820   */\n      add\n        /* \"#utility.yul\":11798:11821   */\n      mload\n        /* \"#utility.yul\":11868:11871   */\n      dup5\n        /* \"#utility.yul\":11862:11866   */\n      dup3\n        /* \"#utility.yul\":11858:11872   */\n      sub\n        /* \"#utility.yul\":11851:11855   */\n      0x20\n        /* \"#utility.yul\":11846:11849   */\n      dup7\n        /* \"#utility.yul\":11842:11856   */\n      add\n        /* \"#utility.yul\":11835:11873   */\n      mstore\n        /* \"#utility.yul\":11894:11967   */\n      tag_402\n        /* \"#utility.yul\":11962:11966   */\n      dup3\n        /* \"#utility.yul\":11948:11960   */\n      dup3\n        /* \"#utility.yul\":11894:11967   */\n      tag_251\n      jump\t// in\n    tag_402:\n        /* \"#utility.yul\":11886:11967   */\n      swap2\n      pop\n        /* \"#utility.yul\":11743:11978   */\n      pop\n        /* \"#utility.yul\":11995:11999   */\n      dup1\n        /* \"#utility.yul\":11988:11999   */\n      swap2\n      pop\n        /* \"#utility.yul\":11453:12005   */\n      pop\n        /* \"#utility.yul\":11345:12005   */\n      swap3\n      swap2\n      pop\n      pop\n      jump\t// out\n        /* \"#utility.yul\":12011:12255   */\n    tag_253:\n        /* \"#utility.yul\":12124:12134   */\n      0x00\n        /* \"#utility.yul\":12159:12249   */\n      tag_404\n        /* \"#utility.yul\":12245:12248   */\n      dup4\n        /* \"#utility.yul\":12237:12243   */\n      dup4\n        /* \"#utility.yul\":12159:12249   */\n      tag_252\n      jump\t// in\n    tag_404:\n        /* \"#utility.yul\":12145:12249   */\n      swap1\n      pop\n        /* \"#utility.yul\":12011:12255   */\n      swap3\n      swap2\n      pop\n      pop\n      jump\t// out\n        /* \"#utility.yul\":12261:12396   */\n    tag_254:\n        /* \"#utility.yul\":12353:12357   */\n      0x00\n        /* \"#utility.yul\":12385:12389   */\n      0x20\n        /* \"#utility.yul\":12380:12383   */\n      dup3\n        /* \"#utility.yul\":12376:12390   */\n      add\n        /* \"#utility.yul\":12368:12390   */\n      swap1\n      pop\n        /* \"#utility.yul\":12261:12396   */\n      swap2\n      swap1\n      pop\n      jump\t// out\n        /* \"#utility.yul\":12458:13545   */\n    tag_255:\n        /* \"#utility.yul\":12621:12624   */\n      0x00\n        /* \"#utility.yul\":12650:12726   */\n      tag_407\n        /* \"#utility.yul\":12720:12725   */\n      dup3\n        /* \"#utility.yul\":12650:12726   */\n      tag_247\n      jump\t// in\n    tag_407:\n        /* \"#utility.yul\":12742:12850   */\n      tag_408\n        /* \"#utility.yul\":12843:12849   */\n      dup2\n        /* \"#utility.yul\":12838:12841   */\n      dup6\n        /* \"#utility.yul\":12742:12850   */\n      tag_248\n      jump\t// in\n    tag_408:\n        /* \"#utility.yul\":12735:12850   */\n      swap4\n      pop\n        /* \"#utility.yul\":12876:12879   */\n      dup4\n        /* \"#utility.yul\":12921:12925   */\n      0x20\n        /* \"#utility.yul\":12913:12919   */\n      dup3\n        /* \"#utility.yul\":12909:12926   */\n      mul\n        /* \"#utility.yul\":12904:12907   */\n      dup6\n        /* \"#utility.yul\":12900:12927   */\n      add\n        /* \"#utility.yul\":12951:13029   */\n      tag_409\n        /* \"#utility.yul\":13023:13028   */\n      dup6\n        /* \"#utility.yul\":12951:13029   */\n      tag_249\n      jump\t// in\n    tag_409:\n        /* \"#utility.yul\":13052:13059   */\n      dup1\n        /* \"#utility.yul\":13083:13084   */\n      0x00\n        /* \"#utility.yul\":13068:13500   */\n    tag_410:\n        /* \"#utility.yul\":13093:13099   */\n      dup6\n        /* \"#utility.yul\":13090:13091   */\n      dup2\n        /* \"#utility.yul\":13087:13100   */\n      lt\n        /* \"#utility.yul\":13068:13500   */\n      iszero\n      tag_412\n      jumpi\n        /* \"#utility.yul\":13164:13173   */\n      dup5\n        /* \"#utility.yul\":13158:13162   */\n      dup5\n        /* \"#utility.yul\":13154:13174   */\n      sub\n        /* \"#utility.yul\":13149:13152   */\n      dup10\n        /* \"#utility.yul\":13142:13175   */\n      mstore\n        /* \"#utility.yul\":13215:13221   */\n      dup2\n        /* \"#utility.yul\":13209:13222   */\n      mload\n        /* \"#utility.yul\":13243:13351   */\n      tag_413\n        /* \"#utility.yul\":13346:13350   */\n      dup6\n        /* \"#utility.yul\":13331:13344   */\n      dup3\n        /* \"#utility.yul\":13243:13351   */\n      tag_253\n      jump\t// in\n    tag_413:\n        /* \"#utility.yul\":13235:13351   */\n      swap5\n      pop\n        /* \"#utility.yul\":13374:13456   */\n      tag_414\n        /* \"#utility.yul\":13449:13455   */\n      dup4\n        /* \"#utility.yul\":13374:13456   */\n      tag_254\n      jump\t// in\n    tag_414:\n        /* \"#utility.yul\":13364:13456   */\n      swap3\n      pop\n        /* \"#utility.yul\":13485:13489   */\n      0x20\n        /* \"#utility.yul\":13480:13483   */\n      dup11\n        /* \"#utility.yul\":13476:13490   */\n      add\n        /* \"#utility.yul\":13469:13490   */\n      swap10\n      pop\n        /* \"#utility.yul\":13128:13500   */\n      pop\n        /* \"#utility.yul\":13115:13116   */\n      0x01\n        /* \"#utility.yul\":13112:13113   */\n      dup2\n        /* \"#utility.yul\":13108:13117   */\n      add\n        /* \"#utility.yul\":13103:13117   */\n      swap1\n      pop\n        /* \"#utility.yul\":13068:13500   */\n      jump(tag_410)\n    tag_412:\n        /* \"#utility.yul\":13072:13086   */\n      pop\n        /* \"#utility.yul\":13516:13520   */\n      dup3\n        /* \"#utility.yul\":13509:13520   */\n      swap8\n      pop\n        /* \"#utility.yul\":13536:13539   */\n      dup8\n        /* \"#utility.yul\":13529:13539   */\n      swap6\n      pop\n        /* \"#utility.yul\":12626:13545   */\n      pop\n      pop\n      pop\n      pop\n      pop\n        /* \"#utility.yul\":12458:13545   */\n      swap3\n      swap2\n      pop\n      pop\n      jump\t// out\n        /* \"#utility.yul\":13551:14012   */\n    tag_99:\n        /* \"#utility.yul\":13738:13742   */\n      0x00\n        /* \"#utility.yul\":13776:13778   */\n      0x20\n        /* \"#utility.yul\":13765:13774   */\n      dup3\n        /* \"#utility.yul\":13761:13779   */\n      add\n        /* \"#utility.yul\":13753:13779   */\n      swap1\n      pop\n        /* \"#utility.yul\":13825:13834   */\n      dup2\n        /* \"#utility.yul\":13819:13823   */\n      dup2\n        /* \"#utility.yul\":13815:13835   */\n      sub\n        /* \"#utility.yul\":13811:13812   */\n      0x00\n        /* \"#utility.yul\":13800:13809   */\n      dup4\n        /* \"#utility.yul\":13796:13813   */\n      add\n        /* \"#utility.yul\":13789:13836   */\n      mstore\n        /* \"#utility.yul\":13853:14005   */\n      tag_416\n        /* \"#utility.yul\":14000:14004   */\n      dup2\n        /* \"#utility.yul\":13991:13997   */\n      dup5\n        /* \"#utility.yul\":13853:14005   */\n      tag_255\n      jump\t// in\n    tag_416:\n        /* \"#utility.yul\":13845:14005   */\n      swap1\n      pop\n        /* \"#utility.yul\":13551:14012   */\n      swap3\n      swap2\n      pop\n      pop\n      jump\t// out\n        /* \"#utility.yul\":14018:14492   */\n    tag_115:\n        /* \"#utility.yul\":14086:14092   */\n      0x00\n        /* \"#utility.yul\":14094:14100   */\n      dup1\n        /* \"#utility.yul\":14143:14145   */\n      0x40\n        /* \"#utility.yul\":14131:14140   */\n      dup4\n        /* \"#utility.yul\":14122:14129   */\n      dup6\n        /* \"#utility.yul\":14118:14141   */\n      sub\n        /* \"#utility.yul\":14114:14146   */\n      slt\n        /* \"#utility.yul\":14111:14230   */\n      iszero\n      tag_418\n      jumpi\n        /* \"#utility.yul\":14149:14228   */\n      tag_419\n      tag_225\n      jump\t// in\n    tag_419:\n        /* \"#utility.yul\":14111:14230   */\n    tag_418:\n        /* \"#utility.yul\":14269:14270   */\n      0x00\n        /* \"#utility.yul\":14294:14347   */\n      tag_420\n        /* \"#utility.yul\":14339:14346   */\n      dup6\n        /* \"#utility.yul\":14330:14336   */\n      dup3\n        /* \"#utility.yul\":14319:14328   */\n      dup7\n        /* \"#utility.yul\":14315:14337   */\n      add\n        /* \"#utility.yul\":14294:14347   */\n      tag_230\n      jump\t// in\n    tag_420:\n        /* \"#utility.yul\":14284:14347   */\n      swap3\n      pop\n        /* \"#utility.yul\":14240:14357   */\n      pop\n        /* \"#utility.yul\":14396:14398   */\n      0x20\n        /* \"#utility.yul\":14422:14475   */\n      tag_421\n        /* \"#utility.yul\":14467:14474   */\n      dup6\n        /* \"#utility.yul\":14458:14464   */\n      dup3\n        /* \"#utility.yul\":14447:14456   */\n      dup7\n        /* \"#utility.yul\":14443:14465   */\n      add\n        /* \"#utility.yul\":14422:14475   */\n      tag_230\n      jump\t// in\n    tag_421:\n        /* \"#utility.yul\":14412:14475   */\n      swap2\n      pop\n        /* \"#utility.yul\":14367:14485   */\n      pop\n        /* \"#utility.yul\":14018:14492   */\n      swap3\n      pop\n      swap3\n      swap1\n      pop\n      jump\t// out\n        /* \"#utility.yul\":14498:14678   */\n    tag_256:\n        /* \"#utility.yul\":14546:14623   */\n      0x4e487b7100000000000000000000000000000000000000000000000000000000\n        /* \"#utility.yul\":14543:14544   */\n      0x00\n        /* \"#utility.yul\":14536:14624   */\n      mstore\n        /* \"#utility.yul\":14643:14647   */\n      0x22\n        /* \"#utility.yul\":14640:14641   */\n      0x04\n        /* \"#utility.yul\":14633:14648   */\n      mstore\n        /* \"#utility.yul\":14667:14671   */\n      0x24\n        /* \"#utility.yul\":14664:14665   */\n      0x00\n        /* \"#utility.yul\":14657:14672   */\n      revert\n        /* \"#utility.yul\":14684:15004   */\n    tag_122:\n        /* \"#utility.yul\":14728:14734   */\n      0x00\n        /* \"#utility.yul\":14765:14766   */\n      0x02\n        /* \"#utility.yul\":14759:14763   */\n      dup3\n        /* \"#utility.yul\":14755:14767   */\n      div\n        /* \"#utility.yul\":14745:14767   */\n      swap1\n      pop\n        /* \"#utility.yul\":14812:14813   */\n      0x01\n        /* \"#utility.yul\":14806:14810   */\n      dup3\n        /* \"#utility.yul\":14802:14814   */\n      and\n        /* \"#utility.yul\":14833:14851   */\n      dup1\n        /* \"#utility.yul\":14823:14904   */\n      tag_424\n      jumpi\n        /* \"#utility.yul\":14889:14893   */\n      0x7f\n        /* \"#utility.yul\":14881:14887   */\n      dup3\n        /* \"#utility.yul\":14877:14894   */\n      and\n        /* \"#utility.yul\":14867:14894   */\n      swap2\n      pop\n        /* \"#utility.yul\":14823:14904   */\n    tag_424:\n        /* \"#utility.yul\":14951:14953   */\n      0x20\n        /* \"#utility.yul\":14943:14949   */\n      dup3\n        /* \"#utility.yul\":14940:14954   */\n      lt\n        /* \"#utility.yul\":14920:14938   */\n      dup2\n        /* \"#utility.yul\":14917:14955   */\n      sub\n        /* \"#utility.yul\":14914:14998   */\n      tag_425\n      jumpi\n        /* \"#utility.yul\":14970:14988   */\n      tag_426\n      tag_256\n      jump\t// in\n    tag_426:\n        /* \"#utility.yul\":14914:14998   */\n    tag_425:\n        /* \"#utility.yul\":14735:15004   */\n      pop\n        /* \"#utility.yul\":14684:15004   */\n      swap2\n      swap1\n      pop\n      jump\t// out\n        /* \"#utility.yul\":15010:15089   */\n    tag_257:\n        /* \"#utility.yul\":15049:15056   */\n      0x00\n        /* \"#utility.yul\":15078:15083   */\n      dup2\n        /* \"#utility.yul\":15067:15083   */\n      swap1\n      pop\n        /* \"#utility.yul\":15010:15089   */\n      swap2\n      swap1\n      pop\n      jump\t// out\n        /* \"#utility.yul\":15095:15252   */\n    tag_258:\n        /* \"#utility.yul\":15200:15245   */\n      tag_429\n        /* \"#utility.yul\":15220:15244   */\n      tag_430\n        /* \"#utility.yul\":15238:15243   */\n      dup3\n        /* \"#utility.yul\":15220:15244   */\n      tag_217\n      jump\t// in\n    tag_430:\n        /* \"#utility.yul\":15200:15245   */\n      tag_257\n      jump\t// in\n    tag_429:\n        /* \"#utility.yul\":15195:15198   */\n      dup3\n        /* \"#utility.yul\":15188:15246   */\n      mstore\n        /* \"#utility.yul\":15095:15252   */\n      pop\n      pop\n      jump\t// out\n        /* \"#utility.yul\":15258:15362   */\n    tag_259:\n        /* \"#utility.yul\":15303:15310   */\n      0x00\n        /* \"#utility.yul\":15332:15356   */\n      tag_432\n        /* \"#utility.yul\":15350:15355   */\n      dup3\n        /* \"#utility.yul\":15332:15356   */\n      tag_227\n      jump\t// in\n    tag_432:\n        /* \"#utility.yul\":15321:15356   */\n      swap1\n      pop\n        /* \"#utility.yul\":15258:15362   */\n      swap2\n      swap1\n      pop\n      jump\t// out\n        /* \"#utility.yul\":15368:15462   */\n    tag_260:\n        /* \"#utility.yul\":15401:15409   */\n      0x00\n        /* \"#utility.yul\":15449:15454   */\n      dup2\n        /* \"#utility.yul\":15445:15447   */\n      0x60\n        /* \"#utility.yul\":15441:15455   */\n      shl\n        /* \"#utility.yul\":15420:15455   */\n      swap1\n      pop\n        /* \"#utility.yul\":15368:15462   */\n      swap2\n      swap1\n      pop\n      jump\t// out\n        /* \"#utility.yul\":15468:15562   */\n    tag_261:\n        /* \"#utility.yul\":15507:15514   */\n      0x00\n        /* \"#utility.yul\":15536:15556   */\n      tag_435\n        /* \"#utility.yul\":15550:15555   */\n      dup3\n        /* \"#utility.yul\":15536:15556   */\n      tag_260\n      jump\t// in\n    tag_435:\n        /* \"#utility.yul\":15525:15556   */\n      swap1\n      pop\n        /* \"#utility.yul\":15468:15562   */\n      swap2\n      swap1\n      pop\n      jump\t// out\n        /* \"#utility.yul\":15568:15676   */\n    tag_262:\n        /* \"#utility.yul\":15615:15622   */\n      0x00\n        /* \"#utility.yul\":15644:15670   */\n      tag_437\n        /* \"#utility.yul\":15664:15669   */\n      dup3\n        /* \"#utility.yul\":15644:15670   */\n      tag_261\n      jump\t// in\n    tag_437:\n        /* \"#utility.yul\":15633:15670   */\n      swap1\n      pop\n        /* \"#utility.yul\":15568:15676   */\n      swap2\n      swap1\n      pop\n      jump\t// out\n        /* \"#utility.yul\":15682:15871   */\n    tag_263:\n        /* \"#utility.yul\":15803:15864   */\n      tag_439\n        /* \"#utility.yul\":15831:15863   */\n      tag_440\n        /* \"#utility.yul\":15857:15862   */\n      dup3\n        /* \"#utility.yul\":15831:15863   */\n      tag_259\n      jump\t// in\n    tag_440:\n        /* \"#utility.yul\":15803:15864   */\n      tag_262\n      jump\t// in\n    tag_439:\n        /* \"#utility.yul\":15798:15801   */\n      dup3\n        /* \"#utility.yul\":15791:15865   */\n      mstore\n        /* \"#utility.yul\":15682:15871   */\n      pop\n      pop\n      jump\t// out\n        /* \"#utility.yul\":15877:16447   */\n    tag_182:\n        /* \"#utility.yul\":16061:16064   */\n      0x00\n        /* \"#utility.yul\":16076:16151   */\n      tag_442\n        /* \"#utility.yul\":16147:16150   */\n      dup3\n        /* \"#utility.yul\":16138:16144   */\n      dup7\n        /* \"#utility.yul\":16076:16151   */\n      tag_258\n      jump\t// in\n    tag_442:\n        /* \"#utility.yul\":16176:16178   */\n      0x20\n        /* \"#utility.yul\":16171:16174   */\n      dup3\n        /* \"#utility.yul\":16167:16179   */\n      add\n        /* \"#utility.yul\":16160:16179   */\n      swap2\n      pop\n        /* \"#utility.yul\":16189:16280   */\n      tag_443\n        /* \"#utility.yul\":16276:16279   */\n      dup3\n        /* \"#utility.yul\":16267:16273   */\n      dup6\n        /* \"#utility.yul\":16189:16280   */\n      tag_263\n      jump\t// in\n    tag_443:\n        /* \"#utility.yul\":16305:16307   */\n      0x14\n        /* \"#utility.yul\":16300:16303   */\n      dup3\n        /* \"#utility.yul\":16296:16308   */\n      add\n        /* \"#utility.yul\":16289:16308   */\n      swap2\n      pop\n        /* \"#utility.yul\":16318:16393   */\n      tag_444\n        /* \"#utility.yul\":16389:16392   */\n      dup3\n        /* \"#utility.yul\":16380:16386   */\n      dup5\n        /* \"#utility.yul\":16318:16393   */\n      tag_258\n      jump\t// in\n    tag_444:\n        /* \"#utility.yul\":16418:16420   */\n      0x20\n        /* \"#utility.yul\":16413:16416   */\n      dup3\n        /* \"#utility.yul\":16409:16421   */\n      add\n        /* \"#utility.yul\":16402:16421   */\n      swap2\n      pop\n        /* \"#utility.yul\":16438:16441   */\n      dup2\n        /* \"#utility.yul\":16431:16441   */\n      swap1\n      pop\n        /* \"#utility.yul\":15877:16447   */\n      swap5\n      swap4\n      pop\n      pop\n      pop\n      pop\n      jump\t// out\n        /* \"#utility.yul\":16453:16633   */\n    tag_264:\n        /* \"#utility.yul\":16501:16578   */\n      0x4e487b7100000000000000000000000000000000000000000000000000000000\n        /* \"#utility.yul\":16498:16499   */\n      0x00\n        /* \"#utility.yul\":16491:16579   */\n      mstore\n        /* \"#utility.yul\":16598:16602   */\n      0x12\n        /* \"#utility.yul\":16595:16596   */\n      0x04\n        /* \"#utility.yul\":16588:16603   */\n      mstore\n        /* \"#utility.yul\":16622:16626   */\n      0x24\n        /* \"#utility.yul\":16619:16620   */\n      0x00\n        /* \"#utility.yul\":16612:16627   */\n      revert\n        /* \"#utility.yul\":16639:16815   */\n    tag_184:\n        /* \"#utility.yul\":16671:16672   */\n      0x00\n        /* \"#utility.yul\":16688:16708   */\n      tag_447\n        /* \"#utility.yul\":16706:16707   */\n      dup3\n        /* \"#utility.yul\":16688:16708   */\n      tag_217\n      jump\t// in\n    tag_447:\n        /* \"#utility.yul\":16683:16708   */\n      swap2\n      pop\n        /* \"#utility.yul\":16722:16742   */\n      tag_448\n        /* \"#utility.yul\":16740:16741   */\n      dup4\n        /* \"#utility.yul\":16722:16742   */\n      tag_217\n      jump\t// in\n    tag_448:\n        /* \"#utility.yul\":16717:16742   */\n      swap3\n      pop\n        /* \"#utility.yul\":16761:16762   */\n      dup3\n        /* \"#utility.yul\":16751:16786   */\n      tag_449\n      jumpi\n        /* \"#utility.yul\":16766:16784   */\n      tag_450\n      tag_264\n      jump\t// in\n    tag_450:\n        /* \"#utility.yul\":16751:16786   */\n    tag_449:\n        /* \"#utility.yul\":16807:16808   */\n      dup3\n        /* \"#utility.yul\":16804:16805   */\n      dup3\n        /* \"#utility.yul\":16800:16809   */\n      mod\n        /* \"#utility.yul\":16795:16809   */\n      swap1\n      pop\n        /* \"#utility.yul\":16639:16815   */\n      swap3\n      swap2\n      pop\n      pop\n      jump\t// out\n        /* \"#utility.yul\":16821:17001   */\n    tag_187:\n        /* \"#utility.yul\":16869:16946   */\n      0x4e487b7100000000000000000000000000000000000000000000000000000000\n        /* \"#utility.yul\":16866:16867   */\n      0x00\n        /* \"#utility.yul\":16859:16947   */\n      mstore\n        /* \"#utility.yul\":16966:16970   */\n      0x32\n        /* \"#utility.yul\":16963:16964   */\n      0x04\n        /* \"#utility.yul\":16956:16971   */\n      mstore\n        /* \"#utility.yul\":16990:16994   */\n      0x24\n        /* \"#utility.yul\":16987:16988   */\n      0x00\n        /* \"#utility.yul\":16980:16995   */\n      revert\n        /* \"#utility.yul\":17007:17187   */\n    tag_265:\n        /* \"#utility.yul\":17055:17132   */\n      0x4e487b7100000000000000000000000000000000000000000000000000000000\n        /* \"#utility.yul\":17052:17053   */\n      0x00\n        /* \"#utility.yul\":17045:17133   */\n      mstore\n        /* \"#utility.yul\":17152:17156   */\n      0x41\n        /* \"#utility.yul\":17149:17150   */\n      0x04\n        /* \"#utility.yul\":17142:17157   */\n      mstore\n        /* \"#utility.yul\":17176:17180   */\n      0x24\n        /* \"#utility.yul\":17173:17174   */\n      0x00\n        /* \"#utility.yul\":17166:17181   */\n      revert\n        /* \"#utility.yul\":17193:17334   */\n    tag_266:\n        /* \"#utility.yul\":17242:17246   */\n      0x00\n        /* \"#utility.yul\":17265:17268   */\n      dup2\n        /* \"#utility.yul\":17257:17268   */\n      swap1\n      pop\n        /* \"#utility.yul\":17288:17291   */\n      dup2\n        /* \"#utility.yul\":17285:17286   */\n      0x00\n        /* \"#utility.yul\":17278:17292   */\n      mstore\n        /* \"#utility.yul\":17322:17326   */\n      0x20\n        /* \"#utility.yul\":17319:17320   */\n      0x00\n        /* \"#utility.yul\":17309:17327   */\n      keccak256\n        /* \"#utility.yul\":17301:17327   */\n      swap1\n      pop\n        /* \"#utility.yul\":17193:17334   */\n      swap2\n      swap1\n      pop\n      jump\t// out\n        /* \"#utility.yul\":17340:17433   */\n    tag_267:\n        /* \"#utility.yul\":17377:17383   */\n      0x00\n        /* \"#utility.yul\":17424:17426   */\n      0x20\n        /* \"#utility.yul\":17419:17421   */\n      0x1f\n        /* \"#utility.yul\":17412:17417   */\n      dup4\n        /* \"#utility.yul\":17408:17422   */\n      add\n        /* \"#utility.yul\":17404:17427   */\n      div\n        /* \"#utility.yul\":17394:17427   */\n      swap1\n      pop\n        /* \"#utility.yul\":17340:17433   */\n      swap2\n      swap1\n      pop\n      jump\t// out\n        /* \"#utility.yul\":17439:17546   */\n    tag_268:\n        /* \"#utility.yul\":17483:17491   */\n      0x00\n        /* \"#utility.yul\":17533:17538   */\n      dup3\n        /* \"#utility.yul\":17527:17531   */\n      dup3\n        /* \"#utility.yul\":17523:17539   */\n      shl\n        /* \"#utility.yul\":17502:17539   */\n      swap1\n      pop\n        /* \"#utility.yul\":17439:17546   */\n      swap3\n      swap2\n      pop\n      pop\n      jump\t// out\n        /* \"#utility.yul\":17552:17945   */\n    tag_269:\n        /* \"#utility.yul\":17621:17627   */\n      0x00\n        /* \"#utility.yul\":17671:17672   */\n      0x08\n        /* \"#utility.yul\":17659:17669   */\n      dup4\n        /* \"#utility.yul\":17655:17673   */\n      mul\n        /* \"#utility.yul\":17694:17791   */\n      tag_457\n        /* \"#utility.yul\":17724:17790   */\n      0xffffffffffffffffffffffffffffffffffffffffffffffffffffffffffffffff\n        /* \"#utility.yul\":17713:17722   */\n      dup3\n        /* \"#utility.yul\":17694:17791   */\n      tag_268\n      jump\t// in\n    tag_457:\n        /* \"#utility.yul\":17812:17851   */\n      tag_458\n        /* \"#utility.yul\":17842:17850   */\n      dup7\n        /* \"#utility.yul\":17831:17840   */\n      dup4\n        /* \"#utility.yul\":17812:17851   */\n      tag_268\n      jump\t// in\n    tag_458:\n        /* \"#utility.yul\":17800:17851   */\n      swap6\n      pop\n        /* \"#utility.yul\":17884:17888   */\n      dup1\n        /* \"#utility.yul\":17880:17889   */\n      not\n        /* \"#utility.yul\":17873:17878   */\n      dup5\n        /* \"#utility.yul\":17869:17890   */\n      and\n        /* \"#utility.yul\":17860:17890   */\n      swap4\n      pop\n        /* \"#utility.yul\":17933:17937   */\n      dup1\n        /* \"#utility.yul\":17923:17931   */\n      dup7\n        /* \"#utility.yul\":17919:17938   */\n      and\n        /* \"#utility.yul\":17912:17917   */\n      dup5\n        /* \"#utility.yul\":17909:17939   */\n      or\n        /* \"#utility.yul\":17899:17939   */\n      swap3\n      pop\n        /* \"#utility.yul\":17628:17945   */\n      pop\n      pop\n        /* \"#utility.yul\":17552:17945   */\n      swap4\n      swap3\n      pop\n      pop\n      pop\n      jump\t// out\n        /* \"#utility.yul\":17951:18011   */\n    tag_270:\n        /* \"#utility.yul\":17979:17982   */\n      0x00\n        /* \"#utility.yul\":18000:18005   */\n      dup2\n        /* \"#utility.yul\":17993:18005   */\n      swap1\n      pop\n        /* \"#utility.yul\":17951:18011   */\n      swap2\n      swap1\n      pop\n      jump\t// out\n        /* \"#utility.yul\":18017:18159   */\n    tag_271:\n        /* \"#utility.yul\":18067:18076   */\n      0x00\n        /* \"#utility.yul\":18100:18153   */\n      tag_461\n        /* \"#utility.yul\":18118:18152   */\n      tag_462\n        /* \"#utility.yul\":18127:18151   */\n      tag_463\n        /* \"#utility.yul\":18145:18150   */\n      dup5\n        /* \"#utility.yul\":18127:18151   */\n      tag_217\n      jump\t// in\n    tag_463:\n        /* \"#utility.yul\":18118:18152   */\n      tag_270\n      jump\t// in\n    tag_462:\n        /* \"#utility.yul\":18100:18153   */\n      tag_217\n      jump\t// in\n    tag_461:\n        /* \"#utility.yul\":18087:18153   */\n      swap1\n      pop\n        /* \"#utility.yul\":18017:18159   */\n      swap2\n      swap1\n      pop\n      jump\t// out\n        /* \"#utility.yul\":18165:18240   */\n    tag_272:\n        /* \"#utility.yul\":18208:18211   */\n      0x00\n        /* \"#utility.yul\":18229:18234   */\n      dup2\n        /* \"#utility.yul\":18222:18234   */\n      swap1\n      pop\n        /* \"#utility.yul\":18165:18240   */\n      swap2\n      swap1\n      pop\n      jump\t// out\n        /* \"#utility.yul\":18246:18515   */\n    tag_273:\n        /* \"#utility.yul\":18356:18395   */\n      tag_466\n        /* \"#utility.yul\":18387:18394   */\n      dup4\n        /* \"#utility.yul\":18356:18395   */\n      tag_271\n      jump\t// in\n    tag_466:\n        /* \"#utility.yul\":18417:18508   */\n      tag_467\n        /* \"#utility.yul\":18466:18507   */\n      tag_468\n        /* \"#utility.yul\":18490:18506   */\n      dup3\n        /* \"#utility.yul\":18466:18507   */\n      tag_272\n      jump\t// in\n    tag_468:\n        /* \"#utility.yul\":18458:18464   */\n      dup5\n        /* \"#utility.yul\":18451:18455   */\n      dup5\n        /* \"#utility.yul\":18445:18456   */\n      sload\n        /* \"#utility.yul\":18417:18508   */\n      tag_269\n      jump\t// in\n    tag_467:\n        /* \"#utility.yul\":18411:18415   */\n      dup3\n        /* \"#utility.yul\":18404:18509   */\n      sstore\n        /* \"#utility.yul\":18322:18515   */\n      pop\n        /* \"#utility.yul\":18246:18515   */\n      pop\n      pop\n      pop\n      jump\t// out\n        /* \"#utility.yul\":18521:18594   */\n    tag_274:\n        /* \"#utility.yul\":18566:18569   */\n      0x00\n        /* \"#utility.yul\":18521:18594   */\n      swap1\n      jump\t// out\n        /* \"#utility.yul\":18600:18789   */\n    tag_275:\n        /* \"#utility.yul\":18677:18709   */\n      tag_471\n      tag_274\n      jump\t// in\n    tag_471:\n        /* \"#utility.yul\":18718:18783   */\n      tag_472\n        /* \"#utility.yul\":18776:18782   */\n      dup2\n        /* \"#utility.yul\":18768:18774   */\n      dup5\n        /* \"#utility.yul\":18762:18766   */\n      dup5\n        /* \"#utility.yul\":18718:18783   */\n      tag_273\n      jump\t// in\n    tag_472:\n        /* \"#utility.yul\":18653:18789   */\n      pop\n        /* \"#utility.yul\":18600:18789   */\n      pop\n      pop\n      jump\t// out\n        /* \"#utility.yul\":18795:18981   */\n    tag_276:\n        /* \"#utility.yul\":18855:18975   */\n    tag_474:\n        /* \"#utility.yul\":18872:18875   */\n      dup2\n        /* \"#utility.yul\":18865:18870   */\n      dup2\n        /* \"#utility.yul\":18862:18876   */\n      lt\n        /* \"#utility.yul\":18855:18975   */\n      iszero\n      tag_476\n      jumpi\n        /* \"#utility.yul\":18926:18965   */\n      tag_477\n        /* \"#utility.yul\":18963:18964   */\n      0x00\n        /* \"#utility.yul\":18956:18961   */\n      dup3\n        /* \"#utility.yul\":18926:18965   */\n      tag_275\n      jump\t// in\n    tag_477:\n        /* \"#utility.yul\":18899:18900   */\n      0x01\n        /* \"#utility.yul\":18892:18897   */\n      dup2\n        /* \"#utility.yul\":18888:18901   */\n      add\n        /* \"#utility.yul\":18879:18901   */\n      swap1\n      pop\n        /* \"#utility.yul\":18855:18975   */\n      jump(tag_474)\n    tag_476:\n        /* \"#utility.yul\":18795:18981   */\n      pop\n      pop\n      jump\t// out\n        /* \"#utility.yul\":18987:19530   */\n    tag_277:\n        /* \"#utility.yul\":19088:19090   */\n      0x1f\n        /* \"#utility.yul\":19083:19086   */\n      dup3\n        /* \"#utility.yul\":19080:19091   */\n      gt\n        /* \"#utility.yul\":19077:19523   */\n      iszero\n      tag_479\n      jumpi\n        /* \"#utility.yul\":19122:19160   */\n      tag_480\n        /* \"#utility.yul\":19154:19159   */\n      dup2\n        /* \"#utility.yul\":19122:19160   */\n      tag_266\n      jump\t// in\n    tag_480:\n        /* \"#utility.yul\":19206:19235   */\n      tag_481\n        /* \"#utility.yul\":19224:19234   */\n      dup5\n        /* \"#utility.yul\":19206:19235   */\n      tag_267\n      jump\t// in\n    tag_481:\n        /* \"#utility.yul\":19196:19204   */\n      dup2\n        /* \"#utility.yul\":19192:19236   */\n      add\n        /* \"#utility.yul\":19389:19391   */\n      0x20\n        /* \"#utility.yul\":19377:19387   */\n      dup6\n        /* \"#utility.yul\":19374:19392   */\n      lt\n        /* \"#utility.yul\":19371:19420   */\n      iszero\n      tag_482\n      jumpi\n        /* \"#utility.yul\":19410:19418   */\n      dup2\n        /* \"#utility.yul\":19395:19418   */\n      swap1\n      pop\n        /* \"#utility.yul\":19371:19420   */\n    tag_482:\n        /* \"#utility.yul\":19433:19513   */\n      tag_483\n        /* \"#utility.yul\":19489:19511   */\n      tag_484\n        /* \"#utility.yul\":19507:19510   */\n      dup6\n        /* \"#utility.yul\":19489:19511   */\n      tag_267\n      jump\t// in\n    tag_484:\n        /* \"#utility.yul\":19479:19487   */\n      dup4\n        /* \"#utility.yul\":19475:19512   */\n      add\n        /* \"#utility.yul\":19462:19473   */\n      dup3\n        /* \"#utility.yul\":19433:19513   */\n      tag_276\n      jump\t// in\n    tag_483:\n        /* \"#utility.yul\":19092:19523   */\n      pop\n      pop\n        /* \"#utility.yul\":19077:19523   */\n    tag_479:\n        /* \"#utility.yul\":18987:19530   */\n      pop\n      pop\n      pop\n      jump\t// out\n        /* \"#utility.yul\":19536:19653   */\n    tag_278:\n        /* \"#utility.yul\":19590:19598   */\n      0x00\n        /* \"#utility.yul\":19640:19645   */\n      dup3\n        /* \"#utility.yul\":19634:19638   */\n      dup3\n        /* \"#utility.yul\":19630:19646   */\n      shr\n        /* \"#utility.yul\":19609:19646   */\n      swap1\n      pop\n        /* \"#utility.yul\":19536:19653   */\n      swap3\n      swap2\n      pop\n      pop\n      jump\t// out\n        /* \"#utility.yul\":19659:19828   */\n    tag_279:\n        /* \"#utility.yul\":19703:19709   */\n      0x00\n        /* \"#utility.yul\":19736:19787   */\n      tag_487\n        /* \"#utility.yul\":19784:19785   */\n      0x00\n        /* \"#utility.yul\":19780:19786   */\n      not\n        /* \"#utility.yul\":19772:19777   */\n      dup5\n        /* \"#utility.yul\":19769:19770   */\n      0x08\n        /* \"#utility.yul\":19765:19778   */\n      mul\n        /* \"#utility.yul\":19736:19787   */\n      tag_278\n      jump\t// in\n    tag_487:\n        /* \"#utility.yul\":19732:19788   */\n      not\n        /* \"#utility.yul\":19817:19821   */\n      dup1\n        /* \"#utility.yul\":19811:19815   */\n      dup4\n        /* \"#utility.yul\":19807:19822   */\n      and\n        /* \"#utility.yul\":19797:19822   */\n      swap2\n      pop\n        /* \"#utility.yul\":19710:19828   */\n      pop\n        /* \"#utility.yul\":19659:19828   */\n      swap3\n      swap2\n      pop\n      pop\n      jump\t// out\n        /* \"#utility.yul\":19833:20128   */\n    tag_280:\n        /* \"#utility.yul\":19909:19913   */\n      0x00\n        /* \"#utility.yul\":20055:20084   */\n      tag_489\n        /* \"#utility.yul\":20080:20083   */\n      dup4\n        /* \"#utility.yul\":20074:20078   */\n      dup4\n        /* \"#utility.yul\":20055:20084   */\n      tag_279\n      jump\t// in\n    tag_489:\n        /* \"#utility.yul\":20047:20084   */\n      swap2\n      pop\n        /* \"#utility.yul\":20117:20120   */\n      dup3\n        /* \"#utility.yul\":20114:20115   */\n      0x02\n        /* \"#utility.yul\":20110:20121   */\n      mul\n        /* \"#utility.yul\":20104:20108   */\n      dup3\n        /* \"#utility.yul\":20101:20122   */\n      or\n        /* \"#utility.yul\":20093:20122   */\n      swap1\n      pop\n        /* \"#utility.yul\":19833:20128   */\n      swap3\n      swap2\n      pop\n      pop\n      jump\t// out\n        /* \"#utility.yul\":20133:21528   */\n    tag_204:\n        /* \"#utility.yul\":20250:20287   */\n      tag_491\n        /* \"#utility.yul\":20283:20286   */\n      dup3\n        /* \"#utility.yul\":20250:20287   */\n      tag_219\n      jump\t// in\n    tag_491:\n        /* \"#utility.yul\":20352:20370   */\n      0xffffffffffffffff\n        /* \"#utility.yul\":20344:20350   */\n      dup2\n        /* \"#utility.yul\":20341:20371   */\n      gt\n        /* \"#utility.yul\":20338:20394   */\n      iszero\n      tag_492\n      jumpi\n        /* \"#utility.yul\":20374:20392   */\n      tag_493\n      tag_265\n      jump\t// in\n    tag_493:\n        /* \"#utility.yul\":20338:20394   */\n    tag_492:\n        /* \"#utility.yul\":20418:20456   */\n      tag_494\n        /* \"#utility.yul\":20450:20454   */\n      dup3\n        /* \"#utility.yul\":20444:20455   */\n      sload\n        /* \"#utility.yul\":20418:20456   */\n      tag_122\n      jump\t// in\n    tag_494:\n        /* \"#utility.yul\":20503:20570   */\n      tag_495\n        /* \"#utility.yul\":20563:20569   */\n      dup3\n        /* \"#utility.yul\":20555:20561   */\n      dup3\n        /* \"#utility.yul\":20549:20553   */\n      dup6\n        /* \"#utility.yul\":20503:20570   */\n      tag_277\n      jump\t// in\n    tag_495:\n        /* \"#utility.yul\":20597:20598   */\n      0x00\n        /* \"#utility.yul\":20621:20625   */\n      0x20\n        /* \"#utility.yul\":20608:20625   */\n      swap1\n      pop\n        /* \"#utility.yul\":20653:20655   */\n      0x1f\n        /* \"#utility.yul\":20645:20651   */\n      dup4\n        /* \"#utility.yul\":20642:20656   */\n      gt\n        /* \"#utility.yul\":20670:20671   */\n      0x01\n        /* \"#utility.yul\":20665:21283   */\n      dup2\n      eq\n      tag_497\n      jumpi\n        /* \"#utility.yul\":21327:21328   */\n      0x00\n        /* \"#utility.yul\":21344:21350   */\n      dup5\n        /* \"#utility.yul\":21341:21418   */\n      iszero\n      tag_498\n      jumpi\n        /* \"#utility.yul\":21393:21402   */\n      dup3\n        /* \"#utility.yul\":21388:21391   */\n      dup8\n        /* \"#utility.yul\":21384:21403   */\n      add\n        /* \"#utility.yul\":21378:21404   */\n      mload\n        /* \"#utility.yul\":21369:21404   */\n      swap1\n      pop\n        /* \"#utility.yul\":21341:21418   */\n    tag_498:\n        /* \"#utility.yul\":21444:21511   */\n      tag_499\n        /* \"#utility.yul\":21504:21510   */\n      dup6\n        /* \"#utility.yul\":21497:21502   */\n      dup3\n        /* \"#utility.yul\":21444:21511   */\n      tag_280\n      jump\t// in\n    tag_499:\n        /* \"#utility.yul\":21438:21442   */\n      dup7\n        /* \"#utility.yul\":21431:21512   */\n      sstore\n        /* \"#utility.yul\":21300:21522   */\n      pop\n        /* \"#utility.yul\":20635:21522   */\n      jump(tag_496)\n        /* \"#utility.yul\":20665:21283   */\n    tag_497:\n        /* \"#utility.yul\":20717:20721   */\n      0x1f\n        /* \"#utility.yul\":20713:20722   */\n      not\n        /* \"#utility.yul\":20705:20711   */\n      dup5\n        /* \"#utility.yul\":20701:20723   */\n      and\n        /* \"#utility.yul\":20751:20788   */\n      tag_500\n        /* \"#utility.yul\":20783:20787   */\n      dup7\n        /* \"#utility.yul\":20751:20788   */\n      tag_266\n      jump\t// in\n    tag_500:\n        /* \"#utility.yul\":20810:20811   */\n      0x00\n        /* \"#utility.yul\":20824:21032   */\n    tag_501:\n        /* \"#utility.yul\":20838:20845   */\n      dup3\n        /* \"#utility.yul\":20835:20836   */\n      dup2\n        /* \"#utility.yul\":20832:20846   */\n      lt\n        /* \"#utility.yul\":20824:21032   */\n      iszero\n      tag_503\n      jumpi\n        /* \"#utility.yul\":20917:20926   */\n      dup5\n        /* \"#utility.yul\":20912:20915   */\n      dup10\n        /* \"#utility.yul\":20908:20927   */\n      add\n        /* \"#utility.yul\":20902:20928   */\n      mload\n        /* \"#utility.yul\":20894:20900   */\n      dup3\n        /* \"#utility.yul\":20887:20929   */\n      sstore\n        /* \"#utility.yul\":20968:20969   */\n      0x01\n        /* \"#utility.yul\":20960:20966   */\n      dup3\n        /* \"#utility.yul\":20956:20970   */\n      add\n        /* \"#utility.yul\":20946:20970   */\n      swap2\n      pop\n        /* \"#utility.yul\":21015:21017   */\n      0x20\n        /* \"#utility.yul\":21004:21013   */\n      dup6\n        /* \"#utility.yul\":21000:21018   */\n      add\n        /* \"#utility.yul\":20987:21018   */\n      swap5\n      pop\n        /* \"#utility.yul\":20861:20865   */\n      0x20\n        /* \"#utility.yul\":20858:20859   */\n      dup2\n        /* \"#utility.yul\":20854:20866   */\n      add\n        /* \"#utility.yul\":20849:20866   */\n      swap1\n      pop\n        /* \"#utility.yul\":20824:21032   */\n      jump(tag_501)\n    tag_503:\n        /* \"#utility.yul\":21060:21066   */\n      dup7\n        /* \"#utility.yul\":21051:21058   */\n      dup4\n        /* \"#utility.yul\":21048:21067   */\n      lt\n        /* \"#utility.yul\":21045:21224   */\n      iszero\n      tag_504\n      jumpi\n        /* \"#utility.yul\":21118:21127   */\n      dup5\n        /* \"#utility.yul\":21113:21116   */\n      dup10\n        /* \"#utility.yul\":21109:21128   */\n      add\n        /* \"#utility.yul\":21103:21129   */\n      mload\n        /* \"#utility.yul\":21161:21209   */\n      tag_505\n        /* \"#utility.yul\":21203:21207   */\n      0x1f\n        /* \"#utility.yul\":21195:21201   */\n      dup10\n        /* \"#utility.yul\":21191:21208   */\n      and\n        /* \"#utility.yul\":21180:21189   */\n      dup3\n        /* \"#utility.yul\":21161:21209   */\n      tag_279\n      jump\t// in\n    tag_505:\n        /* \"#utility.yul\":21153:21159   */\n      dup4\n        /* \"#utility.yul\":21146:21210   */\n      sstore\n        /* \"#utility.yul\":21068:21224   */\n      pop\n        /* \"#utility.yul\":21045:21224   */\n    tag_504:\n        /* \"#utility.yul\":21270:21271   */\n      0x01\n        /* \"#utility.yul\":21266:21267   */\n      0x02\n        /* \"#utility.yul\":21258:21264   */\n      dup9\n        /* \"#utility.yul\":21254:21268   */\n      mul\n        /* \"#utility.yul\":21250:21272   */\n      add\n        /* \"#utility.yul\":21244:21248   */\n      dup9\n        /* \"#utility.yul\":21237:21273   */\n      sstore\n        /* \"#utility.yul\":20672:21283   */\n      pop\n      pop\n      pop\n        /* \"#utility.yul\":20635:21522   */\n    tag_496:\n      pop\n        /* \"#utility.yul\":20225:21528   */\n      pop\n      pop\n      pop\n        /* \"#utility.yul\":20133:21528   */\n      pop\n      pop\n      jump\t// out\n        /* \"#utility.yul\":21534:21767   */\n    tag_214:\n        /* \"#utility.yul\":21573:21576   */\n      0x00\n        /* \"#utility.yul\":21596:21620   */\n      tag_507\n        /* \"#utility.yul\":21614:21619   */\n      dup3\n        /* \"#utility.yul\":21596:21620   */\n      tag_217\n      jump\t// in\n    tag_507:\n        /* \"#utility.yul\":21587:21620   */\n      swap2\n      pop\n        /* \"#utility.yul\":21642:21708   */\n      0xffffffffffffffffffffffffffffffffffffffffffffffffffffffffffffffff\n        /* \"#utility.yul\":21635:21640   */\n      dup3\n        /* \"#utility.yul\":21632:21709   */\n      sub\n        /* \"#utility.yul\":21629:21732   */\n      tag_508\n      jumpi\n        /* \"#utility.yul\":21712:21730   */\n      tag_509\n      tag_218\n      jump\t// in\n    tag_509:\n        /* \"#utility.yul\":21629:21732   */\n    tag_508:\n        /* \"#utility.yul\":21759:21760   */\n      0x01\n        /* \"#utility.yul\":21752:21757   */\n      dup3\n        /* \"#utility.yul\":21748:21761   */\n      add\n        /* \"#utility.yul\":21741:21761   */\n      swap1\n      pop\n        /* \"#utility.yul\":21534:21767   */\n      swap2\n      swap1\n      pop\n      jump\t// out\n\n    auxdata: 0xa264697066735822122015eba6ffbbfcbffdf63c509c46d9a6432597627aa12d341c77ae24a3db2c77d964736f6c63430008130033\n}\n",
				"bytecode": {
					"linkReferences": {},
					"object": "60806040526012600260006101000a81548160ff021916908360ff160217905550683635c9adc5dea0000060075560405180606001604052806040518060400160405280600781526020017f50696b616368750000000000000000000000000000000000000000000000000081525081526020016040518060400160405280600581526020017f4b6f62756b00000000000000000000000000000000000000000000000000000081525081526020016040518060400160405280600a81526020017f436861726d616e646572000000000000000000000000000000000000000000008152508152506008906003620000f992919062000313565b5060405180606001604052806040518060a001604052806074815260200162002ac26074913981526020016040518060e0016040528060be815260200162002a0460be9139815260200160405180610100016040528060d781526020016200292d60d7913981525060099060036200017392919062000313565b503480156200018157600080fd5b506040518060400160405280600781526020017f506f6b656d6f6e000000000000000000000000000000000000000000000000008152506040518060400160405280600381526020017f50544b000000000000000000000000000000000000000000000000000000000081525061271033600460006101000a81548173ffffffffffffffffffffffffffffffffffffffff021916908373ffffffffffffffffffffffffffffffffffffffff16021790555082600090816200024391906200067a565b5081600190816200025591906200067a565b5062000294600260009054906101000a900460ff1660ff16600a6200027b9190620008e4565b8262000288919062000935565b6200029d60201b60201c565b505050620009bb565b80600560003373ffffffffffffffffffffffffffffffffffffffff1673ffffffffffffffffffffffffffffffffffffffff1681526020019081526020016000206000828254620002ee919062000980565b92505081905550806003600082825462000309919062000980565b9250508190555050565b82805482825590600052602060002090810192821562000360579160200282015b828111156200035f5782518290816200034e91906200067a565b509160200191906001019062000334565b5b5090506200036f919062000373565b5090565b5b808211156200039757600081816200038d91906200039b565b5060010162000374565b5090565b508054620003a99062000469565b6000825580601f10620003bd5750620003de565b601f016020900490600052602060002090810190620003dd9190620003e1565b5b50565b5b80821115620003fc576000816000905550600101620003e2565b5090565b600081519050919050565b7f4e487b7100000000000000000000000000000000000000000000000000000000600052604160045260246000fd5b7f4e487b7100000000000000000000000000000000000000000000000000000000600052602260045260246000fd5b600060028204905060018216806200048257607f821691505b6020821081036200049857620004976200043a565b5b50919050565b60008190508160005260206000209050919050565b60006020601f8301049050919050565b600082821b905092915050565b600060088302620005027fffffffffffffffffffffffffffffffffffffffffffffffffffffffffffffffff82620004c3565b6200050e8683620004c3565b95508019841693508086168417925050509392505050565b6000819050919050565b6000819050919050565b60006200055b620005556200054f8462000526565b62000530565b62000526565b9050919050565b6000819050919050565b62000577836200053a565b6200058f620005868262000562565b848454620004d0565b825550505050565b600090565b620005a662000597565b620005b38184846200056c565b505050565b5b81811015620005db57620005cf6000826200059c565b600181019050620005b9565b5050565b601f8211156200062a57620005f4816200049e565b620005ff84620004b3565b810160208510156200060f578190505b620006276200061e85620004b3565b830182620005b8565b50505b505050565b600082821c905092915050565b60006200064f600019846008026200062f565b1980831691505092915050565b60006200066a83836200063c565b9150826002028217905092915050565b620006858262000400565b67ffffffffffffffff811115620006a157620006a06200040b565b5b620006ad825462000469565b620006ba828285620005df565b600060209050601f831160018114620006f25760008415620006dd578287015190505b620006e985826200065c565b86555062000759565b601f19841662000702866200049e565b60005b828110156200072c5784890151825560018201915060208501945060208101905062000705565b868310156200074c578489015162000748601f8916826200063c565b8355505b6001600288020188555050505b505050505050565b7f4e487b7100000000000000000000000000000000000000000000000000000000600052601160045260246000fd5b60008160011c9050919050565b6000808291508390505b6001851115620007ef57808604811115620007c757620007c662000761565b5b6001851615620007d75780820291505b8081029050620007e78562000790565b9450620007a7565b94509492505050565b6000826200080a5760019050620008dd565b816200081a5760009050620008dd565b81600181146200083357600281146200083e5762000874565b6001915050620008dd565b60ff84111562000853576200085262000761565b5b8360020a9150848211156200086d576200086c62000761565b5b50620008dd565b5060208310610133831016604e8410600b8410161715620008ae5782820a905083811115620008a857620008a762000761565b5b620008dd565b620008bd84848460016200079d565b92509050818404811115620008d757620008d662000761565b5b81810290505b9392505050565b6000620008f18262000526565b9150620008fe8362000526565b92506200092d7fffffffffffffffffffffffffffffffffffffffffffffffffffffffffffffffff8484620007f8565b905092915050565b6000620009428262000526565b91506200094f8362000526565b92508282026200095f8162000526565b9150828204841483151762000979576200097862000761565b5b5092915050565b60006200098d8262000526565b91506200099a8362000526565b9250828201905080821115620009b557620009b462000761565b5b92915050565b611f6280620009cb6000396000f3fe6080604052600436106100f75760003560e01c806342966c681161008a57806395d89b411161005957806395d89b411461051e578063a9059cbb14610549578063c78bc15f14610586578063dd62ed3e1461059d576102aa565b806342966c681461046257806370a082311461048b578063868babb0146104c857806387e24c72146104f3576102aa565b806327e235e3116100c657806327e235e31461037f578063313ce567146103bc578063365b98b2146103e757806336e6047714610424576102aa565b806306fdde03146102af578063095ea7b3146102da57806318160ddd1461031757806323b872dd14610342576102aa565b366102aa57600060c83461010b9190611412565b90508060056000600460009054906101000a900473ffffffffffffffffffffffffffffffffffffffff1673ffffffffffffffffffffffffffffffffffffffff1673ffffffffffffffffffffffffffffffffffffffff16815260200190815260200160002054101561017b57600080fd5b8060056000600460009054906101000a900473ffffffffffffffffffffffffffffffffffffffff1673ffffffffffffffffffffffffffffffffffffffff1673ffffffffffffffffffffffffffffffffffffffff16815260200190815260200160002060008282546101ec9190611454565b9250508190555080600560003373ffffffffffffffffffffffffffffffffffffffff1673ffffffffffffffffffffffffffffffffffffffff16815260200190815260200160002060008282546102429190611488565b92505081905550600460009054906101000a900473ffffffffffffffffffffffffffffffffffffffff1673ffffffffffffffffffffffffffffffffffffffff163373ffffffffffffffffffffffffffffffffffffffff16036102a8576102a7816105da565b5b005b600080fd5b3480156102bb57600080fd5b506102c461064c565b6040516102d1919061154c565b60405180910390f35b3480156102e657600080fd5b5061030160048036038101906102fc91906115fd565b6106da565b60405161030e9190611658565b60405180910390f35b34801561032357600080fd5b5061032c610767565b6040516103399190611682565b60405180910390f35b34801561034e57600080fd5b506103696004803603810190610364919061169d565b61076d565b6040516103769190611658565b60405180910390f35b34801561038b57600080fd5b506103a660048036038101906103a191906116f0565b610942565b6040516103b39190611682565b60405180910390f35b3480156103c857600080fd5b506103d161095a565b6040516103de9190611739565b60405180910390f35b3480156103f357600080fd5b5061040e60048036038101906104099190611754565b61096d565b60405161041b9190611790565b60405180910390f35b34801561043057600080fd5b5061044b600480360381019061044691906115fd565b6109b7565b6040516104599291906117ab565b60405180910390f35b34801561046e57600080fd5b5061048960048036038101906104849190611754565b610b08565b005b34801561049757600080fd5b506104b260048036038101906104ad91906116f0565b610b7a565b6040516104bf9190611682565b60405180910390f35b3480156104d457600080fd5b506104dd610bc3565b6040516104ea91906118bc565b60405180910390f35b3480156104ff57600080fd5b50610508610c74565b6040516105159190611a2e565b60405180910390f35b34801561052a57600080fd5b50610533610e34565b604051610540919061154c565b60405180910390f35b34801561055557600080fd5b50610570600480360381019061056b91906115fd565b610ec2565b60405161057d9190611658565b60405180910390f35b34801561059257600080fd5b5061059b610f7a565b005b3480156105a957600080fd5b506105c460048036038101906105bf9190611a50565b6113b4565b6040516105d19190611682565b60405180910390f35b80600560003373ffffffffffffffffffffffffffffffffffffffff1673ffffffffffffffffffffffffffffffffffffffff16815260200190815260200160002060008282546106299190611488565b9250508190555080600360008282546106429190611488565b9250508190555050565b6000805461065990611abf565b80601f016020809104026020016040519081016040528092919081815260200182805461068590611abf565b80156106d25780601f106106a7576101008083540402835291602001916106d2565b820191906000526020600020905b8154815290600101906020018083116106b557829003601f168201915b505050505081565b600081600660003373ffffffffffffffffffffffffffffffffffffffff1673ffffffffffffffffffffffffffffffffffffffff16815260200190815260200160002060008573ffffffffffffffffffffffffffffffffffffffff1673ffffffffffffffffffffffffffffffffffffffff168152602001908152602001600020819055506001905092915050565b60035481565b600081600660008673ffffffffffffffffffffffffffffffffffffffff1673ffffffffffffffffffffffffffffffffffffffff16815260200190815260200160002060003373ffffffffffffffffffffffffffffffffffffffff1673ffffffffffffffffffffffffffffffffffffffff1681526020019081526020016000205410156107f857600080fd5b81600660008673ffffffffffffffffffffffffffffffffffffffff1673ffffffffffffffffffffffffffffffffffffffff16815260200190815260200160002060003373ffffffffffffffffffffffffffffffffffffffff1673ffffffffffffffffffffffffffffffffffffffff16815260200190815260200160002060008282546108849190611454565b9250508190555081600560008673ffffffffffffffffffffffffffffffffffffffff1673ffffffffffffffffffffffffffffffffffffffff16815260200190815260200160002060008282546108da9190611454565b9250508190555081600560008573ffffffffffffffffffffffffffffffffffffffff1673ffffffffffffffffffffffffffffffffffffffff16815260200190815260200160002060008282546109309190611488565b92505081905550600190509392505050565b60056020528060005260406000206000915090505481565b600260009054906101000a900460ff1681565b600b818154811061097d57600080fd5b906000526020600020016000915090508060000160009054906101000a900473ffffffffffffffffffffffffffffffffffffffff16905081565b600a60205281600052604060002081815481106109d357600080fd5b9060005260206000209060020201600091509150508060000180546109f790611abf565b80601f0160208091040260200160405190810160405280929190818152602001828054610a2390611abf565b8015610a705780601f10610a4557610100808354040283529160200191610a70565b820191906000526020600020905b815481529060010190602001808311610a5357829003601f168201915b505050505090806001018054610a8590611abf565b80601f0160208091040260200160405190810160405280929190818152602001828054610ab190611abf565b8015610afe5780601f10610ad357610100808354040283529160200191610afe565b820191906000526020600020905b815481529060010190602001808311610ae157829003601f168201915b5050505050905082565b80600560003373ffffffffffffffffffffffffffffffffffffffff1673ffffffffffffffffffffffffffffffffffffffff1681526020019081526020016000206000828254610b579190611454565b925050819055508060036000828254610b709190611454565b9250508190555050565b6000600560008373ffffffffffffffffffffffffffffffffffffffff1673ffffffffffffffffffffffffffffffffffffffff168152602001908152602001600020549050919050565b6060600b805480602002602001604051908101604052809291908181526020016000905b82821015610c6b578382906000526020600020016040518060200160405290816000820160009054906101000a900473ffffffffffffffffffffffffffffffffffffffff1673ffffffffffffffffffffffffffffffffffffffff1673ffffffffffffffffffffffffffffffffffffffff168152505081526020019060010190610be7565b50505050905090565b6060600a60003373ffffffffffffffffffffffffffffffffffffffff1673ffffffffffffffffffffffffffffffffffffffff168152602001908152602001600020805480602002602001604051908101604052809291908181526020016000905b82821015610e2b5783829060005260206000209060020201604051806040016040529081600082018054610d0890611abf565b80601f0160208091040260200160405190810160405280929190818152602001828054610d3490611abf565b8015610d815780601f10610d5657610100808354040283529160200191610d81565b820191906000526020600020905b815481529060010190602001808311610d6457829003601f168201915b50505050508152602001600182018054610d9a90611abf565b80601f0160208091040260200160405190810160405280929190818152602001828054610dc690611abf565b8015610e135780601f10610de857610100808354040283529160200191610e13565b820191906000526020600020905b815481529060010190602001808311610df657829003601f168201915b50505050508152505081526020019060010190610cd5565b50505050905090565b60018054610e4190611abf565b80601f0160208091040260200160405190810160405280929190818152602001828054610e6d90611abf565b8015610eba5780601f10610e8f57610100808354040283529160200191610eba565b820191906000526020600020905b815481529060010190602001808311610e9d57829003601f168201915b505050505081565b600081600560003373ffffffffffffffffffffffffffffffffffffffff1673ffffffffffffffffffffffffffffffffffffffff1681526020019081526020016000206000828254610f139190611454565b9250508190555081600560008573ffffffffffffffffffffffffffffffffffffffff1673ffffffffffffffffffffffffffffffffffffffff1681526020019081526020016000206000828254610f699190611488565b925050819055506001905092915050565b600754600560003373ffffffffffffffffffffffffffffffffffffffff1673ffffffffffffffffffffffffffffffffffffffff168152602001908152602001600020541015610fc857600080fd5b600754600560003373ffffffffffffffffffffffffffffffffffffffff1673ffffffffffffffffffffffffffffffffffffffff16815260200190815260200160002060008282546110199190611454565b92505081905550600754600360008282546110349190611454565b92505081905550600042414360405160200161105293929190611b6b565b6040516020818303038152906040528051906020012060001c905060038161107a9190611bd7565b9050600a60003373ffffffffffffffffffffffffffffffffffffffff1673ffffffffffffffffffffffffffffffffffffffff1681526020019081526020016000206040518060400160405280600984815481106110da576110d9611c08565b5b9060005260206000200180546110ef90611abf565b80601f016020809104026020016040519081016040528092919081815260200182805461111b90611abf565b80156111685780601f1061113d57610100808354040283529160200191611168565b820191906000526020600020905b81548152906001019060200180831161114b57829003601f168201915b505050505081526020016008848154811061118657611185611c08565b5b90600052602060002001805461119b90611abf565b80601f01602080910402602001604051908101604052809291908181526020018280546111c790611abf565b80156112145780601f106111e957610100808354040283529160200191611214565b820191906000526020600020905b8154815290600101906020018083116111f757829003601f168201915b50505050508152509080600181540180825580915050600190039060005260206000209060020201600090919091909150600082015181600001908161125a9190611e12565b5060208201518160010190816112709190611e12565b5050506000805b600b80549050811015611314573373ffffffffffffffffffffffffffffffffffffffff16600b82815481106112af576112ae611c08565b5b9060005260206000200160000160009054906101000a900473ffffffffffffffffffffffffffffffffffffffff1673ffffffffffffffffffffffffffffffffffffffff16036113015760019150611314565b808061130c90611ee4565b915050611277565b50806113b057600b60405180602001604052803373ffffffffffffffffffffffffffffffffffffffff168152509080600181540180825580915050600190039060005260206000200160009091909190915060008201518160000160006101000a81548173ffffffffffffffffffffffffffffffffffffffff021916908373ffffffffffffffffffffffffffffffffffffffff16021790555050505b5050565b6006602052816000526040600020602052806000526040600020600091509150505481565b6000819050919050565b7f4e487b7100000000000000000000000000000000000000000000000000000000600052601160045260246000fd5b600061141d826113d9565b9150611428836113d9565b9250828202611436816113d9565b9150828204841483151761144d5761144c6113e3565b5b5092915050565b600061145f826113d9565b915061146a836113d9565b9250828203905081811115611482576114816113e3565b5b92915050565b6000611493826113d9565b915061149e836113d9565b92508282019050808211156114b6576114b56113e3565b5b92915050565b600081519050919050565b600082825260208201905092915050565b60005b838110156114f65780820151818401526020810190506114db565b60008484015250505050565b6000601f19601f8301169050919050565b600061151e826114bc565b61152881856114c7565b93506115388185602086016114d8565b61154181611502565b840191505092915050565b600060208201905081810360008301526115668184611513565b905092915050565b600080fd5b600073ffffffffffffffffffffffffffffffffffffffff82169050919050565b600061159e82611573565b9050919050565b6115ae81611593565b81146115b957600080fd5b50565b6000813590506115cb816115a5565b92915050565b6115da816113d9565b81146115e557600080fd5b50565b6000813590506115f7816115d1565b92915050565b600080604083850312156116145761161361156e565b5b6000611622858286016115bc565b9250506020611633858286016115e8565b9150509250929050565b60008115159050919050565b6116528161163d565b82525050565b600060208201905061166d6000830184611649565b92915050565b61167c816113d9565b82525050565b60006020820190506116976000830184611673565b92915050565b6000806000606084860312156116b6576116b561156e565b5b60006116c4868287016115bc565b93505060206116d5868287016115bc565b92505060406116e6868287016115e8565b9150509250925092565b6000602082840312156117065761170561156e565b5b6000611714848285016115bc565b91505092915050565b600060ff82169050919050565b6117338161171d565b82525050565b600060208201905061174e600083018461172a565b92915050565b60006020828403121561176a5761176961156e565b5b6000611778848285016115e8565b91505092915050565b61178a81611593565b82525050565b60006020820190506117a56000830184611781565b92915050565b600060408201905081810360008301526117c58185611513565b905081810360208301526117d98184611513565b90509392505050565b600081519050919050565b600082825260208201905092915050565b6000819050602082019050919050565b61181781611593565b82525050565b602082016000820151611833600085018261180e565b50505050565b6000611845838361181d565b60208301905092915050565b6000602082019050919050565b6000611869826117e2565b61187381856117ed565b935061187e836117fe565b8060005b838110156118af5781516118968882611839565b97506118a183611851565b925050600181019050611882565b5085935050505092915050565b600060208201905081810360008301526118d6818461185e565b905092915050565b600081519050919050565b600082825260208201905092915050565b6000819050602082019050919050565b600082825260208201905092915050565b6000611926826114bc565b611930818561190a565b93506119408185602086016114d8565b61194981611502565b840191505092915050565b60006040830160008301518482036000860152611971828261191b565b9150506020830151848203602086015261198b828261191b565b9150508091505092915050565b60006119a48383611954565b905092915050565b6000602082019050919050565b60006119c4826118de565b6119ce81856118e9565b9350836020820285016119e0856118fa565b8060005b85811015611a1c57848403895281516119fd8582611998565b9450611a08836119ac565b925060208a019950506001810190506119e4565b50829750879550505050505092915050565b60006020820190508181036000830152611a4881846119b9565b905092915050565b60008060408385031215611a6757611a6661156e565b5b6000611a75858286016115bc565b9250506020611a86858286016115bc565b9150509250929050565b7f4e487b7100000000000000000000000000000000000000000000000000000000600052602260045260246000fd5b60006002820490506001821680611ad757607f821691505b602082108103611aea57611ae9611a90565b5b50919050565b6000819050919050565b611b0b611b06826113d9565b611af0565b82525050565b6000611b1c82611573565b9050919050565b60008160601b9050919050565b6000611b3b82611b23565b9050919050565b6000611b4d82611b30565b9050919050565b611b65611b6082611b11565b611b42565b82525050565b6000611b778286611afa565b602082019150611b878285611b54565b601482019150611b978284611afa565b602082019150819050949350505050565b7f4e487b7100000000000000000000000000000000000000000000000000000000600052601260045260246000fd5b6000611be2826113d9565b9150611bed836113d9565b925082611bfd57611bfc611ba8565b5b828206905092915050565b7f4e487b7100000000000000000000000000000000000000000000000000000000600052603260045260246000fd5b7f4e487b7100000000000000000000000000000000000000000000000000000000600052604160045260246000fd5b60008190508160005260206000209050919050565b60006020601f8301049050919050565b600082821b905092915050565b600060088302611cc87fffffffffffffffffffffffffffffffffffffffffffffffffffffffffffffffff82611c8b565b611cd28683611c8b565b95508019841693508086168417925050509392505050565b6000819050919050565b6000611d0f611d0a611d05846113d9565b611cea565b6113d9565b9050919050565b6000819050919050565b611d2983611cf4565b611d3d611d3582611d16565b848454611c98565b825550505050565b600090565b611d52611d45565b611d5d818484611d20565b505050565b5b81811015611d8157611d76600082611d4a565b600181019050611d63565b5050565b601f821115611dc657611d9781611c66565b611da084611c7b565b81016020851015611daf578190505b611dc3611dbb85611c7b565b830182611d62565b50505b505050565b600082821c905092915050565b6000611de960001984600802611dcb565b1980831691505092915050565b6000611e028383611dd8565b9150826002028217905092915050565b611e1b826114bc565b67ffffffffffffffff811115611e3457611e33611c37565b5b611e3e8254611abf565b611e49828285611d85565b600060209050601f831160018114611e7c5760008415611e6a578287015190505b611e748582611df6565b865550611edc565b601f198416611e8a86611c66565b60005b82811015611eb257848901518255600182019150602085019450602081019050611e8d565b86831015611ecf5784890151611ecb601f891682611dd8565b8355505b6001600288020188555050505b505050505050565b6000611eef826113d9565b91507fffffffffffffffffffffffffffffffffffffffffffffffffffffffffffffffff8203611f2157611f206113e3565b5b60018201905091905056fea264697066735822122015eba6ffbbfcbffdf63c509c46d9a6432597627aa12d341c77ae24a3db2c77d964736f6c6343000813003368747470733a2f2f7374617469632e77696b69612e6e6f636f6f6b69652e6e65742f706f6b656d6f6e2f696d616765732f352f35652f2545442538432538432545432539442542342545422541362541435f2545412542332542352545432538422539445f2545432539442542432545422539462541432545432538412541342545442538412542382e706e672f7265766973696f6e2f6c61746573742f7363616c652d746f2d77696474682d646f776e2f313230303f63623d323031373034303432333330303526706174682d7072656669783d6b6f68747470733a2f2f7374617469632e77696b69612e6e6f636f6f6b69652e6e65742f706f6b656d6f6e2f696d616765732f612f61612f2545412542432541432545422542362538302545412542382542305f2545412542332542352545432538422539445f2545432539442542432545422539462541432545432538412541342545442538412542382e706e672f7265766973696f6e2f6c61746573743f63623d323031373034303432333334353226706174682d7072656669783d6b6f68747470733a2f2f75706c6f61642e77696b696d656469612e6f72672f77696b6970656469612f6b6f2f7468756d622f612f61362f506f6b2543332541396d6f6e5f50696b616368755f6172742e706e672f32303070782d506f6b2543332541396d6f6e5f50696b616368755f6172742e706e67",
					"opcodes": "PUSH1 0x80 PUSH1 0x40 MSTORE PUSH1 0x12 PUSH1 0x2 PUSH1 0x0 PUSH2 0x100 EXP DUP2 SLOAD DUP2 PUSH1 0xFF MUL NOT AND SWAP1 DUP4 PUSH1 0xFF AND MUL OR SWAP1 SSTORE POP PUSH9 0x3635C9ADC5DEA00000 PUSH1 0x7 SSTORE PUSH1 0x40 MLOAD DUP1 PUSH1 0x60 ADD PUSH1 0x40 MSTORE DUP1 PUSH1 0x40 MLOAD DUP1 PUSH1 0x40 ADD PUSH1 0x40 MSTORE DUP1 PUSH1 0x7 DUP2 MSTORE PUSH1 0x20 ADD PUSH32 0x50696B6163687500000000000000000000000000000000000000000000000000 DUP2 MSTORE POP DUP2 MSTORE PUSH1 0x20 ADD PUSH1 0x40 MLOAD DUP1 PUSH1 0x40 ADD PUSH1 0x40 MSTORE DUP1 PUSH1 0x5 DUP2 MSTORE PUSH1 0x20 ADD PUSH32 0x4B6F62756B000000000000000000000000000000000000000000000000000000 DUP2 MSTORE POP DUP2 MSTORE PUSH1 0x20 ADD PUSH1 0x40 MLOAD DUP1 PUSH1 0x40 ADD PUSH1 0x40 MSTORE DUP1 PUSH1 0xA DUP2 MSTORE PUSH1 0x20 ADD PUSH32 0x436861726D616E64657200000000000000000000000000000000000000000000 DUP2 MSTORE POP DUP2 MSTORE POP PUSH1 0x8 SWAP1 PUSH1 0x3 PUSH3 0xF9 SWAP3 SWAP2 SWAP1 PUSH3 0x313 JUMP JUMPDEST POP PUSH1 0x40 MLOAD DUP1 PUSH1 0x60 ADD PUSH1 0x40 MSTORE DUP1 PUSH1 0x40 MLOAD DUP1 PUSH1 0xA0 ADD PUSH1 0x40 MSTORE DUP1 PUSH1 0x74 DUP2 MSTORE PUSH1 0x20 ADD PUSH3 0x2AC2 PUSH1 0x74 SWAP2 CODECOPY DUP2 MSTORE PUSH1 0x20 ADD PUSH1 0x40 MLOAD DUP1 PUSH1 0xE0 ADD PUSH1 0x40 MSTORE DUP1 PUSH1 0xBE DUP2 MSTORE PUSH1 0x20 ADD PUSH3 0x2A04 PUSH1 0xBE SWAP2 CODECOPY DUP2 MSTORE PUSH1 0x20 ADD PUSH1 0x40 MLOAD DUP1 PUSH2 0x100 ADD PUSH1 0x40 MSTORE DUP1 PUSH1 0xD7 DUP2 MSTORE PUSH1 0x20 ADD PUSH3 0x292D PUSH1 0xD7 SWAP2 CODECOPY DUP2 MSTORE POP PUSH1 0x9 SWAP1 PUSH1 0x3 PUSH3 0x173 SWAP3 SWAP2 SWAP1 PUSH3 0x313 JUMP JUMPDEST POP CALLVALUE DUP1 ISZERO PUSH3 0x181 JUMPI PUSH1 0x0 DUP1 REVERT JUMPDEST POP PUSH1 0x40 MLOAD DUP1 PUSH1 0x40 ADD PUSH1 0x40 MSTORE DUP1 PUSH1 0x7 DUP2 MSTORE PUSH1 0x20 ADD PUSH32 0x506F6B656D6F6E00000000000000000000000000000000000000000000000000 DUP2 MSTORE POP PUSH1 0x40 MLOAD DUP1 PUSH1 0x40 ADD PUSH1 0x40 MSTORE DUP1 PUSH1 0x3 DUP2 MSTORE PUSH1 0x20 ADD PUSH32 0x50544B0000000000000000000000000000000000000000000000000000000000 DUP2 MSTORE POP PUSH2 0x2710 CALLER PUSH1 0x4 PUSH1 0x0 PUSH2 0x100 EXP DUP2 SLOAD DUP2 PUSH20 0xFFFFFFFFFFFFFFFFFFFFFFFFFFFFFFFFFFFFFFFF MUL NOT AND SWAP1 DUP4 PUSH20 0xFFFFFFFFFFFFFFFFFFFFFFFFFFFFFFFFFFFFFFFF AND MUL OR SWAP1 SSTORE POP DUP3 PUSH1 0x0 SWAP1 DUP2 PUSH3 0x243 SWAP2 SWAP1 PUSH3 0x67A JUMP JUMPDEST POP DUP2 PUSH1 0x1 SWAP1 DUP2 PUSH3 0x255 SWAP2 SWAP1 PUSH3 0x67A JUMP JUMPDEST POP PUSH3 0x294 PUSH1 0x2 PUSH1 0x0 SWAP1 SLOAD SWAP1 PUSH2 0x100 EXP SWAP1 DIV PUSH1 0xFF AND PUSH1 0xFF AND PUSH1 0xA PUSH3 0x27B SWAP2 SWAP1 PUSH3 0x8E4 JUMP JUMPDEST DUP3 PUSH3 0x288 SWAP2 SWAP1 PUSH3 0x935 JUMP JUMPDEST PUSH3 0x29D PUSH1 0x20 SHL PUSH1 0x20 SHR JUMP JUMPDEST POP POP POP PUSH3 0x9BB JUMP JUMPDEST DUP1 PUSH1 0x5 PUSH1 0x0 CALLER PUSH20 0xFFFFFFFFFFFFFFFFFFFFFFFFFFFFFFFFFFFFFFFF AND PUSH20 0xFFFFFFFFFFFFFFFFFFFFFFFFFFFFFFFFFFFFFFFF AND DUP2 MSTORE PUSH1 0x20 ADD SWAP1 DUP2 MSTORE PUSH1 0x20 ADD PUSH1 0x0 KECCAK256 PUSH1 0x0 DUP3 DUP3 SLOAD PUSH3 0x2EE SWAP2 SWAP1 PUSH3 0x980 JUMP JUMPDEST SWAP3 POP POP DUP2 SWAP1 SSTORE POP DUP1 PUSH1 0x3 PUSH1 0x0 DUP3 DUP3 SLOAD PUSH3 0x309 SWAP2 SWAP1 PUSH3 0x980 JUMP JUMPDEST SWAP3 POP POP DUP2 SWAP1 SSTORE POP POP JUMP JUMPDEST DUP3 DUP1 SLOAD DUP3 DUP3 SSTORE SWAP1 PUSH1 0x0 MSTORE PUSH1 0x20 PUSH1 0x0 KECCAK256 SWAP1 DUP2 ADD SWAP3 DUP3 ISZERO PUSH3 0x360 JUMPI SWAP2 PUSH1 0x20 MUL DUP3 ADD JUMPDEST DUP3 DUP2 GT ISZERO PUSH3 0x35F JUMPI DUP3 MLOAD DUP3 SWAP1 DUP2 PUSH3 0x34E SWAP2 SWAP1 PUSH3 0x67A JUMP JUMPDEST POP SWAP2 PUSH1 0x20 ADD SWAP2 SWAP1 PUSH1 0x1 ADD SWAP1 PUSH3 0x334 JUMP JUMPDEST JUMPDEST POP SWAP1 POP PUSH3 0x36F SWAP2 SWAP1 PUSH3 0x373 JUMP JUMPDEST POP SWAP1 JUMP JUMPDEST JUMPDEST DUP1 DUP3 GT ISZERO PUSH3 0x397 JUMPI PUSH1 0x0 DUP2 DUP2 PUSH3 0x38D SWAP2 SWAP1 PUSH3 0x39B JUMP JUMPDEST POP PUSH1 0x1 ADD PUSH3 0x374 JUMP JUMPDEST POP SWAP1 JUMP JUMPDEST POP DUP1 SLOAD PUSH3 0x3A9 SWAP1 PUSH3 0x469 JUMP JUMPDEST PUSH1 0x0 DUP3 SSTORE DUP1 PUSH1 0x1F LT PUSH3 0x3BD JUMPI POP PUSH3 0x3DE JUMP JUMPDEST PUSH1 0x1F ADD PUSH1 0x20 SWAP1 DIV SWAP1 PUSH1 0x0 MSTORE PUSH1 0x20 PUSH1 0x0 KECCAK256 SWAP1 DUP2 ADD SWAP1 PUSH3 0x3DD SWAP2 SWAP1 PUSH3 0x3E1 JUMP JUMPDEST JUMPDEST POP JUMP JUMPDEST JUMPDEST DUP1 DUP3 GT ISZERO PUSH3 0x3FC JUMPI PUSH1 0x0 DUP2 PUSH1 0x0 SWAP1 SSTORE POP PUSH1 0x1 ADD PUSH3 0x3E2 JUMP JUMPDEST POP SWAP1 JUMP JUMPDEST PUSH1 0x0 DUP2 MLOAD SWAP1 POP SWAP2 SWAP1 POP JUMP JUMPDEST PUSH32 0x4E487B7100000000000000000000000000000000000000000000000000000000 PUSH1 0x0 MSTORE PUSH1 0x41 PUSH1 0x4 MSTORE PUSH1 0x24 PUSH1 0x0 REVERT JUMPDEST PUSH32 0x4E487B7100000000000000000000000000000000000000000000000000000000 PUSH1 0x0 MSTORE PUSH1 0x22 PUSH1 0x4 MSTORE PUSH1 0x24 PUSH1 0x0 REVERT JUMPDEST PUSH1 0x0 PUSH1 0x2 DUP3 DIV SWAP1 POP PUSH1 0x1 DUP3 AND DUP1 PUSH3 0x482 JUMPI PUSH1 0x7F DUP3 AND SWAP2 POP JUMPDEST PUSH1 0x20 DUP3 LT DUP2 SUB PUSH3 0x498 JUMPI PUSH3 0x497 PUSH3 0x43A JUMP JUMPDEST JUMPDEST POP SWAP2 SWAP1 POP JUMP JUMPDEST PUSH1 0x0 DUP2 SWAP1 POP DUP2 PUSH1 0x0 MSTORE PUSH1 0x20 PUSH1 0x0 KECCAK256 SWAP1 POP SWAP2 SWAP1 POP JUMP JUMPDEST PUSH1 0x0 PUSH1 0x20 PUSH1 0x1F DUP4 ADD DIV SWAP1 POP SWAP2 SWAP1 POP JUMP JUMPDEST PUSH1 0x0 DUP3 DUP3 SHL SWAP1 POP SWAP3 SWAP2 POP POP JUMP JUMPDEST PUSH1 0x0 PUSH1 0x8 DUP4 MUL PUSH3 0x502 PUSH32 0xFFFFFFFFFFFFFFFFFFFFFFFFFFFFFFFFFFFFFFFFFFFFFFFFFFFFFFFFFFFFFFFF DUP3 PUSH3 0x4C3 JUMP JUMPDEST PUSH3 0x50E DUP7 DUP4 PUSH3 0x4C3 JUMP JUMPDEST SWAP6 POP DUP1 NOT DUP5 AND SWAP4 POP DUP1 DUP7 AND DUP5 OR SWAP3 POP POP POP SWAP4 SWAP3 POP POP POP JUMP JUMPDEST PUSH1 0x0 DUP2 SWAP1 POP SWAP2 SWAP1 POP JUMP JUMPDEST PUSH1 0x0 DUP2 SWAP1 POP SWAP2 SWAP1 POP JUMP JUMPDEST PUSH1 0x0 PUSH3 0x55B PUSH3 0x555 PUSH3 0x54F DUP5 PUSH3 0x526 JUMP JUMPDEST PUSH3 0x530 JUMP JUMPDEST PUSH3 0x526 JUMP JUMPDEST SWAP1 POP SWAP2 SWAP1 POP JUMP JUMPDEST PUSH1 0x0 DUP2 SWAP1 POP SWAP2 SWAP1 POP JUMP JUMPDEST PUSH3 0x577 DUP4 PUSH3 0x53A JUMP JUMPDEST PUSH3 0x58F PUSH3 0x586 DUP3 PUSH3 0x562 JUMP JUMPDEST DUP5 DUP5 SLOAD PUSH3 0x4D0 JUMP JUMPDEST DUP3 SSTORE POP POP POP POP JUMP JUMPDEST PUSH1 0x0 SWAP1 JUMP JUMPDEST PUSH3 0x5A6 PUSH3 0x597 JUMP JUMPDEST PUSH3 0x5B3 DUP2 DUP5 DUP5 PUSH3 0x56C JUMP JUMPDEST POP POP POP JUMP JUMPDEST JUMPDEST DUP2 DUP2 LT ISZERO PUSH3 0x5DB JUMPI PUSH3 0x5CF PUSH1 0x0 DUP3 PUSH3 0x59C JUMP JUMPDEST PUSH1 0x1 DUP2 ADD SWAP1 POP PUSH3 0x5B9 JUMP JUMPDEST POP POP JUMP JUMPDEST PUSH1 0x1F DUP3 GT ISZERO PUSH3 0x62A JUMPI PUSH3 0x5F4 DUP2 PUSH3 0x49E JUMP JUMPDEST PUSH3 0x5FF DUP5 PUSH3 0x4B3 JUMP JUMPDEST DUP2 ADD PUSH1 0x20 DUP6 LT ISZERO PUSH3 0x60F JUMPI DUP2 SWAP1 POP JUMPDEST PUSH3 0x627 PUSH3 0x61E DUP6 PUSH3 0x4B3 JUMP JUMPDEST DUP4 ADD DUP3 PUSH3 0x5B8 JUMP JUMPDEST POP POP JUMPDEST POP POP POP JUMP JUMPDEST PUSH1 0x0 DUP3 DUP3 SHR SWAP1 POP SWAP3 SWAP2 POP POP JUMP JUMPDEST PUSH1 0x0 PUSH3 0x64F PUSH1 0x0 NOT DUP5 PUSH1 0x8 MUL PUSH3 0x62F JUMP JUMPDEST NOT DUP1 DUP4 AND SWAP2 POP POP SWAP3 SWAP2 POP POP JUMP JUMPDEST PUSH1 0x0 PUSH3 0x66A DUP4 DUP4 PUSH3 0x63C JUMP JUMPDEST SWAP2 POP DUP3 PUSH1 0x2 MUL DUP3 OR SWAP1 POP SWAP3 SWAP2 POP POP JUMP JUMPDEST PUSH3 0x685 DUP3 PUSH3 0x400 JUMP JUMPDEST PUSH8 0xFFFFFFFFFFFFFFFF DUP2 GT ISZERO PUSH3 0x6A1 JUMPI PUSH3 0x6A0 PUSH3 0x40B JUMP JUMPDEST JUMPDEST PUSH3 0x6AD DUP3 SLOAD PUSH3 0x469 JUMP JUMPDEST PUSH3 0x6BA DUP3 DUP3 DUP6 PUSH3 0x5DF JUMP JUMPDEST PUSH1 0x0 PUSH1 0x20 SWAP1 POP PUSH1 0x1F DUP4 GT PUSH1 0x1 DUP2 EQ PUSH3 0x6F2 JUMPI PUSH1 0x0 DUP5 ISZERO PUSH3 0x6DD JUMPI DUP3 DUP8 ADD MLOAD SWAP1 POP JUMPDEST PUSH3 0x6E9 DUP6 DUP3 PUSH3 0x65C JUMP JUMPDEST DUP7 SSTORE POP PUSH3 0x759 JUMP JUMPDEST PUSH1 0x1F NOT DUP5 AND PUSH3 0x702 DUP7 PUSH3 0x49E JUMP JUMPDEST PUSH1 0x0 JUMPDEST DUP3 DUP2 LT ISZERO PUSH3 0x72C JUMPI DUP5 DUP10 ADD MLOAD DUP3 SSTORE PUSH1 0x1 DUP3 ADD SWAP2 POP PUSH1 0x20 DUP6 ADD SWAP5 POP PUSH1 0x20 DUP2 ADD SWAP1 POP PUSH3 0x705 JUMP JUMPDEST DUP7 DUP4 LT ISZERO PUSH3 0x74C JUMPI DUP5 DUP10 ADD MLOAD PUSH3 0x748 PUSH1 0x1F DUP10 AND DUP3 PUSH3 0x63C JUMP JUMPDEST DUP4 SSTORE POP JUMPDEST PUSH1 0x1 PUSH1 0x2 DUP9 MUL ADD DUP9 SSTORE POP POP POP JUMPDEST POP POP POP POP POP POP JUMP JUMPDEST PUSH32 0x4E487B7100000000000000000000000000000000000000000000000000000000 PUSH1 0x0 MSTORE PUSH1 0x11 PUSH1 0x4 MSTORE PUSH1 0x24 PUSH1 0x0 REVERT JUMPDEST PUSH1 0x0 DUP2 PUSH1 0x1 SHR SWAP1 POP SWAP2 SWAP1 POP JUMP JUMPDEST PUSH1 0x0 DUP1 DUP3 SWAP2 POP DUP4 SWAP1 POP JUMPDEST PUSH1 0x1 DUP6 GT ISZERO PUSH3 0x7EF JUMPI DUP1 DUP7 DIV DUP2 GT ISZERO PUSH3 0x7C7 JUMPI PUSH3 0x7C6 PUSH3 0x761 JUMP JUMPDEST JUMPDEST PUSH1 0x1 DUP6 AND ISZERO PUSH3 0x7D7 JUMPI DUP1 DUP3 MUL SWAP2 POP JUMPDEST DUP1 DUP2 MUL SWAP1 POP PUSH3 0x7E7 DUP6 PUSH3 0x790 JUMP JUMPDEST SWAP5 POP PUSH3 0x7A7 JUMP JUMPDEST SWAP5 POP SWAP5 SWAP3 POP POP POP JUMP JUMPDEST PUSH1 0x0 DUP3 PUSH3 0x80A JUMPI PUSH1 0x1 SWAP1 POP PUSH3 0x8DD JUMP JUMPDEST DUP2 PUSH3 0x81A JUMPI PUSH1 0x0 SWAP1 POP PUSH3 0x8DD JUMP JUMPDEST DUP2 PUSH1 0x1 DUP2 EQ PUSH3 0x833 JUMPI PUSH1 0x2 DUP2 EQ PUSH3 0x83E JUMPI PUSH3 0x874 JUMP JUMPDEST PUSH1 0x1 SWAP2 POP POP PUSH3 0x8DD JUMP JUMPDEST PUSH1 0xFF DUP5 GT ISZERO PUSH3 0x853 JUMPI PUSH3 0x852 PUSH3 0x761 JUMP JUMPDEST JUMPDEST DUP4 PUSH1 0x2 EXP SWAP2 POP DUP5 DUP3 GT ISZERO PUSH3 0x86D JUMPI PUSH3 0x86C PUSH3 0x761 JUMP JUMPDEST JUMPDEST POP PUSH3 0x8DD JUMP JUMPDEST POP PUSH1 0x20 DUP4 LT PUSH2 0x133 DUP4 LT AND PUSH1 0x4E DUP5 LT PUSH1 0xB DUP5 LT AND OR ISZERO PUSH3 0x8AE JUMPI DUP3 DUP3 EXP SWAP1 POP DUP4 DUP2 GT ISZERO PUSH3 0x8A8 JUMPI PUSH3 0x8A7 PUSH3 0x761 JUMP JUMPDEST JUMPDEST PUSH3 0x8DD JUMP JUMPDEST PUSH3 0x8BD DUP5 DUP5 DUP5 PUSH1 0x1 PUSH3 0x79D JUMP JUMPDEST SWAP3 POP SWAP1 POP DUP2 DUP5 DIV DUP2 GT ISZERO PUSH3 0x8D7 JUMPI PUSH3 0x8D6 PUSH3 0x761 JUMP JUMPDEST JUMPDEST DUP2 DUP2 MUL SWAP1 POP JUMPDEST SWAP4 SWAP3 POP POP POP JUMP JUMPDEST PUSH1 0x0 PUSH3 0x8F1 DUP3 PUSH3 0x526 JUMP JUMPDEST SWAP2 POP PUSH3 0x8FE DUP4 PUSH3 0x526 JUMP JUMPDEST SWAP3 POP PUSH3 0x92D PUSH32 0xFFFFFFFFFFFFFFFFFFFFFFFFFFFFFFFFFFFFFFFFFFFFFFFFFFFFFFFFFFFFFFFF DUP5 DUP5 PUSH3 0x7F8 JUMP JUMPDEST SWAP1 POP SWAP3 SWAP2 POP POP JUMP JUMPDEST PUSH1 0x0 PUSH3 0x942 DUP3 PUSH3 0x526 JUMP JUMPDEST SWAP2 POP PUSH3 0x94F DUP4 PUSH3 0x526 JUMP JUMPDEST SWAP3 POP DUP3 DUP3 MUL PUSH3 0x95F DUP2 PUSH3 0x526 JUMP JUMPDEST SWAP2 POP DUP3 DUP3 DIV DUP5 EQ DUP4 ISZERO OR PUSH3 0x979 JUMPI PUSH3 0x978 PUSH3 0x761 JUMP JUMPDEST JUMPDEST POP SWAP3 SWAP2 POP POP JUMP JUMPDEST PUSH1 0x0 PUSH3 0x98D DUP3 PUSH3 0x526 JUMP JUMPDEST SWAP2 POP PUSH3 0x99A DUP4 PUSH3 0x526 JUMP JUMPDEST SWAP3 POP DUP3 DUP3 ADD SWAP1 POP DUP1 DUP3 GT ISZERO PUSH3 0x9B5 JUMPI PUSH3 0x9B4 PUSH3 0x761 JUMP JUMPDEST JUMPDEST SWAP3 SWAP2 POP POP JUMP JUMPDEST PUSH2 0x1F62 DUP1 PUSH3 0x9CB PUSH1 0x0 CODECOPY PUSH1 0x0 RETURN INVALID PUSH1 0x80 PUSH1 0x40 MSTORE PUSH1 0x4 CALLDATASIZE LT PUSH2 0xF7 JUMPI PUSH1 0x0 CALLDATALOAD PUSH1 0xE0 SHR DUP1 PUSH4 0x42966C68 GT PUSH2 0x8A JUMPI DUP1 PUSH4 0x95D89B41 GT PUSH2 0x59 JUMPI DUP1 PUSH4 0x95D89B41 EQ PUSH2 0x51E JUMPI DUP1 PUSH4 0xA9059CBB EQ PUSH2 0x549 JUMPI DUP1 PUSH4 0xC78BC15F EQ PUSH2 0x586 JUMPI DUP1 PUSH4 0xDD62ED3E EQ PUSH2 0x59D JUMPI PUSH2 0x2AA JUMP JUMPDEST DUP1 PUSH4 0x42966C68 EQ PUSH2 0x462 JUMPI DUP1 PUSH4 0x70A08231 EQ PUSH2 0x48B JUMPI DUP1 PUSH4 0x868BABB0 EQ PUSH2 0x4C8 JUMPI DUP1 PUSH4 0x87E24C72 EQ PUSH2 0x4F3 JUMPI PUSH2 0x2AA JUMP JUMPDEST DUP1 PUSH4 0x27E235E3 GT PUSH2 0xC6 JUMPI DUP1 PUSH4 0x27E235E3 EQ PUSH2 0x37F JUMPI DUP1 PUSH4 0x313CE567 EQ PUSH2 0x3BC JUMPI DUP1 PUSH4 0x365B98B2 EQ PUSH2 0x3E7 JUMPI DUP1 PUSH4 0x36E60477 EQ PUSH2 0x424 JUMPI PUSH2 0x2AA JUMP JUMPDEST DUP1 PUSH4 0x6FDDE03 EQ PUSH2 0x2AF JUMPI DUP1 PUSH4 0x95EA7B3 EQ PUSH2 0x2DA JUMPI DUP1 PUSH4 0x18160DDD EQ PUSH2 0x317 JUMPI DUP1 PUSH4 0x23B872DD EQ PUSH2 0x342 JUMPI PUSH2 0x2AA JUMP JUMPDEST CALLDATASIZE PUSH2 0x2AA JUMPI PUSH1 0x0 PUSH1 0xC8 CALLVALUE PUSH2 0x10B SWAP2 SWAP1 PUSH2 0x1412 JUMP JUMPDEST SWAP1 POP DUP1 PUSH1 0x5 PUSH1 0x0 PUSH1 0x4 PUSH1 0x0 SWAP1 SLOAD SWAP1 PUSH2 0x100 EXP SWAP1 DIV PUSH20 0xFFFFFFFFFFFFFFFFFFFFFFFFFFFFFFFFFFFFFFFF AND PUSH20 0xFFFFFFFFFFFFFFFFFFFFFFFFFFFFFFFFFFFFFFFF AND PUSH20 0xFFFFFFFFFFFFFFFFFFFFFFFFFFFFFFFFFFFFFFFF AND DUP2 MSTORE PUSH1 0x20 ADD SWAP1 DUP2 MSTORE PUSH1 0x20 ADD PUSH1 0x0 KECCAK256 SLOAD LT ISZERO PUSH2 0x17B JUMPI PUSH1 0x0 DUP1 REVERT JUMPDEST DUP1 PUSH1 0x5 PUSH1 0x0 PUSH1 0x4 PUSH1 0x0 SWAP1 SLOAD SWAP1 PUSH2 0x100 EXP SWAP1 DIV PUSH20 0xFFFFFFFFFFFFFFFFFFFFFFFFFFFFFFFFFFFFFFFF AND PUSH20 0xFFFFFFFFFFFFFFFFFFFFFFFFFFFFFFFFFFFFFFFF AND PUSH20 0xFFFFFFFFFFFFFFFFFFFFFFFFFFFFFFFFFFFFFFFF AND DUP2 MSTORE PUSH1 0x20 ADD SWAP1 DUP2 MSTORE PUSH1 0x20 ADD PUSH1 0x0 KECCAK256 PUSH1 0x0 DUP3 DUP3 SLOAD PUSH2 0x1EC SWAP2 SWAP1 PUSH2 0x1454 JUMP JUMPDEST SWAP3 POP POP DUP2 SWAP1 SSTORE POP DUP1 PUSH1 0x5 PUSH1 0x0 CALLER PUSH20 0xFFFFFFFFFFFFFFFFFFFFFFFFFFFFFFFFFFFFFFFF AND PUSH20 0xFFFFFFFFFFFFFFFFFFFFFFFFFFFFFFFFFFFFFFFF AND DUP2 MSTORE PUSH1 0x20 ADD SWAP1 DUP2 MSTORE PUSH1 0x20 ADD PUSH1 0x0 KECCAK256 PUSH1 0x0 DUP3 DUP3 SLOAD PUSH2 0x242 SWAP2 SWAP1 PUSH2 0x1488 JUMP JUMPDEST SWAP3 POP POP DUP2 SWAP1 SSTORE POP PUSH1 0x4 PUSH1 0x0 SWAP1 SLOAD SWAP1 PUSH2 0x100 EXP SWAP1 DIV PUSH20 0xFFFFFFFFFFFFFFFFFFFFFFFFFFFFFFFFFFFFFFFF AND PUSH20 0xFFFFFFFFFFFFFFFFFFFFFFFFFFFFFFFFFFFFFFFF AND CALLER PUSH20 0xFFFFFFFFFFFFFFFFFFFFFFFFFFFFFFFFFFFFFFFF AND SUB PUSH2 0x2A8 JUMPI PUSH2 0x2A7 DUP2 PUSH2 0x5DA JUMP JUMPDEST JUMPDEST STOP JUMPDEST PUSH1 0x0 DUP1 REVERT JUMPDEST CALLVALUE DUP1 ISZERO PUSH2 0x2BB JUMPI PUSH1 0x0 DUP1 REVERT JUMPDEST POP PUSH2 0x2C4 PUSH2 0x64C JUMP JUMPDEST PUSH1 0x40 MLOAD PUSH2 0x2D1 SWAP2 SWAP1 PUSH2 0x154C JUMP JUMPDEST PUSH1 0x40 MLOAD DUP1 SWAP2 SUB SWAP1 RETURN JUMPDEST CALLVALUE DUP1 ISZERO PUSH2 0x2E6 JUMPI PUSH1 0x0 DUP1 REVERT JUMPDEST POP PUSH2 0x301 PUSH1 0x4 DUP1 CALLDATASIZE SUB DUP2 ADD SWAP1 PUSH2 0x2FC SWAP2 SWAP1 PUSH2 0x15FD JUMP JUMPDEST PUSH2 0x6DA JUMP JUMPDEST PUSH1 0x40 MLOAD PUSH2 0x30E SWAP2 SWAP1 PUSH2 0x1658 JUMP JUMPDEST PUSH1 0x40 MLOAD DUP1 SWAP2 SUB SWAP1 RETURN JUMPDEST CALLVALUE DUP1 ISZERO PUSH2 0x323 JUMPI PUSH1 0x0 DUP1 REVERT JUMPDEST POP PUSH2 0x32C PUSH2 0x767 JUMP JUMPDEST PUSH1 0x40 MLOAD PUSH2 0x339 SWAP2 SWAP1 PUSH2 0x1682 JUMP JUMPDEST PUSH1 0x40 MLOAD DUP1 SWAP2 SUB SWAP1 RETURN JUMPDEST CALLVALUE DUP1 ISZERO PUSH2 0x34E JUMPI PUSH1 0x0 DUP1 REVERT JUMPDEST POP PUSH2 0x369 PUSH1 0x4 DUP1 CALLDATASIZE SUB DUP2 ADD SWAP1 PUSH2 0x364 SWAP2 SWAP1 PUSH2 0x169D JUMP JUMPDEST PUSH2 0x76D JUMP JUMPDEST PUSH1 0x40 MLOAD PUSH2 0x376 SWAP2 SWAP1 PUSH2 0x1658 JUMP JUMPDEST PUSH1 0x40 MLOAD DUP1 SWAP2 SUB SWAP1 RETURN JUMPDEST CALLVALUE DUP1 ISZERO PUSH2 0x38B JUMPI PUSH1 0x0 DUP1 REVERT JUMPDEST POP PUSH2 0x3A6 PUSH1 0x4 DUP1 CALLDATASIZE SUB DUP2 ADD SWAP1 PUSH2 0x3A1 SWAP2 SWAP1 PUSH2 0x16F0 JUMP JUMPDEST PUSH2 0x942 JUMP JUMPDEST PUSH1 0x40 MLOAD PUSH2 0x3B3 SWAP2 SWAP1 PUSH2 0x1682 JUMP JUMPDEST PUSH1 0x40 MLOAD DUP1 SWAP2 SUB SWAP1 RETURN JUMPDEST CALLVALUE DUP1 ISZERO PUSH2 0x3C8 JUMPI PUSH1 0x0 DUP1 REVERT JUMPDEST POP PUSH2 0x3D1 PUSH2 0x95A JUMP JUMPDEST PUSH1 0x40 MLOAD PUSH2 0x3DE SWAP2 SWAP1 PUSH2 0x1739 JUMP JUMPDEST PUSH1 0x40 MLOAD DUP1 SWAP2 SUB SWAP1 RETURN JUMPDEST CALLVALUE DUP1 ISZERO PUSH2 0x3F3 JUMPI PUSH1 0x0 DUP1 REVERT JUMPDEST POP PUSH2 0x40E PUSH1 0x4 DUP1 CALLDATASIZE SUB DUP2 ADD SWAP1 PUSH2 0x409 SWAP2 SWAP1 PUSH2 0x1754 JUMP JUMPDEST PUSH2 0x96D JUMP JUMPDEST PUSH1 0x40 MLOAD PUSH2 0x41B SWAP2 SWAP1 PUSH2 0x1790 JUMP JUMPDEST PUSH1 0x40 MLOAD DUP1 SWAP2 SUB SWAP1 RETURN JUMPDEST CALLVALUE DUP1 ISZERO PUSH2 0x430 JUMPI PUSH1 0x0 DUP1 REVERT JUMPDEST POP PUSH2 0x44B PUSH1 0x4 DUP1 CALLDATASIZE SUB DUP2 ADD SWAP1 PUSH2 0x446 SWAP2 SWAP1 PUSH2 0x15FD JUMP JUMPDEST PUSH2 0x9B7 JUMP JUMPDEST PUSH1 0x40 MLOAD PUSH2 0x459 SWAP3 SWAP2 SWAP1 PUSH2 0x17AB JUMP JUMPDEST PUSH1 0x40 MLOAD DUP1 SWAP2 SUB SWAP1 RETURN JUMPDEST CALLVALUE DUP1 ISZERO PUSH2 0x46E JUMPI PUSH1 0x0 DUP1 REVERT JUMPDEST POP PUSH2 0x489 PUSH1 0x4 DUP1 CALLDATASIZE SUB DUP2 ADD SWAP1 PUSH2 0x484 SWAP2 SWAP1 PUSH2 0x1754 JUMP JUMPDEST PUSH2 0xB08 JUMP JUMPDEST STOP JUMPDEST CALLVALUE DUP1 ISZERO PUSH2 0x497 JUMPI PUSH1 0x0 DUP1 REVERT JUMPDEST POP PUSH2 0x4B2 PUSH1 0x4 DUP1 CALLDATASIZE SUB DUP2 ADD SWAP1 PUSH2 0x4AD SWAP2 SWAP1 PUSH2 0x16F0 JUMP JUMPDEST PUSH2 0xB7A JUMP JUMPDEST PUSH1 0x40 MLOAD PUSH2 0x4BF SWAP2 SWAP1 PUSH2 0x1682 JUMP JUMPDEST PUSH1 0x40 MLOAD DUP1 SWAP2 SUB SWAP1 RETURN JUMPDEST CALLVALUE DUP1 ISZERO PUSH2 0x4D4 JUMPI PUSH1 0x0 DUP1 REVERT JUMPDEST POP PUSH2 0x4DD PUSH2 0xBC3 JUMP JUMPDEST PUSH1 0x40 MLOAD PUSH2 0x4EA SWAP2 SWAP1 PUSH2 0x18BC JUMP JUMPDEST PUSH1 0x40 MLOAD DUP1 SWAP2 SUB SWAP1 RETURN JUMPDEST CALLVALUE DUP1 ISZERO PUSH2 0x4FF JUMPI PUSH1 0x0 DUP1 REVERT JUMPDEST POP PUSH2 0x508 PUSH2 0xC74 JUMP JUMPDEST PUSH1 0x40 MLOAD PUSH2 0x515 SWAP2 SWAP1 PUSH2 0x1A2E JUMP JUMPDEST PUSH1 0x40 MLOAD DUP1 SWAP2 SUB SWAP1 RETURN JUMPDEST CALLVALUE DUP1 ISZERO PUSH2 0x52A JUMPI PUSH1 0x0 DUP1 REVERT JUMPDEST POP PUSH2 0x533 PUSH2 0xE34 JUMP JUMPDEST PUSH1 0x40 MLOAD PUSH2 0x540 SWAP2 SWAP1 PUSH2 0x154C JUMP JUMPDEST PUSH1 0x40 MLOAD DUP1 SWAP2 SUB SWAP1 RETURN JUMPDEST CALLVALUE DUP1 ISZERO PUSH2 0x555 JUMPI PUSH1 0x0 DUP1 REVERT JUMPDEST POP PUSH2 0x570 PUSH1 0x4 DUP1 CALLDATASIZE SUB DUP2 ADD SWAP1 PUSH2 0x56B SWAP2 SWAP1 PUSH2 0x15FD JUMP JUMPDEST PUSH2 0xEC2 JUMP JUMPDEST PUSH1 0x40 MLOAD PUSH2 0x57D SWAP2 SWAP1 PUSH2 0x1658 JUMP JUMPDEST PUSH1 0x40 MLOAD DUP1 SWAP2 SUB SWAP1 RETURN JUMPDEST CALLVALUE DUP1 ISZERO PUSH2 0x592 JUMPI PUSH1 0x0 DUP1 REVERT JUMPDEST POP PUSH2 0x59B PUSH2 0xF7A JUMP JUMPDEST STOP JUMPDEST CALLVALUE DUP1 ISZERO PUSH2 0x5A9 JUMPI PUSH1 0x0 DUP1 REVERT JUMPDEST POP PUSH2 0x5C4 PUSH1 0x4 DUP1 CALLDATASIZE SUB DUP2 ADD SWAP1 PUSH2 0x5BF SWAP2 SWAP1 PUSH2 0x1A50 JUMP JUMPDEST PUSH2 0x13B4 JUMP JUMPDEST PUSH1 0x40 MLOAD PUSH2 0x5D1 SWAP2 SWAP1 PUSH2 0x1682 JUMP JUMPDEST PUSH1 0x40 MLOAD DUP1 SWAP2 SUB SWAP1 RETURN JUMPDEST DUP1 PUSH1 0x5 PUSH1 0x0 CALLER PUSH20 0xFFFFFFFFFFFFFFFFFFFFFFFFFFFFFFFFFFFFFFFF AND PUSH20 0xFFFFFFFFFFFFFFFFFFFFFFFFFFFFFFFFFFFFFFFF AND DUP2 MSTORE PUSH1 0x20 ADD SWAP1 DUP2 MSTORE PUSH1 0x20 ADD PUSH1 0x0 KECCAK256 PUSH1 0x0 DUP3 DUP3 SLOAD PUSH2 0x629 SWAP2 SWAP1 PUSH2 0x1488 JUMP JUMPDEST SWAP3 POP POP DUP2 SWAP1 SSTORE POP DUP1 PUSH1 0x3 PUSH1 0x0 DUP3 DUP3 SLOAD PUSH2 0x642 SWAP2 SWAP1 PUSH2 0x1488 JUMP JUMPDEST SWAP3 POP POP DUP2 SWAP1 SSTORE POP POP JUMP JUMPDEST PUSH1 0x0 DUP1 SLOAD PUSH2 0x659 SWAP1 PUSH2 0x1ABF JUMP JUMPDEST DUP1 PUSH1 0x1F ADD PUSH1 0x20 DUP1 SWAP2 DIV MUL PUSH1 0x20 ADD PUSH1 0x40 MLOAD SWAP1 DUP2 ADD PUSH1 0x40 MSTORE DUP1 SWAP3 SWAP2 SWAP1 DUP2 DUP2 MSTORE PUSH1 0x20 ADD DUP3 DUP1 SLOAD PUSH2 0x685 SWAP1 PUSH2 0x1ABF JUMP JUMPDEST DUP1 ISZERO PUSH2 0x6D2 JUMPI DUP1 PUSH1 0x1F LT PUSH2 0x6A7 JUMPI PUSH2 0x100 DUP1 DUP4 SLOAD DIV MUL DUP4 MSTORE SWAP2 PUSH1 0x20 ADD SWAP2 PUSH2 0x6D2 JUMP JUMPDEST DUP3 ADD SWAP2 SWAP1 PUSH1 0x0 MSTORE PUSH1 0x20 PUSH1 0x0 KECCAK256 SWAP1 JUMPDEST DUP2 SLOAD DUP2 MSTORE SWAP1 PUSH1 0x1 ADD SWAP1 PUSH1 0x20 ADD DUP1 DUP4 GT PUSH2 0x6B5 JUMPI DUP3 SWAP1 SUB PUSH1 0x1F AND DUP3 ADD SWAP2 JUMPDEST POP POP POP POP POP DUP2 JUMP JUMPDEST PUSH1 0x0 DUP2 PUSH1 0x6 PUSH1 0x0 CALLER PUSH20 0xFFFFFFFFFFFFFFFFFFFFFFFFFFFFFFFFFFFFFFFF AND PUSH20 0xFFFFFFFFFFFFFFFFFFFFFFFFFFFFFFFFFFFFFFFF AND DUP2 MSTORE PUSH1 0x20 ADD SWAP1 DUP2 MSTORE PUSH1 0x20 ADD PUSH1 0x0 KECCAK256 PUSH1 0x0 DUP6 PUSH20 0xFFFFFFFFFFFFFFFFFFFFFFFFFFFFFFFFFFFFFFFF AND PUSH20 0xFFFFFFFFFFFFFFFFFFFFFFFFFFFFFFFFFFFFFFFF AND DUP2 MSTORE PUSH1 0x20 ADD SWAP1 DUP2 MSTORE PUSH1 0x20 ADD PUSH1 0x0 KECCAK256 DUP2 SWAP1 SSTORE POP PUSH1 0x1 SWAP1 POP SWAP3 SWAP2 POP POP JUMP JUMPDEST PUSH1 0x3 SLOAD DUP2 JUMP JUMPDEST PUSH1 0x0 DUP2 PUSH1 0x6 PUSH1 0x0 DUP7 PUSH20 0xFFFFFFFFFFFFFFFFFFFFFFFFFFFFFFFFFFFFFFFF AND PUSH20 0xFFFFFFFFFFFFFFFFFFFFFFFFFFFFFFFFFFFFFFFF AND DUP2 MSTORE PUSH1 0x20 ADD SWAP1 DUP2 MSTORE PUSH1 0x20 ADD PUSH1 0x0 KECCAK256 PUSH1 0x0 CALLER PUSH20 0xFFFFFFFFFFFFFFFFFFFFFFFFFFFFFFFFFFFFFFFF AND PUSH20 0xFFFFFFFFFFFFFFFFFFFFFFFFFFFFFFFFFFFFFFFF AND DUP2 MSTORE PUSH1 0x20 ADD SWAP1 DUP2 MSTORE PUSH1 0x20 ADD PUSH1 0x0 KECCAK256 SLOAD LT ISZERO PUSH2 0x7F8 JUMPI PUSH1 0x0 DUP1 REVERT JUMPDEST DUP2 PUSH1 0x6 PUSH1 0x0 DUP7 PUSH20 0xFFFFFFFFFFFFFFFFFFFFFFFFFFFFFFFFFFFFFFFF AND PUSH20 0xFFFFFFFFFFFFFFFFFFFFFFFFFFFFFFFFFFFFFFFF AND DUP2 MSTORE PUSH1 0x20 ADD SWAP1 DUP2 MSTORE PUSH1 0x20 ADD PUSH1 0x0 KECCAK256 PUSH1 0x0 CALLER PUSH20 0xFFFFFFFFFFFFFFFFFFFFFFFFFFFFFFFFFFFFFFFF AND PUSH20 0xFFFFFFFFFFFFFFFFFFFFFFFFFFFFFFFFFFFFFFFF AND DUP2 MSTORE PUSH1 0x20 ADD SWAP1 DUP2 MSTORE PUSH1 0x20 ADD PUSH1 0x0 KECCAK256 PUSH1 0x0 DUP3 DUP3 SLOAD PUSH2 0x884 SWAP2 SWAP1 PUSH2 0x1454 JUMP JUMPDEST SWAP3 POP POP DUP2 SWAP1 SSTORE POP DUP2 PUSH1 0x5 PUSH1 0x0 DUP7 PUSH20 0xFFFFFFFFFFFFFFFFFFFFFFFFFFFFFFFFFFFFFFFF AND PUSH20 0xFFFFFFFFFFFFFFFFFFFFFFFFFFFFFFFFFFFFFFFF AND DUP2 MSTORE PUSH1 0x20 ADD SWAP1 DUP2 MSTORE PUSH1 0x20 ADD PUSH1 0x0 KECCAK256 PUSH1 0x0 DUP3 DUP3 SLOAD PUSH2 0x8DA SWAP2 SWAP1 PUSH2 0x1454 JUMP JUMPDEST SWAP3 POP POP DUP2 SWAP1 SSTORE POP DUP2 PUSH1 0x5 PUSH1 0x0 DUP6 PUSH20 0xFFFFFFFFFFFFFFFFFFFFFFFFFFFFFFFFFFFFFFFF AND PUSH20 0xFFFFFFFFFFFFFFFFFFFFFFFFFFFFFFFFFFFFFFFF AND DUP2 MSTORE PUSH1 0x20 ADD SWAP1 DUP2 MSTORE PUSH1 0x20 ADD PUSH1 0x0 KECCAK256 PUSH1 0x0 DUP3 DUP3 SLOAD PUSH2 0x930 SWAP2 SWAP1 PUSH2 0x1488 JUMP JUMPDEST SWAP3 POP POP DUP2 SWAP1 SSTORE POP PUSH1 0x1 SWAP1 POP SWAP4 SWAP3 POP POP POP JUMP JUMPDEST PUSH1 0x5 PUSH1 0x20 MSTORE DUP1 PUSH1 0x0 MSTORE PUSH1 0x40 PUSH1 0x0 KECCAK256 PUSH1 0x0 SWAP2 POP SWAP1 POP SLOAD DUP2 JUMP JUMPDEST PUSH1 0x2 PUSH1 0x0 SWAP1 SLOAD SWAP1 PUSH2 0x100 EXP SWAP1 DIV PUSH1 0xFF AND DUP2 JUMP JUMPDEST PUSH1 0xB DUP2 DUP2 SLOAD DUP2 LT PUSH2 0x97D JUMPI PUSH1 0x0 DUP1 REVERT JUMPDEST SWAP1 PUSH1 0x0 MSTORE PUSH1 0x20 PUSH1 0x0 KECCAK256 ADD PUSH1 0x0 SWAP2 POP SWAP1 POP DUP1 PUSH1 0x0 ADD PUSH1 0x0 SWAP1 SLOAD SWAP1 PUSH2 0x100 EXP SWAP1 DIV PUSH20 0xFFFFFFFFFFFFFFFFFFFFFFFFFFFFFFFFFFFFFFFF AND SWAP1 POP DUP2 JUMP JUMPDEST PUSH1 0xA PUSH1 0x20 MSTORE DUP2 PUSH1 0x0 MSTORE PUSH1 0x40 PUSH1 0x0 KECCAK256 DUP2 DUP2 SLOAD DUP2 LT PUSH2 0x9D3 JUMPI PUSH1 0x0 DUP1 REVERT JUMPDEST SWAP1 PUSH1 0x0 MSTORE PUSH1 0x20 PUSH1 0x0 KECCAK256 SWAP1 PUSH1 0x2 MUL ADD PUSH1 0x0 SWAP2 POP SWAP2 POP POP DUP1 PUSH1 0x0 ADD DUP1 SLOAD PUSH2 0x9F7 SWAP1 PUSH2 0x1ABF JUMP JUMPDEST DUP1 PUSH1 0x1F ADD PUSH1 0x20 DUP1 SWAP2 DIV MUL PUSH1 0x20 ADD PUSH1 0x40 MLOAD SWAP1 DUP2 ADD PUSH1 0x40 MSTORE DUP1 SWAP3 SWAP2 SWAP1 DUP2 DUP2 MSTORE PUSH1 0x20 ADD DUP3 DUP1 SLOAD PUSH2 0xA23 SWAP1 PUSH2 0x1ABF JUMP JUMPDEST DUP1 ISZERO PUSH2 0xA70 JUMPI DUP1 PUSH1 0x1F LT PUSH2 0xA45 JUMPI PUSH2 0x100 DUP1 DUP4 SLOAD DIV MUL DUP4 MSTORE SWAP2 PUSH1 0x20 ADD SWAP2 PUSH2 0xA70 JUMP JUMPDEST DUP3 ADD SWAP2 SWAP1 PUSH1 0x0 MSTORE PUSH1 0x20 PUSH1 0x0 KECCAK256 SWAP1 JUMPDEST DUP2 SLOAD DUP2 MSTORE SWAP1 PUSH1 0x1 ADD SWAP1 PUSH1 0x20 ADD DUP1 DUP4 GT PUSH2 0xA53 JUMPI DUP3 SWAP1 SUB PUSH1 0x1F AND DUP3 ADD SWAP2 JUMPDEST POP POP POP POP POP SWAP1 DUP1 PUSH1 0x1 ADD DUP1 SLOAD PUSH2 0xA85 SWAP1 PUSH2 0x1ABF JUMP JUMPDEST DUP1 PUSH1 0x1F ADD PUSH1 0x20 DUP1 SWAP2 DIV MUL PUSH1 0x20 ADD PUSH1 0x40 MLOAD SWAP1 DUP2 ADD PUSH1 0x40 MSTORE DUP1 SWAP3 SWAP2 SWAP1 DUP2 DUP2 MSTORE PUSH1 0x20 ADD DUP3 DUP1 SLOAD PUSH2 0xAB1 SWAP1 PUSH2 0x1ABF JUMP JUMPDEST DUP1 ISZERO PUSH2 0xAFE JUMPI DUP1 PUSH1 0x1F LT PUSH2 0xAD3 JUMPI PUSH2 0x100 DUP1 DUP4 SLOAD DIV MUL DUP4 MSTORE SWAP2 PUSH1 0x20 ADD SWAP2 PUSH2 0xAFE JUMP JUMPDEST DUP3 ADD SWAP2 SWAP1 PUSH1 0x0 MSTORE PUSH1 0x20 PUSH1 0x0 KECCAK256 SWAP1 JUMPDEST DUP2 SLOAD DUP2 MSTORE SWAP1 PUSH1 0x1 ADD SWAP1 PUSH1 0x20 ADD DUP1 DUP4 GT PUSH2 0xAE1 JUMPI DUP3 SWAP1 SUB PUSH1 0x1F AND DUP3 ADD SWAP2 JUMPDEST POP POP POP POP POP SWAP1 POP DUP3 JUMP JUMPDEST DUP1 PUSH1 0x5 PUSH1 0x0 CALLER PUSH20 0xFFFFFFFFFFFFFFFFFFFFFFFFFFFFFFFFFFFFFFFF AND PUSH20 0xFFFFFFFFFFFFFFFFFFFFFFFFFFFFFFFFFFFFFFFF AND DUP2 MSTORE PUSH1 0x20 ADD SWAP1 DUP2 MSTORE PUSH1 0x20 ADD PUSH1 0x0 KECCAK256 PUSH1 0x0 DUP3 DUP3 SLOAD PUSH2 0xB57 SWAP2 SWAP1 PUSH2 0x1454 JUMP JUMPDEST SWAP3 POP POP DUP2 SWAP1 SSTORE POP DUP1 PUSH1 0x3 PUSH1 0x0 DUP3 DUP3 SLOAD PUSH2 0xB70 SWAP2 SWAP1 PUSH2 0x1454 JUMP JUMPDEST SWAP3 POP POP DUP2 SWAP1 SSTORE POP POP JUMP JUMPDEST PUSH1 0x0 PUSH1 0x5 PUSH1 0x0 DUP4 PUSH20 0xFFFFFFFFFFFFFFFFFFFFFFFFFFFFFFFFFFFFFFFF AND PUSH20 0xFFFFFFFFFFFFFFFFFFFFFFFFFFFFFFFFFFFFFFFF AND DUP2 MSTORE PUSH1 0x20 ADD SWAP1 DUP2 MSTORE PUSH1 0x20 ADD PUSH1 0x0 KECCAK256 SLOAD SWAP1 POP SWAP2 SWAP1 POP JUMP JUMPDEST PUSH1 0x60 PUSH1 0xB DUP1 SLOAD DUP1 PUSH1 0x20 MUL PUSH1 0x20 ADD PUSH1 0x40 MLOAD SWAP1 DUP2 ADD PUSH1 0x40 MSTORE DUP1 SWAP3 SWAP2 SWAP1 DUP2 DUP2 MSTORE PUSH1 0x20 ADD PUSH1 0x0 SWAP1 JUMPDEST DUP3 DUP3 LT ISZERO PUSH2 0xC6B JUMPI DUP4 DUP3 SWAP1 PUSH1 0x0 MSTORE PUSH1 0x20 PUSH1 0x0 KECCAK256 ADD PUSH1 0x40 MLOAD DUP1 PUSH1 0x20 ADD PUSH1 0x40 MSTORE SWAP1 DUP2 PUSH1 0x0 DUP3 ADD PUSH1 0x0 SWAP1 SLOAD SWAP1 PUSH2 0x100 EXP SWAP1 DIV PUSH20 0xFFFFFFFFFFFFFFFFFFFFFFFFFFFFFFFFFFFFFFFF AND PUSH20 0xFFFFFFFFFFFFFFFFFFFFFFFFFFFFFFFFFFFFFFFF AND PUSH20 0xFFFFFFFFFFFFFFFFFFFFFFFFFFFFFFFFFFFFFFFF AND DUP2 MSTORE POP POP DUP2 MSTORE PUSH1 0x20 ADD SWAP1 PUSH1 0x1 ADD SWAP1 PUSH2 0xBE7 JUMP JUMPDEST POP POP POP POP SWAP1 POP SWAP1 JUMP JUMPDEST PUSH1 0x60 PUSH1 0xA PUSH1 0x0 CALLER PUSH20 0xFFFFFFFFFFFFFFFFFFFFFFFFFFFFFFFFFFFFFFFF AND PUSH20 0xFFFFFFFFFFFFFFFFFFFFFFFFFFFFFFFFFFFFFFFF AND DUP2 MSTORE PUSH1 0x20 ADD SWAP1 DUP2 MSTORE PUSH1 0x20 ADD PUSH1 0x0 KECCAK256 DUP1 SLOAD DUP1 PUSH1 0x20 MUL PUSH1 0x20 ADD PUSH1 0x40 MLOAD SWAP1 DUP2 ADD PUSH1 0x40 MSTORE DUP1 SWAP3 SWAP2 SWAP1 DUP2 DUP2 MSTORE PUSH1 0x20 ADD PUSH1 0x0 SWAP1 JUMPDEST DUP3 DUP3 LT ISZERO PUSH2 0xE2B JUMPI DUP4 DUP3 SWAP1 PUSH1 0x0 MSTORE PUSH1 0x20 PUSH1 0x0 KECCAK256 SWAP1 PUSH1 0x2 MUL ADD PUSH1 0x40 MLOAD DUP1 PUSH1 0x40 ADD PUSH1 0x40 MSTORE SWAP1 DUP2 PUSH1 0x0 DUP3 ADD DUP1 SLOAD PUSH2 0xD08 SWAP1 PUSH2 0x1ABF JUMP JUMPDEST DUP1 PUSH1 0x1F ADD PUSH1 0x20 DUP1 SWAP2 DIV MUL PUSH1 0x20 ADD PUSH1 0x40 MLOAD SWAP1 DUP2 ADD PUSH1 0x40 MSTORE DUP1 SWAP3 SWAP2 SWAP1 DUP2 DUP2 MSTORE PUSH1 0x20 ADD DUP3 DUP1 SLOAD PUSH2 0xD34 SWAP1 PUSH2 0x1ABF JUMP JUMPDEST DUP1 ISZERO PUSH2 0xD81 JUMPI DUP1 PUSH1 0x1F LT PUSH2 0xD56 JUMPI PUSH2 0x100 DUP1 DUP4 SLOAD DIV MUL DUP4 MSTORE SWAP2 PUSH1 0x20 ADD SWAP2 PUSH2 0xD81 JUMP JUMPDEST DUP3 ADD SWAP2 SWAP1 PUSH1 0x0 MSTORE PUSH1 0x20 PUSH1 0x0 KECCAK256 SWAP1 JUMPDEST DUP2 SLOAD DUP2 MSTORE SWAP1 PUSH1 0x1 ADD SWAP1 PUSH1 0x20 ADD DUP1 DUP4 GT PUSH2 0xD64 JUMPI DUP3 SWAP1 SUB PUSH1 0x1F AND DUP3 ADD SWAP2 JUMPDEST POP POP POP POP POP DUP2 MSTORE PUSH1 0x20 ADD PUSH1 0x1 DUP3 ADD DUP1 SLOAD PUSH2 0xD9A SWAP1 PUSH2 0x1ABF JUMP JUMPDEST DUP1 PUSH1 0x1F ADD PUSH1 0x20 DUP1 SWAP2 DIV MUL PUSH1 0x20 ADD PUSH1 0x40 MLOAD SWAP1 DUP2 ADD PUSH1 0x40 MSTORE DUP1 SWAP3 SWAP2 SWAP1 DUP2 DUP2 MSTORE PUSH1 0x20 ADD DUP3 DUP1 SLOAD PUSH2 0xDC6 SWAP1 PUSH2 0x1ABF JUMP JUMPDEST DUP1 ISZERO PUSH2 0xE13 JUMPI DUP1 PUSH1 0x1F LT PUSH2 0xDE8 JUMPI PUSH2 0x100 DUP1 DUP4 SLOAD DIV MUL DUP4 MSTORE SWAP2 PUSH1 0x20 ADD SWAP2 PUSH2 0xE13 JUMP JUMPDEST DUP3 ADD SWAP2 SWAP1 PUSH1 0x0 MSTORE PUSH1 0x20 PUSH1 0x0 KECCAK256 SWAP1 JUMPDEST DUP2 SLOAD DUP2 MSTORE SWAP1 PUSH1 0x1 ADD SWAP1 PUSH1 0x20 ADD DUP1 DUP4 GT PUSH2 0xDF6 JUMPI DUP3 SWAP1 SUB PUSH1 0x1F AND DUP3 ADD SWAP2 JUMPDEST POP POP POP POP POP DUP2 MSTORE POP POP DUP2 MSTORE PUSH1 0x20 ADD SWAP1 PUSH1 0x1 ADD SWAP1 PUSH2 0xCD5 JUMP JUMPDEST POP POP POP POP SWAP1 POP SWAP1 JUMP JUMPDEST PUSH1 0x1 DUP1 SLOAD PUSH2 0xE41 SWAP1 PUSH2 0x1ABF JUMP JUMPDEST DUP1 PUSH1 0x1F ADD PUSH1 0x20 DUP1 SWAP2 DIV MUL PUSH1 0x20 ADD PUSH1 0x40 MLOAD SWAP1 DUP2 ADD PUSH1 0x40 MSTORE DUP1 SWAP3 SWAP2 SWAP1 DUP2 DUP2 MSTORE PUSH1 0x20 ADD DUP3 DUP1 SLOAD PUSH2 0xE6D SWAP1 PUSH2 0x1ABF JUMP JUMPDEST DUP1 ISZERO PUSH2 0xEBA JUMPI DUP1 PUSH1 0x1F LT PUSH2 0xE8F JUMPI PUSH2 0x100 DUP1 DUP4 SLOAD DIV MUL DUP4 MSTORE SWAP2 PUSH1 0x20 ADD SWAP2 PUSH2 0xEBA JUMP JUMPDEST DUP3 ADD SWAP2 SWAP1 PUSH1 0x0 MSTORE PUSH1 0x20 PUSH1 0x0 KECCAK256 SWAP1 JUMPDEST DUP2 SLOAD DUP2 MSTORE SWAP1 PUSH1 0x1 ADD SWAP1 PUSH1 0x20 ADD DUP1 DUP4 GT PUSH2 0xE9D JUMPI DUP3 SWAP1 SUB PUSH1 0x1F AND DUP3 ADD SWAP2 JUMPDEST POP POP POP POP POP DUP2 JUMP JUMPDEST PUSH1 0x0 DUP2 PUSH1 0x5 PUSH1 0x0 CALLER PUSH20 0xFFFFFFFFFFFFFFFFFFFFFFFFFFFFFFFFFFFFFFFF AND PUSH20 0xFFFFFFFFFFFFFFFFFFFFFFFFFFFFFFFFFFFFFFFF AND DUP2 MSTORE PUSH1 0x20 ADD SWAP1 DUP2 MSTORE PUSH1 0x20 ADD PUSH1 0x0 KECCAK256 PUSH1 0x0 DUP3 DUP3 SLOAD PUSH2 0xF13 SWAP2 SWAP1 PUSH2 0x1454 JUMP JUMPDEST SWAP3 POP POP DUP2 SWAP1 SSTORE POP DUP2 PUSH1 0x5 PUSH1 0x0 DUP6 PUSH20 0xFFFFFFFFFFFFFFFFFFFFFFFFFFFFFFFFFFFFFFFF AND PUSH20 0xFFFFFFFFFFFFFFFFFFFFFFFFFFFFFFFFFFFFFFFF AND DUP2 MSTORE PUSH1 0x20 ADD SWAP1 DUP2 MSTORE PUSH1 0x20 ADD PUSH1 0x0 KECCAK256 PUSH1 0x0 DUP3 DUP3 SLOAD PUSH2 0xF69 SWAP2 SWAP1 PUSH2 0x1488 JUMP JUMPDEST SWAP3 POP POP DUP2 SWAP1 SSTORE POP PUSH1 0x1 SWAP1 POP SWAP3 SWAP2 POP POP JUMP JUMPDEST PUSH1 0x7 SLOAD PUSH1 0x5 PUSH1 0x0 CALLER PUSH20 0xFFFFFFFFFFFFFFFFFFFFFFFFFFFFFFFFFFFFFFFF AND PUSH20 0xFFFFFFFFFFFFFFFFFFFFFFFFFFFFFFFFFFFFFFFF AND DUP2 MSTORE PUSH1 0x20 ADD SWAP1 DUP2 MSTORE PUSH1 0x20 ADD PUSH1 0x0 KECCAK256 SLOAD LT ISZERO PUSH2 0xFC8 JUMPI PUSH1 0x0 DUP1 REVERT JUMPDEST PUSH1 0x7 SLOAD PUSH1 0x5 PUSH1 0x0 CALLER PUSH20 0xFFFFFFFFFFFFFFFFFFFFFFFFFFFFFFFFFFFFFFFF AND PUSH20 0xFFFFFFFFFFFFFFFFFFFFFFFFFFFFFFFFFFFFFFFF AND DUP2 MSTORE PUSH1 0x20 ADD SWAP1 DUP2 MSTORE PUSH1 0x20 ADD PUSH1 0x0 KECCAK256 PUSH1 0x0 DUP3 DUP3 SLOAD PUSH2 0x1019 SWAP2 SWAP1 PUSH2 0x1454 JUMP JUMPDEST SWAP3 POP POP DUP2 SWAP1 SSTORE POP PUSH1 0x7 SLOAD PUSH1 0x3 PUSH1 0x0 DUP3 DUP3 SLOAD PUSH2 0x1034 SWAP2 SWAP1 PUSH2 0x1454 JUMP JUMPDEST SWAP3 POP POP DUP2 SWAP1 SSTORE POP PUSH1 0x0 TIMESTAMP COINBASE NUMBER PUSH1 0x40 MLOAD PUSH1 0x20 ADD PUSH2 0x1052 SWAP4 SWAP3 SWAP2 SWAP1 PUSH2 0x1B6B JUMP JUMPDEST PUSH1 0x40 MLOAD PUSH1 0x20 DUP2 DUP4 SUB SUB DUP2 MSTORE SWAP1 PUSH1 0x40 MSTORE DUP1 MLOAD SWAP1 PUSH1 0x20 ADD KECCAK256 PUSH1 0x0 SHR SWAP1 POP PUSH1 0x3 DUP2 PUSH2 0x107A SWAP2 SWAP1 PUSH2 0x1BD7 JUMP JUMPDEST SWAP1 POP PUSH1 0xA PUSH1 0x0 CALLER PUSH20 0xFFFFFFFFFFFFFFFFFFFFFFFFFFFFFFFFFFFFFFFF AND PUSH20 0xFFFFFFFFFFFFFFFFFFFFFFFFFFFFFFFFFFFFFFFF AND DUP2 MSTORE PUSH1 0x20 ADD SWAP1 DUP2 MSTORE PUSH1 0x20 ADD PUSH1 0x0 KECCAK256 PUSH1 0x40 MLOAD DUP1 PUSH1 0x40 ADD PUSH1 0x40 MSTORE DUP1 PUSH1 0x9 DUP5 DUP2 SLOAD DUP2 LT PUSH2 0x10DA JUMPI PUSH2 0x10D9 PUSH2 0x1C08 JUMP JUMPDEST JUMPDEST SWAP1 PUSH1 0x0 MSTORE PUSH1 0x20 PUSH1 0x0 KECCAK256 ADD DUP1 SLOAD PUSH2 0x10EF SWAP1 PUSH2 0x1ABF JUMP JUMPDEST DUP1 PUSH1 0x1F ADD PUSH1 0x20 DUP1 SWAP2 DIV MUL PUSH1 0x20 ADD PUSH1 0x40 MLOAD SWAP1 DUP2 ADD PUSH1 0x40 MSTORE DUP1 SWAP3 SWAP2 SWAP1 DUP2 DUP2 MSTORE PUSH1 0x20 ADD DUP3 DUP1 SLOAD PUSH2 0x111B SWAP1 PUSH2 0x1ABF JUMP JUMPDEST DUP1 ISZERO PUSH2 0x1168 JUMPI DUP1 PUSH1 0x1F LT PUSH2 0x113D JUMPI PUSH2 0x100 DUP1 DUP4 SLOAD DIV MUL DUP4 MSTORE SWAP2 PUSH1 0x20 ADD SWAP2 PUSH2 0x1168 JUMP JUMPDEST DUP3 ADD SWAP2 SWAP1 PUSH1 0x0 MSTORE PUSH1 0x20 PUSH1 0x0 KECCAK256 SWAP1 JUMPDEST DUP2 SLOAD DUP2 MSTORE SWAP1 PUSH1 0x1 ADD SWAP1 PUSH1 0x20 ADD DUP1 DUP4 GT PUSH2 0x114B JUMPI DUP3 SWAP1 SUB PUSH1 0x1F AND DUP3 ADD SWAP2 JUMPDEST POP POP POP POP POP DUP2 MSTORE PUSH1 0x20 ADD PUSH1 0x8 DUP5 DUP2 SLOAD DUP2 LT PUSH2 0x1186 JUMPI PUSH2 0x1185 PUSH2 0x1C08 JUMP JUMPDEST JUMPDEST SWAP1 PUSH1 0x0 MSTORE PUSH1 0x20 PUSH1 0x0 KECCAK256 ADD DUP1 SLOAD PUSH2 0x119B SWAP1 PUSH2 0x1ABF JUMP JUMPDEST DUP1 PUSH1 0x1F ADD PUSH1 0x20 DUP1 SWAP2 DIV MUL PUSH1 0x20 ADD PUSH1 0x40 MLOAD SWAP1 DUP2 ADD PUSH1 0x40 MSTORE DUP1 SWAP3 SWAP2 SWAP1 DUP2 DUP2 MSTORE PUSH1 0x20 ADD DUP3 DUP1 SLOAD PUSH2 0x11C7 SWAP1 PUSH2 0x1ABF JUMP JUMPDEST DUP1 ISZERO PUSH2 0x1214 JUMPI DUP1 PUSH1 0x1F LT PUSH2 0x11E9 JUMPI PUSH2 0x100 DUP1 DUP4 SLOAD DIV MUL DUP4 MSTORE SWAP2 PUSH1 0x20 ADD SWAP2 PUSH2 0x1214 JUMP JUMPDEST DUP3 ADD SWAP2 SWAP1 PUSH1 0x0 MSTORE PUSH1 0x20 PUSH1 0x0 KECCAK256 SWAP1 JUMPDEST DUP2 SLOAD DUP2 MSTORE SWAP1 PUSH1 0x1 ADD SWAP1 PUSH1 0x20 ADD DUP1 DUP4 GT PUSH2 0x11F7 JUMPI DUP3 SWAP1 SUB PUSH1 0x1F AND DUP3 ADD SWAP2 JUMPDEST POP POP POP POP POP DUP2 MSTORE POP SWAP1 DUP1 PUSH1 0x1 DUP2 SLOAD ADD DUP1 DUP3 SSTORE DUP1 SWAP2 POP POP PUSH1 0x1 SWAP1 SUB SWAP1 PUSH1 0x0 MSTORE PUSH1 0x20 PUSH1 0x0 KECCAK256 SWAP1 PUSH1 0x2 MUL ADD PUSH1 0x0 SWAP1 SWAP2 SWAP1 SWAP2 SWAP1 SWAP2 POP PUSH1 0x0 DUP3 ADD MLOAD DUP2 PUSH1 0x0 ADD SWAP1 DUP2 PUSH2 0x125A SWAP2 SWAP1 PUSH2 0x1E12 JUMP JUMPDEST POP PUSH1 0x20 DUP3 ADD MLOAD DUP2 PUSH1 0x1 ADD SWAP1 DUP2 PUSH2 0x1270 SWAP2 SWAP1 PUSH2 0x1E12 JUMP JUMPDEST POP POP POP PUSH1 0x0 DUP1 JUMPDEST PUSH1 0xB DUP1 SLOAD SWAP1 POP DUP2 LT ISZERO PUSH2 0x1314 JUMPI CALLER PUSH20 0xFFFFFFFFFFFFFFFFFFFFFFFFFFFFFFFFFFFFFFFF AND PUSH1 0xB DUP3 DUP2 SLOAD DUP2 LT PUSH2 0x12AF JUMPI PUSH2 0x12AE PUSH2 0x1C08 JUMP JUMPDEST JUMPDEST SWAP1 PUSH1 0x0 MSTORE PUSH1 0x20 PUSH1 0x0 KECCAK256 ADD PUSH1 0x0 ADD PUSH1 0x0 SWAP1 SLOAD SWAP1 PUSH2 0x100 EXP SWAP1 DIV PUSH20 0xFFFFFFFFFFFFFFFFFFFFFFFFFFFFFFFFFFFFFFFF AND PUSH20 0xFFFFFFFFFFFFFFFFFFFFFFFFFFFFFFFFFFFFFFFF AND SUB PUSH2 0x1301 JUMPI PUSH1 0x1 SWAP2 POP PUSH2 0x1314 JUMP JUMPDEST DUP1 DUP1 PUSH2 0x130C SWAP1 PUSH2 0x1EE4 JUMP JUMPDEST SWAP2 POP POP PUSH2 0x1277 JUMP JUMPDEST POP DUP1 PUSH2 0x13B0 JUMPI PUSH1 0xB PUSH1 0x40 MLOAD DUP1 PUSH1 0x20 ADD PUSH1 0x40 MSTORE DUP1 CALLER PUSH20 0xFFFFFFFFFFFFFFFFFFFFFFFFFFFFFFFFFFFFFFFF AND DUP2 MSTORE POP SWAP1 DUP1 PUSH1 0x1 DUP2 SLOAD ADD DUP1 DUP3 SSTORE DUP1 SWAP2 POP POP PUSH1 0x1 SWAP1 SUB SWAP1 PUSH1 0x0 MSTORE PUSH1 0x20 PUSH1 0x0 KECCAK256 ADD PUSH1 0x0 SWAP1 SWAP2 SWAP1 SWAP2 SWAP1 SWAP2 POP PUSH1 0x0 DUP3 ADD MLOAD DUP2 PUSH1 0x0 ADD PUSH1 0x0 PUSH2 0x100 EXP DUP2 SLOAD DUP2 PUSH20 0xFFFFFFFFFFFFFFFFFFFFFFFFFFFFFFFFFFFFFFFF MUL NOT AND SWAP1 DUP4 PUSH20 0xFFFFFFFFFFFFFFFFFFFFFFFFFFFFFFFFFFFFFFFF AND MUL OR SWAP1 SSTORE POP POP POP JUMPDEST POP POP JUMP JUMPDEST PUSH1 0x6 PUSH1 0x20 MSTORE DUP2 PUSH1 0x0 MSTORE PUSH1 0x40 PUSH1 0x0 KECCAK256 PUSH1 0x20 MSTORE DUP1 PUSH1 0x0 MSTORE PUSH1 0x40 PUSH1 0x0 KECCAK256 PUSH1 0x0 SWAP2 POP SWAP2 POP POP SLOAD DUP2 JUMP JUMPDEST PUSH1 0x0 DUP2 SWAP1 POP SWAP2 SWAP1 POP JUMP JUMPDEST PUSH32 0x4E487B7100000000000000000000000000000000000000000000000000000000 PUSH1 0x0 MSTORE PUSH1 0x11 PUSH1 0x4 MSTORE PUSH1 0x24 PUSH1 0x0 REVERT JUMPDEST PUSH1 0x0 PUSH2 0x141D DUP3 PUSH2 0x13D9 JUMP JUMPDEST SWAP2 POP PUSH2 0x1428 DUP4 PUSH2 0x13D9 JUMP JUMPDEST SWAP3 POP DUP3 DUP3 MUL PUSH2 0x1436 DUP2 PUSH2 0x13D9 JUMP JUMPDEST SWAP2 POP DUP3 DUP3 DIV DUP5 EQ DUP4 ISZERO OR PUSH2 0x144D JUMPI PUSH2 0x144C PUSH2 0x13E3 JUMP JUMPDEST JUMPDEST POP SWAP3 SWAP2 POP POP JUMP JUMPDEST PUSH1 0x0 PUSH2 0x145F DUP3 PUSH2 0x13D9 JUMP JUMPDEST SWAP2 POP PUSH2 0x146A DUP4 PUSH2 0x13D9 JUMP JUMPDEST SWAP3 POP DUP3 DUP3 SUB SWAP1 POP DUP2 DUP2 GT ISZERO PUSH2 0x1482 JUMPI PUSH2 0x1481 PUSH2 0x13E3 JUMP JUMPDEST JUMPDEST SWAP3 SWAP2 POP POP JUMP JUMPDEST PUSH1 0x0 PUSH2 0x1493 DUP3 PUSH2 0x13D9 JUMP JUMPDEST SWAP2 POP PUSH2 0x149E DUP4 PUSH2 0x13D9 JUMP JUMPDEST SWAP3 POP DUP3 DUP3 ADD SWAP1 POP DUP1 DUP3 GT ISZERO PUSH2 0x14B6 JUMPI PUSH2 0x14B5 PUSH2 0x13E3 JUMP JUMPDEST JUMPDEST SWAP3 SWAP2 POP POP JUMP JUMPDEST PUSH1 0x0 DUP2 MLOAD SWAP1 POP SWAP2 SWAP1 POP JUMP JUMPDEST PUSH1 0x0 DUP3 DUP3 MSTORE PUSH1 0x20 DUP3 ADD SWAP1 POP SWAP3 SWAP2 POP POP JUMP JUMPDEST PUSH1 0x0 JUMPDEST DUP4 DUP2 LT ISZERO PUSH2 0x14F6 JUMPI DUP1 DUP3 ADD MLOAD DUP2 DUP5 ADD MSTORE PUSH1 0x20 DUP2 ADD SWAP1 POP PUSH2 0x14DB JUMP JUMPDEST PUSH1 0x0 DUP5 DUP5 ADD MSTORE POP POP POP POP JUMP JUMPDEST PUSH1 0x0 PUSH1 0x1F NOT PUSH1 0x1F DUP4 ADD AND SWAP1 POP SWAP2 SWAP1 POP JUMP JUMPDEST PUSH1 0x0 PUSH2 0x151E DUP3 PUSH2 0x14BC JUMP JUMPDEST PUSH2 0x1528 DUP2 DUP6 PUSH2 0x14C7 JUMP JUMPDEST SWAP4 POP PUSH2 0x1538 DUP2 DUP6 PUSH1 0x20 DUP7 ADD PUSH2 0x14D8 JUMP JUMPDEST PUSH2 0x1541 DUP2 PUSH2 0x1502 JUMP JUMPDEST DUP5 ADD SWAP2 POP POP SWAP3 SWAP2 POP POP JUMP JUMPDEST PUSH1 0x0 PUSH1 0x20 DUP3 ADD SWAP1 POP DUP2 DUP2 SUB PUSH1 0x0 DUP4 ADD MSTORE PUSH2 0x1566 DUP2 DUP5 PUSH2 0x1513 JUMP JUMPDEST SWAP1 POP SWAP3 SWAP2 POP POP JUMP JUMPDEST PUSH1 0x0 DUP1 REVERT JUMPDEST PUSH1 0x0 PUSH20 0xFFFFFFFFFFFFFFFFFFFFFFFFFFFFFFFFFFFFFFFF DUP3 AND SWAP1 POP SWAP2 SWAP1 POP JUMP JUMPDEST PUSH1 0x0 PUSH2 0x159E DUP3 PUSH2 0x1573 JUMP JUMPDEST SWAP1 POP SWAP2 SWAP1 POP JUMP JUMPDEST PUSH2 0x15AE DUP2 PUSH2 0x1593 JUMP JUMPDEST DUP2 EQ PUSH2 0x15B9 JUMPI PUSH1 0x0 DUP1 REVERT JUMPDEST POP JUMP JUMPDEST PUSH1 0x0 DUP2 CALLDATALOAD SWAP1 POP PUSH2 0x15CB DUP2 PUSH2 0x15A5 JUMP JUMPDEST SWAP3 SWAP2 POP POP JUMP JUMPDEST PUSH2 0x15DA DUP2 PUSH2 0x13D9 JUMP JUMPDEST DUP2 EQ PUSH2 0x15E5 JUMPI PUSH1 0x0 DUP1 REVERT JUMPDEST POP JUMP JUMPDEST PUSH1 0x0 DUP2 CALLDATALOAD SWAP1 POP PUSH2 0x15F7 DUP2 PUSH2 0x15D1 JUMP JUMPDEST SWAP3 SWAP2 POP POP JUMP JUMPDEST PUSH1 0x0 DUP1 PUSH1 0x40 DUP4 DUP6 SUB SLT ISZERO PUSH2 0x1614 JUMPI PUSH2 0x1613 PUSH2 0x156E JUMP JUMPDEST JUMPDEST PUSH1 0x0 PUSH2 0x1622 DUP6 DUP3 DUP7 ADD PUSH2 0x15BC JUMP JUMPDEST SWAP3 POP POP PUSH1 0x20 PUSH2 0x1633 DUP6 DUP3 DUP7 ADD PUSH2 0x15E8 JUMP JUMPDEST SWAP2 POP POP SWAP3 POP SWAP3 SWAP1 POP JUMP JUMPDEST PUSH1 0x0 DUP2 ISZERO ISZERO SWAP1 POP SWAP2 SWAP1 POP JUMP JUMPDEST PUSH2 0x1652 DUP2 PUSH2 0x163D JUMP JUMPDEST DUP3 MSTORE POP POP JUMP JUMPDEST PUSH1 0x0 PUSH1 0x20 DUP3 ADD SWAP1 POP PUSH2 0x166D PUSH1 0x0 DUP4 ADD DUP5 PUSH2 0x1649 JUMP JUMPDEST SWAP3 SWAP2 POP POP JUMP JUMPDEST PUSH2 0x167C DUP2 PUSH2 0x13D9 JUMP JUMPDEST DUP3 MSTORE POP POP JUMP JUMPDEST PUSH1 0x0 PUSH1 0x20 DUP3 ADD SWAP1 POP PUSH2 0x1697 PUSH1 0x0 DUP4 ADD DUP5 PUSH2 0x1673 JUMP JUMPDEST SWAP3 SWAP2 POP POP JUMP JUMPDEST PUSH1 0x0 DUP1 PUSH1 0x0 PUSH1 0x60 DUP5 DUP7 SUB SLT ISZERO PUSH2 0x16B6 JUMPI PUSH2 0x16B5 PUSH2 0x156E JUMP JUMPDEST JUMPDEST PUSH1 0x0 PUSH2 0x16C4 DUP7 DUP3 DUP8 ADD PUSH2 0x15BC JUMP JUMPDEST SWAP4 POP POP PUSH1 0x20 PUSH2 0x16D5 DUP7 DUP3 DUP8 ADD PUSH2 0x15BC JUMP JUMPDEST SWAP3 POP POP PUSH1 0x40 PUSH2 0x16E6 DUP7 DUP3 DUP8 ADD PUSH2 0x15E8 JUMP JUMPDEST SWAP2 POP POP SWAP3 POP SWAP3 POP SWAP3 JUMP JUMPDEST PUSH1 0x0 PUSH1 0x20 DUP3 DUP5 SUB SLT ISZERO PUSH2 0x1706 JUMPI PUSH2 0x1705 PUSH2 0x156E JUMP JUMPDEST JUMPDEST PUSH1 0x0 PUSH2 0x1714 DUP5 DUP3 DUP6 ADD PUSH2 0x15BC JUMP JUMPDEST SWAP2 POP POP SWAP3 SWAP2 POP POP JUMP JUMPDEST PUSH1 0x0 PUSH1 0xFF DUP3 AND SWAP1 POP SWAP2 SWAP1 POP JUMP JUMPDEST PUSH2 0x1733 DUP2 PUSH2 0x171D JUMP JUMPDEST DUP3 MSTORE POP POP JUMP JUMPDEST PUSH1 0x0 PUSH1 0x20 DUP3 ADD SWAP1 POP PUSH2 0x174E PUSH1 0x0 DUP4 ADD DUP5 PUSH2 0x172A JUMP JUMPDEST SWAP3 SWAP2 POP POP JUMP JUMPDEST PUSH1 0x0 PUSH1 0x20 DUP3 DUP5 SUB SLT ISZERO PUSH2 0x176A JUMPI PUSH2 0x1769 PUSH2 0x156E JUMP JUMPDEST JUMPDEST PUSH1 0x0 PUSH2 0x1778 DUP5 DUP3 DUP6 ADD PUSH2 0x15E8 JUMP JUMPDEST SWAP2 POP POP SWAP3 SWAP2 POP POP JUMP JUMPDEST PUSH2 0x178A DUP2 PUSH2 0x1593 JUMP JUMPDEST DUP3 MSTORE POP POP JUMP JUMPDEST PUSH1 0x0 PUSH1 0x20 DUP3 ADD SWAP1 POP PUSH2 0x17A5 PUSH1 0x0 DUP4 ADD DUP5 PUSH2 0x1781 JUMP JUMPDEST SWAP3 SWAP2 POP POP JUMP JUMPDEST PUSH1 0x0 PUSH1 0x40 DUP3 ADD SWAP1 POP DUP2 DUP2 SUB PUSH1 0x0 DUP4 ADD MSTORE PUSH2 0x17C5 DUP2 DUP6 PUSH2 0x1513 JUMP JUMPDEST SWAP1 POP DUP2 DUP2 SUB PUSH1 0x20 DUP4 ADD MSTORE PUSH2 0x17D9 DUP2 DUP5 PUSH2 0x1513 JUMP JUMPDEST SWAP1 POP SWAP4 SWAP3 POP POP POP JUMP JUMPDEST PUSH1 0x0 DUP2 MLOAD SWAP1 POP SWAP2 SWAP1 POP JUMP JUMPDEST PUSH1 0x0 DUP3 DUP3 MSTORE PUSH1 0x20 DUP3 ADD SWAP1 POP SWAP3 SWAP2 POP POP JUMP JUMPDEST PUSH1 0x0 DUP2 SWAP1 POP PUSH1 0x20 DUP3 ADD SWAP1 POP SWAP2 SWAP1 POP JUMP JUMPDEST PUSH2 0x1817 DUP2 PUSH2 0x1593 JUMP JUMPDEST DUP3 MSTORE POP POP JUMP JUMPDEST PUSH1 0x20 DUP3 ADD PUSH1 0x0 DUP3 ADD MLOAD PUSH2 0x1833 PUSH1 0x0 DUP6 ADD DUP3 PUSH2 0x180E JUMP JUMPDEST POP POP POP POP JUMP JUMPDEST PUSH1 0x0 PUSH2 0x1845 DUP4 DUP4 PUSH2 0x181D JUMP JUMPDEST PUSH1 0x20 DUP4 ADD SWAP1 POP SWAP3 SWAP2 POP POP JUMP JUMPDEST PUSH1 0x0 PUSH1 0x20 DUP3 ADD SWAP1 POP SWAP2 SWAP1 POP JUMP JUMPDEST PUSH1 0x0 PUSH2 0x1869 DUP3 PUSH2 0x17E2 JUMP JUMPDEST PUSH2 0x1873 DUP2 DUP6 PUSH2 0x17ED JUMP JUMPDEST SWAP4 POP PUSH2 0x187E DUP4 PUSH2 0x17FE JUMP JUMPDEST DUP1 PUSH1 0x0 JUMPDEST DUP4 DUP2 LT ISZERO PUSH2 0x18AF JUMPI DUP2 MLOAD PUSH2 0x1896 DUP9 DUP3 PUSH2 0x1839 JUMP JUMPDEST SWAP8 POP PUSH2 0x18A1 DUP4 PUSH2 0x1851 JUMP JUMPDEST SWAP3 POP POP PUSH1 0x1 DUP2 ADD SWAP1 POP PUSH2 0x1882 JUMP JUMPDEST POP DUP6 SWAP4 POP POP POP POP SWAP3 SWAP2 POP POP JUMP JUMPDEST PUSH1 0x0 PUSH1 0x20 DUP3 ADD SWAP1 POP DUP2 DUP2 SUB PUSH1 0x0 DUP4 ADD MSTORE PUSH2 0x18D6 DUP2 DUP5 PUSH2 0x185E JUMP JUMPDEST SWAP1 POP SWAP3 SWAP2 POP POP JUMP JUMPDEST PUSH1 0x0 DUP2 MLOAD SWAP1 POP SWAP2 SWAP1 POP JUMP JUMPDEST PUSH1 0x0 DUP3 DUP3 MSTORE PUSH1 0x20 DUP3 ADD SWAP1 POP SWAP3 SWAP2 POP POP JUMP JUMPDEST PUSH1 0x0 DUP2 SWAP1 POP PUSH1 0x20 DUP3 ADD SWAP1 POP SWAP2 SWAP1 POP JUMP JUMPDEST PUSH1 0x0 DUP3 DUP3 MSTORE PUSH1 0x20 DUP3 ADD SWAP1 POP SWAP3 SWAP2 POP POP JUMP JUMPDEST PUSH1 0x0 PUSH2 0x1926 DUP3 PUSH2 0x14BC JUMP JUMPDEST PUSH2 0x1930 DUP2 DUP6 PUSH2 0x190A JUMP JUMPDEST SWAP4 POP PUSH2 0x1940 DUP2 DUP6 PUSH1 0x20 DUP7 ADD PUSH2 0x14D8 JUMP JUMPDEST PUSH2 0x1949 DUP2 PUSH2 0x1502 JUMP JUMPDEST DUP5 ADD SWAP2 POP POP SWAP3 SWAP2 POP POP JUMP JUMPDEST PUSH1 0x0 PUSH1 0x40 DUP4 ADD PUSH1 0x0 DUP4 ADD MLOAD DUP5 DUP3 SUB PUSH1 0x0 DUP7 ADD MSTORE PUSH2 0x1971 DUP3 DUP3 PUSH2 0x191B JUMP JUMPDEST SWAP2 POP POP PUSH1 0x20 DUP4 ADD MLOAD DUP5 DUP3 SUB PUSH1 0x20 DUP7 ADD MSTORE PUSH2 0x198B DUP3 DUP3 PUSH2 0x191B JUMP JUMPDEST SWAP2 POP POP DUP1 SWAP2 POP POP SWAP3 SWAP2 POP POP JUMP JUMPDEST PUSH1 0x0 PUSH2 0x19A4 DUP4 DUP4 PUSH2 0x1954 JUMP JUMPDEST SWAP1 POP SWAP3 SWAP2 POP POP JUMP JUMPDEST PUSH1 0x0 PUSH1 0x20 DUP3 ADD SWAP1 POP SWAP2 SWAP1 POP JUMP JUMPDEST PUSH1 0x0 PUSH2 0x19C4 DUP3 PUSH2 0x18DE JUMP JUMPDEST PUSH2 0x19CE DUP2 DUP6 PUSH2 0x18E9 JUMP JUMPDEST SWAP4 POP DUP4 PUSH1 0x20 DUP3 MUL DUP6 ADD PUSH2 0x19E0 DUP6 PUSH2 0x18FA JUMP JUMPDEST DUP1 PUSH1 0x0 JUMPDEST DUP6 DUP2 LT ISZERO PUSH2 0x1A1C JUMPI DUP5 DUP5 SUB DUP10 MSTORE DUP2 MLOAD PUSH2 0x19FD DUP6 DUP3 PUSH2 0x1998 JUMP JUMPDEST SWAP5 POP PUSH2 0x1A08 DUP4 PUSH2 0x19AC JUMP JUMPDEST SWAP3 POP PUSH1 0x20 DUP11 ADD SWAP10 POP POP PUSH1 0x1 DUP2 ADD SWAP1 POP PUSH2 0x19E4 JUMP JUMPDEST POP DUP3 SWAP8 POP DUP8 SWAP6 POP POP POP POP POP POP SWAP3 SWAP2 POP POP JUMP JUMPDEST PUSH1 0x0 PUSH1 0x20 DUP3 ADD SWAP1 POP DUP2 DUP2 SUB PUSH1 0x0 DUP4 ADD MSTORE PUSH2 0x1A48 DUP2 DUP5 PUSH2 0x19B9 JUMP JUMPDEST SWAP1 POP SWAP3 SWAP2 POP POP JUMP JUMPDEST PUSH1 0x0 DUP1 PUSH1 0x40 DUP4 DUP6 SUB SLT ISZERO PUSH2 0x1A67 JUMPI PUSH2 0x1A66 PUSH2 0x156E JUMP JUMPDEST JUMPDEST PUSH1 0x0 PUSH2 0x1A75 DUP6 DUP3 DUP7 ADD PUSH2 0x15BC JUMP JUMPDEST SWAP3 POP POP PUSH1 0x20 PUSH2 0x1A86 DUP6 DUP3 DUP7 ADD PUSH2 0x15BC JUMP JUMPDEST SWAP2 POP POP SWAP3 POP SWAP3 SWAP1 POP JUMP JUMPDEST PUSH32 0x4E487B7100000000000000000000000000000000000000000000000000000000 PUSH1 0x0 MSTORE PUSH1 0x22 PUSH1 0x4 MSTORE PUSH1 0x24 PUSH1 0x0 REVERT JUMPDEST PUSH1 0x0 PUSH1 0x2 DUP3 DIV SWAP1 POP PUSH1 0x1 DUP3 AND DUP1 PUSH2 0x1AD7 JUMPI PUSH1 0x7F DUP3 AND SWAP2 POP JUMPDEST PUSH1 0x20 DUP3 LT DUP2 SUB PUSH2 0x1AEA JUMPI PUSH2 0x1AE9 PUSH2 0x1A90 JUMP JUMPDEST JUMPDEST POP SWAP2 SWAP1 POP JUMP JUMPDEST PUSH1 0x0 DUP2 SWAP1 POP SWAP2 SWAP1 POP JUMP JUMPDEST PUSH2 0x1B0B PUSH2 0x1B06 DUP3 PUSH2 0x13D9 JUMP JUMPDEST PUSH2 0x1AF0 JUMP JUMPDEST DUP3 MSTORE POP POP JUMP JUMPDEST PUSH1 0x0 PUSH2 0x1B1C DUP3 PUSH2 0x1573 JUMP JUMPDEST SWAP1 POP SWAP2 SWAP1 POP JUMP JUMPDEST PUSH1 0x0 DUP2 PUSH1 0x60 SHL SWAP1 POP SWAP2 SWAP1 POP JUMP JUMPDEST PUSH1 0x0 PUSH2 0x1B3B DUP3 PUSH2 0x1B23 JUMP JUMPDEST SWAP1 POP SWAP2 SWAP1 POP JUMP JUMPDEST PUSH1 0x0 PUSH2 0x1B4D DUP3 PUSH2 0x1B30 JUMP JUMPDEST SWAP1 POP SWAP2 SWAP1 POP JUMP JUMPDEST PUSH2 0x1B65 PUSH2 0x1B60 DUP3 PUSH2 0x1B11 JUMP JUMPDEST PUSH2 0x1B42 JUMP JUMPDEST DUP3 MSTORE POP POP JUMP JUMPDEST PUSH1 0x0 PUSH2 0x1B77 DUP3 DUP7 PUSH2 0x1AFA JUMP JUMPDEST PUSH1 0x20 DUP3 ADD SWAP2 POP PUSH2 0x1B87 DUP3 DUP6 PUSH2 0x1B54 JUMP JUMPDEST PUSH1 0x14 DUP3 ADD SWAP2 POP PUSH2 0x1B97 DUP3 DUP5 PUSH2 0x1AFA JUMP JUMPDEST PUSH1 0x20 DUP3 ADD SWAP2 POP DUP2 SWAP1 POP SWAP5 SWAP4 POP POP POP POP JUMP JUMPDEST PUSH32 0x4E487B7100000000000000000000000000000000000000000000000000000000 PUSH1 0x0 MSTORE PUSH1 0x12 PUSH1 0x4 MSTORE PUSH1 0x24 PUSH1 0x0 REVERT JUMPDEST PUSH1 0x0 PUSH2 0x1BE2 DUP3 PUSH2 0x13D9 JUMP JUMPDEST SWAP2 POP PUSH2 0x1BED DUP4 PUSH2 0x13D9 JUMP JUMPDEST SWAP3 POP DUP3 PUSH2 0x1BFD JUMPI PUSH2 0x1BFC PUSH2 0x1BA8 JUMP JUMPDEST JUMPDEST DUP3 DUP3 MOD SWAP1 POP SWAP3 SWAP2 POP POP JUMP JUMPDEST PUSH32 0x4E487B7100000000000000000000000000000000000000000000000000000000 PUSH1 0x0 MSTORE PUSH1 0x32 PUSH1 0x4 MSTORE PUSH1 0x24 PUSH1 0x0 REVERT JUMPDEST PUSH32 0x4E487B7100000000000000000000000000000000000000000000000000000000 PUSH1 0x0 MSTORE PUSH1 0x41 PUSH1 0x4 MSTORE PUSH1 0x24 PUSH1 0x0 REVERT JUMPDEST PUSH1 0x0 DUP2 SWAP1 POP DUP2 PUSH1 0x0 MSTORE PUSH1 0x20 PUSH1 0x0 KECCAK256 SWAP1 POP SWAP2 SWAP1 POP JUMP JUMPDEST PUSH1 0x0 PUSH1 0x20 PUSH1 0x1F DUP4 ADD DIV SWAP1 POP SWAP2 SWAP1 POP JUMP JUMPDEST PUSH1 0x0 DUP3 DUP3 SHL SWAP1 POP SWAP3 SWAP2 POP POP JUMP JUMPDEST PUSH1 0x0 PUSH1 0x8 DUP4 MUL PUSH2 0x1CC8 PUSH32 0xFFFFFFFFFFFFFFFFFFFFFFFFFFFFFFFFFFFFFFFFFFFFFFFFFFFFFFFFFFFFFFFF DUP3 PUSH2 0x1C8B JUMP JUMPDEST PUSH2 0x1CD2 DUP7 DUP4 PUSH2 0x1C8B JUMP JUMPDEST SWAP6 POP DUP1 NOT DUP5 AND SWAP4 POP DUP1 DUP7 AND DUP5 OR SWAP3 POP POP POP SWAP4 SWAP3 POP POP POP JUMP JUMPDEST PUSH1 0x0 DUP2 SWAP1 POP SWAP2 SWAP1 POP JUMP JUMPDEST PUSH1 0x0 PUSH2 0x1D0F PUSH2 0x1D0A PUSH2 0x1D05 DUP5 PUSH2 0x13D9 JUMP JUMPDEST PUSH2 0x1CEA JUMP JUMPDEST PUSH2 0x13D9 JUMP JUMPDEST SWAP1 POP SWAP2 SWAP1 POP JUMP JUMPDEST PUSH1 0x0 DUP2 SWAP1 POP SWAP2 SWAP1 POP JUMP JUMPDEST PUSH2 0x1D29 DUP4 PUSH2 0x1CF4 JUMP JUMPDEST PUSH2 0x1D3D PUSH2 0x1D35 DUP3 PUSH2 0x1D16 JUMP JUMPDEST DUP5 DUP5 SLOAD PUSH2 0x1C98 JUMP JUMPDEST DUP3 SSTORE POP POP POP POP JUMP JUMPDEST PUSH1 0x0 SWAP1 JUMP JUMPDEST PUSH2 0x1D52 PUSH2 0x1D45 JUMP JUMPDEST PUSH2 0x1D5D DUP2 DUP5 DUP5 PUSH2 0x1D20 JUMP JUMPDEST POP POP POP JUMP JUMPDEST JUMPDEST DUP2 DUP2 LT ISZERO PUSH2 0x1D81 JUMPI PUSH2 0x1D76 PUSH1 0x0 DUP3 PUSH2 0x1D4A JUMP JUMPDEST PUSH1 0x1 DUP2 ADD SWAP1 POP PUSH2 0x1D63 JUMP JUMPDEST POP POP JUMP JUMPDEST PUSH1 0x1F DUP3 GT ISZERO PUSH2 0x1DC6 JUMPI PUSH2 0x1D97 DUP2 PUSH2 0x1C66 JUMP JUMPDEST PUSH2 0x1DA0 DUP5 PUSH2 0x1C7B JUMP JUMPDEST DUP2 ADD PUSH1 0x20 DUP6 LT ISZERO PUSH2 0x1DAF JUMPI DUP2 SWAP1 POP JUMPDEST PUSH2 0x1DC3 PUSH2 0x1DBB DUP6 PUSH2 0x1C7B JUMP JUMPDEST DUP4 ADD DUP3 PUSH2 0x1D62 JUMP JUMPDEST POP POP JUMPDEST POP POP POP JUMP JUMPDEST PUSH1 0x0 DUP3 DUP3 SHR SWAP1 POP SWAP3 SWAP2 POP POP JUMP JUMPDEST PUSH1 0x0 PUSH2 0x1DE9 PUSH1 0x0 NOT DUP5 PUSH1 0x8 MUL PUSH2 0x1DCB JUMP JUMPDEST NOT DUP1 DUP4 AND SWAP2 POP POP SWAP3 SWAP2 POP POP JUMP JUMPDEST PUSH1 0x0 PUSH2 0x1E02 DUP4 DUP4 PUSH2 0x1DD8 JUMP JUMPDEST SWAP2 POP DUP3 PUSH1 0x2 MUL DUP3 OR SWAP1 POP SWAP3 SWAP2 POP POP JUMP JUMPDEST PUSH2 0x1E1B DUP3 PUSH2 0x14BC JUMP JUMPDEST PUSH8 0xFFFFFFFFFFFFFFFF DUP2 GT ISZERO PUSH2 0x1E34 JUMPI PUSH2 0x1E33 PUSH2 0x1C37 JUMP JUMPDEST JUMPDEST PUSH2 0x1E3E DUP3 SLOAD PUSH2 0x1ABF JUMP JUMPDEST PUSH2 0x1E49 DUP3 DUP3 DUP6 PUSH2 0x1D85 JUMP JUMPDEST PUSH1 0x0 PUSH1 0x20 SWAP1 POP PUSH1 0x1F DUP4 GT PUSH1 0x1 DUP2 EQ PUSH2 0x1E7C JUMPI PUSH1 0x0 DUP5 ISZERO PUSH2 0x1E6A JUMPI DUP3 DUP8 ADD MLOAD SWAP1 POP JUMPDEST PUSH2 0x1E74 DUP6 DUP3 PUSH2 0x1DF6 JUMP JUMPDEST DUP7 SSTORE POP PUSH2 0x1EDC JUMP JUMPDEST PUSH1 0x1F NOT DUP5 AND PUSH2 0x1E8A DUP7 PUSH2 0x1C66 JUMP JUMPDEST PUSH1 0x0 JUMPDEST DUP3 DUP2 LT ISZERO PUSH2 0x1EB2 JUMPI DUP5 DUP10 ADD MLOAD DUP3 SSTORE PUSH1 0x1 DUP3 ADD SWAP2 POP PUSH1 0x20 DUP6 ADD SWAP5 POP PUSH1 0x20 DUP2 ADD SWAP1 POP PUSH2 0x1E8D JUMP JUMPDEST DUP7 DUP4 LT ISZERO PUSH2 0x1ECF JUMPI DUP5 DUP10 ADD MLOAD PUSH2 0x1ECB PUSH1 0x1F DUP10 AND DUP3 PUSH2 0x1DD8 JUMP JUMPDEST DUP4 SSTORE POP JUMPDEST PUSH1 0x1 PUSH1 0x2 DUP9 MUL ADD DUP9 SSTORE POP POP POP JUMPDEST POP POP POP POP POP POP JUMP JUMPDEST PUSH1 0x0 PUSH2 0x1EEF DUP3 PUSH2 0x13D9 JUMP JUMPDEST SWAP2 POP PUSH32 0xFFFFFFFFFFFFFFFFFFFFFFFFFFFFFFFFFFFFFFFFFFFFFFFFFFFFFFFFFFFFFFFF DUP3 SUB PUSH2 0x1F21 JUMPI PUSH2 0x1F20 PUSH2 0x13E3 JUMP JUMPDEST JUMPDEST PUSH1 0x1 DUP3 ADD SWAP1 POP SWAP2 SWAP1 POP JUMP INVALID LOG2 PUSH5 0x6970667358 0x22 SLT KECCAK256 ISZERO 0xEB 0xA6 SELFDESTRUCT 0xBB 0xFC 0xBF REVERT 0xF6 EXTCODECOPY POP SWAP13 CHAINID 0xD9 0xA6 NUMBER 0x25 SWAP8 PUSH3 0x7AA12D CALLVALUE SHR PUSH24 0xAE24A3DB2C77D964736F6C6343000813003368747470733A 0x2F 0x2F PUSH20 0x74617469632E77696B69612E6E6F636F6F6B6965 0x2E PUSH15 0x65742F706F6B656D6F6E2F696D6167 PUSH6 0x732F352F3565 0x2F 0x25 GASLIMIT PREVRANDAO 0x25 CODESIZE NUMBER 0x25 CODESIZE NUMBER 0x25 GASLIMIT NUMBER 0x25 CODECOPY PREVRANDAO 0x25 TIMESTAMP CALLVALUE 0x25 GASLIMIT TIMESTAMP 0x25 COINBASE CALLDATASIZE 0x25 COINBASE NUMBER 0x5F 0x25 GASLIMIT COINBASE 0x25 TIMESTAMP CALLER 0x25 TIMESTAMP CALLDATALOAD 0x25 GASLIMIT NUMBER 0x25 CODESIZE TIMESTAMP 0x25 CODECOPY PREVRANDAO 0x5F 0x25 GASLIMIT NUMBER 0x25 CODECOPY PREVRANDAO 0x25 TIMESTAMP NUMBER 0x25 GASLIMIT TIMESTAMP 0x25 CODECOPY CHAINID 0x25 COINBASE NUMBER 0x25 GASLIMIT NUMBER 0x25 CODESIZE COINBASE 0x25 COINBASE CALLVALUE 0x25 GASLIMIT PREVRANDAO 0x25 CODESIZE COINBASE 0x25 TIMESTAMP CODESIZE 0x2E PUSH17 0x6E672F7265766973696F6E2F6C61746573 PUSH21 0x2F7363616C652D746F2D77696474682D646F776E2F BALANCE ORIGIN ADDRESS ADDRESS EXTCODEHASH PUSH4 0x623D3230 BALANCE CALLDATACOPY ADDRESS CALLVALUE ADDRESS CALLVALUE ORIGIN CALLER CALLER ADDRESS ADDRESS CALLDATALOAD 0x26 PUSH17 0x6174682D7072656669783D6B6F68747470 PUSH20 0x3A2F2F7374617469632E77696B69612E6E6F636F PUSH16 0x6B69652E6E65742F706F6B656D6F6E2F PUSH10 0x6D616765732F612F6161 0x2F 0x25 GASLIMIT COINBASE 0x25 TIMESTAMP NUMBER 0x25 COINBASE NUMBER 0x25 GASLIMIT TIMESTAMP 0x25 TIMESTAMP CALLDATASIZE 0x25 CODESIZE ADDRESS 0x25 GASLIMIT COINBASE 0x25 TIMESTAMP CODESIZE 0x25 TIMESTAMP ADDRESS 0x5F 0x25 GASLIMIT COINBASE 0x25 TIMESTAMP CALLER 0x25 TIMESTAMP CALLDATALOAD 0x25 GASLIMIT NUMBER 0x25 CODESIZE TIMESTAMP 0x25 CODECOPY PREVRANDAO 0x5F 0x25 GASLIMIT NUMBER 0x25 CODECOPY PREVRANDAO 0x25 TIMESTAMP NUMBER 0x25 GASLIMIT TIMESTAMP 0x25 CODECOPY CHAINID 0x25 COINBASE NUMBER 0x25 GASLIMIT NUMBER 0x25 CODESIZE COINBASE 0x25 COINBASE CALLVALUE 0x25 GASLIMIT PREVRANDAO 0x25 CODESIZE COINBASE 0x25 TIMESTAMP CODESIZE 0x2E PUSH17 0x6E672F7265766973696F6E2F6C61746573 PUSH21 0x3F63623D3230313730343034323333343532267061 PUSH21 0x682D7072656669783D6B6F68747470733A2F2F7570 PUSH13 0x6F61642E77696B696D65646961 0x2E PUSH16 0x72672F77696B6970656469612F6B6F2F PUSH21 0x68756D622F612F61362F506F6B2543332541396D6F PUSH15 0x5F50696B616368755F6172742E706E PUSH8 0x2F32303070782D50 PUSH16 0x6B2543332541396D6F6E5F50696B6163 PUSH9 0x755F6172742E706E67 "
				},
				"gasEstimates": {
					"creation": {
						"codeDepositCost": "1606800",
						"executionCost": "infinite",
						"totalCost": "infinite"
					},
					"external": {
						"allowance(address,address)": "infinite",
						"approve(address,uint256)": "23169",
						"balanceOf(address)": "2886",
						"balances(address)": "2837",
						"burn(uint256)": "infinite",
						"buyPokemon()": "infinite",
						"decimals()": "2516",
						"getPokemon()": "infinite",
						"getPokemonUsers()": "infinite",
						"name()": "infinite",
						"pokemons(address,uint256)": "infinite",
						"symbol()": "infinite",
						"totalSupply()": "2497",
						"transfer(address,uint256)": "infinite",
						"transferFrom(address,address,uint256)": "infinite",
						"users(uint256)": "5048"
					}
				},
				"methodIdentifiers": {
					"allowance(address,address)": "dd62ed3e",
					"approve(address,uint256)": "095ea7b3",
					"balanceOf(address)": "70a08231",
					"balances(address)": "27e235e3",
					"burn(uint256)": "42966c68",
					"buyPokemon()": "c78bc15f",
					"decimals()": "313ce567",
					"getPokemon()": "87e24c72",
					"getPokemonUsers()": "868babb0",
					"name()": "06fdde03",
					"pokemons(address,uint256)": "36e60477",
					"symbol()": "95d89b41",
					"totalSupply()": "18160ddd",
					"transfer(address,uint256)": "a9059cbb",
					"transferFrom(address,address,uint256)": "23b872dd",
					"users(uint256)": "365b98b2"
				}
			},
			"storageLayout": {
				"storage": [
					{
						"astId": 6,
						"contract": "contracts/Pokemon.sol:Pokemon",
						"label": "name",
						"offset": 0,
						"slot": "0",
						"type": "t_string_storage"
					},
					{
						"astId": 8,
						"contract": "contracts/Pokemon.sol:Pokemon",
						"label": "symbol",
						"offset": 0,
						"slot": "1",
						"type": "t_string_storage"
					},
					{
						"astId": 11,
						"contract": "contracts/Pokemon.sol:Pokemon",
						"label": "decimals",
						"offset": 0,
						"slot": "2",
						"type": "t_uint8"
					},
					{
						"astId": 14,
						"contract": "contracts/Pokemon.sol:Pokemon",
						"label": "totalSupply",
						"offset": 0,
						"slot": "3",
						"type": "t_uint256"
					},
					{
						"astId": 16,
						"contract": "contracts/Pokemon.sol:Pokemon",
						"label": "owner",
						"offset": 0,
						"slot": "4",
						"type": "t_address"
					},
					{
						"astId": 20,
						"contract": "contracts/Pokemon.sol:Pokemon",
						"label": "balances",
						"offset": 0,
						"slot": "5",
						"type": "t_mapping(t_address,t_uint256)"
					},
					{
						"astId": 27,
						"contract": "contracts/Pokemon.sol:Pokemon",
						"label": "allowance",
						"offset": 0,
						"slot": "6",
						"type": "t_mapping(t_address,t_mapping(t_address,t_uint256))"
					},
					{
						"astId": 325,
						"contract": "contracts/Pokemon.sol:Pokemon",
						"label": "tokenPrice",
						"offset": 0,
						"slot": "7",
						"type": "t_uint256"
					},
					{
						"astId": 332,
						"contract": "contracts/Pokemon.sol:Pokemon",
						"label": "pokemonName",
						"offset": 0,
						"slot": "8",
						"type": "t_array(t_string_storage)dyn_storage"
					},
					{
						"astId": 339,
						"contract": "contracts/Pokemon.sol:Pokemon",
						"label": "pokemonUrl",
						"offset": 0,
						"slot": "9",
						"type": "t_array(t_string_storage)dyn_storage"
					},
					{
						"astId": 345,
						"contract": "contracts/Pokemon.sol:Pokemon",
						"label": "pokemons",
						"offset": 0,
						"slot": "10",
						"type": "t_mapping(t_address,t_array(t_struct(Pokes)319_storage)dyn_storage)"
					},
					{
						"astId": 349,
						"contract": "contracts/Pokemon.sol:Pokemon",
						"label": "users",
						"offset": 0,
						"slot": "11",
						"type": "t_array(t_struct(Users)322_storage)dyn_storage"
					}
				],
				"types": {
					"t_address": {
						"encoding": "inplace",
						"label": "address",
						"numberOfBytes": "20"
					},
					"t_array(t_string_storage)dyn_storage": {
						"base": "t_string_storage",
						"encoding": "dynamic_array",
						"label": "string[]",
						"numberOfBytes": "32"
					},
					"t_array(t_struct(Pokes)319_storage)dyn_storage": {
						"base": "t_struct(Pokes)319_storage",
						"encoding": "dynamic_array",
						"label": "struct Pokemon.Pokes[]",
						"numberOfBytes": "32"
					},
					"t_array(t_struct(Users)322_storage)dyn_storage": {
						"base": "t_struct(Users)322_storage",
						"encoding": "dynamic_array",
						"label": "struct Pokemon.Users[]",
						"numberOfBytes": "32"
					},
					"t_mapping(t_address,t_array(t_struct(Pokes)319_storage)dyn_storage)": {
						"encoding": "mapping",
						"key": "t_address",
						"label": "mapping(address => struct Pokemon.Pokes[])",
						"numberOfBytes": "32",
						"value": "t_array(t_struct(Pokes)319_storage)dyn_storage"
					},
					"t_mapping(t_address,t_mapping(t_address,t_uint256))": {
						"encoding": "mapping",
						"key": "t_address",
						"label": "mapping(address => mapping(address => uint256))",
						"numberOfBytes": "32",
						"value": "t_mapping(t_address,t_uint256)"
					},
					"t_mapping(t_address,t_uint256)": {
						"encoding": "mapping",
						"key": "t_address",
						"label": "mapping(address => uint256)",
						"numberOfBytes": "32",
						"value": "t_uint256"
					},
					"t_string_storage": {
						"encoding": "bytes",
						"label": "string",
						"numberOfBytes": "32"
					},
					"t_struct(Pokes)319_storage": {
						"encoding": "inplace",
						"label": "struct Pokemon.Pokes",
						"members": [
							{
								"astId": 316,
								"contract": "contracts/Pokemon.sol:Pokemon",
								"label": "url",
								"offset": 0,
								"slot": "0",
								"type": "t_string_storage"
							},
							{
								"astId": 318,
								"contract": "contracts/Pokemon.sol:Pokemon",
								"label": "name",
								"offset": 0,
								"slot": "1",
								"type": "t_string_storage"
							}
						],
						"numberOfBytes": "64"
					},
					"t_struct(Users)322_storage": {
						"encoding": "inplace",
						"label": "struct Pokemon.Users",
						"members": [
							{
								"astId": 321,
								"contract": "contracts/Pokemon.sol:Pokemon",
								"label": "account",
								"offset": 0,
								"slot": "0",
								"type": "t_address"
							}
						],
						"numberOfBytes": "32"
					},
					"t_uint256": {
						"encoding": "inplace",
						"label": "uint256",
						"numberOfBytes": "32"
					},
					"t_uint8": {
						"encoding": "inplace",
						"label": "uint8",
						"numberOfBytes": "1"
					}
				}
			},
			"userdoc": {
				"kind": "user",
				"methods": {},
				"version": 1
			}
		}
	}
}