{
	"ERC20.sol": {
		"ERC20": {
			"abi": [
				{
					"inputs": [
						{
							"internalType": "string",
							"name": "_name",
							"type": "string"
						},
						{
							"internalType": "string",
							"name": "_symbol",
							"type": "string"
						},
						{
							"internalType": "uint256",
							"name": "_amount",
							"type": "uint256"
						}
					],
					"stateMutability": "nonpayable",
					"type": "constructor"
				},
				{
					"inputs": [
						{
							"internalType": "address",
							"name": "",
							"type": "address"
						},
						{
							"internalType": "address",
							"name": "",
							"type": "address"
						}
					],
					"name": "allowance",
					"outputs": [
						{
							"internalType": "uint256",
							"name": "",
							"type": "uint256"
						}
					],
					"stateMutability": "view",
					"type": "function"
				},
				{
					"inputs": [
						{
							"internalType": "address",
							"name": "spender",
							"type": "address"
						},
						{
							"internalType": "uint256",
							"name": "amount",
							"type": "uint256"
						}
					],
					"name": "approve",
					"outputs": [
						{
							"internalType": "bool",
							"name": "",
							"type": "bool"
						}
					],
					"stateMutability": "nonpayable",
					"type": "function"
				},
				{
					"inputs": [
						{
							"internalType": "address",
							"name": "account",
							"type": "address"
						}
					],
					"name": "balanceOf",
					"outputs": [
						{
							"internalType": "uint256",
							"name": "",
							"type": "uint256"
						}
					],
					"stateMutability": "view",
					"type": "function"
				},
				{
					"inputs": [
						{
							"internalType": "address",
							"name": "",
							"type": "address"
						}
					],
					"name": "balances",
					"outputs": [
						{
							"internalType": "uint256",
							"name": "",
							"type": "uint256"
						}
					],
					"stateMutability": "view",
					"type": "function"
				},
				{
					"inputs": [
						{
							"internalType": "uint256",
							"name": "amount",
							"type": "uint256"
						}
					],
					"name": "burn",
					"outputs": [],
					"stateMutability": "nonpayable",
					"type": "function"
				},
				{
					"inputs": [],
					"name": "decimals",
					"outputs": [
						{
							"internalType": "uint8",
							"name": "",
							"type": "uint8"
						}
					],
					"stateMutability": "view",
					"type": "function"
				},
				{
					"inputs": [],
					"name": "name",
					"outputs": [
						{
							"internalType": "string",
							"name": "",
							"type": "string"
						}
					],
					"stateMutability": "view",
					"type": "function"
				},
				{
					"inputs": [],
					"name": "symbol",
					"outputs": [
						{
							"internalType": "string",
							"name": "",
							"type": "string"
						}
					],
					"stateMutability": "view",
					"type": "function"
				},
				{
					"inputs": [],
					"name": "totalSupply",
					"outputs": [
						{
							"internalType": "uint256",
							"name": "",
							"type": "uint256"
						}
					],
					"stateMutability": "view",
					"type": "function"
				},
				{
					"inputs": [
						{
							"internalType": "address",
							"name": "to",
							"type": "address"
						},
						{
							"internalType": "uint256",
							"name": "amount",
							"type": "uint256"
						}
					],
					"name": "transfer",
					"outputs": [
						{
							"internalType": "bool",
							"name": "",
							"type": "bool"
						}
					],
					"stateMutability": "nonpayable",
					"type": "function"
				},
				{
					"inputs": [
						{
							"internalType": "address",
							"name": "sender",
							"type": "address"
						},
						{
							"internalType": "address",
							"name": "to",
							"type": "address"
						},
						{
							"internalType": "uint256",
							"name": "amount",
							"type": "uint256"
						}
					],
					"name": "transferFrom",
					"outputs": [
						{
							"internalType": "bool",
							"name": "",
							"type": "bool"
						}
					],
					"stateMutability": "nonpayable",
					"type": "function"
				},
				{
					"stateMutability": "payable",
					"type": "receive"
				}
			],
			"devdoc": {
				"kind": "dev",
				"methods": {},
				"version": 1
			},
			"evm": {
				"assembly": "    /* \"ERC20.sol\":87:3571  contract ERC20 is IERC20 {... */\n  mstore(0x40, 0x80)\n    /* \"ERC20.sol\":324:326  18 */\n  0x12\n    /* \"ERC20.sol\":300:326  uint8 public decimals = 18 */\n  0x02\n  exp(0x0100, 0x00)\n  dup2\n  sload\n  dup2\n  0xff\n  mul\n  not\n  and\n  swap1\n  dup4\n  0xff\n  and\n  mul\n  or\n  swap1\n  sstore\n  pop\n    /* \"ERC20.sol\":1902:2114  constructor(string memory _name, string memory _symbol, uint256 _amount) {... */\n  callvalue\n  dup1\n  iszero\n  tag_1\n  jumpi\n  0x00\n  dup1\n  revert\ntag_1:\n  pop\n  mload(0x40)\n  sub(codesize, bytecodeSize)\n  dup1\n  bytecodeSize\n  dup4\n  codecopy\n  dup2\n  dup2\n  add\n  0x40\n  mstore\n  dup2\n  add\n  swap1\n  tag_2\n  swap2\n  swap1\n  tag_3\n  jump\t// in\ntag_2:\n    /* \"ERC20.sol\":1994:2004  msg.sender */\n  caller\n    /* \"ERC20.sol\":1986:1991  owner */\n  0x04\n  0x00\n    /* \"ERC20.sol\":1986:2004  owner = msg.sender */\n  0x0100\n  exp\n  dup2\n  sload\n  dup2\n  0xffffffffffffffffffffffffffffffffffffffff\n  mul\n  not\n  and\n  swap1\n  dup4\n  0xffffffffffffffffffffffffffffffffffffffff\n  and\n  mul\n  or\n  swap1\n  sstore\n  pop\n    /* \"ERC20.sol\":2022:2027  _name */\n  dup3\n    /* \"ERC20.sol\":2015:2019  name */\n  0x00\n    /* \"ERC20.sol\":2015:2027  name = _name */\n  swap1\n  dup2\n  tag_6\n  swap2\n  swap1\n  tag_7\n  jump\t// in\ntag_6:\n  pop\n    /* \"ERC20.sol\":2047:2054  _symbol */\n  dup2\n    /* \"ERC20.sol\":2038:2044  symbol */\n  0x01\n    /* \"ERC20.sol\":2038:2054  symbol = _symbol */\n  swap1\n  dup2\n  tag_8\n  swap2\n  swap1\n  tag_7\n  jump\t// in\ntag_8:\n  pop\n    /* \"ERC20.sol\":2065:2106  mint(_amount * (10 ** uint256(decimals))) */\n  tag_9\n    /* \"ERC20.sol\":2095:2103  decimals */\n  0x02\n  0x00\n  swap1\n  sload\n  swap1\n  0x0100\n  exp\n  swap1\n  div\n  0xff\n  and\n    /* \"ERC20.sol\":2087:2104  uint256(decimals) */\n  0xff\n  and\n    /* \"ERC20.sol\":2081:2083  10 */\n  0x0a\n    /* \"ERC20.sol\":2081:2104  10 ** uint256(decimals) */\n  tag_10\n  swap2\n  swap1\n  tag_11\n  jump\t// in\ntag_10:\n    /* \"ERC20.sol\":2070:2077  _amount */\n  dup3\n    /* \"ERC20.sol\":2070:2105  _amount * (10 ** uint256(decimals)) */\n  tag_12\n  swap2\n  swap1\n  tag_13\n  jump\t// in\ntag_12:\n    /* \"ERC20.sol\":2065:2069  mint */\n  shl(0x20, tag_14)\n    /* \"ERC20.sol\":2065:2106  mint(_amount * (10 ** uint256(decimals))) */\n  0x20\n  shr\n  jump\t// in\ntag_9:\n    /* \"ERC20.sol\":1902:2114  constructor(string memory _name, string memory _symbol, uint256 _amount) {... */\n  pop\n  pop\n  pop\n    /* \"ERC20.sol\":87:3571  contract ERC20 is IERC20 {... */\n  jump(tag_15)\n    /* \"ERC20.sol\":2122:2239  function mint(uint amount) internal {... */\ntag_14:\n    /* \"ERC20.sol\":2193:2199  amount */\n  dup1\n    /* \"ERC20.sol\":2169:2177  balances */\n  0x05\n    /* \"ERC20.sol\":2169:2189  balances[msg.sender] */\n  0x00\n    /* \"ERC20.sol\":2178:2188  msg.sender */\n  caller\n    /* \"ERC20.sol\":2169:2189  balances[msg.sender] */\n  0xffffffffffffffffffffffffffffffffffffffff\n  and\n  0xffffffffffffffffffffffffffffffffffffffff\n  and\n  dup2\n  mstore\n  0x20\n  add\n  swap1\n  dup2\n  mstore\n  0x20\n  add\n  0x00\n  keccak256\n  0x00\n    /* \"ERC20.sol\":2169:2199  balances[msg.sender] += amount */\n  dup3\n  dup3\n  sload\n  tag_17\n  swap2\n  swap1\n  tag_18\n  jump\t// in\ntag_17:\n  swap3\n  pop\n  pop\n  dup2\n  swap1\n  sstore\n  pop\n    /* \"ERC20.sol\":2225:2231  amount */\n  dup1\n    /* \"ERC20.sol\":2210:2221  totalSupply */\n  0x03\n  0x00\n    /* \"ERC20.sol\":2210:2231  totalSupply += amount */\n  dup3\n  dup3\n  sload\n  tag_19\n  swap2\n  swap1\n  tag_18\n  jump\t// in\ntag_19:\n  swap3\n  pop\n  pop\n  dup2\n  swap1\n  sstore\n  pop\n    /* \"ERC20.sol\":2122:2239  function mint(uint amount) internal {... */\n  pop\n  jump\t// out\n    /* \"#utility.yul\":7:82   */\ntag_20:\n    /* \"#utility.yul\":40:46   */\n  0x00\n    /* \"#utility.yul\":73:75   */\n  0x40\n    /* \"#utility.yul\":67:76   */\n  mload\n    /* \"#utility.yul\":57:76   */\n  swap1\n  pop\n    /* \"#utility.yul\":7:82   */\n  swap1\n  jump\t// out\n    /* \"#utility.yul\":88:205   */\ntag_21:\n    /* \"#utility.yul\":197:198   */\n  0x00\n    /* \"#utility.yul\":194:195   */\n  dup1\n    /* \"#utility.yul\":187:199   */\n  revert\n    /* \"#utility.yul\":211:328   */\ntag_22:\n    /* \"#utility.yul\":320:321   */\n  0x00\n    /* \"#utility.yul\":317:318   */\n  dup1\n    /* \"#utility.yul\":310:322   */\n  revert\n    /* \"#utility.yul\":334:451   */\ntag_23:\n    /* \"#utility.yul\":443:444   */\n  0x00\n    /* \"#utility.yul\":440:441   */\n  dup1\n    /* \"#utility.yul\":433:445   */\n  revert\n    /* \"#utility.yul\":457:574   */\ntag_24:\n    /* \"#utility.yul\":566:567   */\n  0x00\n    /* \"#utility.yul\":563:564   */\n  dup1\n    /* \"#utility.yul\":556:568   */\n  revert\n    /* \"#utility.yul\":580:682   */\ntag_25:\n    /* \"#utility.yul\":621:627   */\n  0x00\n    /* \"#utility.yul\":672:674   */\n  0x1f\n    /* \"#utility.yul\":668:675   */\n  not\n    /* \"#utility.yul\":663:665   */\n  0x1f\n    /* \"#utility.yul\":656:661   */\n  dup4\n    /* \"#utility.yul\":652:666   */\n  add\n    /* \"#utility.yul\":648:676   */\n  and\n    /* \"#utility.yul\":638:676   */\n  swap1\n  pop\n    /* \"#utility.yul\":580:682   */\n  swap2\n  swap1\n  pop\n  jump\t// out\n    /* \"#utility.yul\":688:868   */\ntag_26:\n    /* \"#utility.yul\":736:813   */\n  0x4e487b7100000000000000000000000000000000000000000000000000000000\n    /* \"#utility.yul\":733:734   */\n  0x00\n    /* \"#utility.yul\":726:814   */\n  mstore\n    /* \"#utility.yul\":833:837   */\n  0x41\n    /* \"#utility.yul\":830:831   */\n  0x04\n    /* \"#utility.yul\":823:838   */\n  mstore\n    /* \"#utility.yul\":857:861   */\n  0x24\n    /* \"#utility.yul\":854:855   */\n  0x00\n    /* \"#utility.yul\":847:862   */\n  revert\n    /* \"#utility.yul\":874:1155   */\ntag_27:\n    /* \"#utility.yul\":957:984   */\n  tag_67\n    /* \"#utility.yul\":979:983   */\n  dup3\n    /* \"#utility.yul\":957:984   */\n  tag_25\n  jump\t// in\ntag_67:\n    /* \"#utility.yul\":949:955   */\n  dup2\n    /* \"#utility.yul\":945:985   */\n  add\n    /* \"#utility.yul\":1087:1093   */\n  dup2\n    /* \"#utility.yul\":1075:1085   */\n  dup2\n    /* \"#utility.yul\":1072:1094   */\n  lt\n    /* \"#utility.yul\":1051:1069   */\n  0xffffffffffffffff\n    /* \"#utility.yul\":1039:1049   */\n  dup3\n    /* \"#utility.yul\":1036:1070   */\n  gt\n    /* \"#utility.yul\":1033:1095   */\n  or\n    /* \"#utility.yul\":1030:1118   */\n  iszero\n  tag_68\n  jumpi\n    /* \"#utility.yul\":1098:1116   */\n  tag_69\n  tag_26\n  jump\t// in\ntag_69:\n    /* \"#utility.yul\":1030:1118   */\ntag_68:\n    /* \"#utility.yul\":1138:1148   */\n  dup1\n    /* \"#utility.yul\":1134:1136   */\n  0x40\n    /* \"#utility.yul\":1127:1149   */\n  mstore\n    /* \"#utility.yul\":917:1155   */\n  pop\n    /* \"#utility.yul\":874:1155   */\n  pop\n  pop\n  jump\t// out\n    /* \"#utility.yul\":1161:1290   */\ntag_28:\n    /* \"#utility.yul\":1195:1201   */\n  0x00\n    /* \"#utility.yul\":1222:1242   */\n  tag_71\n  tag_20\n  jump\t// in\ntag_71:\n    /* \"#utility.yul\":1212:1242   */\n  swap1\n  pop\n    /* \"#utility.yul\":1251:1284   */\n  tag_72\n    /* \"#utility.yul\":1279:1283   */\n  dup3\n    /* \"#utility.yul\":1271:1277   */\n  dup3\n    /* \"#utility.yul\":1251:1284   */\n  tag_27\n  jump\t// in\ntag_72:\n    /* \"#utility.yul\":1161:1290   */\n  swap2\n  swap1\n  pop\n  jump\t// out\n    /* \"#utility.yul\":1296:1604   */\ntag_29:\n    /* \"#utility.yul\":1358:1362   */\n  0x00\n    /* \"#utility.yul\":1448:1466   */\n  0xffffffffffffffff\n    /* \"#utility.yul\":1440:1446   */\n  dup3\n    /* \"#utility.yul\":1437:1467   */\n  gt\n    /* \"#utility.yul\":1434:1490   */\n  iszero\n  tag_74\n  jumpi\n    /* \"#utility.yul\":1470:1488   */\n  tag_75\n  tag_26\n  jump\t// in\ntag_75:\n    /* \"#utility.yul\":1434:1490   */\ntag_74:\n    /* \"#utility.yul\":1508:1537   */\n  tag_76\n    /* \"#utility.yul\":1530:1536   */\n  dup3\n    /* \"#utility.yul\":1508:1537   */\n  tag_25\n  jump\t// in\ntag_76:\n    /* \"#utility.yul\":1500:1537   */\n  swap1\n  pop\n    /* \"#utility.yul\":1592:1596   */\n  0x20\n    /* \"#utility.yul\":1586:1590   */\n  dup2\n    /* \"#utility.yul\":1582:1597   */\n  add\n    /* \"#utility.yul\":1574:1597   */\n  swap1\n  pop\n    /* \"#utility.yul\":1296:1604   */\n  swap2\n  swap1\n  pop\n  jump\t// out\n    /* \"#utility.yul\":1610:1856   */\ntag_30:\n    /* \"#utility.yul\":1691:1692   */\n  0x00\n    /* \"#utility.yul\":1701:1814   */\ntag_78:\n    /* \"#utility.yul\":1715:1721   */\n  dup4\n    /* \"#utility.yul\":1712:1713   */\n  dup2\n    /* \"#utility.yul\":1709:1722   */\n  lt\n    /* \"#utility.yul\":1701:1814   */\n  iszero\n  tag_80\n  jumpi\n    /* \"#utility.yul\":1800:1801   */\n  dup1\n    /* \"#utility.yul\":1795:1798   */\n  dup3\n    /* \"#utility.yul\":1791:1802   */\n  add\n    /* \"#utility.yul\":1785:1803   */\n  mload\n    /* \"#utility.yul\":1781:1782   */\n  dup2\n    /* \"#utility.yul\":1776:1779   */\n  dup5\n    /* \"#utility.yul\":1772:1783   */\n  add\n    /* \"#utility.yul\":1765:1804   */\n  mstore\n    /* \"#utility.yul\":1737:1739   */\n  0x20\n    /* \"#utility.yul\":1734:1735   */\n  dup2\n    /* \"#utility.yul\":1730:1740   */\n  add\n    /* \"#utility.yul\":1725:1740   */\n  swap1\n  pop\n    /* \"#utility.yul\":1701:1814   */\n  jump(tag_78)\ntag_80:\n    /* \"#utility.yul\":1848:1849   */\n  0x00\n    /* \"#utility.yul\":1839:1845   */\n  dup5\n    /* \"#utility.yul\":1834:1837   */\n  dup5\n    /* \"#utility.yul\":1830:1846   */\n  add\n    /* \"#utility.yul\":1823:1850   */\n  mstore\n    /* \"#utility.yul\":1672:1856   */\n  pop\n    /* \"#utility.yul\":1610:1856   */\n  pop\n  pop\n  pop\n  jump\t// out\n    /* \"#utility.yul\":1862:2296   */\ntag_31:\n    /* \"#utility.yul\":1951:1956   */\n  0x00\n    /* \"#utility.yul\":1976:2042   */\n  tag_82\n    /* \"#utility.yul\":1992:2041   */\n  tag_83\n    /* \"#utility.yul\":2034:2040   */\n  dup5\n    /* \"#utility.yul\":1992:2041   */\n  tag_29\n  jump\t// in\ntag_83:\n    /* \"#utility.yul\":1976:2042   */\n  tag_28\n  jump\t// in\ntag_82:\n    /* \"#utility.yul\":1967:2042   */\n  swap1\n  pop\n    /* \"#utility.yul\":2065:2071   */\n  dup3\n    /* \"#utility.yul\":2058:2063   */\n  dup2\n    /* \"#utility.yul\":2051:2072   */\n  mstore\n    /* \"#utility.yul\":2103:2107   */\n  0x20\n    /* \"#utility.yul\":2096:2101   */\n  dup2\n    /* \"#utility.yul\":2092:2108   */\n  add\n    /* \"#utility.yul\":2141:2144   */\n  dup5\n    /* \"#utility.yul\":2132:2138   */\n  dup5\n    /* \"#utility.yul\":2127:2130   */\n  dup5\n    /* \"#utility.yul\":2123:2139   */\n  add\n    /* \"#utility.yul\":2120:2145   */\n  gt\n    /* \"#utility.yul\":2117:2229   */\n  iszero\n  tag_84\n  jumpi\n    /* \"#utility.yul\":2148:2227   */\n  tag_85\n  tag_24\n  jump\t// in\ntag_85:\n    /* \"#utility.yul\":2117:2229   */\ntag_84:\n    /* \"#utility.yul\":2238:2290   */\n  tag_86\n    /* \"#utility.yul\":2283:2289   */\n  dup5\n    /* \"#utility.yul\":2278:2281   */\n  dup3\n    /* \"#utility.yul\":2273:2276   */\n  dup6\n    /* \"#utility.yul\":2238:2290   */\n  tag_30\n  jump\t// in\ntag_86:\n    /* \"#utility.yul\":1957:2296   */\n  pop\n    /* \"#utility.yul\":1862:2296   */\n  swap4\n  swap3\n  pop\n  pop\n  pop\n  jump\t// out\n    /* \"#utility.yul\":2316:2671   */\ntag_32:\n    /* \"#utility.yul\":2383:2388   */\n  0x00\n    /* \"#utility.yul\":2432:2435   */\n  dup3\n    /* \"#utility.yul\":2425:2429   */\n  0x1f\n    /* \"#utility.yul\":2417:2423   */\n  dup4\n    /* \"#utility.yul\":2413:2430   */\n  add\n    /* \"#utility.yul\":2409:2436   */\n  slt\n    /* \"#utility.yul\":2399:2521   */\n  tag_88\n  jumpi\n    /* \"#utility.yul\":2440:2519   */\n  tag_89\n  tag_23\n  jump\t// in\ntag_89:\n    /* \"#utility.yul\":2399:2521   */\ntag_88:\n    /* \"#utility.yul\":2550:2556   */\n  dup2\n    /* \"#utility.yul\":2544:2557   */\n  mload\n    /* \"#utility.yul\":2575:2665   */\n  tag_90\n    /* \"#utility.yul\":2661:2664   */\n  dup5\n    /* \"#utility.yul\":2653:2659   */\n  dup3\n    /* \"#utility.yul\":2646:2650   */\n  0x20\n    /* \"#utility.yul\":2638:2644   */\n  dup7\n    /* \"#utility.yul\":2634:2651   */\n  add\n    /* \"#utility.yul\":2575:2665   */\n  tag_31\n  jump\t// in\ntag_90:\n    /* \"#utility.yul\":2566:2665   */\n  swap2\n  pop\n    /* \"#utility.yul\":2389:2671   */\n  pop\n    /* \"#utility.yul\":2316:2671   */\n  swap3\n  swap2\n  pop\n  pop\n  jump\t// out\n    /* \"#utility.yul\":2677:2754   */\ntag_33:\n    /* \"#utility.yul\":2714:2721   */\n  0x00\n    /* \"#utility.yul\":2743:2748   */\n  dup2\n    /* \"#utility.yul\":2732:2748   */\n  swap1\n  pop\n    /* \"#utility.yul\":2677:2754   */\n  swap2\n  swap1\n  pop\n  jump\t// out\n    /* \"#utility.yul\":2760:2882   */\ntag_34:\n    /* \"#utility.yul\":2833:2857   */\n  tag_93\n    /* \"#utility.yul\":2851:2856   */\n  dup2\n    /* \"#utility.yul\":2833:2857   */\n  tag_33\n  jump\t// in\ntag_93:\n    /* \"#utility.yul\":2826:2831   */\n  dup2\n    /* \"#utility.yul\":2823:2858   */\n  eq\n    /* \"#utility.yul\":2813:2876   */\n  tag_94\n  jumpi\n    /* \"#utility.yul\":2872:2873   */\n  0x00\n    /* \"#utility.yul\":2869:2870   */\n  dup1\n    /* \"#utility.yul\":2862:2874   */\n  revert\n    /* \"#utility.yul\":2813:2876   */\ntag_94:\n    /* \"#utility.yul\":2760:2882   */\n  pop\n  jump\t// out\n    /* \"#utility.yul\":2888:3031   */\ntag_35:\n    /* \"#utility.yul\":2945:2950   */\n  0x00\n    /* \"#utility.yul\":2976:2982   */\n  dup2\n    /* \"#utility.yul\":2970:2983   */\n  mload\n    /* \"#utility.yul\":2961:2983   */\n  swap1\n  pop\n    /* \"#utility.yul\":2992:3025   */\n  tag_96\n    /* \"#utility.yul\":3019:3024   */\n  dup2\n    /* \"#utility.yul\":2992:3025   */\n  tag_34\n  jump\t// in\ntag_96:\n    /* \"#utility.yul\":2888:3031   */\n  swap3\n  swap2\n  pop\n  pop\n  jump\t// out\n    /* \"#utility.yul\":3037:4046   */\ntag_3:\n    /* \"#utility.yul\":3145:3151   */\n  0x00\n    /* \"#utility.yul\":3153:3159   */\n  dup1\n    /* \"#utility.yul\":3161:3167   */\n  0x00\n    /* \"#utility.yul\":3210:3212   */\n  0x60\n    /* \"#utility.yul\":3198:3207   */\n  dup5\n    /* \"#utility.yul\":3189:3196   */\n  dup7\n    /* \"#utility.yul\":3185:3208   */\n  sub\n    /* \"#utility.yul\":3181:3213   */\n  slt\n    /* \"#utility.yul\":3178:3297   */\n  iszero\n  tag_98\n  jumpi\n    /* \"#utility.yul\":3216:3295   */\n  tag_99\n  tag_21\n  jump\t// in\ntag_99:\n    /* \"#utility.yul\":3178:3297   */\ntag_98:\n    /* \"#utility.yul\":3357:3358   */\n  0x00\n    /* \"#utility.yul\":3346:3355   */\n  dup5\n    /* \"#utility.yul\":3342:3359   */\n  add\n    /* \"#utility.yul\":3336:3360   */\n  mload\n    /* \"#utility.yul\":3387:3405   */\n  0xffffffffffffffff\n    /* \"#utility.yul\":3379:3385   */\n  dup2\n    /* \"#utility.yul\":3376:3406   */\n  gt\n    /* \"#utility.yul\":3373:3490   */\n  iszero\n  tag_100\n  jumpi\n    /* \"#utility.yul\":3409:3488   */\n  tag_101\n  tag_22\n  jump\t// in\ntag_101:\n    /* \"#utility.yul\":3373:3490   */\ntag_100:\n    /* \"#utility.yul\":3514:3588   */\n  tag_102\n    /* \"#utility.yul\":3580:3587   */\n  dup7\n    /* \"#utility.yul\":3571:3577   */\n  dup3\n    /* \"#utility.yul\":3560:3569   */\n  dup8\n    /* \"#utility.yul\":3556:3578   */\n  add\n    /* \"#utility.yul\":3514:3588   */\n  tag_32\n  jump\t// in\ntag_102:\n    /* \"#utility.yul\":3504:3588   */\n  swap4\n  pop\n    /* \"#utility.yul\":3307:3598   */\n  pop\n    /* \"#utility.yul\":3658:3660   */\n  0x20\n    /* \"#utility.yul\":3647:3656   */\n  dup5\n    /* \"#utility.yul\":3643:3661   */\n  add\n    /* \"#utility.yul\":3637:3662   */\n  mload\n    /* \"#utility.yul\":3689:3707   */\n  0xffffffffffffffff\n    /* \"#utility.yul\":3681:3687   */\n  dup2\n    /* \"#utility.yul\":3678:3708   */\n  gt\n    /* \"#utility.yul\":3675:3792   */\n  iszero\n  tag_103\n  jumpi\n    /* \"#utility.yul\":3711:3790   */\n  tag_104\n  tag_22\n  jump\t// in\ntag_104:\n    /* \"#utility.yul\":3675:3792   */\ntag_103:\n    /* \"#utility.yul\":3816:3890   */\n  tag_105\n    /* \"#utility.yul\":3882:3889   */\n  dup7\n    /* \"#utility.yul\":3873:3879   */\n  dup3\n    /* \"#utility.yul\":3862:3871   */\n  dup8\n    /* \"#utility.yul\":3858:3880   */\n  add\n    /* \"#utility.yul\":3816:3890   */\n  tag_32\n  jump\t// in\ntag_105:\n    /* \"#utility.yul\":3806:3890   */\n  swap3\n  pop\n    /* \"#utility.yul\":3608:3900   */\n  pop\n    /* \"#utility.yul\":3939:3941   */\n  0x40\n    /* \"#utility.yul\":3965:4029   */\n  tag_106\n    /* \"#utility.yul\":4021:4028   */\n  dup7\n    /* \"#utility.yul\":4012:4018   */\n  dup3\n    /* \"#utility.yul\":4001:4010   */\n  dup8\n    /* \"#utility.yul\":3997:4019   */\n  add\n    /* \"#utility.yul\":3965:4029   */\n  tag_35\n  jump\t// in\ntag_106:\n    /* \"#utility.yul\":3955:4029   */\n  swap2\n  pop\n    /* \"#utility.yul\":3910:4039   */\n  pop\n    /* \"#utility.yul\":3037:4046   */\n  swap3\n  pop\n  swap3\n  pop\n  swap3\n  jump\t// out\n    /* \"#utility.yul\":4052:4151   */\ntag_36:\n    /* \"#utility.yul\":4104:4110   */\n  0x00\n    /* \"#utility.yul\":4138:4143   */\n  dup2\n    /* \"#utility.yul\":4132:4144   */\n  mload\n    /* \"#utility.yul\":4122:4144   */\n  swap1\n  pop\n    /* \"#utility.yul\":4052:4151   */\n  swap2\n  swap1\n  pop\n  jump\t// out\n    /* \"#utility.yul\":4157:4337   */\ntag_37:\n    /* \"#utility.yul\":4205:4282   */\n  0x4e487b7100000000000000000000000000000000000000000000000000000000\n    /* \"#utility.yul\":4202:4203   */\n  0x00\n    /* \"#utility.yul\":4195:4283   */\n  mstore\n    /* \"#utility.yul\":4302:4306   */\n  0x22\n    /* \"#utility.yul\":4299:4300   */\n  0x04\n    /* \"#utility.yul\":4292:4307   */\n  mstore\n    /* \"#utility.yul\":4326:4330   */\n  0x24\n    /* \"#utility.yul\":4323:4324   */\n  0x00\n    /* \"#utility.yul\":4316:4331   */\n  revert\n    /* \"#utility.yul\":4343:4663   */\ntag_38:\n    /* \"#utility.yul\":4387:4393   */\n  0x00\n    /* \"#utility.yul\":4424:4425   */\n  0x02\n    /* \"#utility.yul\":4418:4422   */\n  dup3\n    /* \"#utility.yul\":4414:4426   */\n  div\n    /* \"#utility.yul\":4404:4426   */\n  swap1\n  pop\n    /* \"#utility.yul\":4471:4472   */\n  0x01\n    /* \"#utility.yul\":4465:4469   */\n  dup3\n    /* \"#utility.yul\":4461:4473   */\n  and\n    /* \"#utility.yul\":4492:4510   */\n  dup1\n    /* \"#utility.yul\":4482:4563   */\n  tag_110\n  jumpi\n    /* \"#utility.yul\":4548:4552   */\n  0x7f\n    /* \"#utility.yul\":4540:4546   */\n  dup3\n    /* \"#utility.yul\":4536:4553   */\n  and\n    /* \"#utility.yul\":4526:4553   */\n  swap2\n  pop\n    /* \"#utility.yul\":4482:4563   */\ntag_110:\n    /* \"#utility.yul\":4610:4612   */\n  0x20\n    /* \"#utility.yul\":4602:4608   */\n  dup3\n    /* \"#utility.yul\":4599:4613   */\n  lt\n    /* \"#utility.yul\":4579:4597   */\n  dup2\n    /* \"#utility.yul\":4576:4614   */\n  sub\n    /* \"#utility.yul\":4573:4657   */\n  tag_111\n  jumpi\n    /* \"#utility.yul\":4629:4647   */\n  tag_112\n  tag_37\n  jump\t// in\ntag_112:\n    /* \"#utility.yul\":4573:4657   */\ntag_111:\n    /* \"#utility.yul\":4394:4663   */\n  pop\n    /* \"#utility.yul\":4343:4663   */\n  swap2\n  swap1\n  pop\n  jump\t// out\n    /* \"#utility.yul\":4669:4810   */\ntag_39:\n    /* \"#utility.yul\":4718:4722   */\n  0x00\n    /* \"#utility.yul\":4741:4744   */\n  dup2\n    /* \"#utility.yul\":4733:4744   */\n  swap1\n  pop\n    /* \"#utility.yul\":4764:4767   */\n  dup2\n    /* \"#utility.yul\":4761:4762   */\n  0x00\n    /* \"#utility.yul\":4754:4768   */\n  mstore\n    /* \"#utility.yul\":4798:4802   */\n  0x20\n    /* \"#utility.yul\":4795:4796   */\n  0x00\n    /* \"#utility.yul\":4785:4803   */\n  keccak256\n    /* \"#utility.yul\":4777:4803   */\n  swap1\n  pop\n    /* \"#utility.yul\":4669:4810   */\n  swap2\n  swap1\n  pop\n  jump\t// out\n    /* \"#utility.yul\":4816:4909   */\ntag_40:\n    /* \"#utility.yul\":4853:4859   */\n  0x00\n    /* \"#utility.yul\":4900:4902   */\n  0x20\n    /* \"#utility.yul\":4895:4897   */\n  0x1f\n    /* \"#utility.yul\":4888:4893   */\n  dup4\n    /* \"#utility.yul\":4884:4898   */\n  add\n    /* \"#utility.yul\":4880:4903   */\n  div\n    /* \"#utility.yul\":4870:4903   */\n  swap1\n  pop\n    /* \"#utility.yul\":4816:4909   */\n  swap2\n  swap1\n  pop\n  jump\t// out\n    /* \"#utility.yul\":4915:5022   */\ntag_41:\n    /* \"#utility.yul\":4959:4967   */\n  0x00\n    /* \"#utility.yul\":5009:5014   */\n  dup3\n    /* \"#utility.yul\":5003:5007   */\n  dup3\n    /* \"#utility.yul\":4999:5015   */\n  shl\n    /* \"#utility.yul\":4978:5015   */\n  swap1\n  pop\n    /* \"#utility.yul\":4915:5022   */\n  swap3\n  swap2\n  pop\n  pop\n  jump\t// out\n    /* \"#utility.yul\":5028:5421   */\ntag_42:\n    /* \"#utility.yul\":5097:5103   */\n  0x00\n    /* \"#utility.yul\":5147:5148   */\n  0x08\n    /* \"#utility.yul\":5135:5145   */\n  dup4\n    /* \"#utility.yul\":5131:5149   */\n  mul\n    /* \"#utility.yul\":5170:5267   */\n  tag_117\n    /* \"#utility.yul\":5200:5266   */\n  0xffffffffffffffffffffffffffffffffffffffffffffffffffffffffffffffff\n    /* \"#utility.yul\":5189:5198   */\n  dup3\n    /* \"#utility.yul\":5170:5267   */\n  tag_41\n  jump\t// in\ntag_117:\n    /* \"#utility.yul\":5288:5327   */\n  tag_118\n    /* \"#utility.yul\":5318:5326   */\n  dup7\n    /* \"#utility.yul\":5307:5316   */\n  dup4\n    /* \"#utility.yul\":5288:5327   */\n  tag_41\n  jump\t// in\ntag_118:\n    /* \"#utility.yul\":5276:5327   */\n  swap6\n  pop\n    /* \"#utility.yul\":5360:5364   */\n  dup1\n    /* \"#utility.yul\":5356:5365   */\n  not\n    /* \"#utility.yul\":5349:5354   */\n  dup5\n    /* \"#utility.yul\":5345:5366   */\n  and\n    /* \"#utility.yul\":5336:5366   */\n  swap4\n  pop\n    /* \"#utility.yul\":5409:5413   */\n  dup1\n    /* \"#utility.yul\":5399:5407   */\n  dup7\n    /* \"#utility.yul\":5395:5414   */\n  and\n    /* \"#utility.yul\":5388:5393   */\n  dup5\n    /* \"#utility.yul\":5385:5415   */\n  or\n    /* \"#utility.yul\":5375:5415   */\n  swap3\n  pop\n    /* \"#utility.yul\":5104:5421   */\n  pop\n  pop\n    /* \"#utility.yul\":5028:5421   */\n  swap4\n  swap3\n  pop\n  pop\n  pop\n  jump\t// out\n    /* \"#utility.yul\":5427:5487   */\ntag_43:\n    /* \"#utility.yul\":5455:5458   */\n  0x00\n    /* \"#utility.yul\":5476:5481   */\n  dup2\n    /* \"#utility.yul\":5469:5481   */\n  swap1\n  pop\n    /* \"#utility.yul\":5427:5487   */\n  swap2\n  swap1\n  pop\n  jump\t// out\n    /* \"#utility.yul\":5493:5635   */\ntag_44:\n    /* \"#utility.yul\":5543:5552   */\n  0x00\n    /* \"#utility.yul\":5576:5629   */\n  tag_121\n    /* \"#utility.yul\":5594:5628   */\n  tag_122\n    /* \"#utility.yul\":5603:5627   */\n  tag_123\n    /* \"#utility.yul\":5621:5626   */\n  dup5\n    /* \"#utility.yul\":5603:5627   */\n  tag_33\n  jump\t// in\ntag_123:\n    /* \"#utility.yul\":5594:5628   */\n  tag_43\n  jump\t// in\ntag_122:\n    /* \"#utility.yul\":5576:5629   */\n  tag_33\n  jump\t// in\ntag_121:\n    /* \"#utility.yul\":5563:5629   */\n  swap1\n  pop\n    /* \"#utility.yul\":5493:5635   */\n  swap2\n  swap1\n  pop\n  jump\t// out\n    /* \"#utility.yul\":5641:5716   */\ntag_45:\n    /* \"#utility.yul\":5684:5687   */\n  0x00\n    /* \"#utility.yul\":5705:5710   */\n  dup2\n    /* \"#utility.yul\":5698:5710   */\n  swap1\n  pop\n    /* \"#utility.yul\":5641:5716   */\n  swap2\n  swap1\n  pop\n  jump\t// out\n    /* \"#utility.yul\":5722:5991   */\ntag_46:\n    /* \"#utility.yul\":5832:5871   */\n  tag_126\n    /* \"#utility.yul\":5863:5870   */\n  dup4\n    /* \"#utility.yul\":5832:5871   */\n  tag_44\n  jump\t// in\ntag_126:\n    /* \"#utility.yul\":5893:5984   */\n  tag_127\n    /* \"#utility.yul\":5942:5983   */\n  tag_128\n    /* \"#utility.yul\":5966:5982   */\n  dup3\n    /* \"#utility.yul\":5942:5983   */\n  tag_45\n  jump\t// in\ntag_128:\n    /* \"#utility.yul\":5934:5940   */\n  dup5\n    /* \"#utility.yul\":5927:5931   */\n  dup5\n    /* \"#utility.yul\":5921:5932   */\n  sload\n    /* \"#utility.yul\":5893:5984   */\n  tag_42\n  jump\t// in\ntag_127:\n    /* \"#utility.yul\":5887:5891   */\n  dup3\n    /* \"#utility.yul\":5880:5985   */\n  sstore\n    /* \"#utility.yul\":5798:5991   */\n  pop\n    /* \"#utility.yul\":5722:5991   */\n  pop\n  pop\n  pop\n  jump\t// out\n    /* \"#utility.yul\":5997:6070   */\ntag_47:\n    /* \"#utility.yul\":6042:6045   */\n  0x00\n    /* \"#utility.yul\":5997:6070   */\n  swap1\n  jump\t// out\n    /* \"#utility.yul\":6076:6265   */\ntag_48:\n    /* \"#utility.yul\":6153:6185   */\n  tag_131\n  tag_47\n  jump\t// in\ntag_131:\n    /* \"#utility.yul\":6194:6259   */\n  tag_132\n    /* \"#utility.yul\":6252:6258   */\n  dup2\n    /* \"#utility.yul\":6244:6250   */\n  dup5\n    /* \"#utility.yul\":6238:6242   */\n  dup5\n    /* \"#utility.yul\":6194:6259   */\n  tag_46\n  jump\t// in\ntag_132:\n    /* \"#utility.yul\":6129:6265   */\n  pop\n    /* \"#utility.yul\":6076:6265   */\n  pop\n  pop\n  jump\t// out\n    /* \"#utility.yul\":6271:6457   */\ntag_49:\n    /* \"#utility.yul\":6331:6451   */\ntag_134:\n    /* \"#utility.yul\":6348:6351   */\n  dup2\n    /* \"#utility.yul\":6341:6346   */\n  dup2\n    /* \"#utility.yul\":6338:6352   */\n  lt\n    /* \"#utility.yul\":6331:6451   */\n  iszero\n  tag_136\n  jumpi\n    /* \"#utility.yul\":6402:6441   */\n  tag_137\n    /* \"#utility.yul\":6439:6440   */\n  0x00\n    /* \"#utility.yul\":6432:6437   */\n  dup3\n    /* \"#utility.yul\":6402:6441   */\n  tag_48\n  jump\t// in\ntag_137:\n    /* \"#utility.yul\":6375:6376   */\n  0x01\n    /* \"#utility.yul\":6368:6373   */\n  dup2\n    /* \"#utility.yul\":6364:6377   */\n  add\n    /* \"#utility.yul\":6355:6377   */\n  swap1\n  pop\n    /* \"#utility.yul\":6331:6451   */\n  jump(tag_134)\ntag_136:\n    /* \"#utility.yul\":6271:6457   */\n  pop\n  pop\n  jump\t// out\n    /* \"#utility.yul\":6463:7006   */\ntag_50:\n    /* \"#utility.yul\":6564:6566   */\n  0x1f\n    /* \"#utility.yul\":6559:6562   */\n  dup3\n    /* \"#utility.yul\":6556:6567   */\n  gt\n    /* \"#utility.yul\":6553:6999   */\n  iszero\n  tag_139\n  jumpi\n    /* \"#utility.yul\":6598:6636   */\n  tag_140\n    /* \"#utility.yul\":6630:6635   */\n  dup2\n    /* \"#utility.yul\":6598:6636   */\n  tag_39\n  jump\t// in\ntag_140:\n    /* \"#utility.yul\":6682:6711   */\n  tag_141\n    /* \"#utility.yul\":6700:6710   */\n  dup5\n    /* \"#utility.yul\":6682:6711   */\n  tag_40\n  jump\t// in\ntag_141:\n    /* \"#utility.yul\":6672:6680   */\n  dup2\n    /* \"#utility.yul\":6668:6712   */\n  add\n    /* \"#utility.yul\":6865:6867   */\n  0x20\n    /* \"#utility.yul\":6853:6863   */\n  dup6\n    /* \"#utility.yul\":6850:6868   */\n  lt\n    /* \"#utility.yul\":6847:6896   */\n  iszero\n  tag_142\n  jumpi\n    /* \"#utility.yul\":6886:6894   */\n  dup2\n    /* \"#utility.yul\":6871:6894   */\n  swap1\n  pop\n    /* \"#utility.yul\":6847:6896   */\ntag_142:\n    /* \"#utility.yul\":6909:6989   */\n  tag_143\n    /* \"#utility.yul\":6965:6987   */\n  tag_144\n    /* \"#utility.yul\":6983:6986   */\n  dup6\n    /* \"#utility.yul\":6965:6987   */\n  tag_40\n  jump\t// in\ntag_144:\n    /* \"#utility.yul\":6955:6963   */\n  dup4\n    /* \"#utility.yul\":6951:6988   */\n  add\n    /* \"#utility.yul\":6938:6949   */\n  dup3\n    /* \"#utility.yul\":6909:6989   */\n  tag_49\n  jump\t// in\ntag_143:\n    /* \"#utility.yul\":6568:6999   */\n  pop\n  pop\n    /* \"#utility.yul\":6553:6999   */\ntag_139:\n    /* \"#utility.yul\":6463:7006   */\n  pop\n  pop\n  pop\n  jump\t// out\n    /* \"#utility.yul\":7012:7129   */\ntag_51:\n    /* \"#utility.yul\":7066:7074   */\n  0x00\n    /* \"#utility.yul\":7116:7121   */\n  dup3\n    /* \"#utility.yul\":7110:7114   */\n  dup3\n    /* \"#utility.yul\":7106:7122   */\n  shr\n    /* \"#utility.yul\":7085:7122   */\n  swap1\n  pop\n    /* \"#utility.yul\":7012:7129   */\n  swap3\n  swap2\n  pop\n  pop\n  jump\t// out\n    /* \"#utility.yul\":7135:7304   */\ntag_52:\n    /* \"#utility.yul\":7179:7185   */\n  0x00\n    /* \"#utility.yul\":7212:7263   */\n  tag_147\n    /* \"#utility.yul\":7260:7261   */\n  0x00\n    /* \"#utility.yul\":7256:7262   */\n  not\n    /* \"#utility.yul\":7248:7253   */\n  dup5\n    /* \"#utility.yul\":7245:7246   */\n  0x08\n    /* \"#utility.yul\":7241:7254   */\n  mul\n    /* \"#utility.yul\":7212:7263   */\n  tag_51\n  jump\t// in\ntag_147:\n    /* \"#utility.yul\":7208:7264   */\n  not\n    /* \"#utility.yul\":7293:7297   */\n  dup1\n    /* \"#utility.yul\":7287:7291   */\n  dup4\n    /* \"#utility.yul\":7283:7298   */\n  and\n    /* \"#utility.yul\":7273:7298   */\n  swap2\n  pop\n    /* \"#utility.yul\":7186:7304   */\n  pop\n    /* \"#utility.yul\":7135:7304   */\n  swap3\n  swap2\n  pop\n  pop\n  jump\t// out\n    /* \"#utility.yul\":7309:7604   */\ntag_53:\n    /* \"#utility.yul\":7385:7389   */\n  0x00\n    /* \"#utility.yul\":7531:7560   */\n  tag_149\n    /* \"#utility.yul\":7556:7559   */\n  dup4\n    /* \"#utility.yul\":7550:7554   */\n  dup4\n    /* \"#utility.yul\":7531:7560   */\n  tag_52\n  jump\t// in\ntag_149:\n    /* \"#utility.yul\":7523:7560   */\n  swap2\n  pop\n    /* \"#utility.yul\":7593:7596   */\n  dup3\n    /* \"#utility.yul\":7590:7591   */\n  0x02\n    /* \"#utility.yul\":7586:7597   */\n  mul\n    /* \"#utility.yul\":7580:7584   */\n  dup3\n    /* \"#utility.yul\":7577:7598   */\n  or\n    /* \"#utility.yul\":7569:7598   */\n  swap1\n  pop\n    /* \"#utility.yul\":7309:7604   */\n  swap3\n  swap2\n  pop\n  pop\n  jump\t// out\n    /* \"#utility.yul\":7609:9004   */\ntag_7:\n    /* \"#utility.yul\":7726:7763   */\n  tag_151\n    /* \"#utility.yul\":7759:7762   */\n  dup3\n    /* \"#utility.yul\":7726:7763   */\n  tag_36\n  jump\t// in\ntag_151:\n    /* \"#utility.yul\":7828:7846   */\n  0xffffffffffffffff\n    /* \"#utility.yul\":7820:7826   */\n  dup2\n    /* \"#utility.yul\":7817:7847   */\n  gt\n    /* \"#utility.yul\":7814:7870   */\n  iszero\n  tag_152\n  jumpi\n    /* \"#utility.yul\":7850:7868   */\n  tag_153\n  tag_26\n  jump\t// in\ntag_153:\n    /* \"#utility.yul\":7814:7870   */\ntag_152:\n    /* \"#utility.yul\":7894:7932   */\n  tag_154\n    /* \"#utility.yul\":7926:7930   */\n  dup3\n    /* \"#utility.yul\":7920:7931   */\n  sload\n    /* \"#utility.yul\":7894:7932   */\n  tag_38\n  jump\t// in\ntag_154:\n    /* \"#utility.yul\":7979:8046   */\n  tag_155\n    /* \"#utility.yul\":8039:8045   */\n  dup3\n    /* \"#utility.yul\":8031:8037   */\n  dup3\n    /* \"#utility.yul\":8025:8029   */\n  dup6\n    /* \"#utility.yul\":7979:8046   */\n  tag_50\n  jump\t// in\ntag_155:\n    /* \"#utility.yul\":8073:8074   */\n  0x00\n    /* \"#utility.yul\":8097:8101   */\n  0x20\n    /* \"#utility.yul\":8084:8101   */\n  swap1\n  pop\n    /* \"#utility.yul\":8129:8131   */\n  0x1f\n    /* \"#utility.yul\":8121:8127   */\n  dup4\n    /* \"#utility.yul\":8118:8132   */\n  gt\n    /* \"#utility.yul\":8146:8147   */\n  0x01\n    /* \"#utility.yul\":8141:8759   */\n  dup2\n  eq\n  tag_157\n  jumpi\n    /* \"#utility.yul\":8803:8804   */\n  0x00\n    /* \"#utility.yul\":8820:8826   */\n  dup5\n    /* \"#utility.yul\":8817:8894   */\n  iszero\n  tag_158\n  jumpi\n    /* \"#utility.yul\":8869:8878   */\n  dup3\n    /* \"#utility.yul\":8864:8867   */\n  dup8\n    /* \"#utility.yul\":8860:8879   */\n  add\n    /* \"#utility.yul\":8854:8880   */\n  mload\n    /* \"#utility.yul\":8845:8880   */\n  swap1\n  pop\n    /* \"#utility.yul\":8817:8894   */\ntag_158:\n    /* \"#utility.yul\":8920:8987   */\n  tag_159\n    /* \"#utility.yul\":8980:8986   */\n  dup6\n    /* \"#utility.yul\":8973:8978   */\n  dup3\n    /* \"#utility.yul\":8920:8987   */\n  tag_53\n  jump\t// in\ntag_159:\n    /* \"#utility.yul\":8914:8918   */\n  dup7\n    /* \"#utility.yul\":8907:8988   */\n  sstore\n    /* \"#utility.yul\":8776:8998   */\n  pop\n    /* \"#utility.yul\":8111:8998   */\n  jump(tag_156)\n    /* \"#utility.yul\":8141:8759   */\ntag_157:\n    /* \"#utility.yul\":8193:8197   */\n  0x1f\n    /* \"#utility.yul\":8189:8198   */\n  not\n    /* \"#utility.yul\":8181:8187   */\n  dup5\n    /* \"#utility.yul\":8177:8199   */\n  and\n    /* \"#utility.yul\":8227:8264   */\n  tag_160\n    /* \"#utility.yul\":8259:8263   */\n  dup7\n    /* \"#utility.yul\":8227:8264   */\n  tag_39\n  jump\t// in\ntag_160:\n    /* \"#utility.yul\":8286:8287   */\n  0x00\n    /* \"#utility.yul\":8300:8508   */\ntag_161:\n    /* \"#utility.yul\":8314:8321   */\n  dup3\n    /* \"#utility.yul\":8311:8312   */\n  dup2\n    /* \"#utility.yul\":8308:8322   */\n  lt\n    /* \"#utility.yul\":8300:8508   */\n  iszero\n  tag_163\n  jumpi\n    /* \"#utility.yul\":8393:8402   */\n  dup5\n    /* \"#utility.yul\":8388:8391   */\n  dup10\n    /* \"#utility.yul\":8384:8403   */\n  add\n    /* \"#utility.yul\":8378:8404   */\n  mload\n    /* \"#utility.yul\":8370:8376   */\n  dup3\n    /* \"#utility.yul\":8363:8405   */\n  sstore\n    /* \"#utility.yul\":8444:8445   */\n  0x01\n    /* \"#utility.yul\":8436:8442   */\n  dup3\n    /* \"#utility.yul\":8432:8446   */\n  add\n    /* \"#utility.yul\":8422:8446   */\n  swap2\n  pop\n    /* \"#utility.yul\":8491:8493   */\n  0x20\n    /* \"#utility.yul\":8480:8489   */\n  dup6\n    /* \"#utility.yul\":8476:8494   */\n  add\n    /* \"#utility.yul\":8463:8494   */\n  swap5\n  pop\n    /* \"#utility.yul\":8337:8341   */\n  0x20\n    /* \"#utility.yul\":8334:8335   */\n  dup2\n    /* \"#utility.yul\":8330:8342   */\n  add\n    /* \"#utility.yul\":8325:8342   */\n  swap1\n  pop\n    /* \"#utility.yul\":8300:8508   */\n  jump(tag_161)\ntag_163:\n    /* \"#utility.yul\":8536:8542   */\n  dup7\n    /* \"#utility.yul\":8527:8534   */\n  dup4\n    /* \"#utility.yul\":8524:8543   */\n  lt\n    /* \"#utility.yul\":8521:8700   */\n  iszero\n  tag_164\n  jumpi\n    /* \"#utility.yul\":8594:8603   */\n  dup5\n    /* \"#utility.yul\":8589:8592   */\n  dup10\n    /* \"#utility.yul\":8585:8604   */\n  add\n    /* \"#utility.yul\":8579:8605   */\n  mload\n    /* \"#utility.yul\":8637:8685   */\n  tag_165\n    /* \"#utility.yul\":8679:8683   */\n  0x1f\n    /* \"#utility.yul\":8671:8677   */\n  dup10\n    /* \"#utility.yul\":8667:8684   */\n  and\n    /* \"#utility.yul\":8656:8665   */\n  dup3\n    /* \"#utility.yul\":8637:8685   */\n  tag_52\n  jump\t// in\ntag_165:\n    /* \"#utility.yul\":8629:8635   */\n  dup4\n    /* \"#utility.yul\":8622:8686   */\n  sstore\n    /* \"#utility.yul\":8544:8700   */\n  pop\n    /* \"#utility.yul\":8521:8700   */\ntag_164:\n    /* \"#utility.yul\":8746:8747   */\n  0x01\n    /* \"#utility.yul\":8742:8743   */\n  0x02\n    /* \"#utility.yul\":8734:8740   */\n  dup9\n    /* \"#utility.yul\":8730:8744   */\n  mul\n    /* \"#utility.yul\":8726:8748   */\n  add\n    /* \"#utility.yul\":8720:8724   */\n  dup9\n    /* \"#utility.yul\":8713:8749   */\n  sstore\n    /* \"#utility.yul\":8148:8759   */\n  pop\n  pop\n  pop\n    /* \"#utility.yul\":8111:8998   */\ntag_156:\n  pop\n    /* \"#utility.yul\":7701:9004   */\n  pop\n  pop\n  pop\n    /* \"#utility.yul\":7609:9004   */\n  pop\n  pop\n  jump\t// out\n    /* \"#utility.yul\":9010:9190   */\ntag_54:\n    /* \"#utility.yul\":9058:9135   */\n  0x4e487b7100000000000000000000000000000000000000000000000000000000\n    /* \"#utility.yul\":9055:9056   */\n  0x00\n    /* \"#utility.yul\":9048:9136   */\n  mstore\n    /* \"#utility.yul\":9155:9159   */\n  0x11\n    /* \"#utility.yul\":9152:9153   */\n  0x04\n    /* \"#utility.yul\":9145:9160   */\n  mstore\n    /* \"#utility.yul\":9179:9183   */\n  0x24\n    /* \"#utility.yul\":9176:9177   */\n  0x00\n    /* \"#utility.yul\":9169:9184   */\n  revert\n    /* \"#utility.yul\":9196:9298   */\ntag_55:\n    /* \"#utility.yul\":9238:9246   */\n  0x00\n    /* \"#utility.yul\":9285:9290   */\n  dup2\n    /* \"#utility.yul\":9282:9283   */\n  0x01\n    /* \"#utility.yul\":9278:9291   */\n  shr\n    /* \"#utility.yul\":9257:9291   */\n  swap1\n  pop\n    /* \"#utility.yul\":9196:9298   */\n  swap2\n  swap1\n  pop\n  jump\t// out\n    /* \"#utility.yul\":9304:10152   */\ntag_56:\n    /* \"#utility.yul\":9365:9370   */\n  0x00\n    /* \"#utility.yul\":9372:9376   */\n  dup1\n    /* \"#utility.yul\":9396:9402   */\n  dup3\n    /* \"#utility.yul\":9387:9402   */\n  swap2\n  pop\n    /* \"#utility.yul\":9420:9425   */\n  dup4\n    /* \"#utility.yul\":9411:9425   */\n  swap1\n  pop\n    /* \"#utility.yul\":9434:10146   */\ntag_169:\n    /* \"#utility.yul\":9455:9456   */\n  0x01\n    /* \"#utility.yul\":9445:9453   */\n  dup6\n    /* \"#utility.yul\":9442:9457   */\n  gt\n    /* \"#utility.yul\":9434:10146   */\n  iszero\n  tag_171\n  jumpi\n    /* \"#utility.yul\":9550:9554   */\n  dup1\n    /* \"#utility.yul\":9545:9548   */\n  dup7\n    /* \"#utility.yul\":9541:9555   */\n  div\n    /* \"#utility.yul\":9535:9539   */\n  dup2\n    /* \"#utility.yul\":9532:9556   */\n  gt\n    /* \"#utility.yul\":9529:9579   */\n  iszero\n  tag_172\n  jumpi\n    /* \"#utility.yul\":9559:9577   */\n  tag_173\n  tag_54\n  jump\t// in\ntag_173:\n    /* \"#utility.yul\":9529:9579   */\ntag_172:\n    /* \"#utility.yul\":9609:9610   */\n  0x01\n    /* \"#utility.yul\":9599:9607   */\n  dup6\n    /* \"#utility.yul\":9595:9611   */\n  and\n    /* \"#utility.yul\":9592:10043   */\n  iszero\n  tag_174\n  jumpi\n    /* \"#utility.yul\":10024:10028   */\n  dup1\n    /* \"#utility.yul\":10017:10022   */\n  dup3\n    /* \"#utility.yul\":10013:10029   */\n  mul\n    /* \"#utility.yul\":10004:10029   */\n  swap2\n  pop\n    /* \"#utility.yul\":9592:10043   */\ntag_174:\n    /* \"#utility.yul\":10074:10078   */\n  dup1\n    /* \"#utility.yul\":10068:10072   */\n  dup2\n    /* \"#utility.yul\":10064:10079   */\n  mul\n    /* \"#utility.yul\":10056:10079   */\n  swap1\n  pop\n    /* \"#utility.yul\":10104:10136   */\n  tag_175\n    /* \"#utility.yul\":10127:10135   */\n  dup6\n    /* \"#utility.yul\":10104:10136   */\n  tag_55\n  jump\t// in\ntag_175:\n    /* \"#utility.yul\":10092:10136   */\n  swap5\n  pop\n    /* \"#utility.yul\":9434:10146   */\n  jump(tag_169)\ntag_171:\n    /* \"#utility.yul\":9304:10152   */\n  swap5\n  pop\n  swap5\n  swap3\n  pop\n  pop\n  pop\n  jump\t// out\n    /* \"#utility.yul\":10158:11231   */\ntag_57:\n    /* \"#utility.yul\":10212:10217   */\n  0x00\n    /* \"#utility.yul\":10403:10411   */\n  dup3\n    /* \"#utility.yul\":10393:10433   */\n  tag_177\n  jumpi\n    /* \"#utility.yul\":10424:10425   */\n  0x01\n    /* \"#utility.yul\":10415:10425   */\n  swap1\n  pop\n    /* \"#utility.yul\":10426:10431   */\n  jump(tag_176)\n    /* \"#utility.yul\":10393:10433   */\ntag_177:\n    /* \"#utility.yul\":10452:10456   */\n  dup2\n    /* \"#utility.yul\":10442:10478   */\n  tag_178\n  jumpi\n    /* \"#utility.yul\":10469:10470   */\n  0x00\n    /* \"#utility.yul\":10460:10470   */\n  swap1\n  pop\n    /* \"#utility.yul\":10471:10476   */\n  jump(tag_176)\n    /* \"#utility.yul\":10442:10478   */\ntag_178:\n    /* \"#utility.yul\":10538:10542   */\n  dup2\n    /* \"#utility.yul\":10586:10587   */\n  0x01\n    /* \"#utility.yul\":10581:10608   */\n  dup2\n  eq\n  tag_180\n  jumpi\n    /* \"#utility.yul\":10622:10623   */\n  0x02\n    /* \"#utility.yul\":10617:10808   */\n  dup2\n  eq\n  tag_181\n  jumpi\n    /* \"#utility.yul\":10531:10808   */\n  jump(tag_179)\n    /* \"#utility.yul\":10581:10608   */\ntag_180:\n    /* \"#utility.yul\":10599:10600   */\n  0x01\n    /* \"#utility.yul\":10590:10600   */\n  swap2\n  pop\n    /* \"#utility.yul\":10601:10606   */\n  pop\n  jump(tag_176)\n    /* \"#utility.yul\":10617:10808   */\ntag_181:\n    /* \"#utility.yul\":10662:10665   */\n  0xff\n    /* \"#utility.yul\":10652:10660   */\n  dup5\n    /* \"#utility.yul\":10649:10666   */\n  gt\n    /* \"#utility.yul\":10646:10689   */\n  iszero\n  tag_182\n  jumpi\n    /* \"#utility.yul\":10669:10687   */\n  tag_183\n  tag_54\n  jump\t// in\ntag_183:\n    /* \"#utility.yul\":10646:10689   */\ntag_182:\n    /* \"#utility.yul\":10718:10726   */\n  dup4\n    /* \"#utility.yul\":10715:10716   */\n  0x02\n    /* \"#utility.yul\":10711:10727   */\n  exp\n    /* \"#utility.yul\":10702:10727   */\n  swap2\n  pop\n    /* \"#utility.yul\":10753:10756   */\n  dup5\n    /* \"#utility.yul\":10746:10751   */\n  dup3\n    /* \"#utility.yul\":10743:10757   */\n  gt\n    /* \"#utility.yul\":10740:10780   */\n  iszero\n  tag_184\n  jumpi\n    /* \"#utility.yul\":10760:10778   */\n  tag_185\n  tag_54\n  jump\t// in\ntag_185:\n    /* \"#utility.yul\":10740:10780   */\ntag_184:\n    /* \"#utility.yul\":10793:10798   */\n  pop\n  jump(tag_176)\n    /* \"#utility.yul\":10531:10808   */\ntag_179:\n  pop\n    /* \"#utility.yul\":10917:10919   */\n  0x20\n    /* \"#utility.yul\":10907:10915   */\n  dup4\n    /* \"#utility.yul\":10904:10920   */\n  lt\n    /* \"#utility.yul\":10898:10901   */\n  0x0133\n    /* \"#utility.yul\":10892:10896   */\n  dup4\n    /* \"#utility.yul\":10889:10902   */\n  lt\n    /* \"#utility.yul\":10885:10921   */\n  and\n    /* \"#utility.yul\":10867:10869   */\n  0x4e\n    /* \"#utility.yul\":10857:10865   */\n  dup5\n    /* \"#utility.yul\":10854:10870   */\n  lt\n    /* \"#utility.yul\":10849:10851   */\n  0x0b\n    /* \"#utility.yul\":10843:10847   */\n  dup5\n    /* \"#utility.yul\":10840:10852   */\n  lt\n    /* \"#utility.yul\":10836:10871   */\n  and\n    /* \"#utility.yul\":10820:10931   */\n  or\n    /* \"#utility.yul\":10817:11063   */\n  iszero\n  tag_186\n  jumpi\n    /* \"#utility.yul\":10973:10981   */\n  dup3\n    /* \"#utility.yul\":10967:10971   */\n  dup3\n    /* \"#utility.yul\":10963:10982   */\n  exp\n    /* \"#utility.yul\":10954:10982   */\n  swap1\n  pop\n    /* \"#utility.yul\":11008:11011   */\n  dup4\n    /* \"#utility.yul\":11001:11006   */\n  dup2\n    /* \"#utility.yul\":10998:11012   */\n  gt\n    /* \"#utility.yul\":10995:11035   */\n  iszero\n  tag_187\n  jumpi\n    /* \"#utility.yul\":11015:11033   */\n  tag_188\n  tag_54\n  jump\t// in\ntag_188:\n    /* \"#utility.yul\":10995:11035   */\ntag_187:\n    /* \"#utility.yul\":11048:11053   */\n  jump(tag_176)\n    /* \"#utility.yul\":10817:11063   */\ntag_186:\n    /* \"#utility.yul\":11088:11130   */\n  tag_189\n    /* \"#utility.yul\":11126:11129   */\n  dup5\n    /* \"#utility.yul\":11116:11124   */\n  dup5\n    /* \"#utility.yul\":11110:11114   */\n  dup5\n    /* \"#utility.yul\":11107:11108   */\n  0x01\n    /* \"#utility.yul\":11088:11130   */\n  tag_56\n  jump\t// in\ntag_189:\n    /* \"#utility.yul\":11073:11130   */\n  swap3\n  pop\n  swap1\n  pop\n    /* \"#utility.yul\":11162:11166   */\n  dup2\n    /* \"#utility.yul\":11157:11160   */\n  dup5\n    /* \"#utility.yul\":11153:11167   */\n  div\n    /* \"#utility.yul\":11146:11151   */\n  dup2\n    /* \"#utility.yul\":11143:11168   */\n  gt\n    /* \"#utility.yul\":11140:11191   */\n  iszero\n  tag_190\n  jumpi\n    /* \"#utility.yul\":11171:11189   */\n  tag_191\n  tag_54\n  jump\t// in\ntag_191:\n    /* \"#utility.yul\":11140:11191   */\ntag_190:\n    /* \"#utility.yul\":11220:11224   */\n  dup2\n    /* \"#utility.yul\":11213:11218   */\n  dup2\n    /* \"#utility.yul\":11209:11225   */\n  mul\n    /* \"#utility.yul\":11200:11225   */\n  swap1\n  pop\n    /* \"#utility.yul\":10158:11231   */\ntag_176:\n  swap4\n  swap3\n  pop\n  pop\n  pop\n  jump\t// out\n    /* \"#utility.yul\":11237:11522   */\ntag_11:\n    /* \"#utility.yul\":11297:11302   */\n  0x00\n    /* \"#utility.yul\":11321:11344   */\n  tag_193\n    /* \"#utility.yul\":11339:11343   */\n  dup3\n    /* \"#utility.yul\":11321:11344   */\n  tag_33\n  jump\t// in\ntag_193:\n    /* \"#utility.yul\":11313:11344   */\n  swap2\n  pop\n    /* \"#utility.yul\":11365:11392   */\n  tag_194\n    /* \"#utility.yul\":11383:11391   */\n  dup4\n    /* \"#utility.yul\":11365:11392   */\n  tag_33\n  jump\t// in\ntag_194:\n    /* \"#utility.yul\":11353:11392   */\n  swap3\n  pop\n    /* \"#utility.yul\":11411:11515   */\n  tag_195\n    /* \"#utility.yul\":11448:11514   */\n  0xffffffffffffffffffffffffffffffffffffffffffffffffffffffffffffffff\n    /* \"#utility.yul\":11438:11446   */\n  dup5\n    /* \"#utility.yul\":11432:11436   */\n  dup5\n    /* \"#utility.yul\":11411:11515   */\n  tag_57\n  jump\t// in\ntag_195:\n    /* \"#utility.yul\":11402:11515   */\n  swap1\n  pop\n    /* \"#utility.yul\":11237:11522   */\n  swap3\n  swap2\n  pop\n  pop\n  jump\t// out\n    /* \"#utility.yul\":11528:11938   */\ntag_13:\n    /* \"#utility.yul\":11568:11575   */\n  0x00\n    /* \"#utility.yul\":11591:11611   */\n  tag_197\n    /* \"#utility.yul\":11609:11610   */\n  dup3\n    /* \"#utility.yul\":11591:11611   */\n  tag_33\n  jump\t// in\ntag_197:\n    /* \"#utility.yul\":11586:11611   */\n  swap2\n  pop\n    /* \"#utility.yul\":11625:11645   */\n  tag_198\n    /* \"#utility.yul\":11643:11644   */\n  dup4\n    /* \"#utility.yul\":11625:11645   */\n  tag_33\n  jump\t// in\ntag_198:\n    /* \"#utility.yul\":11620:11645   */\n  swap3\n  pop\n    /* \"#utility.yul\":11680:11681   */\n  dup3\n    /* \"#utility.yul\":11677:11678   */\n  dup3\n    /* \"#utility.yul\":11673:11682   */\n  mul\n    /* \"#utility.yul\":11702:11732   */\n  tag_199\n    /* \"#utility.yul\":11720:11731   */\n  dup2\n    /* \"#utility.yul\":11702:11732   */\n  tag_33\n  jump\t// in\ntag_199:\n    /* \"#utility.yul\":11691:11732   */\n  swap2\n  pop\n    /* \"#utility.yul\":11881:11882   */\n  dup3\n    /* \"#utility.yul\":11872:11879   */\n  dup3\n    /* \"#utility.yul\":11868:11883   */\n  div\n    /* \"#utility.yul\":11865:11866   */\n  dup5\n    /* \"#utility.yul\":11862:11884   */\n  eq\n    /* \"#utility.yul\":11842:11843   */\n  dup4\n    /* \"#utility.yul\":11835:11844   */\n  iszero\n    /* \"#utility.yul\":11815:11898   */\n  or\n    /* \"#utility.yul\":11792:11931   */\n  tag_200\n  jumpi\n    /* \"#utility.yul\":11911:11929   */\n  tag_201\n  tag_54\n  jump\t// in\ntag_201:\n    /* \"#utility.yul\":11792:11931   */\ntag_200:\n    /* \"#utility.yul\":11576:11938   */\n  pop\n    /* \"#utility.yul\":11528:11938   */\n  swap3\n  swap2\n  pop\n  pop\n  jump\t// out\n    /* \"#utility.yul\":11944:12135   */\ntag_18:\n    /* \"#utility.yul\":11984:11987   */\n  0x00\n    /* \"#utility.yul\":12003:12023   */\n  tag_203\n    /* \"#utility.yul\":12021:12022   */\n  dup3\n    /* \"#utility.yul\":12003:12023   */\n  tag_33\n  jump\t// in\ntag_203:\n    /* \"#utility.yul\":11998:12023   */\n  swap2\n  pop\n    /* \"#utility.yul\":12037:12057   */\n  tag_204\n    /* \"#utility.yul\":12055:12056   */\n  dup4\n    /* \"#utility.yul\":12037:12057   */\n  tag_33\n  jump\t// in\ntag_204:\n    /* \"#utility.yul\":12032:12057   */\n  swap3\n  pop\n    /* \"#utility.yul\":12080:12081   */\n  dup3\n    /* \"#utility.yul\":12077:12078   */\n  dup3\n    /* \"#utility.yul\":12073:12082   */\n  add\n    /* \"#utility.yul\":12066:12082   */\n  swap1\n  pop\n    /* \"#utility.yul\":12101:12104   */\n  dup1\n    /* \"#utility.yul\":12098:12099   */\n  dup3\n    /* \"#utility.yul\":12095:12105   */\n  gt\n    /* \"#utility.yul\":12092:12128   */\n  iszero\n  tag_205\n  jumpi\n    /* \"#utility.yul\":12108:12126   */\n  tag_206\n  tag_54\n  jump\t// in\ntag_206:\n    /* \"#utility.yul\":12092:12128   */\ntag_205:\n    /* \"#utility.yul\":11944:12135   */\n  swap3\n  swap2\n  pop\n  pop\n  jump\t// out\n    /* \"ERC20.sol\":87:3571  contract ERC20 is IERC20 {... */\ntag_15:\n  dataSize(sub_0)\n  dup1\n  dataOffset(sub_0)\n  0x00\n  codecopy\n  0x00\n  return\nstop\n\nsub_0: assembly {\n        /* \"ERC20.sol\":87:3571  contract ERC20 is IERC20 {... */\n      mstore(0x40, 0x80)\n      jumpi(tag_1, lt(calldatasize, 0x04))\n      shr(0xe0, calldataload(0x00))\n      dup1\n      0x313ce567\n      gt\n      tag_14\n      jumpi\n      dup1\n      0x313ce567\n      eq\n      tag_8\n      jumpi\n      dup1\n      0x42966c68\n      eq\n      tag_9\n      jumpi\n      dup1\n      0x70a08231\n      eq\n      tag_10\n      jumpi\n      dup1\n      0x95d89b41\n      eq\n      tag_11\n      jumpi\n      dup1\n      0xa9059cbb\n      eq\n      tag_12\n      jumpi\n      dup1\n      0xdd62ed3e\n      eq\n      tag_13\n      jumpi\n      jump(tag_2)\n    tag_14:\n      dup1\n      0x06fdde03\n      eq\n      tag_3\n      jumpi\n      dup1\n      0x095ea7b3\n      eq\n      tag_4\n      jumpi\n      dup1\n      0x18160ddd\n      eq\n      tag_5\n      jumpi\n      dup1\n      0x23b872dd\n      eq\n      tag_6\n      jumpi\n      dup1\n      0x27e235e3\n      eq\n      tag_7\n      jumpi\n      jump(tag_2)\n    tag_1:\n      jumpi(tag_2, calldatasize)\n        /* \"ERC20.sol\":1434:1445  uint amount */\n      0x00\n        /* \"ERC20.sol\":1460:1463  500 */\n      0x01f4\n        /* \"ERC20.sol\":1448:1457  msg.value */\n      callvalue\n        /* \"ERC20.sol\":1448:1463  msg.value * 500 */\n      tag_17\n      swap2\n      swap1\n      tag_18\n      jump\t// in\n    tag_17:\n        /* \"ERC20.sol\":1434:1463  uint amount = msg.value * 500 */\n      swap1\n      pop\n        /* \"ERC20.sol\":1503:1509  amount */\n      dup1\n        /* \"ERC20.sol\":1484:1492  balances */\n      0x05\n        /* \"ERC20.sol\":1484:1499  balances[owner] */\n      0x00\n        /* \"ERC20.sol\":1493:1498  owner */\n      0x04\n      0x00\n      swap1\n      sload\n      swap1\n      0x0100\n      exp\n      swap1\n      div\n      0xffffffffffffffffffffffffffffffffffffffff\n      and\n        /* \"ERC20.sol\":1484:1499  balances[owner] */\n      0xffffffffffffffffffffffffffffffffffffffff\n      and\n      0xffffffffffffffffffffffffffffffffffffffff\n      and\n      dup2\n      mstore\n      0x20\n      add\n      swap1\n      dup2\n      mstore\n      0x20\n      add\n      0x00\n      keccak256\n      sload\n        /* \"ERC20.sol\":1484:1509  balances[owner] >= amount */\n      lt\n      iszero\n        /* \"ERC20.sol\":1476:1510  require(balances[owner] >= amount) */\n      tag_19\n      jumpi\n      0x00\n      dup1\n      revert\n    tag_19:\n        /* \"ERC20.sol\":1540:1546  amount */\n      dup1\n        /* \"ERC20.sol\":1521:1529  balances */\n      0x05\n        /* \"ERC20.sol\":1521:1536  balances[owner] */\n      0x00\n        /* \"ERC20.sol\":1530:1535  owner */\n      0x04\n      0x00\n      swap1\n      sload\n      swap1\n      0x0100\n      exp\n      swap1\n      div\n      0xffffffffffffffffffffffffffffffffffffffff\n      and\n        /* \"ERC20.sol\":1521:1536  balances[owner] */\n      0xffffffffffffffffffffffffffffffffffffffff\n      and\n      0xffffffffffffffffffffffffffffffffffffffff\n      and\n      dup2\n      mstore\n      0x20\n      add\n      swap1\n      dup2\n      mstore\n      0x20\n      add\n      0x00\n      keccak256\n      0x00\n        /* \"ERC20.sol\":1521:1546  balances[owner] -= amount */\n      dup3\n      dup3\n      sload\n      tag_20\n      swap2\n      swap1\n      tag_21\n      jump\t// in\n    tag_20:\n      swap3\n      pop\n      pop\n      dup2\n      swap1\n      sstore\n      pop\n        /* \"ERC20.sol\":1581:1587  amount */\n      dup1\n        /* \"ERC20.sol\":1557:1565  balances */\n      0x05\n        /* \"ERC20.sol\":1557:1577  balances[msg.sender] */\n      0x00\n        /* \"ERC20.sol\":1566:1576  msg.sender */\n      caller\n        /* \"ERC20.sol\":1557:1577  balances[msg.sender] */\n      0xffffffffffffffffffffffffffffffffffffffff\n      and\n      0xffffffffffffffffffffffffffffffffffffffff\n      and\n      dup2\n      mstore\n      0x20\n      add\n      swap1\n      dup2\n      mstore\n      0x20\n      add\n      0x00\n      keccak256\n      0x00\n        /* \"ERC20.sol\":1557:1587  balances[msg.sender] += amount */\n      dup3\n      dup3\n      sload\n      tag_22\n      swap2\n      swap1\n      tag_23\n      jump\t// in\n    tag_22:\n      swap3\n      pop\n      pop\n      dup2\n      swap1\n      sstore\n      pop\n        /* \"ERC20.sol\":1808:1813  owner */\n      0x04\n      0x00\n      swap1\n      sload\n      swap1\n      0x0100\n      exp\n      swap1\n      div\n      0xffffffffffffffffffffffffffffffffffffffff\n      and\n        /* \"ERC20.sol\":1794:1813  msg.sender == owner */\n      0xffffffffffffffffffffffffffffffffffffffff\n      and\n        /* \"ERC20.sol\":1794:1804  msg.sender */\n      caller\n        /* \"ERC20.sol\":1794:1813  msg.sender == owner */\n      0xffffffffffffffffffffffffffffffffffffffff\n      and\n      sub\n        /* \"ERC20.sol\":1790:1854  if (msg.sender == owner) {... */\n      tag_24\n      jumpi\n        /* \"ERC20.sol\":1830:1842  mint(amount) */\n      tag_25\n        /* \"ERC20.sol\":1835:1841  amount */\n      dup2\n        /* \"ERC20.sol\":1830:1834  mint */\n      tag_26\n        /* \"ERC20.sol\":1830:1842  mint(amount) */\n      jump\t// in\n    tag_25:\n        /* \"ERC20.sol\":1790:1854  if (msg.sender == owner) {... */\n    tag_24:\n        /* \"ERC20.sol\":1065:1863  {... */\n      stop\n        /* \"ERC20.sol\":87:3571  contract ERC20 is IERC20 {... */\n    tag_2:\n      0x00\n      dup1\n      revert\n        /* \"ERC20.sol\":144:162  string public name */\n    tag_3:\n      callvalue\n      dup1\n      iszero\n      tag_27\n      jumpi\n      0x00\n      dup1\n      revert\n    tag_27:\n      pop\n      tag_28\n      tag_29\n      jump\t// in\n    tag_28:\n      mload(0x40)\n      tag_30\n      swap2\n      swap1\n      tag_31\n      jump\t// in\n    tag_30:\n      mload(0x40)\n      dup1\n      swap2\n      sub\n      swap1\n      return\n        /* \"ERC20.sol\":2560:2720  function approve(address spender, uint amount) external override returns (bool) {... */\n    tag_4:\n      callvalue\n      dup1\n      iszero\n      tag_32\n      jumpi\n      0x00\n      dup1\n      revert\n    tag_32:\n      pop\n      tag_33\n      0x04\n      dup1\n      calldatasize\n      sub\n      dup2\n      add\n      swap1\n      tag_34\n      swap2\n      swap1\n      tag_35\n      jump\t// in\n    tag_34:\n      tag_36\n      jump\t// in\n    tag_33:\n      mload(0x40)\n      tag_37\n      swap2\n      swap1\n      tag_38\n      jump\t// in\n    tag_37:\n      mload(0x40)\n      dup1\n      swap2\n      sub\n      swap1\n      return\n        /* \"ERC20.sol\":374:406  uint public override totalSupply */\n    tag_5:\n      callvalue\n      dup1\n      iszero\n      tag_39\n      jumpi\n      0x00\n      dup1\n      revert\n    tag_39:\n      pop\n      tag_40\n      tag_41\n      jump\t// in\n    tag_40:\n      mload(0x40)\n      tag_42\n      swap2\n      swap1\n      tag_43\n      jump\t// in\n    tag_42:\n      mload(0x40)\n      dup1\n      swap2\n      sub\n      swap1\n      return\n        /* \"ERC20.sol\":2728:3439  function transferFrom(address sender, address to, uint amount) external override returns (bool) {... */\n    tag_6:\n      callvalue\n      dup1\n      iszero\n      tag_44\n      jumpi\n      0x00\n      dup1\n      revert\n    tag_44:\n      pop\n      tag_45\n      0x04\n      dup1\n      calldatasize\n      sub\n      dup2\n      add\n      swap1\n      tag_46\n      swap2\n      swap1\n      tag_47\n      jump\t// in\n    tag_46:\n      tag_48\n      jump\t// in\n    tag_45:\n      mload(0x40)\n      tag_49\n      swap2\n      swap1\n      tag_38\n      jump\t// in\n    tag_49:\n      mload(0x40)\n      dup1\n      swap2\n      sub\n      swap1\n      return\n        /* \"ERC20.sol\":446:486  mapping(address => uint) public balances */\n    tag_7:\n      callvalue\n      dup1\n      iszero\n      tag_50\n      jumpi\n      0x00\n      dup1\n      revert\n    tag_50:\n      pop\n      tag_51\n      0x04\n      dup1\n      calldatasize\n      sub\n      dup2\n      add\n      swap1\n      tag_52\n      swap2\n      swap1\n      tag_53\n      jump\t// in\n    tag_52:\n      tag_54\n      jump\t// in\n    tag_51:\n      mload(0x40)\n      tag_55\n      swap2\n      swap1\n      tag_43\n      jump\t// in\n    tag_55:\n      mload(0x40)\n      dup1\n      swap2\n      sub\n      swap1\n      return\n        /* \"ERC20.sol\":300:326  uint8 public decimals = 18 */\n    tag_8:\n      callvalue\n      dup1\n      iszero\n      tag_56\n      jumpi\n      0x00\n      dup1\n      revert\n    tag_56:\n      pop\n      tag_57\n      tag_58\n      jump\t// in\n    tag_57:\n      mload(0x40)\n      tag_59\n      swap2\n      swap1\n      tag_60\n      jump\t// in\n    tag_59:\n      mload(0x40)\n      dup1\n      swap2\n      sub\n      swap1\n      return\n        /* \"ERC20.sol\":3447:3566  function burn(uint amount) external {... */\n    tag_9:\n      callvalue\n      dup1\n      iszero\n      tag_61\n      jumpi\n      0x00\n      dup1\n      revert\n    tag_61:\n      pop\n      tag_62\n      0x04\n      dup1\n      calldatasize\n      sub\n      dup2\n      add\n      swap1\n      tag_63\n      swap2\n      swap1\n      tag_64\n      jump\t// in\n    tag_63:\n      tag_65\n      jump\t// in\n    tag_62:\n      stop\n        /* \"ERC20.sol\":2247:2364  function balanceOf(address account) external view override returns (uint) {... */\n    tag_10:\n      callvalue\n      dup1\n      iszero\n      tag_66\n      jumpi\n      0x00\n      dup1\n      revert\n    tag_66:\n      pop\n      tag_67\n      0x04\n      dup1\n      calldatasize\n      sub\n      dup2\n      add\n      swap1\n      tag_68\n      swap2\n      swap1\n      tag_53\n      jump\t// in\n    tag_68:\n      tag_69\n      jump\t// in\n    tag_67:\n      mload(0x40)\n      tag_70\n      swap2\n      swap1\n      tag_43\n      jump\t// in\n    tag_70:\n      mload(0x40)\n      dup1\n      swap2\n      sub\n      swap1\n      return\n        /* \"ERC20.sol\":208:228  string public symbol */\n    tag_11:\n      callvalue\n      dup1\n      iszero\n      tag_71\n      jumpi\n      0x00\n      dup1\n      revert\n    tag_71:\n      pop\n      tag_72\n      tag_73\n      jump\t// in\n    tag_72:\n      mload(0x40)\n      tag_74\n      swap2\n      swap1\n      tag_31\n      jump\t// in\n    tag_74:\n      mload(0x40)\n      dup1\n      swap2\n      sub\n      swap1\n      return\n        /* \"ERC20.sol\":2372:2552  function transfer(address to, uint amount) external override returns (bool) {... */\n    tag_12:\n      callvalue\n      dup1\n      iszero\n      tag_75\n      jumpi\n      0x00\n      dup1\n      revert\n    tag_75:\n      pop\n      tag_76\n      0x04\n      dup1\n      calldatasize\n      sub\n      dup2\n      add\n      swap1\n      tag_77\n      swap2\n      swap1\n      tag_35\n      jump\t// in\n    tag_77:\n      tag_78\n      jump\t// in\n    tag_76:\n      mload(0x40)\n      tag_79\n      swap2\n      swap1\n      tag_38\n      jump\t// in\n    tag_79:\n      mload(0x40)\n      dup1\n      swap2\n      sub\n      swap1\n      return\n        /* \"ERC20.sol\":548:618  mapping(address => mapping(address => uint)) public override allowance */\n    tag_13:\n      callvalue\n      dup1\n      iszero\n      tag_80\n      jumpi\n      0x00\n      dup1\n      revert\n    tag_80:\n      pop\n      tag_81\n      0x04\n      dup1\n      calldatasize\n      sub\n      dup2\n      add\n      swap1\n      tag_82\n      swap2\n      swap1\n      tag_83\n      jump\t// in\n    tag_82:\n      tag_84\n      jump\t// in\n    tag_81:\n      mload(0x40)\n      tag_85\n      swap2\n      swap1\n      tag_43\n      jump\t// in\n    tag_85:\n      mload(0x40)\n      dup1\n      swap2\n      sub\n      swap1\n      return\n        /* \"ERC20.sol\":2122:2239  function mint(uint amount) internal {... */\n    tag_26:\n        /* \"ERC20.sol\":2193:2199  amount */\n      dup1\n        /* \"ERC20.sol\":2169:2177  balances */\n      0x05\n        /* \"ERC20.sol\":2169:2189  balances[msg.sender] */\n      0x00\n        /* \"ERC20.sol\":2178:2188  msg.sender */\n      caller\n        /* \"ERC20.sol\":2169:2189  balances[msg.sender] */\n      0xffffffffffffffffffffffffffffffffffffffff\n      and\n      0xffffffffffffffffffffffffffffffffffffffff\n      and\n      dup2\n      mstore\n      0x20\n      add\n      swap1\n      dup2\n      mstore\n      0x20\n      add\n      0x00\n      keccak256\n      0x00\n        /* \"ERC20.sol\":2169:2199  balances[msg.sender] += amount */\n      dup3\n      dup3\n      sload\n      tag_87\n      swap2\n      swap1\n      tag_23\n      jump\t// in\n    tag_87:\n      swap3\n      pop\n      pop\n      dup2\n      swap1\n      sstore\n      pop\n        /* \"ERC20.sol\":2225:2231  amount */\n      dup1\n        /* \"ERC20.sol\":2210:2221  totalSupply */\n      0x03\n      0x00\n        /* \"ERC20.sol\":2210:2231  totalSupply += amount */\n      dup3\n      dup3\n      sload\n      tag_88\n      swap2\n      swap1\n      tag_23\n      jump\t// in\n    tag_88:\n      swap3\n      pop\n      pop\n      dup2\n      swap1\n      sstore\n      pop\n        /* \"ERC20.sol\":2122:2239  function mint(uint amount) internal {... */\n      pop\n      jump\t// out\n        /* \"ERC20.sol\":144:162  string public name */\n    tag_29:\n      0x00\n      dup1\n      sload\n      tag_89\n      swap1\n      tag_90\n      jump\t// in\n    tag_89:\n      dup1\n      0x1f\n      add\n      0x20\n      dup1\n      swap2\n      div\n      mul\n      0x20\n      add\n      mload(0x40)\n      swap1\n      dup2\n      add\n      0x40\n      mstore\n      dup1\n      swap3\n      swap2\n      swap1\n      dup2\n      dup2\n      mstore\n      0x20\n      add\n      dup3\n      dup1\n      sload\n      tag_91\n      swap1\n      tag_90\n      jump\t// in\n    tag_91:\n      dup1\n      iszero\n      tag_92\n      jumpi\n      dup1\n      0x1f\n      lt\n      tag_93\n      jumpi\n      0x0100\n      dup1\n      dup4\n      sload\n      div\n      mul\n      dup4\n      mstore\n      swap2\n      0x20\n      add\n      swap2\n      jump(tag_92)\n    tag_93:\n      dup3\n      add\n      swap2\n      swap1\n      0x00\n      mstore\n      keccak256(0x00, 0x20)\n      swap1\n    tag_94:\n      dup2\n      sload\n      dup2\n      mstore\n      swap1\n      0x01\n      add\n      swap1\n      0x20\n      add\n      dup1\n      dup4\n      gt\n      tag_94\n      jumpi\n      dup3\n      swap1\n      sub\n      0x1f\n      and\n      dup3\n      add\n      swap2\n    tag_92:\n      pop\n      pop\n      pop\n      pop\n      pop\n      dup2\n      jump\t// out\n        /* \"ERC20.sol\":2560:2720  function approve(address spender, uint amount) external override returns (bool) {... */\n    tag_36:\n        /* \"ERC20.sol\":2634:2638  bool */\n      0x00\n        /* \"ERC20.sol\":2684:2690  amount */\n      dup2\n        /* \"ERC20.sol\":2651:2660  allowance */\n      0x06\n        /* \"ERC20.sol\":2651:2672  allowance[msg.sender] */\n      0x00\n        /* \"ERC20.sol\":2661:2671  msg.sender */\n      caller\n        /* \"ERC20.sol\":2651:2672  allowance[msg.sender] */\n      0xffffffffffffffffffffffffffffffffffffffff\n      and\n      0xffffffffffffffffffffffffffffffffffffffff\n      and\n      dup2\n      mstore\n      0x20\n      add\n      swap1\n      dup2\n      mstore\n      0x20\n      add\n      0x00\n      keccak256\n        /* \"ERC20.sol\":2651:2681  allowance[msg.sender][spender] */\n      0x00\n        /* \"ERC20.sol\":2673:2680  spender */\n      dup6\n        /* \"ERC20.sol\":2651:2681  allowance[msg.sender][spender] */\n      0xffffffffffffffffffffffffffffffffffffffff\n      and\n      0xffffffffffffffffffffffffffffffffffffffff\n      and\n      dup2\n      mstore\n      0x20\n      add\n      swap1\n      dup2\n      mstore\n      0x20\n      add\n      0x00\n      keccak256\n        /* \"ERC20.sol\":2651:2690  allowance[msg.sender][spender] = amount */\n      dup2\n      swap1\n      sstore\n      pop\n        /* \"ERC20.sol\":2708:2712  true */\n      0x01\n        /* \"ERC20.sol\":2701:2712  return true */\n      swap1\n      pop\n        /* \"ERC20.sol\":2560:2720  function approve(address spender, uint amount) external override returns (bool) {... */\n      swap3\n      swap2\n      pop\n      pop\n      jump\t// out\n        /* \"ERC20.sol\":374:406  uint public override totalSupply */\n    tag_41:\n      sload(0x03)\n      dup2\n      jump\t// out\n        /* \"ERC20.sol\":2728:3439  function transferFrom(address sender, address to, uint amount) external override returns (bool) {... */\n    tag_48:\n        /* \"ERC20.sol\":2818:2822  bool */\n      0x00\n        /* \"ERC20.sol\":2876:2882  amount */\n      dup2\n        /* \"ERC20.sol\":2843:2852  allowance */\n      0x06\n        /* \"ERC20.sol\":2843:2860  allowance[sender] */\n      0x00\n        /* \"ERC20.sol\":2853:2859  sender */\n      dup7\n        /* \"ERC20.sol\":2843:2860  allowance[sender] */\n      0xffffffffffffffffffffffffffffffffffffffff\n      and\n      0xffffffffffffffffffffffffffffffffffffffff\n      and\n      dup2\n      mstore\n      0x20\n      add\n      swap1\n      dup2\n      mstore\n      0x20\n      add\n      0x00\n      keccak256\n        /* \"ERC20.sol\":2843:2872  allowance[sender][msg.sender] */\n      0x00\n        /* \"ERC20.sol\":2861:2871  msg.sender */\n      caller\n        /* \"ERC20.sol\":2843:2872  allowance[sender][msg.sender] */\n      0xffffffffffffffffffffffffffffffffffffffff\n      and\n      0xffffffffffffffffffffffffffffffffffffffff\n      and\n      dup2\n      mstore\n      0x20\n      add\n      swap1\n      dup2\n      mstore\n      0x20\n      add\n      0x00\n      keccak256\n      sload\n        /* \"ERC20.sol\":2843:2882  allowance[sender][msg.sender] >= amount */\n      lt\n      iszero\n        /* \"ERC20.sol\":2835:2883  require(allowance[sender][msg.sender] >= amount) */\n      tag_97\n      jumpi\n      0x00\n      dup1\n      revert\n    tag_97:\n        /* \"ERC20.sol\":3156:3162  amount */\n      dup2\n        /* \"ERC20.sol\":3123:3132  allowance */\n      0x06\n        /* \"ERC20.sol\":3123:3140  allowance[sender] */\n      0x00\n        /* \"ERC20.sol\":3133:3139  sender */\n      dup7\n        /* \"ERC20.sol\":3123:3140  allowance[sender] */\n      0xffffffffffffffffffffffffffffffffffffffff\n      and\n      0xffffffffffffffffffffffffffffffffffffffff\n      and\n      dup2\n      mstore\n      0x20\n      add\n      swap1\n      dup2\n      mstore\n      0x20\n      add\n      0x00\n      keccak256\n        /* \"ERC20.sol\":3123:3152  allowance[sender][msg.sender] */\n      0x00\n        /* \"ERC20.sol\":3141:3151  msg.sender */\n      caller\n        /* \"ERC20.sol\":3123:3152  allowance[sender][msg.sender] */\n      0xffffffffffffffffffffffffffffffffffffffff\n      and\n      0xffffffffffffffffffffffffffffffffffffffff\n      and\n      dup2\n      mstore\n      0x20\n      add\n      swap1\n      dup2\n      mstore\n      0x20\n      add\n      0x00\n      keccak256\n      0x00\n        /* \"ERC20.sol\":3123:3162  allowance[sender][msg.sender] -= amount */\n      dup3\n      dup3\n      sload\n      tag_98\n      swap2\n      swap1\n      tag_21\n      jump\t// in\n    tag_98:\n      swap3\n      pop\n      pop\n      dup2\n      swap1\n      sstore\n      pop\n        /* \"ERC20.sol\":3193:3199  amount */\n      dup2\n        /* \"ERC20.sol\":3173:3181  balances */\n      0x05\n        /* \"ERC20.sol\":3173:3189  balances[sender] */\n      0x00\n        /* \"ERC20.sol\":3182:3188  sender */\n      dup7\n        /* \"ERC20.sol\":3173:3189  balances[sender] */\n      0xffffffffffffffffffffffffffffffffffffffff\n      and\n      0xffffffffffffffffffffffffffffffffffffffff\n      and\n      dup2\n      mstore\n      0x20\n      add\n      swap1\n      dup2\n      mstore\n      0x20\n      add\n      0x00\n      keccak256\n      0x00\n        /* \"ERC20.sol\":3173:3199  balances[sender] -= amount */\n      dup3\n      dup3\n      sload\n      tag_99\n      swap2\n      swap1\n      tag_21\n      jump\t// in\n    tag_99:\n      swap3\n      pop\n      pop\n      dup2\n      swap1\n      sstore\n      pop\n        /* \"ERC20.sol\":3226:3232  amount */\n      dup2\n        /* \"ERC20.sol\":3210:3218  balances */\n      0x05\n        /* \"ERC20.sol\":3210:3222  balances[to] */\n      0x00\n        /* \"ERC20.sol\":3219:3221  to */\n      dup6\n        /* \"ERC20.sol\":3210:3222  balances[to] */\n      0xffffffffffffffffffffffffffffffffffffffff\n      and\n      0xffffffffffffffffffffffffffffffffffffffff\n      and\n      dup2\n      mstore\n      0x20\n      add\n      swap1\n      dup2\n      mstore\n      0x20\n      add\n      0x00\n      keccak256\n      0x00\n        /* \"ERC20.sol\":3210:3232  balances[to] += amount */\n      dup3\n      dup3\n      sload\n      tag_100\n      swap2\n      swap1\n      tag_23\n      jump\t// in\n    tag_100:\n      swap3\n      pop\n      pop\n      dup2\n      swap1\n      sstore\n      pop\n        /* \"ERC20.sol\":3427:3431  true */\n      0x01\n        /* \"ERC20.sol\":3420:3431  return true */\n      swap1\n      pop\n        /* \"ERC20.sol\":2728:3439  function transferFrom(address sender, address to, uint amount) external override returns (bool) {... */\n      swap4\n      swap3\n      pop\n      pop\n      pop\n      jump\t// out\n        /* \"ERC20.sol\":446:486  mapping(address => uint) public balances */\n    tag_54:\n      mstore(0x20, 0x05)\n      dup1\n      0x00\n      mstore\n      keccak256(0x00, 0x40)\n      0x00\n      swap2\n      pop\n      swap1\n      pop\n      sload\n      dup2\n      jump\t// out\n        /* \"ERC20.sol\":300:326  uint8 public decimals = 18 */\n    tag_58:\n      0x02\n      0x00\n      swap1\n      sload\n      swap1\n      0x0100\n      exp\n      swap1\n      div\n      0xff\n      and\n      dup2\n      jump\t// out\n        /* \"ERC20.sol\":3447:3566  function burn(uint amount) external {... */\n    tag_65:\n        /* \"ERC20.sol\":3518:3524  amount */\n      dup1\n        /* \"ERC20.sol\":3494:3502  balances */\n      0x05\n        /* \"ERC20.sol\":3494:3514  balances[msg.sender] */\n      0x00\n        /* \"ERC20.sol\":3503:3513  msg.sender */\n      caller\n        /* \"ERC20.sol\":3494:3514  balances[msg.sender] */\n      0xffffffffffffffffffffffffffffffffffffffff\n      and\n      0xffffffffffffffffffffffffffffffffffffffff\n      and\n      dup2\n      mstore\n      0x20\n      add\n      swap1\n      dup2\n      mstore\n      0x20\n      add\n      0x00\n      keccak256\n      0x00\n        /* \"ERC20.sol\":3494:3524  balances[msg.sender] -= amount */\n      dup3\n      dup3\n      sload\n      tag_102\n      swap2\n      swap1\n      tag_21\n      jump\t// in\n    tag_102:\n      swap3\n      pop\n      pop\n      dup2\n      swap1\n      sstore\n      pop\n        /* \"ERC20.sol\":3550:3556  amount */\n      dup1\n        /* \"ERC20.sol\":3535:3546  totalSupply */\n      0x03\n      0x00\n        /* \"ERC20.sol\":3535:3556  totalSupply -= amount */\n      dup3\n      dup3\n      sload\n      tag_103\n      swap2\n      swap1\n      tag_21\n      jump\t// in\n    tag_103:\n      swap3\n      pop\n      pop\n      dup2\n      swap1\n      sstore\n      pop\n        /* \"ERC20.sol\":3447:3566  function burn(uint amount) external {... */\n      pop\n      jump\t// out\n        /* \"ERC20.sol\":2247:2364  function balanceOf(address account) external view override returns (uint) {... */\n    tag_69:\n        /* \"ERC20.sol\":2315:2319  uint */\n      0x00\n        /* \"ERC20.sol\":2339:2347  balances */\n      0x05\n        /* \"ERC20.sol\":2339:2356  balances[account] */\n      0x00\n        /* \"ERC20.sol\":2348:2355  account */\n      dup4\n        /* \"ERC20.sol\":2339:2356  balances[account] */\n      0xffffffffffffffffffffffffffffffffffffffff\n      and\n      0xffffffffffffffffffffffffffffffffffffffff\n      and\n      dup2\n      mstore\n      0x20\n      add\n      swap1\n      dup2\n      mstore\n      0x20\n      add\n      0x00\n      keccak256\n      sload\n        /* \"ERC20.sol\":2332:2356  return balances[account] */\n      swap1\n      pop\n        /* \"ERC20.sol\":2247:2364  function balanceOf(address account) external view override returns (uint) {... */\n      swap2\n      swap1\n      pop\n      jump\t// out\n        /* \"ERC20.sol\":208:228  string public symbol */\n    tag_73:\n      0x01\n      dup1\n      sload\n      tag_105\n      swap1\n      tag_90\n      jump\t// in\n    tag_105:\n      dup1\n      0x1f\n      add\n      0x20\n      dup1\n      swap2\n      div\n      mul\n      0x20\n      add\n      mload(0x40)\n      swap1\n      dup2\n      add\n      0x40\n      mstore\n      dup1\n      swap3\n      swap2\n      swap1\n      dup2\n      dup2\n      mstore\n      0x20\n      add\n      dup3\n      dup1\n      sload\n      tag_106\n      swap1\n      tag_90\n      jump\t// in\n    tag_106:\n      dup1\n      iszero\n      tag_107\n      jumpi\n      dup1\n      0x1f\n      lt\n      tag_108\n      jumpi\n      0x0100\n      dup1\n      dup4\n      sload\n      div\n      mul\n      dup4\n      mstore\n      swap2\n      0x20\n      add\n      swap2\n      jump(tag_107)\n    tag_108:\n      dup3\n      add\n      swap2\n      swap1\n      0x00\n      mstore\n      keccak256(0x00, 0x20)\n      swap1\n    tag_109:\n      dup2\n      sload\n      dup2\n      mstore\n      swap1\n      0x01\n      add\n      swap1\n      0x20\n      add\n      dup1\n      dup4\n      gt\n      tag_109\n      jumpi\n      dup3\n      swap1\n      sub\n      0x1f\n      and\n      dup3\n      add\n      swap2\n    tag_107:\n      pop\n      pop\n      pop\n      pop\n      pop\n      dup2\n      jump\t// out\n        /* \"ERC20.sol\":2372:2552  function transfer(address to, uint amount) external override returns (bool) {... */\n    tag_78:\n        /* \"ERC20.sol\":2442:2446  bool */\n      0x00\n        /* \"ERC20.sol\":2483:2489  amount */\n      dup2\n        /* \"ERC20.sol\":2459:2467  balances */\n      0x05\n        /* \"ERC20.sol\":2459:2479  balances[msg.sender] */\n      0x00\n        /* \"ERC20.sol\":2468:2478  msg.sender */\n      caller\n        /* \"ERC20.sol\":2459:2479  balances[msg.sender] */\n      0xffffffffffffffffffffffffffffffffffffffff\n      and\n      0xffffffffffffffffffffffffffffffffffffffff\n      and\n      dup2\n      mstore\n      0x20\n      add\n      swap1\n      dup2\n      mstore\n      0x20\n      add\n      0x00\n      keccak256\n      0x00\n        /* \"ERC20.sol\":2459:2489  balances[msg.sender] -= amount */\n      dup3\n      dup3\n      sload\n      tag_111\n      swap2\n      swap1\n      tag_21\n      jump\t// in\n    tag_111:\n      swap3\n      pop\n      pop\n      dup2\n      swap1\n      sstore\n      pop\n        /* \"ERC20.sol\":2516:2522  amount */\n      dup2\n        /* \"ERC20.sol\":2500:2508  balances */\n      0x05\n        /* \"ERC20.sol\":2500:2512  balances[to] */\n      0x00\n        /* \"ERC20.sol\":2509:2511  to */\n      dup6\n        /* \"ERC20.sol\":2500:2512  balances[to] */\n      0xffffffffffffffffffffffffffffffffffffffff\n      and\n      0xffffffffffffffffffffffffffffffffffffffff\n      and\n      dup2\n      mstore\n      0x20\n      add\n      swap1\n      dup2\n      mstore\n      0x20\n      add\n      0x00\n      keccak256\n      0x00\n        /* \"ERC20.sol\":2500:2522  balances[to] += amount */\n      dup3\n      dup3\n      sload\n      tag_112\n      swap2\n      swap1\n      tag_23\n      jump\t// in\n    tag_112:\n      swap3\n      pop\n      pop\n      dup2\n      swap1\n      sstore\n      pop\n        /* \"ERC20.sol\":2540:2544  true */\n      0x01\n        /* \"ERC20.sol\":2533:2544  return true */\n      swap1\n      pop\n        /* \"ERC20.sol\":2372:2552  function transfer(address to, uint amount) external override returns (bool) {... */\n      swap3\n      swap2\n      pop\n      pop\n      jump\t// out\n        /* \"ERC20.sol\":548:618  mapping(address => mapping(address => uint)) public override allowance */\n    tag_84:\n      mstore(0x20, 0x06)\n      dup2\n      0x00\n      mstore\n      mstore(0x20, keccak256(0x00, 0x40))\n      dup1\n      0x00\n      mstore\n      keccak256(0x00, 0x40)\n      0x00\n      swap2\n      pop\n      swap2\n      pop\n      pop\n      sload\n      dup2\n      jump\t// out\n        /* \"#utility.yul\":7:84   */\n    tag_113:\n        /* \"#utility.yul\":44:51   */\n      0x00\n        /* \"#utility.yul\":73:78   */\n      dup2\n        /* \"#utility.yul\":62:78   */\n      swap1\n      pop\n        /* \"#utility.yul\":7:84   */\n      swap2\n      swap1\n      pop\n      jump\t// out\n        /* \"#utility.yul\":90:270   */\n    tag_114:\n        /* \"#utility.yul\":138:215   */\n      0x4e487b7100000000000000000000000000000000000000000000000000000000\n        /* \"#utility.yul\":135:136   */\n      0x00\n        /* \"#utility.yul\":128:216   */\n      mstore\n        /* \"#utility.yul\":235:239   */\n      0x11\n        /* \"#utility.yul\":232:233   */\n      0x04\n        /* \"#utility.yul\":225:240   */\n      mstore\n        /* \"#utility.yul\":259:263   */\n      0x24\n        /* \"#utility.yul\":256:257   */\n      0x00\n        /* \"#utility.yul\":249:264   */\n      revert\n        /* \"#utility.yul\":276:686   */\n    tag_18:\n        /* \"#utility.yul\":316:323   */\n      0x00\n        /* \"#utility.yul\":339:359   */\n      tag_139\n        /* \"#utility.yul\":357:358   */\n      dup3\n        /* \"#utility.yul\":339:359   */\n      tag_113\n      jump\t// in\n    tag_139:\n        /* \"#utility.yul\":334:359   */\n      swap2\n      pop\n        /* \"#utility.yul\":373:393   */\n      tag_140\n        /* \"#utility.yul\":391:392   */\n      dup4\n        /* \"#utility.yul\":373:393   */\n      tag_113\n      jump\t// in\n    tag_140:\n        /* \"#utility.yul\":368:393   */\n      swap3\n      pop\n        /* \"#utility.yul\":428:429   */\n      dup3\n        /* \"#utility.yul\":425:426   */\n      dup3\n        /* \"#utility.yul\":421:430   */\n      mul\n        /* \"#utility.yul\":450:480   */\n      tag_141\n        /* \"#utility.yul\":468:479   */\n      dup2\n        /* \"#utility.yul\":450:480   */\n      tag_113\n      jump\t// in\n    tag_141:\n        /* \"#utility.yul\":439:480   */\n      swap2\n      pop\n        /* \"#utility.yul\":629:630   */\n      dup3\n        /* \"#utility.yul\":620:627   */\n      dup3\n        /* \"#utility.yul\":616:631   */\n      div\n        /* \"#utility.yul\":613:614   */\n      dup5\n        /* \"#utility.yul\":610:632   */\n      eq\n        /* \"#utility.yul\":590:591   */\n      dup4\n        /* \"#utility.yul\":583:592   */\n      iszero\n        /* \"#utility.yul\":563:646   */\n      or\n        /* \"#utility.yul\":540:679   */\n      tag_142\n      jumpi\n        /* \"#utility.yul\":659:677   */\n      tag_143\n      tag_114\n      jump\t// in\n    tag_143:\n        /* \"#utility.yul\":540:679   */\n    tag_142:\n        /* \"#utility.yul\":324:686   */\n      pop\n        /* \"#utility.yul\":276:686   */\n      swap3\n      swap2\n      pop\n      pop\n      jump\t// out\n        /* \"#utility.yul\":692:886   */\n    tag_21:\n        /* \"#utility.yul\":732:736   */\n      0x00\n        /* \"#utility.yul\":752:772   */\n      tag_145\n        /* \"#utility.yul\":770:771   */\n      dup3\n        /* \"#utility.yul\":752:772   */\n      tag_113\n      jump\t// in\n    tag_145:\n        /* \"#utility.yul\":747:772   */\n      swap2\n      pop\n        /* \"#utility.yul\":786:806   */\n      tag_146\n        /* \"#utility.yul\":804:805   */\n      dup4\n        /* \"#utility.yul\":786:806   */\n      tag_113\n      jump\t// in\n    tag_146:\n        /* \"#utility.yul\":781:806   */\n      swap3\n      pop\n        /* \"#utility.yul\":830:831   */\n      dup3\n        /* \"#utility.yul\":827:828   */\n      dup3\n        /* \"#utility.yul\":823:832   */\n      sub\n        /* \"#utility.yul\":815:832   */\n      swap1\n      pop\n        /* \"#utility.yul\":854:855   */\n      dup2\n        /* \"#utility.yul\":848:852   */\n      dup2\n        /* \"#utility.yul\":845:856   */\n      gt\n        /* \"#utility.yul\":842:879   */\n      iszero\n      tag_147\n      jumpi\n        /* \"#utility.yul\":859:877   */\n      tag_148\n      tag_114\n      jump\t// in\n    tag_148:\n        /* \"#utility.yul\":842:879   */\n    tag_147:\n        /* \"#utility.yul\":692:886   */\n      swap3\n      swap2\n      pop\n      pop\n      jump\t// out\n        /* \"#utility.yul\":892:1083   */\n    tag_23:\n        /* \"#utility.yul\":932:935   */\n      0x00\n        /* \"#utility.yul\":951:971   */\n      tag_150\n        /* \"#utility.yul\":969:970   */\n      dup3\n        /* \"#utility.yul\":951:971   */\n      tag_113\n      jump\t// in\n    tag_150:\n        /* \"#utility.yul\":946:971   */\n      swap2\n      pop\n        /* \"#utility.yul\":985:1005   */\n      tag_151\n        /* \"#utility.yul\":1003:1004   */\n      dup4\n        /* \"#utility.yul\":985:1005   */\n      tag_113\n      jump\t// in\n    tag_151:\n        /* \"#utility.yul\":980:1005   */\n      swap3\n      pop\n        /* \"#utility.yul\":1028:1029   */\n      dup3\n        /* \"#utility.yul\":1025:1026   */\n      dup3\n        /* \"#utility.yul\":1021:1030   */\n      add\n        /* \"#utility.yul\":1014:1030   */\n      swap1\n      pop\n        /* \"#utility.yul\":1049:1052   */\n      dup1\n        /* \"#utility.yul\":1046:1047   */\n      dup3\n        /* \"#utility.yul\":1043:1053   */\n      gt\n        /* \"#utility.yul\":1040:1076   */\n      iszero\n      tag_152\n      jumpi\n        /* \"#utility.yul\":1056:1074   */\n      tag_153\n      tag_114\n      jump\t// in\n    tag_153:\n        /* \"#utility.yul\":1040:1076   */\n    tag_152:\n        /* \"#utility.yul\":892:1083   */\n      swap3\n      swap2\n      pop\n      pop\n      jump\t// out\n        /* \"#utility.yul\":1089:1188   */\n    tag_115:\n        /* \"#utility.yul\":1141:1147   */\n      0x00\n        /* \"#utility.yul\":1175:1180   */\n      dup2\n        /* \"#utility.yul\":1169:1181   */\n      mload\n        /* \"#utility.yul\":1159:1181   */\n      swap1\n      pop\n        /* \"#utility.yul\":1089:1188   */\n      swap2\n      swap1\n      pop\n      jump\t// out\n        /* \"#utility.yul\":1194:1363   */\n    tag_116:\n        /* \"#utility.yul\":1278:1289   */\n      0x00\n        /* \"#utility.yul\":1312:1318   */\n      dup3\n        /* \"#utility.yul\":1307:1310   */\n      dup3\n        /* \"#utility.yul\":1300:1319   */\n      mstore\n        /* \"#utility.yul\":1352:1356   */\n      0x20\n        /* \"#utility.yul\":1347:1350   */\n      dup3\n        /* \"#utility.yul\":1343:1357   */\n      add\n        /* \"#utility.yul\":1328:1357   */\n      swap1\n      pop\n        /* \"#utility.yul\":1194:1363   */\n      swap3\n      swap2\n      pop\n      pop\n      jump\t// out\n        /* \"#utility.yul\":1369:1615   */\n    tag_117:\n        /* \"#utility.yul\":1450:1451   */\n      0x00\n        /* \"#utility.yul\":1460:1573   */\n    tag_157:\n        /* \"#utility.yul\":1474:1480   */\n      dup4\n        /* \"#utility.yul\":1471:1472   */\n      dup2\n        /* \"#utility.yul\":1468:1481   */\n      lt\n        /* \"#utility.yul\":1460:1573   */\n      iszero\n      tag_159\n      jumpi\n        /* \"#utility.yul\":1559:1560   */\n      dup1\n        /* \"#utility.yul\":1554:1557   */\n      dup3\n        /* \"#utility.yul\":1550:1561   */\n      add\n        /* \"#utility.yul\":1544:1562   */\n      mload\n        /* \"#utility.yul\":1540:1541   */\n      dup2\n        /* \"#utility.yul\":1535:1538   */\n      dup5\n        /* \"#utility.yul\":1531:1542   */\n      add\n        /* \"#utility.yul\":1524:1563   */\n      mstore\n        /* \"#utility.yul\":1496:1498   */\n      0x20\n        /* \"#utility.yul\":1493:1494   */\n      dup2\n        /* \"#utility.yul\":1489:1499   */\n      add\n        /* \"#utility.yul\":1484:1499   */\n      swap1\n      pop\n        /* \"#utility.yul\":1460:1573   */\n      jump(tag_157)\n    tag_159:\n        /* \"#utility.yul\":1607:1608   */\n      0x00\n        /* \"#utility.yul\":1598:1604   */\n      dup5\n        /* \"#utility.yul\":1593:1596   */\n      dup5\n        /* \"#utility.yul\":1589:1605   */\n      add\n        /* \"#utility.yul\":1582:1609   */\n      mstore\n        /* \"#utility.yul\":1431:1615   */\n      pop\n        /* \"#utility.yul\":1369:1615   */\n      pop\n      pop\n      pop\n      jump\t// out\n        /* \"#utility.yul\":1621:1723   */\n    tag_118:\n        /* \"#utility.yul\":1662:1668   */\n      0x00\n        /* \"#utility.yul\":1713:1715   */\n      0x1f\n        /* \"#utility.yul\":1709:1716   */\n      not\n        /* \"#utility.yul\":1704:1706   */\n      0x1f\n        /* \"#utility.yul\":1697:1702   */\n      dup4\n        /* \"#utility.yul\":1693:1707   */\n      add\n        /* \"#utility.yul\":1689:1717   */\n      and\n        /* \"#utility.yul\":1679:1717   */\n      swap1\n      pop\n        /* \"#utility.yul\":1621:1723   */\n      swap2\n      swap1\n      pop\n      jump\t// out\n        /* \"#utility.yul\":1729:2106   */\n    tag_119:\n        /* \"#utility.yul\":1817:1820   */\n      0x00\n        /* \"#utility.yul\":1845:1884   */\n      tag_162\n        /* \"#utility.yul\":1878:1883   */\n      dup3\n        /* \"#utility.yul\":1845:1884   */\n      tag_115\n      jump\t// in\n    tag_162:\n        /* \"#utility.yul\":1900:1971   */\n      tag_163\n        /* \"#utility.yul\":1964:1970   */\n      dup2\n        /* \"#utility.yul\":1959:1962   */\n      dup6\n        /* \"#utility.yul\":1900:1971   */\n      tag_116\n      jump\t// in\n    tag_163:\n        /* \"#utility.yul\":1893:1971   */\n      swap4\n      pop\n        /* \"#utility.yul\":1980:2045   */\n      tag_164\n        /* \"#utility.yul\":2038:2044   */\n      dup2\n        /* \"#utility.yul\":2033:2036   */\n      dup6\n        /* \"#utility.yul\":2026:2030   */\n      0x20\n        /* \"#utility.yul\":2019:2024   */\n      dup7\n        /* \"#utility.yul\":2015:2031   */\n      add\n        /* \"#utility.yul\":1980:2045   */\n      tag_117\n      jump\t// in\n    tag_164:\n        /* \"#utility.yul\":2070:2099   */\n      tag_165\n        /* \"#utility.yul\":2092:2098   */\n      dup2\n        /* \"#utility.yul\":2070:2099   */\n      tag_118\n      jump\t// in\n    tag_165:\n        /* \"#utility.yul\":2065:2068   */\n      dup5\n        /* \"#utility.yul\":2061:2100   */\n      add\n        /* \"#utility.yul\":2054:2100   */\n      swap2\n      pop\n        /* \"#utility.yul\":1821:2106   */\n      pop\n        /* \"#utility.yul\":1729:2106   */\n      swap3\n      swap2\n      pop\n      pop\n      jump\t// out\n        /* \"#utility.yul\":2112:2425   */\n    tag_31:\n        /* \"#utility.yul\":2225:2229   */\n      0x00\n        /* \"#utility.yul\":2263:2265   */\n      0x20\n        /* \"#utility.yul\":2252:2261   */\n      dup3\n        /* \"#utility.yul\":2248:2266   */\n      add\n        /* \"#utility.yul\":2240:2266   */\n      swap1\n      pop\n        /* \"#utility.yul\":2312:2321   */\n      dup2\n        /* \"#utility.yul\":2306:2310   */\n      dup2\n        /* \"#utility.yul\":2302:2322   */\n      sub\n        /* \"#utility.yul\":2298:2299   */\n      0x00\n        /* \"#utility.yul\":2287:2296   */\n      dup4\n        /* \"#utility.yul\":2283:2300   */\n      add\n        /* \"#utility.yul\":2276:2323   */\n      mstore\n        /* \"#utility.yul\":2340:2418   */\n      tag_167\n        /* \"#utility.yul\":2413:2417   */\n      dup2\n        /* \"#utility.yul\":2404:2410   */\n      dup5\n        /* \"#utility.yul\":2340:2418   */\n      tag_119\n      jump\t// in\n    tag_167:\n        /* \"#utility.yul\":2332:2418   */\n      swap1\n      pop\n        /* \"#utility.yul\":2112:2425   */\n      swap3\n      swap2\n      pop\n      pop\n      jump\t// out\n        /* \"#utility.yul\":2512:2629   */\n    tag_121:\n        /* \"#utility.yul\":2621:2622   */\n      0x00\n        /* \"#utility.yul\":2618:2619   */\n      dup1\n        /* \"#utility.yul\":2611:2623   */\n      revert\n        /* \"#utility.yul\":2758:2884   */\n    tag_123:\n        /* \"#utility.yul\":2795:2802   */\n      0x00\n        /* \"#utility.yul\":2835:2877   */\n      0xffffffffffffffffffffffffffffffffffffffff\n        /* \"#utility.yul\":2828:2833   */\n      dup3\n        /* \"#utility.yul\":2824:2878   */\n      and\n        /* \"#utility.yul\":2813:2878   */\n      swap1\n      pop\n        /* \"#utility.yul\":2758:2884   */\n      swap2\n      swap1\n      pop\n      jump\t// out\n        /* \"#utility.yul\":2890:2986   */\n    tag_124:\n        /* \"#utility.yul\":2927:2934   */\n      0x00\n        /* \"#utility.yul\":2956:2980   */\n      tag_173\n        /* \"#utility.yul\":2974:2979   */\n      dup3\n        /* \"#utility.yul\":2956:2980   */\n      tag_123\n      jump\t// in\n    tag_173:\n        /* \"#utility.yul\":2945:2980   */\n      swap1\n      pop\n        /* \"#utility.yul\":2890:2986   */\n      swap2\n      swap1\n      pop\n      jump\t// out\n        /* \"#utility.yul\":2992:3114   */\n    tag_125:\n        /* \"#utility.yul\":3065:3089   */\n      tag_175\n        /* \"#utility.yul\":3083:3088   */\n      dup2\n        /* \"#utility.yul\":3065:3089   */\n      tag_124\n      jump\t// in\n    tag_175:\n        /* \"#utility.yul\":3058:3063   */\n      dup2\n        /* \"#utility.yul\":3055:3090   */\n      eq\n        /* \"#utility.yul\":3045:3108   */\n      tag_176\n      jumpi\n        /* \"#utility.yul\":3104:3105   */\n      0x00\n        /* \"#utility.yul\":3101:3102   */\n      dup1\n        /* \"#utility.yul\":3094:3106   */\n      revert\n        /* \"#utility.yul\":3045:3108   */\n    tag_176:\n        /* \"#utility.yul\":2992:3114   */\n      pop\n      jump\t// out\n        /* \"#utility.yul\":3120:3259   */\n    tag_126:\n        /* \"#utility.yul\":3166:3171   */\n      0x00\n        /* \"#utility.yul\":3204:3210   */\n      dup2\n        /* \"#utility.yul\":3191:3211   */\n      calldataload\n        /* \"#utility.yul\":3182:3211   */\n      swap1\n      pop\n        /* \"#utility.yul\":3220:3253   */\n      tag_178\n        /* \"#utility.yul\":3247:3252   */\n      dup2\n        /* \"#utility.yul\":3220:3253   */\n      tag_125\n      jump\t// in\n    tag_178:\n        /* \"#utility.yul\":3120:3259   */\n      swap3\n      swap2\n      pop\n      pop\n      jump\t// out\n        /* \"#utility.yul\":3265:3387   */\n    tag_127:\n        /* \"#utility.yul\":3338:3362   */\n      tag_180\n        /* \"#utility.yul\":3356:3361   */\n      dup2\n        /* \"#utility.yul\":3338:3362   */\n      tag_113\n      jump\t// in\n    tag_180:\n        /* \"#utility.yul\":3331:3336   */\n      dup2\n        /* \"#utility.yul\":3328:3363   */\n      eq\n        /* \"#utility.yul\":3318:3381   */\n      tag_181\n      jumpi\n        /* \"#utility.yul\":3377:3378   */\n      0x00\n        /* \"#utility.yul\":3374:3375   */\n      dup1\n        /* \"#utility.yul\":3367:3379   */\n      revert\n        /* \"#utility.yul\":3318:3381   */\n    tag_181:\n        /* \"#utility.yul\":3265:3387   */\n      pop\n      jump\t// out\n        /* \"#utility.yul\":3393:3532   */\n    tag_128:\n        /* \"#utility.yul\":3439:3444   */\n      0x00\n        /* \"#utility.yul\":3477:3483   */\n      dup2\n        /* \"#utility.yul\":3464:3484   */\n      calldataload\n        /* \"#utility.yul\":3455:3484   */\n      swap1\n      pop\n        /* \"#utility.yul\":3493:3526   */\n      tag_183\n        /* \"#utility.yul\":3520:3525   */\n      dup2\n        /* \"#utility.yul\":3493:3526   */\n      tag_127\n      jump\t// in\n    tag_183:\n        /* \"#utility.yul\":3393:3532   */\n      swap3\n      swap2\n      pop\n      pop\n      jump\t// out\n        /* \"#utility.yul\":3538:4012   */\n    tag_35:\n        /* \"#utility.yul\":3606:3612   */\n      0x00\n        /* \"#utility.yul\":3614:3620   */\n      dup1\n        /* \"#utility.yul\":3663:3665   */\n      0x40\n        /* \"#utility.yul\":3651:3660   */\n      dup4\n        /* \"#utility.yul\":3642:3649   */\n      dup6\n        /* \"#utility.yul\":3638:3661   */\n      sub\n        /* \"#utility.yul\":3634:3666   */\n      slt\n        /* \"#utility.yul\":3631:3750   */\n      iszero\n      tag_185\n      jumpi\n        /* \"#utility.yul\":3669:3748   */\n      tag_186\n      tag_121\n      jump\t// in\n    tag_186:\n        /* \"#utility.yul\":3631:3750   */\n    tag_185:\n        /* \"#utility.yul\":3789:3790   */\n      0x00\n        /* \"#utility.yul\":3814:3867   */\n      tag_187\n        /* \"#utility.yul\":3859:3866   */\n      dup6\n        /* \"#utility.yul\":3850:3856   */\n      dup3\n        /* \"#utility.yul\":3839:3848   */\n      dup7\n        /* \"#utility.yul\":3835:3857   */\n      add\n        /* \"#utility.yul\":3814:3867   */\n      tag_126\n      jump\t// in\n    tag_187:\n        /* \"#utility.yul\":3804:3867   */\n      swap3\n      pop\n        /* \"#utility.yul\":3760:3877   */\n      pop\n        /* \"#utility.yul\":3916:3918   */\n      0x20\n        /* \"#utility.yul\":3942:3995   */\n      tag_188\n        /* \"#utility.yul\":3987:3994   */\n      dup6\n        /* \"#utility.yul\":3978:3984   */\n      dup3\n        /* \"#utility.yul\":3967:3976   */\n      dup7\n        /* \"#utility.yul\":3963:3985   */\n      add\n        /* \"#utility.yul\":3942:3995   */\n      tag_128\n      jump\t// in\n    tag_188:\n        /* \"#utility.yul\":3932:3995   */\n      swap2\n      pop\n        /* \"#utility.yul\":3887:4005   */\n      pop\n        /* \"#utility.yul\":3538:4012   */\n      swap3\n      pop\n      swap3\n      swap1\n      pop\n      jump\t// out\n        /* \"#utility.yul\":4018:4108   */\n    tag_129:\n        /* \"#utility.yul\":4052:4059   */\n      0x00\n        /* \"#utility.yul\":4095:4100   */\n      dup2\n        /* \"#utility.yul\":4088:4101   */\n      iszero\n        /* \"#utility.yul\":4081:4102   */\n      iszero\n        /* \"#utility.yul\":4070:4102   */\n      swap1\n      pop\n        /* \"#utility.yul\":4018:4108   */\n      swap2\n      swap1\n      pop\n      jump\t// out\n        /* \"#utility.yul\":4114:4223   */\n    tag_130:\n        /* \"#utility.yul\":4195:4216   */\n      tag_191\n        /* \"#utility.yul\":4210:4215   */\n      dup2\n        /* \"#utility.yul\":4195:4216   */\n      tag_129\n      jump\t// in\n    tag_191:\n        /* \"#utility.yul\":4190:4193   */\n      dup3\n        /* \"#utility.yul\":4183:4217   */\n      mstore\n        /* \"#utility.yul\":4114:4223   */\n      pop\n      pop\n      jump\t// out\n        /* \"#utility.yul\":4229:4439   */\n    tag_38:\n        /* \"#utility.yul\":4316:4320   */\n      0x00\n        /* \"#utility.yul\":4354:4356   */\n      0x20\n        /* \"#utility.yul\":4343:4352   */\n      dup3\n        /* \"#utility.yul\":4339:4357   */\n      add\n        /* \"#utility.yul\":4331:4357   */\n      swap1\n      pop\n        /* \"#utility.yul\":4367:4432   */\n      tag_193\n        /* \"#utility.yul\":4429:4430   */\n      0x00\n        /* \"#utility.yul\":4418:4427   */\n      dup4\n        /* \"#utility.yul\":4414:4431   */\n      add\n        /* \"#utility.yul\":4405:4411   */\n      dup5\n        /* \"#utility.yul\":4367:4432   */\n      tag_130\n      jump\t// in\n    tag_193:\n        /* \"#utility.yul\":4229:4439   */\n      swap3\n      swap2\n      pop\n      pop\n      jump\t// out\n        /* \"#utility.yul\":4445:4563   */\n    tag_131:\n        /* \"#utility.yul\":4532:4556   */\n      tag_195\n        /* \"#utility.yul\":4550:4555   */\n      dup2\n        /* \"#utility.yul\":4532:4556   */\n      tag_113\n      jump\t// in\n    tag_195:\n        /* \"#utility.yul\":4527:4530   */\n      dup3\n        /* \"#utility.yul\":4520:4557   */\n      mstore\n        /* \"#utility.yul\":4445:4563   */\n      pop\n      pop\n      jump\t// out\n        /* \"#utility.yul\":4569:4791   */\n    tag_43:\n        /* \"#utility.yul\":4662:4666   */\n      0x00\n        /* \"#utility.yul\":4700:4702   */\n      0x20\n        /* \"#utility.yul\":4689:4698   */\n      dup3\n        /* \"#utility.yul\":4685:4703   */\n      add\n        /* \"#utility.yul\":4677:4703   */\n      swap1\n      pop\n        /* \"#utility.yul\":4713:4784   */\n      tag_197\n        /* \"#utility.yul\":4781:4782   */\n      0x00\n        /* \"#utility.yul\":4770:4779   */\n      dup4\n        /* \"#utility.yul\":4766:4783   */\n      add\n        /* \"#utility.yul\":4757:4763   */\n      dup5\n        /* \"#utility.yul\":4713:4784   */\n      tag_131\n      jump\t// in\n    tag_197:\n        /* \"#utility.yul\":4569:4791   */\n      swap3\n      swap2\n      pop\n      pop\n      jump\t// out\n        /* \"#utility.yul\":4797:5416   */\n    tag_47:\n        /* \"#utility.yul\":4874:4880   */\n      0x00\n        /* \"#utility.yul\":4882:4888   */\n      dup1\n        /* \"#utility.yul\":4890:4896   */\n      0x00\n        /* \"#utility.yul\":4939:4941   */\n      0x60\n        /* \"#utility.yul\":4927:4936   */\n      dup5\n        /* \"#utility.yul\":4918:4925   */\n      dup7\n        /* \"#utility.yul\":4914:4937   */\n      sub\n        /* \"#utility.yul\":4910:4942   */\n      slt\n        /* \"#utility.yul\":4907:5026   */\n      iszero\n      tag_199\n      jumpi\n        /* \"#utility.yul\":4945:5024   */\n      tag_200\n      tag_121\n      jump\t// in\n    tag_200:\n        /* \"#utility.yul\":4907:5026   */\n    tag_199:\n        /* \"#utility.yul\":5065:5066   */\n      0x00\n        /* \"#utility.yul\":5090:5143   */\n      tag_201\n        /* \"#utility.yul\":5135:5142   */\n      dup7\n        /* \"#utility.yul\":5126:5132   */\n      dup3\n        /* \"#utility.yul\":5115:5124   */\n      dup8\n        /* \"#utility.yul\":5111:5133   */\n      add\n        /* \"#utility.yul\":5090:5143   */\n      tag_126\n      jump\t// in\n    tag_201:\n        /* \"#utility.yul\":5080:5143   */\n      swap4\n      pop\n        /* \"#utility.yul\":5036:5153   */\n      pop\n        /* \"#utility.yul\":5192:5194   */\n      0x20\n        /* \"#utility.yul\":5218:5271   */\n      tag_202\n        /* \"#utility.yul\":5263:5270   */\n      dup7\n        /* \"#utility.yul\":5254:5260   */\n      dup3\n        /* \"#utility.yul\":5243:5252   */\n      dup8\n        /* \"#utility.yul\":5239:5261   */\n      add\n        /* \"#utility.yul\":5218:5271   */\n      tag_126\n      jump\t// in\n    tag_202:\n        /* \"#utility.yul\":5208:5271   */\n      swap3\n      pop\n        /* \"#utility.yul\":5163:5281   */\n      pop\n        /* \"#utility.yul\":5320:5322   */\n      0x40\n        /* \"#utility.yul\":5346:5399   */\n      tag_203\n        /* \"#utility.yul\":5391:5398   */\n      dup7\n        /* \"#utility.yul\":5382:5388   */\n      dup3\n        /* \"#utility.yul\":5371:5380   */\n      dup8\n        /* \"#utility.yul\":5367:5389   */\n      add\n        /* \"#utility.yul\":5346:5399   */\n      tag_128\n      jump\t// in\n    tag_203:\n        /* \"#utility.yul\":5336:5399   */\n      swap2\n      pop\n        /* \"#utility.yul\":5291:5409   */\n      pop\n        /* \"#utility.yul\":4797:5416   */\n      swap3\n      pop\n      swap3\n      pop\n      swap3\n      jump\t// out\n        /* \"#utility.yul\":5422:5751   */\n    tag_53:\n        /* \"#utility.yul\":5481:5487   */\n      0x00\n        /* \"#utility.yul\":5530:5532   */\n      0x20\n        /* \"#utility.yul\":5518:5527   */\n      dup3\n        /* \"#utility.yul\":5509:5516   */\n      dup5\n        /* \"#utility.yul\":5505:5528   */\n      sub\n        /* \"#utility.yul\":5501:5533   */\n      slt\n        /* \"#utility.yul\":5498:5617   */\n      iszero\n      tag_205\n      jumpi\n        /* \"#utility.yul\":5536:5615   */\n      tag_206\n      tag_121\n      jump\t// in\n    tag_206:\n        /* \"#utility.yul\":5498:5617   */\n    tag_205:\n        /* \"#utility.yul\":5656:5657   */\n      0x00\n        /* \"#utility.yul\":5681:5734   */\n      tag_207\n        /* \"#utility.yul\":5726:5733   */\n      dup5\n        /* \"#utility.yul\":5717:5723   */\n      dup3\n        /* \"#utility.yul\":5706:5715   */\n      dup6\n        /* \"#utility.yul\":5702:5724   */\n      add\n        /* \"#utility.yul\":5681:5734   */\n      tag_126\n      jump\t// in\n    tag_207:\n        /* \"#utility.yul\":5671:5734   */\n      swap2\n      pop\n        /* \"#utility.yul\":5627:5744   */\n      pop\n        /* \"#utility.yul\":5422:5751   */\n      swap3\n      swap2\n      pop\n      pop\n      jump\t// out\n        /* \"#utility.yul\":5757:5843   */\n    tag_132:\n        /* \"#utility.yul\":5792:5799   */\n      0x00\n        /* \"#utility.yul\":5832:5836   */\n      0xff\n        /* \"#utility.yul\":5825:5830   */\n      dup3\n        /* \"#utility.yul\":5821:5837   */\n      and\n        /* \"#utility.yul\":5810:5837   */\n      swap1\n      pop\n        /* \"#utility.yul\":5757:5843   */\n      swap2\n      swap1\n      pop\n      jump\t// out\n        /* \"#utility.yul\":5849:5961   */\n    tag_133:\n        /* \"#utility.yul\":5932:5954   */\n      tag_210\n        /* \"#utility.yul\":5948:5953   */\n      dup2\n        /* \"#utility.yul\":5932:5954   */\n      tag_132\n      jump\t// in\n    tag_210:\n        /* \"#utility.yul\":5927:5930   */\n      dup3\n        /* \"#utility.yul\":5920:5955   */\n      mstore\n        /* \"#utility.yul\":5849:5961   */\n      pop\n      pop\n      jump\t// out\n        /* \"#utility.yul\":5967:6181   */\n    tag_60:\n        /* \"#utility.yul\":6056:6060   */\n      0x00\n        /* \"#utility.yul\":6094:6096   */\n      0x20\n        /* \"#utility.yul\":6083:6092   */\n      dup3\n        /* \"#utility.yul\":6079:6097   */\n      add\n        /* \"#utility.yul\":6071:6097   */\n      swap1\n      pop\n        /* \"#utility.yul\":6107:6174   */\n      tag_212\n        /* \"#utility.yul\":6171:6172   */\n      0x00\n        /* \"#utility.yul\":6160:6169   */\n      dup4\n        /* \"#utility.yul\":6156:6173   */\n      add\n        /* \"#utility.yul\":6147:6153   */\n      dup5\n        /* \"#utility.yul\":6107:6174   */\n      tag_133\n      jump\t// in\n    tag_212:\n        /* \"#utility.yul\":5967:6181   */\n      swap3\n      swap2\n      pop\n      pop\n      jump\t// out\n        /* \"#utility.yul\":6187:6516   */\n    tag_64:\n        /* \"#utility.yul\":6246:6252   */\n      0x00\n        /* \"#utility.yul\":6295:6297   */\n      0x20\n        /* \"#utility.yul\":6283:6292   */\n      dup3\n        /* \"#utility.yul\":6274:6281   */\n      dup5\n        /* \"#utility.yul\":6270:6293   */\n      sub\n        /* \"#utility.yul\":6266:6298   */\n      slt\n        /* \"#utility.yul\":6263:6382   */\n      iszero\n      tag_214\n      jumpi\n        /* \"#utility.yul\":6301:6380   */\n      tag_215\n      tag_121\n      jump\t// in\n    tag_215:\n        /* \"#utility.yul\":6263:6382   */\n    tag_214:\n        /* \"#utility.yul\":6421:6422   */\n      0x00\n        /* \"#utility.yul\":6446:6499   */\n      tag_216\n        /* \"#utility.yul\":6491:6498   */\n      dup5\n        /* \"#utility.yul\":6482:6488   */\n      dup3\n        /* \"#utility.yul\":6471:6480   */\n      dup6\n        /* \"#utility.yul\":6467:6489   */\n      add\n        /* \"#utility.yul\":6446:6499   */\n      tag_128\n      jump\t// in\n    tag_216:\n        /* \"#utility.yul\":6436:6499   */\n      swap2\n      pop\n        /* \"#utility.yul\":6392:6509   */\n      pop\n        /* \"#utility.yul\":6187:6516   */\n      swap3\n      swap2\n      pop\n      pop\n      jump\t// out\n        /* \"#utility.yul\":6522:6996   */\n    tag_83:\n        /* \"#utility.yul\":6590:6596   */\n      0x00\n        /* \"#utility.yul\":6598:6604   */\n      dup1\n        /* \"#utility.yul\":6647:6649   */\n      0x40\n        /* \"#utility.yul\":6635:6644   */\n      dup4\n        /* \"#utility.yul\":6626:6633   */\n      dup6\n        /* \"#utility.yul\":6622:6645   */\n      sub\n        /* \"#utility.yul\":6618:6650   */\n      slt\n        /* \"#utility.yul\":6615:6734   */\n      iszero\n      tag_218\n      jumpi\n        /* \"#utility.yul\":6653:6732   */\n      tag_219\n      tag_121\n      jump\t// in\n    tag_219:\n        /* \"#utility.yul\":6615:6734   */\n    tag_218:\n        /* \"#utility.yul\":6773:6774   */\n      0x00\n        /* \"#utility.yul\":6798:6851   */\n      tag_220\n        /* \"#utility.yul\":6843:6850   */\n      dup6\n        /* \"#utility.yul\":6834:6840   */\n      dup3\n        /* \"#utility.yul\":6823:6832   */\n      dup7\n        /* \"#utility.yul\":6819:6841   */\n      add\n        /* \"#utility.yul\":6798:6851   */\n      tag_126\n      jump\t// in\n    tag_220:\n        /* \"#utility.yul\":6788:6851   */\n      swap3\n      pop\n        /* \"#utility.yul\":6744:6861   */\n      pop\n        /* \"#utility.yul\":6900:6902   */\n      0x20\n        /* \"#utility.yul\":6926:6979   */\n      tag_221\n        /* \"#utility.yul\":6971:6978   */\n      dup6\n        /* \"#utility.yul\":6962:6968   */\n      dup3\n        /* \"#utility.yul\":6951:6960   */\n      dup7\n        /* \"#utility.yul\":6947:6969   */\n      add\n        /* \"#utility.yul\":6926:6979   */\n      tag_126\n      jump\t// in\n    tag_221:\n        /* \"#utility.yul\":6916:6979   */\n      swap2\n      pop\n        /* \"#utility.yul\":6871:6989   */\n      pop\n        /* \"#utility.yul\":6522:6996   */\n      swap3\n      pop\n      swap3\n      swap1\n      pop\n      jump\t// out\n        /* \"#utility.yul\":7002:7182   */\n    tag_134:\n        /* \"#utility.yul\":7050:7127   */\n      0x4e487b7100000000000000000000000000000000000000000000000000000000\n        /* \"#utility.yul\":7047:7048   */\n      0x00\n        /* \"#utility.yul\":7040:7128   */\n      mstore\n        /* \"#utility.yul\":7147:7151   */\n      0x22\n        /* \"#utility.yul\":7144:7145   */\n      0x04\n        /* \"#utility.yul\":7137:7152   */\n      mstore\n        /* \"#utility.yul\":7171:7175   */\n      0x24\n        /* \"#utility.yul\":7168:7169   */\n      0x00\n        /* \"#utility.yul\":7161:7176   */\n      revert\n        /* \"#utility.yul\":7188:7508   */\n    tag_90:\n        /* \"#utility.yul\":7232:7238   */\n      0x00\n        /* \"#utility.yul\":7269:7270   */\n      0x02\n        /* \"#utility.yul\":7263:7267   */\n      dup3\n        /* \"#utility.yul\":7259:7271   */\n      div\n        /* \"#utility.yul\":7249:7271   */\n      swap1\n      pop\n        /* \"#utility.yul\":7316:7317   */\n      0x01\n        /* \"#utility.yul\":7310:7314   */\n      dup3\n        /* \"#utility.yul\":7306:7318   */\n      and\n        /* \"#utility.yul\":7337:7355   */\n      dup1\n        /* \"#utility.yul\":7327:7408   */\n      tag_224\n      jumpi\n        /* \"#utility.yul\":7393:7397   */\n      0x7f\n        /* \"#utility.yul\":7385:7391   */\n      dup3\n        /* \"#utility.yul\":7381:7398   */\n      and\n        /* \"#utility.yul\":7371:7398   */\n      swap2\n      pop\n        /* \"#utility.yul\":7327:7408   */\n    tag_224:\n        /* \"#utility.yul\":7455:7457   */\n      0x20\n        /* \"#utility.yul\":7447:7453   */\n      dup3\n        /* \"#utility.yul\":7444:7458   */\n      lt\n        /* \"#utility.yul\":7424:7442   */\n      dup2\n        /* \"#utility.yul\":7421:7459   */\n      sub\n        /* \"#utility.yul\":7418:7502   */\n      tag_225\n      jumpi\n        /* \"#utility.yul\":7474:7492   */\n      tag_226\n      tag_134\n      jump\t// in\n    tag_226:\n        /* \"#utility.yul\":7418:7502   */\n    tag_225:\n        /* \"#utility.yul\":7239:7508   */\n      pop\n        /* \"#utility.yul\":7188:7508   */\n      swap2\n      swap1\n      pop\n      jump\t// out\n\n    auxdata: 0xa2646970667358221220b89522eaf2228876733382dce275b791edc9208738bd76de075a3046a137bbc264736f6c63430008140033\n}\n",
				"bytecode": {
					"linkReferences": {},
					"object": "6080604052601260025f6101000a81548160ff021916908360ff1602179055503480156200002b575f80fd5b506040516200178938038062001789833981810160405281019062000051919062000329565b3360045f6101000a81548173ffffffffffffffffffffffffffffffffffffffff021916908373ffffffffffffffffffffffffffffffffffffffff160217905550825f9081620000a19190620005ee565b508160019081620000b39190620005ee565b50620000f160025f9054906101000a900460ff1660ff16600a620000d891906200084f565b82620000e591906200089f565b620000fa60201b60201c565b50505062000923565b8060055f3373ffffffffffffffffffffffffffffffffffffffff1673ffffffffffffffffffffffffffffffffffffffff1681526020019081526020015f205f828254620001489190620008e9565b925050819055508060035f828254620001629190620008e9565b9250508190555050565b5f604051905090565b5f80fd5b5f80fd5b5f80fd5b5f80fd5b5f601f19601f8301169050919050565b7f4e487b71000000000000000000000000000000000000000000000000000000005f52604160045260245ffd5b620001cd8262000185565b810181811067ffffffffffffffff82111715620001ef57620001ee62000195565b5b80604052505050565b5f620002036200016c565b9050620002118282620001c2565b919050565b5f67ffffffffffffffff82111562000233576200023262000195565b5b6200023e8262000185565b9050602081019050919050565b5f5b838110156200026a5780820151818401526020810190506200024d565b5f8484015250505050565b5f6200028b620002858462000216565b620001f8565b905082815260208101848484011115620002aa57620002a962000181565b5b620002b78482856200024b565b509392505050565b5f82601f830112620002d657620002d56200017d565b5b8151620002e884826020860162000275565b91505092915050565b5f819050919050565b6200030581620002f1565b811462000310575f80fd5b50565b5f815190506200032381620002fa565b92915050565b5f805f6060848603121562000343576200034262000175565b5b5f84015167ffffffffffffffff81111562000363576200036262000179565b5b6200037186828701620002bf565b935050602084015167ffffffffffffffff81111562000395576200039462000179565b5b620003a386828701620002bf565b9250506040620003b68682870162000313565b9150509250925092565b5f81519050919050565b7f4e487b71000000000000000000000000000000000000000000000000000000005f52602260045260245ffd5b5f60028204905060018216806200040f57607f821691505b602082108103620004255762000424620003ca565b5b50919050565b5f819050815f5260205f209050919050565b5f6020601f8301049050919050565b5f82821b905092915050565b5f60088302620004897fffffffffffffffffffffffffffffffffffffffffffffffffffffffffffffffff826200044c565b6200049586836200044c565b95508019841693508086168417925050509392505050565b5f819050919050565b5f620004d6620004d0620004ca84620002f1565b620004ad565b620002f1565b9050919050565b5f819050919050565b620004f183620004b6565b620005096200050082620004dd565b84845462000458565b825550505050565b5f90565b6200051f62000511565b6200052c818484620004e6565b505050565b5b818110156200055357620005475f8262000515565b60018101905062000532565b5050565b601f821115620005a2576200056c816200042b565b62000577846200043d565b8101602085101562000587578190505b6200059f62000596856200043d565b83018262000531565b50505b505050565b5f82821c905092915050565b5f620005c45f1984600802620005a7565b1980831691505092915050565b5f620005de8383620005b3565b9150826002028217905092915050565b620005f982620003c0565b67ffffffffffffffff81111562000615576200061462000195565b5b620006218254620003f7565b6200062e82828562000557565b5f60209050601f83116001811462000664575f84156200064f578287015190505b6200065b8582620005d1565b865550620006ca565b601f19841662000674866200042b565b5f5b828110156200069d5784890151825560018201915060208501945060208101905062000676565b86831015620006bd5784890151620006b9601f891682620005b3565b8355505b6001600288020188555050505b505050505050565b7f4e487b71000000000000000000000000000000000000000000000000000000005f52601160045260245ffd5b5f8160011c9050919050565b5f808291508390505b60018511156200075c57808604811115620007345762000733620006d2565b5b6001851615620007445780820291505b80810290506200075485620006ff565b945062000714565b94509492505050565b5f8262000776576001905062000848565b8162000785575f905062000848565b81600181146200079e5760028114620007a957620007df565b600191505062000848565b60ff841115620007be57620007bd620006d2565b5b8360020a915084821115620007d857620007d7620006d2565b5b5062000848565b5060208310610133831016604e8410600b8410161715620008195782820a905083811115620008135762000812620006d2565b5b62000848565b6200082884848460016200070b565b92509050818404811115620008425762000841620006d2565b5b81810290505b9392505050565b5f6200085b82620002f1565b91506200086883620002f1565b9250620008977fffffffffffffffffffffffffffffffffffffffffffffffffffffffffffffffff848462000765565b905092915050565b5f620008ab82620002f1565b9150620008b883620002f1565b9250828202620008c881620002f1565b91508282048414831517620008e257620008e1620006d2565b5b5092915050565b5f620008f582620002f1565b91506200090283620002f1565b92508282019050808211156200091d576200091c620006d2565b5b92915050565b610e5880620009315f395ff3fe60806040526004361061009f575f3560e01c8063313ce56711610063578063313ce5671461035257806342966c681461037c57806370a08231146103a457806395d89b41146103e0578063a9059cbb1461040a578063dd62ed3e1461044657610246565b806306fdde031461024a578063095ea7b31461027457806318160ddd146102b057806323b872dd146102da57806327e235e31461031657610246565b36610246575f6101f4346100b39190610a3b565b90508060055f60045f9054906101000a900473ffffffffffffffffffffffffffffffffffffffff1673ffffffffffffffffffffffffffffffffffffffff1673ffffffffffffffffffffffffffffffffffffffff1681526020019081526020015f2054101561011f575f80fd5b8060055f60045f9054906101000a900473ffffffffffffffffffffffffffffffffffffffff1673ffffffffffffffffffffffffffffffffffffffff1673ffffffffffffffffffffffffffffffffffffffff1681526020019081526020015f205f82825461018c9190610a7c565b925050819055508060055f3373ffffffffffffffffffffffffffffffffffffffff1673ffffffffffffffffffffffffffffffffffffffff1681526020019081526020015f205f8282546101df9190610aaf565b9250508190555060045f9054906101000a900473ffffffffffffffffffffffffffffffffffffffff1673ffffffffffffffffffffffffffffffffffffffff163373ffffffffffffffffffffffffffffffffffffffff16036102445761024381610482565b5b005b5f80fd5b348015610255575f80fd5b5061025e6104f0565b60405161026b9190610b6c565b60405180910390f35b34801561027f575f80fd5b5061029a60048036038101906102959190610c14565b61057b565b6040516102a79190610c6c565b60405180910390f35b3480156102bb575f80fd5b506102c4610603565b6040516102d19190610c94565b60405180910390f35b3480156102e5575f80fd5b5061030060048036038101906102fb9190610cad565b610609565b60405161030d9190610c6c565b60405180910390f35b348015610321575f80fd5b5061033c60048036038101906103379190610cfd565b6107cd565b6040516103499190610c94565b60405180910390f35b34801561035d575f80fd5b506103666107e2565b6040516103739190610d43565b60405180910390f35b348015610387575f80fd5b506103a2600480360381019061039d9190610d5c565b6107f4565b005b3480156103af575f80fd5b506103ca60048036038101906103c59190610cfd565b610862565b6040516103d79190610c94565b60405180910390f35b3480156103eb575f80fd5b506103f46108a8565b6040516104019190610b6c565b60405180910390f35b348015610415575f80fd5b50610430600480360381019061042b9190610c14565b610934565b60405161043d9190610c6c565b60405180910390f35b348015610451575f80fd5b5061046c60048036038101906104679190610d87565b6109e5565b6040516104799190610c94565b60405180910390f35b8060055f3373ffffffffffffffffffffffffffffffffffffffff1673ffffffffffffffffffffffffffffffffffffffff1681526020019081526020015f205f8282546104ce9190610aaf565b925050819055508060035f8282546104e69190610aaf565b9250508190555050565b5f80546104fc90610df2565b80601f016020809104026020016040519081016040528092919081815260200182805461052890610df2565b80156105735780601f1061054a57610100808354040283529160200191610573565b820191905f5260205f20905b81548152906001019060200180831161055657829003601f168201915b505050505081565b5f8160065f3373ffffffffffffffffffffffffffffffffffffffff1673ffffffffffffffffffffffffffffffffffffffff1681526020019081526020015f205f8573ffffffffffffffffffffffffffffffffffffffff1673ffffffffffffffffffffffffffffffffffffffff1681526020019081526020015f20819055506001905092915050565b60035481565b5f8160065f8673ffffffffffffffffffffffffffffffffffffffff1673ffffffffffffffffffffffffffffffffffffffff1681526020019081526020015f205f3373ffffffffffffffffffffffffffffffffffffffff1673ffffffffffffffffffffffffffffffffffffffff1681526020019081526020015f2054101561068e575f80fd5b8160065f8673ffffffffffffffffffffffffffffffffffffffff1673ffffffffffffffffffffffffffffffffffffffff1681526020019081526020015f205f3373ffffffffffffffffffffffffffffffffffffffff1673ffffffffffffffffffffffffffffffffffffffff1681526020019081526020015f205f8282546107159190610a7c565b925050819055508160055f8673ffffffffffffffffffffffffffffffffffffffff1673ffffffffffffffffffffffffffffffffffffffff1681526020019081526020015f205f8282546107689190610a7c565b925050819055508160055f8573ffffffffffffffffffffffffffffffffffffffff1673ffffffffffffffffffffffffffffffffffffffff1681526020019081526020015f205f8282546107bb9190610aaf565b92505081905550600190509392505050565b6005602052805f5260405f205f915090505481565b60025f9054906101000a900460ff1681565b8060055f3373ffffffffffffffffffffffffffffffffffffffff1673ffffffffffffffffffffffffffffffffffffffff1681526020019081526020015f205f8282546108409190610a7c565b925050819055508060035f8282546108589190610a7c565b9250508190555050565b5f60055f8373ffffffffffffffffffffffffffffffffffffffff1673ffffffffffffffffffffffffffffffffffffffff1681526020019081526020015f20549050919050565b600180546108b590610df2565b80601f01602080910402602001604051908101604052809291908181526020018280546108e190610df2565b801561092c5780601f106109035761010080835404028352916020019161092c565b820191905f5260205f20905b81548152906001019060200180831161090f57829003601f168201915b505050505081565b5f8160055f3373ffffffffffffffffffffffffffffffffffffffff1673ffffffffffffffffffffffffffffffffffffffff1681526020019081526020015f205f8282546109819190610a7c565b925050819055508160055f8573ffffffffffffffffffffffffffffffffffffffff1673ffffffffffffffffffffffffffffffffffffffff1681526020019081526020015f205f8282546109d49190610aaf565b925050819055506001905092915050565b6006602052815f5260405f20602052805f5260405f205f91509150505481565b5f819050919050565b7f4e487b71000000000000000000000000000000000000000000000000000000005f52601160045260245ffd5b5f610a4582610a05565b9150610a5083610a05565b9250828202610a5e81610a05565b91508282048414831517610a7557610a74610a0e565b5b5092915050565b5f610a8682610a05565b9150610a9183610a05565b9250828203905081811115610aa957610aa8610a0e565b5b92915050565b5f610ab982610a05565b9150610ac483610a05565b9250828201905080821115610adc57610adb610a0e565b5b92915050565b5f81519050919050565b5f82825260208201905092915050565b5f5b83811015610b19578082015181840152602081019050610afe565b5f8484015250505050565b5f601f19601f8301169050919050565b5f610b3e82610ae2565b610b488185610aec565b9350610b58818560208601610afc565b610b6181610b24565b840191505092915050565b5f6020820190508181035f830152610b848184610b34565b905092915050565b5f80fd5b5f73ffffffffffffffffffffffffffffffffffffffff82169050919050565b5f610bb982610b90565b9050919050565b610bc981610baf565b8114610bd3575f80fd5b50565b5f81359050610be481610bc0565b92915050565b610bf381610a05565b8114610bfd575f80fd5b50565b5f81359050610c0e81610bea565b92915050565b5f8060408385031215610c2a57610c29610b8c565b5b5f610c3785828601610bd6565b9250506020610c4885828601610c00565b9150509250929050565b5f8115159050919050565b610c6681610c52565b82525050565b5f602082019050610c7f5f830184610c5d565b92915050565b610c8e81610a05565b82525050565b5f602082019050610ca75f830184610c85565b92915050565b5f805f60608486031215610cc457610cc3610b8c565b5b5f610cd186828701610bd6565b9350506020610ce286828701610bd6565b9250506040610cf386828701610c00565b9150509250925092565b5f60208284031215610d1257610d11610b8c565b5b5f610d1f84828501610bd6565b91505092915050565b5f60ff82169050919050565b610d3d81610d28565b82525050565b5f602082019050610d565f830184610d34565b92915050565b5f60208284031215610d7157610d70610b8c565b5b5f610d7e84828501610c00565b91505092915050565b5f8060408385031215610d9d57610d9c610b8c565b5b5f610daa85828601610bd6565b9250506020610dbb85828601610bd6565b9150509250929050565b7f4e487b71000000000000000000000000000000000000000000000000000000005f52602260045260245ffd5b5f6002820490506001821680610e0957607f821691505b602082108103610e1c57610e1b610dc5565b5b5091905056fea2646970667358221220b89522eaf2228876733382dce275b791edc9208738bd76de075a3046a137bbc264736f6c63430008140033",
					"opcodes": "PUSH1 0x80 PUSH1 0x40 MSTORE PUSH1 0x12 PUSH1 0x2 PUSH0 PUSH2 0x100 EXP DUP2 SLOAD DUP2 PUSH1 0xFF MUL NOT AND SWAP1 DUP4 PUSH1 0xFF AND MUL OR SWAP1 SSTORE POP CALLVALUE DUP1 ISZERO PUSH3 0x2B JUMPI PUSH0 DUP1 REVERT JUMPDEST POP PUSH1 0x40 MLOAD PUSH3 0x1789 CODESIZE SUB DUP1 PUSH3 0x1789 DUP4 CODECOPY DUP2 DUP2 ADD PUSH1 0x40 MSTORE DUP2 ADD SWAP1 PUSH3 0x51 SWAP2 SWAP1 PUSH3 0x329 JUMP JUMPDEST CALLER PUSH1 0x4 PUSH0 PUSH2 0x100 EXP DUP2 SLOAD DUP2 PUSH20 0xFFFFFFFFFFFFFFFFFFFFFFFFFFFFFFFFFFFFFFFF MUL NOT AND SWAP1 DUP4 PUSH20 0xFFFFFFFFFFFFFFFFFFFFFFFFFFFFFFFFFFFFFFFF AND MUL OR SWAP1 SSTORE POP DUP3 PUSH0 SWAP1 DUP2 PUSH3 0xA1 SWAP2 SWAP1 PUSH3 0x5EE JUMP JUMPDEST POP DUP2 PUSH1 0x1 SWAP1 DUP2 PUSH3 0xB3 SWAP2 SWAP1 PUSH3 0x5EE JUMP JUMPDEST POP PUSH3 0xF1 PUSH1 0x2 PUSH0 SWAP1 SLOAD SWAP1 PUSH2 0x100 EXP SWAP1 DIV PUSH1 0xFF AND PUSH1 0xFF AND PUSH1 0xA PUSH3 0xD8 SWAP2 SWAP1 PUSH3 0x84F JUMP JUMPDEST DUP3 PUSH3 0xE5 SWAP2 SWAP1 PUSH3 0x89F JUMP JUMPDEST PUSH3 0xFA PUSH1 0x20 SHL PUSH1 0x20 SHR JUMP JUMPDEST POP POP POP PUSH3 0x923 JUMP JUMPDEST DUP1 PUSH1 0x5 PUSH0 CALLER PUSH20 0xFFFFFFFFFFFFFFFFFFFFFFFFFFFFFFFFFFFFFFFF AND PUSH20 0xFFFFFFFFFFFFFFFFFFFFFFFFFFFFFFFFFFFFFFFF AND DUP2 MSTORE PUSH1 0x20 ADD SWAP1 DUP2 MSTORE PUSH1 0x20 ADD PUSH0 KECCAK256 PUSH0 DUP3 DUP3 SLOAD PUSH3 0x148 SWAP2 SWAP1 PUSH3 0x8E9 JUMP JUMPDEST SWAP3 POP POP DUP2 SWAP1 SSTORE POP DUP1 PUSH1 0x3 PUSH0 DUP3 DUP3 SLOAD PUSH3 0x162 SWAP2 SWAP1 PUSH3 0x8E9 JUMP JUMPDEST SWAP3 POP POP DUP2 SWAP1 SSTORE POP POP JUMP JUMPDEST PUSH0 PUSH1 0x40 MLOAD SWAP1 POP SWAP1 JUMP JUMPDEST PUSH0 DUP1 REVERT JUMPDEST PUSH0 DUP1 REVERT JUMPDEST PUSH0 DUP1 REVERT JUMPDEST PUSH0 DUP1 REVERT JUMPDEST PUSH0 PUSH1 0x1F NOT PUSH1 0x1F DUP4 ADD AND SWAP1 POP SWAP2 SWAP1 POP JUMP JUMPDEST PUSH32 0x4E487B7100000000000000000000000000000000000000000000000000000000 PUSH0 MSTORE PUSH1 0x41 PUSH1 0x4 MSTORE PUSH1 0x24 PUSH0 REVERT JUMPDEST PUSH3 0x1CD DUP3 PUSH3 0x185 JUMP JUMPDEST DUP2 ADD DUP2 DUP2 LT PUSH8 0xFFFFFFFFFFFFFFFF DUP3 GT OR ISZERO PUSH3 0x1EF JUMPI PUSH3 0x1EE PUSH3 0x195 JUMP JUMPDEST JUMPDEST DUP1 PUSH1 0x40 MSTORE POP POP POP JUMP JUMPDEST PUSH0 PUSH3 0x203 PUSH3 0x16C JUMP JUMPDEST SWAP1 POP PUSH3 0x211 DUP3 DUP3 PUSH3 0x1C2 JUMP JUMPDEST SWAP2 SWAP1 POP JUMP JUMPDEST PUSH0 PUSH8 0xFFFFFFFFFFFFFFFF DUP3 GT ISZERO PUSH3 0x233 JUMPI PUSH3 0x232 PUSH3 0x195 JUMP JUMPDEST JUMPDEST PUSH3 0x23E DUP3 PUSH3 0x185 JUMP JUMPDEST SWAP1 POP PUSH1 0x20 DUP2 ADD SWAP1 POP SWAP2 SWAP1 POP JUMP JUMPDEST PUSH0 JUMPDEST DUP4 DUP2 LT ISZERO PUSH3 0x26A JUMPI DUP1 DUP3 ADD MLOAD DUP2 DUP5 ADD MSTORE PUSH1 0x20 DUP2 ADD SWAP1 POP PUSH3 0x24D JUMP JUMPDEST PUSH0 DUP5 DUP5 ADD MSTORE POP POP POP POP JUMP JUMPDEST PUSH0 PUSH3 0x28B PUSH3 0x285 DUP5 PUSH3 0x216 JUMP JUMPDEST PUSH3 0x1F8 JUMP JUMPDEST SWAP1 POP DUP3 DUP2 MSTORE PUSH1 0x20 DUP2 ADD DUP5 DUP5 DUP5 ADD GT ISZERO PUSH3 0x2AA JUMPI PUSH3 0x2A9 PUSH3 0x181 JUMP JUMPDEST JUMPDEST PUSH3 0x2B7 DUP5 DUP3 DUP6 PUSH3 0x24B JUMP JUMPDEST POP SWAP4 SWAP3 POP POP POP JUMP JUMPDEST PUSH0 DUP3 PUSH1 0x1F DUP4 ADD SLT PUSH3 0x2D6 JUMPI PUSH3 0x2D5 PUSH3 0x17D JUMP JUMPDEST JUMPDEST DUP2 MLOAD PUSH3 0x2E8 DUP5 DUP3 PUSH1 0x20 DUP7 ADD PUSH3 0x275 JUMP JUMPDEST SWAP2 POP POP SWAP3 SWAP2 POP POP JUMP JUMPDEST PUSH0 DUP2 SWAP1 POP SWAP2 SWAP1 POP JUMP JUMPDEST PUSH3 0x305 DUP2 PUSH3 0x2F1 JUMP JUMPDEST DUP2 EQ PUSH3 0x310 JUMPI PUSH0 DUP1 REVERT JUMPDEST POP JUMP JUMPDEST PUSH0 DUP2 MLOAD SWAP1 POP PUSH3 0x323 DUP2 PUSH3 0x2FA JUMP JUMPDEST SWAP3 SWAP2 POP POP JUMP JUMPDEST PUSH0 DUP1 PUSH0 PUSH1 0x60 DUP5 DUP7 SUB SLT ISZERO PUSH3 0x343 JUMPI PUSH3 0x342 PUSH3 0x175 JUMP JUMPDEST JUMPDEST PUSH0 DUP5 ADD MLOAD PUSH8 0xFFFFFFFFFFFFFFFF DUP2 GT ISZERO PUSH3 0x363 JUMPI PUSH3 0x362 PUSH3 0x179 JUMP JUMPDEST JUMPDEST PUSH3 0x371 DUP7 DUP3 DUP8 ADD PUSH3 0x2BF JUMP JUMPDEST SWAP4 POP POP PUSH1 0x20 DUP5 ADD MLOAD PUSH8 0xFFFFFFFFFFFFFFFF DUP2 GT ISZERO PUSH3 0x395 JUMPI PUSH3 0x394 PUSH3 0x179 JUMP JUMPDEST JUMPDEST PUSH3 0x3A3 DUP7 DUP3 DUP8 ADD PUSH3 0x2BF JUMP JUMPDEST SWAP3 POP POP PUSH1 0x40 PUSH3 0x3B6 DUP7 DUP3 DUP8 ADD PUSH3 0x313 JUMP JUMPDEST SWAP2 POP POP SWAP3 POP SWAP3 POP SWAP3 JUMP JUMPDEST PUSH0 DUP2 MLOAD SWAP1 POP SWAP2 SWAP1 POP JUMP JUMPDEST PUSH32 0x4E487B7100000000000000000000000000000000000000000000000000000000 PUSH0 MSTORE PUSH1 0x22 PUSH1 0x4 MSTORE PUSH1 0x24 PUSH0 REVERT JUMPDEST PUSH0 PUSH1 0x2 DUP3 DIV SWAP1 POP PUSH1 0x1 DUP3 AND DUP1 PUSH3 0x40F JUMPI PUSH1 0x7F DUP3 AND SWAP2 POP JUMPDEST PUSH1 0x20 DUP3 LT DUP2 SUB PUSH3 0x425 JUMPI PUSH3 0x424 PUSH3 0x3CA JUMP JUMPDEST JUMPDEST POP SWAP2 SWAP1 POP JUMP JUMPDEST PUSH0 DUP2 SWAP1 POP DUP2 PUSH0 MSTORE PUSH1 0x20 PUSH0 KECCAK256 SWAP1 POP SWAP2 SWAP1 POP JUMP JUMPDEST PUSH0 PUSH1 0x20 PUSH1 0x1F DUP4 ADD DIV SWAP1 POP SWAP2 SWAP1 POP JUMP JUMPDEST PUSH0 DUP3 DUP3 SHL SWAP1 POP SWAP3 SWAP2 POP POP JUMP JUMPDEST PUSH0 PUSH1 0x8 DUP4 MUL PUSH3 0x489 PUSH32 0xFFFFFFFFFFFFFFFFFFFFFFFFFFFFFFFFFFFFFFFFFFFFFFFFFFFFFFFFFFFFFFFF DUP3 PUSH3 0x44C JUMP JUMPDEST PUSH3 0x495 DUP7 DUP4 PUSH3 0x44C JUMP JUMPDEST SWAP6 POP DUP1 NOT DUP5 AND SWAP4 POP DUP1 DUP7 AND DUP5 OR SWAP3 POP POP POP SWAP4 SWAP3 POP POP POP JUMP JUMPDEST PUSH0 DUP2 SWAP1 POP SWAP2 SWAP1 POP JUMP JUMPDEST PUSH0 PUSH3 0x4D6 PUSH3 0x4D0 PUSH3 0x4CA DUP5 PUSH3 0x2F1 JUMP JUMPDEST PUSH3 0x4AD JUMP JUMPDEST PUSH3 0x2F1 JUMP JUMPDEST SWAP1 POP SWAP2 SWAP1 POP JUMP JUMPDEST PUSH0 DUP2 SWAP1 POP SWAP2 SWAP1 POP JUMP JUMPDEST PUSH3 0x4F1 DUP4 PUSH3 0x4B6 JUMP JUMPDEST PUSH3 0x509 PUSH3 0x500 DUP3 PUSH3 0x4DD JUMP JUMPDEST DUP5 DUP5 SLOAD PUSH3 0x458 JUMP JUMPDEST DUP3 SSTORE POP POP POP POP JUMP JUMPDEST PUSH0 SWAP1 JUMP JUMPDEST PUSH3 0x51F PUSH3 0x511 JUMP JUMPDEST PUSH3 0x52C DUP2 DUP5 DUP5 PUSH3 0x4E6 JUMP JUMPDEST POP POP POP JUMP JUMPDEST JUMPDEST DUP2 DUP2 LT ISZERO PUSH3 0x553 JUMPI PUSH3 0x547 PUSH0 DUP3 PUSH3 0x515 JUMP JUMPDEST PUSH1 0x1 DUP2 ADD SWAP1 POP PUSH3 0x532 JUMP JUMPDEST POP POP JUMP JUMPDEST PUSH1 0x1F DUP3 GT ISZERO PUSH3 0x5A2 JUMPI PUSH3 0x56C DUP2 PUSH3 0x42B JUMP JUMPDEST PUSH3 0x577 DUP5 PUSH3 0x43D JUMP JUMPDEST DUP2 ADD PUSH1 0x20 DUP6 LT ISZERO PUSH3 0x587 JUMPI DUP2 SWAP1 POP JUMPDEST PUSH3 0x59F PUSH3 0x596 DUP6 PUSH3 0x43D JUMP JUMPDEST DUP4 ADD DUP3 PUSH3 0x531 JUMP JUMPDEST POP POP JUMPDEST POP POP POP JUMP JUMPDEST PUSH0 DUP3 DUP3 SHR SWAP1 POP SWAP3 SWAP2 POP POP JUMP JUMPDEST PUSH0 PUSH3 0x5C4 PUSH0 NOT DUP5 PUSH1 0x8 MUL PUSH3 0x5A7 JUMP JUMPDEST NOT DUP1 DUP4 AND SWAP2 POP POP SWAP3 SWAP2 POP POP JUMP JUMPDEST PUSH0 PUSH3 0x5DE DUP4 DUP4 PUSH3 0x5B3 JUMP JUMPDEST SWAP2 POP DUP3 PUSH1 0x2 MUL DUP3 OR SWAP1 POP SWAP3 SWAP2 POP POP JUMP JUMPDEST PUSH3 0x5F9 DUP3 PUSH3 0x3C0 JUMP JUMPDEST PUSH8 0xFFFFFFFFFFFFFFFF DUP2 GT ISZERO PUSH3 0x615 JUMPI PUSH3 0x614 PUSH3 0x195 JUMP JUMPDEST JUMPDEST PUSH3 0x621 DUP3 SLOAD PUSH3 0x3F7 JUMP JUMPDEST PUSH3 0x62E DUP3 DUP3 DUP6 PUSH3 0x557 JUMP JUMPDEST PUSH0 PUSH1 0x20 SWAP1 POP PUSH1 0x1F DUP4 GT PUSH1 0x1 DUP2 EQ PUSH3 0x664 JUMPI PUSH0 DUP5 ISZERO PUSH3 0x64F JUMPI DUP3 DUP8 ADD MLOAD SWAP1 POP JUMPDEST PUSH3 0x65B DUP6 DUP3 PUSH3 0x5D1 JUMP JUMPDEST DUP7 SSTORE POP PUSH3 0x6CA JUMP JUMPDEST PUSH1 0x1F NOT DUP5 AND PUSH3 0x674 DUP7 PUSH3 0x42B JUMP JUMPDEST PUSH0 JUMPDEST DUP3 DUP2 LT ISZERO PUSH3 0x69D JUMPI DUP5 DUP10 ADD MLOAD DUP3 SSTORE PUSH1 0x1 DUP3 ADD SWAP2 POP PUSH1 0x20 DUP6 ADD SWAP5 POP PUSH1 0x20 DUP2 ADD SWAP1 POP PUSH3 0x676 JUMP JUMPDEST DUP7 DUP4 LT ISZERO PUSH3 0x6BD JUMPI DUP5 DUP10 ADD MLOAD PUSH3 0x6B9 PUSH1 0x1F DUP10 AND DUP3 PUSH3 0x5B3 JUMP JUMPDEST DUP4 SSTORE POP JUMPDEST PUSH1 0x1 PUSH1 0x2 DUP9 MUL ADD DUP9 SSTORE POP POP POP JUMPDEST POP POP POP POP POP POP JUMP JUMPDEST PUSH32 0x4E487B7100000000000000000000000000000000000000000000000000000000 PUSH0 MSTORE PUSH1 0x11 PUSH1 0x4 MSTORE PUSH1 0x24 PUSH0 REVERT JUMPDEST PUSH0 DUP2 PUSH1 0x1 SHR SWAP1 POP SWAP2 SWAP1 POP JUMP JUMPDEST PUSH0 DUP1 DUP3 SWAP2 POP DUP4 SWAP1 POP JUMPDEST PUSH1 0x1 DUP6 GT ISZERO PUSH3 0x75C JUMPI DUP1 DUP7 DIV DUP2 GT ISZERO PUSH3 0x734 JUMPI PUSH3 0x733 PUSH3 0x6D2 JUMP JUMPDEST JUMPDEST PUSH1 0x1 DUP6 AND ISZERO PUSH3 0x744 JUMPI DUP1 DUP3 MUL SWAP2 POP JUMPDEST DUP1 DUP2 MUL SWAP1 POP PUSH3 0x754 DUP6 PUSH3 0x6FF JUMP JUMPDEST SWAP5 POP PUSH3 0x714 JUMP JUMPDEST SWAP5 POP SWAP5 SWAP3 POP POP POP JUMP JUMPDEST PUSH0 DUP3 PUSH3 0x776 JUMPI PUSH1 0x1 SWAP1 POP PUSH3 0x848 JUMP JUMPDEST DUP2 PUSH3 0x785 JUMPI PUSH0 SWAP1 POP PUSH3 0x848 JUMP JUMPDEST DUP2 PUSH1 0x1 DUP2 EQ PUSH3 0x79E JUMPI PUSH1 0x2 DUP2 EQ PUSH3 0x7A9 JUMPI PUSH3 0x7DF JUMP JUMPDEST PUSH1 0x1 SWAP2 POP POP PUSH3 0x848 JUMP JUMPDEST PUSH1 0xFF DUP5 GT ISZERO PUSH3 0x7BE JUMPI PUSH3 0x7BD PUSH3 0x6D2 JUMP JUMPDEST JUMPDEST DUP4 PUSH1 0x2 EXP SWAP2 POP DUP5 DUP3 GT ISZERO PUSH3 0x7D8 JUMPI PUSH3 0x7D7 PUSH3 0x6D2 JUMP JUMPDEST JUMPDEST POP PUSH3 0x848 JUMP JUMPDEST POP PUSH1 0x20 DUP4 LT PUSH2 0x133 DUP4 LT AND PUSH1 0x4E DUP5 LT PUSH1 0xB DUP5 LT AND OR ISZERO PUSH3 0x819 JUMPI DUP3 DUP3 EXP SWAP1 POP DUP4 DUP2 GT ISZERO PUSH3 0x813 JUMPI PUSH3 0x812 PUSH3 0x6D2 JUMP JUMPDEST JUMPDEST PUSH3 0x848 JUMP JUMPDEST PUSH3 0x828 DUP5 DUP5 DUP5 PUSH1 0x1 PUSH3 0x70B JUMP JUMPDEST SWAP3 POP SWAP1 POP DUP2 DUP5 DIV DUP2 GT ISZERO PUSH3 0x842 JUMPI PUSH3 0x841 PUSH3 0x6D2 JUMP JUMPDEST JUMPDEST DUP2 DUP2 MUL SWAP1 POP JUMPDEST SWAP4 SWAP3 POP POP POP JUMP JUMPDEST PUSH0 PUSH3 0x85B DUP3 PUSH3 0x2F1 JUMP JUMPDEST SWAP2 POP PUSH3 0x868 DUP4 PUSH3 0x2F1 JUMP JUMPDEST SWAP3 POP PUSH3 0x897 PUSH32 0xFFFFFFFFFFFFFFFFFFFFFFFFFFFFFFFFFFFFFFFFFFFFFFFFFFFFFFFFFFFFFFFF DUP5 DUP5 PUSH3 0x765 JUMP JUMPDEST SWAP1 POP SWAP3 SWAP2 POP POP JUMP JUMPDEST PUSH0 PUSH3 0x8AB DUP3 PUSH3 0x2F1 JUMP JUMPDEST SWAP2 POP PUSH3 0x8B8 DUP4 PUSH3 0x2F1 JUMP JUMPDEST SWAP3 POP DUP3 DUP3 MUL PUSH3 0x8C8 DUP2 PUSH3 0x2F1 JUMP JUMPDEST SWAP2 POP DUP3 DUP3 DIV DUP5 EQ DUP4 ISZERO OR PUSH3 0x8E2 JUMPI PUSH3 0x8E1 PUSH3 0x6D2 JUMP JUMPDEST JUMPDEST POP SWAP3 SWAP2 POP POP JUMP JUMPDEST PUSH0 PUSH3 0x8F5 DUP3 PUSH3 0x2F1 JUMP JUMPDEST SWAP2 POP PUSH3 0x902 DUP4 PUSH3 0x2F1 JUMP JUMPDEST SWAP3 POP DUP3 DUP3 ADD SWAP1 POP DUP1 DUP3 GT ISZERO PUSH3 0x91D JUMPI PUSH3 0x91C PUSH3 0x6D2 JUMP JUMPDEST JUMPDEST SWAP3 SWAP2 POP POP JUMP JUMPDEST PUSH2 0xE58 DUP1 PUSH3 0x931 PUSH0 CODECOPY PUSH0 RETURN INVALID PUSH1 0x80 PUSH1 0x40 MSTORE PUSH1 0x4 CALLDATASIZE LT PUSH2 0x9F JUMPI PUSH0 CALLDATALOAD PUSH1 0xE0 SHR DUP1 PUSH4 0x313CE567 GT PUSH2 0x63 JUMPI DUP1 PUSH4 0x313CE567 EQ PUSH2 0x352 JUMPI DUP1 PUSH4 0x42966C68 EQ PUSH2 0x37C JUMPI DUP1 PUSH4 0x70A08231 EQ PUSH2 0x3A4 JUMPI DUP1 PUSH4 0x95D89B41 EQ PUSH2 0x3E0 JUMPI DUP1 PUSH4 0xA9059CBB EQ PUSH2 0x40A JUMPI DUP1 PUSH4 0xDD62ED3E EQ PUSH2 0x446 JUMPI PUSH2 0x246 JUMP JUMPDEST DUP1 PUSH4 0x6FDDE03 EQ PUSH2 0x24A JUMPI DUP1 PUSH4 0x95EA7B3 EQ PUSH2 0x274 JUMPI DUP1 PUSH4 0x18160DDD EQ PUSH2 0x2B0 JUMPI DUP1 PUSH4 0x23B872DD EQ PUSH2 0x2DA JUMPI DUP1 PUSH4 0x27E235E3 EQ PUSH2 0x316 JUMPI PUSH2 0x246 JUMP JUMPDEST CALLDATASIZE PUSH2 0x246 JUMPI PUSH0 PUSH2 0x1F4 CALLVALUE PUSH2 0xB3 SWAP2 SWAP1 PUSH2 0xA3B JUMP JUMPDEST SWAP1 POP DUP1 PUSH1 0x5 PUSH0 PUSH1 0x4 PUSH0 SWAP1 SLOAD SWAP1 PUSH2 0x100 EXP SWAP1 DIV PUSH20 0xFFFFFFFFFFFFFFFFFFFFFFFFFFFFFFFFFFFFFFFF AND PUSH20 0xFFFFFFFFFFFFFFFFFFFFFFFFFFFFFFFFFFFFFFFF AND PUSH20 0xFFFFFFFFFFFFFFFFFFFFFFFFFFFFFFFFFFFFFFFF AND DUP2 MSTORE PUSH1 0x20 ADD SWAP1 DUP2 MSTORE PUSH1 0x20 ADD PUSH0 KECCAK256 SLOAD LT ISZERO PUSH2 0x11F JUMPI PUSH0 DUP1 REVERT JUMPDEST DUP1 PUSH1 0x5 PUSH0 PUSH1 0x4 PUSH0 SWAP1 SLOAD SWAP1 PUSH2 0x100 EXP SWAP1 DIV PUSH20 0xFFFFFFFFFFFFFFFFFFFFFFFFFFFFFFFFFFFFFFFF AND PUSH20 0xFFFFFFFFFFFFFFFFFFFFFFFFFFFFFFFFFFFFFFFF AND PUSH20 0xFFFFFFFFFFFFFFFFFFFFFFFFFFFFFFFFFFFFFFFF AND DUP2 MSTORE PUSH1 0x20 ADD SWAP1 DUP2 MSTORE PUSH1 0x20 ADD PUSH0 KECCAK256 PUSH0 DUP3 DUP3 SLOAD PUSH2 0x18C SWAP2 SWAP1 PUSH2 0xA7C JUMP JUMPDEST SWAP3 POP POP DUP2 SWAP1 SSTORE POP DUP1 PUSH1 0x5 PUSH0 CALLER PUSH20 0xFFFFFFFFFFFFFFFFFFFFFFFFFFFFFFFFFFFFFFFF AND PUSH20 0xFFFFFFFFFFFFFFFFFFFFFFFFFFFFFFFFFFFFFFFF AND DUP2 MSTORE PUSH1 0x20 ADD SWAP1 DUP2 MSTORE PUSH1 0x20 ADD PUSH0 KECCAK256 PUSH0 DUP3 DUP3 SLOAD PUSH2 0x1DF SWAP2 SWAP1 PUSH2 0xAAF JUMP JUMPDEST SWAP3 POP POP DUP2 SWAP1 SSTORE POP PUSH1 0x4 PUSH0 SWAP1 SLOAD SWAP1 PUSH2 0x100 EXP SWAP1 DIV PUSH20 0xFFFFFFFFFFFFFFFFFFFFFFFFFFFFFFFFFFFFFFFF AND PUSH20 0xFFFFFFFFFFFFFFFFFFFFFFFFFFFFFFFFFFFFFFFF AND CALLER PUSH20 0xFFFFFFFFFFFFFFFFFFFFFFFFFFFFFFFFFFFFFFFF AND SUB PUSH2 0x244 JUMPI PUSH2 0x243 DUP2 PUSH2 0x482 JUMP JUMPDEST JUMPDEST STOP JUMPDEST PUSH0 DUP1 REVERT JUMPDEST CALLVALUE DUP1 ISZERO PUSH2 0x255 JUMPI PUSH0 DUP1 REVERT JUMPDEST POP PUSH2 0x25E PUSH2 0x4F0 JUMP JUMPDEST PUSH1 0x40 MLOAD PUSH2 0x26B SWAP2 SWAP1 PUSH2 0xB6C JUMP JUMPDEST PUSH1 0x40 MLOAD DUP1 SWAP2 SUB SWAP1 RETURN JUMPDEST CALLVALUE DUP1 ISZERO PUSH2 0x27F JUMPI PUSH0 DUP1 REVERT JUMPDEST POP PUSH2 0x29A PUSH1 0x4 DUP1 CALLDATASIZE SUB DUP2 ADD SWAP1 PUSH2 0x295 SWAP2 SWAP1 PUSH2 0xC14 JUMP JUMPDEST PUSH2 0x57B JUMP JUMPDEST PUSH1 0x40 MLOAD PUSH2 0x2A7 SWAP2 SWAP1 PUSH2 0xC6C JUMP JUMPDEST PUSH1 0x40 MLOAD DUP1 SWAP2 SUB SWAP1 RETURN JUMPDEST CALLVALUE DUP1 ISZERO PUSH2 0x2BB JUMPI PUSH0 DUP1 REVERT JUMPDEST POP PUSH2 0x2C4 PUSH2 0x603 JUMP JUMPDEST PUSH1 0x40 MLOAD PUSH2 0x2D1 SWAP2 SWAP1 PUSH2 0xC94 JUMP JUMPDEST PUSH1 0x40 MLOAD DUP1 SWAP2 SUB SWAP1 RETURN JUMPDEST CALLVALUE DUP1 ISZERO PUSH2 0x2E5 JUMPI PUSH0 DUP1 REVERT JUMPDEST POP PUSH2 0x300 PUSH1 0x4 DUP1 CALLDATASIZE SUB DUP2 ADD SWAP1 PUSH2 0x2FB SWAP2 SWAP1 PUSH2 0xCAD JUMP JUMPDEST PUSH2 0x609 JUMP JUMPDEST PUSH1 0x40 MLOAD PUSH2 0x30D SWAP2 SWAP1 PUSH2 0xC6C JUMP JUMPDEST PUSH1 0x40 MLOAD DUP1 SWAP2 SUB SWAP1 RETURN JUMPDEST CALLVALUE DUP1 ISZERO PUSH2 0x321 JUMPI PUSH0 DUP1 REVERT JUMPDEST POP PUSH2 0x33C PUSH1 0x4 DUP1 CALLDATASIZE SUB DUP2 ADD SWAP1 PUSH2 0x337 SWAP2 SWAP1 PUSH2 0xCFD JUMP JUMPDEST PUSH2 0x7CD JUMP JUMPDEST PUSH1 0x40 MLOAD PUSH2 0x349 SWAP2 SWAP1 PUSH2 0xC94 JUMP JUMPDEST PUSH1 0x40 MLOAD DUP1 SWAP2 SUB SWAP1 RETURN JUMPDEST CALLVALUE DUP1 ISZERO PUSH2 0x35D JUMPI PUSH0 DUP1 REVERT JUMPDEST POP PUSH2 0x366 PUSH2 0x7E2 JUMP JUMPDEST PUSH1 0x40 MLOAD PUSH2 0x373 SWAP2 SWAP1 PUSH2 0xD43 JUMP JUMPDEST PUSH1 0x40 MLOAD DUP1 SWAP2 SUB SWAP1 RETURN JUMPDEST CALLVALUE DUP1 ISZERO PUSH2 0x387 JUMPI PUSH0 DUP1 REVERT JUMPDEST POP PUSH2 0x3A2 PUSH1 0x4 DUP1 CALLDATASIZE SUB DUP2 ADD SWAP1 PUSH2 0x39D SWAP2 SWAP1 PUSH2 0xD5C JUMP JUMPDEST PUSH2 0x7F4 JUMP JUMPDEST STOP JUMPDEST CALLVALUE DUP1 ISZERO PUSH2 0x3AF JUMPI PUSH0 DUP1 REVERT JUMPDEST POP PUSH2 0x3CA PUSH1 0x4 DUP1 CALLDATASIZE SUB DUP2 ADD SWAP1 PUSH2 0x3C5 SWAP2 SWAP1 PUSH2 0xCFD JUMP JUMPDEST PUSH2 0x862 JUMP JUMPDEST PUSH1 0x40 MLOAD PUSH2 0x3D7 SWAP2 SWAP1 PUSH2 0xC94 JUMP JUMPDEST PUSH1 0x40 MLOAD DUP1 SWAP2 SUB SWAP1 RETURN JUMPDEST CALLVALUE DUP1 ISZERO PUSH2 0x3EB JUMPI PUSH0 DUP1 REVERT JUMPDEST POP PUSH2 0x3F4 PUSH2 0x8A8 JUMP JUMPDEST PUSH1 0x40 MLOAD PUSH2 0x401 SWAP2 SWAP1 PUSH2 0xB6C JUMP JUMPDEST PUSH1 0x40 MLOAD DUP1 SWAP2 SUB SWAP1 RETURN JUMPDEST CALLVALUE DUP1 ISZERO PUSH2 0x415 JUMPI PUSH0 DUP1 REVERT JUMPDEST POP PUSH2 0x430 PUSH1 0x4 DUP1 CALLDATASIZE SUB DUP2 ADD SWAP1 PUSH2 0x42B SWAP2 SWAP1 PUSH2 0xC14 JUMP JUMPDEST PUSH2 0x934 JUMP JUMPDEST PUSH1 0x40 MLOAD PUSH2 0x43D SWAP2 SWAP1 PUSH2 0xC6C JUMP JUMPDEST PUSH1 0x40 MLOAD DUP1 SWAP2 SUB SWAP1 RETURN JUMPDEST CALLVALUE DUP1 ISZERO PUSH2 0x451 JUMPI PUSH0 DUP1 REVERT JUMPDEST POP PUSH2 0x46C PUSH1 0x4 DUP1 CALLDATASIZE SUB DUP2 ADD SWAP1 PUSH2 0x467 SWAP2 SWAP1 PUSH2 0xD87 JUMP JUMPDEST PUSH2 0x9E5 JUMP JUMPDEST PUSH1 0x40 MLOAD PUSH2 0x479 SWAP2 SWAP1 PUSH2 0xC94 JUMP JUMPDEST PUSH1 0x40 MLOAD DUP1 SWAP2 SUB SWAP1 RETURN JUMPDEST DUP1 PUSH1 0x5 PUSH0 CALLER PUSH20 0xFFFFFFFFFFFFFFFFFFFFFFFFFFFFFFFFFFFFFFFF AND PUSH20 0xFFFFFFFFFFFFFFFFFFFFFFFFFFFFFFFFFFFFFFFF AND DUP2 MSTORE PUSH1 0x20 ADD SWAP1 DUP2 MSTORE PUSH1 0x20 ADD PUSH0 KECCAK256 PUSH0 DUP3 DUP3 SLOAD PUSH2 0x4CE SWAP2 SWAP1 PUSH2 0xAAF JUMP JUMPDEST SWAP3 POP POP DUP2 SWAP1 SSTORE POP DUP1 PUSH1 0x3 PUSH0 DUP3 DUP3 SLOAD PUSH2 0x4E6 SWAP2 SWAP1 PUSH2 0xAAF JUMP JUMPDEST SWAP3 POP POP DUP2 SWAP1 SSTORE POP POP JUMP JUMPDEST PUSH0 DUP1 SLOAD PUSH2 0x4FC SWAP1 PUSH2 0xDF2 JUMP JUMPDEST DUP1 PUSH1 0x1F ADD PUSH1 0x20 DUP1 SWAP2 DIV MUL PUSH1 0x20 ADD PUSH1 0x40 MLOAD SWAP1 DUP2 ADD PUSH1 0x40 MSTORE DUP1 SWAP3 SWAP2 SWAP1 DUP2 DUP2 MSTORE PUSH1 0x20 ADD DUP3 DUP1 SLOAD PUSH2 0x528 SWAP1 PUSH2 0xDF2 JUMP JUMPDEST DUP1 ISZERO PUSH2 0x573 JUMPI DUP1 PUSH1 0x1F LT PUSH2 0x54A JUMPI PUSH2 0x100 DUP1 DUP4 SLOAD DIV MUL DUP4 MSTORE SWAP2 PUSH1 0x20 ADD SWAP2 PUSH2 0x573 JUMP JUMPDEST DUP3 ADD SWAP2 SWAP1 PUSH0 MSTORE PUSH1 0x20 PUSH0 KECCAK256 SWAP1 JUMPDEST DUP2 SLOAD DUP2 MSTORE SWAP1 PUSH1 0x1 ADD SWAP1 PUSH1 0x20 ADD DUP1 DUP4 GT PUSH2 0x556 JUMPI DUP3 SWAP1 SUB PUSH1 0x1F AND DUP3 ADD SWAP2 JUMPDEST POP POP POP POP POP DUP2 JUMP JUMPDEST PUSH0 DUP2 PUSH1 0x6 PUSH0 CALLER PUSH20 0xFFFFFFFFFFFFFFFFFFFFFFFFFFFFFFFFFFFFFFFF AND PUSH20 0xFFFFFFFFFFFFFFFFFFFFFFFFFFFFFFFFFFFFFFFF AND DUP2 MSTORE PUSH1 0x20 ADD SWAP1 DUP2 MSTORE PUSH1 0x20 ADD PUSH0 KECCAK256 PUSH0 DUP6 PUSH20 0xFFFFFFFFFFFFFFFFFFFFFFFFFFFFFFFFFFFFFFFF AND PUSH20 0xFFFFFFFFFFFFFFFFFFFFFFFFFFFFFFFFFFFFFFFF AND DUP2 MSTORE PUSH1 0x20 ADD SWAP1 DUP2 MSTORE PUSH1 0x20 ADD PUSH0 KECCAK256 DUP2 SWAP1 SSTORE POP PUSH1 0x1 SWAP1 POP SWAP3 SWAP2 POP POP JUMP JUMPDEST PUSH1 0x3 SLOAD DUP2 JUMP JUMPDEST PUSH0 DUP2 PUSH1 0x6 PUSH0 DUP7 PUSH20 0xFFFFFFFFFFFFFFFFFFFFFFFFFFFFFFFFFFFFFFFF AND PUSH20 0xFFFFFFFFFFFFFFFFFFFFFFFFFFFFFFFFFFFFFFFF AND DUP2 MSTORE PUSH1 0x20 ADD SWAP1 DUP2 MSTORE PUSH1 0x20 ADD PUSH0 KECCAK256 PUSH0 CALLER PUSH20 0xFFFFFFFFFFFFFFFFFFFFFFFFFFFFFFFFFFFFFFFF AND PUSH20 0xFFFFFFFFFFFFFFFFFFFFFFFFFFFFFFFFFFFFFFFF AND DUP2 MSTORE PUSH1 0x20 ADD SWAP1 DUP2 MSTORE PUSH1 0x20 ADD PUSH0 KECCAK256 SLOAD LT ISZERO PUSH2 0x68E JUMPI PUSH0 DUP1 REVERT JUMPDEST DUP2 PUSH1 0x6 PUSH0 DUP7 PUSH20 0xFFFFFFFFFFFFFFFFFFFFFFFFFFFFFFFFFFFFFFFF AND PUSH20 0xFFFFFFFFFFFFFFFFFFFFFFFFFFFFFFFFFFFFFFFF AND DUP2 MSTORE PUSH1 0x20 ADD SWAP1 DUP2 MSTORE PUSH1 0x20 ADD PUSH0 KECCAK256 PUSH0 CALLER PUSH20 0xFFFFFFFFFFFFFFFFFFFFFFFFFFFFFFFFFFFFFFFF AND PUSH20 0xFFFFFFFFFFFFFFFFFFFFFFFFFFFFFFFFFFFFFFFF AND DUP2 MSTORE PUSH1 0x20 ADD SWAP1 DUP2 MSTORE PUSH1 0x20 ADD PUSH0 KECCAK256 PUSH0 DUP3 DUP3 SLOAD PUSH2 0x715 SWAP2 SWAP1 PUSH2 0xA7C JUMP JUMPDEST SWAP3 POP POP DUP2 SWAP1 SSTORE POP DUP2 PUSH1 0x5 PUSH0 DUP7 PUSH20 0xFFFFFFFFFFFFFFFFFFFFFFFFFFFFFFFFFFFFFFFF AND PUSH20 0xFFFFFFFFFFFFFFFFFFFFFFFFFFFFFFFFFFFFFFFF AND DUP2 MSTORE PUSH1 0x20 ADD SWAP1 DUP2 MSTORE PUSH1 0x20 ADD PUSH0 KECCAK256 PUSH0 DUP3 DUP3 SLOAD PUSH2 0x768 SWAP2 SWAP1 PUSH2 0xA7C JUMP JUMPDEST SWAP3 POP POP DUP2 SWAP1 SSTORE POP DUP2 PUSH1 0x5 PUSH0 DUP6 PUSH20 0xFFFFFFFFFFFFFFFFFFFFFFFFFFFFFFFFFFFFFFFF AND PUSH20 0xFFFFFFFFFFFFFFFFFFFFFFFFFFFFFFFFFFFFFFFF AND DUP2 MSTORE PUSH1 0x20 ADD SWAP1 DUP2 MSTORE PUSH1 0x20 ADD PUSH0 KECCAK256 PUSH0 DUP3 DUP3 SLOAD PUSH2 0x7BB SWAP2 SWAP1 PUSH2 0xAAF JUMP JUMPDEST SWAP3 POP POP DUP2 SWAP1 SSTORE POP PUSH1 0x1 SWAP1 POP SWAP4 SWAP3 POP POP POP JUMP JUMPDEST PUSH1 0x5 PUSH1 0x20 MSTORE DUP1 PUSH0 MSTORE PUSH1 0x40 PUSH0 KECCAK256 PUSH0 SWAP2 POP SWAP1 POP SLOAD DUP2 JUMP JUMPDEST PUSH1 0x2 PUSH0 SWAP1 SLOAD SWAP1 PUSH2 0x100 EXP SWAP1 DIV PUSH1 0xFF AND DUP2 JUMP JUMPDEST DUP1 PUSH1 0x5 PUSH0 CALLER PUSH20 0xFFFFFFFFFFFFFFFFFFFFFFFFFFFFFFFFFFFFFFFF AND PUSH20 0xFFFFFFFFFFFFFFFFFFFFFFFFFFFFFFFFFFFFFFFF AND DUP2 MSTORE PUSH1 0x20 ADD SWAP1 DUP2 MSTORE PUSH1 0x20 ADD PUSH0 KECCAK256 PUSH0 DUP3 DUP3 SLOAD PUSH2 0x840 SWAP2 SWAP1 PUSH2 0xA7C JUMP JUMPDEST SWAP3 POP POP DUP2 SWAP1 SSTORE POP DUP1 PUSH1 0x3 PUSH0 DUP3 DUP3 SLOAD PUSH2 0x858 SWAP2 SWAP1 PUSH2 0xA7C JUMP JUMPDEST SWAP3 POP POP DUP2 SWAP1 SSTORE POP POP JUMP JUMPDEST PUSH0 PUSH1 0x5 PUSH0 DUP4 PUSH20 0xFFFFFFFFFFFFFFFFFFFFFFFFFFFFFFFFFFFFFFFF AND PUSH20 0xFFFFFFFFFFFFFFFFFFFFFFFFFFFFFFFFFFFFFFFF AND DUP2 MSTORE PUSH1 0x20 ADD SWAP1 DUP2 MSTORE PUSH1 0x20 ADD PUSH0 KECCAK256 SLOAD SWAP1 POP SWAP2 SWAP1 POP JUMP JUMPDEST PUSH1 0x1 DUP1 SLOAD PUSH2 0x8B5 SWAP1 PUSH2 0xDF2 JUMP JUMPDEST DUP1 PUSH1 0x1F ADD PUSH1 0x20 DUP1 SWAP2 DIV MUL PUSH1 0x20 ADD PUSH1 0x40 MLOAD SWAP1 DUP2 ADD PUSH1 0x40 MSTORE DUP1 SWAP3 SWAP2 SWAP1 DUP2 DUP2 MSTORE PUSH1 0x20 ADD DUP3 DUP1 SLOAD PUSH2 0x8E1 SWAP1 PUSH2 0xDF2 JUMP JUMPDEST DUP1 ISZERO PUSH2 0x92C JUMPI DUP1 PUSH1 0x1F LT PUSH2 0x903 JUMPI PUSH2 0x100 DUP1 DUP4 SLOAD DIV MUL DUP4 MSTORE SWAP2 PUSH1 0x20 ADD SWAP2 PUSH2 0x92C JUMP JUMPDEST DUP3 ADD SWAP2 SWAP1 PUSH0 MSTORE PUSH1 0x20 PUSH0 KECCAK256 SWAP1 JUMPDEST DUP2 SLOAD DUP2 MSTORE SWAP1 PUSH1 0x1 ADD SWAP1 PUSH1 0x20 ADD DUP1 DUP4 GT PUSH2 0x90F JUMPI DUP3 SWAP1 SUB PUSH1 0x1F AND DUP3 ADD SWAP2 JUMPDEST POP POP POP POP POP DUP2 JUMP JUMPDEST PUSH0 DUP2 PUSH1 0x5 PUSH0 CALLER PUSH20 0xFFFFFFFFFFFFFFFFFFFFFFFFFFFFFFFFFFFFFFFF AND PUSH20 0xFFFFFFFFFFFFFFFFFFFFFFFFFFFFFFFFFFFFFFFF AND DUP2 MSTORE PUSH1 0x20 ADD SWAP1 DUP2 MSTORE PUSH1 0x20 ADD PUSH0 KECCAK256 PUSH0 DUP3 DUP3 SLOAD PUSH2 0x981 SWAP2 SWAP1 PUSH2 0xA7C JUMP JUMPDEST SWAP3 POP POP DUP2 SWAP1 SSTORE POP DUP2 PUSH1 0x5 PUSH0 DUP6 PUSH20 0xFFFFFFFFFFFFFFFFFFFFFFFFFFFFFFFFFFFFFFFF AND PUSH20 0xFFFFFFFFFFFFFFFFFFFFFFFFFFFFFFFFFFFFFFFF AND DUP2 MSTORE PUSH1 0x20 ADD SWAP1 DUP2 MSTORE PUSH1 0x20 ADD PUSH0 KECCAK256 PUSH0 DUP3 DUP3 SLOAD PUSH2 0x9D4 SWAP2 SWAP1 PUSH2 0xAAF JUMP JUMPDEST SWAP3 POP POP DUP2 SWAP1 SSTORE POP PUSH1 0x1 SWAP1 POP SWAP3 SWAP2 POP POP JUMP JUMPDEST PUSH1 0x6 PUSH1 0x20 MSTORE DUP2 PUSH0 MSTORE PUSH1 0x40 PUSH0 KECCAK256 PUSH1 0x20 MSTORE DUP1 PUSH0 MSTORE PUSH1 0x40 PUSH0 KECCAK256 PUSH0 SWAP2 POP SWAP2 POP POP SLOAD DUP2 JUMP JUMPDEST PUSH0 DUP2 SWAP1 POP SWAP2 SWAP1 POP JUMP JUMPDEST PUSH32 0x4E487B7100000000000000000000000000000000000000000000000000000000 PUSH0 MSTORE PUSH1 0x11 PUSH1 0x4 MSTORE PUSH1 0x24 PUSH0 REVERT JUMPDEST PUSH0 PUSH2 0xA45 DUP3 PUSH2 0xA05 JUMP JUMPDEST SWAP2 POP PUSH2 0xA50 DUP4 PUSH2 0xA05 JUMP JUMPDEST SWAP3 POP DUP3 DUP3 MUL PUSH2 0xA5E DUP2 PUSH2 0xA05 JUMP JUMPDEST SWAP2 POP DUP3 DUP3 DIV DUP5 EQ DUP4 ISZERO OR PUSH2 0xA75 JUMPI PUSH2 0xA74 PUSH2 0xA0E JUMP JUMPDEST JUMPDEST POP SWAP3 SWAP2 POP POP JUMP JUMPDEST PUSH0 PUSH2 0xA86 DUP3 PUSH2 0xA05 JUMP JUMPDEST SWAP2 POP PUSH2 0xA91 DUP4 PUSH2 0xA05 JUMP JUMPDEST SWAP3 POP DUP3 DUP3 SUB SWAP1 POP DUP2 DUP2 GT ISZERO PUSH2 0xAA9 JUMPI PUSH2 0xAA8 PUSH2 0xA0E JUMP JUMPDEST JUMPDEST SWAP3 SWAP2 POP POP JUMP JUMPDEST PUSH0 PUSH2 0xAB9 DUP3 PUSH2 0xA05 JUMP JUMPDEST SWAP2 POP PUSH2 0xAC4 DUP4 PUSH2 0xA05 JUMP JUMPDEST SWAP3 POP DUP3 DUP3 ADD SWAP1 POP DUP1 DUP3 GT ISZERO PUSH2 0xADC JUMPI PUSH2 0xADB PUSH2 0xA0E JUMP JUMPDEST JUMPDEST SWAP3 SWAP2 POP POP JUMP JUMPDEST PUSH0 DUP2 MLOAD SWAP1 POP SWAP2 SWAP1 POP JUMP JUMPDEST PUSH0 DUP3 DUP3 MSTORE PUSH1 0x20 DUP3 ADD SWAP1 POP SWAP3 SWAP2 POP POP JUMP JUMPDEST PUSH0 JUMPDEST DUP4 DUP2 LT ISZERO PUSH2 0xB19 JUMPI DUP1 DUP3 ADD MLOAD DUP2 DUP5 ADD MSTORE PUSH1 0x20 DUP2 ADD SWAP1 POP PUSH2 0xAFE JUMP JUMPDEST PUSH0 DUP5 DUP5 ADD MSTORE POP POP POP POP JUMP JUMPDEST PUSH0 PUSH1 0x1F NOT PUSH1 0x1F DUP4 ADD AND SWAP1 POP SWAP2 SWAP1 POP JUMP JUMPDEST PUSH0 PUSH2 0xB3E DUP3 PUSH2 0xAE2 JUMP JUMPDEST PUSH2 0xB48 DUP2 DUP6 PUSH2 0xAEC JUMP JUMPDEST SWAP4 POP PUSH2 0xB58 DUP2 DUP6 PUSH1 0x20 DUP7 ADD PUSH2 0xAFC JUMP JUMPDEST PUSH2 0xB61 DUP2 PUSH2 0xB24 JUMP JUMPDEST DUP5 ADD SWAP2 POP POP SWAP3 SWAP2 POP POP JUMP JUMPDEST PUSH0 PUSH1 0x20 DUP3 ADD SWAP1 POP DUP2 DUP2 SUB PUSH0 DUP4 ADD MSTORE PUSH2 0xB84 DUP2 DUP5 PUSH2 0xB34 JUMP JUMPDEST SWAP1 POP SWAP3 SWAP2 POP POP JUMP JUMPDEST PUSH0 DUP1 REVERT JUMPDEST PUSH0 PUSH20 0xFFFFFFFFFFFFFFFFFFFFFFFFFFFFFFFFFFFFFFFF DUP3 AND SWAP1 POP SWAP2 SWAP1 POP JUMP JUMPDEST PUSH0 PUSH2 0xBB9 DUP3 PUSH2 0xB90 JUMP JUMPDEST SWAP1 POP SWAP2 SWAP1 POP JUMP JUMPDEST PUSH2 0xBC9 DUP2 PUSH2 0xBAF JUMP JUMPDEST DUP2 EQ PUSH2 0xBD3 JUMPI PUSH0 DUP1 REVERT JUMPDEST POP JUMP JUMPDEST PUSH0 DUP2 CALLDATALOAD SWAP1 POP PUSH2 0xBE4 DUP2 PUSH2 0xBC0 JUMP JUMPDEST SWAP3 SWAP2 POP POP JUMP JUMPDEST PUSH2 0xBF3 DUP2 PUSH2 0xA05 JUMP JUMPDEST DUP2 EQ PUSH2 0xBFD JUMPI PUSH0 DUP1 REVERT JUMPDEST POP JUMP JUMPDEST PUSH0 DUP2 CALLDATALOAD SWAP1 POP PUSH2 0xC0E DUP2 PUSH2 0xBEA JUMP JUMPDEST SWAP3 SWAP2 POP POP JUMP JUMPDEST PUSH0 DUP1 PUSH1 0x40 DUP4 DUP6 SUB SLT ISZERO PUSH2 0xC2A JUMPI PUSH2 0xC29 PUSH2 0xB8C JUMP JUMPDEST JUMPDEST PUSH0 PUSH2 0xC37 DUP6 DUP3 DUP7 ADD PUSH2 0xBD6 JUMP JUMPDEST SWAP3 POP POP PUSH1 0x20 PUSH2 0xC48 DUP6 DUP3 DUP7 ADD PUSH2 0xC00 JUMP JUMPDEST SWAP2 POP POP SWAP3 POP SWAP3 SWAP1 POP JUMP JUMPDEST PUSH0 DUP2 ISZERO ISZERO SWAP1 POP SWAP2 SWAP1 POP JUMP JUMPDEST PUSH2 0xC66 DUP2 PUSH2 0xC52 JUMP JUMPDEST DUP3 MSTORE POP POP JUMP JUMPDEST PUSH0 PUSH1 0x20 DUP3 ADD SWAP1 POP PUSH2 0xC7F PUSH0 DUP4 ADD DUP5 PUSH2 0xC5D JUMP JUMPDEST SWAP3 SWAP2 POP POP JUMP JUMPDEST PUSH2 0xC8E DUP2 PUSH2 0xA05 JUMP JUMPDEST DUP3 MSTORE POP POP JUMP JUMPDEST PUSH0 PUSH1 0x20 DUP3 ADD SWAP1 POP PUSH2 0xCA7 PUSH0 DUP4 ADD DUP5 PUSH2 0xC85 JUMP JUMPDEST SWAP3 SWAP2 POP POP JUMP JUMPDEST PUSH0 DUP1 PUSH0 PUSH1 0x60 DUP5 DUP7 SUB SLT ISZERO PUSH2 0xCC4 JUMPI PUSH2 0xCC3 PUSH2 0xB8C JUMP JUMPDEST JUMPDEST PUSH0 PUSH2 0xCD1 DUP7 DUP3 DUP8 ADD PUSH2 0xBD6 JUMP JUMPDEST SWAP4 POP POP PUSH1 0x20 PUSH2 0xCE2 DUP7 DUP3 DUP8 ADD PUSH2 0xBD6 JUMP JUMPDEST SWAP3 POP POP PUSH1 0x40 PUSH2 0xCF3 DUP7 DUP3 DUP8 ADD PUSH2 0xC00 JUMP JUMPDEST SWAP2 POP POP SWAP3 POP SWAP3 POP SWAP3 JUMP JUMPDEST PUSH0 PUSH1 0x20 DUP3 DUP5 SUB SLT ISZERO PUSH2 0xD12 JUMPI PUSH2 0xD11 PUSH2 0xB8C JUMP JUMPDEST JUMPDEST PUSH0 PUSH2 0xD1F DUP5 DUP3 DUP6 ADD PUSH2 0xBD6 JUMP JUMPDEST SWAP2 POP POP SWAP3 SWAP2 POP POP JUMP JUMPDEST PUSH0 PUSH1 0xFF DUP3 AND SWAP1 POP SWAP2 SWAP1 POP JUMP JUMPDEST PUSH2 0xD3D DUP2 PUSH2 0xD28 JUMP JUMPDEST DUP3 MSTORE POP POP JUMP JUMPDEST PUSH0 PUSH1 0x20 DUP3 ADD SWAP1 POP PUSH2 0xD56 PUSH0 DUP4 ADD DUP5 PUSH2 0xD34 JUMP JUMPDEST SWAP3 SWAP2 POP POP JUMP JUMPDEST PUSH0 PUSH1 0x20 DUP3 DUP5 SUB SLT ISZERO PUSH2 0xD71 JUMPI PUSH2 0xD70 PUSH2 0xB8C JUMP JUMPDEST JUMPDEST PUSH0 PUSH2 0xD7E DUP5 DUP3 DUP6 ADD PUSH2 0xC00 JUMP JUMPDEST SWAP2 POP POP SWAP3 SWAP2 POP POP JUMP JUMPDEST PUSH0 DUP1 PUSH1 0x40 DUP4 DUP6 SUB SLT ISZERO PUSH2 0xD9D JUMPI PUSH2 0xD9C PUSH2 0xB8C JUMP JUMPDEST JUMPDEST PUSH0 PUSH2 0xDAA DUP6 DUP3 DUP7 ADD PUSH2 0xBD6 JUMP JUMPDEST SWAP3 POP POP PUSH1 0x20 PUSH2 0xDBB DUP6 DUP3 DUP7 ADD PUSH2 0xBD6 JUMP JUMPDEST SWAP2 POP POP SWAP3 POP SWAP3 SWAP1 POP JUMP JUMPDEST PUSH32 0x4E487B7100000000000000000000000000000000000000000000000000000000 PUSH0 MSTORE PUSH1 0x22 PUSH1 0x4 MSTORE PUSH1 0x24 PUSH0 REVERT JUMPDEST PUSH0 PUSH1 0x2 DUP3 DIV SWAP1 POP PUSH1 0x1 DUP3 AND DUP1 PUSH2 0xE09 JUMPI PUSH1 0x7F DUP3 AND SWAP2 POP JUMPDEST PUSH1 0x20 DUP3 LT DUP2 SUB PUSH2 0xE1C JUMPI PUSH2 0xE1B PUSH2 0xDC5 JUMP JUMPDEST JUMPDEST POP SWAP2 SWAP1 POP JUMP INVALID LOG2 PUSH5 0x6970667358 0x22 SLT KECCAK256 0xB8 SWAP6 0x22 0xEA CALLCODE 0x22 DUP9 PUSH23 0x733382DCE275B791EDC9208738BD76DE075A3046A137BB 0xC2 PUSH5 0x736F6C6343 STOP ADDMOD EQ STOP CALLER "
				},
				"gasEstimates": {
					"creation": {
						"codeDepositCost": "734400",
						"executionCost": "infinite",
						"totalCost": "infinite"
					},
					"external": {
						"allowance(address,address)": "infinite",
						"approve(address,uint256)": "23130",
						"balanceOf(address)": "2873",
						"balances(address)": "2891",
						"burn(uint256)": "infinite",
						"decimals()": "2466",
						"name()": "infinite",
						"symbol()": "infinite",
						"totalSupply()": "2470",
						"transfer(address,uint256)": "infinite",
						"transferFrom(address,address,uint256)": "infinite"
					},
					"internal": {
						"mint(uint256)": "infinite"
					}
				},
				"methodIdentifiers": {
					"allowance(address,address)": "dd62ed3e",
					"approve(address,uint256)": "095ea7b3",
					"balanceOf(address)": "70a08231",
					"balances(address)": "27e235e3",
					"burn(uint256)": "42966c68",
					"decimals()": "313ce567",
					"name()": "06fdde03",
					"symbol()": "95d89b41",
					"totalSupply()": "18160ddd",
					"transfer(address,uint256)": "a9059cbb",
					"transferFrom(address,address,uint256)": "23b872dd"
				}
			},
			"storageLayout": {
				"storage": [
					{
						"astId": 6,
						"contract": "ERC20.sol:ERC20",
						"label": "name",
						"offset": 0,
						"slot": "0",
						"type": "t_string_storage"
					},
					{
						"astId": 8,
						"contract": "ERC20.sol:ERC20",
						"label": "symbol",
						"offset": 0,
						"slot": "1",
						"type": "t_string_storage"
					},
					{
						"astId": 11,
						"contract": "ERC20.sol:ERC20",
						"label": "decimals",
						"offset": 0,
						"slot": "2",
						"type": "t_uint8"
					},
					{
						"astId": 14,
						"contract": "ERC20.sol:ERC20",
						"label": "totalSupply",
						"offset": 0,
						"slot": "3",
						"type": "t_uint256"
					},
					{
						"astId": 16,
						"contract": "ERC20.sol:ERC20",
						"label": "owner",
						"offset": 0,
						"slot": "4",
						"type": "t_address"
					},
					{
						"astId": 20,
						"contract": "ERC20.sol:ERC20",
						"label": "balances",
						"offset": 0,
						"slot": "5",
						"type": "t_mapping(t_address,t_uint256)"
					},
					{
						"astId": 27,
						"contract": "ERC20.sol:ERC20",
						"label": "allowance",
						"offset": 0,
						"slot": "6",
						"type": "t_mapping(t_address,t_mapping(t_address,t_uint256))"
					}
				],
				"types": {
					"t_address": {
						"encoding": "inplace",
						"label": "address",
						"numberOfBytes": "20"
					},
					"t_mapping(t_address,t_mapping(t_address,t_uint256))": {
						"encoding": "mapping",
						"key": "t_address",
						"label": "mapping(address => mapping(address => uint256))",
						"numberOfBytes": "32",
						"value": "t_mapping(t_address,t_uint256)"
					},
					"t_mapping(t_address,t_uint256)": {
						"encoding": "mapping",
						"key": "t_address",
						"label": "mapping(address => uint256)",
						"numberOfBytes": "32",
						"value": "t_uint256"
					},
					"t_string_storage": {
						"encoding": "bytes",
						"label": "string",
						"numberOfBytes": "32"
					},
					"t_uint256": {
						"encoding": "inplace",
						"label": "uint256",
						"numberOfBytes": "32"
					},
					"t_uint8": {
						"encoding": "inplace",
						"label": "uint8",
						"numberOfBytes": "1"
					}
				}
			},
			"userdoc": {
				"kind": "user",
				"methods": {},
				"version": 1
			}
		}
	}
}