{
	"Shop.sol": {
		"Shop": {
			"abi": [
				{
					"inputs": [],
					"stateMutability": "nonpayable",
					"type": "constructor"
				},
				{
					"inputs": [
						{
							"internalType": "address",
							"name": "spender",
							"type": "address"
						},
						{
							"internalType": "uint256",
							"name": "allowance",
							"type": "uint256"
						},
						{
							"internalType": "uint256",
							"name": "needed",
							"type": "uint256"
						}
					],
					"name": "ERC20InsufficientAllowance",
					"type": "error"
				},
				{
					"inputs": [
						{
							"internalType": "address",
							"name": "sender",
							"type": "address"
						},
						{
							"internalType": "uint256",
							"name": "balance",
							"type": "uint256"
						},
						{
							"internalType": "uint256",
							"name": "needed",
							"type": "uint256"
						}
					],
					"name": "ERC20InsufficientBalance",
					"type": "error"
				},
				{
					"inputs": [
						{
							"internalType": "address",
							"name": "approver",
							"type": "address"
						}
					],
					"name": "ERC20InvalidApprover",
					"type": "error"
				},
				{
					"inputs": [
						{
							"internalType": "address",
							"name": "receiver",
							"type": "address"
						}
					],
					"name": "ERC20InvalidReceiver",
					"type": "error"
				},
				{
					"inputs": [
						{
							"internalType": "address",
							"name": "sender",
							"type": "address"
						}
					],
					"name": "ERC20InvalidSender",
					"type": "error"
				},
				{
					"inputs": [
						{
							"internalType": "address",
							"name": "spender",
							"type": "address"
						}
					],
					"name": "ERC20InvalidSpender",
					"type": "error"
				},
				{
					"anonymous": false,
					"inputs": [
						{
							"indexed": true,
							"internalType": "address",
							"name": "owner",
							"type": "address"
						},
						{
							"indexed": true,
							"internalType": "address",
							"name": "spender",
							"type": "address"
						},
						{
							"indexed": false,
							"internalType": "uint256",
							"name": "value",
							"type": "uint256"
						}
					],
					"name": "Approval",
					"type": "event"
				},
				{
					"anonymous": false,
					"inputs": [
						{
							"indexed": true,
							"internalType": "address",
							"name": "from",
							"type": "address"
						},
						{
							"indexed": true,
							"internalType": "address",
							"name": "to",
							"type": "address"
						},
						{
							"indexed": false,
							"internalType": "uint256",
							"name": "value",
							"type": "uint256"
						}
					],
					"name": "Transfer",
					"type": "event"
				},
				{
					"inputs": [
						{
							"internalType": "address",
							"name": "owner",
							"type": "address"
						},
						{
							"internalType": "address",
							"name": "spender",
							"type": "address"
						}
					],
					"name": "allowance",
					"outputs": [
						{
							"internalType": "uint256",
							"name": "",
							"type": "uint256"
						}
					],
					"stateMutability": "view",
					"type": "function"
				},
				{
					"inputs": [
						{
							"internalType": "address",
							"name": "spender",
							"type": "address"
						},
						{
							"internalType": "uint256",
							"name": "value",
							"type": "uint256"
						}
					],
					"name": "approve",
					"outputs": [
						{
							"internalType": "bool",
							"name": "",
							"type": "bool"
						}
					],
					"stateMutability": "nonpayable",
					"type": "function"
				},
				{
					"inputs": [
						{
							"internalType": "address",
							"name": "account",
							"type": "address"
						}
					],
					"name": "balanceOf",
					"outputs": [
						{
							"internalType": "uint256",
							"name": "",
							"type": "uint256"
						}
					],
					"stateMutability": "view",
					"type": "function"
				},
				{
					"inputs": [
						{
							"internalType": "uint256",
							"name": "id",
							"type": "uint256"
						}
					],
					"name": "buyProduct",
					"outputs": [
						{
							"internalType": "bool",
							"name": "",
							"type": "bool"
						}
					],
					"stateMutability": "nonpayable",
					"type": "function"
				},
				{
					"inputs": [],
					"name": "decimals",
					"outputs": [
						{
							"internalType": "uint8",
							"name": "",
							"type": "uint8"
						}
					],
					"stateMutability": "view",
					"type": "function"
				},
				{
					"inputs": [],
					"name": "getProducts",
					"outputs": [
						{
							"components": [
								{
									"internalType": "uint256",
									"name": "id",
									"type": "uint256"
								},
								{
									"internalType": "string",
									"name": "name",
									"type": "string"
								},
								{
									"internalType": "uint256",
									"name": "price",
									"type": "uint256"
								}
							],
							"internalType": "struct Shop.Product[]",
							"name": "",
							"type": "tuple[]"
						}
					],
					"stateMutability": "view",
					"type": "function"
				},
				{
					"inputs": [],
					"name": "getUserProducts",
					"outputs": [
						{
							"components": [
								{
									"internalType": "uint256",
									"name": "id",
									"type": "uint256"
								},
								{
									"internalType": "string",
									"name": "name",
									"type": "string"
								},
								{
									"internalType": "uint256",
									"name": "price",
									"type": "uint256"
								}
							],
							"internalType": "struct Shop.Product[]",
							"name": "",
							"type": "tuple[]"
						}
					],
					"stateMutability": "view",
					"type": "function"
				},
				{
					"inputs": [],
					"name": "name",
					"outputs": [
						{
							"internalType": "string",
							"name": "",
							"type": "string"
						}
					],
					"stateMutability": "view",
					"type": "function"
				},
				{
					"inputs": [
						{
							"internalType": "uint256",
							"name": "",
							"type": "uint256"
						}
					],
					"name": "products",
					"outputs": [
						{
							"internalType": "uint256",
							"name": "id",
							"type": "uint256"
						},
						{
							"internalType": "string",
							"name": "name",
							"type": "string"
						},
						{
							"internalType": "uint256",
							"name": "price",
							"type": "uint256"
						}
					],
					"stateMutability": "view",
					"type": "function"
				},
				{
					"inputs": [
						{
							"internalType": "string",
							"name": "_name",
							"type": "string"
						},
						{
							"internalType": "uint256",
							"name": "_price",
							"type": "uint256"
						}
					],
					"name": "registerProduct",
					"outputs": [
						{
							"internalType": "bool",
							"name": "",
							"type": "bool"
						}
					],
					"stateMutability": "nonpayable",
					"type": "function"
				},
				{
					"inputs": [],
					"name": "symbol",
					"outputs": [
						{
							"internalType": "string",
							"name": "",
							"type": "string"
						}
					],
					"stateMutability": "view",
					"type": "function"
				},
				{
					"inputs": [],
					"name": "totalSupply",
					"outputs": [
						{
							"internalType": "uint256",
							"name": "",
							"type": "uint256"
						}
					],
					"stateMutability": "view",
					"type": "function"
				},
				{
					"inputs": [
						{
							"internalType": "address",
							"name": "to",
							"type": "address"
						},
						{
							"internalType": "uint256",
							"name": "value",
							"type": "uint256"
						}
					],
					"name": "transfer",
					"outputs": [
						{
							"internalType": "bool",
							"name": "",
							"type": "bool"
						}
					],
					"stateMutability": "nonpayable",
					"type": "function"
				},
				{
					"inputs": [
						{
							"internalType": "address",
							"name": "from",
							"type": "address"
						},
						{
							"internalType": "address",
							"name": "to",
							"type": "address"
						},
						{
							"internalType": "uint256",
							"name": "value",
							"type": "uint256"
						}
					],
					"name": "transferFrom",
					"outputs": [
						{
							"internalType": "bool",
							"name": "",
							"type": "bool"
						}
					],
					"stateMutability": "nonpayable",
					"type": "function"
				},
				{
					"stateMutability": "payable",
					"type": "receive"
				}
			],
			"devdoc": {
				"errors": {
					"ERC20InsufficientAllowance(address,uint256,uint256)": [
						{
							"details": "Indicates a failure with the `spender`’s `allowance`. Used in transfers.",
							"params": {
								"allowance": "Amount of tokens a `spender` is allowed to operate with.",
								"needed": "Minimum amount required to perform a transfer.",
								"spender": "Address that may be allowed to operate on tokens without being their owner."
							}
						}
					],
					"ERC20InsufficientBalance(address,uint256,uint256)": [
						{
							"details": "Indicates an error related to the current `balance` of a `sender`. Used in transfers.",
							"params": {
								"balance": "Current balance for the interacting account.",
								"needed": "Minimum amount required to perform a transfer.",
								"sender": "Address whose tokens are being transferred."
							}
						}
					],
					"ERC20InvalidApprover(address)": [
						{
							"details": "Indicates a failure with the `approver` of a token to be approved. Used in approvals.",
							"params": {
								"approver": "Address initiating an approval operation."
							}
						}
					],
					"ERC20InvalidReceiver(address)": [
						{
							"details": "Indicates a failure with the token `receiver`. Used in transfers.",
							"params": {
								"receiver": "Address to which tokens are being transferred."
							}
						}
					],
					"ERC20InvalidSender(address)": [
						{
							"details": "Indicates a failure with the token `sender`. Used in transfers.",
							"params": {
								"sender": "Address whose tokens are being transferred."
							}
						}
					],
					"ERC20InvalidSpender(address)": [
						{
							"details": "Indicates a failure with the `spender` to be approved. Used in approvals.",
							"params": {
								"spender": "Address that may be allowed to operate on tokens without being their owner."
							}
						}
					]
				},
				"events": {
					"Approval(address,address,uint256)": {
						"details": "Emitted when the allowance of a `spender` for an `owner` is set by a call to {approve}. `value` is the new allowance."
					},
					"Transfer(address,address,uint256)": {
						"details": "Emitted when `value` tokens are moved from one account (`from`) to another (`to`). Note that `value` may be zero."
					}
				},
				"kind": "dev",
				"methods": {
					"allowance(address,address)": {
						"details": "See {IERC20-allowance}."
					},
					"approve(address,uint256)": {
						"details": "See {IERC20-approve}. NOTE: If `value` is the maximum `uint256`, the allowance is not updated on `transferFrom`. This is semantically equivalent to an infinite approval. Requirements: - `spender` cannot be the zero address."
					},
					"balanceOf(address)": {
						"details": "See {IERC20-balanceOf}."
					},
					"decimals()": {
						"details": "Returns the number of decimals used to get its user representation. For example, if `decimals` equals `2`, a balance of `505` tokens should be displayed to a user as `5.05` (`505 / 10 ** 2`). Tokens usually opt for a value of 18, imitating the relationship between Ether and Wei. This is the default value returned by this function, unless it's overridden. NOTE: This information is only used for _display_ purposes: it in no way affects any of the arithmetic of the contract, including {IERC20-balanceOf} and {IERC20-transfer}."
					},
					"name()": {
						"details": "Returns the name of the token."
					},
					"symbol()": {
						"details": "Returns the symbol of the token, usually a shorter version of the name."
					},
					"totalSupply()": {
						"details": "See {IERC20-totalSupply}."
					},
					"transfer(address,uint256)": {
						"details": "See {IERC20-transfer}. Requirements: - `to` cannot be the zero address. - the caller must have a balance of at least `value`."
					},
					"transferFrom(address,address,uint256)": {
						"details": "See {IERC20-transferFrom}. Emits an {Approval} event indicating the updated allowance. This is not required by the EIP. See the note at the beginning of {ERC20}. NOTE: Does not update the allowance if the current allowance is the maximum `uint256`. Requirements: - `from` and `to` cannot be the zero address. - `from` must have a balance of at least `value`. - the caller must have allowance for ``from``'s tokens of at least `value`."
					}
				},
				"version": 1
			},
			"evm": {
				"assembly": "    /* \"Shop.sol\":135:2774  contract Shop is ERC20 {... */\n  mstore(0x40, 0x80)\n    /* \"Shop.sol\":654:655  0 */\n  0x00\n    /* \"Shop.sol\":634:655  uint256 productId = 0 */\n  0x07\n  sstore\n    /* \"Shop.sol\":218:351  constructor() ERC20(\"ShopToken\", \"STK\") {... */\n  callvalue\n  dup1\n  iszero\n  tag_1\n  jumpi\n  0x00\n  dup1\n  revert\ntag_1:\n  pop\n    /* \"node_modules/@openzeppelin/contracts/token/ERC20/ERC20.sol\":1896:2009  constructor(string memory name_, string memory symbol_) {... */\n  mload(0x40)\n  dup1\n  0x40\n  add\n  0x40\n  mstore\n  dup1\n  0x09\n  dup2\n  mstore\n  0x20\n  add\n  0x53686f70546f6b656e0000000000000000000000000000000000000000000000\n  dup2\n  mstore\n  pop\n  mload(0x40)\n  dup1\n  0x40\n  add\n  0x40\n  mstore\n  dup1\n  0x03\n  dup2\n  mstore\n  0x20\n  add\n  0x53544b0000000000000000000000000000000000000000000000000000000000\n  dup2\n  mstore\n  pop\n    /* \"node_modules/@openzeppelin/contracts/token/ERC20/ERC20.sol\":1970:1975  name_ */\n  dup2\n    /* \"node_modules/@openzeppelin/contracts/token/ERC20/ERC20.sol\":1962:1967  _name */\n  0x03\n    /* \"node_modules/@openzeppelin/contracts/token/ERC20/ERC20.sol\":1962:1975  _name = name_ */\n  swap1\n  dup2\n  tag_5\n  swap2\n  swap1\n  tag_6\n  jump\t// in\ntag_5:\n  pop\n    /* \"node_modules/@openzeppelin/contracts/token/ERC20/ERC20.sol\":1995:2002  symbol_ */\n  dup1\n    /* \"node_modules/@openzeppelin/contracts/token/ERC20/ERC20.sol\":1985:1992  _symbol */\n  0x04\n    /* \"node_modules/@openzeppelin/contracts/token/ERC20/ERC20.sol\":1985:2002  _symbol = symbol_ */\n  swap1\n  dup2\n  tag_7\n  swap2\n  swap1\n  tag_6\n  jump\t// in\ntag_7:\n  pop\n    /* \"node_modules/@openzeppelin/contracts/token/ERC20/ERC20.sol\":1896:2009  constructor(string memory name_, string memory symbol_) {... */\n  pop\n  pop\n    /* \"Shop.sol\":269:314  _mint(msg.sender, 1000000 * 10 ** decimals()) */\n  tag_9\n    /* \"Shop.sol\":275:285  msg.sender */\n  caller\n    /* \"Shop.sol\":303:313  decimals() */\n  tag_10\n    /* \"Shop.sol\":303:311  decimals */\n  shl(0x20, tag_11)\n    /* \"Shop.sol\":303:313  decimals() */\n  0x20\n  shr\n  jump\t// in\ntag_10:\n    /* \"Shop.sol\":297:299  10 */\n  0x0a\n    /* \"Shop.sol\":297:313  10 ** decimals() */\n  tag_12\n  swap2\n  swap1\n  tag_13\n  jump\t// in\ntag_12:\n    /* \"Shop.sol\":287:294  1000000 */\n  0x0f4240\n    /* \"Shop.sol\":287:313  1000000 * 10 ** decimals() */\n  tag_14\n  swap2\n  swap1\n  tag_15\n  jump\t// in\ntag_14:\n    /* \"Shop.sol\":269:274  _mint */\n  shl(0x20, tag_16)\n    /* \"Shop.sol\":269:314  _mint(msg.sender, 1000000 * 10 ** decimals()) */\n  0x20\n  shr\n  jump\t// in\ntag_9:\n    /* \"Shop.sol\":333:343  msg.sender */\n  caller\n    /* \"Shop.sol\":325:330  owner */\n  0x05\n  0x00\n    /* \"Shop.sol\":325:343  owner = msg.sender */\n  0x0100\n  exp\n  dup2\n  sload\n  dup2\n  0xffffffffffffffffffffffffffffffffffffffff\n  mul\n  not\n  and\n  swap1\n  dup4\n  0xffffffffffffffffffffffffffffffffffffffff\n  and\n  mul\n  or\n  swap1\n  sstore\n  pop\n    /* \"Shop.sol\":135:2774  contract Shop is ERC20 {... */\n  jump(tag_17)\n    /* \"node_modules/@openzeppelin/contracts/token/ERC20/ERC20.sol\":3002:3084  function decimals() public view virtual returns (uint8) {... */\ntag_11:\n    /* \"node_modules/@openzeppelin/contracts/token/ERC20/ERC20.sol\":3051:3056  uint8 */\n  0x00\n    /* \"node_modules/@openzeppelin/contracts/token/ERC20/ERC20.sol\":3075:3077  18 */\n  0x12\n    /* \"node_modules/@openzeppelin/contracts/token/ERC20/ERC20.sol\":3068:3077  return 18 */\n  swap1\n  pop\n    /* \"node_modules/@openzeppelin/contracts/token/ERC20/ERC20.sol\":3002:3084  function decimals() public view virtual returns (uint8) {... */\n  swap1\n  jump\t// out\n    /* \"node_modules/@openzeppelin/contracts/token/ERC20/ERC20.sol\":7721:7929  function _mint(address account, uint256 value) internal {... */\ntag_16:\n    /* \"node_modules/@openzeppelin/contracts/token/ERC20/ERC20.sol\":7810:7811  0 */\n  0x00\n    /* \"node_modules/@openzeppelin/contracts/token/ERC20/ERC20.sol\":7791:7812  account == address(0) */\n  0xffffffffffffffffffffffffffffffffffffffff\n  and\n    /* \"node_modules/@openzeppelin/contracts/token/ERC20/ERC20.sol\":7791:7798  account */\n  dup3\n    /* \"node_modules/@openzeppelin/contracts/token/ERC20/ERC20.sol\":7791:7812  account == address(0) */\n  0xffffffffffffffffffffffffffffffffffffffff\n  and\n  sub\n    /* \"node_modules/@openzeppelin/contracts/token/ERC20/ERC20.sol\":7787:7878  if (account == address(0)) {... */\n  tag_20\n  jumpi\n    /* \"node_modules/@openzeppelin/contracts/token/ERC20/ERC20.sol\":7864:7865  0 */\n  0x00\n    /* \"node_modules/@openzeppelin/contracts/token/ERC20/ERC20.sol\":7835:7867  ERC20InvalidReceiver(address(0)) */\n  mload(0x40)\n  0xec442f0500000000000000000000000000000000000000000000000000000000\n  dup2\n  mstore\n  0x04\n  add\n  tag_21\n  swap2\n  swap1\n  tag_22\n  jump\t// in\ntag_21:\n  mload(0x40)\n  dup1\n  swap2\n  sub\n  swap1\n  revert\n    /* \"node_modules/@openzeppelin/contracts/token/ERC20/ERC20.sol\":7787:7878  if (account == address(0)) {... */\ntag_20:\n    /* \"node_modules/@openzeppelin/contracts/token/ERC20/ERC20.sol\":7887:7922  _update(address(0), account, value) */\n  tag_23\n    /* \"node_modules/@openzeppelin/contracts/token/ERC20/ERC20.sol\":7903:7904  0 */\n  0x00\n    /* \"node_modules/@openzeppelin/contracts/token/ERC20/ERC20.sol\":7907:7914  account */\n  dup4\n    /* \"node_modules/@openzeppelin/contracts/token/ERC20/ERC20.sol\":7916:7921  value */\n  dup4\n    /* \"node_modules/@openzeppelin/contracts/token/ERC20/ERC20.sol\":7887:7894  _update */\n  shl(0x20, tag_24)\n    /* \"node_modules/@openzeppelin/contracts/token/ERC20/ERC20.sol\":7887:7922  _update(address(0), account, value) */\n  0x20\n  shr\n  jump\t// in\ntag_23:\n    /* \"node_modules/@openzeppelin/contracts/token/ERC20/ERC20.sol\":7721:7929  function _mint(address account, uint256 value) internal {... */\n  pop\n  pop\n  jump\t// out\n    /* \"node_modules/@openzeppelin/contracts/token/ERC20/ERC20.sol\":6271:7378  function _update(address from, address to, uint256 value) internal virtual {... */\ntag_24:\n    /* \"node_modules/@openzeppelin/contracts/token/ERC20/ERC20.sol\":6376:6377  0 */\n  0x00\n    /* \"node_modules/@openzeppelin/contracts/token/ERC20/ERC20.sol\":6360:6378  from == address(0) */\n  0xffffffffffffffffffffffffffffffffffffffff\n  and\n    /* \"node_modules/@openzeppelin/contracts/token/ERC20/ERC20.sol\":6360:6364  from */\n  dup4\n    /* \"node_modules/@openzeppelin/contracts/token/ERC20/ERC20.sol\":6360:6378  from == address(0) */\n  0xffffffffffffffffffffffffffffffffffffffff\n  and\n  sub\n    /* \"node_modules/@openzeppelin/contracts/token/ERC20/ERC20.sol\":6356:6896  if (from == address(0)) {... */\n  tag_26\n  jumpi\n    /* \"node_modules/@openzeppelin/contracts/token/ERC20/ERC20.sol\":6512:6517  value */\n  dup1\n    /* \"node_modules/@openzeppelin/contracts/token/ERC20/ERC20.sol\":6496:6508  _totalSupply */\n  0x02\n  0x00\n    /* \"node_modules/@openzeppelin/contracts/token/ERC20/ERC20.sol\":6496:6517  _totalSupply += value */\n  dup3\n  dup3\n  sload\n  tag_27\n  swap2\n  swap1\n  tag_28\n  jump\t// in\ntag_27:\n  swap3\n  pop\n  pop\n  dup2\n  swap1\n  sstore\n  pop\n    /* \"node_modules/@openzeppelin/contracts/token/ERC20/ERC20.sol\":6356:6896  if (from == address(0)) {... */\n  jump(tag_29)\ntag_26:\n    /* \"node_modules/@openzeppelin/contracts/token/ERC20/ERC20.sol\":6548:6567  uint256 fromBalance */\n  0x00\n    /* \"node_modules/@openzeppelin/contracts/token/ERC20/ERC20.sol\":6570:6579  _balances */\n  dup1\n    /* \"node_modules/@openzeppelin/contracts/token/ERC20/ERC20.sol\":6570:6585  _balances[from] */\n  0x00\n    /* \"node_modules/@openzeppelin/contracts/token/ERC20/ERC20.sol\":6580:6584  from */\n  dup6\n    /* \"node_modules/@openzeppelin/contracts/token/ERC20/ERC20.sol\":6570:6585  _balances[from] */\n  0xffffffffffffffffffffffffffffffffffffffff\n  and\n  0xffffffffffffffffffffffffffffffffffffffff\n  and\n  dup2\n  mstore\n  0x20\n  add\n  swap1\n  dup2\n  mstore\n  0x20\n  add\n  0x00\n  keccak256\n  sload\n    /* \"node_modules/@openzeppelin/contracts/token/ERC20/ERC20.sol\":6548:6585  uint256 fromBalance = _balances[from] */\n  swap1\n  pop\n    /* \"node_modules/@openzeppelin/contracts/token/ERC20/ERC20.sol\":6617:6622  value */\n  dup2\n    /* \"node_modules/@openzeppelin/contracts/token/ERC20/ERC20.sol\":6603:6614  fromBalance */\n  dup2\n    /* \"node_modules/@openzeppelin/contracts/token/ERC20/ERC20.sol\":6603:6622  fromBalance < value */\n  lt\n    /* \"node_modules/@openzeppelin/contracts/token/ERC20/ERC20.sol\":6599:6714  if (fromBalance < value) {... */\n  iszero\n  tag_30\n  jumpi\n    /* \"node_modules/@openzeppelin/contracts/token/ERC20/ERC20.sol\":6674:6678  from */\n  dup4\n    /* \"node_modules/@openzeppelin/contracts/token/ERC20/ERC20.sol\":6680:6691  fromBalance */\n  dup2\n    /* \"node_modules/@openzeppelin/contracts/token/ERC20/ERC20.sol\":6693:6698  value */\n  dup4\n    /* \"node_modules/@openzeppelin/contracts/token/ERC20/ERC20.sol\":6649:6699  ERC20InsufficientBalance(from, fromBalance, value) */\n  mload(0x40)\n  0xe450d38c00000000000000000000000000000000000000000000000000000000\n  dup2\n  mstore\n  0x04\n  add\n  tag_31\n  swap4\n  swap3\n  swap2\n  swap1\n  tag_32\n  jump\t// in\ntag_31:\n  mload(0x40)\n  dup1\n  swap2\n  sub\n  swap1\n  revert\n    /* \"node_modules/@openzeppelin/contracts/token/ERC20/ERC20.sol\":6599:6714  if (fromBalance < value) {... */\ntag_30:\n    /* \"node_modules/@openzeppelin/contracts/token/ERC20/ERC20.sol\":6866:6871  value */\n  dup2\n    /* \"node_modules/@openzeppelin/contracts/token/ERC20/ERC20.sol\":6852:6863  fromBalance */\n  dup2\n    /* \"node_modules/@openzeppelin/contracts/token/ERC20/ERC20.sol\":6852:6871  fromBalance - value */\n  sub\n    /* \"node_modules/@openzeppelin/contracts/token/ERC20/ERC20.sol\":6834:6843  _balances */\n  0x00\n    /* \"node_modules/@openzeppelin/contracts/token/ERC20/ERC20.sol\":6834:6849  _balances[from] */\n  dup1\n    /* \"node_modules/@openzeppelin/contracts/token/ERC20/ERC20.sol\":6844:6848  from */\n  dup7\n    /* \"node_modules/@openzeppelin/contracts/token/ERC20/ERC20.sol\":6834:6849  _balances[from] */\n  0xffffffffffffffffffffffffffffffffffffffff\n  and\n  0xffffffffffffffffffffffffffffffffffffffff\n  and\n  dup2\n  mstore\n  0x20\n  add\n  swap1\n  dup2\n  mstore\n  0x20\n  add\n  0x00\n  keccak256\n    /* \"node_modules/@openzeppelin/contracts/token/ERC20/ERC20.sol\":6834:6871  _balances[from] = fromBalance - value */\n  dup2\n  swap1\n  sstore\n  pop\n    /* \"node_modules/@openzeppelin/contracts/token/ERC20/ERC20.sol\":6534:6896  {... */\n  pop\n    /* \"node_modules/@openzeppelin/contracts/token/ERC20/ERC20.sol\":6356:6896  if (from == address(0)) {... */\ntag_29:\n    /* \"node_modules/@openzeppelin/contracts/token/ERC20/ERC20.sol\":6924:6925  0 */\n  0x00\n    /* \"node_modules/@openzeppelin/contracts/token/ERC20/ERC20.sol\":6910:6926  to == address(0) */\n  0xffffffffffffffffffffffffffffffffffffffff\n  and\n    /* \"node_modules/@openzeppelin/contracts/token/ERC20/ERC20.sol\":6910:6912  to */\n  dup3\n    /* \"node_modules/@openzeppelin/contracts/token/ERC20/ERC20.sol\":6910:6926  to == address(0) */\n  0xffffffffffffffffffffffffffffffffffffffff\n  and\n  sub\n    /* \"node_modules/@openzeppelin/contracts/token/ERC20/ERC20.sol\":6906:7331  if (to == address(0)) {... */\n  tag_33\n  jumpi\n    /* \"node_modules/@openzeppelin/contracts/token/ERC20/ERC20.sol\":7089:7094  value */\n  dup1\n    /* \"node_modules/@openzeppelin/contracts/token/ERC20/ERC20.sol\":7073:7085  _totalSupply */\n  0x02\n  0x00\n    /* \"node_modules/@openzeppelin/contracts/token/ERC20/ERC20.sol\":7073:7094  _totalSupply -= value */\n  dup3\n  dup3\n  sload\n  sub\n  swap3\n  pop\n  pop\n  dup2\n  swap1\n  sstore\n  pop\n    /* \"node_modules/@openzeppelin/contracts/token/ERC20/ERC20.sol\":6906:7331  if (to == address(0)) {... */\n  jump(tag_34)\ntag_33:\n    /* \"node_modules/@openzeppelin/contracts/token/ERC20/ERC20.sol\":7301:7306  value */\n  dup1\n    /* \"node_modules/@openzeppelin/contracts/token/ERC20/ERC20.sol\":7284:7293  _balances */\n  0x00\n    /* \"node_modules/@openzeppelin/contracts/token/ERC20/ERC20.sol\":7284:7297  _balances[to] */\n  dup1\n    /* \"node_modules/@openzeppelin/contracts/token/ERC20/ERC20.sol\":7294:7296  to */\n  dup5\n    /* \"node_modules/@openzeppelin/contracts/token/ERC20/ERC20.sol\":7284:7297  _balances[to] */\n  0xffffffffffffffffffffffffffffffffffffffff\n  and\n  0xffffffffffffffffffffffffffffffffffffffff\n  and\n  dup2\n  mstore\n  0x20\n  add\n  swap1\n  dup2\n  mstore\n  0x20\n  add\n  0x00\n  keccak256\n  0x00\n    /* \"node_modules/@openzeppelin/contracts/token/ERC20/ERC20.sol\":7284:7306  _balances[to] += value */\n  dup3\n  dup3\n  sload\n  add\n  swap3\n  pop\n  pop\n  dup2\n  swap1\n  sstore\n  pop\n    /* \"node_modules/@openzeppelin/contracts/token/ERC20/ERC20.sol\":6906:7331  if (to == address(0)) {... */\ntag_34:\n    /* \"node_modules/@openzeppelin/contracts/token/ERC20/ERC20.sol\":7361:7363  to */\n  dup2\n    /* \"node_modules/@openzeppelin/contracts/token/ERC20/ERC20.sol\":7346:7371  Transfer(from, to, value) */\n  0xffffffffffffffffffffffffffffffffffffffff\n  and\n    /* \"node_modules/@openzeppelin/contracts/token/ERC20/ERC20.sol\":7355:7359  from */\n  dup4\n    /* \"node_modules/@openzeppelin/contracts/token/ERC20/ERC20.sol\":7346:7371  Transfer(from, to, value) */\n  0xffffffffffffffffffffffffffffffffffffffff\n  and\n  0xddf252ad1be2c89b69c2b068fc378daa952ba7f163c4a11628f55a4df523b3ef\n    /* \"node_modules/@openzeppelin/contracts/token/ERC20/ERC20.sol\":7365:7370  value */\n  dup4\n    /* \"node_modules/@openzeppelin/contracts/token/ERC20/ERC20.sol\":7346:7371  Transfer(from, to, value) */\n  mload(0x40)\n  tag_35\n  swap2\n  swap1\n  tag_36\n  jump\t// in\ntag_35:\n  mload(0x40)\n  dup1\n  swap2\n  sub\n  swap1\n  log3\n    /* \"node_modules/@openzeppelin/contracts/token/ERC20/ERC20.sol\":6271:7378  function _update(address from, address to, uint256 value) internal virtual {... */\n  pop\n  pop\n  pop\n  jump\t// out\n    /* \"#utility.yul\":7:106   */\ntag_37:\n    /* \"#utility.yul\":59:65   */\n  0x00\n    /* \"#utility.yul\":93:98   */\n  dup2\n    /* \"#utility.yul\":87:99   */\n  mload\n    /* \"#utility.yul\":77:99   */\n  swap1\n  pop\n    /* \"#utility.yul\":7:106   */\n  swap2\n  swap1\n  pop\n  jump\t// out\n    /* \"#utility.yul\":112:292   */\ntag_38:\n    /* \"#utility.yul\":160:237   */\n  0x4e487b7100000000000000000000000000000000000000000000000000000000\n    /* \"#utility.yul\":157:158   */\n  0x00\n    /* \"#utility.yul\":150:238   */\n  mstore\n    /* \"#utility.yul\":257:261   */\n  0x41\n    /* \"#utility.yul\":254:255   */\n  0x04\n    /* \"#utility.yul\":247:262   */\n  mstore\n    /* \"#utility.yul\":281:285   */\n  0x24\n    /* \"#utility.yul\":278:279   */\n  0x00\n    /* \"#utility.yul\":271:286   */\n  revert\n    /* \"#utility.yul\":298:478   */\ntag_39:\n    /* \"#utility.yul\":346:423   */\n  0x4e487b7100000000000000000000000000000000000000000000000000000000\n    /* \"#utility.yul\":343:344   */\n  0x00\n    /* \"#utility.yul\":336:424   */\n  mstore\n    /* \"#utility.yul\":443:447   */\n  0x22\n    /* \"#utility.yul\":440:441   */\n  0x04\n    /* \"#utility.yul\":433:448   */\n  mstore\n    /* \"#utility.yul\":467:471   */\n  0x24\n    /* \"#utility.yul\":464:465   */\n  0x00\n    /* \"#utility.yul\":457:472   */\n  revert\n    /* \"#utility.yul\":484:804   */\ntag_40:\n    /* \"#utility.yul\":528:534   */\n  0x00\n    /* \"#utility.yul\":565:566   */\n  0x02\n    /* \"#utility.yul\":559:563   */\n  dup3\n    /* \"#utility.yul\":555:567   */\n  div\n    /* \"#utility.yul\":545:567   */\n  swap1\n  pop\n    /* \"#utility.yul\":612:613   */\n  0x01\n    /* \"#utility.yul\":606:610   */\n  dup3\n    /* \"#utility.yul\":602:614   */\n  and\n    /* \"#utility.yul\":633:651   */\n  dup1\n    /* \"#utility.yul\":623:704   */\n  tag_71\n  jumpi\n    /* \"#utility.yul\":689:693   */\n  0x7f\n    /* \"#utility.yul\":681:687   */\n  dup3\n    /* \"#utility.yul\":677:694   */\n  and\n    /* \"#utility.yul\":667:694   */\n  swap2\n  pop\n    /* \"#utility.yul\":623:704   */\ntag_71:\n    /* \"#utility.yul\":751:753   */\n  0x20\n    /* \"#utility.yul\":743:749   */\n  dup3\n    /* \"#utility.yul\":740:754   */\n  lt\n    /* \"#utility.yul\":720:738   */\n  dup2\n    /* \"#utility.yul\":717:755   */\n  sub\n    /* \"#utility.yul\":714:798   */\n  tag_72\n  jumpi\n    /* \"#utility.yul\":770:788   */\n  tag_73\n  tag_39\n  jump\t// in\ntag_73:\n    /* \"#utility.yul\":714:798   */\ntag_72:\n    /* \"#utility.yul\":535:804   */\n  pop\n    /* \"#utility.yul\":484:804   */\n  swap2\n  swap1\n  pop\n  jump\t// out\n    /* \"#utility.yul\":810:951   */\ntag_41:\n    /* \"#utility.yul\":859:863   */\n  0x00\n    /* \"#utility.yul\":882:885   */\n  dup2\n    /* \"#utility.yul\":874:885   */\n  swap1\n  pop\n    /* \"#utility.yul\":905:908   */\n  dup2\n    /* \"#utility.yul\":902:903   */\n  0x00\n    /* \"#utility.yul\":895:909   */\n  mstore\n    /* \"#utility.yul\":939:943   */\n  0x20\n    /* \"#utility.yul\":936:937   */\n  0x00\n    /* \"#utility.yul\":926:944   */\n  keccak256\n    /* \"#utility.yul\":918:944   */\n  swap1\n  pop\n    /* \"#utility.yul\":810:951   */\n  swap2\n  swap1\n  pop\n  jump\t// out\n    /* \"#utility.yul\":957:1050   */\ntag_42:\n    /* \"#utility.yul\":994:1000   */\n  0x00\n    /* \"#utility.yul\":1041:1043   */\n  0x20\n    /* \"#utility.yul\":1036:1038   */\n  0x1f\n    /* \"#utility.yul\":1029:1034   */\n  dup4\n    /* \"#utility.yul\":1025:1039   */\n  add\n    /* \"#utility.yul\":1021:1044   */\n  div\n    /* \"#utility.yul\":1011:1044   */\n  swap1\n  pop\n    /* \"#utility.yul\":957:1050   */\n  swap2\n  swap1\n  pop\n  jump\t// out\n    /* \"#utility.yul\":1056:1163   */\ntag_43:\n    /* \"#utility.yul\":1100:1108   */\n  0x00\n    /* \"#utility.yul\":1150:1155   */\n  dup3\n    /* \"#utility.yul\":1144:1148   */\n  dup3\n    /* \"#utility.yul\":1140:1156   */\n  shl\n    /* \"#utility.yul\":1119:1156   */\n  swap1\n  pop\n    /* \"#utility.yul\":1056:1163   */\n  swap3\n  swap2\n  pop\n  pop\n  jump\t// out\n    /* \"#utility.yul\":1169:1562   */\ntag_44:\n    /* \"#utility.yul\":1238:1244   */\n  0x00\n    /* \"#utility.yul\":1288:1289   */\n  0x08\n    /* \"#utility.yul\":1276:1286   */\n  dup4\n    /* \"#utility.yul\":1272:1290   */\n  mul\n    /* \"#utility.yul\":1311:1408   */\n  tag_78\n    /* \"#utility.yul\":1341:1407   */\n  0xffffffffffffffffffffffffffffffffffffffffffffffffffffffffffffffff\n    /* \"#utility.yul\":1330:1339   */\n  dup3\n    /* \"#utility.yul\":1311:1408   */\n  tag_43\n  jump\t// in\ntag_78:\n    /* \"#utility.yul\":1429:1468   */\n  tag_79\n    /* \"#utility.yul\":1459:1467   */\n  dup7\n    /* \"#utility.yul\":1448:1457   */\n  dup4\n    /* \"#utility.yul\":1429:1468   */\n  tag_43\n  jump\t// in\ntag_79:\n    /* \"#utility.yul\":1417:1468   */\n  swap6\n  pop\n    /* \"#utility.yul\":1501:1505   */\n  dup1\n    /* \"#utility.yul\":1497:1506   */\n  not\n    /* \"#utility.yul\":1490:1495   */\n  dup5\n    /* \"#utility.yul\":1486:1507   */\n  and\n    /* \"#utility.yul\":1477:1507   */\n  swap4\n  pop\n    /* \"#utility.yul\":1550:1554   */\n  dup1\n    /* \"#utility.yul\":1540:1548   */\n  dup7\n    /* \"#utility.yul\":1536:1555   */\n  and\n    /* \"#utility.yul\":1529:1534   */\n  dup5\n    /* \"#utility.yul\":1526:1556   */\n  or\n    /* \"#utility.yul\":1516:1556   */\n  swap3\n  pop\n    /* \"#utility.yul\":1245:1562   */\n  pop\n  pop\n    /* \"#utility.yul\":1169:1562   */\n  swap4\n  swap3\n  pop\n  pop\n  pop\n  jump\t// out\n    /* \"#utility.yul\":1568:1645   */\ntag_45:\n    /* \"#utility.yul\":1605:1612   */\n  0x00\n    /* \"#utility.yul\":1634:1639   */\n  dup2\n    /* \"#utility.yul\":1623:1639   */\n  swap1\n  pop\n    /* \"#utility.yul\":1568:1645   */\n  swap2\n  swap1\n  pop\n  jump\t// out\n    /* \"#utility.yul\":1651:1711   */\ntag_46:\n    /* \"#utility.yul\":1679:1682   */\n  0x00\n    /* \"#utility.yul\":1700:1705   */\n  dup2\n    /* \"#utility.yul\":1693:1705   */\n  swap1\n  pop\n    /* \"#utility.yul\":1651:1711   */\n  swap2\n  swap1\n  pop\n  jump\t// out\n    /* \"#utility.yul\":1717:1859   */\ntag_47:\n    /* \"#utility.yul\":1767:1776   */\n  0x00\n    /* \"#utility.yul\":1800:1853   */\n  tag_83\n    /* \"#utility.yul\":1818:1852   */\n  tag_84\n    /* \"#utility.yul\":1827:1851   */\n  tag_85\n    /* \"#utility.yul\":1845:1850   */\n  dup5\n    /* \"#utility.yul\":1827:1851   */\n  tag_45\n  jump\t// in\ntag_85:\n    /* \"#utility.yul\":1818:1852   */\n  tag_46\n  jump\t// in\ntag_84:\n    /* \"#utility.yul\":1800:1853   */\n  tag_45\n  jump\t// in\ntag_83:\n    /* \"#utility.yul\":1787:1853   */\n  swap1\n  pop\n    /* \"#utility.yul\":1717:1859   */\n  swap2\n  swap1\n  pop\n  jump\t// out\n    /* \"#utility.yul\":1865:1940   */\ntag_48:\n    /* \"#utility.yul\":1908:1911   */\n  0x00\n    /* \"#utility.yul\":1929:1934   */\n  dup2\n    /* \"#utility.yul\":1922:1934   */\n  swap1\n  pop\n    /* \"#utility.yul\":1865:1940   */\n  swap2\n  swap1\n  pop\n  jump\t// out\n    /* \"#utility.yul\":1946:2215   */\ntag_49:\n    /* \"#utility.yul\":2056:2095   */\n  tag_88\n    /* \"#utility.yul\":2087:2094   */\n  dup4\n    /* \"#utility.yul\":2056:2095   */\n  tag_47\n  jump\t// in\ntag_88:\n    /* \"#utility.yul\":2117:2208   */\n  tag_89\n    /* \"#utility.yul\":2166:2207   */\n  tag_90\n    /* \"#utility.yul\":2190:2206   */\n  dup3\n    /* \"#utility.yul\":2166:2207   */\n  tag_48\n  jump\t// in\ntag_90:\n    /* \"#utility.yul\":2158:2164   */\n  dup5\n    /* \"#utility.yul\":2151:2155   */\n  dup5\n    /* \"#utility.yul\":2145:2156   */\n  sload\n    /* \"#utility.yul\":2117:2208   */\n  tag_44\n  jump\t// in\ntag_89:\n    /* \"#utility.yul\":2111:2115   */\n  dup3\n    /* \"#utility.yul\":2104:2209   */\n  sstore\n    /* \"#utility.yul\":2022:2215   */\n  pop\n    /* \"#utility.yul\":1946:2215   */\n  pop\n  pop\n  pop\n  jump\t// out\n    /* \"#utility.yul\":2221:2294   */\ntag_50:\n    /* \"#utility.yul\":2266:2269   */\n  0x00\n    /* \"#utility.yul\":2221:2294   */\n  swap1\n  jump\t// out\n    /* \"#utility.yul\":2300:2489   */\ntag_51:\n    /* \"#utility.yul\":2377:2409   */\n  tag_93\n  tag_50\n  jump\t// in\ntag_93:\n    /* \"#utility.yul\":2418:2483   */\n  tag_94\n    /* \"#utility.yul\":2476:2482   */\n  dup2\n    /* \"#utility.yul\":2468:2474   */\n  dup5\n    /* \"#utility.yul\":2462:2466   */\n  dup5\n    /* \"#utility.yul\":2418:2483   */\n  tag_49\n  jump\t// in\ntag_94:\n    /* \"#utility.yul\":2353:2489   */\n  pop\n    /* \"#utility.yul\":2300:2489   */\n  pop\n  pop\n  jump\t// out\n    /* \"#utility.yul\":2495:2681   */\ntag_52:\n    /* \"#utility.yul\":2555:2675   */\ntag_96:\n    /* \"#utility.yul\":2572:2575   */\n  dup2\n    /* \"#utility.yul\":2565:2570   */\n  dup2\n    /* \"#utility.yul\":2562:2576   */\n  lt\n    /* \"#utility.yul\":2555:2675   */\n  iszero\n  tag_98\n  jumpi\n    /* \"#utility.yul\":2626:2665   */\n  tag_99\n    /* \"#utility.yul\":2663:2664   */\n  0x00\n    /* \"#utility.yul\":2656:2661   */\n  dup3\n    /* \"#utility.yul\":2626:2665   */\n  tag_51\n  jump\t// in\ntag_99:\n    /* \"#utility.yul\":2599:2600   */\n  0x01\n    /* \"#utility.yul\":2592:2597   */\n  dup2\n    /* \"#utility.yul\":2588:2601   */\n  add\n    /* \"#utility.yul\":2579:2601   */\n  swap1\n  pop\n    /* \"#utility.yul\":2555:2675   */\n  jump(tag_96)\ntag_98:\n    /* \"#utility.yul\":2495:2681   */\n  pop\n  pop\n  jump\t// out\n    /* \"#utility.yul\":2687:3230   */\ntag_53:\n    /* \"#utility.yul\":2788:2790   */\n  0x1f\n    /* \"#utility.yul\":2783:2786   */\n  dup3\n    /* \"#utility.yul\":2780:2791   */\n  gt\n    /* \"#utility.yul\":2777:3223   */\n  iszero\n  tag_101\n  jumpi\n    /* \"#utility.yul\":2822:2860   */\n  tag_102\n    /* \"#utility.yul\":2854:2859   */\n  dup2\n    /* \"#utility.yul\":2822:2860   */\n  tag_41\n  jump\t// in\ntag_102:\n    /* \"#utility.yul\":2906:2935   */\n  tag_103\n    /* \"#utility.yul\":2924:2934   */\n  dup5\n    /* \"#utility.yul\":2906:2935   */\n  tag_42\n  jump\t// in\ntag_103:\n    /* \"#utility.yul\":2896:2904   */\n  dup2\n    /* \"#utility.yul\":2892:2936   */\n  add\n    /* \"#utility.yul\":3089:3091   */\n  0x20\n    /* \"#utility.yul\":3077:3087   */\n  dup6\n    /* \"#utility.yul\":3074:3092   */\n  lt\n    /* \"#utility.yul\":3071:3120   */\n  iszero\n  tag_104\n  jumpi\n    /* \"#utility.yul\":3110:3118   */\n  dup2\n    /* \"#utility.yul\":3095:3118   */\n  swap1\n  pop\n    /* \"#utility.yul\":3071:3120   */\ntag_104:\n    /* \"#utility.yul\":3133:3213   */\n  tag_105\n    /* \"#utility.yul\":3189:3211   */\n  tag_106\n    /* \"#utility.yul\":3207:3210   */\n  dup6\n    /* \"#utility.yul\":3189:3211   */\n  tag_42\n  jump\t// in\ntag_106:\n    /* \"#utility.yul\":3179:3187   */\n  dup4\n    /* \"#utility.yul\":3175:3212   */\n  add\n    /* \"#utility.yul\":3162:3173   */\n  dup3\n    /* \"#utility.yul\":3133:3213   */\n  tag_52\n  jump\t// in\ntag_105:\n    /* \"#utility.yul\":2792:3223   */\n  pop\n  pop\n    /* \"#utility.yul\":2777:3223   */\ntag_101:\n    /* \"#utility.yul\":2687:3230   */\n  pop\n  pop\n  pop\n  jump\t// out\n    /* \"#utility.yul\":3236:3353   */\ntag_54:\n    /* \"#utility.yul\":3290:3298   */\n  0x00\n    /* \"#utility.yul\":3340:3345   */\n  dup3\n    /* \"#utility.yul\":3334:3338   */\n  dup3\n    /* \"#utility.yul\":3330:3346   */\n  shr\n    /* \"#utility.yul\":3309:3346   */\n  swap1\n  pop\n    /* \"#utility.yul\":3236:3353   */\n  swap3\n  swap2\n  pop\n  pop\n  jump\t// out\n    /* \"#utility.yul\":3359:3528   */\ntag_55:\n    /* \"#utility.yul\":3403:3409   */\n  0x00\n    /* \"#utility.yul\":3436:3487   */\n  tag_109\n    /* \"#utility.yul\":3484:3485   */\n  0x00\n    /* \"#utility.yul\":3480:3486   */\n  not\n    /* \"#utility.yul\":3472:3477   */\n  dup5\n    /* \"#utility.yul\":3469:3470   */\n  0x08\n    /* \"#utility.yul\":3465:3478   */\n  mul\n    /* \"#utility.yul\":3436:3487   */\n  tag_54\n  jump\t// in\ntag_109:\n    /* \"#utility.yul\":3432:3488   */\n  not\n    /* \"#utility.yul\":3517:3521   */\n  dup1\n    /* \"#utility.yul\":3511:3515   */\n  dup4\n    /* \"#utility.yul\":3507:3522   */\n  and\n    /* \"#utility.yul\":3497:3522   */\n  swap2\n  pop\n    /* \"#utility.yul\":3410:3528   */\n  pop\n    /* \"#utility.yul\":3359:3528   */\n  swap3\n  swap2\n  pop\n  pop\n  jump\t// out\n    /* \"#utility.yul\":3533:3828   */\ntag_56:\n    /* \"#utility.yul\":3609:3613   */\n  0x00\n    /* \"#utility.yul\":3755:3784   */\n  tag_111\n    /* \"#utility.yul\":3780:3783   */\n  dup4\n    /* \"#utility.yul\":3774:3778   */\n  dup4\n    /* \"#utility.yul\":3755:3784   */\n  tag_55\n  jump\t// in\ntag_111:\n    /* \"#utility.yul\":3747:3784   */\n  swap2\n  pop\n    /* \"#utility.yul\":3817:3820   */\n  dup3\n    /* \"#utility.yul\":3814:3815   */\n  0x02\n    /* \"#utility.yul\":3810:3821   */\n  mul\n    /* \"#utility.yul\":3804:3808   */\n  dup3\n    /* \"#utility.yul\":3801:3822   */\n  or\n    /* \"#utility.yul\":3793:3822   */\n  swap1\n  pop\n    /* \"#utility.yul\":3533:3828   */\n  swap3\n  swap2\n  pop\n  pop\n  jump\t// out\n    /* \"#utility.yul\":3833:5228   */\ntag_6:\n    /* \"#utility.yul\":3950:3987   */\n  tag_113\n    /* \"#utility.yul\":3983:3986   */\n  dup3\n    /* \"#utility.yul\":3950:3987   */\n  tag_37\n  jump\t// in\ntag_113:\n    /* \"#utility.yul\":4052:4070   */\n  0xffffffffffffffff\n    /* \"#utility.yul\":4044:4050   */\n  dup2\n    /* \"#utility.yul\":4041:4071   */\n  gt\n    /* \"#utility.yul\":4038:4094   */\n  iszero\n  tag_114\n  jumpi\n    /* \"#utility.yul\":4074:4092   */\n  tag_115\n  tag_38\n  jump\t// in\ntag_115:\n    /* \"#utility.yul\":4038:4094   */\ntag_114:\n    /* \"#utility.yul\":4118:4156   */\n  tag_116\n    /* \"#utility.yul\":4150:4154   */\n  dup3\n    /* \"#utility.yul\":4144:4155   */\n  sload\n    /* \"#utility.yul\":4118:4156   */\n  tag_40\n  jump\t// in\ntag_116:\n    /* \"#utility.yul\":4203:4270   */\n  tag_117\n    /* \"#utility.yul\":4263:4269   */\n  dup3\n    /* \"#utility.yul\":4255:4261   */\n  dup3\n    /* \"#utility.yul\":4249:4253   */\n  dup6\n    /* \"#utility.yul\":4203:4270   */\n  tag_53\n  jump\t// in\ntag_117:\n    /* \"#utility.yul\":4297:4298   */\n  0x00\n    /* \"#utility.yul\":4321:4325   */\n  0x20\n    /* \"#utility.yul\":4308:4325   */\n  swap1\n  pop\n    /* \"#utility.yul\":4353:4355   */\n  0x1f\n    /* \"#utility.yul\":4345:4351   */\n  dup4\n    /* \"#utility.yul\":4342:4356   */\n  gt\n    /* \"#utility.yul\":4370:4371   */\n  0x01\n    /* \"#utility.yul\":4365:4983   */\n  dup2\n  eq\n  tag_119\n  jumpi\n    /* \"#utility.yul\":5027:5028   */\n  0x00\n    /* \"#utility.yul\":5044:5050   */\n  dup5\n    /* \"#utility.yul\":5041:5118   */\n  iszero\n  tag_120\n  jumpi\n    /* \"#utility.yul\":5093:5102   */\n  dup3\n    /* \"#utility.yul\":5088:5091   */\n  dup8\n    /* \"#utility.yul\":5084:5103   */\n  add\n    /* \"#utility.yul\":5078:5104   */\n  mload\n    /* \"#utility.yul\":5069:5104   */\n  swap1\n  pop\n    /* \"#utility.yul\":5041:5118   */\ntag_120:\n    /* \"#utility.yul\":5144:5211   */\n  tag_121\n    /* \"#utility.yul\":5204:5210   */\n  dup6\n    /* \"#utility.yul\":5197:5202   */\n  dup3\n    /* \"#utility.yul\":5144:5211   */\n  tag_56\n  jump\t// in\ntag_121:\n    /* \"#utility.yul\":5138:5142   */\n  dup7\n    /* \"#utility.yul\":5131:5212   */\n  sstore\n    /* \"#utility.yul\":5000:5222   */\n  pop\n    /* \"#utility.yul\":4335:5222   */\n  jump(tag_118)\n    /* \"#utility.yul\":4365:4983   */\ntag_119:\n    /* \"#utility.yul\":4417:4421   */\n  0x1f\n    /* \"#utility.yul\":4413:4422   */\n  not\n    /* \"#utility.yul\":4405:4411   */\n  dup5\n    /* \"#utility.yul\":4401:4423   */\n  and\n    /* \"#utility.yul\":4451:4488   */\n  tag_122\n    /* \"#utility.yul\":4483:4487   */\n  dup7\n    /* \"#utility.yul\":4451:4488   */\n  tag_41\n  jump\t// in\ntag_122:\n    /* \"#utility.yul\":4510:4511   */\n  0x00\n    /* \"#utility.yul\":4524:4732   */\ntag_123:\n    /* \"#utility.yul\":4538:4545   */\n  dup3\n    /* \"#utility.yul\":4535:4536   */\n  dup2\n    /* \"#utility.yul\":4532:4546   */\n  lt\n    /* \"#utility.yul\":4524:4732   */\n  iszero\n  tag_125\n  jumpi\n    /* \"#utility.yul\":4617:4626   */\n  dup5\n    /* \"#utility.yul\":4612:4615   */\n  dup10\n    /* \"#utility.yul\":4608:4627   */\n  add\n    /* \"#utility.yul\":4602:4628   */\n  mload\n    /* \"#utility.yul\":4594:4600   */\n  dup3\n    /* \"#utility.yul\":4587:4629   */\n  sstore\n    /* \"#utility.yul\":4668:4669   */\n  0x01\n    /* \"#utility.yul\":4660:4666   */\n  dup3\n    /* \"#utility.yul\":4656:4670   */\n  add\n    /* \"#utility.yul\":4646:4670   */\n  swap2\n  pop\n    /* \"#utility.yul\":4715:4717   */\n  0x20\n    /* \"#utility.yul\":4704:4713   */\n  dup6\n    /* \"#utility.yul\":4700:4718   */\n  add\n    /* \"#utility.yul\":4687:4718   */\n  swap5\n  pop\n    /* \"#utility.yul\":4561:4565   */\n  0x20\n    /* \"#utility.yul\":4558:4559   */\n  dup2\n    /* \"#utility.yul\":4554:4566   */\n  add\n    /* \"#utility.yul\":4549:4566   */\n  swap1\n  pop\n    /* \"#utility.yul\":4524:4732   */\n  jump(tag_123)\ntag_125:\n    /* \"#utility.yul\":4760:4766   */\n  dup7\n    /* \"#utility.yul\":4751:4758   */\n  dup4\n    /* \"#utility.yul\":4748:4767   */\n  lt\n    /* \"#utility.yul\":4745:4924   */\n  iszero\n  tag_126\n  jumpi\n    /* \"#utility.yul\":4818:4827   */\n  dup5\n    /* \"#utility.yul\":4813:4816   */\n  dup10\n    /* \"#utility.yul\":4809:4828   */\n  add\n    /* \"#utility.yul\":4803:4829   */\n  mload\n    /* \"#utility.yul\":4861:4909   */\n  tag_127\n    /* \"#utility.yul\":4903:4907   */\n  0x1f\n    /* \"#utility.yul\":4895:4901   */\n  dup10\n    /* \"#utility.yul\":4891:4908   */\n  and\n    /* \"#utility.yul\":4880:4889   */\n  dup3\n    /* \"#utility.yul\":4861:4909   */\n  tag_55\n  jump\t// in\ntag_127:\n    /* \"#utility.yul\":4853:4859   */\n  dup4\n    /* \"#utility.yul\":4846:4910   */\n  sstore\n    /* \"#utility.yul\":4768:4924   */\n  pop\n    /* \"#utility.yul\":4745:4924   */\ntag_126:\n    /* \"#utility.yul\":4970:4971   */\n  0x01\n    /* \"#utility.yul\":4966:4967   */\n  0x02\n    /* \"#utility.yul\":4958:4964   */\n  dup9\n    /* \"#utility.yul\":4954:4968   */\n  mul\n    /* \"#utility.yul\":4950:4972   */\n  add\n    /* \"#utility.yul\":4944:4948   */\n  dup9\n    /* \"#utility.yul\":4937:4973   */\n  sstore\n    /* \"#utility.yul\":4372:4983   */\n  pop\n  pop\n  pop\n    /* \"#utility.yul\":4335:5222   */\ntag_118:\n  pop\n    /* \"#utility.yul\":3925:5228   */\n  pop\n  pop\n  pop\n    /* \"#utility.yul\":3833:5228   */\n  pop\n  pop\n  jump\t// out\n    /* \"#utility.yul\":5234:5414   */\ntag_57:\n    /* \"#utility.yul\":5282:5359   */\n  0x4e487b7100000000000000000000000000000000000000000000000000000000\n    /* \"#utility.yul\":5279:5280   */\n  0x00\n    /* \"#utility.yul\":5272:5360   */\n  mstore\n    /* \"#utility.yul\":5379:5383   */\n  0x11\n    /* \"#utility.yul\":5376:5377   */\n  0x04\n    /* \"#utility.yul\":5369:5384   */\n  mstore\n    /* \"#utility.yul\":5403:5407   */\n  0x24\n    /* \"#utility.yul\":5400:5401   */\n  0x00\n    /* \"#utility.yul\":5393:5408   */\n  revert\n    /* \"#utility.yul\":5420:5522   */\ntag_58:\n    /* \"#utility.yul\":5462:5470   */\n  0x00\n    /* \"#utility.yul\":5509:5514   */\n  dup2\n    /* \"#utility.yul\":5506:5507   */\n  0x01\n    /* \"#utility.yul\":5502:5515   */\n  shr\n    /* \"#utility.yul\":5481:5515   */\n  swap1\n  pop\n    /* \"#utility.yul\":5420:5522   */\n  swap2\n  swap1\n  pop\n  jump\t// out\n    /* \"#utility.yul\":5528:6376   */\ntag_59:\n    /* \"#utility.yul\":5589:5594   */\n  0x00\n    /* \"#utility.yul\":5596:5600   */\n  dup1\n    /* \"#utility.yul\":5620:5626   */\n  dup3\n    /* \"#utility.yul\":5611:5626   */\n  swap2\n  pop\n    /* \"#utility.yul\":5644:5649   */\n  dup4\n    /* \"#utility.yul\":5635:5649   */\n  swap1\n  pop\n    /* \"#utility.yul\":5658:6370   */\ntag_131:\n    /* \"#utility.yul\":5679:5680   */\n  0x01\n    /* \"#utility.yul\":5669:5677   */\n  dup6\n    /* \"#utility.yul\":5666:5681   */\n  gt\n    /* \"#utility.yul\":5658:6370   */\n  iszero\n  tag_133\n  jumpi\n    /* \"#utility.yul\":5774:5778   */\n  dup1\n    /* \"#utility.yul\":5769:5772   */\n  dup7\n    /* \"#utility.yul\":5765:5779   */\n  div\n    /* \"#utility.yul\":5759:5763   */\n  dup2\n    /* \"#utility.yul\":5756:5780   */\n  gt\n    /* \"#utility.yul\":5753:5803   */\n  iszero\n  tag_134\n  jumpi\n    /* \"#utility.yul\":5783:5801   */\n  tag_135\n  tag_57\n  jump\t// in\ntag_135:\n    /* \"#utility.yul\":5753:5803   */\ntag_134:\n    /* \"#utility.yul\":5833:5834   */\n  0x01\n    /* \"#utility.yul\":5823:5831   */\n  dup6\n    /* \"#utility.yul\":5819:5835   */\n  and\n    /* \"#utility.yul\":5816:6267   */\n  iszero\n  tag_136\n  jumpi\n    /* \"#utility.yul\":6248:6252   */\n  dup1\n    /* \"#utility.yul\":6241:6246   */\n  dup3\n    /* \"#utility.yul\":6237:6253   */\n  mul\n    /* \"#utility.yul\":6228:6253   */\n  swap2\n  pop\n    /* \"#utility.yul\":5816:6267   */\ntag_136:\n    /* \"#utility.yul\":6298:6302   */\n  dup1\n    /* \"#utility.yul\":6292:6296   */\n  dup2\n    /* \"#utility.yul\":6288:6303   */\n  mul\n    /* \"#utility.yul\":6280:6303   */\n  swap1\n  pop\n    /* \"#utility.yul\":6328:6360   */\n  tag_137\n    /* \"#utility.yul\":6351:6359   */\n  dup6\n    /* \"#utility.yul\":6328:6360   */\n  tag_58\n  jump\t// in\ntag_137:\n    /* \"#utility.yul\":6316:6360   */\n  swap5\n  pop\n    /* \"#utility.yul\":5658:6370   */\n  jump(tag_131)\ntag_133:\n    /* \"#utility.yul\":5528:6376   */\n  swap5\n  pop\n  swap5\n  swap3\n  pop\n  pop\n  pop\n  jump\t// out\n    /* \"#utility.yul\":6382:7455   */\ntag_60:\n    /* \"#utility.yul\":6436:6441   */\n  0x00\n    /* \"#utility.yul\":6627:6635   */\n  dup3\n    /* \"#utility.yul\":6617:6657   */\n  tag_139\n  jumpi\n    /* \"#utility.yul\":6648:6649   */\n  0x01\n    /* \"#utility.yul\":6639:6649   */\n  swap1\n  pop\n    /* \"#utility.yul\":6650:6655   */\n  jump(tag_138)\n    /* \"#utility.yul\":6617:6657   */\ntag_139:\n    /* \"#utility.yul\":6676:6680   */\n  dup2\n    /* \"#utility.yul\":6666:6702   */\n  tag_140\n  jumpi\n    /* \"#utility.yul\":6693:6694   */\n  0x00\n    /* \"#utility.yul\":6684:6694   */\n  swap1\n  pop\n    /* \"#utility.yul\":6695:6700   */\n  jump(tag_138)\n    /* \"#utility.yul\":6666:6702   */\ntag_140:\n    /* \"#utility.yul\":6762:6766   */\n  dup2\n    /* \"#utility.yul\":6810:6811   */\n  0x01\n    /* \"#utility.yul\":6805:6832   */\n  dup2\n  eq\n  tag_142\n  jumpi\n    /* \"#utility.yul\":6846:6847   */\n  0x02\n    /* \"#utility.yul\":6841:7032   */\n  dup2\n  eq\n  tag_143\n  jumpi\n    /* \"#utility.yul\":6755:7032   */\n  jump(tag_141)\n    /* \"#utility.yul\":6805:6832   */\ntag_142:\n    /* \"#utility.yul\":6823:6824   */\n  0x01\n    /* \"#utility.yul\":6814:6824   */\n  swap2\n  pop\n    /* \"#utility.yul\":6825:6830   */\n  pop\n  jump(tag_138)\n    /* \"#utility.yul\":6841:7032   */\ntag_143:\n    /* \"#utility.yul\":6886:6889   */\n  0xff\n    /* \"#utility.yul\":6876:6884   */\n  dup5\n    /* \"#utility.yul\":6873:6890   */\n  gt\n    /* \"#utility.yul\":6870:6913   */\n  iszero\n  tag_144\n  jumpi\n    /* \"#utility.yul\":6893:6911   */\n  tag_145\n  tag_57\n  jump\t// in\ntag_145:\n    /* \"#utility.yul\":6870:6913   */\ntag_144:\n    /* \"#utility.yul\":6942:6950   */\n  dup4\n    /* \"#utility.yul\":6939:6940   */\n  0x02\n    /* \"#utility.yul\":6935:6951   */\n  exp\n    /* \"#utility.yul\":6926:6951   */\n  swap2\n  pop\n    /* \"#utility.yul\":6977:6980   */\n  dup5\n    /* \"#utility.yul\":6970:6975   */\n  dup3\n    /* \"#utility.yul\":6967:6981   */\n  gt\n    /* \"#utility.yul\":6964:7004   */\n  iszero\n  tag_146\n  jumpi\n    /* \"#utility.yul\":6984:7002   */\n  tag_147\n  tag_57\n  jump\t// in\ntag_147:\n    /* \"#utility.yul\":6964:7004   */\ntag_146:\n    /* \"#utility.yul\":7017:7022   */\n  pop\n  jump(tag_138)\n    /* \"#utility.yul\":6755:7032   */\ntag_141:\n  pop\n    /* \"#utility.yul\":7141:7143   */\n  0x20\n    /* \"#utility.yul\":7131:7139   */\n  dup4\n    /* \"#utility.yul\":7128:7144   */\n  lt\n    /* \"#utility.yul\":7122:7125   */\n  0x0133\n    /* \"#utility.yul\":7116:7120   */\n  dup4\n    /* \"#utility.yul\":7113:7126   */\n  lt\n    /* \"#utility.yul\":7109:7145   */\n  and\n    /* \"#utility.yul\":7091:7093   */\n  0x4e\n    /* \"#utility.yul\":7081:7089   */\n  dup5\n    /* \"#utility.yul\":7078:7094   */\n  lt\n    /* \"#utility.yul\":7073:7075   */\n  0x0b\n    /* \"#utility.yul\":7067:7071   */\n  dup5\n    /* \"#utility.yul\":7064:7076   */\n  lt\n    /* \"#utility.yul\":7060:7095   */\n  and\n    /* \"#utility.yul\":7044:7155   */\n  or\n    /* \"#utility.yul\":7041:7287   */\n  iszero\n  tag_148\n  jumpi\n    /* \"#utility.yul\":7197:7205   */\n  dup3\n    /* \"#utility.yul\":7191:7195   */\n  dup3\n    /* \"#utility.yul\":7187:7206   */\n  exp\n    /* \"#utility.yul\":7178:7206   */\n  swap1\n  pop\n    /* \"#utility.yul\":7232:7235   */\n  dup4\n    /* \"#utility.yul\":7225:7230   */\n  dup2\n    /* \"#utility.yul\":7222:7236   */\n  gt\n    /* \"#utility.yul\":7219:7259   */\n  iszero\n  tag_149\n  jumpi\n    /* \"#utility.yul\":7239:7257   */\n  tag_150\n  tag_57\n  jump\t// in\ntag_150:\n    /* \"#utility.yul\":7219:7259   */\ntag_149:\n    /* \"#utility.yul\":7272:7277   */\n  jump(tag_138)\n    /* \"#utility.yul\":7041:7287   */\ntag_148:\n    /* \"#utility.yul\":7312:7354   */\n  tag_151\n    /* \"#utility.yul\":7350:7353   */\n  dup5\n    /* \"#utility.yul\":7340:7348   */\n  dup5\n    /* \"#utility.yul\":7334:7338   */\n  dup5\n    /* \"#utility.yul\":7331:7332   */\n  0x01\n    /* \"#utility.yul\":7312:7354   */\n  tag_59\n  jump\t// in\ntag_151:\n    /* \"#utility.yul\":7297:7354   */\n  swap3\n  pop\n  swap1\n  pop\n    /* \"#utility.yul\":7386:7390   */\n  dup2\n    /* \"#utility.yul\":7381:7384   */\n  dup5\n    /* \"#utility.yul\":7377:7391   */\n  div\n    /* \"#utility.yul\":7370:7375   */\n  dup2\n    /* \"#utility.yul\":7367:7392   */\n  gt\n    /* \"#utility.yul\":7364:7415   */\n  iszero\n  tag_152\n  jumpi\n    /* \"#utility.yul\":7395:7413   */\n  tag_153\n  tag_57\n  jump\t// in\ntag_153:\n    /* \"#utility.yul\":7364:7415   */\ntag_152:\n    /* \"#utility.yul\":7444:7448   */\n  dup2\n    /* \"#utility.yul\":7437:7442   */\n  dup2\n    /* \"#utility.yul\":7433:7449   */\n  mul\n    /* \"#utility.yul\":7424:7449   */\n  swap1\n  pop\n    /* \"#utility.yul\":6382:7455   */\ntag_138:\n  swap4\n  swap3\n  pop\n  pop\n  pop\n  jump\t// out\n    /* \"#utility.yul\":7461:7547   */\ntag_61:\n    /* \"#utility.yul\":7496:7503   */\n  0x00\n    /* \"#utility.yul\":7536:7540   */\n  0xff\n    /* \"#utility.yul\":7529:7534   */\n  dup3\n    /* \"#utility.yul\":7525:7541   */\n  and\n    /* \"#utility.yul\":7514:7541   */\n  swap1\n  pop\n    /* \"#utility.yul\":7461:7547   */\n  swap2\n  swap1\n  pop\n  jump\t// out\n    /* \"#utility.yul\":7553:7834   */\ntag_13:\n    /* \"#utility.yul\":7611:7616   */\n  0x00\n    /* \"#utility.yul\":7635:7658   */\n  tag_156\n    /* \"#utility.yul\":7653:7657   */\n  dup3\n    /* \"#utility.yul\":7635:7658   */\n  tag_45\n  jump\t// in\ntag_156:\n    /* \"#utility.yul\":7627:7658   */\n  swap2\n  pop\n    /* \"#utility.yul\":7679:7704   */\n  tag_157\n    /* \"#utility.yul\":7695:7703   */\n  dup4\n    /* \"#utility.yul\":7679:7704   */\n  tag_61\n  jump\t// in\ntag_157:\n    /* \"#utility.yul\":7667:7704   */\n  swap3\n  pop\n    /* \"#utility.yul\":7723:7827   */\n  tag_158\n    /* \"#utility.yul\":7760:7826   */\n  0xffffffffffffffffffffffffffffffffffffffffffffffffffffffffffffffff\n    /* \"#utility.yul\":7750:7758   */\n  dup5\n    /* \"#utility.yul\":7744:7748   */\n  dup5\n    /* \"#utility.yul\":7723:7827   */\n  tag_60\n  jump\t// in\ntag_158:\n    /* \"#utility.yul\":7714:7827   */\n  swap1\n  pop\n    /* \"#utility.yul\":7553:7834   */\n  swap3\n  swap2\n  pop\n  pop\n  jump\t// out\n    /* \"#utility.yul\":7840:8250   */\ntag_15:\n    /* \"#utility.yul\":7880:7887   */\n  0x00\n    /* \"#utility.yul\":7903:7923   */\n  tag_160\n    /* \"#utility.yul\":7921:7922   */\n  dup3\n    /* \"#utility.yul\":7903:7923   */\n  tag_45\n  jump\t// in\ntag_160:\n    /* \"#utility.yul\":7898:7923   */\n  swap2\n  pop\n    /* \"#utility.yul\":7937:7957   */\n  tag_161\n    /* \"#utility.yul\":7955:7956   */\n  dup4\n    /* \"#utility.yul\":7937:7957   */\n  tag_45\n  jump\t// in\ntag_161:\n    /* \"#utility.yul\":7932:7957   */\n  swap3\n  pop\n    /* \"#utility.yul\":7992:7993   */\n  dup3\n    /* \"#utility.yul\":7989:7990   */\n  dup3\n    /* \"#utility.yul\":7985:7994   */\n  mul\n    /* \"#utility.yul\":8014:8044   */\n  tag_162\n    /* \"#utility.yul\":8032:8043   */\n  dup2\n    /* \"#utility.yul\":8014:8044   */\n  tag_45\n  jump\t// in\ntag_162:\n    /* \"#utility.yul\":8003:8044   */\n  swap2\n  pop\n    /* \"#utility.yul\":8193:8194   */\n  dup3\n    /* \"#utility.yul\":8184:8191   */\n  dup3\n    /* \"#utility.yul\":8180:8195   */\n  div\n    /* \"#utility.yul\":8177:8178   */\n  dup5\n    /* \"#utility.yul\":8174:8196   */\n  eq\n    /* \"#utility.yul\":8154:8155   */\n  dup4\n    /* \"#utility.yul\":8147:8156   */\n  iszero\n    /* \"#utility.yul\":8127:8210   */\n  or\n    /* \"#utility.yul\":8104:8243   */\n  tag_163\n  jumpi\n    /* \"#utility.yul\":8223:8241   */\n  tag_164\n  tag_57\n  jump\t// in\ntag_164:\n    /* \"#utility.yul\":8104:8243   */\ntag_163:\n    /* \"#utility.yul\":7888:8250   */\n  pop\n    /* \"#utility.yul\":7840:8250   */\n  swap3\n  swap2\n  pop\n  pop\n  jump\t// out\n    /* \"#utility.yul\":8256:8382   */\ntag_62:\n    /* \"#utility.yul\":8293:8300   */\n  0x00\n    /* \"#utility.yul\":8333:8375   */\n  0xffffffffffffffffffffffffffffffffffffffff\n    /* \"#utility.yul\":8326:8331   */\n  dup3\n    /* \"#utility.yul\":8322:8376   */\n  and\n    /* \"#utility.yul\":8311:8376   */\n  swap1\n  pop\n    /* \"#utility.yul\":8256:8382   */\n  swap2\n  swap1\n  pop\n  jump\t// out\n    /* \"#utility.yul\":8388:8484   */\ntag_63:\n    /* \"#utility.yul\":8425:8432   */\n  0x00\n    /* \"#utility.yul\":8454:8478   */\n  tag_167\n    /* \"#utility.yul\":8472:8477   */\n  dup3\n    /* \"#utility.yul\":8454:8478   */\n  tag_62\n  jump\t// in\ntag_167:\n    /* \"#utility.yul\":8443:8478   */\n  swap1\n  pop\n    /* \"#utility.yul\":8388:8484   */\n  swap2\n  swap1\n  pop\n  jump\t// out\n    /* \"#utility.yul\":8490:8608   */\ntag_64:\n    /* \"#utility.yul\":8577:8601   */\n  tag_169\n    /* \"#utility.yul\":8595:8600   */\n  dup2\n    /* \"#utility.yul\":8577:8601   */\n  tag_63\n  jump\t// in\ntag_169:\n    /* \"#utility.yul\":8572:8575   */\n  dup3\n    /* \"#utility.yul\":8565:8602   */\n  mstore\n    /* \"#utility.yul\":8490:8608   */\n  pop\n  pop\n  jump\t// out\n    /* \"#utility.yul\":8614:8836   */\ntag_22:\n    /* \"#utility.yul\":8707:8711   */\n  0x00\n    /* \"#utility.yul\":8745:8747   */\n  0x20\n    /* \"#utility.yul\":8734:8743   */\n  dup3\n    /* \"#utility.yul\":8730:8748   */\n  add\n    /* \"#utility.yul\":8722:8748   */\n  swap1\n  pop\n    /* \"#utility.yul\":8758:8829   */\n  tag_171\n    /* \"#utility.yul\":8826:8827   */\n  0x00\n    /* \"#utility.yul\":8815:8824   */\n  dup4\n    /* \"#utility.yul\":8811:8828   */\n  add\n    /* \"#utility.yul\":8802:8808   */\n  dup5\n    /* \"#utility.yul\":8758:8829   */\n  tag_64\n  jump\t// in\ntag_171:\n    /* \"#utility.yul\":8614:8836   */\n  swap3\n  swap2\n  pop\n  pop\n  jump\t// out\n    /* \"#utility.yul\":8842:9033   */\ntag_28:\n    /* \"#utility.yul\":8882:8885   */\n  0x00\n    /* \"#utility.yul\":8901:8921   */\n  tag_173\n    /* \"#utility.yul\":8919:8920   */\n  dup3\n    /* \"#utility.yul\":8901:8921   */\n  tag_45\n  jump\t// in\ntag_173:\n    /* \"#utility.yul\":8896:8921   */\n  swap2\n  pop\n    /* \"#utility.yul\":8935:8955   */\n  tag_174\n    /* \"#utility.yul\":8953:8954   */\n  dup4\n    /* \"#utility.yul\":8935:8955   */\n  tag_45\n  jump\t// in\ntag_174:\n    /* \"#utility.yul\":8930:8955   */\n  swap3\n  pop\n    /* \"#utility.yul\":8978:8979   */\n  dup3\n    /* \"#utility.yul\":8975:8976   */\n  dup3\n    /* \"#utility.yul\":8971:8980   */\n  add\n    /* \"#utility.yul\":8964:8980   */\n  swap1\n  pop\n    /* \"#utility.yul\":8999:9002   */\n  dup1\n    /* \"#utility.yul\":8996:8997   */\n  dup3\n    /* \"#utility.yul\":8993:9003   */\n  gt\n    /* \"#utility.yul\":8990:9026   */\n  iszero\n  tag_175\n  jumpi\n    /* \"#utility.yul\":9006:9024   */\n  tag_176\n  tag_57\n  jump\t// in\ntag_176:\n    /* \"#utility.yul\":8990:9026   */\ntag_175:\n    /* \"#utility.yul\":8842:9033   */\n  swap3\n  swap2\n  pop\n  pop\n  jump\t// out\n    /* \"#utility.yul\":9039:9157   */\ntag_65:\n    /* \"#utility.yul\":9126:9150   */\n  tag_178\n    /* \"#utility.yul\":9144:9149   */\n  dup2\n    /* \"#utility.yul\":9126:9150   */\n  tag_45\n  jump\t// in\ntag_178:\n    /* \"#utility.yul\":9121:9124   */\n  dup3\n    /* \"#utility.yul\":9114:9151   */\n  mstore\n    /* \"#utility.yul\":9039:9157   */\n  pop\n  pop\n  jump\t// out\n    /* \"#utility.yul\":9163:9605   */\ntag_32:\n    /* \"#utility.yul\":9312:9316   */\n  0x00\n    /* \"#utility.yul\":9350:9352   */\n  0x60\n    /* \"#utility.yul\":9339:9348   */\n  dup3\n    /* \"#utility.yul\":9335:9353   */\n  add\n    /* \"#utility.yul\":9327:9353   */\n  swap1\n  pop\n    /* \"#utility.yul\":9363:9434   */\n  tag_180\n    /* \"#utility.yul\":9431:9432   */\n  0x00\n    /* \"#utility.yul\":9420:9429   */\n  dup4\n    /* \"#utility.yul\":9416:9433   */\n  add\n    /* \"#utility.yul\":9407:9413   */\n  dup7\n    /* \"#utility.yul\":9363:9434   */\n  tag_64\n  jump\t// in\ntag_180:\n    /* \"#utility.yul\":9444:9516   */\n  tag_181\n    /* \"#utility.yul\":9512:9514   */\n  0x20\n    /* \"#utility.yul\":9501:9510   */\n  dup4\n    /* \"#utility.yul\":9497:9515   */\n  add\n    /* \"#utility.yul\":9488:9494   */\n  dup6\n    /* \"#utility.yul\":9444:9516   */\n  tag_65\n  jump\t// in\ntag_181:\n    /* \"#utility.yul\":9526:9598   */\n  tag_182\n    /* \"#utility.yul\":9594:9596   */\n  0x40\n    /* \"#utility.yul\":9583:9592   */\n  dup4\n    /* \"#utility.yul\":9579:9597   */\n  add\n    /* \"#utility.yul\":9570:9576   */\n  dup5\n    /* \"#utility.yul\":9526:9598   */\n  tag_65\n  jump\t// in\ntag_182:\n    /* \"#utility.yul\":9163:9605   */\n  swap5\n  swap4\n  pop\n  pop\n  pop\n  pop\n  jump\t// out\n    /* \"#utility.yul\":9611:9833   */\ntag_36:\n    /* \"#utility.yul\":9704:9708   */\n  0x00\n    /* \"#utility.yul\":9742:9744   */\n  0x20\n    /* \"#utility.yul\":9731:9740   */\n  dup3\n    /* \"#utility.yul\":9727:9745   */\n  add\n    /* \"#utility.yul\":9719:9745   */\n  swap1\n  pop\n    /* \"#utility.yul\":9755:9826   */\n  tag_184\n    /* \"#utility.yul\":9823:9824   */\n  0x00\n    /* \"#utility.yul\":9812:9821   */\n  dup4\n    /* \"#utility.yul\":9808:9825   */\n  add\n    /* \"#utility.yul\":9799:9805   */\n  dup5\n    /* \"#utility.yul\":9755:9826   */\n  tag_65\n  jump\t// in\ntag_184:\n    /* \"#utility.yul\":9611:9833   */\n  swap3\n  swap2\n  pop\n  pop\n  jump\t// out\n    /* \"Shop.sol\":135:2774  contract Shop is ERC20 {... */\ntag_17:\n  dataSize(sub_0)\n  dup1\n  dataOffset(sub_0)\n  0x00\n  codecopy\n  0x00\n  return\nstop\n\nsub_0: assembly {\n        /* \"Shop.sol\":135:2774  contract Shop is ERC20 {... */\n      mstore(0x40, 0x80)\n      jumpi(tag_1, lt(calldatasize, 0x04))\n      shr(0xe0, calldataload(0x00))\n      dup1\n      0x8642269e\n      gt\n      tag_17\n      jumpi\n      dup1\n      0xa9059cbb\n      gt\n      tag_18\n      jumpi\n      dup1\n      0xa9059cbb\n      eq\n      tag_13\n      jumpi\n      dup1\n      0xaba7b314\n      eq\n      tag_14\n      jumpi\n      dup1\n      0xc29b2f20\n      eq\n      tag_15\n      jumpi\n      dup1\n      0xdd62ed3e\n      eq\n      tag_16\n      jumpi\n      jump(tag_2)\n    tag_18:\n      dup1\n      0x8642269e\n      eq\n      tag_10\n      jumpi\n      dup1\n      0x8c96091b\n      eq\n      tag_11\n      jumpi\n      dup1\n      0x95d89b41\n      eq\n      tag_12\n      jumpi\n      jump(tag_2)\n    tag_17:\n      dup1\n      0x23b872dd\n      gt\n      tag_19\n      jumpi\n      dup1\n      0x23b872dd\n      eq\n      tag_6\n      jumpi\n      dup1\n      0x313ce567\n      eq\n      tag_7\n      jumpi\n      dup1\n      0x70a08231\n      eq\n      tag_8\n      jumpi\n      dup1\n      0x7acc0b20\n      eq\n      tag_9\n      jumpi\n      jump(tag_2)\n    tag_19:\n      dup1\n      0x06fdde03\n      eq\n      tag_3\n      jumpi\n      dup1\n      0x095ea7b3\n      eq\n      tag_4\n      jumpi\n      dup1\n      0x18160ddd\n      eq\n      tag_5\n      jumpi\n      jump(tag_2)\n    tag_1:\n      jumpi(tag_2, calldatasize)\n        /* \"Shop.sol\":896:907  uint amount */\n      0x00\n        /* \"Shop.sol\":922:925  500 */\n      0x01f4\n        /* \"Shop.sol\":910:919  msg.value */\n      callvalue\n        /* \"Shop.sol\":910:925  msg.value * 500 */\n      tag_22\n      swap2\n      swap1\n      tag_23\n      jump\t// in\n    tag_22:\n        /* \"Shop.sol\":896:925  uint amount = msg.value * 500 */\n      swap1\n      pop\n        /* \"Shop.sol\":966:972  amount */\n      dup1\n        /* \"Shop.sol\":946:962  balanceOf(owner) */\n      tag_24\n        /* \"Shop.sol\":956:961  owner */\n      0x05\n      0x00\n      swap1\n      sload\n      swap1\n      0x0100\n      exp\n      swap1\n      div\n      0xffffffffffffffffffffffffffffffffffffffff\n      and\n        /* \"Shop.sol\":946:955  balanceOf */\n      tag_25\n        /* \"Shop.sol\":946:962  balanceOf(owner) */\n      jump\t// in\n    tag_24:\n        /* \"Shop.sol\":946:972  balanceOf(owner) >= amount */\n      lt\n      iszero\n        /* \"Shop.sol\":938:973  require(balanceOf(owner) >= amount) */\n      tag_26\n      jumpi\n      0x00\n      dup1\n      revert\n    tag_26:\n        /* \"Shop.sol\":1069:1103  _update(owner, msg.sender, amount) */\n      tag_27\n        /* \"Shop.sol\":1077:1082  owner */\n      0x05\n      0x00\n      swap1\n      sload\n      swap1\n      0x0100\n      exp\n      swap1\n      div\n      0xffffffffffffffffffffffffffffffffffffffff\n      and\n        /* \"Shop.sol\":1084:1094  msg.sender */\n      caller\n        /* \"Shop.sol\":1096:1102  amount */\n      dup4\n        /* \"Shop.sol\":1069:1076  _update */\n      tag_28\n        /* \"Shop.sol\":1069:1103  _update(owner, msg.sender, amount) */\n      jump\t// in\n    tag_27:\n        /* \"Shop.sol\":1270:1275  owner */\n      0x05\n      0x00\n      swap1\n      sload\n      swap1\n      0x0100\n      exp\n      swap1\n      div\n      0xffffffffffffffffffffffffffffffffffffffff\n      and\n        /* \"Shop.sol\":1256:1275  msg.sender == owner */\n      0xffffffffffffffffffffffffffffffffffffffff\n      and\n        /* \"Shop.sol\":1256:1266  msg.sender */\n      caller\n        /* \"Shop.sol\":1256:1275  msg.sender == owner */\n      0xffffffffffffffffffffffffffffffffffffffff\n      and\n      sub\n        /* \"Shop.sol\":1252:1324  if (msg.sender == owner) {... */\n      tag_29\n      jumpi\n        /* \"Shop.sol\":1292:1312  _mint(owner, amount) */\n      tag_30\n        /* \"Shop.sol\":1298:1303  owner */\n      0x05\n      0x00\n      swap1\n      sload\n      swap1\n      0x0100\n      exp\n      swap1\n      div\n      0xffffffffffffffffffffffffffffffffffffffff\n      and\n        /* \"Shop.sol\":1305:1311  amount */\n      dup3\n        /* \"Shop.sol\":1292:1297  _mint */\n      tag_31\n        /* \"Shop.sol\":1292:1312  _mint(owner, amount) */\n      jump\t// in\n    tag_30:\n        /* \"Shop.sol\":1252:1324  if (msg.sender == owner) {... */\n    tag_29:\n        /* \"Shop.sol\":840:1331  {... */\n      stop\n        /* \"Shop.sol\":135:2774  contract Shop is ERC20 {... */\n    tag_2:\n      0x00\n      dup1\n      revert\n        /* \"node_modules/@openzeppelin/contracts/token/ERC20/ERC20.sol\":2074:2163  function name() public view virtual returns (string memory) {... */\n    tag_3:\n      callvalue\n      dup1\n      iszero\n      tag_32\n      jumpi\n      0x00\n      dup1\n      revert\n    tag_32:\n      pop\n      tag_33\n      tag_34\n      jump\t// in\n    tag_33:\n      mload(0x40)\n      tag_35\n      swap2\n      swap1\n      tag_36\n      jump\t// in\n    tag_35:\n      mload(0x40)\n      dup1\n      swap2\n      sub\n      swap1\n      return\n        /* \"node_modules/@openzeppelin/contracts/token/ERC20/ERC20.sol\":4293:4479  function approve(address spender, uint256 value) public virtual returns (bool) {... */\n    tag_4:\n      callvalue\n      dup1\n      iszero\n      tag_37\n      jumpi\n      0x00\n      dup1\n      revert\n    tag_37:\n      pop\n      tag_38\n      0x04\n      dup1\n      calldatasize\n      sub\n      dup2\n      add\n      swap1\n      tag_39\n      swap2\n      swap1\n      tag_40\n      jump\t// in\n    tag_39:\n      tag_41\n      jump\t// in\n    tag_38:\n      mload(0x40)\n      tag_42\n      swap2\n      swap1\n      tag_43\n      jump\t// in\n    tag_42:\n      mload(0x40)\n      dup1\n      swap2\n      sub\n      swap1\n      return\n        /* \"node_modules/@openzeppelin/contracts/token/ERC20/ERC20.sol\":3144:3241  function totalSupply() public view virtual returns (uint256) {... */\n    tag_5:\n      callvalue\n      dup1\n      iszero\n      tag_44\n      jumpi\n      0x00\n      dup1\n      revert\n    tag_44:\n      pop\n      tag_45\n      tag_46\n      jump\t// in\n    tag_45:\n      mload(0x40)\n      tag_47\n      swap2\n      swap1\n      tag_48\n      jump\t// in\n    tag_47:\n      mload(0x40)\n      dup1\n      swap2\n      sub\n      swap1\n      return\n        /* \"node_modules/@openzeppelin/contracts/token/ERC20/ERC20.sol\":5039:5283  function transferFrom(address from, address to, uint256 value) public virtual returns (bool) {... */\n    tag_6:\n      callvalue\n      dup1\n      iszero\n      tag_49\n      jumpi\n      0x00\n      dup1\n      revert\n    tag_49:\n      pop\n      tag_50\n      0x04\n      dup1\n      calldatasize\n      sub\n      dup2\n      add\n      swap1\n      tag_51\n      swap2\n      swap1\n      tag_52\n      jump\t// in\n    tag_51:\n      tag_53\n      jump\t// in\n    tag_50:\n      mload(0x40)\n      tag_54\n      swap2\n      swap1\n      tag_43\n      jump\t// in\n    tag_54:\n      mload(0x40)\n      dup1\n      swap2\n      sub\n      swap1\n      return\n        /* \"node_modules/@openzeppelin/contracts/token/ERC20/ERC20.sol\":3002:3084  function decimals() public view virtual returns (uint8) {... */\n    tag_7:\n      callvalue\n      dup1\n      iszero\n      tag_55\n      jumpi\n      0x00\n      dup1\n      revert\n    tag_55:\n      pop\n      tag_56\n      tag_57\n      jump\t// in\n    tag_56:\n      mload(0x40)\n      tag_58\n      swap2\n      swap1\n      tag_59\n      jump\t// in\n    tag_58:\n      mload(0x40)\n      dup1\n      swap2\n      sub\n      swap1\n      return\n        /* \"node_modules/@openzeppelin/contracts/token/ERC20/ERC20.sol\":3299:3415  function balanceOf(address account) public view virtual returns (uint256) {... */\n    tag_8:\n      callvalue\n      dup1\n      iszero\n      tag_60\n      jumpi\n      0x00\n      dup1\n      revert\n    tag_60:\n      pop\n      tag_61\n      0x04\n      dup1\n      calldatasize\n      sub\n      dup2\n      add\n      swap1\n      tag_62\n      swap2\n      swap1\n      tag_63\n      jump\t// in\n    tag_62:\n      tag_25\n      jump\t// in\n    tag_61:\n      mload(0x40)\n      tag_64\n      swap2\n      swap1\n      tag_48\n      jump\t// in\n    tag_64:\n      mload(0x40)\n      dup1\n      swap2\n      sub\n      swap1\n      return\n        /* \"Shop.sol\":575:600  Product[] public products */\n    tag_9:\n      callvalue\n      dup1\n      iszero\n      tag_65\n      jumpi\n      0x00\n      dup1\n      revert\n    tag_65:\n      pop\n      tag_66\n      0x04\n      dup1\n      calldatasize\n      sub\n      dup2\n      add\n      swap1\n      tag_67\n      swap2\n      swap1\n      tag_68\n      jump\t// in\n    tag_67:\n      tag_69\n      jump\t// in\n    tag_66:\n      mload(0x40)\n      tag_70\n      swap4\n      swap3\n      swap2\n      swap1\n      tag_71\n      jump\t// in\n    tag_70:\n      mload(0x40)\n      dup1\n      swap2\n      sub\n      swap1\n      return\n        /* \"Shop.sol\":1677:2444  function buyProduct(uint256 id) public returns (bool) {... */\n    tag_10:\n      callvalue\n      dup1\n      iszero\n      tag_72\n      jumpi\n      0x00\n      dup1\n      revert\n    tag_72:\n      pop\n      tag_73\n      0x04\n      dup1\n      calldatasize\n      sub\n      dup2\n      add\n      swap1\n      tag_74\n      swap2\n      swap1\n      tag_68\n      jump\t// in\n    tag_74:\n      tag_75\n      jump\t// in\n    tag_73:\n      mload(0x40)\n      tag_76\n      swap2\n      swap1\n      tag_43\n      jump\t// in\n    tag_76:\n      mload(0x40)\n      dup1\n      swap2\n      sub\n      swap1\n      return\n        /* \"Shop.sol\":2474:2769  function registerProduct(string memory _name, uint256 _price) public returns (bool) {... */\n    tag_11:\n      callvalue\n      dup1\n      iszero\n      tag_77\n      jumpi\n      0x00\n      dup1\n      revert\n    tag_77:\n      pop\n      tag_78\n      0x04\n      dup1\n      calldatasize\n      sub\n      dup2\n      add\n      swap1\n      tag_79\n      swap2\n      swap1\n      tag_80\n      jump\t// in\n    tag_79:\n      tag_81\n      jump\t// in\n    tag_78:\n      mload(0x40)\n      tag_82\n      swap2\n      swap1\n      tag_43\n      jump\t// in\n    tag_82:\n      mload(0x40)\n      dup1\n      swap2\n      sub\n      swap1\n      return\n        /* \"node_modules/@openzeppelin/contracts/token/ERC20/ERC20.sol\":2276:2369  function symbol() public view virtual returns (string memory) {... */\n    tag_12:\n      callvalue\n      dup1\n      iszero\n      tag_83\n      jumpi\n      0x00\n      dup1\n      revert\n    tag_83:\n      pop\n      tag_84\n      tag_85\n      jump\t// in\n    tag_84:\n      mload(0x40)\n      tag_86\n      swap2\n      swap1\n      tag_36\n      jump\t// in\n    tag_86:\n      mload(0x40)\n      dup1\n      swap2\n      sub\n      swap1\n      return\n        /* \"node_modules/@openzeppelin/contracts/token/ERC20/ERC20.sol\":3610:3788  function transfer(address to, uint256 value) public virtual returns (bool) {... */\n    tag_13:\n      callvalue\n      dup1\n      iszero\n      tag_87\n      jumpi\n      0x00\n      dup1\n      revert\n    tag_87:\n      pop\n      tag_88\n      0x04\n      dup1\n      calldatasize\n      sub\n      dup2\n      add\n      swap1\n      tag_89\n      swap2\n      swap1\n      tag_40\n      jump\t// in\n    tag_89:\n      tag_90\n      jump\t// in\n    tag_88:\n      mload(0x40)\n      tag_91\n      swap2\n      swap1\n      tag_43\n      jump\t// in\n    tag_91:\n      mload(0x40)\n      dup1\n      swap2\n      sub\n      swap1\n      return\n        /* \"Shop.sol\":1531:1647  function getUserProducts() public view returns (Product[] memory) {... */\n    tag_14:\n      callvalue\n      dup1\n      iszero\n      tag_92\n      jumpi\n      0x00\n      dup1\n      revert\n    tag_92:\n      pop\n      tag_93\n      tag_94\n      jump\t// in\n    tag_93:\n      mload(0x40)\n      tag_95\n      swap2\n      swap1\n      tag_96\n      jump\t// in\n    tag_95:\n      mload(0x40)\n      dup1\n      swap2\n      sub\n      swap1\n      return\n        /* \"Shop.sol\":1368:1464  function getProducts() public view returns (Product[] memory) {... */\n    tag_15:\n      callvalue\n      dup1\n      iszero\n      tag_97\n      jumpi\n      0x00\n      dup1\n      revert\n    tag_97:\n      pop\n      tag_98\n      tag_99\n      jump\t// in\n    tag_98:\n      mload(0x40)\n      tag_100\n      swap2\n      swap1\n      tag_96\n      jump\t// in\n    tag_100:\n      mload(0x40)\n      dup1\n      swap2\n      sub\n      swap1\n      return\n        /* \"node_modules/@openzeppelin/contracts/token/ERC20/ERC20.sol\":3846:3986  function allowance(address owner, address spender) public view virtual returns (uint256) {... */\n    tag_16:\n      callvalue\n      dup1\n      iszero\n      tag_101\n      jumpi\n      0x00\n      dup1\n      revert\n    tag_101:\n      pop\n      tag_102\n      0x04\n      dup1\n      calldatasize\n      sub\n      dup2\n      add\n      swap1\n      tag_103\n      swap2\n      swap1\n      tag_104\n      jump\t// in\n    tag_103:\n      tag_105\n      jump\t// in\n    tag_102:\n      mload(0x40)\n      tag_106\n      swap2\n      swap1\n      tag_48\n      jump\t// in\n    tag_106:\n      mload(0x40)\n      dup1\n      swap2\n      sub\n      swap1\n      return\n        /* \"node_modules/@openzeppelin/contracts/token/ERC20/ERC20.sol\":3299:3415  function balanceOf(address account) public view virtual returns (uint256) {... */\n    tag_25:\n        /* \"node_modules/@openzeppelin/contracts/token/ERC20/ERC20.sol\":3364:3371  uint256 */\n      0x00\n        /* \"node_modules/@openzeppelin/contracts/token/ERC20/ERC20.sol\":3390:3399  _balances */\n      dup1\n        /* \"node_modules/@openzeppelin/contracts/token/ERC20/ERC20.sol\":3390:3408  _balances[account] */\n      0x00\n        /* \"node_modules/@openzeppelin/contracts/token/ERC20/ERC20.sol\":3400:3407  account */\n      dup4\n        /* \"node_modules/@openzeppelin/contracts/token/ERC20/ERC20.sol\":3390:3408  _balances[account] */\n      0xffffffffffffffffffffffffffffffffffffffff\n      and\n      0xffffffffffffffffffffffffffffffffffffffff\n      and\n      dup2\n      mstore\n      0x20\n      add\n      swap1\n      dup2\n      mstore\n      0x20\n      add\n      0x00\n      keccak256\n      sload\n        /* \"node_modules/@openzeppelin/contracts/token/ERC20/ERC20.sol\":3383:3408  return _balances[account] */\n      swap1\n      pop\n        /* \"node_modules/@openzeppelin/contracts/token/ERC20/ERC20.sol\":3299:3415  function balanceOf(address account) public view virtual returns (uint256) {... */\n      swap2\n      swap1\n      pop\n      jump\t// out\n        /* \"node_modules/@openzeppelin/contracts/token/ERC20/ERC20.sol\":6271:7378  function _update(address from, address to, uint256 value) internal virtual {... */\n    tag_28:\n        /* \"node_modules/@openzeppelin/contracts/token/ERC20/ERC20.sol\":6376:6377  0 */\n      0x00\n        /* \"node_modules/@openzeppelin/contracts/token/ERC20/ERC20.sol\":6360:6378  from == address(0) */\n      0xffffffffffffffffffffffffffffffffffffffff\n      and\n        /* \"node_modules/@openzeppelin/contracts/token/ERC20/ERC20.sol\":6360:6364  from */\n      dup4\n        /* \"node_modules/@openzeppelin/contracts/token/ERC20/ERC20.sol\":6360:6378  from == address(0) */\n      0xffffffffffffffffffffffffffffffffffffffff\n      and\n      sub\n        /* \"node_modules/@openzeppelin/contracts/token/ERC20/ERC20.sol\":6356:6896  if (from == address(0)) {... */\n      tag_109\n      jumpi\n        /* \"node_modules/@openzeppelin/contracts/token/ERC20/ERC20.sol\":6512:6517  value */\n      dup1\n        /* \"node_modules/@openzeppelin/contracts/token/ERC20/ERC20.sol\":6496:6508  _totalSupply */\n      0x02\n      0x00\n        /* \"node_modules/@openzeppelin/contracts/token/ERC20/ERC20.sol\":6496:6517  _totalSupply += value */\n      dup3\n      dup3\n      sload\n      tag_110\n      swap2\n      swap1\n      tag_111\n      jump\t// in\n    tag_110:\n      swap3\n      pop\n      pop\n      dup2\n      swap1\n      sstore\n      pop\n        /* \"node_modules/@openzeppelin/contracts/token/ERC20/ERC20.sol\":6356:6896  if (from == address(0)) {... */\n      jump(tag_112)\n    tag_109:\n        /* \"node_modules/@openzeppelin/contracts/token/ERC20/ERC20.sol\":6548:6567  uint256 fromBalance */\n      0x00\n        /* \"node_modules/@openzeppelin/contracts/token/ERC20/ERC20.sol\":6570:6579  _balances */\n      dup1\n        /* \"node_modules/@openzeppelin/contracts/token/ERC20/ERC20.sol\":6570:6585  _balances[from] */\n      0x00\n        /* \"node_modules/@openzeppelin/contracts/token/ERC20/ERC20.sol\":6580:6584  from */\n      dup6\n        /* \"node_modules/@openzeppelin/contracts/token/ERC20/ERC20.sol\":6570:6585  _balances[from] */\n      0xffffffffffffffffffffffffffffffffffffffff\n      and\n      0xffffffffffffffffffffffffffffffffffffffff\n      and\n      dup2\n      mstore\n      0x20\n      add\n      swap1\n      dup2\n      mstore\n      0x20\n      add\n      0x00\n      keccak256\n      sload\n        /* \"node_modules/@openzeppelin/contracts/token/ERC20/ERC20.sol\":6548:6585  uint256 fromBalance = _balances[from] */\n      swap1\n      pop\n        /* \"node_modules/@openzeppelin/contracts/token/ERC20/ERC20.sol\":6617:6622  value */\n      dup2\n        /* \"node_modules/@openzeppelin/contracts/token/ERC20/ERC20.sol\":6603:6614  fromBalance */\n      dup2\n        /* \"node_modules/@openzeppelin/contracts/token/ERC20/ERC20.sol\":6603:6622  fromBalance < value */\n      lt\n        /* \"node_modules/@openzeppelin/contracts/token/ERC20/ERC20.sol\":6599:6714  if (fromBalance < value) {... */\n      iszero\n      tag_113\n      jumpi\n        /* \"node_modules/@openzeppelin/contracts/token/ERC20/ERC20.sol\":6674:6678  from */\n      dup4\n        /* \"node_modules/@openzeppelin/contracts/token/ERC20/ERC20.sol\":6680:6691  fromBalance */\n      dup2\n        /* \"node_modules/@openzeppelin/contracts/token/ERC20/ERC20.sol\":6693:6698  value */\n      dup4\n        /* \"node_modules/@openzeppelin/contracts/token/ERC20/ERC20.sol\":6649:6699  ERC20InsufficientBalance(from, fromBalance, value) */\n      mload(0x40)\n      0xe450d38c00000000000000000000000000000000000000000000000000000000\n      dup2\n      mstore\n      0x04\n      add\n      tag_114\n      swap4\n      swap3\n      swap2\n      swap1\n      tag_115\n      jump\t// in\n    tag_114:\n      mload(0x40)\n      dup1\n      swap2\n      sub\n      swap1\n      revert\n        /* \"node_modules/@openzeppelin/contracts/token/ERC20/ERC20.sol\":6599:6714  if (fromBalance < value) {... */\n    tag_113:\n        /* \"node_modules/@openzeppelin/contracts/token/ERC20/ERC20.sol\":6866:6871  value */\n      dup2\n        /* \"node_modules/@openzeppelin/contracts/token/ERC20/ERC20.sol\":6852:6863  fromBalance */\n      dup2\n        /* \"node_modules/@openzeppelin/contracts/token/ERC20/ERC20.sol\":6852:6871  fromBalance - value */\n      sub\n        /* \"node_modules/@openzeppelin/contracts/token/ERC20/ERC20.sol\":6834:6843  _balances */\n      0x00\n        /* \"node_modules/@openzeppelin/contracts/token/ERC20/ERC20.sol\":6834:6849  _balances[from] */\n      dup1\n        /* \"node_modules/@openzeppelin/contracts/token/ERC20/ERC20.sol\":6844:6848  from */\n      dup7\n        /* \"node_modules/@openzeppelin/contracts/token/ERC20/ERC20.sol\":6834:6849  _balances[from] */\n      0xffffffffffffffffffffffffffffffffffffffff\n      and\n      0xffffffffffffffffffffffffffffffffffffffff\n      and\n      dup2\n      mstore\n      0x20\n      add\n      swap1\n      dup2\n      mstore\n      0x20\n      add\n      0x00\n      keccak256\n        /* \"node_modules/@openzeppelin/contracts/token/ERC20/ERC20.sol\":6834:6871  _balances[from] = fromBalance - value */\n      dup2\n      swap1\n      sstore\n      pop\n        /* \"node_modules/@openzeppelin/contracts/token/ERC20/ERC20.sol\":6534:6896  {... */\n      pop\n        /* \"node_modules/@openzeppelin/contracts/token/ERC20/ERC20.sol\":6356:6896  if (from == address(0)) {... */\n    tag_112:\n        /* \"node_modules/@openzeppelin/contracts/token/ERC20/ERC20.sol\":6924:6925  0 */\n      0x00\n        /* \"node_modules/@openzeppelin/contracts/token/ERC20/ERC20.sol\":6910:6926  to == address(0) */\n      0xffffffffffffffffffffffffffffffffffffffff\n      and\n        /* \"node_modules/@openzeppelin/contracts/token/ERC20/ERC20.sol\":6910:6912  to */\n      dup3\n        /* \"node_modules/@openzeppelin/contracts/token/ERC20/ERC20.sol\":6910:6926  to == address(0) */\n      0xffffffffffffffffffffffffffffffffffffffff\n      and\n      sub\n        /* \"node_modules/@openzeppelin/contracts/token/ERC20/ERC20.sol\":6906:7331  if (to == address(0)) {... */\n      tag_116\n      jumpi\n        /* \"node_modules/@openzeppelin/contracts/token/ERC20/ERC20.sol\":7089:7094  value */\n      dup1\n        /* \"node_modules/@openzeppelin/contracts/token/ERC20/ERC20.sol\":7073:7085  _totalSupply */\n      0x02\n      0x00\n        /* \"node_modules/@openzeppelin/contracts/token/ERC20/ERC20.sol\":7073:7094  _totalSupply -= value */\n      dup3\n      dup3\n      sload\n      sub\n      swap3\n      pop\n      pop\n      dup2\n      swap1\n      sstore\n      pop\n        /* \"node_modules/@openzeppelin/contracts/token/ERC20/ERC20.sol\":6906:7331  if (to == address(0)) {... */\n      jump(tag_117)\n    tag_116:\n        /* \"node_modules/@openzeppelin/contracts/token/ERC20/ERC20.sol\":7301:7306  value */\n      dup1\n        /* \"node_modules/@openzeppelin/contracts/token/ERC20/ERC20.sol\":7284:7293  _balances */\n      0x00\n        /* \"node_modules/@openzeppelin/contracts/token/ERC20/ERC20.sol\":7284:7297  _balances[to] */\n      dup1\n        /* \"node_modules/@openzeppelin/contracts/token/ERC20/ERC20.sol\":7294:7296  to */\n      dup5\n        /* \"node_modules/@openzeppelin/contracts/token/ERC20/ERC20.sol\":7284:7297  _balances[to] */\n      0xffffffffffffffffffffffffffffffffffffffff\n      and\n      0xffffffffffffffffffffffffffffffffffffffff\n      and\n      dup2\n      mstore\n      0x20\n      add\n      swap1\n      dup2\n      mstore\n      0x20\n      add\n      0x00\n      keccak256\n      0x00\n        /* \"node_modules/@openzeppelin/contracts/token/ERC20/ERC20.sol\":7284:7306  _balances[to] += value */\n      dup3\n      dup3\n      sload\n      add\n      swap3\n      pop\n      pop\n      dup2\n      swap1\n      sstore\n      pop\n        /* \"node_modules/@openzeppelin/contracts/token/ERC20/ERC20.sol\":6906:7331  if (to == address(0)) {... */\n    tag_117:\n        /* \"node_modules/@openzeppelin/contracts/token/ERC20/ERC20.sol\":7361:7363  to */\n      dup2\n        /* \"node_modules/@openzeppelin/contracts/token/ERC20/ERC20.sol\":7346:7371  Transfer(from, to, value) */\n      0xffffffffffffffffffffffffffffffffffffffff\n      and\n        /* \"node_modules/@openzeppelin/contracts/token/ERC20/ERC20.sol\":7355:7359  from */\n      dup4\n        /* \"node_modules/@openzeppelin/contracts/token/ERC20/ERC20.sol\":7346:7371  Transfer(from, to, value) */\n      0xffffffffffffffffffffffffffffffffffffffff\n      and\n      0xddf252ad1be2c89b69c2b068fc378daa952ba7f163c4a11628f55a4df523b3ef\n        /* \"node_modules/@openzeppelin/contracts/token/ERC20/ERC20.sol\":7365:7370  value */\n      dup4\n        /* \"node_modules/@openzeppelin/contracts/token/ERC20/ERC20.sol\":7346:7371  Transfer(from, to, value) */\n      mload(0x40)\n      tag_118\n      swap2\n      swap1\n      tag_48\n      jump\t// in\n    tag_118:\n      mload(0x40)\n      dup1\n      swap2\n      sub\n      swap1\n      log3\n        /* \"node_modules/@openzeppelin/contracts/token/ERC20/ERC20.sol\":6271:7378  function _update(address from, address to, uint256 value) internal virtual {... */\n      pop\n      pop\n      pop\n      jump\t// out\n        /* \"node_modules/@openzeppelin/contracts/token/ERC20/ERC20.sol\":7721:7929  function _mint(address account, uint256 value) internal {... */\n    tag_31:\n        /* \"node_modules/@openzeppelin/contracts/token/ERC20/ERC20.sol\":7810:7811  0 */\n      0x00\n        /* \"node_modules/@openzeppelin/contracts/token/ERC20/ERC20.sol\":7791:7812  account == address(0) */\n      0xffffffffffffffffffffffffffffffffffffffff\n      and\n        /* \"node_modules/@openzeppelin/contracts/token/ERC20/ERC20.sol\":7791:7798  account */\n      dup3\n        /* \"node_modules/@openzeppelin/contracts/token/ERC20/ERC20.sol\":7791:7812  account == address(0) */\n      0xffffffffffffffffffffffffffffffffffffffff\n      and\n      sub\n        /* \"node_modules/@openzeppelin/contracts/token/ERC20/ERC20.sol\":7787:7878  if (account == address(0)) {... */\n      tag_120\n      jumpi\n        /* \"node_modules/@openzeppelin/contracts/token/ERC20/ERC20.sol\":7864:7865  0 */\n      0x00\n        /* \"node_modules/@openzeppelin/contracts/token/ERC20/ERC20.sol\":7835:7867  ERC20InvalidReceiver(address(0)) */\n      mload(0x40)\n      0xec442f0500000000000000000000000000000000000000000000000000000000\n      dup2\n      mstore\n      0x04\n      add\n      tag_121\n      swap2\n      swap1\n      tag_122\n      jump\t// in\n    tag_121:\n      mload(0x40)\n      dup1\n      swap2\n      sub\n      swap1\n      revert\n        /* \"node_modules/@openzeppelin/contracts/token/ERC20/ERC20.sol\":7787:7878  if (account == address(0)) {... */\n    tag_120:\n        /* \"node_modules/@openzeppelin/contracts/token/ERC20/ERC20.sol\":7887:7922  _update(address(0), account, value) */\n      tag_123\n        /* \"node_modules/@openzeppelin/contracts/token/ERC20/ERC20.sol\":7903:7904  0 */\n      0x00\n        /* \"node_modules/@openzeppelin/contracts/token/ERC20/ERC20.sol\":7907:7914  account */\n      dup4\n        /* \"node_modules/@openzeppelin/contracts/token/ERC20/ERC20.sol\":7916:7921  value */\n      dup4\n        /* \"node_modules/@openzeppelin/contracts/token/ERC20/ERC20.sol\":7887:7894  _update */\n      tag_28\n        /* \"node_modules/@openzeppelin/contracts/token/ERC20/ERC20.sol\":7887:7922  _update(address(0), account, value) */\n      jump\t// in\n    tag_123:\n        /* \"node_modules/@openzeppelin/contracts/token/ERC20/ERC20.sol\":7721:7929  function _mint(address account, uint256 value) internal {... */\n      pop\n      pop\n      jump\t// out\n        /* \"node_modules/@openzeppelin/contracts/token/ERC20/ERC20.sol\":2074:2163  function name() public view virtual returns (string memory) {... */\n    tag_34:\n        /* \"node_modules/@openzeppelin/contracts/token/ERC20/ERC20.sol\":2119:2132  string memory */\n      0x60\n        /* \"node_modules/@openzeppelin/contracts/token/ERC20/ERC20.sol\":2151:2156  _name */\n      0x03\n        /* \"node_modules/@openzeppelin/contracts/token/ERC20/ERC20.sol\":2144:2156  return _name */\n      dup1\n      sload\n      tag_125\n      swap1\n      tag_126\n      jump\t// in\n    tag_125:\n      dup1\n      0x1f\n      add\n      0x20\n      dup1\n      swap2\n      div\n      mul\n      0x20\n      add\n      mload(0x40)\n      swap1\n      dup2\n      add\n      0x40\n      mstore\n      dup1\n      swap3\n      swap2\n      swap1\n      dup2\n      dup2\n      mstore\n      0x20\n      add\n      dup3\n      dup1\n      sload\n      tag_127\n      swap1\n      tag_126\n      jump\t// in\n    tag_127:\n      dup1\n      iszero\n      tag_128\n      jumpi\n      dup1\n      0x1f\n      lt\n      tag_129\n      jumpi\n      0x0100\n      dup1\n      dup4\n      sload\n      div\n      mul\n      dup4\n      mstore\n      swap2\n      0x20\n      add\n      swap2\n      jump(tag_128)\n    tag_129:\n      dup3\n      add\n      swap2\n      swap1\n      0x00\n      mstore\n      keccak256(0x00, 0x20)\n      swap1\n    tag_130:\n      dup2\n      sload\n      dup2\n      mstore\n      swap1\n      0x01\n      add\n      swap1\n      0x20\n      add\n      dup1\n      dup4\n      gt\n      tag_130\n      jumpi\n      dup3\n      swap1\n      sub\n      0x1f\n      and\n      dup3\n      add\n      swap2\n    tag_128:\n      pop\n      pop\n      pop\n      pop\n      pop\n      swap1\n      pop\n        /* \"node_modules/@openzeppelin/contracts/token/ERC20/ERC20.sol\":2074:2163  function name() public view virtual returns (string memory) {... */\n      swap1\n      jump\t// out\n        /* \"node_modules/@openzeppelin/contracts/token/ERC20/ERC20.sol\":4293:4479  function approve(address spender, uint256 value) public virtual returns (bool) {... */\n    tag_41:\n        /* \"node_modules/@openzeppelin/contracts/token/ERC20/ERC20.sol\":4366:4370  bool */\n      0x00\n        /* \"node_modules/@openzeppelin/contracts/token/ERC20/ERC20.sol\":4382:4395  address owner */\n      dup1\n        /* \"node_modules/@openzeppelin/contracts/token/ERC20/ERC20.sol\":4398:4410  _msgSender() */\n      tag_132\n        /* \"node_modules/@openzeppelin/contracts/token/ERC20/ERC20.sol\":4398:4408  _msgSender */\n      tag_133\n        /* \"node_modules/@openzeppelin/contracts/token/ERC20/ERC20.sol\":4398:4410  _msgSender() */\n      jump\t// in\n    tag_132:\n        /* \"node_modules/@openzeppelin/contracts/token/ERC20/ERC20.sol\":4382:4410  address owner = _msgSender() */\n      swap1\n      pop\n        /* \"node_modules/@openzeppelin/contracts/token/ERC20/ERC20.sol\":4420:4451  _approve(owner, spender, value) */\n      tag_134\n        /* \"node_modules/@openzeppelin/contracts/token/ERC20/ERC20.sol\":4429:4434  owner */\n      dup2\n        /* \"node_modules/@openzeppelin/contracts/token/ERC20/ERC20.sol\":4436:4443  spender */\n      dup6\n        /* \"node_modules/@openzeppelin/contracts/token/ERC20/ERC20.sol\":4445:4450  value */\n      dup6\n        /* \"node_modules/@openzeppelin/contracts/token/ERC20/ERC20.sol\":4420:4428  _approve */\n      tag_135\n        /* \"node_modules/@openzeppelin/contracts/token/ERC20/ERC20.sol\":4420:4451  _approve(owner, spender, value) */\n      jump\t// in\n    tag_134:\n        /* \"node_modules/@openzeppelin/contracts/token/ERC20/ERC20.sol\":4468:4472  true */\n      0x01\n        /* \"node_modules/@openzeppelin/contracts/token/ERC20/ERC20.sol\":4461:4472  return true */\n      swap2\n      pop\n      pop\n        /* \"node_modules/@openzeppelin/contracts/token/ERC20/ERC20.sol\":4293:4479  function approve(address spender, uint256 value) public virtual returns (bool) {... */\n      swap3\n      swap2\n      pop\n      pop\n      jump\t// out\n        /* \"node_modules/@openzeppelin/contracts/token/ERC20/ERC20.sol\":3144:3241  function totalSupply() public view virtual returns (uint256) {... */\n    tag_46:\n        /* \"node_modules/@openzeppelin/contracts/token/ERC20/ERC20.sol\":3196:3203  uint256 */\n      0x00\n        /* \"node_modules/@openzeppelin/contracts/token/ERC20/ERC20.sol\":3222:3234  _totalSupply */\n      sload(0x02)\n        /* \"node_modules/@openzeppelin/contracts/token/ERC20/ERC20.sol\":3215:3234  return _totalSupply */\n      swap1\n      pop\n        /* \"node_modules/@openzeppelin/contracts/token/ERC20/ERC20.sol\":3144:3241  function totalSupply() public view virtual returns (uint256) {... */\n      swap1\n      jump\t// out\n        /* \"node_modules/@openzeppelin/contracts/token/ERC20/ERC20.sol\":5039:5283  function transferFrom(address from, address to, uint256 value) public virtual returns (bool) {... */\n    tag_53:\n        /* \"node_modules/@openzeppelin/contracts/token/ERC20/ERC20.sol\":5126:5130  bool */\n      0x00\n        /* \"node_modules/@openzeppelin/contracts/token/ERC20/ERC20.sol\":5142:5157  address spender */\n      dup1\n        /* \"node_modules/@openzeppelin/contracts/token/ERC20/ERC20.sol\":5160:5172  _msgSender() */\n      tag_138\n        /* \"node_modules/@openzeppelin/contracts/token/ERC20/ERC20.sol\":5160:5170  _msgSender */\n      tag_133\n        /* \"node_modules/@openzeppelin/contracts/token/ERC20/ERC20.sol\":5160:5172  _msgSender() */\n      jump\t// in\n    tag_138:\n        /* \"node_modules/@openzeppelin/contracts/token/ERC20/ERC20.sol\":5142:5172  address spender = _msgSender() */\n      swap1\n      pop\n        /* \"node_modules/@openzeppelin/contracts/token/ERC20/ERC20.sol\":5182:5219  _spendAllowance(from, spender, value) */\n      tag_139\n        /* \"node_modules/@openzeppelin/contracts/token/ERC20/ERC20.sol\":5198:5202  from */\n      dup6\n        /* \"node_modules/@openzeppelin/contracts/token/ERC20/ERC20.sol\":5204:5211  spender */\n      dup3\n        /* \"node_modules/@openzeppelin/contracts/token/ERC20/ERC20.sol\":5213:5218  value */\n      dup6\n        /* \"node_modules/@openzeppelin/contracts/token/ERC20/ERC20.sol\":5182:5197  _spendAllowance */\n      tag_140\n        /* \"node_modules/@openzeppelin/contracts/token/ERC20/ERC20.sol\":5182:5219  _spendAllowance(from, spender, value) */\n      jump\t// in\n    tag_139:\n        /* \"node_modules/@openzeppelin/contracts/token/ERC20/ERC20.sol\":5229:5255  _transfer(from, to, value) */\n      tag_141\n        /* \"node_modules/@openzeppelin/contracts/token/ERC20/ERC20.sol\":5239:5243  from */\n      dup6\n        /* \"node_modules/@openzeppelin/contracts/token/ERC20/ERC20.sol\":5245:5247  to */\n      dup6\n        /* \"node_modules/@openzeppelin/contracts/token/ERC20/ERC20.sol\":5249:5254  value */\n      dup6\n        /* \"node_modules/@openzeppelin/contracts/token/ERC20/ERC20.sol\":5229:5238  _transfer */\n      tag_142\n        /* \"node_modules/@openzeppelin/contracts/token/ERC20/ERC20.sol\":5229:5255  _transfer(from, to, value) */\n      jump\t// in\n    tag_141:\n        /* \"node_modules/@openzeppelin/contracts/token/ERC20/ERC20.sol\":5272:5276  true */\n      0x01\n        /* \"node_modules/@openzeppelin/contracts/token/ERC20/ERC20.sol\":5265:5276  return true */\n      swap2\n      pop\n      pop\n        /* \"node_modules/@openzeppelin/contracts/token/ERC20/ERC20.sol\":5039:5283  function transferFrom(address from, address to, uint256 value) public virtual returns (bool) {... */\n      swap4\n      swap3\n      pop\n      pop\n      pop\n      jump\t// out\n        /* \"node_modules/@openzeppelin/contracts/token/ERC20/ERC20.sol\":3002:3084  function decimals() public view virtual returns (uint8) {... */\n    tag_57:\n        /* \"node_modules/@openzeppelin/contracts/token/ERC20/ERC20.sol\":3051:3056  uint8 */\n      0x00\n        /* \"node_modules/@openzeppelin/contracts/token/ERC20/ERC20.sol\":3075:3077  18 */\n      0x12\n        /* \"node_modules/@openzeppelin/contracts/token/ERC20/ERC20.sol\":3068:3077  return 18 */\n      swap1\n      pop\n        /* \"node_modules/@openzeppelin/contracts/token/ERC20/ERC20.sol\":3002:3084  function decimals() public view virtual returns (uint8) {... */\n      swap1\n      jump\t// out\n        /* \"Shop.sol\":575:600  Product[] public products */\n    tag_69:\n      0x06\n      dup2\n      dup2\n      sload\n      dup2\n      lt\n      tag_144\n      jumpi\n      0x00\n      dup1\n      revert\n    tag_144:\n      swap1\n      0x00\n      mstore\n      keccak256(0x00, 0x20)\n      swap1\n      0x03\n      mul\n      add\n      0x00\n      swap2\n      pop\n      swap1\n      pop\n      dup1\n      0x00\n      add\n      sload\n      swap1\n      dup1\n      0x01\n      add\n      dup1\n      sload\n      tag_146\n      swap1\n      tag_126\n      jump\t// in\n    tag_146:\n      dup1\n      0x1f\n      add\n      0x20\n      dup1\n      swap2\n      div\n      mul\n      0x20\n      add\n      mload(0x40)\n      swap1\n      dup2\n      add\n      0x40\n      mstore\n      dup1\n      swap3\n      swap2\n      swap1\n      dup2\n      dup2\n      mstore\n      0x20\n      add\n      dup3\n      dup1\n      sload\n      tag_147\n      swap1\n      tag_126\n      jump\t// in\n    tag_147:\n      dup1\n      iszero\n      tag_148\n      jumpi\n      dup1\n      0x1f\n      lt\n      tag_149\n      jumpi\n      0x0100\n      dup1\n      dup4\n      sload\n      div\n      mul\n      dup4\n      mstore\n      swap2\n      0x20\n      add\n      swap2\n      jump(tag_148)\n    tag_149:\n      dup3\n      add\n      swap2\n      swap1\n      0x00\n      mstore\n      keccak256(0x00, 0x20)\n      swap1\n    tag_150:\n      dup2\n      sload\n      dup2\n      mstore\n      swap1\n      0x01\n      add\n      swap1\n      0x20\n      add\n      dup1\n      dup4\n      gt\n      tag_150\n      jumpi\n      dup3\n      swap1\n      sub\n      0x1f\n      and\n      dup3\n      add\n      swap2\n    tag_148:\n      pop\n      pop\n      pop\n      pop\n      pop\n      swap1\n      dup1\n      0x02\n      add\n      sload\n      swap1\n      pop\n      dup4\n      jump\t// out\n        /* \"Shop.sol\":1677:2444  function buyProduct(uint256 id) public returns (bool) {... */\n    tag_75:\n        /* \"Shop.sol\":1725:1729  bool */\n      0x00\n        /* \"Shop.sol\":1742:1764  Product memory product */\n      tag_152\n      tag_153\n      jump\t// in\n    tag_152:\n        /* \"Shop.sol\":1818:1827  uint256 i */\n      0x00\n        /* \"Shop.sol\":1813:1989  for (uint256 i=0; i < products.length; i++) {... */\n    tag_154:\n        /* \"Shop.sol\":1835:1843  products */\n      0x06\n        /* \"Shop.sol\":1835:1850  products.length */\n      dup1\n      sload\n      swap1\n      pop\n        /* \"Shop.sol\":1831:1832  i */\n      dup2\n        /* \"Shop.sol\":1831:1850  i < products.length */\n      lt\n        /* \"Shop.sol\":1813:1989  for (uint256 i=0; i < products.length; i++) {... */\n      iszero\n      tag_155\n      jumpi\n        /* \"Shop.sol\":1894:1896  id */\n      dup4\n        /* \"Shop.sol\":1876:1884  products */\n      0x06\n        /* \"Shop.sol\":1885:1886  i */\n      dup3\n        /* \"Shop.sol\":1876:1887  products[i] */\n      dup2\n      sload\n      dup2\n      lt\n      tag_157\n      jumpi\n      tag_158\n      tag_159\n      jump\t// in\n    tag_158:\n    tag_157:\n      swap1\n      0x00\n      mstore\n      keccak256(0x00, 0x20)\n      swap1\n      0x03\n      mul\n      add\n        /* \"Shop.sol\":1876:1890  products[i].id */\n      0x00\n      add\n      sload\n        /* \"Shop.sol\":1876:1896  products[i].id == id */\n      sub\n        /* \"Shop.sol\":1872:1978  if (products[i].id == id) {... */\n      tag_161\n      jumpi\n        /* \"Shop.sol\":1927:1935  products */\n      0x06\n        /* \"Shop.sol\":1936:1937  i */\n      dup2\n        /* \"Shop.sol\":1927:1938  products[i] */\n      dup2\n      sload\n      dup2\n      lt\n      tag_162\n      jumpi\n      tag_163\n      tag_159\n      jump\t// in\n    tag_163:\n    tag_162:\n      swap1\n      0x00\n      mstore\n      keccak256(0x00, 0x20)\n      swap1\n      0x03\n      mul\n      add\n        /* \"Shop.sol\":1917:1938  product = products[i] */\n      mload(0x40)\n      dup1\n      0x60\n      add\n      0x40\n      mstore\n      swap1\n      dup2\n      0x00\n      dup3\n      add\n      sload\n      dup2\n      mstore\n      0x20\n      add\n      0x01\n      dup3\n      add\n      dup1\n      sload\n      tag_165\n      swap1\n      tag_126\n      jump\t// in\n    tag_165:\n      dup1\n      0x1f\n      add\n      0x20\n      dup1\n      swap2\n      div\n      mul\n      0x20\n      add\n      mload(0x40)\n      swap1\n      dup2\n      add\n      0x40\n      mstore\n      dup1\n      swap3\n      swap2\n      swap1\n      dup2\n      dup2\n      mstore\n      0x20\n      add\n      dup3\n      dup1\n      sload\n      tag_166\n      swap1\n      tag_126\n      jump\t// in\n    tag_166:\n      dup1\n      iszero\n      tag_167\n      jumpi\n      dup1\n      0x1f\n      lt\n      tag_168\n      jumpi\n      0x0100\n      dup1\n      dup4\n      sload\n      div\n      mul\n      dup4\n      mstore\n      swap2\n      0x20\n      add\n      swap2\n      jump(tag_167)\n    tag_168:\n      dup3\n      add\n      swap2\n      swap1\n      0x00\n      mstore\n      keccak256(0x00, 0x20)\n      swap1\n    tag_169:\n      dup2\n      sload\n      dup2\n      mstore\n      swap1\n      0x01\n      add\n      swap1\n      0x20\n      add\n      dup1\n      dup4\n      gt\n      tag_169\n      jumpi\n      dup3\n      swap1\n      sub\n      0x1f\n      and\n      dup3\n      add\n      swap2\n    tag_167:\n      pop\n      pop\n      pop\n      pop\n      pop\n      dup2\n      mstore\n      0x20\n      add\n      0x02\n      dup3\n      add\n      sload\n      dup2\n      mstore\n      pop\n      pop\n      swap2\n      pop\n        /* \"Shop.sol\":1957:1962  break */\n      jump(tag_155)\n        /* \"Shop.sol\":1872:1978  if (products[i].id == id) {... */\n    tag_161:\n        /* \"Shop.sol\":1852:1855  i++ */\n      dup1\n      dup1\n      tag_170\n      swap1\n      tag_171\n      jump\t// in\n    tag_170:\n      swap2\n      pop\n      pop\n        /* \"Shop.sol\":1813:1989  for (uint256 i=0; i < products.length; i++) {... */\n      jump(tag_154)\n    tag_155:\n      pop\n        /* \"Shop.sol\":2074:2081  product */\n      dup1\n        /* \"Shop.sol\":2074:2087  product.price */\n      0x40\n      add\n      mload\n        /* \"Shop.sol\":2049:2070  balanceOf(msg.sender) */\n      tag_172\n        /* \"Shop.sol\":2059:2069  msg.sender */\n      caller\n        /* \"Shop.sol\":2049:2058  balanceOf */\n      tag_25\n        /* \"Shop.sol\":2049:2070  balanceOf(msg.sender) */\n      jump\t// in\n    tag_172:\n        /* \"Shop.sol\":2049:2087  balanceOf(msg.sender) >= product.price */\n      lt\n      iszero\n        /* \"Shop.sol\":2041:2088  require(balanceOf(msg.sender) >= product.price) */\n      tag_173\n      jumpi\n      0x00\n      dup1\n      revert\n    tag_173:\n        /* \"Shop.sol\":2270:2311  _update(msg.sender, owner, product.price) */\n      tag_174\n        /* \"Shop.sol\":2278:2288  msg.sender */\n      caller\n        /* \"Shop.sol\":2290:2295  owner */\n      0x05\n      0x00\n      swap1\n      sload\n      swap1\n      0x0100\n      exp\n      swap1\n      div\n      0xffffffffffffffffffffffffffffffffffffffff\n      and\n        /* \"Shop.sol\":2297:2304  product */\n      dup4\n        /* \"Shop.sol\":2297:2310  product.price */\n      0x40\n      add\n      mload\n        /* \"Shop.sol\":2270:2277  _update */\n      tag_28\n        /* \"Shop.sol\":2270:2311  _update(msg.sender, owner, product.price) */\n      jump\t// in\n    tag_174:\n        /* \"Shop.sol\":2374:2386  userProducts */\n      0x08\n        /* \"Shop.sol\":2374:2398  userProducts[msg.sender] */\n      0x00\n        /* \"Shop.sol\":2387:2397  msg.sender */\n      caller\n        /* \"Shop.sol\":2374:2398  userProducts[msg.sender] */\n      0xffffffffffffffffffffffffffffffffffffffff\n      and\n      0xffffffffffffffffffffffffffffffffffffffff\n      and\n      dup2\n      mstore\n      0x20\n      add\n      swap1\n      dup2\n      mstore\n      0x20\n      add\n      0x00\n      keccak256\n        /* \"Shop.sol\":2404:2411  product */\n      dup2\n        /* \"Shop.sol\":2374:2412  userProducts[msg.sender].push(product) */\n      swap1\n      dup1\n      0x01\n      dup2\n      sload\n      add\n      dup1\n      dup3\n      sstore\n      dup1\n      swap2\n      pop\n      pop\n      0x01\n      swap1\n      sub\n      swap1\n      0x00\n      mstore\n      keccak256(0x00, 0x20)\n      swap1\n      0x03\n      mul\n      add\n      0x00\n      swap1\n      swap2\n      swap1\n      swap2\n      swap1\n      swap2\n      pop\n      0x00\n      dup3\n      add\n      mload\n      dup2\n      0x00\n      add\n      sstore\n      0x20\n      dup3\n      add\n      mload\n      dup2\n      0x01\n      add\n      swap1\n      dup2\n      tag_176\n      swap2\n      swap1\n      tag_177\n      jump\t// in\n    tag_176:\n      pop\n      0x40\n      dup3\n      add\n      mload\n      dup2\n      0x02\n      add\n      sstore\n      pop\n      pop\n        /* \"Shop.sol\":2432:2436  true */\n      0x01\n        /* \"Shop.sol\":2425:2436  return true */\n      swap2\n      pop\n      pop\n        /* \"Shop.sol\":1677:2444  function buyProduct(uint256 id) public returns (bool) {... */\n      swap2\n      swap1\n      pop\n      jump\t// out\n        /* \"Shop.sol\":2474:2769  function registerProduct(string memory _name, uint256 _price) public returns (bool) {... */\n    tag_81:\n        /* \"Shop.sol\":2552:2556  bool */\n      0x00\n        /* \"Shop.sol\":2611:2624  uint256 price */\n      dup1\n        /* \"Shop.sol\":2643:2653  decimals() */\n      tag_179\n        /* \"Shop.sol\":2643:2651  decimals */\n      tag_57\n        /* \"Shop.sol\":2643:2653  decimals() */\n      jump\t// in\n    tag_179:\n        /* \"Shop.sol\":2637:2639  10 */\n      0x0a\n        /* \"Shop.sol\":2637:2653  10 ** decimals() */\n      tag_180\n      swap2\n      swap1\n      tag_181\n      jump\t// in\n    tag_180:\n        /* \"Shop.sol\":2627:2633  _price */\n      dup4\n        /* \"Shop.sol\":2627:2654  _price * (10 ** decimals()) */\n      tag_182\n      swap2\n      swap1\n      tag_23\n      jump\t// in\n    tag_182:\n        /* \"Shop.sol\":2611:2654  uint256 price = _price * (10 ** decimals()) */\n      swap1\n      pop\n        /* \"Shop.sol\":2665:2673  products */\n      0x06\n        /* \"Shop.sol\":2679:2711  Product(productId, _name, price) */\n      mload(0x40)\n      dup1\n      0x60\n      add\n      0x40\n      mstore\n      dup1\n        /* \"Shop.sol\":2687:2696  productId */\n      sload(0x07)\n        /* \"Shop.sol\":2679:2711  Product(productId, _name, price) */\n      dup2\n      mstore\n      0x20\n      add\n        /* \"Shop.sol\":2698:2703  _name */\n      dup7\n        /* \"Shop.sol\":2679:2711  Product(productId, _name, price) */\n      dup2\n      mstore\n      0x20\n      add\n        /* \"Shop.sol\":2705:2710  price */\n      dup4\n        /* \"Shop.sol\":2679:2711  Product(productId, _name, price) */\n      dup2\n      mstore\n      pop\n        /* \"Shop.sol\":2665:2712  products.push(Product(productId, _name, price)) */\n      swap1\n      dup1\n      0x01\n      dup2\n      sload\n      add\n      dup1\n      dup3\n      sstore\n      dup1\n      swap2\n      pop\n      pop\n      0x01\n      swap1\n      sub\n      swap1\n      0x00\n      mstore\n      keccak256(0x00, 0x20)\n      swap1\n      0x03\n      mul\n      add\n      0x00\n      swap1\n      swap2\n      swap1\n      swap2\n      swap1\n      swap2\n      pop\n      0x00\n      dup3\n      add\n      mload\n      dup2\n      0x00\n      add\n      sstore\n      0x20\n      dup3\n      add\n      mload\n      dup2\n      0x01\n      add\n      swap1\n      dup2\n      tag_184\n      swap2\n      swap1\n      tag_177\n      jump\t// in\n    tag_184:\n      pop\n      0x40\n      dup3\n      add\n      mload\n      dup2\n      0x02\n      add\n      sstore\n      pop\n      pop\n        /* \"Shop.sol\":2736:2737  1 */\n      0x01\n        /* \"Shop.sol\":2723:2732  productId */\n      0x07\n      0x00\n        /* \"Shop.sol\":2723:2737  productId += 1 */\n      dup3\n      dup3\n      sload\n      tag_185\n      swap2\n      swap1\n      tag_111\n      jump\t// in\n    tag_185:\n      swap3\n      pop\n      pop\n      dup2\n      swap1\n      sstore\n      pop\n        /* \"Shop.sol\":2757:2761  true */\n      0x01\n        /* \"Shop.sol\":2750:2761  return true */\n      swap2\n      pop\n      pop\n        /* \"Shop.sol\":2474:2769  function registerProduct(string memory _name, uint256 _price) public returns (bool) {... */\n      swap3\n      swap2\n      pop\n      pop\n      jump\t// out\n        /* \"node_modules/@openzeppelin/contracts/token/ERC20/ERC20.sol\":2276:2369  function symbol() public view virtual returns (string memory) {... */\n    tag_85:\n        /* \"node_modules/@openzeppelin/contracts/token/ERC20/ERC20.sol\":2323:2336  string memory */\n      0x60\n        /* \"node_modules/@openzeppelin/contracts/token/ERC20/ERC20.sol\":2355:2362  _symbol */\n      0x04\n        /* \"node_modules/@openzeppelin/contracts/token/ERC20/ERC20.sol\":2348:2362  return _symbol */\n      dup1\n      sload\n      tag_187\n      swap1\n      tag_126\n      jump\t// in\n    tag_187:\n      dup1\n      0x1f\n      add\n      0x20\n      dup1\n      swap2\n      div\n      mul\n      0x20\n      add\n      mload(0x40)\n      swap1\n      dup2\n      add\n      0x40\n      mstore\n      dup1\n      swap3\n      swap2\n      swap1\n      dup2\n      dup2\n      mstore\n      0x20\n      add\n      dup3\n      dup1\n      sload\n      tag_188\n      swap1\n      tag_126\n      jump\t// in\n    tag_188:\n      dup1\n      iszero\n      tag_189\n      jumpi\n      dup1\n      0x1f\n      lt\n      tag_190\n      jumpi\n      0x0100\n      dup1\n      dup4\n      sload\n      div\n      mul\n      dup4\n      mstore\n      swap2\n      0x20\n      add\n      swap2\n      jump(tag_189)\n    tag_190:\n      dup3\n      add\n      swap2\n      swap1\n      0x00\n      mstore\n      keccak256(0x00, 0x20)\n      swap1\n    tag_191:\n      dup2\n      sload\n      dup2\n      mstore\n      swap1\n      0x01\n      add\n      swap1\n      0x20\n      add\n      dup1\n      dup4\n      gt\n      tag_191\n      jumpi\n      dup3\n      swap1\n      sub\n      0x1f\n      and\n      dup3\n      add\n      swap2\n    tag_189:\n      pop\n      pop\n      pop\n      pop\n      pop\n      swap1\n      pop\n        /* \"node_modules/@openzeppelin/contracts/token/ERC20/ERC20.sol\":2276:2369  function symbol() public view virtual returns (string memory) {... */\n      swap1\n      jump\t// out\n        /* \"node_modules/@openzeppelin/contracts/token/ERC20/ERC20.sol\":3610:3788  function transfer(address to, uint256 value) public virtual returns (bool) {... */\n    tag_90:\n        /* \"node_modules/@openzeppelin/contracts/token/ERC20/ERC20.sol\":3679:3683  bool */\n      0x00\n        /* \"node_modules/@openzeppelin/contracts/token/ERC20/ERC20.sol\":3695:3708  address owner */\n      dup1\n        /* \"node_modules/@openzeppelin/contracts/token/ERC20/ERC20.sol\":3711:3723  _msgSender() */\n      tag_193\n        /* \"node_modules/@openzeppelin/contracts/token/ERC20/ERC20.sol\":3711:3721  _msgSender */\n      tag_133\n        /* \"node_modules/@openzeppelin/contracts/token/ERC20/ERC20.sol\":3711:3723  _msgSender() */\n      jump\t// in\n    tag_193:\n        /* \"node_modules/@openzeppelin/contracts/token/ERC20/ERC20.sol\":3695:3723  address owner = _msgSender() */\n      swap1\n      pop\n        /* \"node_modules/@openzeppelin/contracts/token/ERC20/ERC20.sol\":3733:3760  _transfer(owner, to, value) */\n      tag_194\n        /* \"node_modules/@openzeppelin/contracts/token/ERC20/ERC20.sol\":3743:3748  owner */\n      dup2\n        /* \"node_modules/@openzeppelin/contracts/token/ERC20/ERC20.sol\":3750:3752  to */\n      dup6\n        /* \"node_modules/@openzeppelin/contracts/token/ERC20/ERC20.sol\":3754:3759  value */\n      dup6\n        /* \"node_modules/@openzeppelin/contracts/token/ERC20/ERC20.sol\":3733:3742  _transfer */\n      tag_142\n        /* \"node_modules/@openzeppelin/contracts/token/ERC20/ERC20.sol\":3733:3760  _transfer(owner, to, value) */\n      jump\t// in\n    tag_194:\n        /* \"node_modules/@openzeppelin/contracts/token/ERC20/ERC20.sol\":3777:3781  true */\n      0x01\n        /* \"node_modules/@openzeppelin/contracts/token/ERC20/ERC20.sol\":3770:3781  return true */\n      swap2\n      pop\n      pop\n        /* \"node_modules/@openzeppelin/contracts/token/ERC20/ERC20.sol\":3610:3788  function transfer(address to, uint256 value) public virtual returns (bool) {... */\n      swap3\n      swap2\n      pop\n      pop\n      jump\t// out\n        /* \"Shop.sol\":1531:1647  function getUserProducts() public view returns (Product[] memory) {... */\n    tag_94:\n        /* \"Shop.sol\":1579:1595  Product[] memory */\n      0x60\n        /* \"Shop.sol\":1615:1627  userProducts */\n      0x08\n        /* \"Shop.sol\":1615:1639  userProducts[msg.sender] */\n      0x00\n        /* \"Shop.sol\":1628:1638  msg.sender */\n      caller\n        /* \"Shop.sol\":1615:1639  userProducts[msg.sender] */\n      0xffffffffffffffffffffffffffffffffffffffff\n      and\n      0xffffffffffffffffffffffffffffffffffffffff\n      and\n      dup2\n      mstore\n      0x20\n      add\n      swap1\n      dup2\n      mstore\n      0x20\n      add\n      0x00\n      keccak256\n        /* \"Shop.sol\":1608:1639  return userProducts[msg.sender] */\n      dup1\n      sload\n      dup1\n      0x20\n      mul\n      0x20\n      add\n      mload(0x40)\n      swap1\n      dup2\n      add\n      0x40\n      mstore\n      dup1\n      swap3\n      swap2\n      swap1\n      dup2\n      dup2\n      mstore\n      0x20\n      add\n      0x00\n      swap1\n    tag_196:\n      dup3\n      dup3\n      lt\n      iszero\n      tag_197\n      jumpi\n      dup4\n      dup3\n      swap1\n      0x00\n      mstore\n      keccak256(0x00, 0x20)\n      swap1\n      0x03\n      mul\n      add\n      mload(0x40)\n      dup1\n      0x60\n      add\n      0x40\n      mstore\n      swap1\n      dup2\n      0x00\n      dup3\n      add\n      sload\n      dup2\n      mstore\n      0x20\n      add\n      0x01\n      dup3\n      add\n      dup1\n      sload\n      tag_199\n      swap1\n      tag_126\n      jump\t// in\n    tag_199:\n      dup1\n      0x1f\n      add\n      0x20\n      dup1\n      swap2\n      div\n      mul\n      0x20\n      add\n      mload(0x40)\n      swap1\n      dup2\n      add\n      0x40\n      mstore\n      dup1\n      swap3\n      swap2\n      swap1\n      dup2\n      dup2\n      mstore\n      0x20\n      add\n      dup3\n      dup1\n      sload\n      tag_200\n      swap1\n      tag_126\n      jump\t// in\n    tag_200:\n      dup1\n      iszero\n      tag_201\n      jumpi\n      dup1\n      0x1f\n      lt\n      tag_202\n      jumpi\n      0x0100\n      dup1\n      dup4\n      sload\n      div\n      mul\n      dup4\n      mstore\n      swap2\n      0x20\n      add\n      swap2\n      jump(tag_201)\n    tag_202:\n      dup3\n      add\n      swap2\n      swap1\n      0x00\n      mstore\n      keccak256(0x00, 0x20)\n      swap1\n    tag_203:\n      dup2\n      sload\n      dup2\n      mstore\n      swap1\n      0x01\n      add\n      swap1\n      0x20\n      add\n      dup1\n      dup4\n      gt\n      tag_203\n      jumpi\n      dup3\n      swap1\n      sub\n      0x1f\n      and\n      dup3\n      add\n      swap2\n    tag_201:\n      pop\n      pop\n      pop\n      pop\n      pop\n      dup2\n      mstore\n      0x20\n      add\n      0x02\n      dup3\n      add\n      sload\n      dup2\n      mstore\n      pop\n      pop\n      dup2\n      mstore\n      0x20\n      add\n      swap1\n      0x01\n      add\n      swap1\n      jump(tag_196)\n    tag_197:\n      pop\n      pop\n      pop\n      pop\n      swap1\n      pop\n        /* \"Shop.sol\":1531:1647  function getUserProducts() public view returns (Product[] memory) {... */\n      swap1\n      jump\t// out\n        /* \"Shop.sol\":1368:1464  function getProducts() public view returns (Product[] memory) {... */\n    tag_99:\n        /* \"Shop.sol\":1412:1428  Product[] memory */\n      0x60\n        /* \"Shop.sol\":1448:1456  products */\n      0x06\n        /* \"Shop.sol\":1441:1456  return products */\n      dup1\n      sload\n      dup1\n      0x20\n      mul\n      0x20\n      add\n      mload(0x40)\n      swap1\n      dup2\n      add\n      0x40\n      mstore\n      dup1\n      swap3\n      swap2\n      swap1\n      dup2\n      dup2\n      mstore\n      0x20\n      add\n      0x00\n      swap1\n    tag_205:\n      dup3\n      dup3\n      lt\n      iszero\n      tag_206\n      jumpi\n      dup4\n      dup3\n      swap1\n      0x00\n      mstore\n      keccak256(0x00, 0x20)\n      swap1\n      0x03\n      mul\n      add\n      mload(0x40)\n      dup1\n      0x60\n      add\n      0x40\n      mstore\n      swap1\n      dup2\n      0x00\n      dup3\n      add\n      sload\n      dup2\n      mstore\n      0x20\n      add\n      0x01\n      dup3\n      add\n      dup1\n      sload\n      tag_208\n      swap1\n      tag_126\n      jump\t// in\n    tag_208:\n      dup1\n      0x1f\n      add\n      0x20\n      dup1\n      swap2\n      div\n      mul\n      0x20\n      add\n      mload(0x40)\n      swap1\n      dup2\n      add\n      0x40\n      mstore\n      dup1\n      swap3\n      swap2\n      swap1\n      dup2\n      dup2\n      mstore\n      0x20\n      add\n      dup3\n      dup1\n      sload\n      tag_209\n      swap1\n      tag_126\n      jump\t// in\n    tag_209:\n      dup1\n      iszero\n      tag_210\n      jumpi\n      dup1\n      0x1f\n      lt\n      tag_211\n      jumpi\n      0x0100\n      dup1\n      dup4\n      sload\n      div\n      mul\n      dup4\n      mstore\n      swap2\n      0x20\n      add\n      swap2\n      jump(tag_210)\n    tag_211:\n      dup3\n      add\n      swap2\n      swap1\n      0x00\n      mstore\n      keccak256(0x00, 0x20)\n      swap1\n    tag_212:\n      dup2\n      sload\n      dup2\n      mstore\n      swap1\n      0x01\n      add\n      swap1\n      0x20\n      add\n      dup1\n      dup4\n      gt\n      tag_212\n      jumpi\n      dup3\n      swap1\n      sub\n      0x1f\n      and\n      dup3\n      add\n      swap2\n    tag_210:\n      pop\n      pop\n      pop\n      pop\n      pop\n      dup2\n      mstore\n      0x20\n      add\n      0x02\n      dup3\n      add\n      sload\n      dup2\n      mstore\n      pop\n      pop\n      dup2\n      mstore\n      0x20\n      add\n      swap1\n      0x01\n      add\n      swap1\n      jump(tag_205)\n    tag_206:\n      pop\n      pop\n      pop\n      pop\n      swap1\n      pop\n        /* \"Shop.sol\":1368:1464  function getProducts() public view returns (Product[] memory) {... */\n      swap1\n      jump\t// out\n        /* \"node_modules/@openzeppelin/contracts/token/ERC20/ERC20.sol\":3846:3986  function allowance(address owner, address spender) public view virtual returns (uint256) {... */\n    tag_105:\n        /* \"node_modules/@openzeppelin/contracts/token/ERC20/ERC20.sol\":3926:3933  uint256 */\n      0x00\n        /* \"node_modules/@openzeppelin/contracts/token/ERC20/ERC20.sol\":3952:3963  _allowances */\n      0x01\n        /* \"node_modules/@openzeppelin/contracts/token/ERC20/ERC20.sol\":3952:3970  _allowances[owner] */\n      0x00\n        /* \"node_modules/@openzeppelin/contracts/token/ERC20/ERC20.sol\":3964:3969  owner */\n      dup5\n        /* \"node_modules/@openzeppelin/contracts/token/ERC20/ERC20.sol\":3952:3970  _allowances[owner] */\n      0xffffffffffffffffffffffffffffffffffffffff\n      and\n      0xffffffffffffffffffffffffffffffffffffffff\n      and\n      dup2\n      mstore\n      0x20\n      add\n      swap1\n      dup2\n      mstore\n      0x20\n      add\n      0x00\n      keccak256\n        /* \"node_modules/@openzeppelin/contracts/token/ERC20/ERC20.sol\":3952:3979  _allowances[owner][spender] */\n      0x00\n        /* \"node_modules/@openzeppelin/contracts/token/ERC20/ERC20.sol\":3971:3978  spender */\n      dup4\n        /* \"node_modules/@openzeppelin/contracts/token/ERC20/ERC20.sol\":3952:3979  _allowances[owner][spender] */\n      0xffffffffffffffffffffffffffffffffffffffff\n      and\n      0xffffffffffffffffffffffffffffffffffffffff\n      and\n      dup2\n      mstore\n      0x20\n      add\n      swap1\n      dup2\n      mstore\n      0x20\n      add\n      0x00\n      keccak256\n      sload\n        /* \"node_modules/@openzeppelin/contracts/token/ERC20/ERC20.sol\":3945:3979  return _allowances[owner][spender] */\n      swap1\n      pop\n        /* \"node_modules/@openzeppelin/contracts/token/ERC20/ERC20.sol\":3846:3986  function allowance(address owner, address spender) public view virtual returns (uint256) {... */\n      swap3\n      swap2\n      pop\n      pop\n      jump\t// out\n        /* \"node_modules/@openzeppelin/contracts/utils/Context.sol\":656:752  function _msgSender() internal view virtual returns (address) {... */\n    tag_133:\n        /* \"node_modules/@openzeppelin/contracts/utils/Context.sol\":709:716  address */\n      0x00\n        /* \"node_modules/@openzeppelin/contracts/utils/Context.sol\":735:745  msg.sender */\n      caller\n        /* \"node_modules/@openzeppelin/contracts/utils/Context.sol\":728:745  return msg.sender */\n      swap1\n      pop\n        /* \"node_modules/@openzeppelin/contracts/utils/Context.sol\":656:752  function _msgSender() internal view virtual returns (address) {... */\n      swap1\n      jump\t// out\n        /* \"node_modules/@openzeppelin/contracts/token/ERC20/ERC20.sol\":8989:9117  function _approve(address owner, address spender, uint256 value) internal {... */\n    tag_135:\n        /* \"node_modules/@openzeppelin/contracts/token/ERC20/ERC20.sol\":9073:9110  _approve(owner, spender, value, true) */\n      tag_216\n        /* \"node_modules/@openzeppelin/contracts/token/ERC20/ERC20.sol\":9082:9087  owner */\n      dup4\n        /* \"node_modules/@openzeppelin/contracts/token/ERC20/ERC20.sol\":9089:9096  spender */\n      dup4\n        /* \"node_modules/@openzeppelin/contracts/token/ERC20/ERC20.sol\":9098:9103  value */\n      dup4\n        /* \"node_modules/@openzeppelin/contracts/token/ERC20/ERC20.sol\":9105:9109  true */\n      0x01\n        /* \"node_modules/@openzeppelin/contracts/token/ERC20/ERC20.sol\":9073:9081  _approve */\n      tag_217\n        /* \"node_modules/@openzeppelin/contracts/token/ERC20/ERC20.sol\":9073:9110  _approve(owner, spender, value, true) */\n      jump\t// in\n    tag_216:\n        /* \"node_modules/@openzeppelin/contracts/token/ERC20/ERC20.sol\":8989:9117  function _approve(address owner, address spender, uint256 value) internal {... */\n      pop\n      pop\n      pop\n      jump\t// out\n        /* \"node_modules/@openzeppelin/contracts/token/ERC20/ERC20.sol\":10663:11140  function _spendAllowance(address owner, address spender, uint256 value) internal virtual {... */\n    tag_140:\n        /* \"node_modules/@openzeppelin/contracts/token/ERC20/ERC20.sol\":10762:10786  uint256 currentAllowance */\n      0x00\n        /* \"node_modules/@openzeppelin/contracts/token/ERC20/ERC20.sol\":10789:10814  allowance(owner, spender) */\n      tag_219\n        /* \"node_modules/@openzeppelin/contracts/token/ERC20/ERC20.sol\":10799:10804  owner */\n      dup5\n        /* \"node_modules/@openzeppelin/contracts/token/ERC20/ERC20.sol\":10806:10813  spender */\n      dup5\n        /* \"node_modules/@openzeppelin/contracts/token/ERC20/ERC20.sol\":10789:10798  allowance */\n      tag_105\n        /* \"node_modules/@openzeppelin/contracts/token/ERC20/ERC20.sol\":10789:10814  allowance(owner, spender) */\n      jump\t// in\n    tag_219:\n        /* \"node_modules/@openzeppelin/contracts/token/ERC20/ERC20.sol\":10762:10814  uint256 currentAllowance = allowance(owner, spender) */\n      swap1\n      pop\n        /* \"node_modules/@openzeppelin/contracts/token/ERC20/ERC20.sol\":10848:10865  type(uint256).max */\n      0xffffffffffffffffffffffffffffffffffffffffffffffffffffffffffffffff\n        /* \"node_modules/@openzeppelin/contracts/token/ERC20/ERC20.sol\":10828:10844  currentAllowance */\n      dup2\n        /* \"node_modules/@openzeppelin/contracts/token/ERC20/ERC20.sol\":10828:10865  currentAllowance != type(uint256).max */\n      eq\n        /* \"node_modules/@openzeppelin/contracts/token/ERC20/ERC20.sol\":10824:11134  if (currentAllowance != type(uint256).max) {... */\n      tag_220\n      jumpi\n        /* \"node_modules/@openzeppelin/contracts/token/ERC20/ERC20.sol\":10904:10909  value */\n      dup2\n        /* \"node_modules/@openzeppelin/contracts/token/ERC20/ERC20.sol\":10885:10901  currentAllowance */\n      dup2\n        /* \"node_modules/@openzeppelin/contracts/token/ERC20/ERC20.sol\":10885:10909  currentAllowance < value */\n      lt\n        /* \"node_modules/@openzeppelin/contracts/token/ERC20/ERC20.sol\":10881:11011  if (currentAllowance < value) {... */\n      iszero\n      tag_221\n      jumpi\n        /* \"node_modules/@openzeppelin/contracts/token/ERC20/ERC20.sol\":10963:10970  spender */\n      dup3\n        /* \"node_modules/@openzeppelin/contracts/token/ERC20/ERC20.sol\":10972:10988  currentAllowance */\n      dup2\n        /* \"node_modules/@openzeppelin/contracts/token/ERC20/ERC20.sol\":10990:10995  value */\n      dup4\n        /* \"node_modules/@openzeppelin/contracts/token/ERC20/ERC20.sol\":10936:10996  ERC20InsufficientAllowance(spender, currentAllowance, value) */\n      mload(0x40)\n      0xfb8f41b200000000000000000000000000000000000000000000000000000000\n      dup2\n      mstore\n      0x04\n      add\n      tag_222\n      swap4\n      swap3\n      swap2\n      swap1\n      tag_115\n      jump\t// in\n    tag_222:\n      mload(0x40)\n      dup1\n      swap2\n      sub\n      swap1\n      revert\n        /* \"node_modules/@openzeppelin/contracts/token/ERC20/ERC20.sol\":10881:11011  if (currentAllowance < value) {... */\n    tag_221:\n        /* \"node_modules/@openzeppelin/contracts/token/ERC20/ERC20.sol\":11052:11109  _approve(owner, spender, currentAllowance - value, false) */\n      tag_223\n        /* \"node_modules/@openzeppelin/contracts/token/ERC20/ERC20.sol\":11061:11066  owner */\n      dup5\n        /* \"node_modules/@openzeppelin/contracts/token/ERC20/ERC20.sol\":11068:11075  spender */\n      dup5\n        /* \"node_modules/@openzeppelin/contracts/token/ERC20/ERC20.sol\":11096:11101  value */\n      dup5\n        /* \"node_modules/@openzeppelin/contracts/token/ERC20/ERC20.sol\":11077:11093  currentAllowance */\n      dup5\n        /* \"node_modules/@openzeppelin/contracts/token/ERC20/ERC20.sol\":11077:11101  currentAllowance - value */\n      sub\n        /* \"node_modules/@openzeppelin/contracts/token/ERC20/ERC20.sol\":11103:11108  false */\n      0x00\n        /* \"node_modules/@openzeppelin/contracts/token/ERC20/ERC20.sol\":11052:11060  _approve */\n      tag_217\n        /* \"node_modules/@openzeppelin/contracts/token/ERC20/ERC20.sol\":11052:11109  _approve(owner, spender, currentAllowance - value, false) */\n      jump\t// in\n    tag_223:\n        /* \"node_modules/@openzeppelin/contracts/token/ERC20/ERC20.sol\":10824:11134  if (currentAllowance != type(uint256).max) {... */\n    tag_220:\n        /* \"node_modules/@openzeppelin/contracts/token/ERC20/ERC20.sol\":10752:11140  {... */\n      pop\n        /* \"node_modules/@openzeppelin/contracts/token/ERC20/ERC20.sol\":10663:11140  function _spendAllowance(address owner, address spender, uint256 value) internal virtual {... */\n      pop\n      pop\n      pop\n      jump\t// out\n        /* \"node_modules/@openzeppelin/contracts/token/ERC20/ERC20.sol\":5656:5956  function _transfer(address from, address to, uint256 value) internal {... */\n    tag_142:\n        /* \"node_modules/@openzeppelin/contracts/token/ERC20/ERC20.sol\":5755:5756  0 */\n      0x00\n        /* \"node_modules/@openzeppelin/contracts/token/ERC20/ERC20.sol\":5739:5757  from == address(0) */\n      0xffffffffffffffffffffffffffffffffffffffff\n      and\n        /* \"node_modules/@openzeppelin/contracts/token/ERC20/ERC20.sol\":5739:5743  from */\n      dup4\n        /* \"node_modules/@openzeppelin/contracts/token/ERC20/ERC20.sol\":5739:5757  from == address(0) */\n      0xffffffffffffffffffffffffffffffffffffffff\n      and\n      sub\n        /* \"node_modules/@openzeppelin/contracts/token/ERC20/ERC20.sol\":5735:5821  if (from == address(0)) {... */\n      tag_225\n      jumpi\n        /* \"node_modules/@openzeppelin/contracts/token/ERC20/ERC20.sol\":5807:5808  0 */\n      0x00\n        /* \"node_modules/@openzeppelin/contracts/token/ERC20/ERC20.sol\":5780:5810  ERC20InvalidSender(address(0)) */\n      mload(0x40)\n      0x96c6fd1e00000000000000000000000000000000000000000000000000000000\n      dup2\n      mstore\n      0x04\n      add\n      tag_226\n      swap2\n      swap1\n      tag_122\n      jump\t// in\n    tag_226:\n      mload(0x40)\n      dup1\n      swap2\n      sub\n      swap1\n      revert\n        /* \"node_modules/@openzeppelin/contracts/token/ERC20/ERC20.sol\":5735:5821  if (from == address(0)) {... */\n    tag_225:\n        /* \"node_modules/@openzeppelin/contracts/token/ERC20/ERC20.sol\":5848:5849  0 */\n      0x00\n        /* \"node_modules/@openzeppelin/contracts/token/ERC20/ERC20.sol\":5834:5850  to == address(0) */\n      0xffffffffffffffffffffffffffffffffffffffff\n      and\n        /* \"node_modules/@openzeppelin/contracts/token/ERC20/ERC20.sol\":5834:5836  to */\n      dup3\n        /* \"node_modules/@openzeppelin/contracts/token/ERC20/ERC20.sol\":5834:5850  to == address(0) */\n      0xffffffffffffffffffffffffffffffffffffffff\n      and\n      sub\n        /* \"node_modules/@openzeppelin/contracts/token/ERC20/ERC20.sol\":5830:5916  if (to == address(0)) {... */\n      tag_227\n      jumpi\n        /* \"node_modules/@openzeppelin/contracts/token/ERC20/ERC20.sol\":5902:5903  0 */\n      0x00\n        /* \"node_modules/@openzeppelin/contracts/token/ERC20/ERC20.sol\":5873:5905  ERC20InvalidReceiver(address(0)) */\n      mload(0x40)\n      0xec442f0500000000000000000000000000000000000000000000000000000000\n      dup2\n      mstore\n      0x04\n      add\n      tag_228\n      swap2\n      swap1\n      tag_122\n      jump\t// in\n    tag_228:\n      mload(0x40)\n      dup1\n      swap2\n      sub\n      swap1\n      revert\n        /* \"node_modules/@openzeppelin/contracts/token/ERC20/ERC20.sol\":5830:5916  if (to == address(0)) {... */\n    tag_227:\n        /* \"node_modules/@openzeppelin/contracts/token/ERC20/ERC20.sol\":5925:5949  _update(from, to, value) */\n      tag_229\n        /* \"node_modules/@openzeppelin/contracts/token/ERC20/ERC20.sol\":5933:5937  from */\n      dup4\n        /* \"node_modules/@openzeppelin/contracts/token/ERC20/ERC20.sol\":5939:5941  to */\n      dup4\n        /* \"node_modules/@openzeppelin/contracts/token/ERC20/ERC20.sol\":5943:5948  value */\n      dup4\n        /* \"node_modules/@openzeppelin/contracts/token/ERC20/ERC20.sol\":5925:5932  _update */\n      tag_28\n        /* \"node_modules/@openzeppelin/contracts/token/ERC20/ERC20.sol\":5925:5949  _update(from, to, value) */\n      jump\t// in\n    tag_229:\n        /* \"node_modules/@openzeppelin/contracts/token/ERC20/ERC20.sol\":5656:5956  function _transfer(address from, address to, uint256 value) internal {... */\n      pop\n      pop\n      pop\n      jump\t// out\n        /* \"node_modules/@openzeppelin/contracts/token/ERC20/ERC20.sol\":9949:10381  function _approve(address owner, address spender, uint256 value, bool emitEvent) internal virtual {... */\n    tag_217:\n        /* \"node_modules/@openzeppelin/contracts/token/ERC20/ERC20.sol\":10078:10079  0 */\n      0x00\n        /* \"node_modules/@openzeppelin/contracts/token/ERC20/ERC20.sol\":10061:10080  owner == address(0) */\n      0xffffffffffffffffffffffffffffffffffffffff\n      and\n        /* \"node_modules/@openzeppelin/contracts/token/ERC20/ERC20.sol\":10061:10066  owner */\n      dup5\n        /* \"node_modules/@openzeppelin/contracts/token/ERC20/ERC20.sol\":10061:10080  owner == address(0) */\n      0xffffffffffffffffffffffffffffffffffffffff\n      and\n      sub\n        /* \"node_modules/@openzeppelin/contracts/token/ERC20/ERC20.sol\":10057:10146  if (owner == address(0)) {... */\n      tag_231\n      jumpi\n        /* \"node_modules/@openzeppelin/contracts/token/ERC20/ERC20.sol\":10132:10133  0 */\n      0x00\n        /* \"node_modules/@openzeppelin/contracts/token/ERC20/ERC20.sol\":10103:10135  ERC20InvalidApprover(address(0)) */\n      mload(0x40)\n      0xe602df0500000000000000000000000000000000000000000000000000000000\n      dup2\n      mstore\n      0x04\n      add\n      tag_232\n      swap2\n      swap1\n      tag_122\n      jump\t// in\n    tag_232:\n      mload(0x40)\n      dup1\n      swap2\n      sub\n      swap1\n      revert\n        /* \"node_modules/@openzeppelin/contracts/token/ERC20/ERC20.sol\":10057:10146  if (owner == address(0)) {... */\n    tag_231:\n        /* \"node_modules/@openzeppelin/contracts/token/ERC20/ERC20.sol\":10178:10179  0 */\n      0x00\n        /* \"node_modules/@openzeppelin/contracts/token/ERC20/ERC20.sol\":10159:10180  spender == address(0) */\n      0xffffffffffffffffffffffffffffffffffffffff\n      and\n        /* \"node_modules/@openzeppelin/contracts/token/ERC20/ERC20.sol\":10159:10166  spender */\n      dup4\n        /* \"node_modules/@openzeppelin/contracts/token/ERC20/ERC20.sol\":10159:10180  spender == address(0) */\n      0xffffffffffffffffffffffffffffffffffffffff\n      and\n      sub\n        /* \"node_modules/@openzeppelin/contracts/token/ERC20/ERC20.sol\":10155:10245  if (spender == address(0)) {... */\n      tag_233\n      jumpi\n        /* \"node_modules/@openzeppelin/contracts/token/ERC20/ERC20.sol\":10231:10232  0 */\n      0x00\n        /* \"node_modules/@openzeppelin/contracts/token/ERC20/ERC20.sol\":10203:10234  ERC20InvalidSpender(address(0)) */\n      mload(0x40)\n      0x94280d6200000000000000000000000000000000000000000000000000000000\n      dup2\n      mstore\n      0x04\n      add\n      tag_234\n      swap2\n      swap1\n      tag_122\n      jump\t// in\n    tag_234:\n      mload(0x40)\n      dup1\n      swap2\n      sub\n      swap1\n      revert\n        /* \"node_modules/@openzeppelin/contracts/token/ERC20/ERC20.sol\":10155:10245  if (spender == address(0)) {... */\n    tag_233:\n        /* \"node_modules/@openzeppelin/contracts/token/ERC20/ERC20.sol\":10284:10289  value */\n      dup2\n        /* \"node_modules/@openzeppelin/contracts/token/ERC20/ERC20.sol\":10254:10265  _allowances */\n      0x01\n        /* \"node_modules/@openzeppelin/contracts/token/ERC20/ERC20.sol\":10254:10272  _allowances[owner] */\n      0x00\n        /* \"node_modules/@openzeppelin/contracts/token/ERC20/ERC20.sol\":10266:10271  owner */\n      dup7\n        /* \"node_modules/@openzeppelin/contracts/token/ERC20/ERC20.sol\":10254:10272  _allowances[owner] */\n      0xffffffffffffffffffffffffffffffffffffffff\n      and\n      0xffffffffffffffffffffffffffffffffffffffff\n      and\n      dup2\n      mstore\n      0x20\n      add\n      swap1\n      dup2\n      mstore\n      0x20\n      add\n      0x00\n      keccak256\n        /* \"node_modules/@openzeppelin/contracts/token/ERC20/ERC20.sol\":10254:10281  _allowances[owner][spender] */\n      0x00\n        /* \"node_modules/@openzeppelin/contracts/token/ERC20/ERC20.sol\":10273:10280  spender */\n      dup6\n        /* \"node_modules/@openzeppelin/contracts/token/ERC20/ERC20.sol\":10254:10281  _allowances[owner][spender] */\n      0xffffffffffffffffffffffffffffffffffffffff\n      and\n      0xffffffffffffffffffffffffffffffffffffffff\n      and\n      dup2\n      mstore\n      0x20\n      add\n      swap1\n      dup2\n      mstore\n      0x20\n      add\n      0x00\n      keccak256\n        /* \"node_modules/@openzeppelin/contracts/token/ERC20/ERC20.sol\":10254:10289  _allowances[owner][spender] = value */\n      dup2\n      swap1\n      sstore\n      pop\n        /* \"node_modules/@openzeppelin/contracts/token/ERC20/ERC20.sol\":10303:10312  emitEvent */\n      dup1\n        /* \"node_modules/@openzeppelin/contracts/token/ERC20/ERC20.sol\":10299:10375  if (emitEvent) {... */\n      iszero\n      tag_235\n      jumpi\n        /* \"node_modules/@openzeppelin/contracts/token/ERC20/ERC20.sol\":10349:10356  spender */\n      dup3\n        /* \"node_modules/@openzeppelin/contracts/token/ERC20/ERC20.sol\":10333:10364  Approval(owner, spender, value) */\n      0xffffffffffffffffffffffffffffffffffffffff\n      and\n        /* \"node_modules/@openzeppelin/contracts/token/ERC20/ERC20.sol\":10342:10347  owner */\n      dup5\n        /* \"node_modules/@openzeppelin/contracts/token/ERC20/ERC20.sol\":10333:10364  Approval(owner, spender, value) */\n      0xffffffffffffffffffffffffffffffffffffffff\n      and\n      0x8c5be1e5ebec7d5bd14f71427d1e84f3dd0314c0f7b2291e5b200ac8c7c3b925\n        /* \"node_modules/@openzeppelin/contracts/token/ERC20/ERC20.sol\":10358:10363  value */\n      dup5\n        /* \"node_modules/@openzeppelin/contracts/token/ERC20/ERC20.sol\":10333:10364  Approval(owner, spender, value) */\n      mload(0x40)\n      tag_236\n      swap2\n      swap1\n      tag_48\n      jump\t// in\n    tag_236:\n      mload(0x40)\n      dup1\n      swap2\n      sub\n      swap1\n      log3\n        /* \"node_modules/@openzeppelin/contracts/token/ERC20/ERC20.sol\":10299:10375  if (emitEvent) {... */\n    tag_235:\n        /* \"node_modules/@openzeppelin/contracts/token/ERC20/ERC20.sol\":9949:10381  function _approve(address owner, address spender, uint256 value, bool emitEvent) internal virtual {... */\n      pop\n      pop\n      pop\n      pop\n      jump\t// out\n    tag_153:\n      mload(0x40)\n      dup1\n      0x60\n      add\n      0x40\n      mstore\n      dup1\n      0x00\n      dup2\n      mstore\n      0x20\n      add\n      0x60\n      dup2\n      mstore\n      0x20\n      add\n      0x00\n      dup2\n      mstore\n      pop\n      swap1\n      jump\t// out\n        /* \"#utility.yul\":7:84   */\n    tag_237:\n        /* \"#utility.yul\":44:51   */\n      0x00\n        /* \"#utility.yul\":73:78   */\n      dup2\n        /* \"#utility.yul\":62:78   */\n      swap1\n      pop\n        /* \"#utility.yul\":7:84   */\n      swap2\n      swap1\n      pop\n      jump\t// out\n        /* \"#utility.yul\":90:270   */\n    tag_238:\n        /* \"#utility.yul\":138:215   */\n      0x4e487b7100000000000000000000000000000000000000000000000000000000\n        /* \"#utility.yul\":135:136   */\n      0x00\n        /* \"#utility.yul\":128:216   */\n      mstore\n        /* \"#utility.yul\":235:239   */\n      0x11\n        /* \"#utility.yul\":232:233   */\n      0x04\n        /* \"#utility.yul\":225:240   */\n      mstore\n        /* \"#utility.yul\":259:263   */\n      0x24\n        /* \"#utility.yul\":256:257   */\n      0x00\n        /* \"#utility.yul\":249:264   */\n      revert\n        /* \"#utility.yul\":276:686   */\n    tag_23:\n        /* \"#utility.yul\":316:323   */\n      0x00\n        /* \"#utility.yul\":339:359   */\n      tag_301\n        /* \"#utility.yul\":357:358   */\n      dup3\n        /* \"#utility.yul\":339:359   */\n      tag_237\n      jump\t// in\n    tag_301:\n        /* \"#utility.yul\":334:359   */\n      swap2\n      pop\n        /* \"#utility.yul\":373:393   */\n      tag_302\n        /* \"#utility.yul\":391:392   */\n      dup4\n        /* \"#utility.yul\":373:393   */\n      tag_237\n      jump\t// in\n    tag_302:\n        /* \"#utility.yul\":368:393   */\n      swap3\n      pop\n        /* \"#utility.yul\":428:429   */\n      dup3\n        /* \"#utility.yul\":425:426   */\n      dup3\n        /* \"#utility.yul\":421:430   */\n      mul\n        /* \"#utility.yul\":450:480   */\n      tag_303\n        /* \"#utility.yul\":468:479   */\n      dup2\n        /* \"#utility.yul\":450:480   */\n      tag_237\n      jump\t// in\n    tag_303:\n        /* \"#utility.yul\":439:480   */\n      swap2\n      pop\n        /* \"#utility.yul\":629:630   */\n      dup3\n        /* \"#utility.yul\":620:627   */\n      dup3\n        /* \"#utility.yul\":616:631   */\n      div\n        /* \"#utility.yul\":613:614   */\n      dup5\n        /* \"#utility.yul\":610:632   */\n      eq\n        /* \"#utility.yul\":590:591   */\n      dup4\n        /* \"#utility.yul\":583:592   */\n      iszero\n        /* \"#utility.yul\":563:646   */\n      or\n        /* \"#utility.yul\":540:679   */\n      tag_304\n      jumpi\n        /* \"#utility.yul\":659:677   */\n      tag_305\n      tag_238\n      jump\t// in\n    tag_305:\n        /* \"#utility.yul\":540:679   */\n    tag_304:\n        /* \"#utility.yul\":324:686   */\n      pop\n        /* \"#utility.yul\":276:686   */\n      swap3\n      swap2\n      pop\n      pop\n      jump\t// out\n        /* \"#utility.yul\":692:791   */\n    tag_239:\n        /* \"#utility.yul\":744:750   */\n      0x00\n        /* \"#utility.yul\":778:783   */\n      dup2\n        /* \"#utility.yul\":772:784   */\n      mload\n        /* \"#utility.yul\":762:784   */\n      swap1\n      pop\n        /* \"#utility.yul\":692:791   */\n      swap2\n      swap1\n      pop\n      jump\t// out\n        /* \"#utility.yul\":797:966   */\n    tag_240:\n        /* \"#utility.yul\":881:892   */\n      0x00\n        /* \"#utility.yul\":915:921   */\n      dup3\n        /* \"#utility.yul\":910:913   */\n      dup3\n        /* \"#utility.yul\":903:922   */\n      mstore\n        /* \"#utility.yul\":955:959   */\n      0x20\n        /* \"#utility.yul\":950:953   */\n      dup3\n        /* \"#utility.yul\":946:960   */\n      add\n        /* \"#utility.yul\":931:960   */\n      swap1\n      pop\n        /* \"#utility.yul\":797:966   */\n      swap3\n      swap2\n      pop\n      pop\n      jump\t// out\n        /* \"#utility.yul\":972:1218   */\n    tag_241:\n        /* \"#utility.yul\":1053:1054   */\n      0x00\n        /* \"#utility.yul\":1063:1176   */\n    tag_309:\n        /* \"#utility.yul\":1077:1083   */\n      dup4\n        /* \"#utility.yul\":1074:1075   */\n      dup2\n        /* \"#utility.yul\":1071:1084   */\n      lt\n        /* \"#utility.yul\":1063:1176   */\n      iszero\n      tag_311\n      jumpi\n        /* \"#utility.yul\":1162:1163   */\n      dup1\n        /* \"#utility.yul\":1157:1160   */\n      dup3\n        /* \"#utility.yul\":1153:1164   */\n      add\n        /* \"#utility.yul\":1147:1165   */\n      mload\n        /* \"#utility.yul\":1143:1144   */\n      dup2\n        /* \"#utility.yul\":1138:1141   */\n      dup5\n        /* \"#utility.yul\":1134:1145   */\n      add\n        /* \"#utility.yul\":1127:1166   */\n      mstore\n        /* \"#utility.yul\":1099:1101   */\n      0x20\n        /* \"#utility.yul\":1096:1097   */\n      dup2\n        /* \"#utility.yul\":1092:1102   */\n      add\n        /* \"#utility.yul\":1087:1102   */\n      swap1\n      pop\n        /* \"#utility.yul\":1063:1176   */\n      jump(tag_309)\n    tag_311:\n        /* \"#utility.yul\":1210:1211   */\n      0x00\n        /* \"#utility.yul\":1201:1207   */\n      dup5\n        /* \"#utility.yul\":1196:1199   */\n      dup5\n        /* \"#utility.yul\":1192:1208   */\n      add\n        /* \"#utility.yul\":1185:1212   */\n      mstore\n        /* \"#utility.yul\":1034:1218   */\n      pop\n        /* \"#utility.yul\":972:1218   */\n      pop\n      pop\n      pop\n      jump\t// out\n        /* \"#utility.yul\":1224:1326   */\n    tag_242:\n        /* \"#utility.yul\":1265:1271   */\n      0x00\n        /* \"#utility.yul\":1316:1318   */\n      0x1f\n        /* \"#utility.yul\":1312:1319   */\n      not\n        /* \"#utility.yul\":1307:1309   */\n      0x1f\n        /* \"#utility.yul\":1300:1305   */\n      dup4\n        /* \"#utility.yul\":1296:1310   */\n      add\n        /* \"#utility.yul\":1292:1320   */\n      and\n        /* \"#utility.yul\":1282:1320   */\n      swap1\n      pop\n        /* \"#utility.yul\":1224:1326   */\n      swap2\n      swap1\n      pop\n      jump\t// out\n        /* \"#utility.yul\":1332:1709   */\n    tag_243:\n        /* \"#utility.yul\":1420:1423   */\n      0x00\n        /* \"#utility.yul\":1448:1487   */\n      tag_314\n        /* \"#utility.yul\":1481:1486   */\n      dup3\n        /* \"#utility.yul\":1448:1487   */\n      tag_239\n      jump\t// in\n    tag_314:\n        /* \"#utility.yul\":1503:1574   */\n      tag_315\n        /* \"#utility.yul\":1567:1573   */\n      dup2\n        /* \"#utility.yul\":1562:1565   */\n      dup6\n        /* \"#utility.yul\":1503:1574   */\n      tag_240\n      jump\t// in\n    tag_315:\n        /* \"#utility.yul\":1496:1574   */\n      swap4\n      pop\n        /* \"#utility.yul\":1583:1648   */\n      tag_316\n        /* \"#utility.yul\":1641:1647   */\n      dup2\n        /* \"#utility.yul\":1636:1639   */\n      dup6\n        /* \"#utility.yul\":1629:1633   */\n      0x20\n        /* \"#utility.yul\":1622:1627   */\n      dup7\n        /* \"#utility.yul\":1618:1634   */\n      add\n        /* \"#utility.yul\":1583:1648   */\n      tag_241\n      jump\t// in\n    tag_316:\n        /* \"#utility.yul\":1673:1702   */\n      tag_317\n        /* \"#utility.yul\":1695:1701   */\n      dup2\n        /* \"#utility.yul\":1673:1702   */\n      tag_242\n      jump\t// in\n    tag_317:\n        /* \"#utility.yul\":1668:1671   */\n      dup5\n        /* \"#utility.yul\":1664:1703   */\n      add\n        /* \"#utility.yul\":1657:1703   */\n      swap2\n      pop\n        /* \"#utility.yul\":1424:1709   */\n      pop\n        /* \"#utility.yul\":1332:1709   */\n      swap3\n      swap2\n      pop\n      pop\n      jump\t// out\n        /* \"#utility.yul\":1715:2028   */\n    tag_36:\n        /* \"#utility.yul\":1828:1832   */\n      0x00\n        /* \"#utility.yul\":1866:1868   */\n      0x20\n        /* \"#utility.yul\":1855:1864   */\n      dup3\n        /* \"#utility.yul\":1851:1869   */\n      add\n        /* \"#utility.yul\":1843:1869   */\n      swap1\n      pop\n        /* \"#utility.yul\":1915:1924   */\n      dup2\n        /* \"#utility.yul\":1909:1913   */\n      dup2\n        /* \"#utility.yul\":1905:1925   */\n      sub\n        /* \"#utility.yul\":1901:1902   */\n      0x00\n        /* \"#utility.yul\":1890:1899   */\n      dup4\n        /* \"#utility.yul\":1886:1903   */\n      add\n        /* \"#utility.yul\":1879:1926   */\n      mstore\n        /* \"#utility.yul\":1943:2021   */\n      tag_319\n        /* \"#utility.yul\":2016:2020   */\n      dup2\n        /* \"#utility.yul\":2007:2013   */\n      dup5\n        /* \"#utility.yul\":1943:2021   */\n      tag_243\n      jump\t// in\n    tag_319:\n        /* \"#utility.yul\":1935:2021   */\n      swap1\n      pop\n        /* \"#utility.yul\":1715:2028   */\n      swap3\n      swap2\n      pop\n      pop\n      jump\t// out\n        /* \"#utility.yul\":2034:2109   */\n    tag_244:\n        /* \"#utility.yul\":2067:2073   */\n      0x00\n        /* \"#utility.yul\":2100:2102   */\n      0x40\n        /* \"#utility.yul\":2094:2103   */\n      mload\n        /* \"#utility.yul\":2084:2103   */\n      swap1\n      pop\n        /* \"#utility.yul\":2034:2109   */\n      swap1\n      jump\t// out\n        /* \"#utility.yul\":2115:2232   */\n    tag_245:\n        /* \"#utility.yul\":2224:2225   */\n      0x00\n        /* \"#utility.yul\":2221:2222   */\n      dup1\n        /* \"#utility.yul\":2214:2226   */\n      revert\n        /* \"#utility.yul\":2238:2355   */\n    tag_246:\n        /* \"#utility.yul\":2347:2348   */\n      0x00\n        /* \"#utility.yul\":2344:2345   */\n      dup1\n        /* \"#utility.yul\":2337:2349   */\n      revert\n        /* \"#utility.yul\":2361:2487   */\n    tag_247:\n        /* \"#utility.yul\":2398:2405   */\n      0x00\n        /* \"#utility.yul\":2438:2480   */\n      0xffffffffffffffffffffffffffffffffffffffff\n        /* \"#utility.yul\":2431:2436   */\n      dup3\n        /* \"#utility.yul\":2427:2481   */\n      and\n        /* \"#utility.yul\":2416:2481   */\n      swap1\n      pop\n        /* \"#utility.yul\":2361:2487   */\n      swap2\n      swap1\n      pop\n      jump\t// out\n        /* \"#utility.yul\":2493:2589   */\n    tag_248:\n        /* \"#utility.yul\":2530:2537   */\n      0x00\n        /* \"#utility.yul\":2559:2583   */\n      tag_325\n        /* \"#utility.yul\":2577:2582   */\n      dup3\n        /* \"#utility.yul\":2559:2583   */\n      tag_247\n      jump\t// in\n    tag_325:\n        /* \"#utility.yul\":2548:2583   */\n      swap1\n      pop\n        /* \"#utility.yul\":2493:2589   */\n      swap2\n      swap1\n      pop\n      jump\t// out\n        /* \"#utility.yul\":2595:2717   */\n    tag_249:\n        /* \"#utility.yul\":2668:2692   */\n      tag_327\n        /* \"#utility.yul\":2686:2691   */\n      dup2\n        /* \"#utility.yul\":2668:2692   */\n      tag_248\n      jump\t// in\n    tag_327:\n        /* \"#utility.yul\":2661:2666   */\n      dup2\n        /* \"#utility.yul\":2658:2693   */\n      eq\n        /* \"#utility.yul\":2648:2711   */\n      tag_328\n      jumpi\n        /* \"#utility.yul\":2707:2708   */\n      0x00\n        /* \"#utility.yul\":2704:2705   */\n      dup1\n        /* \"#utility.yul\":2697:2709   */\n      revert\n        /* \"#utility.yul\":2648:2711   */\n    tag_328:\n        /* \"#utility.yul\":2595:2717   */\n      pop\n      jump\t// out\n        /* \"#utility.yul\":2723:2862   */\n    tag_250:\n        /* \"#utility.yul\":2769:2774   */\n      0x00\n        /* \"#utility.yul\":2807:2813   */\n      dup2\n        /* \"#utility.yul\":2794:2814   */\n      calldataload\n        /* \"#utility.yul\":2785:2814   */\n      swap1\n      pop\n        /* \"#utility.yul\":2823:2856   */\n      tag_330\n        /* \"#utility.yul\":2850:2855   */\n      dup2\n        /* \"#utility.yul\":2823:2856   */\n      tag_249\n      jump\t// in\n    tag_330:\n        /* \"#utility.yul\":2723:2862   */\n      swap3\n      swap2\n      pop\n      pop\n      jump\t// out\n        /* \"#utility.yul\":2868:2990   */\n    tag_251:\n        /* \"#utility.yul\":2941:2965   */\n      tag_332\n        /* \"#utility.yul\":2959:2964   */\n      dup2\n        /* \"#utility.yul\":2941:2965   */\n      tag_237\n      jump\t// in\n    tag_332:\n        /* \"#utility.yul\":2934:2939   */\n      dup2\n        /* \"#utility.yul\":2931:2966   */\n      eq\n        /* \"#utility.yul\":2921:2984   */\n      tag_333\n      jumpi\n        /* \"#utility.yul\":2980:2981   */\n      0x00\n        /* \"#utility.yul\":2977:2978   */\n      dup1\n        /* \"#utility.yul\":2970:2982   */\n      revert\n        /* \"#utility.yul\":2921:2984   */\n    tag_333:\n        /* \"#utility.yul\":2868:2990   */\n      pop\n      jump\t// out\n        /* \"#utility.yul\":2996:3135   */\n    tag_252:\n        /* \"#utility.yul\":3042:3047   */\n      0x00\n        /* \"#utility.yul\":3080:3086   */\n      dup2\n        /* \"#utility.yul\":3067:3087   */\n      calldataload\n        /* \"#utility.yul\":3058:3087   */\n      swap1\n      pop\n        /* \"#utility.yul\":3096:3129   */\n      tag_335\n        /* \"#utility.yul\":3123:3128   */\n      dup2\n        /* \"#utility.yul\":3096:3129   */\n      tag_251\n      jump\t// in\n    tag_335:\n        /* \"#utility.yul\":2996:3135   */\n      swap3\n      swap2\n      pop\n      pop\n      jump\t// out\n        /* \"#utility.yul\":3141:3615   */\n    tag_40:\n        /* \"#utility.yul\":3209:3215   */\n      0x00\n        /* \"#utility.yul\":3217:3223   */\n      dup1\n        /* \"#utility.yul\":3266:3268   */\n      0x40\n        /* \"#utility.yul\":3254:3263   */\n      dup4\n        /* \"#utility.yul\":3245:3252   */\n      dup6\n        /* \"#utility.yul\":3241:3264   */\n      sub\n        /* \"#utility.yul\":3237:3269   */\n      slt\n        /* \"#utility.yul\":3234:3353   */\n      iszero\n      tag_337\n      jumpi\n        /* \"#utility.yul\":3272:3351   */\n      tag_338\n      tag_245\n      jump\t// in\n    tag_338:\n        /* \"#utility.yul\":3234:3353   */\n    tag_337:\n        /* \"#utility.yul\":3392:3393   */\n      0x00\n        /* \"#utility.yul\":3417:3470   */\n      tag_339\n        /* \"#utility.yul\":3462:3469   */\n      dup6\n        /* \"#utility.yul\":3453:3459   */\n      dup3\n        /* \"#utility.yul\":3442:3451   */\n      dup7\n        /* \"#utility.yul\":3438:3460   */\n      add\n        /* \"#utility.yul\":3417:3470   */\n      tag_250\n      jump\t// in\n    tag_339:\n        /* \"#utility.yul\":3407:3470   */\n      swap3\n      pop\n        /* \"#utility.yul\":3363:3480   */\n      pop\n        /* \"#utility.yul\":3519:3521   */\n      0x20\n        /* \"#utility.yul\":3545:3598   */\n      tag_340\n        /* \"#utility.yul\":3590:3597   */\n      dup6\n        /* \"#utility.yul\":3581:3587   */\n      dup3\n        /* \"#utility.yul\":3570:3579   */\n      dup7\n        /* \"#utility.yul\":3566:3588   */\n      add\n        /* \"#utility.yul\":3545:3598   */\n      tag_252\n      jump\t// in\n    tag_340:\n        /* \"#utility.yul\":3535:3598   */\n      swap2\n      pop\n        /* \"#utility.yul\":3490:3608   */\n      pop\n        /* \"#utility.yul\":3141:3615   */\n      swap3\n      pop\n      swap3\n      swap1\n      pop\n      jump\t// out\n        /* \"#utility.yul\":3621:3711   */\n    tag_253:\n        /* \"#utility.yul\":3655:3662   */\n      0x00\n        /* \"#utility.yul\":3698:3703   */\n      dup2\n        /* \"#utility.yul\":3691:3704   */\n      iszero\n        /* \"#utility.yul\":3684:3705   */\n      iszero\n        /* \"#utility.yul\":3673:3705   */\n      swap1\n      pop\n        /* \"#utility.yul\":3621:3711   */\n      swap2\n      swap1\n      pop\n      jump\t// out\n        /* \"#utility.yul\":3717:3826   */\n    tag_254:\n        /* \"#utility.yul\":3798:3819   */\n      tag_343\n        /* \"#utility.yul\":3813:3818   */\n      dup2\n        /* \"#utility.yul\":3798:3819   */\n      tag_253\n      jump\t// in\n    tag_343:\n        /* \"#utility.yul\":3793:3796   */\n      dup3\n        /* \"#utility.yul\":3786:3820   */\n      mstore\n        /* \"#utility.yul\":3717:3826   */\n      pop\n      pop\n      jump\t// out\n        /* \"#utility.yul\":3832:4042   */\n    tag_43:\n        /* \"#utility.yul\":3919:3923   */\n      0x00\n        /* \"#utility.yul\":3957:3959   */\n      0x20\n        /* \"#utility.yul\":3946:3955   */\n      dup3\n        /* \"#utility.yul\":3942:3960   */\n      add\n        /* \"#utility.yul\":3934:3960   */\n      swap1\n      pop\n        /* \"#utility.yul\":3970:4035   */\n      tag_345\n        /* \"#utility.yul\":4032:4033   */\n      0x00\n        /* \"#utility.yul\":4021:4030   */\n      dup4\n        /* \"#utility.yul\":4017:4034   */\n      add\n        /* \"#utility.yul\":4008:4014   */\n      dup5\n        /* \"#utility.yul\":3970:4035   */\n      tag_254\n      jump\t// in\n    tag_345:\n        /* \"#utility.yul\":3832:4042   */\n      swap3\n      swap2\n      pop\n      pop\n      jump\t// out\n        /* \"#utility.yul\":4048:4166   */\n    tag_255:\n        /* \"#utility.yul\":4135:4159   */\n      tag_347\n        /* \"#utility.yul\":4153:4158   */\n      dup2\n        /* \"#utility.yul\":4135:4159   */\n      tag_237\n      jump\t// in\n    tag_347:\n        /* \"#utility.yul\":4130:4133   */\n      dup3\n        /* \"#utility.yul\":4123:4160   */\n      mstore\n        /* \"#utility.yul\":4048:4166   */\n      pop\n      pop\n      jump\t// out\n        /* \"#utility.yul\":4172:4394   */\n    tag_48:\n        /* \"#utility.yul\":4265:4269   */\n      0x00\n        /* \"#utility.yul\":4303:4305   */\n      0x20\n        /* \"#utility.yul\":4292:4301   */\n      dup3\n        /* \"#utility.yul\":4288:4306   */\n      add\n        /* \"#utility.yul\":4280:4306   */\n      swap1\n      pop\n        /* \"#utility.yul\":4316:4387   */\n      tag_349\n        /* \"#utility.yul\":4384:4385   */\n      0x00\n        /* \"#utility.yul\":4373:4382   */\n      dup4\n        /* \"#utility.yul\":4369:4386   */\n      add\n        /* \"#utility.yul\":4360:4366   */\n      dup5\n        /* \"#utility.yul\":4316:4387   */\n      tag_255\n      jump\t// in\n    tag_349:\n        /* \"#utility.yul\":4172:4394   */\n      swap3\n      swap2\n      pop\n      pop\n      jump\t// out\n        /* \"#utility.yul\":4400:5019   */\n    tag_52:\n        /* \"#utility.yul\":4477:4483   */\n      0x00\n        /* \"#utility.yul\":4485:4491   */\n      dup1\n        /* \"#utility.yul\":4493:4499   */\n      0x00\n        /* \"#utility.yul\":4542:4544   */\n      0x60\n        /* \"#utility.yul\":4530:4539   */\n      dup5\n        /* \"#utility.yul\":4521:4528   */\n      dup7\n        /* \"#utility.yul\":4517:4540   */\n      sub\n        /* \"#utility.yul\":4513:4545   */\n      slt\n        /* \"#utility.yul\":4510:4629   */\n      iszero\n      tag_351\n      jumpi\n        /* \"#utility.yul\":4548:4627   */\n      tag_352\n      tag_245\n      jump\t// in\n    tag_352:\n        /* \"#utility.yul\":4510:4629   */\n    tag_351:\n        /* \"#utility.yul\":4668:4669   */\n      0x00\n        /* \"#utility.yul\":4693:4746   */\n      tag_353\n        /* \"#utility.yul\":4738:4745   */\n      dup7\n        /* \"#utility.yul\":4729:4735   */\n      dup3\n        /* \"#utility.yul\":4718:4727   */\n      dup8\n        /* \"#utility.yul\":4714:4736   */\n      add\n        /* \"#utility.yul\":4693:4746   */\n      tag_250\n      jump\t// in\n    tag_353:\n        /* \"#utility.yul\":4683:4746   */\n      swap4\n      pop\n        /* \"#utility.yul\":4639:4756   */\n      pop\n        /* \"#utility.yul\":4795:4797   */\n      0x20\n        /* \"#utility.yul\":4821:4874   */\n      tag_354\n        /* \"#utility.yul\":4866:4873   */\n      dup7\n        /* \"#utility.yul\":4857:4863   */\n      dup3\n        /* \"#utility.yul\":4846:4855   */\n      dup8\n        /* \"#utility.yul\":4842:4864   */\n      add\n        /* \"#utility.yul\":4821:4874   */\n      tag_250\n      jump\t// in\n    tag_354:\n        /* \"#utility.yul\":4811:4874   */\n      swap3\n      pop\n        /* \"#utility.yul\":4766:4884   */\n      pop\n        /* \"#utility.yul\":4923:4925   */\n      0x40\n        /* \"#utility.yul\":4949:5002   */\n      tag_355\n        /* \"#utility.yul\":4994:5001   */\n      dup7\n        /* \"#utility.yul\":4985:4991   */\n      dup3\n        /* \"#utility.yul\":4974:4983   */\n      dup8\n        /* \"#utility.yul\":4970:4992   */\n      add\n        /* \"#utility.yul\":4949:5002   */\n      tag_252\n      jump\t// in\n    tag_355:\n        /* \"#utility.yul\":4939:5002   */\n      swap2\n      pop\n        /* \"#utility.yul\":4894:5012   */\n      pop\n        /* \"#utility.yul\":4400:5019   */\n      swap3\n      pop\n      swap3\n      pop\n      swap3\n      jump\t// out\n        /* \"#utility.yul\":5025:5111   */\n    tag_256:\n        /* \"#utility.yul\":5060:5067   */\n      0x00\n        /* \"#utility.yul\":5100:5104   */\n      0xff\n        /* \"#utility.yul\":5093:5098   */\n      dup3\n        /* \"#utility.yul\":5089:5105   */\n      and\n        /* \"#utility.yul\":5078:5105   */\n      swap1\n      pop\n        /* \"#utility.yul\":5025:5111   */\n      swap2\n      swap1\n      pop\n      jump\t// out\n        /* \"#utility.yul\":5117:5229   */\n    tag_257:\n        /* \"#utility.yul\":5200:5222   */\n      tag_358\n        /* \"#utility.yul\":5216:5221   */\n      dup2\n        /* \"#utility.yul\":5200:5222   */\n      tag_256\n      jump\t// in\n    tag_358:\n        /* \"#utility.yul\":5195:5198   */\n      dup3\n        /* \"#utility.yul\":5188:5223   */\n      mstore\n        /* \"#utility.yul\":5117:5229   */\n      pop\n      pop\n      jump\t// out\n        /* \"#utility.yul\":5235:5449   */\n    tag_59:\n        /* \"#utility.yul\":5324:5328   */\n      0x00\n        /* \"#utility.yul\":5362:5364   */\n      0x20\n        /* \"#utility.yul\":5351:5360   */\n      dup3\n        /* \"#utility.yul\":5347:5365   */\n      add\n        /* \"#utility.yul\":5339:5365   */\n      swap1\n      pop\n        /* \"#utility.yul\":5375:5442   */\n      tag_360\n        /* \"#utility.yul\":5439:5440   */\n      0x00\n        /* \"#utility.yul\":5428:5437   */\n      dup4\n        /* \"#utility.yul\":5424:5441   */\n      add\n        /* \"#utility.yul\":5415:5421   */\n      dup5\n        /* \"#utility.yul\":5375:5442   */\n      tag_257\n      jump\t// in\n    tag_360:\n        /* \"#utility.yul\":5235:5449   */\n      swap3\n      swap2\n      pop\n      pop\n      jump\t// out\n        /* \"#utility.yul\":5455:5784   */\n    tag_63:\n        /* \"#utility.yul\":5514:5520   */\n      0x00\n        /* \"#utility.yul\":5563:5565   */\n      0x20\n        /* \"#utility.yul\":5551:5560   */\n      dup3\n        /* \"#utility.yul\":5542:5549   */\n      dup5\n        /* \"#utility.yul\":5538:5561   */\n      sub\n        /* \"#utility.yul\":5534:5566   */\n      slt\n        /* \"#utility.yul\":5531:5650   */\n      iszero\n      tag_362\n      jumpi\n        /* \"#utility.yul\":5569:5648   */\n      tag_363\n      tag_245\n      jump\t// in\n    tag_363:\n        /* \"#utility.yul\":5531:5650   */\n    tag_362:\n        /* \"#utility.yul\":5689:5690   */\n      0x00\n        /* \"#utility.yul\":5714:5767   */\n      tag_364\n        /* \"#utility.yul\":5759:5766   */\n      dup5\n        /* \"#utility.yul\":5750:5756   */\n      dup3\n        /* \"#utility.yul\":5739:5748   */\n      dup6\n        /* \"#utility.yul\":5735:5757   */\n      add\n        /* \"#utility.yul\":5714:5767   */\n      tag_250\n      jump\t// in\n    tag_364:\n        /* \"#utility.yul\":5704:5767   */\n      swap2\n      pop\n        /* \"#utility.yul\":5660:5777   */\n      pop\n        /* \"#utility.yul\":5455:5784   */\n      swap3\n      swap2\n      pop\n      pop\n      jump\t// out\n        /* \"#utility.yul\":5790:6119   */\n    tag_68:\n        /* \"#utility.yul\":5849:5855   */\n      0x00\n        /* \"#utility.yul\":5898:5900   */\n      0x20\n        /* \"#utility.yul\":5886:5895   */\n      dup3\n        /* \"#utility.yul\":5877:5884   */\n      dup5\n        /* \"#utility.yul\":5873:5896   */\n      sub\n        /* \"#utility.yul\":5869:5901   */\n      slt\n        /* \"#utility.yul\":5866:5985   */\n      iszero\n      tag_366\n      jumpi\n        /* \"#utility.yul\":5904:5983   */\n      tag_367\n      tag_245\n      jump\t// in\n    tag_367:\n        /* \"#utility.yul\":5866:5985   */\n    tag_366:\n        /* \"#utility.yul\":6024:6025   */\n      0x00\n        /* \"#utility.yul\":6049:6102   */\n      tag_368\n        /* \"#utility.yul\":6094:6101   */\n      dup5\n        /* \"#utility.yul\":6085:6091   */\n      dup3\n        /* \"#utility.yul\":6074:6083   */\n      dup6\n        /* \"#utility.yul\":6070:6092   */\n      add\n        /* \"#utility.yul\":6049:6102   */\n      tag_252\n      jump\t// in\n    tag_368:\n        /* \"#utility.yul\":6039:6102   */\n      swap2\n      pop\n        /* \"#utility.yul\":5995:6112   */\n      pop\n        /* \"#utility.yul\":5790:6119   */\n      swap3\n      swap2\n      pop\n      pop\n      jump\t// out\n        /* \"#utility.yul\":6125:6658   */\n    tag_71:\n        /* \"#utility.yul\":6294:6298   */\n      0x00\n        /* \"#utility.yul\":6332:6334   */\n      0x60\n        /* \"#utility.yul\":6321:6330   */\n      dup3\n        /* \"#utility.yul\":6317:6335   */\n      add\n        /* \"#utility.yul\":6309:6335   */\n      swap1\n      pop\n        /* \"#utility.yul\":6345:6416   */\n      tag_370\n        /* \"#utility.yul\":6413:6414   */\n      0x00\n        /* \"#utility.yul\":6402:6411   */\n      dup4\n        /* \"#utility.yul\":6398:6415   */\n      add\n        /* \"#utility.yul\":6389:6395   */\n      dup7\n        /* \"#utility.yul\":6345:6416   */\n      tag_255\n      jump\t// in\n    tag_370:\n        /* \"#utility.yul\":6463:6472   */\n      dup2\n        /* \"#utility.yul\":6457:6461   */\n      dup2\n        /* \"#utility.yul\":6453:6473   */\n      sub\n        /* \"#utility.yul\":6448:6450   */\n      0x20\n        /* \"#utility.yul\":6437:6446   */\n      dup4\n        /* \"#utility.yul\":6433:6451   */\n      add\n        /* \"#utility.yul\":6426:6474   */\n      mstore\n        /* \"#utility.yul\":6491:6569   */\n      tag_371\n        /* \"#utility.yul\":6564:6568   */\n      dup2\n        /* \"#utility.yul\":6555:6561   */\n      dup6\n        /* \"#utility.yul\":6491:6569   */\n      tag_243\n      jump\t// in\n    tag_371:\n        /* \"#utility.yul\":6483:6569   */\n      swap1\n      pop\n        /* \"#utility.yul\":6579:6651   */\n      tag_372\n        /* \"#utility.yul\":6647:6649   */\n      0x40\n        /* \"#utility.yul\":6636:6645   */\n      dup4\n        /* \"#utility.yul\":6632:6650   */\n      add\n        /* \"#utility.yul\":6623:6629   */\n      dup5\n        /* \"#utility.yul\":6579:6651   */\n      tag_255\n      jump\t// in\n    tag_372:\n        /* \"#utility.yul\":6125:6658   */\n      swap5\n      swap4\n      pop\n      pop\n      pop\n      pop\n      jump\t// out\n        /* \"#utility.yul\":6664:6781   */\n    tag_258:\n        /* \"#utility.yul\":6773:6774   */\n      0x00\n        /* \"#utility.yul\":6770:6771   */\n      dup1\n        /* \"#utility.yul\":6763:6775   */\n      revert\n        /* \"#utility.yul\":6787:6904   */\n    tag_259:\n        /* \"#utility.yul\":6896:6897   */\n      0x00\n        /* \"#utility.yul\":6893:6894   */\n      dup1\n        /* \"#utility.yul\":6886:6898   */\n      revert\n        /* \"#utility.yul\":6910:7090   */\n    tag_260:\n        /* \"#utility.yul\":6958:7035   */\n      0x4e487b7100000000000000000000000000000000000000000000000000000000\n        /* \"#utility.yul\":6955:6956   */\n      0x00\n        /* \"#utility.yul\":6948:7036   */\n      mstore\n        /* \"#utility.yul\":7055:7059   */\n      0x41\n        /* \"#utility.yul\":7052:7053   */\n      0x04\n        /* \"#utility.yul\":7045:7060   */\n      mstore\n        /* \"#utility.yul\":7079:7083   */\n      0x24\n        /* \"#utility.yul\":7076:7077   */\n      0x00\n        /* \"#utility.yul\":7069:7084   */\n      revert\n        /* \"#utility.yul\":7096:7377   */\n    tag_261:\n        /* \"#utility.yul\":7179:7206   */\n      tag_377\n        /* \"#utility.yul\":7201:7205   */\n      dup3\n        /* \"#utility.yul\":7179:7206   */\n      tag_242\n      jump\t// in\n    tag_377:\n        /* \"#utility.yul\":7171:7177   */\n      dup2\n        /* \"#utility.yul\":7167:7207   */\n      add\n        /* \"#utility.yul\":7309:7315   */\n      dup2\n        /* \"#utility.yul\":7297:7307   */\n      dup2\n        /* \"#utility.yul\":7294:7316   */\n      lt\n        /* \"#utility.yul\":7273:7291   */\n      0xffffffffffffffff\n        /* \"#utility.yul\":7261:7271   */\n      dup3\n        /* \"#utility.yul\":7258:7292   */\n      gt\n        /* \"#utility.yul\":7255:7317   */\n      or\n        /* \"#utility.yul\":7252:7340   */\n      iszero\n      tag_378\n      jumpi\n        /* \"#utility.yul\":7320:7338   */\n      tag_379\n      tag_260\n      jump\t// in\n    tag_379:\n        /* \"#utility.yul\":7252:7340   */\n    tag_378:\n        /* \"#utility.yul\":7360:7370   */\n      dup1\n        /* \"#utility.yul\":7356:7358   */\n      0x40\n        /* \"#utility.yul\":7349:7371   */\n      mstore\n        /* \"#utility.yul\":7139:7377   */\n      pop\n        /* \"#utility.yul\":7096:7377   */\n      pop\n      pop\n      jump\t// out\n        /* \"#utility.yul\":7383:7512   */\n    tag_262:\n        /* \"#utility.yul\":7417:7423   */\n      0x00\n        /* \"#utility.yul\":7444:7464   */\n      tag_381\n      tag_244\n      jump\t// in\n    tag_381:\n        /* \"#utility.yul\":7434:7464   */\n      swap1\n      pop\n        /* \"#utility.yul\":7473:7506   */\n      tag_382\n        /* \"#utility.yul\":7501:7505   */\n      dup3\n        /* \"#utility.yul\":7493:7499   */\n      dup3\n        /* \"#utility.yul\":7473:7506   */\n      tag_261\n      jump\t// in\n    tag_382:\n        /* \"#utility.yul\":7383:7512   */\n      swap2\n      swap1\n      pop\n      jump\t// out\n        /* \"#utility.yul\":7518:7826   */\n    tag_263:\n        /* \"#utility.yul\":7580:7584   */\n      0x00\n        /* \"#utility.yul\":7670:7688   */\n      0xffffffffffffffff\n        /* \"#utility.yul\":7662:7668   */\n      dup3\n        /* \"#utility.yul\":7659:7689   */\n      gt\n        /* \"#utility.yul\":7656:7712   */\n      iszero\n      tag_384\n      jumpi\n        /* \"#utility.yul\":7692:7710   */\n      tag_385\n      tag_260\n      jump\t// in\n    tag_385:\n        /* \"#utility.yul\":7656:7712   */\n    tag_384:\n        /* \"#utility.yul\":7730:7759   */\n      tag_386\n        /* \"#utility.yul\":7752:7758   */\n      dup3\n        /* \"#utility.yul\":7730:7759   */\n      tag_242\n      jump\t// in\n    tag_386:\n        /* \"#utility.yul\":7722:7759   */\n      swap1\n      pop\n        /* \"#utility.yul\":7814:7818   */\n      0x20\n        /* \"#utility.yul\":7808:7812   */\n      dup2\n        /* \"#utility.yul\":7804:7819   */\n      add\n        /* \"#utility.yul\":7796:7819   */\n      swap1\n      pop\n        /* \"#utility.yul\":7518:7826   */\n      swap2\n      swap1\n      pop\n      jump\t// out\n        /* \"#utility.yul\":7832:7978   */\n    tag_264:\n        /* \"#utility.yul\":7929:7935   */\n      dup3\n        /* \"#utility.yul\":7924:7927   */\n      dup2\n        /* \"#utility.yul\":7919:7922   */\n      dup4\n        /* \"#utility.yul\":7906:7936   */\n      calldatacopy\n        /* \"#utility.yul\":7970:7971   */\n      0x00\n        /* \"#utility.yul\":7961:7967   */\n      dup4\n        /* \"#utility.yul\":7956:7959   */\n      dup4\n        /* \"#utility.yul\":7952:7968   */\n      add\n        /* \"#utility.yul\":7945:7972   */\n      mstore\n        /* \"#utility.yul\":7832:7978   */\n      pop\n      pop\n      pop\n      jump\t// out\n        /* \"#utility.yul\":7984:8409   */\n    tag_265:\n        /* \"#utility.yul\":8062:8067   */\n      0x00\n        /* \"#utility.yul\":8087:8153   */\n      tag_389\n        /* \"#utility.yul\":8103:8152   */\n      tag_390\n        /* \"#utility.yul\":8145:8151   */\n      dup5\n        /* \"#utility.yul\":8103:8152   */\n      tag_263\n      jump\t// in\n    tag_390:\n        /* \"#utility.yul\":8087:8153   */\n      tag_262\n      jump\t// in\n    tag_389:\n        /* \"#utility.yul\":8078:8153   */\n      swap1\n      pop\n        /* \"#utility.yul\":8176:8182   */\n      dup3\n        /* \"#utility.yul\":8169:8174   */\n      dup2\n        /* \"#utility.yul\":8162:8183   */\n      mstore\n        /* \"#utility.yul\":8214:8218   */\n      0x20\n        /* \"#utility.yul\":8207:8212   */\n      dup2\n        /* \"#utility.yul\":8203:8219   */\n      add\n        /* \"#utility.yul\":8252:8255   */\n      dup5\n        /* \"#utility.yul\":8243:8249   */\n      dup5\n        /* \"#utility.yul\":8238:8241   */\n      dup5\n        /* \"#utility.yul\":8234:8250   */\n      add\n        /* \"#utility.yul\":8231:8256   */\n      gt\n        /* \"#utility.yul\":8228:8340   */\n      iszero\n      tag_391\n      jumpi\n        /* \"#utility.yul\":8259:8338   */\n      tag_392\n      tag_259\n      jump\t// in\n    tag_392:\n        /* \"#utility.yul\":8228:8340   */\n    tag_391:\n        /* \"#utility.yul\":8349:8403   */\n      tag_393\n        /* \"#utility.yul\":8396:8402   */\n      dup5\n        /* \"#utility.yul\":8391:8394   */\n      dup3\n        /* \"#utility.yul\":8386:8389   */\n      dup6\n        /* \"#utility.yul\":8349:8403   */\n      tag_264\n      jump\t// in\n    tag_393:\n        /* \"#utility.yul\":8068:8409   */\n      pop\n        /* \"#utility.yul\":7984:8409   */\n      swap4\n      swap3\n      pop\n      pop\n      pop\n      jump\t// out\n        /* \"#utility.yul\":8429:8769   */\n    tag_266:\n        /* \"#utility.yul\":8485:8490   */\n      0x00\n        /* \"#utility.yul\":8534:8537   */\n      dup3\n        /* \"#utility.yul\":8527:8531   */\n      0x1f\n        /* \"#utility.yul\":8519:8525   */\n      dup4\n        /* \"#utility.yul\":8515:8532   */\n      add\n        /* \"#utility.yul\":8511:8538   */\n      slt\n        /* \"#utility.yul\":8501:8623   */\n      tag_395\n      jumpi\n        /* \"#utility.yul\":8542:8621   */\n      tag_396\n      tag_258\n      jump\t// in\n    tag_396:\n        /* \"#utility.yul\":8501:8623   */\n    tag_395:\n        /* \"#utility.yul\":8659:8665   */\n      dup2\n        /* \"#utility.yul\":8646:8666   */\n      calldataload\n        /* \"#utility.yul\":8684:8763   */\n      tag_397\n        /* \"#utility.yul\":8759:8762   */\n      dup5\n        /* \"#utility.yul\":8751:8757   */\n      dup3\n        /* \"#utility.yul\":8744:8748   */\n      0x20\n        /* \"#utility.yul\":8736:8742   */\n      dup7\n        /* \"#utility.yul\":8732:8749   */\n      add\n        /* \"#utility.yul\":8684:8763   */\n      tag_265\n      jump\t// in\n    tag_397:\n        /* \"#utility.yul\":8675:8763   */\n      swap2\n      pop\n        /* \"#utility.yul\":8491:8769   */\n      pop\n        /* \"#utility.yul\":8429:8769   */\n      swap3\n      swap2\n      pop\n      pop\n      jump\t// out\n        /* \"#utility.yul\":8775:9429   */\n    tag_80:\n        /* \"#utility.yul\":8853:8859   */\n      0x00\n        /* \"#utility.yul\":8861:8867   */\n      dup1\n        /* \"#utility.yul\":8910:8912   */\n      0x40\n        /* \"#utility.yul\":8898:8907   */\n      dup4\n        /* \"#utility.yul\":8889:8896   */\n      dup6\n        /* \"#utility.yul\":8885:8908   */\n      sub\n        /* \"#utility.yul\":8881:8913   */\n      slt\n        /* \"#utility.yul\":8878:8997   */\n      iszero\n      tag_399\n      jumpi\n        /* \"#utility.yul\":8916:8995   */\n      tag_400\n      tag_245\n      jump\t// in\n    tag_400:\n        /* \"#utility.yul\":8878:8997   */\n    tag_399:\n        /* \"#utility.yul\":9064:9065   */\n      0x00\n        /* \"#utility.yul\":9053:9062   */\n      dup4\n        /* \"#utility.yul\":9049:9066   */\n      add\n        /* \"#utility.yul\":9036:9067   */\n      calldataload\n        /* \"#utility.yul\":9094:9112   */\n      0xffffffffffffffff\n        /* \"#utility.yul\":9086:9092   */\n      dup2\n        /* \"#utility.yul\":9083:9113   */\n      gt\n        /* \"#utility.yul\":9080:9197   */\n      iszero\n      tag_401\n      jumpi\n        /* \"#utility.yul\":9116:9195   */\n      tag_402\n      tag_246\n      jump\t// in\n    tag_402:\n        /* \"#utility.yul\":9080:9197   */\n    tag_401:\n        /* \"#utility.yul\":9221:9284   */\n      tag_403\n        /* \"#utility.yul\":9276:9283   */\n      dup6\n        /* \"#utility.yul\":9267:9273   */\n      dup3\n        /* \"#utility.yul\":9256:9265   */\n      dup7\n        /* \"#utility.yul\":9252:9274   */\n      add\n        /* \"#utility.yul\":9221:9284   */\n      tag_266\n      jump\t// in\n    tag_403:\n        /* \"#utility.yul\":9211:9284   */\n      swap3\n      pop\n        /* \"#utility.yul\":9007:9294   */\n      pop\n        /* \"#utility.yul\":9333:9335   */\n      0x20\n        /* \"#utility.yul\":9359:9412   */\n      tag_404\n        /* \"#utility.yul\":9404:9411   */\n      dup6\n        /* \"#utility.yul\":9395:9401   */\n      dup3\n        /* \"#utility.yul\":9384:9393   */\n      dup7\n        /* \"#utility.yul\":9380:9402   */\n      add\n        /* \"#utility.yul\":9359:9412   */\n      tag_252\n      jump\t// in\n    tag_404:\n        /* \"#utility.yul\":9349:9412   */\n      swap2\n      pop\n        /* \"#utility.yul\":9304:9422   */\n      pop\n        /* \"#utility.yul\":8775:9429   */\n      swap3\n      pop\n      swap3\n      swap1\n      pop\n      jump\t// out\n        /* \"#utility.yul\":9435:9572   */\n    tag_267:\n        /* \"#utility.yul\":9525:9531   */\n      0x00\n        /* \"#utility.yul\":9559:9564   */\n      dup2\n        /* \"#utility.yul\":9553:9565   */\n      mload\n        /* \"#utility.yul\":9543:9565   */\n      swap1\n      pop\n        /* \"#utility.yul\":9435:9572   */\n      swap2\n      swap1\n      pop\n      jump\t// out\n        /* \"#utility.yul\":9578:9785   */\n    tag_268:\n        /* \"#utility.yul\":9700:9711   */\n      0x00\n        /* \"#utility.yul\":9734:9740   */\n      dup3\n        /* \"#utility.yul\":9729:9732   */\n      dup3\n        /* \"#utility.yul\":9722:9741   */\n      mstore\n        /* \"#utility.yul\":9774:9778   */\n      0x20\n        /* \"#utility.yul\":9769:9772   */\n      dup3\n        /* \"#utility.yul\":9765:9779   */\n      add\n        /* \"#utility.yul\":9750:9779   */\n      swap1\n      pop\n        /* \"#utility.yul\":9578:9785   */\n      swap3\n      swap2\n      pop\n      pop\n      jump\t// out\n        /* \"#utility.yul\":9791:9946   */\n    tag_269:\n        /* \"#utility.yul\":9881:9885   */\n      0x00\n        /* \"#utility.yul\":9904:9907   */\n      dup2\n        /* \"#utility.yul\":9896:9907   */\n      swap1\n      pop\n        /* \"#utility.yul\":9934:9938   */\n      0x20\n        /* \"#utility.yul\":9929:9932   */\n      dup3\n        /* \"#utility.yul\":9925:9939   */\n      add\n        /* \"#utility.yul\":9917:9939   */\n      swap1\n      pop\n        /* \"#utility.yul\":9791:9946   */\n      swap2\n      swap1\n      pop\n      jump\t// out\n        /* \"#utility.yul\":9952:10060   */\n    tag_270:\n        /* \"#utility.yul\":10029:10053   */\n      tag_409\n        /* \"#utility.yul\":10047:10052   */\n      dup2\n        /* \"#utility.yul\":10029:10053   */\n      tag_237\n      jump\t// in\n    tag_409:\n        /* \"#utility.yul\":10024:10027   */\n      dup3\n        /* \"#utility.yul\":10017:10054   */\n      mstore\n        /* \"#utility.yul\":9952:10060   */\n      pop\n      pop\n      jump\t// out\n        /* \"#utility.yul\":10066:10225   */\n    tag_271:\n        /* \"#utility.yul\":10140:10151   */\n      0x00\n        /* \"#utility.yul\":10174:10180   */\n      dup3\n        /* \"#utility.yul\":10169:10172   */\n      dup3\n        /* \"#utility.yul\":10162:10181   */\n      mstore\n        /* \"#utility.yul\":10214:10218   */\n      0x20\n        /* \"#utility.yul\":10209:10212   */\n      dup3\n        /* \"#utility.yul\":10205:10219   */\n      add\n        /* \"#utility.yul\":10190:10219   */\n      swap1\n      pop\n        /* \"#utility.yul\":10066:10225   */\n      swap3\n      swap2\n      pop\n      pop\n      jump\t// out\n        /* \"#utility.yul\":10231:10588   */\n    tag_272:\n        /* \"#utility.yul\":10309:10312   */\n      0x00\n        /* \"#utility.yul\":10337:10376   */\n      tag_412\n        /* \"#utility.yul\":10370:10375   */\n      dup3\n        /* \"#utility.yul\":10337:10376   */\n      tag_239\n      jump\t// in\n    tag_412:\n        /* \"#utility.yul\":10392:10453   */\n      tag_413\n        /* \"#utility.yul\":10446:10452   */\n      dup2\n        /* \"#utility.yul\":10441:10444   */\n      dup6\n        /* \"#utility.yul\":10392:10453   */\n      tag_271\n      jump\t// in\n    tag_413:\n        /* \"#utility.yul\":10385:10453   */\n      swap4\n      pop\n        /* \"#utility.yul\":10462:10527   */\n      tag_414\n        /* \"#utility.yul\":10520:10526   */\n      dup2\n        /* \"#utility.yul\":10515:10518   */\n      dup6\n        /* \"#utility.yul\":10508:10512   */\n      0x20\n        /* \"#utility.yul\":10501:10506   */\n      dup7\n        /* \"#utility.yul\":10497:10513   */\n      add\n        /* \"#utility.yul\":10462:10527   */\n      tag_241\n      jump\t// in\n    tag_414:\n        /* \"#utility.yul\":10552:10581   */\n      tag_415\n        /* \"#utility.yul\":10574:10580   */\n      dup2\n        /* \"#utility.yul\":10552:10581   */\n      tag_242\n      jump\t// in\n    tag_415:\n        /* \"#utility.yul\":10547:10550   */\n      dup5\n        /* \"#utility.yul\":10543:10582   */\n      add\n        /* \"#utility.yul\":10536:10582   */\n      swap2\n      pop\n        /* \"#utility.yul\":10313:10588   */\n      pop\n        /* \"#utility.yul\":10231:10588   */\n      swap3\n      swap2\n      pop\n      pop\n      jump\t// out\n        /* \"#utility.yul\":10644:11409   */\n    tag_273:\n        /* \"#utility.yul\":10749:10752   */\n      0x00\n        /* \"#utility.yul\":10785:10789   */\n      0x60\n        /* \"#utility.yul\":10780:10783   */\n      dup4\n        /* \"#utility.yul\":10776:10790   */\n      add\n        /* \"#utility.yul\":10870:10874   */\n      0x00\n        /* \"#utility.yul\":10863:10868   */\n      dup4\n        /* \"#utility.yul\":10859:10875   */\n      add\n        /* \"#utility.yul\":10853:10876   */\n      mload\n        /* \"#utility.yul\":10889:10952   */\n      tag_417\n        /* \"#utility.yul\":10946:10950   */\n      0x00\n        /* \"#utility.yul\":10941:10944   */\n      dup7\n        /* \"#utility.yul\":10937:10951   */\n      add\n        /* \"#utility.yul\":10923:10935   */\n      dup3\n        /* \"#utility.yul\":10889:10952   */\n      tag_270\n      jump\t// in\n    tag_417:\n        /* \"#utility.yul\":10800:10962   */\n      pop\n        /* \"#utility.yul\":11044:11048   */\n      0x20\n        /* \"#utility.yul\":11037:11042   */\n      dup4\n        /* \"#utility.yul\":11033:11049   */\n      add\n        /* \"#utility.yul\":11027:11050   */\n      mload\n        /* \"#utility.yul\":11097:11100   */\n      dup5\n        /* \"#utility.yul\":11091:11095   */\n      dup3\n        /* \"#utility.yul\":11087:11101   */\n      sub\n        /* \"#utility.yul\":11080:11084   */\n      0x20\n        /* \"#utility.yul\":11075:11078   */\n      dup7\n        /* \"#utility.yul\":11071:11085   */\n      add\n        /* \"#utility.yul\":11064:11102   */\n      mstore\n        /* \"#utility.yul\":11123:11196   */\n      tag_418\n        /* \"#utility.yul\":11191:11195   */\n      dup3\n        /* \"#utility.yul\":11177:11189   */\n      dup3\n        /* \"#utility.yul\":11123:11196   */\n      tag_272\n      jump\t// in\n    tag_418:\n        /* \"#utility.yul\":11115:11196   */\n      swap2\n      pop\n        /* \"#utility.yul\":10972:11207   */\n      pop\n        /* \"#utility.yul\":11290:11294   */\n      0x40\n        /* \"#utility.yul\":11283:11288   */\n      dup4\n        /* \"#utility.yul\":11279:11295   */\n      add\n        /* \"#utility.yul\":11273:11296   */\n      mload\n        /* \"#utility.yul\":11309:11372   */\n      tag_419\n        /* \"#utility.yul\":11366:11370   */\n      0x40\n        /* \"#utility.yul\":11361:11364   */\n      dup7\n        /* \"#utility.yul\":11357:11371   */\n      add\n        /* \"#utility.yul\":11343:11355   */\n      dup3\n        /* \"#utility.yul\":11309:11372   */\n      tag_270\n      jump\t// in\n    tag_419:\n        /* \"#utility.yul\":11217:11382   */\n      pop\n        /* \"#utility.yul\":11399:11403   */\n      dup1\n        /* \"#utility.yul\":11392:11403   */\n      swap2\n      pop\n        /* \"#utility.yul\":10754:11409   */\n      pop\n        /* \"#utility.yul\":10644:11409   */\n      swap3\n      swap2\n      pop\n      pop\n      jump\t// out\n        /* \"#utility.yul\":11415:11663   */\n    tag_274:\n        /* \"#utility.yul\":11530:11540   */\n      0x00\n        /* \"#utility.yul\":11565:11657   */\n      tag_421\n        /* \"#utility.yul\":11653:11656   */\n      dup4\n        /* \"#utility.yul\":11645:11651   */\n      dup4\n        /* \"#utility.yul\":11565:11657   */\n      tag_273\n      jump\t// in\n    tag_421:\n        /* \"#utility.yul\":11551:11657   */\n      swap1\n      pop\n        /* \"#utility.yul\":11415:11663   */\n      swap3\n      swap2\n      pop\n      pop\n      jump\t// out\n        /* \"#utility.yul\":11669:11805   */\n    tag_275:\n        /* \"#utility.yul\":11762:11766   */\n      0x00\n        /* \"#utility.yul\":11794:11798   */\n      0x20\n        /* \"#utility.yul\":11789:11792   */\n      dup3\n        /* \"#utility.yul\":11785:11799   */\n      add\n        /* \"#utility.yul\":11777:11799   */\n      swap1\n      pop\n        /* \"#utility.yul\":11669:11805   */\n      swap2\n      swap1\n      pop\n      jump\t// out\n        /* \"#utility.yul\":11865:12960   */\n    tag_276:\n        /* \"#utility.yul\":12030:12033   */\n      0x00\n        /* \"#utility.yul\":12059:12136   */\n      tag_424\n        /* \"#utility.yul\":12130:12135   */\n      dup3\n        /* \"#utility.yul\":12059:12136   */\n      tag_267\n      jump\t// in\n    tag_424:\n        /* \"#utility.yul\":12152:12261   */\n      tag_425\n        /* \"#utility.yul\":12254:12260   */\n      dup2\n        /* \"#utility.yul\":12249:12252   */\n      dup6\n        /* \"#utility.yul\":12152:12261   */\n      tag_268\n      jump\t// in\n    tag_425:\n        /* \"#utility.yul\":12145:12261   */\n      swap4\n      pop\n        /* \"#utility.yul\":12287:12290   */\n      dup4\n        /* \"#utility.yul\":12332:12336   */\n      0x20\n        /* \"#utility.yul\":12324:12330   */\n      dup3\n        /* \"#utility.yul\":12320:12337   */\n      mul\n        /* \"#utility.yul\":12315:12318   */\n      dup6\n        /* \"#utility.yul\":12311:12338   */\n      add\n        /* \"#utility.yul\":12362:12441   */\n      tag_426\n        /* \"#utility.yul\":12435:12440   */\n      dup6\n        /* \"#utility.yul\":12362:12441   */\n      tag_269\n      jump\t// in\n    tag_426:\n        /* \"#utility.yul\":12464:12471   */\n      dup1\n        /* \"#utility.yul\":12495:12496   */\n      0x00\n        /* \"#utility.yul\":12480:12915   */\n    tag_427:\n        /* \"#utility.yul\":12505:12511   */\n      dup6\n        /* \"#utility.yul\":12502:12503   */\n      dup2\n        /* \"#utility.yul\":12499:12512   */\n      lt\n        /* \"#utility.yul\":12480:12915   */\n      iszero\n      tag_429\n      jumpi\n        /* \"#utility.yul\":12576:12585   */\n      dup5\n        /* \"#utility.yul\":12570:12574   */\n      dup5\n        /* \"#utility.yul\":12566:12586   */\n      sub\n        /* \"#utility.yul\":12561:12564   */\n      dup10\n        /* \"#utility.yul\":12554:12587   */\n      mstore\n        /* \"#utility.yul\":12627:12633   */\n      dup2\n        /* \"#utility.yul\":12621:12634   */\n      mload\n        /* \"#utility.yul\":12655:12765   */\n      tag_430\n        /* \"#utility.yul\":12760:12764   */\n      dup6\n        /* \"#utility.yul\":12745:12758   */\n      dup3\n        /* \"#utility.yul\":12655:12765   */\n      tag_274\n      jump\t// in\n    tag_430:\n        /* \"#utility.yul\":12647:12765   */\n      swap5\n      pop\n        /* \"#utility.yul\":12788:12871   */\n      tag_431\n        /* \"#utility.yul\":12864:12870   */\n      dup4\n        /* \"#utility.yul\":12788:12871   */\n      tag_275\n      jump\t// in\n    tag_431:\n        /* \"#utility.yul\":12778:12871   */\n      swap3\n      pop\n        /* \"#utility.yul\":12900:12904   */\n      0x20\n        /* \"#utility.yul\":12895:12898   */\n      dup11\n        /* \"#utility.yul\":12891:12905   */\n      add\n        /* \"#utility.yul\":12884:12905   */\n      swap10\n      pop\n        /* \"#utility.yul\":12540:12915   */\n      pop\n        /* \"#utility.yul\":12527:12528   */\n      0x01\n        /* \"#utility.yul\":12524:12525   */\n      dup2\n        /* \"#utility.yul\":12520:12529   */\n      add\n        /* \"#utility.yul\":12515:12529   */\n      swap1\n      pop\n        /* \"#utility.yul\":12480:12915   */\n      jump(tag_427)\n    tag_429:\n        /* \"#utility.yul\":12484:12498   */\n      pop\n        /* \"#utility.yul\":12931:12935   */\n      dup3\n        /* \"#utility.yul\":12924:12935   */\n      swap8\n      pop\n        /* \"#utility.yul\":12951:12954   */\n      dup8\n        /* \"#utility.yul\":12944:12954   */\n      swap6\n      pop\n        /* \"#utility.yul\":12035:12960   */\n      pop\n      pop\n      pop\n      pop\n      pop\n        /* \"#utility.yul\":11865:12960   */\n      swap3\n      swap2\n      pop\n      pop\n      jump\t// out\n        /* \"#utility.yul\":12966:13431   */\n    tag_96:\n        /* \"#utility.yul\":13155:13159   */\n      0x00\n        /* \"#utility.yul\":13193:13195   */\n      0x20\n        /* \"#utility.yul\":13182:13191   */\n      dup3\n        /* \"#utility.yul\":13178:13196   */\n      add\n        /* \"#utility.yul\":13170:13196   */\n      swap1\n      pop\n        /* \"#utility.yul\":13242:13251   */\n      dup2\n        /* \"#utility.yul\":13236:13240   */\n      dup2\n        /* \"#utility.yul\":13232:13252   */\n      sub\n        /* \"#utility.yul\":13228:13229   */\n      0x00\n        /* \"#utility.yul\":13217:13226   */\n      dup4\n        /* \"#utility.yul\":13213:13230   */\n      add\n        /* \"#utility.yul\":13206:13253   */\n      mstore\n        /* \"#utility.yul\":13270:13424   */\n      tag_433\n        /* \"#utility.yul\":13419:13423   */\n      dup2\n        /* \"#utility.yul\":13410:13416   */\n      dup5\n        /* \"#utility.yul\":13270:13424   */\n      tag_276\n      jump\t// in\n    tag_433:\n        /* \"#utility.yul\":13262:13424   */\n      swap1\n      pop\n        /* \"#utility.yul\":12966:13431   */\n      swap3\n      swap2\n      pop\n      pop\n      jump\t// out\n        /* \"#utility.yul\":13437:13911   */\n    tag_104:\n        /* \"#utility.yul\":13505:13511   */\n      0x00\n        /* \"#utility.yul\":13513:13519   */\n      dup1\n        /* \"#utility.yul\":13562:13564   */\n      0x40\n        /* \"#utility.yul\":13550:13559   */\n      dup4\n        /* \"#utility.yul\":13541:13548   */\n      dup6\n        /* \"#utility.yul\":13537:13560   */\n      sub\n        /* \"#utility.yul\":13533:13565   */\n      slt\n        /* \"#utility.yul\":13530:13649   */\n      iszero\n      tag_435\n      jumpi\n        /* \"#utility.yul\":13568:13647   */\n      tag_436\n      tag_245\n      jump\t// in\n    tag_436:\n        /* \"#utility.yul\":13530:13649   */\n    tag_435:\n        /* \"#utility.yul\":13688:13689   */\n      0x00\n        /* \"#utility.yul\":13713:13766   */\n      tag_437\n        /* \"#utility.yul\":13758:13765   */\n      dup6\n        /* \"#utility.yul\":13749:13755   */\n      dup3\n        /* \"#utility.yul\":13738:13747   */\n      dup7\n        /* \"#utility.yul\":13734:13756   */\n      add\n        /* \"#utility.yul\":13713:13766   */\n      tag_250\n      jump\t// in\n    tag_437:\n        /* \"#utility.yul\":13703:13766   */\n      swap3\n      pop\n        /* \"#utility.yul\":13659:13776   */\n      pop\n        /* \"#utility.yul\":13815:13817   */\n      0x20\n        /* \"#utility.yul\":13841:13894   */\n      tag_438\n        /* \"#utility.yul\":13886:13893   */\n      dup6\n        /* \"#utility.yul\":13877:13883   */\n      dup3\n        /* \"#utility.yul\":13866:13875   */\n      dup7\n        /* \"#utility.yul\":13862:13884   */\n      add\n        /* \"#utility.yul\":13841:13894   */\n      tag_250\n      jump\t// in\n    tag_438:\n        /* \"#utility.yul\":13831:13894   */\n      swap2\n      pop\n        /* \"#utility.yul\":13786:13904   */\n      pop\n        /* \"#utility.yul\":13437:13911   */\n      swap3\n      pop\n      swap3\n      swap1\n      pop\n      jump\t// out\n        /* \"#utility.yul\":13917:14108   */\n    tag_111:\n        /* \"#utility.yul\":13957:13960   */\n      0x00\n        /* \"#utility.yul\":13976:13996   */\n      tag_440\n        /* \"#utility.yul\":13994:13995   */\n      dup3\n        /* \"#utility.yul\":13976:13996   */\n      tag_237\n      jump\t// in\n    tag_440:\n        /* \"#utility.yul\":13971:13996   */\n      swap2\n      pop\n        /* \"#utility.yul\":14010:14030   */\n      tag_441\n        /* \"#utility.yul\":14028:14029   */\n      dup4\n        /* \"#utility.yul\":14010:14030   */\n      tag_237\n      jump\t// in\n    tag_441:\n        /* \"#utility.yul\":14005:14030   */\n      swap3\n      pop\n        /* \"#utility.yul\":14053:14054   */\n      dup3\n        /* \"#utility.yul\":14050:14051   */\n      dup3\n        /* \"#utility.yul\":14046:14055   */\n      add\n        /* \"#utility.yul\":14039:14055   */\n      swap1\n      pop\n        /* \"#utility.yul\":14074:14077   */\n      dup1\n        /* \"#utility.yul\":14071:14072   */\n      dup3\n        /* \"#utility.yul\":14068:14078   */\n      gt\n        /* \"#utility.yul\":14065:14101   */\n      iszero\n      tag_442\n      jumpi\n        /* \"#utility.yul\":14081:14099   */\n      tag_443\n      tag_238\n      jump\t// in\n    tag_443:\n        /* \"#utility.yul\":14065:14101   */\n    tag_442:\n        /* \"#utility.yul\":13917:14108   */\n      swap3\n      swap2\n      pop\n      pop\n      jump\t// out\n        /* \"#utility.yul\":14114:14232   */\n    tag_277:\n        /* \"#utility.yul\":14201:14225   */\n      tag_445\n        /* \"#utility.yul\":14219:14224   */\n      dup2\n        /* \"#utility.yul\":14201:14225   */\n      tag_248\n      jump\t// in\n    tag_445:\n        /* \"#utility.yul\":14196:14199   */\n      dup3\n        /* \"#utility.yul\":14189:14226   */\n      mstore\n        /* \"#utility.yul\":14114:14232   */\n      pop\n      pop\n      jump\t// out\n        /* \"#utility.yul\":14238:14680   */\n    tag_115:\n        /* \"#utility.yul\":14387:14391   */\n      0x00\n        /* \"#utility.yul\":14425:14427   */\n      0x60\n        /* \"#utility.yul\":14414:14423   */\n      dup3\n        /* \"#utility.yul\":14410:14428   */\n      add\n        /* \"#utility.yul\":14402:14428   */\n      swap1\n      pop\n        /* \"#utility.yul\":14438:14509   */\n      tag_447\n        /* \"#utility.yul\":14506:14507   */\n      0x00\n        /* \"#utility.yul\":14495:14504   */\n      dup4\n        /* \"#utility.yul\":14491:14508   */\n      add\n        /* \"#utility.yul\":14482:14488   */\n      dup7\n        /* \"#utility.yul\":14438:14509   */\n      tag_277\n      jump\t// in\n    tag_447:\n        /* \"#utility.yul\":14519:14591   */\n      tag_448\n        /* \"#utility.yul\":14587:14589   */\n      0x20\n        /* \"#utility.yul\":14576:14585   */\n      dup4\n        /* \"#utility.yul\":14572:14590   */\n      add\n        /* \"#utility.yul\":14563:14569   */\n      dup6\n        /* \"#utility.yul\":14519:14591   */\n      tag_255\n      jump\t// in\n    tag_448:\n        /* \"#utility.yul\":14601:14673   */\n      tag_449\n        /* \"#utility.yul\":14669:14671   */\n      0x40\n        /* \"#utility.yul\":14658:14667   */\n      dup4\n        /* \"#utility.yul\":14654:14672   */\n      add\n        /* \"#utility.yul\":14645:14651   */\n      dup5\n        /* \"#utility.yul\":14601:14673   */\n      tag_255\n      jump\t// in\n    tag_449:\n        /* \"#utility.yul\":14238:14680   */\n      swap5\n      swap4\n      pop\n      pop\n      pop\n      pop\n      jump\t// out\n        /* \"#utility.yul\":14686:14908   */\n    tag_122:\n        /* \"#utility.yul\":14779:14783   */\n      0x00\n        /* \"#utility.yul\":14817:14819   */\n      0x20\n        /* \"#utility.yul\":14806:14815   */\n      dup3\n        /* \"#utility.yul\":14802:14820   */\n      add\n        /* \"#utility.yul\":14794:14820   */\n      swap1\n      pop\n        /* \"#utility.yul\":14830:14901   */\n      tag_451\n        /* \"#utility.yul\":14898:14899   */\n      0x00\n        /* \"#utility.yul\":14887:14896   */\n      dup4\n        /* \"#utility.yul\":14883:14900   */\n      add\n        /* \"#utility.yul\":14874:14880   */\n      dup5\n        /* \"#utility.yul\":14830:14901   */\n      tag_277\n      jump\t// in\n    tag_451:\n        /* \"#utility.yul\":14686:14908   */\n      swap3\n      swap2\n      pop\n      pop\n      jump\t// out\n        /* \"#utility.yul\":14914:15094   */\n    tag_278:\n        /* \"#utility.yul\":14962:15039   */\n      0x4e487b7100000000000000000000000000000000000000000000000000000000\n        /* \"#utility.yul\":14959:14960   */\n      0x00\n        /* \"#utility.yul\":14952:15040   */\n      mstore\n        /* \"#utility.yul\":15059:15063   */\n      0x22\n        /* \"#utility.yul\":15056:15057   */\n      0x04\n        /* \"#utility.yul\":15049:15064   */\n      mstore\n        /* \"#utility.yul\":15083:15087   */\n      0x24\n        /* \"#utility.yul\":15080:15081   */\n      0x00\n        /* \"#utility.yul\":15073:15088   */\n      revert\n        /* \"#utility.yul\":15100:15420   */\n    tag_126:\n        /* \"#utility.yul\":15144:15150   */\n      0x00\n        /* \"#utility.yul\":15181:15182   */\n      0x02\n        /* \"#utility.yul\":15175:15179   */\n      dup3\n        /* \"#utility.yul\":15171:15183   */\n      div\n        /* \"#utility.yul\":15161:15183   */\n      swap1\n      pop\n        /* \"#utility.yul\":15228:15229   */\n      0x01\n        /* \"#utility.yul\":15222:15226   */\n      dup3\n        /* \"#utility.yul\":15218:15230   */\n      and\n        /* \"#utility.yul\":15249:15267   */\n      dup1\n        /* \"#utility.yul\":15239:15320   */\n      tag_454\n      jumpi\n        /* \"#utility.yul\":15305:15309   */\n      0x7f\n        /* \"#utility.yul\":15297:15303   */\n      dup3\n        /* \"#utility.yul\":15293:15310   */\n      and\n        /* \"#utility.yul\":15283:15310   */\n      swap2\n      pop\n        /* \"#utility.yul\":15239:15320   */\n    tag_454:\n        /* \"#utility.yul\":15367:15369   */\n      0x20\n        /* \"#utility.yul\":15359:15365   */\n      dup3\n        /* \"#utility.yul\":15356:15370   */\n      lt\n        /* \"#utility.yul\":15336:15354   */\n      dup2\n        /* \"#utility.yul\":15333:15371   */\n      sub\n        /* \"#utility.yul\":15330:15414   */\n      tag_455\n      jumpi\n        /* \"#utility.yul\":15386:15404   */\n      tag_456\n      tag_278\n      jump\t// in\n    tag_456:\n        /* \"#utility.yul\":15330:15414   */\n    tag_455:\n        /* \"#utility.yul\":15151:15420   */\n      pop\n        /* \"#utility.yul\":15100:15420   */\n      swap2\n      swap1\n      pop\n      jump\t// out\n        /* \"#utility.yul\":15426:15606   */\n    tag_159:\n        /* \"#utility.yul\":15474:15551   */\n      0x4e487b7100000000000000000000000000000000000000000000000000000000\n        /* \"#utility.yul\":15471:15472   */\n      0x00\n        /* \"#utility.yul\":15464:15552   */\n      mstore\n        /* \"#utility.yul\":15571:15575   */\n      0x32\n        /* \"#utility.yul\":15568:15569   */\n      0x04\n        /* \"#utility.yul\":15561:15576   */\n      mstore\n        /* \"#utility.yul\":15595:15599   */\n      0x24\n        /* \"#utility.yul\":15592:15593   */\n      0x00\n        /* \"#utility.yul\":15585:15600   */\n      revert\n        /* \"#utility.yul\":15612:15845   */\n    tag_171:\n        /* \"#utility.yul\":15651:15654   */\n      0x00\n        /* \"#utility.yul\":15674:15698   */\n      tag_459\n        /* \"#utility.yul\":15692:15697   */\n      dup3\n        /* \"#utility.yul\":15674:15698   */\n      tag_237\n      jump\t// in\n    tag_459:\n        /* \"#utility.yul\":15665:15698   */\n      swap2\n      pop\n        /* \"#utility.yul\":15720:15786   */\n      0xffffffffffffffffffffffffffffffffffffffffffffffffffffffffffffffff\n        /* \"#utility.yul\":15713:15718   */\n      dup3\n        /* \"#utility.yul\":15710:15787   */\n      sub\n        /* \"#utility.yul\":15707:15810   */\n      tag_460\n      jumpi\n        /* \"#utility.yul\":15790:15808   */\n      tag_461\n      tag_238\n      jump\t// in\n    tag_461:\n        /* \"#utility.yul\":15707:15810   */\n    tag_460:\n        /* \"#utility.yul\":15837:15838   */\n      0x01\n        /* \"#utility.yul\":15830:15835   */\n      dup3\n        /* \"#utility.yul\":15826:15839   */\n      add\n        /* \"#utility.yul\":15819:15839   */\n      swap1\n      pop\n        /* \"#utility.yul\":15612:15845   */\n      swap2\n      swap1\n      pop\n      jump\t// out\n        /* \"#utility.yul\":15851:15992   */\n    tag_279:\n        /* \"#utility.yul\":15900:15904   */\n      0x00\n        /* \"#utility.yul\":15923:15926   */\n      dup2\n        /* \"#utility.yul\":15915:15926   */\n      swap1\n      pop\n        /* \"#utility.yul\":15946:15949   */\n      dup2\n        /* \"#utility.yul\":15943:15944   */\n      0x00\n        /* \"#utility.yul\":15936:15950   */\n      mstore\n        /* \"#utility.yul\":15980:15984   */\n      0x20\n        /* \"#utility.yul\":15977:15978   */\n      0x00\n        /* \"#utility.yul\":15967:15985   */\n      keccak256\n        /* \"#utility.yul\":15959:15985   */\n      swap1\n      pop\n        /* \"#utility.yul\":15851:15992   */\n      swap2\n      swap1\n      pop\n      jump\t// out\n        /* \"#utility.yul\":15998:16091   */\n    tag_280:\n        /* \"#utility.yul\":16035:16041   */\n      0x00\n        /* \"#utility.yul\":16082:16084   */\n      0x20\n        /* \"#utility.yul\":16077:16079   */\n      0x1f\n        /* \"#utility.yul\":16070:16075   */\n      dup4\n        /* \"#utility.yul\":16066:16080   */\n      add\n        /* \"#utility.yul\":16062:16085   */\n      div\n        /* \"#utility.yul\":16052:16085   */\n      swap1\n      pop\n        /* \"#utility.yul\":15998:16091   */\n      swap2\n      swap1\n      pop\n      jump\t// out\n        /* \"#utility.yul\":16097:16204   */\n    tag_281:\n        /* \"#utility.yul\":16141:16149   */\n      0x00\n        /* \"#utility.yul\":16191:16196   */\n      dup3\n        /* \"#utility.yul\":16185:16189   */\n      dup3\n        /* \"#utility.yul\":16181:16197   */\n      shl\n        /* \"#utility.yul\":16160:16197   */\n      swap1\n      pop\n        /* \"#utility.yul\":16097:16204   */\n      swap3\n      swap2\n      pop\n      pop\n      jump\t// out\n        /* \"#utility.yul\":16210:16603   */\n    tag_282:\n        /* \"#utility.yul\":16279:16285   */\n      0x00\n        /* \"#utility.yul\":16329:16330   */\n      0x08\n        /* \"#utility.yul\":16317:16327   */\n      dup4\n        /* \"#utility.yul\":16313:16331   */\n      mul\n        /* \"#utility.yul\":16352:16449   */\n      tag_466\n        /* \"#utility.yul\":16382:16448   */\n      0xffffffffffffffffffffffffffffffffffffffffffffffffffffffffffffffff\n        /* \"#utility.yul\":16371:16380   */\n      dup3\n        /* \"#utility.yul\":16352:16449   */\n      tag_281\n      jump\t// in\n    tag_466:\n        /* \"#utility.yul\":16470:16509   */\n      tag_467\n        /* \"#utility.yul\":16500:16508   */\n      dup7\n        /* \"#utility.yul\":16489:16498   */\n      dup4\n        /* \"#utility.yul\":16470:16509   */\n      tag_281\n      jump\t// in\n    tag_467:\n        /* \"#utility.yul\":16458:16509   */\n      swap6\n      pop\n        /* \"#utility.yul\":16542:16546   */\n      dup1\n        /* \"#utility.yul\":16538:16547   */\n      not\n        /* \"#utility.yul\":16531:16536   */\n      dup5\n        /* \"#utility.yul\":16527:16548   */\n      and\n        /* \"#utility.yul\":16518:16548   */\n      swap4\n      pop\n        /* \"#utility.yul\":16591:16595   */\n      dup1\n        /* \"#utility.yul\":16581:16589   */\n      dup7\n        /* \"#utility.yul\":16577:16596   */\n      and\n        /* \"#utility.yul\":16570:16575   */\n      dup5\n        /* \"#utility.yul\":16567:16597   */\n      or\n        /* \"#utility.yul\":16557:16597   */\n      swap3\n      pop\n        /* \"#utility.yul\":16286:16603   */\n      pop\n      pop\n        /* \"#utility.yul\":16210:16603   */\n      swap4\n      swap3\n      pop\n      pop\n      pop\n      jump\t// out\n        /* \"#utility.yul\":16609:16669   */\n    tag_283:\n        /* \"#utility.yul\":16637:16640   */\n      0x00\n        /* \"#utility.yul\":16658:16663   */\n      dup2\n        /* \"#utility.yul\":16651:16663   */\n      swap1\n      pop\n        /* \"#utility.yul\":16609:16669   */\n      swap2\n      swap1\n      pop\n      jump\t// out\n        /* \"#utility.yul\":16675:16817   */\n    tag_284:\n        /* \"#utility.yul\":16725:16734   */\n      0x00\n        /* \"#utility.yul\":16758:16811   */\n      tag_470\n        /* \"#utility.yul\":16776:16810   */\n      tag_471\n        /* \"#utility.yul\":16785:16809   */\n      tag_472\n        /* \"#utility.yul\":16803:16808   */\n      dup5\n        /* \"#utility.yul\":16785:16809   */\n      tag_237\n      jump\t// in\n    tag_472:\n        /* \"#utility.yul\":16776:16810   */\n      tag_283\n      jump\t// in\n    tag_471:\n        /* \"#utility.yul\":16758:16811   */\n      tag_237\n      jump\t// in\n    tag_470:\n        /* \"#utility.yul\":16745:16811   */\n      swap1\n      pop\n        /* \"#utility.yul\":16675:16817   */\n      swap2\n      swap1\n      pop\n      jump\t// out\n        /* \"#utility.yul\":16823:16898   */\n    tag_285:\n        /* \"#utility.yul\":16866:16869   */\n      0x00\n        /* \"#utility.yul\":16887:16892   */\n      dup2\n        /* \"#utility.yul\":16880:16892   */\n      swap1\n      pop\n        /* \"#utility.yul\":16823:16898   */\n      swap2\n      swap1\n      pop\n      jump\t// out\n        /* \"#utility.yul\":16904:17173   */\n    tag_286:\n        /* \"#utility.yul\":17014:17053   */\n      tag_475\n        /* \"#utility.yul\":17045:17052   */\n      dup4\n        /* \"#utility.yul\":17014:17053   */\n      tag_284\n      jump\t// in\n    tag_475:\n        /* \"#utility.yul\":17075:17166   */\n      tag_476\n        /* \"#utility.yul\":17124:17165   */\n      tag_477\n        /* \"#utility.yul\":17148:17164   */\n      dup3\n        /* \"#utility.yul\":17124:17165   */\n      tag_285\n      jump\t// in\n    tag_477:\n        /* \"#utility.yul\":17116:17122   */\n      dup5\n        /* \"#utility.yul\":17109:17113   */\n      dup5\n        /* \"#utility.yul\":17103:17114   */\n      sload\n        /* \"#utility.yul\":17075:17166   */\n      tag_282\n      jump\t// in\n    tag_476:\n        /* \"#utility.yul\":17069:17073   */\n      dup3\n        /* \"#utility.yul\":17062:17167   */\n      sstore\n        /* \"#utility.yul\":16980:17173   */\n      pop\n        /* \"#utility.yul\":16904:17173   */\n      pop\n      pop\n      pop\n      jump\t// out\n        /* \"#utility.yul\":17179:17252   */\n    tag_287:\n        /* \"#utility.yul\":17224:17227   */\n      0x00\n        /* \"#utility.yul\":17179:17252   */\n      swap1\n      jump\t// out\n        /* \"#utility.yul\":17258:17447   */\n    tag_288:\n        /* \"#utility.yul\":17335:17367   */\n      tag_480\n      tag_287\n      jump\t// in\n    tag_480:\n        /* \"#utility.yul\":17376:17441   */\n      tag_481\n        /* \"#utility.yul\":17434:17440   */\n      dup2\n        /* \"#utility.yul\":17426:17432   */\n      dup5\n        /* \"#utility.yul\":17420:17424   */\n      dup5\n        /* \"#utility.yul\":17376:17441   */\n      tag_286\n      jump\t// in\n    tag_481:\n        /* \"#utility.yul\":17311:17447   */\n      pop\n        /* \"#utility.yul\":17258:17447   */\n      pop\n      pop\n      jump\t// out\n        /* \"#utility.yul\":17453:17639   */\n    tag_289:\n        /* \"#utility.yul\":17513:17633   */\n    tag_483:\n        /* \"#utility.yul\":17530:17533   */\n      dup2\n        /* \"#utility.yul\":17523:17528   */\n      dup2\n        /* \"#utility.yul\":17520:17534   */\n      lt\n        /* \"#utility.yul\":17513:17633   */\n      iszero\n      tag_485\n      jumpi\n        /* \"#utility.yul\":17584:17623   */\n      tag_486\n        /* \"#utility.yul\":17621:17622   */\n      0x00\n        /* \"#utility.yul\":17614:17619   */\n      dup3\n        /* \"#utility.yul\":17584:17623   */\n      tag_288\n      jump\t// in\n    tag_486:\n        /* \"#utility.yul\":17557:17558   */\n      0x01\n        /* \"#utility.yul\":17550:17555   */\n      dup2\n        /* \"#utility.yul\":17546:17559   */\n      add\n        /* \"#utility.yul\":17537:17559   */\n      swap1\n      pop\n        /* \"#utility.yul\":17513:17633   */\n      jump(tag_483)\n    tag_485:\n        /* \"#utility.yul\":17453:17639   */\n      pop\n      pop\n      jump\t// out\n        /* \"#utility.yul\":17645:18188   */\n    tag_290:\n        /* \"#utility.yul\":17746:17748   */\n      0x1f\n        /* \"#utility.yul\":17741:17744   */\n      dup3\n        /* \"#utility.yul\":17738:17749   */\n      gt\n        /* \"#utility.yul\":17735:18181   */\n      iszero\n      tag_488\n      jumpi\n        /* \"#utility.yul\":17780:17818   */\n      tag_489\n        /* \"#utility.yul\":17812:17817   */\n      dup2\n        /* \"#utility.yul\":17780:17818   */\n      tag_279\n      jump\t// in\n    tag_489:\n        /* \"#utility.yul\":17864:17893   */\n      tag_490\n        /* \"#utility.yul\":17882:17892   */\n      dup5\n        /* \"#utility.yul\":17864:17893   */\n      tag_280\n      jump\t// in\n    tag_490:\n        /* \"#utility.yul\":17854:17862   */\n      dup2\n        /* \"#utility.yul\":17850:17894   */\n      add\n        /* \"#utility.yul\":18047:18049   */\n      0x20\n        /* \"#utility.yul\":18035:18045   */\n      dup6\n        /* \"#utility.yul\":18032:18050   */\n      lt\n        /* \"#utility.yul\":18029:18078   */\n      iszero\n      tag_491\n      jumpi\n        /* \"#utility.yul\":18068:18076   */\n      dup2\n        /* \"#utility.yul\":18053:18076   */\n      swap1\n      pop\n        /* \"#utility.yul\":18029:18078   */\n    tag_491:\n        /* \"#utility.yul\":18091:18171   */\n      tag_492\n        /* \"#utility.yul\":18147:18169   */\n      tag_493\n        /* \"#utility.yul\":18165:18168   */\n      dup6\n        /* \"#utility.yul\":18147:18169   */\n      tag_280\n      jump\t// in\n    tag_493:\n        /* \"#utility.yul\":18137:18145   */\n      dup4\n        /* \"#utility.yul\":18133:18170   */\n      add\n        /* \"#utility.yul\":18120:18131   */\n      dup3\n        /* \"#utility.yul\":18091:18171   */\n      tag_289\n      jump\t// in\n    tag_492:\n        /* \"#utility.yul\":17750:18181   */\n      pop\n      pop\n        /* \"#utility.yul\":17735:18181   */\n    tag_488:\n        /* \"#utility.yul\":17645:18188   */\n      pop\n      pop\n      pop\n      jump\t// out\n        /* \"#utility.yul\":18194:18311   */\n    tag_291:\n        /* \"#utility.yul\":18248:18256   */\n      0x00\n        /* \"#utility.yul\":18298:18303   */\n      dup3\n        /* \"#utility.yul\":18292:18296   */\n      dup3\n        /* \"#utility.yul\":18288:18304   */\n      shr\n        /* \"#utility.yul\":18267:18304   */\n      swap1\n      pop\n        /* \"#utility.yul\":18194:18311   */\n      swap3\n      swap2\n      pop\n      pop\n      jump\t// out\n        /* \"#utility.yul\":18317:18486   */\n    tag_292:\n        /* \"#utility.yul\":18361:18367   */\n      0x00\n        /* \"#utility.yul\":18394:18445   */\n      tag_496\n        /* \"#utility.yul\":18442:18443   */\n      0x00\n        /* \"#utility.yul\":18438:18444   */\n      not\n        /* \"#utility.yul\":18430:18435   */\n      dup5\n        /* \"#utility.yul\":18427:18428   */\n      0x08\n        /* \"#utility.yul\":18423:18436   */\n      mul\n        /* \"#utility.yul\":18394:18445   */\n      tag_291\n      jump\t// in\n    tag_496:\n        /* \"#utility.yul\":18390:18446   */\n      not\n        /* \"#utility.yul\":18475:18479   */\n      dup1\n        /* \"#utility.yul\":18469:18473   */\n      dup4\n        /* \"#utility.yul\":18465:18480   */\n      and\n        /* \"#utility.yul\":18455:18480   */\n      swap2\n      pop\n        /* \"#utility.yul\":18368:18486   */\n      pop\n        /* \"#utility.yul\":18317:18486   */\n      swap3\n      swap2\n      pop\n      pop\n      jump\t// out\n        /* \"#utility.yul\":18491:18786   */\n    tag_293:\n        /* \"#utility.yul\":18567:18571   */\n      0x00\n        /* \"#utility.yul\":18713:18742   */\n      tag_498\n        /* \"#utility.yul\":18738:18741   */\n      dup4\n        /* \"#utility.yul\":18732:18736   */\n      dup4\n        /* \"#utility.yul\":18713:18742   */\n      tag_292\n      jump\t// in\n    tag_498:\n        /* \"#utility.yul\":18705:18742   */\n      swap2\n      pop\n        /* \"#utility.yul\":18775:18778   */\n      dup3\n        /* \"#utility.yul\":18772:18773   */\n      0x02\n        /* \"#utility.yul\":18768:18779   */\n      mul\n        /* \"#utility.yul\":18762:18766   */\n      dup3\n        /* \"#utility.yul\":18759:18780   */\n      or\n        /* \"#utility.yul\":18751:18780   */\n      swap1\n      pop\n        /* \"#utility.yul\":18491:18786   */\n      swap3\n      swap2\n      pop\n      pop\n      jump\t// out\n        /* \"#utility.yul\":18791:20186   */\n    tag_177:\n        /* \"#utility.yul\":18908:18945   */\n      tag_500\n        /* \"#utility.yul\":18941:18944   */\n      dup3\n        /* \"#utility.yul\":18908:18945   */\n      tag_239\n      jump\t// in\n    tag_500:\n        /* \"#utility.yul\":19010:19028   */\n      0xffffffffffffffff\n        /* \"#utility.yul\":19002:19008   */\n      dup2\n        /* \"#utility.yul\":18999:19029   */\n      gt\n        /* \"#utility.yul\":18996:19052   */\n      iszero\n      tag_501\n      jumpi\n        /* \"#utility.yul\":19032:19050   */\n      tag_502\n      tag_260\n      jump\t// in\n    tag_502:\n        /* \"#utility.yul\":18996:19052   */\n    tag_501:\n        /* \"#utility.yul\":19076:19114   */\n      tag_503\n        /* \"#utility.yul\":19108:19112   */\n      dup3\n        /* \"#utility.yul\":19102:19113   */\n      sload\n        /* \"#utility.yul\":19076:19114   */\n      tag_126\n      jump\t// in\n    tag_503:\n        /* \"#utility.yul\":19161:19228   */\n      tag_504\n        /* \"#utility.yul\":19221:19227   */\n      dup3\n        /* \"#utility.yul\":19213:19219   */\n      dup3\n        /* \"#utility.yul\":19207:19211   */\n      dup6\n        /* \"#utility.yul\":19161:19228   */\n      tag_290\n      jump\t// in\n    tag_504:\n        /* \"#utility.yul\":19255:19256   */\n      0x00\n        /* \"#utility.yul\":19279:19283   */\n      0x20\n        /* \"#utility.yul\":19266:19283   */\n      swap1\n      pop\n        /* \"#utility.yul\":19311:19313   */\n      0x1f\n        /* \"#utility.yul\":19303:19309   */\n      dup4\n        /* \"#utility.yul\":19300:19314   */\n      gt\n        /* \"#utility.yul\":19328:19329   */\n      0x01\n        /* \"#utility.yul\":19323:19941   */\n      dup2\n      eq\n      tag_506\n      jumpi\n        /* \"#utility.yul\":19985:19986   */\n      0x00\n        /* \"#utility.yul\":20002:20008   */\n      dup5\n        /* \"#utility.yul\":19999:20076   */\n      iszero\n      tag_507\n      jumpi\n        /* \"#utility.yul\":20051:20060   */\n      dup3\n        /* \"#utility.yul\":20046:20049   */\n      dup8\n        /* \"#utility.yul\":20042:20061   */\n      add\n        /* \"#utility.yul\":20036:20062   */\n      mload\n        /* \"#utility.yul\":20027:20062   */\n      swap1\n      pop\n        /* \"#utility.yul\":19999:20076   */\n    tag_507:\n        /* \"#utility.yul\":20102:20169   */\n      tag_508\n        /* \"#utility.yul\":20162:20168   */\n      dup6\n        /* \"#utility.yul\":20155:20160   */\n      dup3\n        /* \"#utility.yul\":20102:20169   */\n      tag_293\n      jump\t// in\n    tag_508:\n        /* \"#utility.yul\":20096:20100   */\n      dup7\n        /* \"#utility.yul\":20089:20170   */\n      sstore\n        /* \"#utility.yul\":19958:20180   */\n      pop\n        /* \"#utility.yul\":19293:20180   */\n      jump(tag_505)\n        /* \"#utility.yul\":19323:19941   */\n    tag_506:\n        /* \"#utility.yul\":19375:19379   */\n      0x1f\n        /* \"#utility.yul\":19371:19380   */\n      not\n        /* \"#utility.yul\":19363:19369   */\n      dup5\n        /* \"#utility.yul\":19359:19381   */\n      and\n        /* \"#utility.yul\":19409:19446   */\n      tag_509\n        /* \"#utility.yul\":19441:19445   */\n      dup7\n        /* \"#utility.yul\":19409:19446   */\n      tag_279\n      jump\t// in\n    tag_509:\n        /* \"#utility.yul\":19468:19469   */\n      0x00\n        /* \"#utility.yul\":19482:19690   */\n    tag_510:\n        /* \"#utility.yul\":19496:19503   */\n      dup3\n        /* \"#utility.yul\":19493:19494   */\n      dup2\n        /* \"#utility.yul\":19490:19504   */\n      lt\n        /* \"#utility.yul\":19482:19690   */\n      iszero\n      tag_512\n      jumpi\n        /* \"#utility.yul\":19575:19584   */\n      dup5\n        /* \"#utility.yul\":19570:19573   */\n      dup10\n        /* \"#utility.yul\":19566:19585   */\n      add\n        /* \"#utility.yul\":19560:19586   */\n      mload\n        /* \"#utility.yul\":19552:19558   */\n      dup3\n        /* \"#utility.yul\":19545:19587   */\n      sstore\n        /* \"#utility.yul\":19626:19627   */\n      0x01\n        /* \"#utility.yul\":19618:19624   */\n      dup3\n        /* \"#utility.yul\":19614:19628   */\n      add\n        /* \"#utility.yul\":19604:19628   */\n      swap2\n      pop\n        /* \"#utility.yul\":19673:19675   */\n      0x20\n        /* \"#utility.yul\":19662:19671   */\n      dup6\n        /* \"#utility.yul\":19658:19676   */\n      add\n        /* \"#utility.yul\":19645:19676   */\n      swap5\n      pop\n        /* \"#utility.yul\":19519:19523   */\n      0x20\n        /* \"#utility.yul\":19516:19517   */\n      dup2\n        /* \"#utility.yul\":19512:19524   */\n      add\n        /* \"#utility.yul\":19507:19524   */\n      swap1\n      pop\n        /* \"#utility.yul\":19482:19690   */\n      jump(tag_510)\n    tag_512:\n        /* \"#utility.yul\":19718:19724   */\n      dup7\n        /* \"#utility.yul\":19709:19716   */\n      dup4\n        /* \"#utility.yul\":19706:19725   */\n      lt\n        /* \"#utility.yul\":19703:19882   */\n      iszero\n      tag_513\n      jumpi\n        /* \"#utility.yul\":19776:19785   */\n      dup5\n        /* \"#utility.yul\":19771:19774   */\n      dup10\n        /* \"#utility.yul\":19767:19786   */\n      add\n        /* \"#utility.yul\":19761:19787   */\n      mload\n        /* \"#utility.yul\":19819:19867   */\n      tag_514\n        /* \"#utility.yul\":19861:19865   */\n      0x1f\n        /* \"#utility.yul\":19853:19859   */\n      dup10\n        /* \"#utility.yul\":19849:19866   */\n      and\n        /* \"#utility.yul\":19838:19847   */\n      dup3\n        /* \"#utility.yul\":19819:19867   */\n      tag_292\n      jump\t// in\n    tag_514:\n        /* \"#utility.yul\":19811:19817   */\n      dup4\n        /* \"#utility.yul\":19804:19868   */\n      sstore\n        /* \"#utility.yul\":19726:19882   */\n      pop\n        /* \"#utility.yul\":19703:19882   */\n    tag_513:\n        /* \"#utility.yul\":19928:19929   */\n      0x01\n        /* \"#utility.yul\":19924:19925   */\n      0x02\n        /* \"#utility.yul\":19916:19922   */\n      dup9\n        /* \"#utility.yul\":19912:19926   */\n      mul\n        /* \"#utility.yul\":19908:19930   */\n      add\n        /* \"#utility.yul\":19902:19906   */\n      dup9\n        /* \"#utility.yul\":19895:19931   */\n      sstore\n        /* \"#utility.yul\":19330:19941   */\n      pop\n      pop\n      pop\n        /* \"#utility.yul\":19293:20180   */\n    tag_505:\n      pop\n        /* \"#utility.yul\":18883:20186   */\n      pop\n      pop\n      pop\n        /* \"#utility.yul\":18791:20186   */\n      pop\n      pop\n      jump\t// out\n        /* \"#utility.yul\":20192:20294   */\n    tag_294:\n        /* \"#utility.yul\":20234:20242   */\n      0x00\n        /* \"#utility.yul\":20281:20286   */\n      dup2\n        /* \"#utility.yul\":20278:20279   */\n      0x01\n        /* \"#utility.yul\":20274:20287   */\n      shr\n        /* \"#utility.yul\":20253:20287   */\n      swap1\n      pop\n        /* \"#utility.yul\":20192:20294   */\n      swap2\n      swap1\n      pop\n      jump\t// out\n        /* \"#utility.yul\":20300:21148   */\n    tag_295:\n        /* \"#utility.yul\":20361:20366   */\n      0x00\n        /* \"#utility.yul\":20368:20372   */\n      dup1\n        /* \"#utility.yul\":20392:20398   */\n      dup3\n        /* \"#utility.yul\":20383:20398   */\n      swap2\n      pop\n        /* \"#utility.yul\":20416:20421   */\n      dup4\n        /* \"#utility.yul\":20407:20421   */\n      swap1\n      pop\n        /* \"#utility.yul\":20430:21142   */\n    tag_517:\n        /* \"#utility.yul\":20451:20452   */\n      0x01\n        /* \"#utility.yul\":20441:20449   */\n      dup6\n        /* \"#utility.yul\":20438:20453   */\n      gt\n        /* \"#utility.yul\":20430:21142   */\n      iszero\n      tag_519\n      jumpi\n        /* \"#utility.yul\":20546:20550   */\n      dup1\n        /* \"#utility.yul\":20541:20544   */\n      dup7\n        /* \"#utility.yul\":20537:20551   */\n      div\n        /* \"#utility.yul\":20531:20535   */\n      dup2\n        /* \"#utility.yul\":20528:20552   */\n      gt\n        /* \"#utility.yul\":20525:20575   */\n      iszero\n      tag_520\n      jumpi\n        /* \"#utility.yul\":20555:20573   */\n      tag_521\n      tag_238\n      jump\t// in\n    tag_521:\n        /* \"#utility.yul\":20525:20575   */\n    tag_520:\n        /* \"#utility.yul\":20605:20606   */\n      0x01\n        /* \"#utility.yul\":20595:20603   */\n      dup6\n        /* \"#utility.yul\":20591:20607   */\n      and\n        /* \"#utility.yul\":20588:21039   */\n      iszero\n      tag_522\n      jumpi\n        /* \"#utility.yul\":21020:21024   */\n      dup1\n        /* \"#utility.yul\":21013:21018   */\n      dup3\n        /* \"#utility.yul\":21009:21025   */\n      mul\n        /* \"#utility.yul\":21000:21025   */\n      swap2\n      pop\n        /* \"#utility.yul\":20588:21039   */\n    tag_522:\n        /* \"#utility.yul\":21070:21074   */\n      dup1\n        /* \"#utility.yul\":21064:21068   */\n      dup2\n        /* \"#utility.yul\":21060:21075   */\n      mul\n        /* \"#utility.yul\":21052:21075   */\n      swap1\n      pop\n        /* \"#utility.yul\":21100:21132   */\n      tag_523\n        /* \"#utility.yul\":21123:21131   */\n      dup6\n        /* \"#utility.yul\":21100:21132   */\n      tag_294\n      jump\t// in\n    tag_523:\n        /* \"#utility.yul\":21088:21132   */\n      swap5\n      pop\n        /* \"#utility.yul\":20430:21142   */\n      jump(tag_517)\n    tag_519:\n        /* \"#utility.yul\":20300:21148   */\n      swap5\n      pop\n      swap5\n      swap3\n      pop\n      pop\n      pop\n      jump\t// out\n        /* \"#utility.yul\":21154:22227   */\n    tag_296:\n        /* \"#utility.yul\":21208:21213   */\n      0x00\n        /* \"#utility.yul\":21399:21407   */\n      dup3\n        /* \"#utility.yul\":21389:21429   */\n      tag_525\n      jumpi\n        /* \"#utility.yul\":21420:21421   */\n      0x01\n        /* \"#utility.yul\":21411:21421   */\n      swap1\n      pop\n        /* \"#utility.yul\":21422:21427   */\n      jump(tag_524)\n        /* \"#utility.yul\":21389:21429   */\n    tag_525:\n        /* \"#utility.yul\":21448:21452   */\n      dup2\n        /* \"#utility.yul\":21438:21474   */\n      tag_526\n      jumpi\n        /* \"#utility.yul\":21465:21466   */\n      0x00\n        /* \"#utility.yul\":21456:21466   */\n      swap1\n      pop\n        /* \"#utility.yul\":21467:21472   */\n      jump(tag_524)\n        /* \"#utility.yul\":21438:21474   */\n    tag_526:\n        /* \"#utility.yul\":21534:21538   */\n      dup2\n        /* \"#utility.yul\":21582:21583   */\n      0x01\n        /* \"#utility.yul\":21577:21604   */\n      dup2\n      eq\n      tag_528\n      jumpi\n        /* \"#utility.yul\":21618:21619   */\n      0x02\n        /* \"#utility.yul\":21613:21804   */\n      dup2\n      eq\n      tag_529\n      jumpi\n        /* \"#utility.yul\":21527:21804   */\n      jump(tag_527)\n        /* \"#utility.yul\":21577:21604   */\n    tag_528:\n        /* \"#utility.yul\":21595:21596   */\n      0x01\n        /* \"#utility.yul\":21586:21596   */\n      swap2\n      pop\n        /* \"#utility.yul\":21597:21602   */\n      pop\n      jump(tag_524)\n        /* \"#utility.yul\":21613:21804   */\n    tag_529:\n        /* \"#utility.yul\":21658:21661   */\n      0xff\n        /* \"#utility.yul\":21648:21656   */\n      dup5\n        /* \"#utility.yul\":21645:21662   */\n      gt\n        /* \"#utility.yul\":21642:21685   */\n      iszero\n      tag_530\n      jumpi\n        /* \"#utility.yul\":21665:21683   */\n      tag_531\n      tag_238\n      jump\t// in\n    tag_531:\n        /* \"#utility.yul\":21642:21685   */\n    tag_530:\n        /* \"#utility.yul\":21714:21722   */\n      dup4\n        /* \"#utility.yul\":21711:21712   */\n      0x02\n        /* \"#utility.yul\":21707:21723   */\n      exp\n        /* \"#utility.yul\":21698:21723   */\n      swap2\n      pop\n        /* \"#utility.yul\":21749:21752   */\n      dup5\n        /* \"#utility.yul\":21742:21747   */\n      dup3\n        /* \"#utility.yul\":21739:21753   */\n      gt\n        /* \"#utility.yul\":21736:21776   */\n      iszero\n      tag_532\n      jumpi\n        /* \"#utility.yul\":21756:21774   */\n      tag_533\n      tag_238\n      jump\t// in\n    tag_533:\n        /* \"#utility.yul\":21736:21776   */\n    tag_532:\n        /* \"#utility.yul\":21789:21794   */\n      pop\n      jump(tag_524)\n        /* \"#utility.yul\":21527:21804   */\n    tag_527:\n      pop\n        /* \"#utility.yul\":21913:21915   */\n      0x20\n        /* \"#utility.yul\":21903:21911   */\n      dup4\n        /* \"#utility.yul\":21900:21916   */\n      lt\n        /* \"#utility.yul\":21894:21897   */\n      0x0133\n        /* \"#utility.yul\":21888:21892   */\n      dup4\n        /* \"#utility.yul\":21885:21898   */\n      lt\n        /* \"#utility.yul\":21881:21917   */\n      and\n        /* \"#utility.yul\":21863:21865   */\n      0x4e\n        /* \"#utility.yul\":21853:21861   */\n      dup5\n        /* \"#utility.yul\":21850:21866   */\n      lt\n        /* \"#utility.yul\":21845:21847   */\n      0x0b\n        /* \"#utility.yul\":21839:21843   */\n      dup5\n        /* \"#utility.yul\":21836:21848   */\n      lt\n        /* \"#utility.yul\":21832:21867   */\n      and\n        /* \"#utility.yul\":21816:21927   */\n      or\n        /* \"#utility.yul\":21813:22059   */\n      iszero\n      tag_534\n      jumpi\n        /* \"#utility.yul\":21969:21977   */\n      dup3\n        /* \"#utility.yul\":21963:21967   */\n      dup3\n        /* \"#utility.yul\":21959:21978   */\n      exp\n        /* \"#utility.yul\":21950:21978   */\n      swap1\n      pop\n        /* \"#utility.yul\":22004:22007   */\n      dup4\n        /* \"#utility.yul\":21997:22002   */\n      dup2\n        /* \"#utility.yul\":21994:22008   */\n      gt\n        /* \"#utility.yul\":21991:22031   */\n      iszero\n      tag_535\n      jumpi\n        /* \"#utility.yul\":22011:22029   */\n      tag_536\n      tag_238\n      jump\t// in\n    tag_536:\n        /* \"#utility.yul\":21991:22031   */\n    tag_535:\n        /* \"#utility.yul\":22044:22049   */\n      jump(tag_524)\n        /* \"#utility.yul\":21813:22059   */\n    tag_534:\n        /* \"#utility.yul\":22084:22126   */\n      tag_537\n        /* \"#utility.yul\":22122:22125   */\n      dup5\n        /* \"#utility.yul\":22112:22120   */\n      dup5\n        /* \"#utility.yul\":22106:22110   */\n      dup5\n        /* \"#utility.yul\":22103:22104   */\n      0x01\n        /* \"#utility.yul\":22084:22126   */\n      tag_295\n      jump\t// in\n    tag_537:\n        /* \"#utility.yul\":22069:22126   */\n      swap3\n      pop\n      swap1\n      pop\n        /* \"#utility.yul\":22158:22162   */\n      dup2\n        /* \"#utility.yul\":22153:22156   */\n      dup5\n        /* \"#utility.yul\":22149:22163   */\n      div\n        /* \"#utility.yul\":22142:22147   */\n      dup2\n        /* \"#utility.yul\":22139:22164   */\n      gt\n        /* \"#utility.yul\":22136:22187   */\n      iszero\n      tag_538\n      jumpi\n        /* \"#utility.yul\":22167:22185   */\n      tag_539\n      tag_238\n      jump\t// in\n    tag_539:\n        /* \"#utility.yul\":22136:22187   */\n    tag_538:\n        /* \"#utility.yul\":22216:22220   */\n      dup2\n        /* \"#utility.yul\":22209:22214   */\n      dup2\n        /* \"#utility.yul\":22205:22221   */\n      mul\n        /* \"#utility.yul\":22196:22221   */\n      swap1\n      pop\n        /* \"#utility.yul\":21154:22227   */\n    tag_524:\n      swap4\n      swap3\n      pop\n      pop\n      pop\n      jump\t// out\n        /* \"#utility.yul\":22233:22514   */\n    tag_181:\n        /* \"#utility.yul\":22291:22296   */\n      0x00\n        /* \"#utility.yul\":22315:22338   */\n      tag_541\n        /* \"#utility.yul\":22333:22337   */\n      dup3\n        /* \"#utility.yul\":22315:22338   */\n      tag_237\n      jump\t// in\n    tag_541:\n        /* \"#utility.yul\":22307:22338   */\n      swap2\n      pop\n        /* \"#utility.yul\":22359:22384   */\n      tag_542\n        /* \"#utility.yul\":22375:22383   */\n      dup4\n        /* \"#utility.yul\":22359:22384   */\n      tag_256\n      jump\t// in\n    tag_542:\n        /* \"#utility.yul\":22347:22384   */\n      swap3\n      pop\n        /* \"#utility.yul\":22403:22507   */\n      tag_543\n        /* \"#utility.yul\":22440:22506   */\n      0xffffffffffffffffffffffffffffffffffffffffffffffffffffffffffffffff\n        /* \"#utility.yul\":22430:22438   */\n      dup5\n        /* \"#utility.yul\":22424:22428   */\n      dup5\n        /* \"#utility.yul\":22403:22507   */\n      tag_296\n      jump\t// in\n    tag_543:\n        /* \"#utility.yul\":22394:22507   */\n      swap1\n      pop\n        /* \"#utility.yul\":22233:22514   */\n      swap3\n      swap2\n      pop\n      pop\n      jump\t// out\n\n    auxdata: 0xa2646970667358221220253772beed89f532e1141b630c71d478398dd7f57b4c15d4de5557c9a8138ef364736f6c63430008140033\n}\n",
				"bytecode": {
					"linkReferences": {},
					"object": "60806040525f60075534801562000014575f80fd5b506040518060400160405280600981526020017f53686f70546f6b656e00000000000000000000000000000000000000000000008152506040518060400160405280600381526020017f53544b0000000000000000000000000000000000000000000000000000000000815250816003908162000092919062000646565b508060049081620000a4919062000646565b505050620000e633620000bc6200012c60201b60201c565b600a620000ca9190620008b3565b620f4240620000da919062000903565b6200013460201b60201c565b3360055f6101000a81548173ffffffffffffffffffffffffffffffffffffffff021916908373ffffffffffffffffffffffffffffffffffffffff16021790555062000a4c565b5f6012905090565b5f73ffffffffffffffffffffffffffffffffffffffff168273ffffffffffffffffffffffffffffffffffffffff1603620001a7575f6040517fec442f050000000000000000000000000000000000000000000000000000000081526004016200019e919062000990565b60405180910390fd5b620001ba5f8383620001be60201b60201c565b5050565b5f73ffffffffffffffffffffffffffffffffffffffff168373ffffffffffffffffffffffffffffffffffffffff160362000212578060025f828254620002059190620009ab565b92505081905550620002e3565b5f805f8573ffffffffffffffffffffffffffffffffffffffff1673ffffffffffffffffffffffffffffffffffffffff1681526020019081526020015f20549050818110156200029e578381836040517fe450d38c0000000000000000000000000000000000000000000000000000000081526004016200029593929190620009f6565b60405180910390fd5b8181035f808673ffffffffffffffffffffffffffffffffffffffff1673ffffffffffffffffffffffffffffffffffffffff1681526020019081526020015f2081905550505b5f73ffffffffffffffffffffffffffffffffffffffff168273ffffffffffffffffffffffffffffffffffffffff16036200032c578060025f828254039250508190555062000376565b805f808473ffffffffffffffffffffffffffffffffffffffff1673ffffffffffffffffffffffffffffffffffffffff1681526020019081526020015f205f82825401925050819055505b8173ffffffffffffffffffffffffffffffffffffffff168373ffffffffffffffffffffffffffffffffffffffff167fddf252ad1be2c89b69c2b068fc378daa952ba7f163c4a11628f55a4df523b3ef83604051620003d5919062000a31565b60405180910390a3505050565b5f81519050919050565b7f4e487b71000000000000000000000000000000000000000000000000000000005f52604160045260245ffd5b7f4e487b71000000000000000000000000000000000000000000000000000000005f52602260045260245ffd5b5f60028204905060018216806200045e57607f821691505b60208210810362000474576200047362000419565b5b50919050565b5f819050815f5260205f209050919050565b5f6020601f8301049050919050565b5f82821b905092915050565b5f60088302620004d87fffffffffffffffffffffffffffffffffffffffffffffffffffffffffffffffff826200049b565b620004e486836200049b565b95508019841693508086168417925050509392505050565b5f819050919050565b5f819050919050565b5f6200052e620005286200052284620004fc565b62000505565b620004fc565b9050919050565b5f819050919050565b62000549836200050e565b62000561620005588262000535565b848454620004a7565b825550505050565b5f90565b6200057762000569565b620005848184846200053e565b505050565b5b81811015620005ab576200059f5f826200056d565b6001810190506200058a565b5050565b601f821115620005fa57620005c4816200047a565b620005cf846200048c565b81016020851015620005df578190505b620005f7620005ee856200048c565b83018262000589565b50505b505050565b5f82821c905092915050565b5f6200061c5f1984600802620005ff565b1980831691505092915050565b5f6200063683836200060b565b9150826002028217905092915050565b6200065182620003e2565b67ffffffffffffffff8111156200066d576200066c620003ec565b5b62000679825462000446565b62000686828285620005af565b5f60209050601f831160018114620006bc575f8415620006a7578287015190505b620006b3858262000629565b86555062000722565b601f198416620006cc866200047a565b5f5b82811015620006f557848901518255600182019150602085019450602081019050620006ce565b8683101562000715578489015162000711601f8916826200060b565b8355505b6001600288020188555050505b505050505050565b7f4e487b71000000000000000000000000000000000000000000000000000000005f52601160045260245ffd5b5f8160011c9050919050565b5f808291508390505b6001851115620007b4578086048111156200078c576200078b6200072a565b5b60018516156200079c5780820291505b8081029050620007ac8562000757565b94506200076c565b94509492505050565b5f82620007ce5760019050620008a0565b81620007dd575f9050620008a0565b8160018114620007f65760028114620008015762000837565b6001915050620008a0565b60ff8411156200081657620008156200072a565b5b8360020a91508482111562000830576200082f6200072a565b5b50620008a0565b5060208310610133831016604e8410600b8410161715620008715782820a9050838111156200086b576200086a6200072a565b5b620008a0565b62000880848484600162000763565b925090508184048111156200089a57620008996200072a565b5b81810290505b9392505050565b5f60ff82169050919050565b5f620008bf82620004fc565b9150620008cc83620008a7565b9250620008fb7fffffffffffffffffffffffffffffffffffffffffffffffffffffffffffffffff8484620007bd565b905092915050565b5f6200090f82620004fc565b91506200091c83620004fc565b92508282026200092c81620004fc565b915082820484148315176200094657620009456200072a565b5b5092915050565b5f73ffffffffffffffffffffffffffffffffffffffff82169050919050565b5f62000978826200094d565b9050919050565b6200098a816200096c565b82525050565b5f602082019050620009a55f8301846200097f565b92915050565b5f620009b782620004fc565b9150620009c483620004fc565b9250828201905080821115620009df57620009de6200072a565b5b92915050565b620009f081620004fc565b82525050565b5f60608201905062000a0b5f8301866200097f565b62000a1a6020830185620009e5565b62000a296040830184620009e5565b949350505050565b5f60208201905062000a465f830184620009e5565b92915050565b611f1e8062000a5a5f395ff3fe6080604052600436106100e0575f3560e01c80638642269e1161007e578063a9059cbb11610058578063a9059cbb146103ef578063aba7b3141461042b578063c29b2f2014610455578063dd62ed3e1461047f576101d9565b80638642269e1461034d5780638c96091b1461038957806395d89b41146103c5576101d9565b806323b872dd116100ba57806323b872dd1461026d578063313ce567146102a957806370a08231146102d35780637acc0b201461030f576101d9565b806306fdde03146101dd578063095ea7b31461020757806318160ddd14610243576101d9565b366101d9575f6101f4346100f49190611330565b90508061012160055f9054906101000a900473ffffffffffffffffffffffffffffffffffffffff166104bb565b101561012b575f80fd5b61015760055f9054906101000a900473ffffffffffffffffffffffffffffffffffffffff163383610500565b60055f9054906101000a900473ffffffffffffffffffffffffffffffffffffffff1673ffffffffffffffffffffffffffffffffffffffff163373ffffffffffffffffffffffffffffffffffffffff16036101d7576101d660055f9054906101000a900473ffffffffffffffffffffffffffffffffffffffff1682610719565b5b005b5f80fd5b3480156101e8575f80fd5b506101f1610798565b6040516101fe91906113fb565b60405180910390f35b348015610212575f80fd5b5061022d600480360381019061022891906114b0565b610828565b60405161023a9190611508565b60405180910390f35b34801561024e575f80fd5b5061025761084a565b6040516102649190611530565b60405180910390f35b348015610278575f80fd5b50610293600480360381019061028e9190611549565b610853565b6040516102a09190611508565b60405180910390f35b3480156102b4575f80fd5b506102bd610881565b6040516102ca91906115b4565b60405180910390f35b3480156102de575f80fd5b506102f960048036038101906102f491906115cd565b6104bb565b6040516103069190611530565b60405180910390f35b34801561031a575f80fd5b50610335600480360381019061033091906115f8565b610889565b60405161034493929190611623565b60405180910390f35b348015610358575f80fd5b50610373600480360381019061036e91906115f8565b610944565b6040516103809190611508565b60405180910390f35b348015610394575f80fd5b506103af60048036038101906103aa919061178b565b610b4e565b6040516103bc9190611508565b60405180910390f35b3480156103d0575f80fd5b506103d9610c04565b6040516103e691906113fb565b60405180910390f35b3480156103fa575f80fd5b50610415600480360381019061041091906114b0565b610c94565b6040516104229190611508565b60405180910390f35b348015610436575f80fd5b5061043f610cb6565b60405161044c9190611944565b60405180910390f35b348015610460575f80fd5b50610469610df0565b6040516104769190611944565b60405180910390f35b34801561048a575f80fd5b506104a560048036038101906104a09190611964565b610eef565b6040516104b29190611530565b60405180910390f35b5f805f8373ffffffffffffffffffffffffffffffffffffffff1673ffffffffffffffffffffffffffffffffffffffff1681526020019081526020015f20549050919050565b5f73ffffffffffffffffffffffffffffffffffffffff168373ffffffffffffffffffffffffffffffffffffffff1603610550578060025f82825461054491906119a2565b9250508190555061061e565b5f805f8573ffffffffffffffffffffffffffffffffffffffff1673ffffffffffffffffffffffffffffffffffffffff1681526020019081526020015f20549050818110156105d9578381836040517fe450d38c0000000000000000000000000000000000000000000000000000000081526004016105d0939291906119e4565b60405180910390fd5b8181035f808673ffffffffffffffffffffffffffffffffffffffff1673ffffffffffffffffffffffffffffffffffffffff1681526020019081526020015f2081905550505b5f73ffffffffffffffffffffffffffffffffffffffff168273ffffffffffffffffffffffffffffffffffffffff1603610665578060025f82825403925050819055506106af565b805f808473ffffffffffffffffffffffffffffffffffffffff1673ffffffffffffffffffffffffffffffffffffffff1681526020019081526020015f205f82825401925050819055505b8173ffffffffffffffffffffffffffffffffffffffff168373ffffffffffffffffffffffffffffffffffffffff167fddf252ad1be2c89b69c2b068fc378daa952ba7f163c4a11628f55a4df523b3ef8360405161070c9190611530565b60405180910390a3505050565b5f73ffffffffffffffffffffffffffffffffffffffff168273ffffffffffffffffffffffffffffffffffffffff1603610789575f6040517fec442f050000000000000000000000000000000000000000000000000000000081526004016107809190611a19565b60405180910390fd5b6107945f8383610500565b5050565b6060600380546107a790611a5f565b80601f01602080910402602001604051908101604052809291908181526020018280546107d390611a5f565b801561081e5780601f106107f55761010080835404028352916020019161081e565b820191905f5260205f20905b81548152906001019060200180831161080157829003601f168201915b5050505050905090565b5f80610832610f71565b905061083f818585610f78565b600191505092915050565b5f600254905090565b5f8061085d610f71565b905061086a858285610f8a565b61087585858561101c565b60019150509392505050565b5f6012905090565b60068181548110610898575f80fd5b905f5260205f2090600302015f91509050805f0154908060010180546108bd90611a5f565b80601f01602080910402602001604051908101604052809291908181526020018280546108e990611a5f565b80156109345780601f1061090b57610100808354040283529160200191610934565b820191905f5260205f20905b81548152906001019060200180831161091757829003601f168201915b5050505050908060020154905083565b5f61094d6112db565b5f5b600680549050811015610a6d57836006828154811061097157610970611a8f565b5b905f5260205f2090600302015f015403610a5a576006818154811061099957610998611a8f565b5b905f5260205f2090600302016040518060600160405290815f82015481526020016001820180546109c990611a5f565b80601f01602080910402602001604051908101604052809291908181526020018280546109f590611a5f565b8015610a405780601f10610a1757610100808354040283529160200191610a40565b820191905f5260205f20905b815481529060010190602001808311610a2357829003601f168201915b505050505081526020016002820154815250509150610a6d565b8080610a6590611abc565b91505061094f565b508060400151610a7c336104bb565b1015610a86575f80fd5b610ab63360055f9054906101000a900473ffffffffffffffffffffffffffffffffffffffff168360400151610500565b60085f3373ffffffffffffffffffffffffffffffffffffffff1673ffffffffffffffffffffffffffffffffffffffff1681526020019081526020015f2081908060018154018082558091505060019003905f5260205f2090600302015f909190919091505f820151815f01556020820151816001019081610b379190611ca0565b506040820151816002015550506001915050919050565b5f80610b58610881565b600a610b649190611e9e565b83610b6f9190611330565b905060066040518060600160405280600754815260200186815260200183815250908060018154018082558091505060019003905f5260205f2090600302015f909190919091505f820151815f01556020820151816001019081610bd39190611ca0565b50604082015181600201555050600160075f828254610bf291906119a2565b92505081905550600191505092915050565b606060048054610c1390611a5f565b80601f0160208091040260200160405190810160405280929190818152602001828054610c3f90611a5f565b8015610c8a5780601f10610c6157610100808354040283529160200191610c8a565b820191905f5260205f20905b815481529060010190602001808311610c6d57829003601f168201915b5050505050905090565b5f80610c9e610f71565b9050610cab81858561101c565b600191505092915050565b606060085f3373ffffffffffffffffffffffffffffffffffffffff1673ffffffffffffffffffffffffffffffffffffffff1681526020019081526020015f20805480602002602001604051908101604052809291908181526020015f905b82821015610de7578382905f5260205f2090600302016040518060600160405290815f8201548152602001600182018054610d4e90611a5f565b80601f0160208091040260200160405190810160405280929190818152602001828054610d7a90611a5f565b8015610dc55780601f10610d9c57610100808354040283529160200191610dc5565b820191905f5260205f20905b815481529060010190602001808311610da857829003601f168201915b5050505050815260200160028201548152505081526020019060010190610d14565b50505050905090565b60606006805480602002602001604051908101604052809291908181526020015f905b82821015610ee6578382905f5260205f2090600302016040518060600160405290815f8201548152602001600182018054610e4d90611a5f565b80601f0160208091040260200160405190810160405280929190818152602001828054610e7990611a5f565b8015610ec45780601f10610e9b57610100808354040283529160200191610ec4565b820191905f5260205f20905b815481529060010190602001808311610ea757829003601f168201915b5050505050815260200160028201548152505081526020019060010190610e13565b50505050905090565b5f60015f8473ffffffffffffffffffffffffffffffffffffffff1673ffffffffffffffffffffffffffffffffffffffff1681526020019081526020015f205f8373ffffffffffffffffffffffffffffffffffffffff1673ffffffffffffffffffffffffffffffffffffffff1681526020019081526020015f2054905092915050565b5f33905090565b610f85838383600161110c565b505050565b5f610f958484610eef565b90507fffffffffffffffffffffffffffffffffffffffffffffffffffffffffffffffff81146110165781811015611007578281836040517ffb8f41b2000000000000000000000000000000000000000000000000000000008152600401610ffe939291906119e4565b60405180910390fd5b61101584848484035f61110c565b5b50505050565b5f73ffffffffffffffffffffffffffffffffffffffff168373ffffffffffffffffffffffffffffffffffffffff160361108c575f6040517f96c6fd1e0000000000000000000000000000000000000000000000000000000081526004016110839190611a19565b60405180910390fd5b5f73ffffffffffffffffffffffffffffffffffffffff168273ffffffffffffffffffffffffffffffffffffffff16036110fc575f6040517fec442f050000000000000000000000000000000000000000000000000000000081526004016110f39190611a19565b60405180910390fd5b611107838383610500565b505050565b5f73ffffffffffffffffffffffffffffffffffffffff168473ffffffffffffffffffffffffffffffffffffffff160361117c575f6040517fe602df050000000000000000000000000000000000000000000000000000000081526004016111739190611a19565b60405180910390fd5b5f73ffffffffffffffffffffffffffffffffffffffff168373ffffffffffffffffffffffffffffffffffffffff16036111ec575f6040517f94280d620000000000000000000000000000000000000000000000000000000081526004016111e39190611a19565b60405180910390fd5b8160015f8673ffffffffffffffffffffffffffffffffffffffff1673ffffffffffffffffffffffffffffffffffffffff1681526020019081526020015f205f8573ffffffffffffffffffffffffffffffffffffffff1673ffffffffffffffffffffffffffffffffffffffff1681526020019081526020015f208190555080156112d5578273ffffffffffffffffffffffffffffffffffffffff168473ffffffffffffffffffffffffffffffffffffffff167f8c5be1e5ebec7d5bd14f71427d1e84f3dd0314c0f7b2291e5b200ac8c7c3b925846040516112cc9190611530565b60405180910390a35b50505050565b60405180606001604052805f8152602001606081526020015f81525090565b5f819050919050565b7f4e487b71000000000000000000000000000000000000000000000000000000005f52601160045260245ffd5b5f61133a826112fa565b9150611345836112fa565b9250828202611353816112fa565b9150828204841483151761136a57611369611303565b5b5092915050565b5f81519050919050565b5f82825260208201905092915050565b5f5b838110156113a857808201518184015260208101905061138d565b5f8484015250505050565b5f601f19601f8301169050919050565b5f6113cd82611371565b6113d7818561137b565b93506113e781856020860161138b565b6113f0816113b3565b840191505092915050565b5f6020820190508181035f83015261141381846113c3565b905092915050565b5f604051905090565b5f80fd5b5f80fd5b5f73ffffffffffffffffffffffffffffffffffffffff82169050919050565b5f6114558261142c565b9050919050565b6114658161144b565b811461146f575f80fd5b50565b5f813590506114808161145c565b92915050565b61148f816112fa565b8114611499575f80fd5b50565b5f813590506114aa81611486565b92915050565b5f80604083850312156114c6576114c5611424565b5b5f6114d385828601611472565b92505060206114e48582860161149c565b9150509250929050565b5f8115159050919050565b611502816114ee565b82525050565b5f60208201905061151b5f8301846114f9565b92915050565b61152a816112fa565b82525050565b5f6020820190506115435f830184611521565b92915050565b5f805f606084860312156115605761155f611424565b5b5f61156d86828701611472565b935050602061157e86828701611472565b925050604061158f8682870161149c565b9150509250925092565b5f60ff82169050919050565b6115ae81611599565b82525050565b5f6020820190506115c75f8301846115a5565b92915050565b5f602082840312156115e2576115e1611424565b5b5f6115ef84828501611472565b91505092915050565b5f6020828403121561160d5761160c611424565b5b5f61161a8482850161149c565b91505092915050565b5f6060820190506116365f830186611521565b818103602083015261164881856113c3565b90506116576040830184611521565b949350505050565b5f80fd5b5f80fd5b7f4e487b71000000000000000000000000000000000000000000000000000000005f52604160045260245ffd5b61169d826113b3565b810181811067ffffffffffffffff821117156116bc576116bb611667565b5b80604052505050565b5f6116ce61141b565b90506116da8282611694565b919050565b5f67ffffffffffffffff8211156116f9576116f8611667565b5b611702826113b3565b9050602081019050919050565b828183375f83830152505050565b5f61172f61172a846116df565b6116c5565b90508281526020810184848401111561174b5761174a611663565b5b61175684828561170f565b509392505050565b5f82601f8301126117725761177161165f565b5b813561178284826020860161171d565b91505092915050565b5f80604083850312156117a1576117a0611424565b5b5f83013567ffffffffffffffff8111156117be576117bd611428565b5b6117ca8582860161175e565b92505060206117db8582860161149c565b9150509250929050565b5f81519050919050565b5f82825260208201905092915050565b5f819050602082019050919050565b611817816112fa565b82525050565b5f82825260208201905092915050565b5f61183782611371565b611841818561181d565b935061185181856020860161138b565b61185a816113b3565b840191505092915050565b5f606083015f83015161187a5f86018261180e565b5060208301518482036020860152611892828261182d565b91505060408301516118a7604086018261180e565b508091505092915050565b5f6118bd8383611865565b905092915050565b5f602082019050919050565b5f6118db826117e5565b6118e581856117ef565b9350836020820285016118f7856117ff565b805f5b85811015611932578484038952815161191385826118b2565b945061191e836118c5565b925060208a019950506001810190506118fa565b50829750879550505050505092915050565b5f6020820190508181035f83015261195c81846118d1565b905092915050565b5f806040838503121561197a57611979611424565b5b5f61198785828601611472565b925050602061199885828601611472565b9150509250929050565b5f6119ac826112fa565b91506119b7836112fa565b92508282019050808211156119cf576119ce611303565b5b92915050565b6119de8161144b565b82525050565b5f6060820190506119f75f8301866119d5565b611a046020830185611521565b611a116040830184611521565b949350505050565b5f602082019050611a2c5f8301846119d5565b92915050565b7f4e487b71000000000000000000000000000000000000000000000000000000005f52602260045260245ffd5b5f6002820490506001821680611a7657607f821691505b602082108103611a8957611a88611a32565b5b50919050565b7f4e487b71000000000000000000000000000000000000000000000000000000005f52603260045260245ffd5b5f611ac6826112fa565b91507fffffffffffffffffffffffffffffffffffffffffffffffffffffffffffffffff8203611af857611af7611303565b5b600182019050919050565b5f819050815f5260205f209050919050565b5f6020601f8301049050919050565b5f82821b905092915050565b5f60088302611b5f7fffffffffffffffffffffffffffffffffffffffffffffffffffffffffffffffff82611b24565b611b698683611b24565b95508019841693508086168417925050509392505050565b5f819050919050565b5f611ba4611b9f611b9a846112fa565b611b81565b6112fa565b9050919050565b5f819050919050565b611bbd83611b8a565b611bd1611bc982611bab565b848454611b30565b825550505050565b5f90565b611be5611bd9565b611bf0818484611bb4565b505050565b5b81811015611c1357611c085f82611bdd565b600181019050611bf6565b5050565b601f821115611c5857611c2981611b03565b611c3284611b15565b81016020851015611c41578190505b611c55611c4d85611b15565b830182611bf5565b50505b505050565b5f82821c905092915050565b5f611c785f1984600802611c5d565b1980831691505092915050565b5f611c908383611c69565b9150826002028217905092915050565b611ca982611371565b67ffffffffffffffff811115611cc257611cc1611667565b5b611ccc8254611a5f565b611cd7828285611c17565b5f60209050601f831160018114611d08575f8415611cf6578287015190505b611d008582611c85565b865550611d67565b601f198416611d1686611b03565b5f5b82811015611d3d57848901518255600182019150602085019450602081019050611d18565b86831015611d5a5784890151611d56601f891682611c69565b8355505b6001600288020188555050505b505050505050565b5f8160011c9050919050565b5f808291508390505b6001851115611dc457808604811115611da057611d9f611303565b5b6001851615611daf5780820291505b8081029050611dbd85611d6f565b9450611d84565b94509492505050565b5f82611ddc5760019050611e97565b81611de9575f9050611e97565b8160018114611dff5760028114611e0957611e38565b6001915050611e97565b60ff841115611e1b57611e1a611303565b5b8360020a915084821115611e3257611e31611303565b5b50611e97565b5060208310610133831016604e8410600b8410161715611e6d5782820a905083811115611e6857611e67611303565b5b611e97565b611e7a8484846001611d7b565b92509050818404811115611e9157611e90611303565b5b81810290505b9392505050565b5f611ea8826112fa565b9150611eb383611599565b9250611ee07fffffffffffffffffffffffffffffffffffffffffffffffffffffffffffffffff8484611dcd565b90509291505056fea2646970667358221220253772beed89f532e1141b630c71d478398dd7f57b4c15d4de5557c9a8138ef364736f6c63430008140033",
					"opcodes": "PUSH1 0x80 PUSH1 0x40 MSTORE PUSH0 PUSH1 0x7 SSTORE CALLVALUE DUP1 ISZERO PUSH3 0x14 JUMPI PUSH0 DUP1 REVERT JUMPDEST POP PUSH1 0x40 MLOAD DUP1 PUSH1 0x40 ADD PUSH1 0x40 MSTORE DUP1 PUSH1 0x9 DUP2 MSTORE PUSH1 0x20 ADD PUSH32 0x53686F70546F6B656E0000000000000000000000000000000000000000000000 DUP2 MSTORE POP PUSH1 0x40 MLOAD DUP1 PUSH1 0x40 ADD PUSH1 0x40 MSTORE DUP1 PUSH1 0x3 DUP2 MSTORE PUSH1 0x20 ADD PUSH32 0x53544B0000000000000000000000000000000000000000000000000000000000 DUP2 MSTORE POP DUP2 PUSH1 0x3 SWAP1 DUP2 PUSH3 0x92 SWAP2 SWAP1 PUSH3 0x646 JUMP JUMPDEST POP DUP1 PUSH1 0x4 SWAP1 DUP2 PUSH3 0xA4 SWAP2 SWAP1 PUSH3 0x646 JUMP JUMPDEST POP POP POP PUSH3 0xE6 CALLER PUSH3 0xBC PUSH3 0x12C PUSH1 0x20 SHL PUSH1 0x20 SHR JUMP JUMPDEST PUSH1 0xA PUSH3 0xCA SWAP2 SWAP1 PUSH3 0x8B3 JUMP JUMPDEST PUSH3 0xF4240 PUSH3 0xDA SWAP2 SWAP1 PUSH3 0x903 JUMP JUMPDEST PUSH3 0x134 PUSH1 0x20 SHL PUSH1 0x20 SHR JUMP JUMPDEST CALLER PUSH1 0x5 PUSH0 PUSH2 0x100 EXP DUP2 SLOAD DUP2 PUSH20 0xFFFFFFFFFFFFFFFFFFFFFFFFFFFFFFFFFFFFFFFF MUL NOT AND SWAP1 DUP4 PUSH20 0xFFFFFFFFFFFFFFFFFFFFFFFFFFFFFFFFFFFFFFFF AND MUL OR SWAP1 SSTORE POP PUSH3 0xA4C JUMP JUMPDEST PUSH0 PUSH1 0x12 SWAP1 POP SWAP1 JUMP JUMPDEST PUSH0 PUSH20 0xFFFFFFFFFFFFFFFFFFFFFFFFFFFFFFFFFFFFFFFF AND DUP3 PUSH20 0xFFFFFFFFFFFFFFFFFFFFFFFFFFFFFFFFFFFFFFFF AND SUB PUSH3 0x1A7 JUMPI PUSH0 PUSH1 0x40 MLOAD PUSH32 0xEC442F0500000000000000000000000000000000000000000000000000000000 DUP2 MSTORE PUSH1 0x4 ADD PUSH3 0x19E SWAP2 SWAP1 PUSH3 0x990 JUMP JUMPDEST PUSH1 0x40 MLOAD DUP1 SWAP2 SUB SWAP1 REVERT JUMPDEST PUSH3 0x1BA PUSH0 DUP4 DUP4 PUSH3 0x1BE PUSH1 0x20 SHL PUSH1 0x20 SHR JUMP JUMPDEST POP POP JUMP JUMPDEST PUSH0 PUSH20 0xFFFFFFFFFFFFFFFFFFFFFFFFFFFFFFFFFFFFFFFF AND DUP4 PUSH20 0xFFFFFFFFFFFFFFFFFFFFFFFFFFFFFFFFFFFFFFFF AND SUB PUSH3 0x212 JUMPI DUP1 PUSH1 0x2 PUSH0 DUP3 DUP3 SLOAD PUSH3 0x205 SWAP2 SWAP1 PUSH3 0x9AB JUMP JUMPDEST SWAP3 POP POP DUP2 SWAP1 SSTORE POP PUSH3 0x2E3 JUMP JUMPDEST PUSH0 DUP1 PUSH0 DUP6 PUSH20 0xFFFFFFFFFFFFFFFFFFFFFFFFFFFFFFFFFFFFFFFF AND PUSH20 0xFFFFFFFFFFFFFFFFFFFFFFFFFFFFFFFFFFFFFFFF AND DUP2 MSTORE PUSH1 0x20 ADD SWAP1 DUP2 MSTORE PUSH1 0x20 ADD PUSH0 KECCAK256 SLOAD SWAP1 POP DUP2 DUP2 LT ISZERO PUSH3 0x29E JUMPI DUP4 DUP2 DUP4 PUSH1 0x40 MLOAD PUSH32 0xE450D38C00000000000000000000000000000000000000000000000000000000 DUP2 MSTORE PUSH1 0x4 ADD PUSH3 0x295 SWAP4 SWAP3 SWAP2 SWAP1 PUSH3 0x9F6 JUMP JUMPDEST PUSH1 0x40 MLOAD DUP1 SWAP2 SUB SWAP1 REVERT JUMPDEST DUP2 DUP2 SUB PUSH0 DUP1 DUP7 PUSH20 0xFFFFFFFFFFFFFFFFFFFFFFFFFFFFFFFFFFFFFFFF AND PUSH20 0xFFFFFFFFFFFFFFFFFFFFFFFFFFFFFFFFFFFFFFFF AND DUP2 MSTORE PUSH1 0x20 ADD SWAP1 DUP2 MSTORE PUSH1 0x20 ADD PUSH0 KECCAK256 DUP2 SWAP1 SSTORE POP POP JUMPDEST PUSH0 PUSH20 0xFFFFFFFFFFFFFFFFFFFFFFFFFFFFFFFFFFFFFFFF AND DUP3 PUSH20 0xFFFFFFFFFFFFFFFFFFFFFFFFFFFFFFFFFFFFFFFF AND SUB PUSH3 0x32C JUMPI DUP1 PUSH1 0x2 PUSH0 DUP3 DUP3 SLOAD SUB SWAP3 POP POP DUP2 SWAP1 SSTORE POP PUSH3 0x376 JUMP JUMPDEST DUP1 PUSH0 DUP1 DUP5 PUSH20 0xFFFFFFFFFFFFFFFFFFFFFFFFFFFFFFFFFFFFFFFF AND PUSH20 0xFFFFFFFFFFFFFFFFFFFFFFFFFFFFFFFFFFFFFFFF AND DUP2 MSTORE PUSH1 0x20 ADD SWAP1 DUP2 MSTORE PUSH1 0x20 ADD PUSH0 KECCAK256 PUSH0 DUP3 DUP3 SLOAD ADD SWAP3 POP POP DUP2 SWAP1 SSTORE POP JUMPDEST DUP2 PUSH20 0xFFFFFFFFFFFFFFFFFFFFFFFFFFFFFFFFFFFFFFFF AND DUP4 PUSH20 0xFFFFFFFFFFFFFFFFFFFFFFFFFFFFFFFFFFFFFFFF AND PUSH32 0xDDF252AD1BE2C89B69C2B068FC378DAA952BA7F163C4A11628F55A4DF523B3EF DUP4 PUSH1 0x40 MLOAD PUSH3 0x3D5 SWAP2 SWAP1 PUSH3 0xA31 JUMP JUMPDEST PUSH1 0x40 MLOAD DUP1 SWAP2 SUB SWAP1 LOG3 POP POP POP JUMP JUMPDEST PUSH0 DUP2 MLOAD SWAP1 POP SWAP2 SWAP1 POP JUMP JUMPDEST PUSH32 0x4E487B7100000000000000000000000000000000000000000000000000000000 PUSH0 MSTORE PUSH1 0x41 PUSH1 0x4 MSTORE PUSH1 0x24 PUSH0 REVERT JUMPDEST PUSH32 0x4E487B7100000000000000000000000000000000000000000000000000000000 PUSH0 MSTORE PUSH1 0x22 PUSH1 0x4 MSTORE PUSH1 0x24 PUSH0 REVERT JUMPDEST PUSH0 PUSH1 0x2 DUP3 DIV SWAP1 POP PUSH1 0x1 DUP3 AND DUP1 PUSH3 0x45E JUMPI PUSH1 0x7F DUP3 AND SWAP2 POP JUMPDEST PUSH1 0x20 DUP3 LT DUP2 SUB PUSH3 0x474 JUMPI PUSH3 0x473 PUSH3 0x419 JUMP JUMPDEST JUMPDEST POP SWAP2 SWAP1 POP JUMP JUMPDEST PUSH0 DUP2 SWAP1 POP DUP2 PUSH0 MSTORE PUSH1 0x20 PUSH0 KECCAK256 SWAP1 POP SWAP2 SWAP1 POP JUMP JUMPDEST PUSH0 PUSH1 0x20 PUSH1 0x1F DUP4 ADD DIV SWAP1 POP SWAP2 SWAP1 POP JUMP JUMPDEST PUSH0 DUP3 DUP3 SHL SWAP1 POP SWAP3 SWAP2 POP POP JUMP JUMPDEST PUSH0 PUSH1 0x8 DUP4 MUL PUSH3 0x4D8 PUSH32 0xFFFFFFFFFFFFFFFFFFFFFFFFFFFFFFFFFFFFFFFFFFFFFFFFFFFFFFFFFFFFFFFF DUP3 PUSH3 0x49B JUMP JUMPDEST PUSH3 0x4E4 DUP7 DUP4 PUSH3 0x49B JUMP JUMPDEST SWAP6 POP DUP1 NOT DUP5 AND SWAP4 POP DUP1 DUP7 AND DUP5 OR SWAP3 POP POP POP SWAP4 SWAP3 POP POP POP JUMP JUMPDEST PUSH0 DUP2 SWAP1 POP SWAP2 SWAP1 POP JUMP JUMPDEST PUSH0 DUP2 SWAP1 POP SWAP2 SWAP1 POP JUMP JUMPDEST PUSH0 PUSH3 0x52E PUSH3 0x528 PUSH3 0x522 DUP5 PUSH3 0x4FC JUMP JUMPDEST PUSH3 0x505 JUMP JUMPDEST PUSH3 0x4FC JUMP JUMPDEST SWAP1 POP SWAP2 SWAP1 POP JUMP JUMPDEST PUSH0 DUP2 SWAP1 POP SWAP2 SWAP1 POP JUMP JUMPDEST PUSH3 0x549 DUP4 PUSH3 0x50E JUMP JUMPDEST PUSH3 0x561 PUSH3 0x558 DUP3 PUSH3 0x535 JUMP JUMPDEST DUP5 DUP5 SLOAD PUSH3 0x4A7 JUMP JUMPDEST DUP3 SSTORE POP POP POP POP JUMP JUMPDEST PUSH0 SWAP1 JUMP JUMPDEST PUSH3 0x577 PUSH3 0x569 JUMP JUMPDEST PUSH3 0x584 DUP2 DUP5 DUP5 PUSH3 0x53E JUMP JUMPDEST POP POP POP JUMP JUMPDEST JUMPDEST DUP2 DUP2 LT ISZERO PUSH3 0x5AB JUMPI PUSH3 0x59F PUSH0 DUP3 PUSH3 0x56D JUMP JUMPDEST PUSH1 0x1 DUP2 ADD SWAP1 POP PUSH3 0x58A JUMP JUMPDEST POP POP JUMP JUMPDEST PUSH1 0x1F DUP3 GT ISZERO PUSH3 0x5FA JUMPI PUSH3 0x5C4 DUP2 PUSH3 0x47A JUMP JUMPDEST PUSH3 0x5CF DUP5 PUSH3 0x48C JUMP JUMPDEST DUP2 ADD PUSH1 0x20 DUP6 LT ISZERO PUSH3 0x5DF JUMPI DUP2 SWAP1 POP JUMPDEST PUSH3 0x5F7 PUSH3 0x5EE DUP6 PUSH3 0x48C JUMP JUMPDEST DUP4 ADD DUP3 PUSH3 0x589 JUMP JUMPDEST POP POP JUMPDEST POP POP POP JUMP JUMPDEST PUSH0 DUP3 DUP3 SHR SWAP1 POP SWAP3 SWAP2 POP POP JUMP JUMPDEST PUSH0 PUSH3 0x61C PUSH0 NOT DUP5 PUSH1 0x8 MUL PUSH3 0x5FF JUMP JUMPDEST NOT DUP1 DUP4 AND SWAP2 POP POP SWAP3 SWAP2 POP POP JUMP JUMPDEST PUSH0 PUSH3 0x636 DUP4 DUP4 PUSH3 0x60B JUMP JUMPDEST SWAP2 POP DUP3 PUSH1 0x2 MUL DUP3 OR SWAP1 POP SWAP3 SWAP2 POP POP JUMP JUMPDEST PUSH3 0x651 DUP3 PUSH3 0x3E2 JUMP JUMPDEST PUSH8 0xFFFFFFFFFFFFFFFF DUP2 GT ISZERO PUSH3 0x66D JUMPI PUSH3 0x66C PUSH3 0x3EC JUMP JUMPDEST JUMPDEST PUSH3 0x679 DUP3 SLOAD PUSH3 0x446 JUMP JUMPDEST PUSH3 0x686 DUP3 DUP3 DUP6 PUSH3 0x5AF JUMP JUMPDEST PUSH0 PUSH1 0x20 SWAP1 POP PUSH1 0x1F DUP4 GT PUSH1 0x1 DUP2 EQ PUSH3 0x6BC JUMPI PUSH0 DUP5 ISZERO PUSH3 0x6A7 JUMPI DUP3 DUP8 ADD MLOAD SWAP1 POP JUMPDEST PUSH3 0x6B3 DUP6 DUP3 PUSH3 0x629 JUMP JUMPDEST DUP7 SSTORE POP PUSH3 0x722 JUMP JUMPDEST PUSH1 0x1F NOT DUP5 AND PUSH3 0x6CC DUP7 PUSH3 0x47A JUMP JUMPDEST PUSH0 JUMPDEST DUP3 DUP2 LT ISZERO PUSH3 0x6F5 JUMPI DUP5 DUP10 ADD MLOAD DUP3 SSTORE PUSH1 0x1 DUP3 ADD SWAP2 POP PUSH1 0x20 DUP6 ADD SWAP5 POP PUSH1 0x20 DUP2 ADD SWAP1 POP PUSH3 0x6CE JUMP JUMPDEST DUP7 DUP4 LT ISZERO PUSH3 0x715 JUMPI DUP5 DUP10 ADD MLOAD PUSH3 0x711 PUSH1 0x1F DUP10 AND DUP3 PUSH3 0x60B JUMP JUMPDEST DUP4 SSTORE POP JUMPDEST PUSH1 0x1 PUSH1 0x2 DUP9 MUL ADD DUP9 SSTORE POP POP POP JUMPDEST POP POP POP POP POP POP JUMP JUMPDEST PUSH32 0x4E487B7100000000000000000000000000000000000000000000000000000000 PUSH0 MSTORE PUSH1 0x11 PUSH1 0x4 MSTORE PUSH1 0x24 PUSH0 REVERT JUMPDEST PUSH0 DUP2 PUSH1 0x1 SHR SWAP1 POP SWAP2 SWAP1 POP JUMP JUMPDEST PUSH0 DUP1 DUP3 SWAP2 POP DUP4 SWAP1 POP JUMPDEST PUSH1 0x1 DUP6 GT ISZERO PUSH3 0x7B4 JUMPI DUP1 DUP7 DIV DUP2 GT ISZERO PUSH3 0x78C JUMPI PUSH3 0x78B PUSH3 0x72A JUMP JUMPDEST JUMPDEST PUSH1 0x1 DUP6 AND ISZERO PUSH3 0x79C JUMPI DUP1 DUP3 MUL SWAP2 POP JUMPDEST DUP1 DUP2 MUL SWAP1 POP PUSH3 0x7AC DUP6 PUSH3 0x757 JUMP JUMPDEST SWAP5 POP PUSH3 0x76C JUMP JUMPDEST SWAP5 POP SWAP5 SWAP3 POP POP POP JUMP JUMPDEST PUSH0 DUP3 PUSH3 0x7CE JUMPI PUSH1 0x1 SWAP1 POP PUSH3 0x8A0 JUMP JUMPDEST DUP2 PUSH3 0x7DD JUMPI PUSH0 SWAP1 POP PUSH3 0x8A0 JUMP JUMPDEST DUP2 PUSH1 0x1 DUP2 EQ PUSH3 0x7F6 JUMPI PUSH1 0x2 DUP2 EQ PUSH3 0x801 JUMPI PUSH3 0x837 JUMP JUMPDEST PUSH1 0x1 SWAP2 POP POP PUSH3 0x8A0 JUMP JUMPDEST PUSH1 0xFF DUP5 GT ISZERO PUSH3 0x816 JUMPI PUSH3 0x815 PUSH3 0x72A JUMP JUMPDEST JUMPDEST DUP4 PUSH1 0x2 EXP SWAP2 POP DUP5 DUP3 GT ISZERO PUSH3 0x830 JUMPI PUSH3 0x82F PUSH3 0x72A JUMP JUMPDEST JUMPDEST POP PUSH3 0x8A0 JUMP JUMPDEST POP PUSH1 0x20 DUP4 LT PUSH2 0x133 DUP4 LT AND PUSH1 0x4E DUP5 LT PUSH1 0xB DUP5 LT AND OR ISZERO PUSH3 0x871 JUMPI DUP3 DUP3 EXP SWAP1 POP DUP4 DUP2 GT ISZERO PUSH3 0x86B JUMPI PUSH3 0x86A PUSH3 0x72A JUMP JUMPDEST JUMPDEST PUSH3 0x8A0 JUMP JUMPDEST PUSH3 0x880 DUP5 DUP5 DUP5 PUSH1 0x1 PUSH3 0x763 JUMP JUMPDEST SWAP3 POP SWAP1 POP DUP2 DUP5 DIV DUP2 GT ISZERO PUSH3 0x89A JUMPI PUSH3 0x899 PUSH3 0x72A JUMP JUMPDEST JUMPDEST DUP2 DUP2 MUL SWAP1 POP JUMPDEST SWAP4 SWAP3 POP POP POP JUMP JUMPDEST PUSH0 PUSH1 0xFF DUP3 AND SWAP1 POP SWAP2 SWAP1 POP JUMP JUMPDEST PUSH0 PUSH3 0x8BF DUP3 PUSH3 0x4FC JUMP JUMPDEST SWAP2 POP PUSH3 0x8CC DUP4 PUSH3 0x8A7 JUMP JUMPDEST SWAP3 POP PUSH3 0x8FB PUSH32 0xFFFFFFFFFFFFFFFFFFFFFFFFFFFFFFFFFFFFFFFFFFFFFFFFFFFFFFFFFFFFFFFF DUP5 DUP5 PUSH3 0x7BD JUMP JUMPDEST SWAP1 POP SWAP3 SWAP2 POP POP JUMP JUMPDEST PUSH0 PUSH3 0x90F DUP3 PUSH3 0x4FC JUMP JUMPDEST SWAP2 POP PUSH3 0x91C DUP4 PUSH3 0x4FC JUMP JUMPDEST SWAP3 POP DUP3 DUP3 MUL PUSH3 0x92C DUP2 PUSH3 0x4FC JUMP JUMPDEST SWAP2 POP DUP3 DUP3 DIV DUP5 EQ DUP4 ISZERO OR PUSH3 0x946 JUMPI PUSH3 0x945 PUSH3 0x72A JUMP JUMPDEST JUMPDEST POP SWAP3 SWAP2 POP POP JUMP JUMPDEST PUSH0 PUSH20 0xFFFFFFFFFFFFFFFFFFFFFFFFFFFFFFFFFFFFFFFF DUP3 AND SWAP1 POP SWAP2 SWAP1 POP JUMP JUMPDEST PUSH0 PUSH3 0x978 DUP3 PUSH3 0x94D JUMP JUMPDEST SWAP1 POP SWAP2 SWAP1 POP JUMP JUMPDEST PUSH3 0x98A DUP2 PUSH3 0x96C JUMP JUMPDEST DUP3 MSTORE POP POP JUMP JUMPDEST PUSH0 PUSH1 0x20 DUP3 ADD SWAP1 POP PUSH3 0x9A5 PUSH0 DUP4 ADD DUP5 PUSH3 0x97F JUMP JUMPDEST SWAP3 SWAP2 POP POP JUMP JUMPDEST PUSH0 PUSH3 0x9B7 DUP3 PUSH3 0x4FC JUMP JUMPDEST SWAP2 POP PUSH3 0x9C4 DUP4 PUSH3 0x4FC JUMP JUMPDEST SWAP3 POP DUP3 DUP3 ADD SWAP1 POP DUP1 DUP3 GT ISZERO PUSH3 0x9DF JUMPI PUSH3 0x9DE PUSH3 0x72A JUMP JUMPDEST JUMPDEST SWAP3 SWAP2 POP POP JUMP JUMPDEST PUSH3 0x9F0 DUP2 PUSH3 0x4FC JUMP JUMPDEST DUP3 MSTORE POP POP JUMP JUMPDEST PUSH0 PUSH1 0x60 DUP3 ADD SWAP1 POP PUSH3 0xA0B PUSH0 DUP4 ADD DUP7 PUSH3 0x97F JUMP JUMPDEST PUSH3 0xA1A PUSH1 0x20 DUP4 ADD DUP6 PUSH3 0x9E5 JUMP JUMPDEST PUSH3 0xA29 PUSH1 0x40 DUP4 ADD DUP5 PUSH3 0x9E5 JUMP JUMPDEST SWAP5 SWAP4 POP POP POP POP JUMP JUMPDEST PUSH0 PUSH1 0x20 DUP3 ADD SWAP1 POP PUSH3 0xA46 PUSH0 DUP4 ADD DUP5 PUSH3 0x9E5 JUMP JUMPDEST SWAP3 SWAP2 POP POP JUMP JUMPDEST PUSH2 0x1F1E DUP1 PUSH3 0xA5A PUSH0 CODECOPY PUSH0 RETURN INVALID PUSH1 0x80 PUSH1 0x40 MSTORE PUSH1 0x4 CALLDATASIZE LT PUSH2 0xE0 JUMPI PUSH0 CALLDATALOAD PUSH1 0xE0 SHR DUP1 PUSH4 0x8642269E GT PUSH2 0x7E JUMPI DUP1 PUSH4 0xA9059CBB GT PUSH2 0x58 JUMPI DUP1 PUSH4 0xA9059CBB EQ PUSH2 0x3EF JUMPI DUP1 PUSH4 0xABA7B314 EQ PUSH2 0x42B JUMPI DUP1 PUSH4 0xC29B2F20 EQ PUSH2 0x455 JUMPI DUP1 PUSH4 0xDD62ED3E EQ PUSH2 0x47F JUMPI PUSH2 0x1D9 JUMP JUMPDEST DUP1 PUSH4 0x8642269E EQ PUSH2 0x34D JUMPI DUP1 PUSH4 0x8C96091B EQ PUSH2 0x389 JUMPI DUP1 PUSH4 0x95D89B41 EQ PUSH2 0x3C5 JUMPI PUSH2 0x1D9 JUMP JUMPDEST DUP1 PUSH4 0x23B872DD GT PUSH2 0xBA JUMPI DUP1 PUSH4 0x23B872DD EQ PUSH2 0x26D JUMPI DUP1 PUSH4 0x313CE567 EQ PUSH2 0x2A9 JUMPI DUP1 PUSH4 0x70A08231 EQ PUSH2 0x2D3 JUMPI DUP1 PUSH4 0x7ACC0B20 EQ PUSH2 0x30F JUMPI PUSH2 0x1D9 JUMP JUMPDEST DUP1 PUSH4 0x6FDDE03 EQ PUSH2 0x1DD JUMPI DUP1 PUSH4 0x95EA7B3 EQ PUSH2 0x207 JUMPI DUP1 PUSH4 0x18160DDD EQ PUSH2 0x243 JUMPI PUSH2 0x1D9 JUMP JUMPDEST CALLDATASIZE PUSH2 0x1D9 JUMPI PUSH0 PUSH2 0x1F4 CALLVALUE PUSH2 0xF4 SWAP2 SWAP1 PUSH2 0x1330 JUMP JUMPDEST SWAP1 POP DUP1 PUSH2 0x121 PUSH1 0x5 PUSH0 SWAP1 SLOAD SWAP1 PUSH2 0x100 EXP SWAP1 DIV PUSH20 0xFFFFFFFFFFFFFFFFFFFFFFFFFFFFFFFFFFFFFFFF AND PUSH2 0x4BB JUMP JUMPDEST LT ISZERO PUSH2 0x12B JUMPI PUSH0 DUP1 REVERT JUMPDEST PUSH2 0x157 PUSH1 0x5 PUSH0 SWAP1 SLOAD SWAP1 PUSH2 0x100 EXP SWAP1 DIV PUSH20 0xFFFFFFFFFFFFFFFFFFFFFFFFFFFFFFFFFFFFFFFF AND CALLER DUP4 PUSH2 0x500 JUMP JUMPDEST PUSH1 0x5 PUSH0 SWAP1 SLOAD SWAP1 PUSH2 0x100 EXP SWAP1 DIV PUSH20 0xFFFFFFFFFFFFFFFFFFFFFFFFFFFFFFFFFFFFFFFF AND PUSH20 0xFFFFFFFFFFFFFFFFFFFFFFFFFFFFFFFFFFFFFFFF AND CALLER PUSH20 0xFFFFFFFFFFFFFFFFFFFFFFFFFFFFFFFFFFFFFFFF AND SUB PUSH2 0x1D7 JUMPI PUSH2 0x1D6 PUSH1 0x5 PUSH0 SWAP1 SLOAD SWAP1 PUSH2 0x100 EXP SWAP1 DIV PUSH20 0xFFFFFFFFFFFFFFFFFFFFFFFFFFFFFFFFFFFFFFFF AND DUP3 PUSH2 0x719 JUMP JUMPDEST JUMPDEST STOP JUMPDEST PUSH0 DUP1 REVERT JUMPDEST CALLVALUE DUP1 ISZERO PUSH2 0x1E8 JUMPI PUSH0 DUP1 REVERT JUMPDEST POP PUSH2 0x1F1 PUSH2 0x798 JUMP JUMPDEST PUSH1 0x40 MLOAD PUSH2 0x1FE SWAP2 SWAP1 PUSH2 0x13FB JUMP JUMPDEST PUSH1 0x40 MLOAD DUP1 SWAP2 SUB SWAP1 RETURN JUMPDEST CALLVALUE DUP1 ISZERO PUSH2 0x212 JUMPI PUSH0 DUP1 REVERT JUMPDEST POP PUSH2 0x22D PUSH1 0x4 DUP1 CALLDATASIZE SUB DUP2 ADD SWAP1 PUSH2 0x228 SWAP2 SWAP1 PUSH2 0x14B0 JUMP JUMPDEST PUSH2 0x828 JUMP JUMPDEST PUSH1 0x40 MLOAD PUSH2 0x23A SWAP2 SWAP1 PUSH2 0x1508 JUMP JUMPDEST PUSH1 0x40 MLOAD DUP1 SWAP2 SUB SWAP1 RETURN JUMPDEST CALLVALUE DUP1 ISZERO PUSH2 0x24E JUMPI PUSH0 DUP1 REVERT JUMPDEST POP PUSH2 0x257 PUSH2 0x84A JUMP JUMPDEST PUSH1 0x40 MLOAD PUSH2 0x264 SWAP2 SWAP1 PUSH2 0x1530 JUMP JUMPDEST PUSH1 0x40 MLOAD DUP1 SWAP2 SUB SWAP1 RETURN JUMPDEST CALLVALUE DUP1 ISZERO PUSH2 0x278 JUMPI PUSH0 DUP1 REVERT JUMPDEST POP PUSH2 0x293 PUSH1 0x4 DUP1 CALLDATASIZE SUB DUP2 ADD SWAP1 PUSH2 0x28E SWAP2 SWAP1 PUSH2 0x1549 JUMP JUMPDEST PUSH2 0x853 JUMP JUMPDEST PUSH1 0x40 MLOAD PUSH2 0x2A0 SWAP2 SWAP1 PUSH2 0x1508 JUMP JUMPDEST PUSH1 0x40 MLOAD DUP1 SWAP2 SUB SWAP1 RETURN JUMPDEST CALLVALUE DUP1 ISZERO PUSH2 0x2B4 JUMPI PUSH0 DUP1 REVERT JUMPDEST POP PUSH2 0x2BD PUSH2 0x881 JUMP JUMPDEST PUSH1 0x40 MLOAD PUSH2 0x2CA SWAP2 SWAP1 PUSH2 0x15B4 JUMP JUMPDEST PUSH1 0x40 MLOAD DUP1 SWAP2 SUB SWAP1 RETURN JUMPDEST CALLVALUE DUP1 ISZERO PUSH2 0x2DE JUMPI PUSH0 DUP1 REVERT JUMPDEST POP PUSH2 0x2F9 PUSH1 0x4 DUP1 CALLDATASIZE SUB DUP2 ADD SWAP1 PUSH2 0x2F4 SWAP2 SWAP1 PUSH2 0x15CD JUMP JUMPDEST PUSH2 0x4BB JUMP JUMPDEST PUSH1 0x40 MLOAD PUSH2 0x306 SWAP2 SWAP1 PUSH2 0x1530 JUMP JUMPDEST PUSH1 0x40 MLOAD DUP1 SWAP2 SUB SWAP1 RETURN JUMPDEST CALLVALUE DUP1 ISZERO PUSH2 0x31A JUMPI PUSH0 DUP1 REVERT JUMPDEST POP PUSH2 0x335 PUSH1 0x4 DUP1 CALLDATASIZE SUB DUP2 ADD SWAP1 PUSH2 0x330 SWAP2 SWAP1 PUSH2 0x15F8 JUMP JUMPDEST PUSH2 0x889 JUMP JUMPDEST PUSH1 0x40 MLOAD PUSH2 0x344 SWAP4 SWAP3 SWAP2 SWAP1 PUSH2 0x1623 JUMP JUMPDEST PUSH1 0x40 MLOAD DUP1 SWAP2 SUB SWAP1 RETURN JUMPDEST CALLVALUE DUP1 ISZERO PUSH2 0x358 JUMPI PUSH0 DUP1 REVERT JUMPDEST POP PUSH2 0x373 PUSH1 0x4 DUP1 CALLDATASIZE SUB DUP2 ADD SWAP1 PUSH2 0x36E SWAP2 SWAP1 PUSH2 0x15F8 JUMP JUMPDEST PUSH2 0x944 JUMP JUMPDEST PUSH1 0x40 MLOAD PUSH2 0x380 SWAP2 SWAP1 PUSH2 0x1508 JUMP JUMPDEST PUSH1 0x40 MLOAD DUP1 SWAP2 SUB SWAP1 RETURN JUMPDEST CALLVALUE DUP1 ISZERO PUSH2 0x394 JUMPI PUSH0 DUP1 REVERT JUMPDEST POP PUSH2 0x3AF PUSH1 0x4 DUP1 CALLDATASIZE SUB DUP2 ADD SWAP1 PUSH2 0x3AA SWAP2 SWAP1 PUSH2 0x178B JUMP JUMPDEST PUSH2 0xB4E JUMP JUMPDEST PUSH1 0x40 MLOAD PUSH2 0x3BC SWAP2 SWAP1 PUSH2 0x1508 JUMP JUMPDEST PUSH1 0x40 MLOAD DUP1 SWAP2 SUB SWAP1 RETURN JUMPDEST CALLVALUE DUP1 ISZERO PUSH2 0x3D0 JUMPI PUSH0 DUP1 REVERT JUMPDEST POP PUSH2 0x3D9 PUSH2 0xC04 JUMP JUMPDEST PUSH1 0x40 MLOAD PUSH2 0x3E6 SWAP2 SWAP1 PUSH2 0x13FB JUMP JUMPDEST PUSH1 0x40 MLOAD DUP1 SWAP2 SUB SWAP1 RETURN JUMPDEST CALLVALUE DUP1 ISZERO PUSH2 0x3FA JUMPI PUSH0 DUP1 REVERT JUMPDEST POP PUSH2 0x415 PUSH1 0x4 DUP1 CALLDATASIZE SUB DUP2 ADD SWAP1 PUSH2 0x410 SWAP2 SWAP1 PUSH2 0x14B0 JUMP JUMPDEST PUSH2 0xC94 JUMP JUMPDEST PUSH1 0x40 MLOAD PUSH2 0x422 SWAP2 SWAP1 PUSH2 0x1508 JUMP JUMPDEST PUSH1 0x40 MLOAD DUP1 SWAP2 SUB SWAP1 RETURN JUMPDEST CALLVALUE DUP1 ISZERO PUSH2 0x436 JUMPI PUSH0 DUP1 REVERT JUMPDEST POP PUSH2 0x43F PUSH2 0xCB6 JUMP JUMPDEST PUSH1 0x40 MLOAD PUSH2 0x44C SWAP2 SWAP1 PUSH2 0x1944 JUMP JUMPDEST PUSH1 0x40 MLOAD DUP1 SWAP2 SUB SWAP1 RETURN JUMPDEST CALLVALUE DUP1 ISZERO PUSH2 0x460 JUMPI PUSH0 DUP1 REVERT JUMPDEST POP PUSH2 0x469 PUSH2 0xDF0 JUMP JUMPDEST PUSH1 0x40 MLOAD PUSH2 0x476 SWAP2 SWAP1 PUSH2 0x1944 JUMP JUMPDEST PUSH1 0x40 MLOAD DUP1 SWAP2 SUB SWAP1 RETURN JUMPDEST CALLVALUE DUP1 ISZERO PUSH2 0x48A JUMPI PUSH0 DUP1 REVERT JUMPDEST POP PUSH2 0x4A5 PUSH1 0x4 DUP1 CALLDATASIZE SUB DUP2 ADD SWAP1 PUSH2 0x4A0 SWAP2 SWAP1 PUSH2 0x1964 JUMP JUMPDEST PUSH2 0xEEF JUMP JUMPDEST PUSH1 0x40 MLOAD PUSH2 0x4B2 SWAP2 SWAP1 PUSH2 0x1530 JUMP JUMPDEST PUSH1 0x40 MLOAD DUP1 SWAP2 SUB SWAP1 RETURN JUMPDEST PUSH0 DUP1 PUSH0 DUP4 PUSH20 0xFFFFFFFFFFFFFFFFFFFFFFFFFFFFFFFFFFFFFFFF AND PUSH20 0xFFFFFFFFFFFFFFFFFFFFFFFFFFFFFFFFFFFFFFFF AND DUP2 MSTORE PUSH1 0x20 ADD SWAP1 DUP2 MSTORE PUSH1 0x20 ADD PUSH0 KECCAK256 SLOAD SWAP1 POP SWAP2 SWAP1 POP JUMP JUMPDEST PUSH0 PUSH20 0xFFFFFFFFFFFFFFFFFFFFFFFFFFFFFFFFFFFFFFFF AND DUP4 PUSH20 0xFFFFFFFFFFFFFFFFFFFFFFFFFFFFFFFFFFFFFFFF AND SUB PUSH2 0x550 JUMPI DUP1 PUSH1 0x2 PUSH0 DUP3 DUP3 SLOAD PUSH2 0x544 SWAP2 SWAP1 PUSH2 0x19A2 JUMP JUMPDEST SWAP3 POP POP DUP2 SWAP1 SSTORE POP PUSH2 0x61E JUMP JUMPDEST PUSH0 DUP1 PUSH0 DUP6 PUSH20 0xFFFFFFFFFFFFFFFFFFFFFFFFFFFFFFFFFFFFFFFF AND PUSH20 0xFFFFFFFFFFFFFFFFFFFFFFFFFFFFFFFFFFFFFFFF AND DUP2 MSTORE PUSH1 0x20 ADD SWAP1 DUP2 MSTORE PUSH1 0x20 ADD PUSH0 KECCAK256 SLOAD SWAP1 POP DUP2 DUP2 LT ISZERO PUSH2 0x5D9 JUMPI DUP4 DUP2 DUP4 PUSH1 0x40 MLOAD PUSH32 0xE450D38C00000000000000000000000000000000000000000000000000000000 DUP2 MSTORE PUSH1 0x4 ADD PUSH2 0x5D0 SWAP4 SWAP3 SWAP2 SWAP1 PUSH2 0x19E4 JUMP JUMPDEST PUSH1 0x40 MLOAD DUP1 SWAP2 SUB SWAP1 REVERT JUMPDEST DUP2 DUP2 SUB PUSH0 DUP1 DUP7 PUSH20 0xFFFFFFFFFFFFFFFFFFFFFFFFFFFFFFFFFFFFFFFF AND PUSH20 0xFFFFFFFFFFFFFFFFFFFFFFFFFFFFFFFFFFFFFFFF AND DUP2 MSTORE PUSH1 0x20 ADD SWAP1 DUP2 MSTORE PUSH1 0x20 ADD PUSH0 KECCAK256 DUP2 SWAP1 SSTORE POP POP JUMPDEST PUSH0 PUSH20 0xFFFFFFFFFFFFFFFFFFFFFFFFFFFFFFFFFFFFFFFF AND DUP3 PUSH20 0xFFFFFFFFFFFFFFFFFFFFFFFFFFFFFFFFFFFFFFFF AND SUB PUSH2 0x665 JUMPI DUP1 PUSH1 0x2 PUSH0 DUP3 DUP3 SLOAD SUB SWAP3 POP POP DUP2 SWAP1 SSTORE POP PUSH2 0x6AF JUMP JUMPDEST DUP1 PUSH0 DUP1 DUP5 PUSH20 0xFFFFFFFFFFFFFFFFFFFFFFFFFFFFFFFFFFFFFFFF AND PUSH20 0xFFFFFFFFFFFFFFFFFFFFFFFFFFFFFFFFFFFFFFFF AND DUP2 MSTORE PUSH1 0x20 ADD SWAP1 DUP2 MSTORE PUSH1 0x20 ADD PUSH0 KECCAK256 PUSH0 DUP3 DUP3 SLOAD ADD SWAP3 POP POP DUP2 SWAP1 SSTORE POP JUMPDEST DUP2 PUSH20 0xFFFFFFFFFFFFFFFFFFFFFFFFFFFFFFFFFFFFFFFF AND DUP4 PUSH20 0xFFFFFFFFFFFFFFFFFFFFFFFFFFFFFFFFFFFFFFFF AND PUSH32 0xDDF252AD1BE2C89B69C2B068FC378DAA952BA7F163C4A11628F55A4DF523B3EF DUP4 PUSH1 0x40 MLOAD PUSH2 0x70C SWAP2 SWAP1 PUSH2 0x1530 JUMP JUMPDEST PUSH1 0x40 MLOAD DUP1 SWAP2 SUB SWAP1 LOG3 POP POP POP JUMP JUMPDEST PUSH0 PUSH20 0xFFFFFFFFFFFFFFFFFFFFFFFFFFFFFFFFFFFFFFFF AND DUP3 PUSH20 0xFFFFFFFFFFFFFFFFFFFFFFFFFFFFFFFFFFFFFFFF AND SUB PUSH2 0x789 JUMPI PUSH0 PUSH1 0x40 MLOAD PUSH32 0xEC442F0500000000000000000000000000000000000000000000000000000000 DUP2 MSTORE PUSH1 0x4 ADD PUSH2 0x780 SWAP2 SWAP1 PUSH2 0x1A19 JUMP JUMPDEST PUSH1 0x40 MLOAD DUP1 SWAP2 SUB SWAP1 REVERT JUMPDEST PUSH2 0x794 PUSH0 DUP4 DUP4 PUSH2 0x500 JUMP JUMPDEST POP POP JUMP JUMPDEST PUSH1 0x60 PUSH1 0x3 DUP1 SLOAD PUSH2 0x7A7 SWAP1 PUSH2 0x1A5F JUMP JUMPDEST DUP1 PUSH1 0x1F ADD PUSH1 0x20 DUP1 SWAP2 DIV MUL PUSH1 0x20 ADD PUSH1 0x40 MLOAD SWAP1 DUP2 ADD PUSH1 0x40 MSTORE DUP1 SWAP3 SWAP2 SWAP1 DUP2 DUP2 MSTORE PUSH1 0x20 ADD DUP3 DUP1 SLOAD PUSH2 0x7D3 SWAP1 PUSH2 0x1A5F JUMP JUMPDEST DUP1 ISZERO PUSH2 0x81E JUMPI DUP1 PUSH1 0x1F LT PUSH2 0x7F5 JUMPI PUSH2 0x100 DUP1 DUP4 SLOAD DIV MUL DUP4 MSTORE SWAP2 PUSH1 0x20 ADD SWAP2 PUSH2 0x81E JUMP JUMPDEST DUP3 ADD SWAP2 SWAP1 PUSH0 MSTORE PUSH1 0x20 PUSH0 KECCAK256 SWAP1 JUMPDEST DUP2 SLOAD DUP2 MSTORE SWAP1 PUSH1 0x1 ADD SWAP1 PUSH1 0x20 ADD DUP1 DUP4 GT PUSH2 0x801 JUMPI DUP3 SWAP1 SUB PUSH1 0x1F AND DUP3 ADD SWAP2 JUMPDEST POP POP POP POP POP SWAP1 POP SWAP1 JUMP JUMPDEST PUSH0 DUP1 PUSH2 0x832 PUSH2 0xF71 JUMP JUMPDEST SWAP1 POP PUSH2 0x83F DUP2 DUP6 DUP6 PUSH2 0xF78 JUMP JUMPDEST PUSH1 0x1 SWAP2 POP POP SWAP3 SWAP2 POP POP JUMP JUMPDEST PUSH0 PUSH1 0x2 SLOAD SWAP1 POP SWAP1 JUMP JUMPDEST PUSH0 DUP1 PUSH2 0x85D PUSH2 0xF71 JUMP JUMPDEST SWAP1 POP PUSH2 0x86A DUP6 DUP3 DUP6 PUSH2 0xF8A JUMP JUMPDEST PUSH2 0x875 DUP6 DUP6 DUP6 PUSH2 0x101C JUMP JUMPDEST PUSH1 0x1 SWAP2 POP POP SWAP4 SWAP3 POP POP POP JUMP JUMPDEST PUSH0 PUSH1 0x12 SWAP1 POP SWAP1 JUMP JUMPDEST PUSH1 0x6 DUP2 DUP2 SLOAD DUP2 LT PUSH2 0x898 JUMPI PUSH0 DUP1 REVERT JUMPDEST SWAP1 PUSH0 MSTORE PUSH1 0x20 PUSH0 KECCAK256 SWAP1 PUSH1 0x3 MUL ADD PUSH0 SWAP2 POP SWAP1 POP DUP1 PUSH0 ADD SLOAD SWAP1 DUP1 PUSH1 0x1 ADD DUP1 SLOAD PUSH2 0x8BD SWAP1 PUSH2 0x1A5F JUMP JUMPDEST DUP1 PUSH1 0x1F ADD PUSH1 0x20 DUP1 SWAP2 DIV MUL PUSH1 0x20 ADD PUSH1 0x40 MLOAD SWAP1 DUP2 ADD PUSH1 0x40 MSTORE DUP1 SWAP3 SWAP2 SWAP1 DUP2 DUP2 MSTORE PUSH1 0x20 ADD DUP3 DUP1 SLOAD PUSH2 0x8E9 SWAP1 PUSH2 0x1A5F JUMP JUMPDEST DUP1 ISZERO PUSH2 0x934 JUMPI DUP1 PUSH1 0x1F LT PUSH2 0x90B JUMPI PUSH2 0x100 DUP1 DUP4 SLOAD DIV MUL DUP4 MSTORE SWAP2 PUSH1 0x20 ADD SWAP2 PUSH2 0x934 JUMP JUMPDEST DUP3 ADD SWAP2 SWAP1 PUSH0 MSTORE PUSH1 0x20 PUSH0 KECCAK256 SWAP1 JUMPDEST DUP2 SLOAD DUP2 MSTORE SWAP1 PUSH1 0x1 ADD SWAP1 PUSH1 0x20 ADD DUP1 DUP4 GT PUSH2 0x917 JUMPI DUP3 SWAP1 SUB PUSH1 0x1F AND DUP3 ADD SWAP2 JUMPDEST POP POP POP POP POP SWAP1 DUP1 PUSH1 0x2 ADD SLOAD SWAP1 POP DUP4 JUMP JUMPDEST PUSH0 PUSH2 0x94D PUSH2 0x12DB JUMP JUMPDEST PUSH0 JUMPDEST PUSH1 0x6 DUP1 SLOAD SWAP1 POP DUP2 LT ISZERO PUSH2 0xA6D JUMPI DUP4 PUSH1 0x6 DUP3 DUP2 SLOAD DUP2 LT PUSH2 0x971 JUMPI PUSH2 0x970 PUSH2 0x1A8F JUMP JUMPDEST JUMPDEST SWAP1 PUSH0 MSTORE PUSH1 0x20 PUSH0 KECCAK256 SWAP1 PUSH1 0x3 MUL ADD PUSH0 ADD SLOAD SUB PUSH2 0xA5A JUMPI PUSH1 0x6 DUP2 DUP2 SLOAD DUP2 LT PUSH2 0x999 JUMPI PUSH2 0x998 PUSH2 0x1A8F JUMP JUMPDEST JUMPDEST SWAP1 PUSH0 MSTORE PUSH1 0x20 PUSH0 KECCAK256 SWAP1 PUSH1 0x3 MUL ADD PUSH1 0x40 MLOAD DUP1 PUSH1 0x60 ADD PUSH1 0x40 MSTORE SWAP1 DUP2 PUSH0 DUP3 ADD SLOAD DUP2 MSTORE PUSH1 0x20 ADD PUSH1 0x1 DUP3 ADD DUP1 SLOAD PUSH2 0x9C9 SWAP1 PUSH2 0x1A5F JUMP JUMPDEST DUP1 PUSH1 0x1F ADD PUSH1 0x20 DUP1 SWAP2 DIV MUL PUSH1 0x20 ADD PUSH1 0x40 MLOAD SWAP1 DUP2 ADD PUSH1 0x40 MSTORE DUP1 SWAP3 SWAP2 SWAP1 DUP2 DUP2 MSTORE PUSH1 0x20 ADD DUP3 DUP1 SLOAD PUSH2 0x9F5 SWAP1 PUSH2 0x1A5F JUMP JUMPDEST DUP1 ISZERO PUSH2 0xA40 JUMPI DUP1 PUSH1 0x1F LT PUSH2 0xA17 JUMPI PUSH2 0x100 DUP1 DUP4 SLOAD DIV MUL DUP4 MSTORE SWAP2 PUSH1 0x20 ADD SWAP2 PUSH2 0xA40 JUMP JUMPDEST DUP3 ADD SWAP2 SWAP1 PUSH0 MSTORE PUSH1 0x20 PUSH0 KECCAK256 SWAP1 JUMPDEST DUP2 SLOAD DUP2 MSTORE SWAP1 PUSH1 0x1 ADD SWAP1 PUSH1 0x20 ADD DUP1 DUP4 GT PUSH2 0xA23 JUMPI DUP3 SWAP1 SUB PUSH1 0x1F AND DUP3 ADD SWAP2 JUMPDEST POP POP POP POP POP DUP2 MSTORE PUSH1 0x20 ADD PUSH1 0x2 DUP3 ADD SLOAD DUP2 MSTORE POP POP SWAP2 POP PUSH2 0xA6D JUMP JUMPDEST DUP1 DUP1 PUSH2 0xA65 SWAP1 PUSH2 0x1ABC JUMP JUMPDEST SWAP2 POP POP PUSH2 0x94F JUMP JUMPDEST POP DUP1 PUSH1 0x40 ADD MLOAD PUSH2 0xA7C CALLER PUSH2 0x4BB JUMP JUMPDEST LT ISZERO PUSH2 0xA86 JUMPI PUSH0 DUP1 REVERT JUMPDEST PUSH2 0xAB6 CALLER PUSH1 0x5 PUSH0 SWAP1 SLOAD SWAP1 PUSH2 0x100 EXP SWAP1 DIV PUSH20 0xFFFFFFFFFFFFFFFFFFFFFFFFFFFFFFFFFFFFFFFF AND DUP4 PUSH1 0x40 ADD MLOAD PUSH2 0x500 JUMP JUMPDEST PUSH1 0x8 PUSH0 CALLER PUSH20 0xFFFFFFFFFFFFFFFFFFFFFFFFFFFFFFFFFFFFFFFF AND PUSH20 0xFFFFFFFFFFFFFFFFFFFFFFFFFFFFFFFFFFFFFFFF AND DUP2 MSTORE PUSH1 0x20 ADD SWAP1 DUP2 MSTORE PUSH1 0x20 ADD PUSH0 KECCAK256 DUP2 SWAP1 DUP1 PUSH1 0x1 DUP2 SLOAD ADD DUP1 DUP3 SSTORE DUP1 SWAP2 POP POP PUSH1 0x1 SWAP1 SUB SWAP1 PUSH0 MSTORE PUSH1 0x20 PUSH0 KECCAK256 SWAP1 PUSH1 0x3 MUL ADD PUSH0 SWAP1 SWAP2 SWAP1 SWAP2 SWAP1 SWAP2 POP PUSH0 DUP3 ADD MLOAD DUP2 PUSH0 ADD SSTORE PUSH1 0x20 DUP3 ADD MLOAD DUP2 PUSH1 0x1 ADD SWAP1 DUP2 PUSH2 0xB37 SWAP2 SWAP1 PUSH2 0x1CA0 JUMP JUMPDEST POP PUSH1 0x40 DUP3 ADD MLOAD DUP2 PUSH1 0x2 ADD SSTORE POP POP PUSH1 0x1 SWAP2 POP POP SWAP2 SWAP1 POP JUMP JUMPDEST PUSH0 DUP1 PUSH2 0xB58 PUSH2 0x881 JUMP JUMPDEST PUSH1 0xA PUSH2 0xB64 SWAP2 SWAP1 PUSH2 0x1E9E JUMP JUMPDEST DUP4 PUSH2 0xB6F SWAP2 SWAP1 PUSH2 0x1330 JUMP JUMPDEST SWAP1 POP PUSH1 0x6 PUSH1 0x40 MLOAD DUP1 PUSH1 0x60 ADD PUSH1 0x40 MSTORE DUP1 PUSH1 0x7 SLOAD DUP2 MSTORE PUSH1 0x20 ADD DUP7 DUP2 MSTORE PUSH1 0x20 ADD DUP4 DUP2 MSTORE POP SWAP1 DUP1 PUSH1 0x1 DUP2 SLOAD ADD DUP1 DUP3 SSTORE DUP1 SWAP2 POP POP PUSH1 0x1 SWAP1 SUB SWAP1 PUSH0 MSTORE PUSH1 0x20 PUSH0 KECCAK256 SWAP1 PUSH1 0x3 MUL ADD PUSH0 SWAP1 SWAP2 SWAP1 SWAP2 SWAP1 SWAP2 POP PUSH0 DUP3 ADD MLOAD DUP2 PUSH0 ADD SSTORE PUSH1 0x20 DUP3 ADD MLOAD DUP2 PUSH1 0x1 ADD SWAP1 DUP2 PUSH2 0xBD3 SWAP2 SWAP1 PUSH2 0x1CA0 JUMP JUMPDEST POP PUSH1 0x40 DUP3 ADD MLOAD DUP2 PUSH1 0x2 ADD SSTORE POP POP PUSH1 0x1 PUSH1 0x7 PUSH0 DUP3 DUP3 SLOAD PUSH2 0xBF2 SWAP2 SWAP1 PUSH2 0x19A2 JUMP JUMPDEST SWAP3 POP POP DUP2 SWAP1 SSTORE POP PUSH1 0x1 SWAP2 POP POP SWAP3 SWAP2 POP POP JUMP JUMPDEST PUSH1 0x60 PUSH1 0x4 DUP1 SLOAD PUSH2 0xC13 SWAP1 PUSH2 0x1A5F JUMP JUMPDEST DUP1 PUSH1 0x1F ADD PUSH1 0x20 DUP1 SWAP2 DIV MUL PUSH1 0x20 ADD PUSH1 0x40 MLOAD SWAP1 DUP2 ADD PUSH1 0x40 MSTORE DUP1 SWAP3 SWAP2 SWAP1 DUP2 DUP2 MSTORE PUSH1 0x20 ADD DUP3 DUP1 SLOAD PUSH2 0xC3F SWAP1 PUSH2 0x1A5F JUMP JUMPDEST DUP1 ISZERO PUSH2 0xC8A JUMPI DUP1 PUSH1 0x1F LT PUSH2 0xC61 JUMPI PUSH2 0x100 DUP1 DUP4 SLOAD DIV MUL DUP4 MSTORE SWAP2 PUSH1 0x20 ADD SWAP2 PUSH2 0xC8A JUMP JUMPDEST DUP3 ADD SWAP2 SWAP1 PUSH0 MSTORE PUSH1 0x20 PUSH0 KECCAK256 SWAP1 JUMPDEST DUP2 SLOAD DUP2 MSTORE SWAP1 PUSH1 0x1 ADD SWAP1 PUSH1 0x20 ADD DUP1 DUP4 GT PUSH2 0xC6D JUMPI DUP3 SWAP1 SUB PUSH1 0x1F AND DUP3 ADD SWAP2 JUMPDEST POP POP POP POP POP SWAP1 POP SWAP1 JUMP JUMPDEST PUSH0 DUP1 PUSH2 0xC9E PUSH2 0xF71 JUMP JUMPDEST SWAP1 POP PUSH2 0xCAB DUP2 DUP6 DUP6 PUSH2 0x101C JUMP JUMPDEST PUSH1 0x1 SWAP2 POP POP SWAP3 SWAP2 POP POP JUMP JUMPDEST PUSH1 0x60 PUSH1 0x8 PUSH0 CALLER PUSH20 0xFFFFFFFFFFFFFFFFFFFFFFFFFFFFFFFFFFFFFFFF AND PUSH20 0xFFFFFFFFFFFFFFFFFFFFFFFFFFFFFFFFFFFFFFFF AND DUP2 MSTORE PUSH1 0x20 ADD SWAP1 DUP2 MSTORE PUSH1 0x20 ADD PUSH0 KECCAK256 DUP1 SLOAD DUP1 PUSH1 0x20 MUL PUSH1 0x20 ADD PUSH1 0x40 MLOAD SWAP1 DUP2 ADD PUSH1 0x40 MSTORE DUP1 SWAP3 SWAP2 SWAP1 DUP2 DUP2 MSTORE PUSH1 0x20 ADD PUSH0 SWAP1 JUMPDEST DUP3 DUP3 LT ISZERO PUSH2 0xDE7 JUMPI DUP4 DUP3 SWAP1 PUSH0 MSTORE PUSH1 0x20 PUSH0 KECCAK256 SWAP1 PUSH1 0x3 MUL ADD PUSH1 0x40 MLOAD DUP1 PUSH1 0x60 ADD PUSH1 0x40 MSTORE SWAP1 DUP2 PUSH0 DUP3 ADD SLOAD DUP2 MSTORE PUSH1 0x20 ADD PUSH1 0x1 DUP3 ADD DUP1 SLOAD PUSH2 0xD4E SWAP1 PUSH2 0x1A5F JUMP JUMPDEST DUP1 PUSH1 0x1F ADD PUSH1 0x20 DUP1 SWAP2 DIV MUL PUSH1 0x20 ADD PUSH1 0x40 MLOAD SWAP1 DUP2 ADD PUSH1 0x40 MSTORE DUP1 SWAP3 SWAP2 SWAP1 DUP2 DUP2 MSTORE PUSH1 0x20 ADD DUP3 DUP1 SLOAD PUSH2 0xD7A SWAP1 PUSH2 0x1A5F JUMP JUMPDEST DUP1 ISZERO PUSH2 0xDC5 JUMPI DUP1 PUSH1 0x1F LT PUSH2 0xD9C JUMPI PUSH2 0x100 DUP1 DUP4 SLOAD DIV MUL DUP4 MSTORE SWAP2 PUSH1 0x20 ADD SWAP2 PUSH2 0xDC5 JUMP JUMPDEST DUP3 ADD SWAP2 SWAP1 PUSH0 MSTORE PUSH1 0x20 PUSH0 KECCAK256 SWAP1 JUMPDEST DUP2 SLOAD DUP2 MSTORE SWAP1 PUSH1 0x1 ADD SWAP1 PUSH1 0x20 ADD DUP1 DUP4 GT PUSH2 0xDA8 JUMPI DUP3 SWAP1 SUB PUSH1 0x1F AND DUP3 ADD SWAP2 JUMPDEST POP POP POP POP POP DUP2 MSTORE PUSH1 0x20 ADD PUSH1 0x2 DUP3 ADD SLOAD DUP2 MSTORE POP POP DUP2 MSTORE PUSH1 0x20 ADD SWAP1 PUSH1 0x1 ADD SWAP1 PUSH2 0xD14 JUMP JUMPDEST POP POP POP POP SWAP1 POP SWAP1 JUMP JUMPDEST PUSH1 0x60 PUSH1 0x6 DUP1 SLOAD DUP1 PUSH1 0x20 MUL PUSH1 0x20 ADD PUSH1 0x40 MLOAD SWAP1 DUP2 ADD PUSH1 0x40 MSTORE DUP1 SWAP3 SWAP2 SWAP1 DUP2 DUP2 MSTORE PUSH1 0x20 ADD PUSH0 SWAP1 JUMPDEST DUP3 DUP3 LT ISZERO PUSH2 0xEE6 JUMPI DUP4 DUP3 SWAP1 PUSH0 MSTORE PUSH1 0x20 PUSH0 KECCAK256 SWAP1 PUSH1 0x3 MUL ADD PUSH1 0x40 MLOAD DUP1 PUSH1 0x60 ADD PUSH1 0x40 MSTORE SWAP1 DUP2 PUSH0 DUP3 ADD SLOAD DUP2 MSTORE PUSH1 0x20 ADD PUSH1 0x1 DUP3 ADD DUP1 SLOAD PUSH2 0xE4D SWAP1 PUSH2 0x1A5F JUMP JUMPDEST DUP1 PUSH1 0x1F ADD PUSH1 0x20 DUP1 SWAP2 DIV MUL PUSH1 0x20 ADD PUSH1 0x40 MLOAD SWAP1 DUP2 ADD PUSH1 0x40 MSTORE DUP1 SWAP3 SWAP2 SWAP1 DUP2 DUP2 MSTORE PUSH1 0x20 ADD DUP3 DUP1 SLOAD PUSH2 0xE79 SWAP1 PUSH2 0x1A5F JUMP JUMPDEST DUP1 ISZERO PUSH2 0xEC4 JUMPI DUP1 PUSH1 0x1F LT PUSH2 0xE9B JUMPI PUSH2 0x100 DUP1 DUP4 SLOAD DIV MUL DUP4 MSTORE SWAP2 PUSH1 0x20 ADD SWAP2 PUSH2 0xEC4 JUMP JUMPDEST DUP3 ADD SWAP2 SWAP1 PUSH0 MSTORE PUSH1 0x20 PUSH0 KECCAK256 SWAP1 JUMPDEST DUP2 SLOAD DUP2 MSTORE SWAP1 PUSH1 0x1 ADD SWAP1 PUSH1 0x20 ADD DUP1 DUP4 GT PUSH2 0xEA7 JUMPI DUP3 SWAP1 SUB PUSH1 0x1F AND DUP3 ADD SWAP2 JUMPDEST POP POP POP POP POP DUP2 MSTORE PUSH1 0x20 ADD PUSH1 0x2 DUP3 ADD SLOAD DUP2 MSTORE POP POP DUP2 MSTORE PUSH1 0x20 ADD SWAP1 PUSH1 0x1 ADD SWAP1 PUSH2 0xE13 JUMP JUMPDEST POP POP POP POP SWAP1 POP SWAP1 JUMP JUMPDEST PUSH0 PUSH1 0x1 PUSH0 DUP5 PUSH20 0xFFFFFFFFFFFFFFFFFFFFFFFFFFFFFFFFFFFFFFFF AND PUSH20 0xFFFFFFFFFFFFFFFFFFFFFFFFFFFFFFFFFFFFFFFF AND DUP2 MSTORE PUSH1 0x20 ADD SWAP1 DUP2 MSTORE PUSH1 0x20 ADD PUSH0 KECCAK256 PUSH0 DUP4 PUSH20 0xFFFFFFFFFFFFFFFFFFFFFFFFFFFFFFFFFFFFFFFF AND PUSH20 0xFFFFFFFFFFFFFFFFFFFFFFFFFFFFFFFFFFFFFFFF AND DUP2 MSTORE PUSH1 0x20 ADD SWAP1 DUP2 MSTORE PUSH1 0x20 ADD PUSH0 KECCAK256 SLOAD SWAP1 POP SWAP3 SWAP2 POP POP JUMP JUMPDEST PUSH0 CALLER SWAP1 POP SWAP1 JUMP JUMPDEST PUSH2 0xF85 DUP4 DUP4 DUP4 PUSH1 0x1 PUSH2 0x110C JUMP JUMPDEST POP POP POP JUMP JUMPDEST PUSH0 PUSH2 0xF95 DUP5 DUP5 PUSH2 0xEEF JUMP JUMPDEST SWAP1 POP PUSH32 0xFFFFFFFFFFFFFFFFFFFFFFFFFFFFFFFFFFFFFFFFFFFFFFFFFFFFFFFFFFFFFFFF DUP2 EQ PUSH2 0x1016 JUMPI DUP2 DUP2 LT ISZERO PUSH2 0x1007 JUMPI DUP3 DUP2 DUP4 PUSH1 0x40 MLOAD PUSH32 0xFB8F41B200000000000000000000000000000000000000000000000000000000 DUP2 MSTORE PUSH1 0x4 ADD PUSH2 0xFFE SWAP4 SWAP3 SWAP2 SWAP1 PUSH2 0x19E4 JUMP JUMPDEST PUSH1 0x40 MLOAD DUP1 SWAP2 SUB SWAP1 REVERT JUMPDEST PUSH2 0x1015 DUP5 DUP5 DUP5 DUP5 SUB PUSH0 PUSH2 0x110C JUMP JUMPDEST JUMPDEST POP POP POP POP JUMP JUMPDEST PUSH0 PUSH20 0xFFFFFFFFFFFFFFFFFFFFFFFFFFFFFFFFFFFFFFFF AND DUP4 PUSH20 0xFFFFFFFFFFFFFFFFFFFFFFFFFFFFFFFFFFFFFFFF AND SUB PUSH2 0x108C JUMPI PUSH0 PUSH1 0x40 MLOAD PUSH32 0x96C6FD1E00000000000000000000000000000000000000000000000000000000 DUP2 MSTORE PUSH1 0x4 ADD PUSH2 0x1083 SWAP2 SWAP1 PUSH2 0x1A19 JUMP JUMPDEST PUSH1 0x40 MLOAD DUP1 SWAP2 SUB SWAP1 REVERT JUMPDEST PUSH0 PUSH20 0xFFFFFFFFFFFFFFFFFFFFFFFFFFFFFFFFFFFFFFFF AND DUP3 PUSH20 0xFFFFFFFFFFFFFFFFFFFFFFFFFFFFFFFFFFFFFFFF AND SUB PUSH2 0x10FC JUMPI PUSH0 PUSH1 0x40 MLOAD PUSH32 0xEC442F0500000000000000000000000000000000000000000000000000000000 DUP2 MSTORE PUSH1 0x4 ADD PUSH2 0x10F3 SWAP2 SWAP1 PUSH2 0x1A19 JUMP JUMPDEST PUSH1 0x40 MLOAD DUP1 SWAP2 SUB SWAP1 REVERT JUMPDEST PUSH2 0x1107 DUP4 DUP4 DUP4 PUSH2 0x500 JUMP JUMPDEST POP POP POP JUMP JUMPDEST PUSH0 PUSH20 0xFFFFFFFFFFFFFFFFFFFFFFFFFFFFFFFFFFFFFFFF AND DUP5 PUSH20 0xFFFFFFFFFFFFFFFFFFFFFFFFFFFFFFFFFFFFFFFF AND SUB PUSH2 0x117C JUMPI PUSH0 PUSH1 0x40 MLOAD PUSH32 0xE602DF0500000000000000000000000000000000000000000000000000000000 DUP2 MSTORE PUSH1 0x4 ADD PUSH2 0x1173 SWAP2 SWAP1 PUSH2 0x1A19 JUMP JUMPDEST PUSH1 0x40 MLOAD DUP1 SWAP2 SUB SWAP1 REVERT JUMPDEST PUSH0 PUSH20 0xFFFFFFFFFFFFFFFFFFFFFFFFFFFFFFFFFFFFFFFF AND DUP4 PUSH20 0xFFFFFFFFFFFFFFFFFFFFFFFFFFFFFFFFFFFFFFFF AND SUB PUSH2 0x11EC JUMPI PUSH0 PUSH1 0x40 MLOAD PUSH32 0x94280D6200000000000000000000000000000000000000000000000000000000 DUP2 MSTORE PUSH1 0x4 ADD PUSH2 0x11E3 SWAP2 SWAP1 PUSH2 0x1A19 JUMP JUMPDEST PUSH1 0x40 MLOAD DUP1 SWAP2 SUB SWAP1 REVERT JUMPDEST DUP2 PUSH1 0x1 PUSH0 DUP7 PUSH20 0xFFFFFFFFFFFFFFFFFFFFFFFFFFFFFFFFFFFFFFFF AND PUSH20 0xFFFFFFFFFFFFFFFFFFFFFFFFFFFFFFFFFFFFFFFF AND DUP2 MSTORE PUSH1 0x20 ADD SWAP1 DUP2 MSTORE PUSH1 0x20 ADD PUSH0 KECCAK256 PUSH0 DUP6 PUSH20 0xFFFFFFFFFFFFFFFFFFFFFFFFFFFFFFFFFFFFFFFF AND PUSH20 0xFFFFFFFFFFFFFFFFFFFFFFFFFFFFFFFFFFFFFFFF AND DUP2 MSTORE PUSH1 0x20 ADD SWAP1 DUP2 MSTORE PUSH1 0x20 ADD PUSH0 KECCAK256 DUP2 SWAP1 SSTORE POP DUP1 ISZERO PUSH2 0x12D5 JUMPI DUP3 PUSH20 0xFFFFFFFFFFFFFFFFFFFFFFFFFFFFFFFFFFFFFFFF AND DUP5 PUSH20 0xFFFFFFFFFFFFFFFFFFFFFFFFFFFFFFFFFFFFFFFF AND PUSH32 0x8C5BE1E5EBEC7D5BD14F71427D1E84F3DD0314C0F7B2291E5B200AC8C7C3B925 DUP5 PUSH1 0x40 MLOAD PUSH2 0x12CC SWAP2 SWAP1 PUSH2 0x1530 JUMP JUMPDEST PUSH1 0x40 MLOAD DUP1 SWAP2 SUB SWAP1 LOG3 JUMPDEST POP POP POP POP JUMP JUMPDEST PUSH1 0x40 MLOAD DUP1 PUSH1 0x60 ADD PUSH1 0x40 MSTORE DUP1 PUSH0 DUP2 MSTORE PUSH1 0x20 ADD PUSH1 0x60 DUP2 MSTORE PUSH1 0x20 ADD PUSH0 DUP2 MSTORE POP SWAP1 JUMP JUMPDEST PUSH0 DUP2 SWAP1 POP SWAP2 SWAP1 POP JUMP JUMPDEST PUSH32 0x4E487B7100000000000000000000000000000000000000000000000000000000 PUSH0 MSTORE PUSH1 0x11 PUSH1 0x4 MSTORE PUSH1 0x24 PUSH0 REVERT JUMPDEST PUSH0 PUSH2 0x133A DUP3 PUSH2 0x12FA JUMP JUMPDEST SWAP2 POP PUSH2 0x1345 DUP4 PUSH2 0x12FA JUMP JUMPDEST SWAP3 POP DUP3 DUP3 MUL PUSH2 0x1353 DUP2 PUSH2 0x12FA JUMP JUMPDEST SWAP2 POP DUP3 DUP3 DIV DUP5 EQ DUP4 ISZERO OR PUSH2 0x136A JUMPI PUSH2 0x1369 PUSH2 0x1303 JUMP JUMPDEST JUMPDEST POP SWAP3 SWAP2 POP POP JUMP JUMPDEST PUSH0 DUP2 MLOAD SWAP1 POP SWAP2 SWAP1 POP JUMP JUMPDEST PUSH0 DUP3 DUP3 MSTORE PUSH1 0x20 DUP3 ADD SWAP1 POP SWAP3 SWAP2 POP POP JUMP JUMPDEST PUSH0 JUMPDEST DUP4 DUP2 LT ISZERO PUSH2 0x13A8 JUMPI DUP1 DUP3 ADD MLOAD DUP2 DUP5 ADD MSTORE PUSH1 0x20 DUP2 ADD SWAP1 POP PUSH2 0x138D JUMP JUMPDEST PUSH0 DUP5 DUP5 ADD MSTORE POP POP POP POP JUMP JUMPDEST PUSH0 PUSH1 0x1F NOT PUSH1 0x1F DUP4 ADD AND SWAP1 POP SWAP2 SWAP1 POP JUMP JUMPDEST PUSH0 PUSH2 0x13CD DUP3 PUSH2 0x1371 JUMP JUMPDEST PUSH2 0x13D7 DUP2 DUP6 PUSH2 0x137B JUMP JUMPDEST SWAP4 POP PUSH2 0x13E7 DUP2 DUP6 PUSH1 0x20 DUP7 ADD PUSH2 0x138B JUMP JUMPDEST PUSH2 0x13F0 DUP2 PUSH2 0x13B3 JUMP JUMPDEST DUP5 ADD SWAP2 POP POP SWAP3 SWAP2 POP POP JUMP JUMPDEST PUSH0 PUSH1 0x20 DUP3 ADD SWAP1 POP DUP2 DUP2 SUB PUSH0 DUP4 ADD MSTORE PUSH2 0x1413 DUP2 DUP5 PUSH2 0x13C3 JUMP JUMPDEST SWAP1 POP SWAP3 SWAP2 POP POP JUMP JUMPDEST PUSH0 PUSH1 0x40 MLOAD SWAP1 POP SWAP1 JUMP JUMPDEST PUSH0 DUP1 REVERT JUMPDEST PUSH0 DUP1 REVERT JUMPDEST PUSH0 PUSH20 0xFFFFFFFFFFFFFFFFFFFFFFFFFFFFFFFFFFFFFFFF DUP3 AND SWAP1 POP SWAP2 SWAP1 POP JUMP JUMPDEST PUSH0 PUSH2 0x1455 DUP3 PUSH2 0x142C JUMP JUMPDEST SWAP1 POP SWAP2 SWAP1 POP JUMP JUMPDEST PUSH2 0x1465 DUP2 PUSH2 0x144B JUMP JUMPDEST DUP2 EQ PUSH2 0x146F JUMPI PUSH0 DUP1 REVERT JUMPDEST POP JUMP JUMPDEST PUSH0 DUP2 CALLDATALOAD SWAP1 POP PUSH2 0x1480 DUP2 PUSH2 0x145C JUMP JUMPDEST SWAP3 SWAP2 POP POP JUMP JUMPDEST PUSH2 0x148F DUP2 PUSH2 0x12FA JUMP JUMPDEST DUP2 EQ PUSH2 0x1499 JUMPI PUSH0 DUP1 REVERT JUMPDEST POP JUMP JUMPDEST PUSH0 DUP2 CALLDATALOAD SWAP1 POP PUSH2 0x14AA DUP2 PUSH2 0x1486 JUMP JUMPDEST SWAP3 SWAP2 POP POP JUMP JUMPDEST PUSH0 DUP1 PUSH1 0x40 DUP4 DUP6 SUB SLT ISZERO PUSH2 0x14C6 JUMPI PUSH2 0x14C5 PUSH2 0x1424 JUMP JUMPDEST JUMPDEST PUSH0 PUSH2 0x14D3 DUP6 DUP3 DUP7 ADD PUSH2 0x1472 JUMP JUMPDEST SWAP3 POP POP PUSH1 0x20 PUSH2 0x14E4 DUP6 DUP3 DUP7 ADD PUSH2 0x149C JUMP JUMPDEST SWAP2 POP POP SWAP3 POP SWAP3 SWAP1 POP JUMP JUMPDEST PUSH0 DUP2 ISZERO ISZERO SWAP1 POP SWAP2 SWAP1 POP JUMP JUMPDEST PUSH2 0x1502 DUP2 PUSH2 0x14EE JUMP JUMPDEST DUP3 MSTORE POP POP JUMP JUMPDEST PUSH0 PUSH1 0x20 DUP3 ADD SWAP1 POP PUSH2 0x151B PUSH0 DUP4 ADD DUP5 PUSH2 0x14F9 JUMP JUMPDEST SWAP3 SWAP2 POP POP JUMP JUMPDEST PUSH2 0x152A DUP2 PUSH2 0x12FA JUMP JUMPDEST DUP3 MSTORE POP POP JUMP JUMPDEST PUSH0 PUSH1 0x20 DUP3 ADD SWAP1 POP PUSH2 0x1543 PUSH0 DUP4 ADD DUP5 PUSH2 0x1521 JUMP JUMPDEST SWAP3 SWAP2 POP POP JUMP JUMPDEST PUSH0 DUP1 PUSH0 PUSH1 0x60 DUP5 DUP7 SUB SLT ISZERO PUSH2 0x1560 JUMPI PUSH2 0x155F PUSH2 0x1424 JUMP JUMPDEST JUMPDEST PUSH0 PUSH2 0x156D DUP7 DUP3 DUP8 ADD PUSH2 0x1472 JUMP JUMPDEST SWAP4 POP POP PUSH1 0x20 PUSH2 0x157E DUP7 DUP3 DUP8 ADD PUSH2 0x1472 JUMP JUMPDEST SWAP3 POP POP PUSH1 0x40 PUSH2 0x158F DUP7 DUP3 DUP8 ADD PUSH2 0x149C JUMP JUMPDEST SWAP2 POP POP SWAP3 POP SWAP3 POP SWAP3 JUMP JUMPDEST PUSH0 PUSH1 0xFF DUP3 AND SWAP1 POP SWAP2 SWAP1 POP JUMP JUMPDEST PUSH2 0x15AE DUP2 PUSH2 0x1599 JUMP JUMPDEST DUP3 MSTORE POP POP JUMP JUMPDEST PUSH0 PUSH1 0x20 DUP3 ADD SWAP1 POP PUSH2 0x15C7 PUSH0 DUP4 ADD DUP5 PUSH2 0x15A5 JUMP JUMPDEST SWAP3 SWAP2 POP POP JUMP JUMPDEST PUSH0 PUSH1 0x20 DUP3 DUP5 SUB SLT ISZERO PUSH2 0x15E2 JUMPI PUSH2 0x15E1 PUSH2 0x1424 JUMP JUMPDEST JUMPDEST PUSH0 PUSH2 0x15EF DUP5 DUP3 DUP6 ADD PUSH2 0x1472 JUMP JUMPDEST SWAP2 POP POP SWAP3 SWAP2 POP POP JUMP JUMPDEST PUSH0 PUSH1 0x20 DUP3 DUP5 SUB SLT ISZERO PUSH2 0x160D JUMPI PUSH2 0x160C PUSH2 0x1424 JUMP JUMPDEST JUMPDEST PUSH0 PUSH2 0x161A DUP5 DUP3 DUP6 ADD PUSH2 0x149C JUMP JUMPDEST SWAP2 POP POP SWAP3 SWAP2 POP POP JUMP JUMPDEST PUSH0 PUSH1 0x60 DUP3 ADD SWAP1 POP PUSH2 0x1636 PUSH0 DUP4 ADD DUP7 PUSH2 0x1521 JUMP JUMPDEST DUP2 DUP2 SUB PUSH1 0x20 DUP4 ADD MSTORE PUSH2 0x1648 DUP2 DUP6 PUSH2 0x13C3 JUMP JUMPDEST SWAP1 POP PUSH2 0x1657 PUSH1 0x40 DUP4 ADD DUP5 PUSH2 0x1521 JUMP JUMPDEST SWAP5 SWAP4 POP POP POP POP JUMP JUMPDEST PUSH0 DUP1 REVERT JUMPDEST PUSH0 DUP1 REVERT JUMPDEST PUSH32 0x4E487B7100000000000000000000000000000000000000000000000000000000 PUSH0 MSTORE PUSH1 0x41 PUSH1 0x4 MSTORE PUSH1 0x24 PUSH0 REVERT JUMPDEST PUSH2 0x169D DUP3 PUSH2 0x13B3 JUMP JUMPDEST DUP2 ADD DUP2 DUP2 LT PUSH8 0xFFFFFFFFFFFFFFFF DUP3 GT OR ISZERO PUSH2 0x16BC JUMPI PUSH2 0x16BB PUSH2 0x1667 JUMP JUMPDEST JUMPDEST DUP1 PUSH1 0x40 MSTORE POP POP POP JUMP JUMPDEST PUSH0 PUSH2 0x16CE PUSH2 0x141B JUMP JUMPDEST SWAP1 POP PUSH2 0x16DA DUP3 DUP3 PUSH2 0x1694 JUMP JUMPDEST SWAP2 SWAP1 POP JUMP JUMPDEST PUSH0 PUSH8 0xFFFFFFFFFFFFFFFF DUP3 GT ISZERO PUSH2 0x16F9 JUMPI PUSH2 0x16F8 PUSH2 0x1667 JUMP JUMPDEST JUMPDEST PUSH2 0x1702 DUP3 PUSH2 0x13B3 JUMP JUMPDEST SWAP1 POP PUSH1 0x20 DUP2 ADD SWAP1 POP SWAP2 SWAP1 POP JUMP JUMPDEST DUP3 DUP2 DUP4 CALLDATACOPY PUSH0 DUP4 DUP4 ADD MSTORE POP POP POP JUMP JUMPDEST PUSH0 PUSH2 0x172F PUSH2 0x172A DUP5 PUSH2 0x16DF JUMP JUMPDEST PUSH2 0x16C5 JUMP JUMPDEST SWAP1 POP DUP3 DUP2 MSTORE PUSH1 0x20 DUP2 ADD DUP5 DUP5 DUP5 ADD GT ISZERO PUSH2 0x174B JUMPI PUSH2 0x174A PUSH2 0x1663 JUMP JUMPDEST JUMPDEST PUSH2 0x1756 DUP5 DUP3 DUP6 PUSH2 0x170F JUMP JUMPDEST POP SWAP4 SWAP3 POP POP POP JUMP JUMPDEST PUSH0 DUP3 PUSH1 0x1F DUP4 ADD SLT PUSH2 0x1772 JUMPI PUSH2 0x1771 PUSH2 0x165F JUMP JUMPDEST JUMPDEST DUP2 CALLDATALOAD PUSH2 0x1782 DUP5 DUP3 PUSH1 0x20 DUP7 ADD PUSH2 0x171D JUMP JUMPDEST SWAP2 POP POP SWAP3 SWAP2 POP POP JUMP JUMPDEST PUSH0 DUP1 PUSH1 0x40 DUP4 DUP6 SUB SLT ISZERO PUSH2 0x17A1 JUMPI PUSH2 0x17A0 PUSH2 0x1424 JUMP JUMPDEST JUMPDEST PUSH0 DUP4 ADD CALLDATALOAD PUSH8 0xFFFFFFFFFFFFFFFF DUP2 GT ISZERO PUSH2 0x17BE JUMPI PUSH2 0x17BD PUSH2 0x1428 JUMP JUMPDEST JUMPDEST PUSH2 0x17CA DUP6 DUP3 DUP7 ADD PUSH2 0x175E JUMP JUMPDEST SWAP3 POP POP PUSH1 0x20 PUSH2 0x17DB DUP6 DUP3 DUP7 ADD PUSH2 0x149C JUMP JUMPDEST SWAP2 POP POP SWAP3 POP SWAP3 SWAP1 POP JUMP JUMPDEST PUSH0 DUP2 MLOAD SWAP1 POP SWAP2 SWAP1 POP JUMP JUMPDEST PUSH0 DUP3 DUP3 MSTORE PUSH1 0x20 DUP3 ADD SWAP1 POP SWAP3 SWAP2 POP POP JUMP JUMPDEST PUSH0 DUP2 SWAP1 POP PUSH1 0x20 DUP3 ADD SWAP1 POP SWAP2 SWAP1 POP JUMP JUMPDEST PUSH2 0x1817 DUP2 PUSH2 0x12FA JUMP JUMPDEST DUP3 MSTORE POP POP JUMP JUMPDEST PUSH0 DUP3 DUP3 MSTORE PUSH1 0x20 DUP3 ADD SWAP1 POP SWAP3 SWAP2 POP POP JUMP JUMPDEST PUSH0 PUSH2 0x1837 DUP3 PUSH2 0x1371 JUMP JUMPDEST PUSH2 0x1841 DUP2 DUP6 PUSH2 0x181D JUMP JUMPDEST SWAP4 POP PUSH2 0x1851 DUP2 DUP6 PUSH1 0x20 DUP7 ADD PUSH2 0x138B JUMP JUMPDEST PUSH2 0x185A DUP2 PUSH2 0x13B3 JUMP JUMPDEST DUP5 ADD SWAP2 POP POP SWAP3 SWAP2 POP POP JUMP JUMPDEST PUSH0 PUSH1 0x60 DUP4 ADD PUSH0 DUP4 ADD MLOAD PUSH2 0x187A PUSH0 DUP7 ADD DUP3 PUSH2 0x180E JUMP JUMPDEST POP PUSH1 0x20 DUP4 ADD MLOAD DUP5 DUP3 SUB PUSH1 0x20 DUP7 ADD MSTORE PUSH2 0x1892 DUP3 DUP3 PUSH2 0x182D JUMP JUMPDEST SWAP2 POP POP PUSH1 0x40 DUP4 ADD MLOAD PUSH2 0x18A7 PUSH1 0x40 DUP7 ADD DUP3 PUSH2 0x180E JUMP JUMPDEST POP DUP1 SWAP2 POP POP SWAP3 SWAP2 POP POP JUMP JUMPDEST PUSH0 PUSH2 0x18BD DUP4 DUP4 PUSH2 0x1865 JUMP JUMPDEST SWAP1 POP SWAP3 SWAP2 POP POP JUMP JUMPDEST PUSH0 PUSH1 0x20 DUP3 ADD SWAP1 POP SWAP2 SWAP1 POP JUMP JUMPDEST PUSH0 PUSH2 0x18DB DUP3 PUSH2 0x17E5 JUMP JUMPDEST PUSH2 0x18E5 DUP2 DUP6 PUSH2 0x17EF JUMP JUMPDEST SWAP4 POP DUP4 PUSH1 0x20 DUP3 MUL DUP6 ADD PUSH2 0x18F7 DUP6 PUSH2 0x17FF JUMP JUMPDEST DUP1 PUSH0 JUMPDEST DUP6 DUP2 LT ISZERO PUSH2 0x1932 JUMPI DUP5 DUP5 SUB DUP10 MSTORE DUP2 MLOAD PUSH2 0x1913 DUP6 DUP3 PUSH2 0x18B2 JUMP JUMPDEST SWAP5 POP PUSH2 0x191E DUP4 PUSH2 0x18C5 JUMP JUMPDEST SWAP3 POP PUSH1 0x20 DUP11 ADD SWAP10 POP POP PUSH1 0x1 DUP2 ADD SWAP1 POP PUSH2 0x18FA JUMP JUMPDEST POP DUP3 SWAP8 POP DUP8 SWAP6 POP POP POP POP POP POP SWAP3 SWAP2 POP POP JUMP JUMPDEST PUSH0 PUSH1 0x20 DUP3 ADD SWAP1 POP DUP2 DUP2 SUB PUSH0 DUP4 ADD MSTORE PUSH2 0x195C DUP2 DUP5 PUSH2 0x18D1 JUMP JUMPDEST SWAP1 POP SWAP3 SWAP2 POP POP JUMP JUMPDEST PUSH0 DUP1 PUSH1 0x40 DUP4 DUP6 SUB SLT ISZERO PUSH2 0x197A JUMPI PUSH2 0x1979 PUSH2 0x1424 JUMP JUMPDEST JUMPDEST PUSH0 PUSH2 0x1987 DUP6 DUP3 DUP7 ADD PUSH2 0x1472 JUMP JUMPDEST SWAP3 POP POP PUSH1 0x20 PUSH2 0x1998 DUP6 DUP3 DUP7 ADD PUSH2 0x1472 JUMP JUMPDEST SWAP2 POP POP SWAP3 POP SWAP3 SWAP1 POP JUMP JUMPDEST PUSH0 PUSH2 0x19AC DUP3 PUSH2 0x12FA JUMP JUMPDEST SWAP2 POP PUSH2 0x19B7 DUP4 PUSH2 0x12FA JUMP JUMPDEST SWAP3 POP DUP3 DUP3 ADD SWAP1 POP DUP1 DUP3 GT ISZERO PUSH2 0x19CF JUMPI PUSH2 0x19CE PUSH2 0x1303 JUMP JUMPDEST JUMPDEST SWAP3 SWAP2 POP POP JUMP JUMPDEST PUSH2 0x19DE DUP2 PUSH2 0x144B JUMP JUMPDEST DUP3 MSTORE POP POP JUMP JUMPDEST PUSH0 PUSH1 0x60 DUP3 ADD SWAP1 POP PUSH2 0x19F7 PUSH0 DUP4 ADD DUP7 PUSH2 0x19D5 JUMP JUMPDEST PUSH2 0x1A04 PUSH1 0x20 DUP4 ADD DUP6 PUSH2 0x1521 JUMP JUMPDEST PUSH2 0x1A11 PUSH1 0x40 DUP4 ADD DUP5 PUSH2 0x1521 JUMP JUMPDEST SWAP5 SWAP4 POP POP POP POP JUMP JUMPDEST PUSH0 PUSH1 0x20 DUP3 ADD SWAP1 POP PUSH2 0x1A2C PUSH0 DUP4 ADD DUP5 PUSH2 0x19D5 JUMP JUMPDEST SWAP3 SWAP2 POP POP JUMP JUMPDEST PUSH32 0x4E487B7100000000000000000000000000000000000000000000000000000000 PUSH0 MSTORE PUSH1 0x22 PUSH1 0x4 MSTORE PUSH1 0x24 PUSH0 REVERT JUMPDEST PUSH0 PUSH1 0x2 DUP3 DIV SWAP1 POP PUSH1 0x1 DUP3 AND DUP1 PUSH2 0x1A76 JUMPI PUSH1 0x7F DUP3 AND SWAP2 POP JUMPDEST PUSH1 0x20 DUP3 LT DUP2 SUB PUSH2 0x1A89 JUMPI PUSH2 0x1A88 PUSH2 0x1A32 JUMP JUMPDEST JUMPDEST POP SWAP2 SWAP1 POP JUMP JUMPDEST PUSH32 0x4E487B7100000000000000000000000000000000000000000000000000000000 PUSH0 MSTORE PUSH1 0x32 PUSH1 0x4 MSTORE PUSH1 0x24 PUSH0 REVERT JUMPDEST PUSH0 PUSH2 0x1AC6 DUP3 PUSH2 0x12FA JUMP JUMPDEST SWAP2 POP PUSH32 0xFFFFFFFFFFFFFFFFFFFFFFFFFFFFFFFFFFFFFFFFFFFFFFFFFFFFFFFFFFFFFFFF DUP3 SUB PUSH2 0x1AF8 JUMPI PUSH2 0x1AF7 PUSH2 0x1303 JUMP JUMPDEST JUMPDEST PUSH1 0x1 DUP3 ADD SWAP1 POP SWAP2 SWAP1 POP JUMP JUMPDEST PUSH0 DUP2 SWAP1 POP DUP2 PUSH0 MSTORE PUSH1 0x20 PUSH0 KECCAK256 SWAP1 POP SWAP2 SWAP1 POP JUMP JUMPDEST PUSH0 PUSH1 0x20 PUSH1 0x1F DUP4 ADD DIV SWAP1 POP SWAP2 SWAP1 POP JUMP JUMPDEST PUSH0 DUP3 DUP3 SHL SWAP1 POP SWAP3 SWAP2 POP POP JUMP JUMPDEST PUSH0 PUSH1 0x8 DUP4 MUL PUSH2 0x1B5F PUSH32 0xFFFFFFFFFFFFFFFFFFFFFFFFFFFFFFFFFFFFFFFFFFFFFFFFFFFFFFFFFFFFFFFF DUP3 PUSH2 0x1B24 JUMP JUMPDEST PUSH2 0x1B69 DUP7 DUP4 PUSH2 0x1B24 JUMP JUMPDEST SWAP6 POP DUP1 NOT DUP5 AND SWAP4 POP DUP1 DUP7 AND DUP5 OR SWAP3 POP POP POP SWAP4 SWAP3 POP POP POP JUMP JUMPDEST PUSH0 DUP2 SWAP1 POP SWAP2 SWAP1 POP JUMP JUMPDEST PUSH0 PUSH2 0x1BA4 PUSH2 0x1B9F PUSH2 0x1B9A DUP5 PUSH2 0x12FA JUMP JUMPDEST PUSH2 0x1B81 JUMP JUMPDEST PUSH2 0x12FA JUMP JUMPDEST SWAP1 POP SWAP2 SWAP1 POP JUMP JUMPDEST PUSH0 DUP2 SWAP1 POP SWAP2 SWAP1 POP JUMP JUMPDEST PUSH2 0x1BBD DUP4 PUSH2 0x1B8A JUMP JUMPDEST PUSH2 0x1BD1 PUSH2 0x1BC9 DUP3 PUSH2 0x1BAB JUMP JUMPDEST DUP5 DUP5 SLOAD PUSH2 0x1B30 JUMP JUMPDEST DUP3 SSTORE POP POP POP POP JUMP JUMPDEST PUSH0 SWAP1 JUMP JUMPDEST PUSH2 0x1BE5 PUSH2 0x1BD9 JUMP JUMPDEST PUSH2 0x1BF0 DUP2 DUP5 DUP5 PUSH2 0x1BB4 JUMP JUMPDEST POP POP POP JUMP JUMPDEST JUMPDEST DUP2 DUP2 LT ISZERO PUSH2 0x1C13 JUMPI PUSH2 0x1C08 PUSH0 DUP3 PUSH2 0x1BDD JUMP JUMPDEST PUSH1 0x1 DUP2 ADD SWAP1 POP PUSH2 0x1BF6 JUMP JUMPDEST POP POP JUMP JUMPDEST PUSH1 0x1F DUP3 GT ISZERO PUSH2 0x1C58 JUMPI PUSH2 0x1C29 DUP2 PUSH2 0x1B03 JUMP JUMPDEST PUSH2 0x1C32 DUP5 PUSH2 0x1B15 JUMP JUMPDEST DUP2 ADD PUSH1 0x20 DUP6 LT ISZERO PUSH2 0x1C41 JUMPI DUP2 SWAP1 POP JUMPDEST PUSH2 0x1C55 PUSH2 0x1C4D DUP6 PUSH2 0x1B15 JUMP JUMPDEST DUP4 ADD DUP3 PUSH2 0x1BF5 JUMP JUMPDEST POP POP JUMPDEST POP POP POP JUMP JUMPDEST PUSH0 DUP3 DUP3 SHR SWAP1 POP SWAP3 SWAP2 POP POP JUMP JUMPDEST PUSH0 PUSH2 0x1C78 PUSH0 NOT DUP5 PUSH1 0x8 MUL PUSH2 0x1C5D JUMP JUMPDEST NOT DUP1 DUP4 AND SWAP2 POP POP SWAP3 SWAP2 POP POP JUMP JUMPDEST PUSH0 PUSH2 0x1C90 DUP4 DUP4 PUSH2 0x1C69 JUMP JUMPDEST SWAP2 POP DUP3 PUSH1 0x2 MUL DUP3 OR SWAP1 POP SWAP3 SWAP2 POP POP JUMP JUMPDEST PUSH2 0x1CA9 DUP3 PUSH2 0x1371 JUMP JUMPDEST PUSH8 0xFFFFFFFFFFFFFFFF DUP2 GT ISZERO PUSH2 0x1CC2 JUMPI PUSH2 0x1CC1 PUSH2 0x1667 JUMP JUMPDEST JUMPDEST PUSH2 0x1CCC DUP3 SLOAD PUSH2 0x1A5F JUMP JUMPDEST PUSH2 0x1CD7 DUP3 DUP3 DUP6 PUSH2 0x1C17 JUMP JUMPDEST PUSH0 PUSH1 0x20 SWAP1 POP PUSH1 0x1F DUP4 GT PUSH1 0x1 DUP2 EQ PUSH2 0x1D08 JUMPI PUSH0 DUP5 ISZERO PUSH2 0x1CF6 JUMPI DUP3 DUP8 ADD MLOAD SWAP1 POP JUMPDEST PUSH2 0x1D00 DUP6 DUP3 PUSH2 0x1C85 JUMP JUMPDEST DUP7 SSTORE POP PUSH2 0x1D67 JUMP JUMPDEST PUSH1 0x1F NOT DUP5 AND PUSH2 0x1D16 DUP7 PUSH2 0x1B03 JUMP JUMPDEST PUSH0 JUMPDEST DUP3 DUP2 LT ISZERO PUSH2 0x1D3D JUMPI DUP5 DUP10 ADD MLOAD DUP3 SSTORE PUSH1 0x1 DUP3 ADD SWAP2 POP PUSH1 0x20 DUP6 ADD SWAP5 POP PUSH1 0x20 DUP2 ADD SWAP1 POP PUSH2 0x1D18 JUMP JUMPDEST DUP7 DUP4 LT ISZERO PUSH2 0x1D5A JUMPI DUP5 DUP10 ADD MLOAD PUSH2 0x1D56 PUSH1 0x1F DUP10 AND DUP3 PUSH2 0x1C69 JUMP JUMPDEST DUP4 SSTORE POP JUMPDEST PUSH1 0x1 PUSH1 0x2 DUP9 MUL ADD DUP9 SSTORE POP POP POP JUMPDEST POP POP POP POP POP POP JUMP JUMPDEST PUSH0 DUP2 PUSH1 0x1 SHR SWAP1 POP SWAP2 SWAP1 POP JUMP JUMPDEST PUSH0 DUP1 DUP3 SWAP2 POP DUP4 SWAP1 POP JUMPDEST PUSH1 0x1 DUP6 GT ISZERO PUSH2 0x1DC4 JUMPI DUP1 DUP7 DIV DUP2 GT ISZERO PUSH2 0x1DA0 JUMPI PUSH2 0x1D9F PUSH2 0x1303 JUMP JUMPDEST JUMPDEST PUSH1 0x1 DUP6 AND ISZERO PUSH2 0x1DAF JUMPI DUP1 DUP3 MUL SWAP2 POP JUMPDEST DUP1 DUP2 MUL SWAP1 POP PUSH2 0x1DBD DUP6 PUSH2 0x1D6F JUMP JUMPDEST SWAP5 POP PUSH2 0x1D84 JUMP JUMPDEST SWAP5 POP SWAP5 SWAP3 POP POP POP JUMP JUMPDEST PUSH0 DUP3 PUSH2 0x1DDC JUMPI PUSH1 0x1 SWAP1 POP PUSH2 0x1E97 JUMP JUMPDEST DUP2 PUSH2 0x1DE9 JUMPI PUSH0 SWAP1 POP PUSH2 0x1E97 JUMP JUMPDEST DUP2 PUSH1 0x1 DUP2 EQ PUSH2 0x1DFF JUMPI PUSH1 0x2 DUP2 EQ PUSH2 0x1E09 JUMPI PUSH2 0x1E38 JUMP JUMPDEST PUSH1 0x1 SWAP2 POP POP PUSH2 0x1E97 JUMP JUMPDEST PUSH1 0xFF DUP5 GT ISZERO PUSH2 0x1E1B JUMPI PUSH2 0x1E1A PUSH2 0x1303 JUMP JUMPDEST JUMPDEST DUP4 PUSH1 0x2 EXP SWAP2 POP DUP5 DUP3 GT ISZERO PUSH2 0x1E32 JUMPI PUSH2 0x1E31 PUSH2 0x1303 JUMP JUMPDEST JUMPDEST POP PUSH2 0x1E97 JUMP JUMPDEST POP PUSH1 0x20 DUP4 LT PUSH2 0x133 DUP4 LT AND PUSH1 0x4E DUP5 LT PUSH1 0xB DUP5 LT AND OR ISZERO PUSH2 0x1E6D JUMPI DUP3 DUP3 EXP SWAP1 POP DUP4 DUP2 GT ISZERO PUSH2 0x1E68 JUMPI PUSH2 0x1E67 PUSH2 0x1303 JUMP JUMPDEST JUMPDEST PUSH2 0x1E97 JUMP JUMPDEST PUSH2 0x1E7A DUP5 DUP5 DUP5 PUSH1 0x1 PUSH2 0x1D7B JUMP JUMPDEST SWAP3 POP SWAP1 POP DUP2 DUP5 DIV DUP2 GT ISZERO PUSH2 0x1E91 JUMPI PUSH2 0x1E90 PUSH2 0x1303 JUMP JUMPDEST JUMPDEST DUP2 DUP2 MUL SWAP1 POP JUMPDEST SWAP4 SWAP3 POP POP POP JUMP JUMPDEST PUSH0 PUSH2 0x1EA8 DUP3 PUSH2 0x12FA JUMP JUMPDEST SWAP2 POP PUSH2 0x1EB3 DUP4 PUSH2 0x1599 JUMP JUMPDEST SWAP3 POP PUSH2 0x1EE0 PUSH32 0xFFFFFFFFFFFFFFFFFFFFFFFFFFFFFFFFFFFFFFFFFFFFFFFFFFFFFFFFFFFFFFFF DUP5 DUP5 PUSH2 0x1DCD JUMP JUMPDEST SWAP1 POP SWAP3 SWAP2 POP POP JUMP INVALID LOG2 PUSH5 0x6970667358 0x22 SLT KECCAK256 0x25 CALLDATACOPY PUSH19 0xBEED89F532E1141B630C71D478398DD7F57B4C ISZERO 0xD4 0xDE SSTORE JUMPI 0xC9 0xA8 SGT DUP15 RETURN PUSH5 0x736F6C6343 STOP ADDMOD EQ STOP CALLER "
				},
				"gasEstimates": {
					"creation": {
						"codeDepositCost": "1593200",
						"executionCost": "infinite",
						"totalCost": "infinite"
					},
					"external": {
						"allowance(address,address)": "infinite",
						"approve(address,uint256)": "infinite",
						"balanceOf(address)": "2896",
						"buyProduct(uint256)": "infinite",
						"decimals()": "383",
						"getProducts()": "infinite",
						"getUserProducts()": "infinite",
						"name()": "infinite",
						"products(uint256)": "infinite",
						"registerProduct(string,uint256)": "infinite",
						"symbol()": "infinite",
						"totalSupply()": "2500",
						"transfer(address,uint256)": "infinite",
						"transferFrom(address,address,uint256)": "infinite"
					}
				},
				"methodIdentifiers": {
					"allowance(address,address)": "dd62ed3e",
					"approve(address,uint256)": "095ea7b3",
					"balanceOf(address)": "70a08231",
					"buyProduct(uint256)": "8642269e",
					"decimals()": "313ce567",
					"getProducts()": "c29b2f20",
					"getUserProducts()": "aba7b314",
					"name()": "06fdde03",
					"products(uint256)": "7acc0b20",
					"registerProduct(string,uint256)": "8c96091b",
					"symbol()": "95d89b41",
					"totalSupply()": "18160ddd",
					"transfer(address,uint256)": "a9059cbb",
					"transferFrom(address,address,uint256)": "23b872dd"
				}
			},
			"storageLayout": {
				"storage": [
					{
						"astId": 375,
						"contract": "Shop.sol:Shop",
						"label": "_balances",
						"offset": 0,
						"slot": "0",
						"type": "t_mapping(t_address,t_uint256)"
					},
					{
						"astId": 381,
						"contract": "Shop.sol:Shop",
						"label": "_allowances",
						"offset": 0,
						"slot": "1",
						"type": "t_mapping(t_address,t_mapping(t_address,t_uint256))"
					},
					{
						"astId": 383,
						"contract": "Shop.sol:Shop",
						"label": "_totalSupply",
						"offset": 0,
						"slot": "2",
						"type": "t_uint256"
					},
					{
						"astId": 385,
						"contract": "Shop.sol:Shop",
						"label": "_name",
						"offset": 0,
						"slot": "3",
						"type": "t_string_storage"
					},
					{
						"astId": 387,
						"contract": "Shop.sol:Shop",
						"label": "_symbol",
						"offset": 0,
						"slot": "4",
						"type": "t_string_storage"
					},
					{
						"astId": 6,
						"contract": "Shop.sol:Shop",
						"label": "owner",
						"offset": 0,
						"slot": "5",
						"type": "t_address"
					},
					{
						"astId": 41,
						"contract": "Shop.sol:Shop",
						"label": "products",
						"offset": 0,
						"slot": "6",
						"type": "t_array(t_struct(Product)37_storage)dyn_storage"
					},
					{
						"astId": 44,
						"contract": "Shop.sol:Shop",
						"label": "productId",
						"offset": 0,
						"slot": "7",
						"type": "t_uint256"
					},
					{
						"astId": 50,
						"contract": "Shop.sol:Shop",
						"label": "userProducts",
						"offset": 0,
						"slot": "8",
						"type": "t_mapping(t_address,t_array(t_struct(Product)37_storage)dyn_storage)"
					}
				],
				"types": {
					"t_address": {
						"encoding": "inplace",
						"label": "address",
						"numberOfBytes": "20"
					},
					"t_array(t_struct(Product)37_storage)dyn_storage": {
						"base": "t_struct(Product)37_storage",
						"encoding": "dynamic_array",
						"label": "struct Shop.Product[]",
						"numberOfBytes": "32"
					},
					"t_mapping(t_address,t_array(t_struct(Product)37_storage)dyn_storage)": {
						"encoding": "mapping",
						"key": "t_address",
						"label": "mapping(address => struct Shop.Product[])",
						"numberOfBytes": "32",
						"value": "t_array(t_struct(Product)37_storage)dyn_storage"
					},
					"t_mapping(t_address,t_mapping(t_address,t_uint256))": {
						"encoding": "mapping",
						"key": "t_address",
						"label": "mapping(address => mapping(address => uint256))",
						"numberOfBytes": "32",
						"value": "t_mapping(t_address,t_uint256)"
					},
					"t_mapping(t_address,t_uint256)": {
						"encoding": "mapping",
						"key": "t_address",
						"label": "mapping(address => uint256)",
						"numberOfBytes": "32",
						"value": "t_uint256"
					},
					"t_string_storage": {
						"encoding": "bytes",
						"label": "string",
						"numberOfBytes": "32"
					},
					"t_struct(Product)37_storage": {
						"encoding": "inplace",
						"label": "struct Shop.Product",
						"members": [
							{
								"astId": 32,
								"contract": "Shop.sol:Shop",
								"label": "id",
								"offset": 0,
								"slot": "0",
								"type": "t_uint256"
							},
							{
								"astId": 34,
								"contract": "Shop.sol:Shop",
								"label": "name",
								"offset": 0,
								"slot": "1",
								"type": "t_string_storage"
							},
							{
								"astId": 36,
								"contract": "Shop.sol:Shop",
								"label": "price",
								"offset": 0,
								"slot": "2",
								"type": "t_uint256"
							}
						],
						"numberOfBytes": "96"
					},
					"t_uint256": {
						"encoding": "inplace",
						"label": "uint256",
						"numberOfBytes": "32"
					}
				}
			},
			"userdoc": {
				"kind": "user",
				"methods": {},
				"version": 1
			}
		}
	}
}